{"abi":[{"type":"function","name":"GetInitializeData","inputs":[{"name":"account","type":"address","internalType":"address"},{"name":"newBasisPoints","type":"uint256","internalType":"uint256"}],"outputs":[{"name":"","type":"bytes","internalType":"bytes"}],"stateMutability":"pure"},{"type":"function","name":"MAX_UINT","inputs":[],"outputs":[{"name":"","type":"uint256","internalType":"uint256"}],"stateMutability":"view"},{"type":"function","name":"addFeeAccount","inputs":[{"name":"account","type":"address","internalType":"address"}],"outputs":[],"stateMutability":"nonpayable"},{"type":"function","name":"basisPointsRate","inputs":[],"outputs":[{"name":"","type":"uint256","internalType":"uint256"}],"stateMutability":"view"},{"type":"function","name":"calcCommonFee","inputs":[{"name":"_value","type":"uint256","internalType":"uint256"}],"outputs":[{"name":"","type":"uint256","internalType":"uint256"}],"stateMutability":"view"},{"type":"function","name":"calcFee","inputs":[{"name":"account","type":"address","internalType":"address"},{"name":"_value","type":"uint256","internalType":"uint256"}],"outputs":[{"name":"_fee","type":"uint256","internalType":"uint256"}],"stateMutability":"view"},{"type":"function","name":"feeAccountKeys","inputs":[{"name":"","type":"uint256","internalType":"uint256"}],"outputs":[{"name":"","type":"address","internalType":"address"}],"stateMutability":"view"},{"type":"function","name":"feeAccounts","inputs":[{"name":"","type":"address","internalType":"address"}],"outputs":[{"name":"","type":"uint256","internalType":"uint256"}],"stateMutability":"view"},{"type":"function","name":"feeRateAccounts","inputs":[{"name":"","type":"address","internalType":"address"}],"outputs":[{"name":"","type":"uint256","internalType":"uint256"}],"stateMutability":"view"},{"type":"function","name":"getFeeAccounts","inputs":[],"outputs":[{"name":"","type":"address[]","internalType":"address[]"}],"stateMutability":"view"},{"type":"function","name":"initialize","inputs":[{"name":"account","type":"address","internalType":"address"},{"name":"newBasisPoints","type":"uint256","internalType":"uint256"}],"outputs":[],"stateMutability":"nonpayable"},{"type":"function","name":"maximumFee","inputs":[],"outputs":[{"name":"","type":"uint256","internalType":"uint256"}],"stateMutability":"view"},{"type":"function","name":"owner","inputs":[],"outputs":[{"name":"","type":"address","internalType":"address"}],"stateMutability":"view"},{"type":"function","name":"removeFeeAccount","inputs":[{"name":"account","type":"address","internalType":"address"}],"outputs":[],"stateMutability":"nonpayable"},{"type":"function","name":"renounceOwnership","inputs":[],"outputs":[],"stateMutability":"nonpayable"},{"type":"function","name":"setParams","inputs":[{"name":"newBasisPoints","type":"uint256","internalType":"uint256"},{"name":"newMaxFee","type":"uint256","internalType":"uint256"},{"name":"_decimals","type":"uint8","internalType":"uint8"}],"outputs":[{"name":"","type":"bool","internalType":"bool"}],"stateMutability":"nonpayable"},{"type":"function","name":"totalFee","inputs":[{"name":"_account","type":"address","internalType":"address"}],"outputs":[{"name":"","type":"uint256","internalType":"uint256"}],"stateMutability":"view"},{"type":"function","name":"transferOwnership","inputs":[{"name":"newOwner","type":"address","internalType":"address"}],"outputs":[],"stateMutability":"nonpayable"},{"type":"function","name":"updateFeeAccountAmount","inputs":[{"name":"account","type":"address","internalType":"address"},{"name":"amount","type":"uint256","internalType":"uint256"}],"outputs":[],"stateMutability":"nonpayable"},{"type":"event","name":"Initialized","inputs":[{"name":"version","type":"uint8","indexed":false,"internalType":"uint8"}],"anonymous":false},{"type":"event","name":"OwnershipTransferred","inputs":[{"name":"previousOwner","type":"address","indexed":true,"internalType":"address"},{"name":"newOwner","type":"address","indexed":true,"internalType":"address"}],"anonymous":false},{"type":"event","name":"Params","inputs":[{"name":"feeBasisPoints","type":"uint256","indexed":false,"internalType":"uint256"},{"name":"maxFee","type":"uint256","indexed":false,"internalType":"uint256"}],"anonymous":false},{"type":"event","name":"TransferFee","inputs":[{"name":"from","type":"address","indexed":true,"internalType":"address"},{"name":"to","type":"address","indexed":true,"internalType":"address"},{"name":"value","type":"uint256","indexed":false,"internalType":"uint256"},{"name":"orderId","type":"bytes","indexed":false,"internalType":"bytes"}],"anonymous":false},{"type":"event","name":"TransferWithRSV","inputs":[{"name":"from","type":"address","indexed":true,"internalType":"address"},{"name":"to","type":"address","indexed":true,"internalType":"address"},{"name":"nonce","type":"bytes32","indexed":true,"internalType":"bytes32"},{"name":"orderId","type":"bytes","indexed":false,"internalType":"bytes"},{"name":"value","type":"uint256","indexed":false,"internalType":"uint256"},{"name":"validAfter","type":"uint256","indexed":false,"internalType":"uint256"},{"name":"validBefore","type":"uint256","indexed":false,"internalType":"uint256"}],"anonymous":false},{"type":"event","name":"TransferWithSign","inputs":[{"name":"from","type":"address","indexed":true,"internalType":"address"},{"name":"to","type":"address","indexed":true,"internalType":"address"},{"name":"nonce","type":"bytes32","indexed":true,"internalType":"bytes32"},{"name":"orderId","type":"bytes","indexed":false,"internalType":"bytes"},{"name":"value","type":"uint256","indexed":false,"internalType":"uint256"},{"name":"validAfter","type":"uint256","indexed":false,"internalType":"uint256"},{"name":"validBefore","type":"uint256","indexed":false,"internalType":"uint256"}],"anonymous":false}],"bytecode":{"object":"0x6080604052348015600f57600080fd5b5061121c8061001f6000396000f3fe608060405234801561001057600080fd5b50600436106101515760003560e01c80637a4fda3d116100cd578063e28533b411610081578063e5b5019a11610066578063e5b5019a1461037d578063efb07c41146103a4578063f2fde38b146103c457600080fd5b8063e28533b41461034a578063e2e71f931461035d57600080fd5b80639ac75d84116100b25780639ac75d841461030b578063cd6dc6871461032e578063dd644f721461034157600080fd5b80637a4fda3d146102da5780638da5cb5b146102ed57600080fd5b8063592851df1161012457806361f3b7b01161010957806361f3b7b0146101fa578063715018a61461020d57806375b1ff0d1461021557600080fd5b8063592851df146101d257806361d8b9fe146101e557600080fd5b80631d16c3ee1461015657806323da31671461017c5780632f9aa3f71461019157806335390714146101c9575b600080fd5b610169610164366004610e8f565b6103d7565b6040519081526020015b60405180910390f35b61018f61018a366004610e8f565b61043f565b005b6101a461019f366004610eb9565b61049f565b60405173ffffffffffffffffffffffffffffffffffffffff9091168152602001610173565b61016960665481565b61018f6101e0366004610ed2565b6104d6565b6101ed6105ae565b6040516101739190610eed565b610169610208366004610eb9565b61061d565b61018f610651565b6102cd610223366004610e8f565b60405173ffffffffffffffffffffffffffffffffffffffff8316602482015260448101829052606090606401604080517fffffffffffffffffffffffffffffffffffffffffffffffffffffffffffffffe08184030181529190526020810180517bffffffffffffffffffffffffffffffffffffffffffffffffffffffff167fcd6dc68700000000000000000000000000000000000000000000000000000000179052905092915050565b6040516101739190610f46565b6101696102e8366004610ed2565b610665565b60335473ffffffffffffffffffffffffffffffffffffffff166101a4565b61031e610319366004610fb2565b610738565b6040519015158152602001610173565b61018f61033c366004610e8f565b6107c8565b61016960655481565b61018f610358366004610ed2565b610967565b61016961036b366004610ed2565b60676020526000908152604090205481565b6101697fffffffffffffffffffffffffffffffffffffffffffffffffffffffffffffffff81565b6101696103b2366004610ed2565b60686020526000908152604090205481565b61018f6103d2366004610ed2565b610a21565b73ffffffffffffffffffffffffffffffffffffffff82166000908152606860205260408120548061040c576000915050610439565b60006104246103e861041e8685610ad8565b90610aeb565b905060665481111561043557506066545b9150505b92915050565b73ffffffffffffffffffffffffffffffffffffffff8216600090815260676020526040812054906104708383611020565b73ffffffffffffffffffffffffffffffffffffffff909416600090815260676020526040902093909355505050565b606981815481106104af57600080fd5b60009182526020909120015473ffffffffffffffffffffffffffffffffffffffff16905081565b73ffffffffffffffffffffffffffffffffffffffff811660009081526067602052604081208190555b6069548110156105aa578173ffffffffffffffffffffffffffffffffffffffff166069828154811061053357610533611033565b60009182526020909120015473ffffffffffffffffffffffffffffffffffffffff16036105a2576069818154811061056d5761056d611033565b600091825260209091200180547fffffffffffffffffffffffff00000000000000000000000000000000000000001690555050565b6001016104ff565b5050565b6060606980548060200260200160405190810160405280929190818152602001828054801561061357602002820191906000526020600020905b815473ffffffffffffffffffffffffffffffffffffffff1681526001909101906020018083116105e8575b5050505050905090565b60008061063b6103e861041e60655486610ad890919063ffffffff16565b9050606654811115610439575060665492915050565b610659610af7565b6106636000610b78565b565b600073ffffffffffffffffffffffffffffffffffffffff821661070f576040517f08c379a000000000000000000000000000000000000000000000000000000000815260206004820152602b60248201527f46656541676772656761746f723a205f6163636f756e7420697320746865207a60448201527f65726f206164647265737300000000000000000000000000000000000000000060648201526084015b60405180910390fd5b5073ffffffffffffffffffffffffffffffffffffffff1660009081526067602052604090205490565b6000610742610af7565b6014841061074f57600080fd5b6207a120831061075e57600080fd5b606584905561077861077183600a611185565b8490610ad8565b60668190556065546040517fb044a1e409eac5c48e5af22d4af52670dd1a99059537a78b31b48c6500a6354e926107b6928252602082015260400190565b60405180910390a15060019392505050565b600054610100900460ff16158080156107e85750600054600160ff909116105b806108025750303b158015610802575060005460ff166001145b61088e576040517f08c379a000000000000000000000000000000000000000000000000000000000815260206004820152602e60248201527f496e697469616c697a61626c653a20636f6e747261637420697320616c72656160448201527f647920696e697469616c697a65640000000000000000000000000000000000006064820152608401610706565b600080547fffffffffffffffffffffffffffffffffffffffffffffffffffffffffffffff0016600117905580156108ec57600080547fffffffffffffffffffffffffffffffffffffffffffffffffffffffffffff00ff166101001790555b6108f4610bef565b6108fe8383610c8e565b50801561096257600080547fffffffffffffffffffffffffffffffffffffffffffffffffffffffffffff00ff169055604051600181527f7f26b83ff96e1f2b6a682f133852f6798a09c465da95921460cefb38474024989060200160405180910390a15b505050565b73ffffffffffffffffffffffffffffffffffffffff8116600090815260676020908152604080832083905560689091528120819055806109a683610d4d565b61096257606980546001810182556000919091527f7fb4302e8e91f9110a6554c2c0a24601252c2a42c2220ca988efcfe39991430801805473ffffffffffffffffffffffffffffffffffffffff85167fffffffffffffffffffffffff0000000000000000000000000000000000000000909116179055505050565b610a29610af7565b73ffffffffffffffffffffffffffffffffffffffff8116610acc576040517f08c379a000000000000000000000000000000000000000000000000000000000815260206004820152602660248201527f4f776e61626c653a206e6577206f776e657220697320746865207a65726f206160448201527f64647265737300000000000000000000000000000000000000000000000000006064820152608401610706565b610ad581610b78565b50565b6000610ae48284611194565b9392505050565b6000610ae482846111ab565b60335473ffffffffffffffffffffffffffffffffffffffff163314610663576040517f08c379a000000000000000000000000000000000000000000000000000000000815260206004820181905260248201527f4f776e61626c653a2063616c6c6572206973206e6f7420746865206f776e65726044820152606401610706565b6033805473ffffffffffffffffffffffffffffffffffffffff8381167fffffffffffffffffffffffff0000000000000000000000000000000000000000831681179093556040519116919082907f8be0079c531659141344cd1fd0a4f28419497f9722a3daafe3b4186f6b6457e090600090a35050565b600054610100900460ff16610c86576040517f08c379a000000000000000000000000000000000000000000000000000000000815260206004820152602b60248201527f496e697469616c697a61626c653a20636f6e7472616374206973206e6f74206960448201527f6e697469616c697a696e670000000000000000000000000000000000000000006064820152608401610706565b610663610dc6565b6000808211610d1f576040517f08c379a000000000000000000000000000000000000000000000000000000000815260206004820152602960248201527f546865206e65774261736973506f696e7473206d75737420626520677265617460448201527f6572207468616e203000000000000000000000000000000000000000000000006064820152608401610706565b5073ffffffffffffffffffffffffffffffffffffffff91909116600090815260686020526040902055600190565b6000805b606954811015610dbd578273ffffffffffffffffffffffffffffffffffffffff1660698281548110610d8557610d85611033565b60009182526020909120015473ffffffffffffffffffffffffffffffffffffffff1603610db55750600192915050565b600101610d51565b50600092915050565b600054610100900460ff16610e5d576040517f08c379a000000000000000000000000000000000000000000000000000000000815260206004820152602b60248201527f496e697469616c697a61626c653a20636f6e7472616374206973206e6f74206960448201527f6e697469616c697a696e670000000000000000000000000000000000000000006064820152608401610706565b61066333610b78565b803573ffffffffffffffffffffffffffffffffffffffff81168114610e8a57600080fd5b919050565b60008060408385031215610ea257600080fd5b610eab83610e66565b946020939093013593505050565b600060208284031215610ecb57600080fd5b5035919050565b600060208284031215610ee457600080fd5b610ae482610e66565b602080825282518282018190526000918401906040840190835b81811015610f3b57835173ffffffffffffffffffffffffffffffffffffffff16835260209384019390920191600101610f07565b509095945050505050565b602081526000825180602084015260005b81811015610f745760208186018101516040868401015201610f57565b5060006040828501015260407fffffffffffffffffffffffffffffffffffffffffffffffffffffffffffffffe0601f83011684010191505092915050565b600080600060608486031215610fc757600080fd5b8335925060208401359150604084013560ff81168114610fe657600080fd5b809150509250925092565b7f4e487b7100000000000000000000000000000000000000000000000000000000600052601160045260246000fd5b8082018082111561043957610439610ff1565b7f4e487b7100000000000000000000000000000000000000000000000000000000600052603260045260246000fd5b6001815b600184111561109d5780850481111561108157611081610ff1565b600184161561108f57908102905b60019390931c928002611066565b935093915050565b6000826110b457506001610439565b816110c157506000610439565b81600181146110d757600281146110e1576110fd565b6001915050610439565b60ff8411156110f2576110f2610ff1565b50506001821b610439565b5060208310610133831016604e8410600b8410161715611120575081810a610439565b61114b7fffffffffffffffffffffffffffffffffffffffffffffffffffffffffffffffff8484611062565b807fffffffffffffffffffffffffffffffffffffffffffffffffffffffffffffffff0482111561117d5761117d610ff1565b029392505050565b6000610ae460ff8416836110a5565b808202811582820484141761043957610439610ff1565b6000826111e1577f4e487b7100000000000000000000000000000000000000000000000000000000600052601260045260246000fd5b50049056fea264697066735822122081ae14855a6d5c46e8e4899829f0b38df186d4108d624eb66421b0a16da13e7e64736f6c634300081a0033","linkReferences":{}},"methodIdentifiers":{"GetInitializeData(address,uint256)":"75b1ff0d","MAX_UINT()":"e5b5019a","addFeeAccount(address)":"e28533b4","basisPointsRate()":"dd644f72","calcCommonFee(uint256)":"61f3b7b0","calcFee(address,uint256)":"1d16c3ee","feeAccountKeys(uint256)":"2f9aa3f7","feeAccounts(address)":"e2e71f93","feeRateAccounts(address)":"efb07c41","getFeeAccounts()":"61d8b9fe","initialize(address,uint256)":"cd6dc687","maximumFee()":"35390714","owner()":"8da5cb5b","removeFeeAccount(address)":"592851df","renounceOwnership()":"715018a6","setParams(uint256,uint256,uint8)":"9ac75d84","totalFee(address)":"7a4fda3d","transferOwnership(address)":"f2fde38b","updateFeeAccountAmount(address,uint256)":"23da3167"},"id":11}