{
	"contracts/polygonUsdt/Usdt-all-openzeppelin.sol": {
		"AccessControlMixin": {
			"abi": [
				{
					"anonymous": false,
					"inputs": [
						{
							"indexed": true,
							"internalType": "bytes32",
							"name": "role",
							"type": "bytes32"
						},
						{
							"indexed": true,
							"internalType": "bytes32",
							"name": "previousAdminRole",
							"type": "bytes32"
						},
						{
							"indexed": true,
							"internalType": "bytes32",
							"name": "newAdminRole",
							"type": "bytes32"
						}
					],
					"name": "RoleAdminChanged",
					"type": "event"
				},
				{
					"anonymous": false,
					"inputs": [
						{
							"indexed": true,
							"internalType": "bytes32",
							"name": "role",
							"type": "bytes32"
						},
						{
							"indexed": true,
							"internalType": "address",
							"name": "account",
							"type": "address"
						},
						{
							"indexed": true,
							"internalType": "address",
							"name": "sender",
							"type": "address"
						}
					],
					"name": "RoleGranted",
					"type": "event"
				},
				{
					"anonymous": false,
					"inputs": [
						{
							"indexed": true,
							"internalType": "bytes32",
							"name": "role",
							"type": "bytes32"
						},
						{
							"indexed": true,
							"internalType": "address",
							"name": "account",
							"type": "address"
						},
						{
							"indexed": true,
							"internalType": "address",
							"name": "sender",
							"type": "address"
						}
					],
					"name": "RoleRevoked",
					"type": "event"
				},
				{
					"inputs": [],
					"name": "DEFAULT_ADMIN_ROLE",
					"outputs": [
						{
							"internalType": "bytes32",
							"name": "",
							"type": "bytes32"
						}
					],
					"stateMutability": "view",
					"type": "function"
				},
				{
					"inputs": [
						{
							"internalType": "bytes32",
							"name": "role",
							"type": "bytes32"
						}
					],
					"name": "getRoleAdmin",
					"outputs": [
						{
							"internalType": "bytes32",
							"name": "",
							"type": "bytes32"
						}
					],
					"stateMutability": "view",
					"type": "function"
				},
				{
					"inputs": [
						{
							"internalType": "bytes32",
							"name": "role",
							"type": "bytes32"
						},
						{
							"internalType": "uint256",
							"name": "index",
							"type": "uint256"
						}
					],
					"name": "getRoleMember",
					"outputs": [
						{
							"internalType": "address",
							"name": "",
							"type": "address"
						}
					],
					"stateMutability": "view",
					"type": "function"
				},
				{
					"inputs": [
						{
							"internalType": "bytes32",
							"name": "role",
							"type": "bytes32"
						}
					],
					"name": "getRoleMemberCount",
					"outputs": [
						{
							"internalType": "uint256",
							"name": "",
							"type": "uint256"
						}
					],
					"stateMutability": "view",
					"type": "function"
				},
				{
					"inputs": [
						{
							"internalType": "bytes32",
							"name": "role",
							"type": "bytes32"
						},
						{
							"internalType": "address",
							"name": "account",
							"type": "address"
						}
					],
					"name": "grantRole",
					"outputs": [],
					"stateMutability": "nonpayable",
					"type": "function"
				},
				{
					"inputs": [
						{
							"internalType": "bytes32",
							"name": "role",
							"type": "bytes32"
						},
						{
							"internalType": "address",
							"name": "account",
							"type": "address"
						}
					],
					"name": "hasRole",
					"outputs": [
						{
							"internalType": "bool",
							"name": "",
							"type": "bool"
						}
					],
					"stateMutability": "view",
					"type": "function"
				},
				{
					"inputs": [
						{
							"internalType": "bytes32",
							"name": "role",
							"type": "bytes32"
						},
						{
							"internalType": "address",
							"name": "account",
							"type": "address"
						}
					],
					"name": "renounceRole",
					"outputs": [],
					"stateMutability": "nonpayable",
					"type": "function"
				},
				{
					"inputs": [
						{
							"internalType": "bytes32",
							"name": "role",
							"type": "bytes32"
						},
						{
							"internalType": "address",
							"name": "account",
							"type": "address"
						}
					],
					"name": "revokeRole",
					"outputs": [],
					"stateMutability": "nonpayable",
					"type": "function"
				}
			],
			"devdoc": {
				"methods": {
					"getRoleAdmin(bytes32)": {
						"details": "Returns the admin role that controls `role`. See {grantRole} and {revokeRole}.     * To change a role's admin, use {_setRoleAdmin}."
					},
					"getRoleMember(bytes32,uint256)": {
						"details": "Returns one of the accounts that have `role`. `index` must be a value between 0 and {getRoleMemberCount}, non-inclusive.     * Role bearers are not sorted in any particular way, and their ordering may change at any point.     * WARNING: When using {getRoleMember} and {getRoleMemberCount}, make sure you perform all queries on the same block. See the following https://forum.openzeppelin.com/t/iterating-over-elements-on-enumerableset-in-openzeppelin-contracts/2296[forum post] for more information."
					},
					"getRoleMemberCount(bytes32)": {
						"details": "Returns the number of accounts that have `role`. Can be used together with {getRoleMember} to enumerate all bearers of a role."
					},
					"grantRole(bytes32,address)": {
						"details": "Grants `role` to `account`.     * If `account` had not been already granted `role`, emits a {RoleGranted} event.     * Requirements:     * - the caller must have ``role``'s admin role."
					},
					"hasRole(bytes32,address)": {
						"details": "Returns `true` if `account` has been granted `role`."
					},
					"renounceRole(bytes32,address)": {
						"details": "Revokes `role` from the calling account.     * Roles are often managed via {grantRole} and {revokeRole}: this function's purpose is to provide a mechanism for accounts to lose their privileges if they are compromised (such as when a trusted device is misplaced).     * If the calling account had been granted `role`, emits a {RoleRevoked} event.     * Requirements:     * - the caller must be `account`."
					},
					"revokeRole(bytes32,address)": {
						"details": "Revokes `role` from `account`.     * If `account` had been granted `role`, emits a {RoleRevoked} event.     * Requirements:     * - the caller must have ``role``'s admin role."
					}
				}
			},
			"evm": {
				"assembly": "    /* \"contracts/polygonUsdt/Usdt-all-openzeppelin.sol\":41786:42171  contract AccessControlMixin is AccessControl {... */\n  mstore(0x40, 0x80)\n  callvalue\n    /* \"--CODEGEN--\":5:14   */\n  dup1\n    /* \"--CODEGEN--\":2:4   */\n  iszero\n  tag_1\n  jumpi\n    /* \"--CODEGEN--\":27:28   */\n  0x00\n    /* \"--CODEGEN--\":24:25   */\n  dup1\n    /* \"--CODEGEN--\":17:29   */\n  revert\n    /* \"--CODEGEN--\":2:4   */\ntag_1:\n    /* \"contracts/polygonUsdt/Usdt-all-openzeppelin.sol\":41786:42171  contract AccessControlMixin is AccessControl {... */\n  pop\n  dataSize(sub_0)\n  dup1\n  dataOffset(sub_0)\n  0x00\n  codecopy\n  0x00\n  return\nstop\n\nsub_0: assembly {\n        /* \"contracts/polygonUsdt/Usdt-all-openzeppelin.sol\":41786:42171  contract AccessControlMixin is AccessControl {... */\n      mstore(0x40, 0x80)\n      callvalue\n        /* \"--CODEGEN--\":5:14   */\n      dup1\n        /* \"--CODEGEN--\":2:4   */\n      iszero\n      tag_1\n      jumpi\n        /* \"--CODEGEN--\":27:28   */\n      0x00\n        /* \"--CODEGEN--\":24:25   */\n      dup1\n        /* \"--CODEGEN--\":17:29   */\n      revert\n        /* \"--CODEGEN--\":2:4   */\n    tag_1:\n        /* \"contracts/polygonUsdt/Usdt-all-openzeppelin.sol\":41786:42171  contract AccessControlMixin is AccessControl {... */\n      pop\n      jumpi(tag_2, lt(calldatasize, 0x04))\n      shr(0xe0, calldataload(0x00))\n      dup1\n      0x91d14854\n      gt\n      tag_11\n      jumpi\n      dup1\n      0x91d14854\n      eq\n      tag_7\n      jumpi\n      dup1\n      0xa217fddf\n      eq\n      tag_8\n      jumpi\n      dup1\n      0xca15c873\n      eq\n      tag_9\n      jumpi\n      dup1\n      0xd547741f\n      eq\n      tag_10\n      jumpi\n      jump(tag_2)\n    tag_11:\n      dup1\n      0x248a9ca3\n      eq\n      tag_3\n      jumpi\n      dup1\n      0x2f2ff15d\n      eq\n      tag_4\n      jumpi\n      dup1\n      0x36568abe\n      eq\n      tag_5\n      jumpi\n      dup1\n      0x9010d07c\n      eq\n      tag_6\n      jumpi\n    tag_2:\n        /* \"--CODEGEN--\":12:13   */\n      0x00\n        /* \"--CODEGEN--\":9:10   */\n      dup1\n        /* \"--CODEGEN--\":2:14   */\n      revert\n        /* \"contracts/polygonUsdt/Usdt-all-openzeppelin.sol\":38586:38698  function getRoleAdmin(bytes32 role) public view returns (bytes32) {... */\n    tag_3:\n      tag_12\n      0x04\n      dup1\n      calldatasize\n      sub\n        /* \"--CODEGEN--\":15:17   */\n      0x20\n        /* \"--CODEGEN--\":10:13   */\n      dup2\n        /* \"--CODEGEN--\":7:18   */\n      lt\n        /* \"--CODEGEN--\":4:6   */\n      iszero\n      tag_13\n      jumpi\n        /* \"--CODEGEN--\":31:32   */\n      0x00\n        /* \"--CODEGEN--\":28:29   */\n      dup1\n        /* \"--CODEGEN--\":21:33   */\n      revert\n        /* \"--CODEGEN--\":4:6   */\n    tag_13:\n        /* \"contracts/polygonUsdt/Usdt-all-openzeppelin.sol\":38586:38698  function getRoleAdmin(bytes32 role) public view returns (bytes32) {... */\n      dup2\n      add\n      swap1\n      dup1\n      dup1\n      calldataload\n      swap1\n      0x20\n      add\n      swap1\n      swap3\n      swap2\n      swap1\n      pop\n      pop\n      pop\n      tag_14\n      jump\t// in\n    tag_12:\n      mload(0x40)\n      dup1\n      dup3\n      dup2\n      mstore\n      0x20\n      add\n      swap2\n      pop\n      pop\n      mload(0x40)\n      dup1\n      swap2\n      sub\n      swap1\n      return\n        /* \"contracts/polygonUsdt/Usdt-all-openzeppelin.sol\":38948:39171  function grantRole(bytes32 role, address account) public virtual {... */\n    tag_4:\n      tag_15\n      0x04\n      dup1\n      calldatasize\n      sub\n        /* \"--CODEGEN--\":15:17   */\n      0x40\n        /* \"--CODEGEN--\":10:13   */\n      dup2\n        /* \"--CODEGEN--\":7:18   */\n      lt\n        /* \"--CODEGEN--\":4:6   */\n      iszero\n      tag_16\n      jumpi\n        /* \"--CODEGEN--\":31:32   */\n      0x00\n        /* \"--CODEGEN--\":28:29   */\n      dup1\n        /* \"--CODEGEN--\":21:33   */\n      revert\n        /* \"--CODEGEN--\":4:6   */\n    tag_16:\n        /* \"contracts/polygonUsdt/Usdt-all-openzeppelin.sol\":38948:39171  function grantRole(bytes32 role, address account) public virtual {... */\n      dup2\n      add\n      swap1\n      dup1\n      dup1\n      calldataload\n      swap1\n      0x20\n      add\n      swap1\n      swap3\n      swap2\n      swap1\n      dup1\n      calldataload\n      0xffffffffffffffffffffffffffffffffffffffff\n      and\n      swap1\n      0x20\n      add\n      swap1\n      swap3\n      swap2\n      swap1\n      pop\n      pop\n      pop\n      tag_17\n      jump\t// in\n    tag_15:\n      stop\n        /* \"contracts/polygonUsdt/Usdt-all-openzeppelin.sol\":40122:40327  function renounceRole(bytes32 role, address account) public virtual {... */\n    tag_5:\n      tag_18\n      0x04\n      dup1\n      calldatasize\n      sub\n        /* \"--CODEGEN--\":15:17   */\n      0x40\n        /* \"--CODEGEN--\":10:13   */\n      dup2\n        /* \"--CODEGEN--\":7:18   */\n      lt\n        /* \"--CODEGEN--\":4:6   */\n      iszero\n      tag_19\n      jumpi\n        /* \"--CODEGEN--\":31:32   */\n      0x00\n        /* \"--CODEGEN--\":28:29   */\n      dup1\n        /* \"--CODEGEN--\":21:33   */\n      revert\n        /* \"--CODEGEN--\":4:6   */\n    tag_19:\n        /* \"contracts/polygonUsdt/Usdt-all-openzeppelin.sol\":40122:40327  function renounceRole(bytes32 role, address account) public virtual {... */\n      dup2\n      add\n      swap1\n      dup1\n      dup1\n      calldataload\n      swap1\n      0x20\n      add\n      swap1\n      swap3\n      swap2\n      swap1\n      dup1\n      calldataload\n      0xffffffffffffffffffffffffffffffffffffffff\n      and\n      swap1\n      0x20\n      add\n      swap1\n      swap3\n      swap2\n      swap1\n      pop\n      pop\n      pop\n      tag_20\n      jump\t// in\n    tag_18:\n      stop\n        /* \"contracts/polygonUsdt/Usdt-all-openzeppelin.sol\":38269:38405  function getRoleMember(bytes32 role, uint256 index) public view returns (address) {... */\n    tag_6:\n      tag_21\n      0x04\n      dup1\n      calldatasize\n      sub\n        /* \"--CODEGEN--\":15:17   */\n      0x40\n        /* \"--CODEGEN--\":10:13   */\n      dup2\n        /* \"--CODEGEN--\":7:18   */\n      lt\n        /* \"--CODEGEN--\":4:6   */\n      iszero\n      tag_22\n      jumpi\n        /* \"--CODEGEN--\":31:32   */\n      0x00\n        /* \"--CODEGEN--\":28:29   */\n      dup1\n        /* \"--CODEGEN--\":21:33   */\n      revert\n        /* \"--CODEGEN--\":4:6   */\n    tag_22:\n        /* \"contracts/polygonUsdt/Usdt-all-openzeppelin.sol\":38269:38405  function getRoleMember(bytes32 role, uint256 index) public view returns (address) {... */\n      dup2\n      add\n      swap1\n      dup1\n      dup1\n      calldataload\n      swap1\n      0x20\n      add\n      swap1\n      swap3\n      swap2\n      swap1\n      dup1\n      calldataload\n      swap1\n      0x20\n      add\n      swap1\n      swap3\n      swap2\n      swap1\n      pop\n      pop\n      pop\n      tag_23\n      jump\t// in\n    tag_21:\n      mload(0x40)\n      dup1\n      dup3\n      0xffffffffffffffffffffffffffffffffffffffff\n      and\n      0xffffffffffffffffffffffffffffffffffffffff\n      and\n      dup2\n      mstore\n      0x20\n      add\n      swap2\n      pop\n      pop\n      mload(0x40)\n      dup1\n      swap2\n      sub\n      swap1\n      return\n        /* \"contracts/polygonUsdt/Usdt-all-openzeppelin.sol\":37254:37391  function hasRole(bytes32 role, address account) public view returns (bool) {... */\n    tag_7:\n      tag_24\n      0x04\n      dup1\n      calldatasize\n      sub\n        /* \"--CODEGEN--\":15:17   */\n      0x40\n        /* \"--CODEGEN--\":10:13   */\n      dup2\n        /* \"--CODEGEN--\":7:18   */\n      lt\n        /* \"--CODEGEN--\":4:6   */\n      iszero\n      tag_25\n      jumpi\n        /* \"--CODEGEN--\":31:32   */\n      0x00\n        /* \"--CODEGEN--\":28:29   */\n      dup1\n        /* \"--CODEGEN--\":21:33   */\n      revert\n        /* \"--CODEGEN--\":4:6   */\n    tag_25:\n        /* \"contracts/polygonUsdt/Usdt-all-openzeppelin.sol\":37254:37391  function hasRole(bytes32 role, address account) public view returns (bool) {... */\n      dup2\n      add\n      swap1\n      dup1\n      dup1\n      calldataload\n      swap1\n      0x20\n      add\n      swap1\n      swap3\n      swap2\n      swap1\n      dup1\n      calldataload\n      0xffffffffffffffffffffffffffffffffffffffff\n      and\n      swap1\n      0x20\n      add\n      swap1\n      swap3\n      swap2\n      swap1\n      pop\n      pop\n      pop\n      tag_26\n      jump\t// in\n    tag_24:\n      mload(0x40)\n      dup1\n      dup3\n      iszero\n      iszero\n      iszero\n      iszero\n      dup2\n      mstore\n      0x20\n      add\n      swap2\n      pop\n      pop\n      mload(0x40)\n      dup1\n      swap2\n      sub\n      swap1\n      return\n        /* \"contracts/polygonUsdt/Usdt-all-openzeppelin.sol\":36031:36080  bytes32 public constant DEFAULT_ADMIN_ROLE = 0x00 */\n    tag_8:\n      tag_27\n      tag_28\n      jump\t// in\n    tag_27:\n      mload(0x40)\n      dup1\n      dup3\n      dup2\n      mstore\n      0x20\n      add\n      swap2\n      pop\n      pop\n      mload(0x40)\n      dup1\n      swap2\n      sub\n      swap1\n      return\n        /* \"contracts/polygonUsdt/Usdt-all-openzeppelin.sol\":37559:37684  function getRoleMemberCount(bytes32 role) public view returns (uint256) {... */\n    tag_9:\n      tag_29\n      0x04\n      dup1\n      calldatasize\n      sub\n        /* \"--CODEGEN--\":15:17   */\n      0x20\n        /* \"--CODEGEN--\":10:13   */\n      dup2\n        /* \"--CODEGEN--\":7:18   */\n      lt\n        /* \"--CODEGEN--\":4:6   */\n      iszero\n      tag_30\n      jumpi\n        /* \"--CODEGEN--\":31:32   */\n      0x00\n        /* \"--CODEGEN--\":28:29   */\n      dup1\n        /* \"--CODEGEN--\":21:33   */\n      revert\n        /* \"--CODEGEN--\":4:6   */\n    tag_30:\n        /* \"contracts/polygonUsdt/Usdt-all-openzeppelin.sol\":37559:37684  function getRoleMemberCount(bytes32 role) public view returns (uint256) {... */\n      dup2\n      add\n      swap1\n      dup1\n      dup1\n      calldataload\n      swap1\n      0x20\n      add\n      swap1\n      swap3\n      swap2\n      swap1\n      pop\n      pop\n      pop\n      tag_31\n      jump\t// in\n    tag_29:\n      mload(0x40)\n      dup1\n      dup3\n      dup2\n      mstore\n      0x20\n      add\n      swap2\n      pop\n      pop\n      mload(0x40)\n      dup1\n      swap2\n      sub\n      swap1\n      return\n        /* \"contracts/polygonUsdt/Usdt-all-openzeppelin.sol\":39405:39631  function revokeRole(bytes32 role, address account) public virtual {... */\n    tag_10:\n      tag_32\n      0x04\n      dup1\n      calldatasize\n      sub\n        /* \"--CODEGEN--\":15:17   */\n      0x40\n        /* \"--CODEGEN--\":10:13   */\n      dup2\n        /* \"--CODEGEN--\":7:18   */\n      lt\n        /* \"--CODEGEN--\":4:6   */\n      iszero\n      tag_33\n      jumpi\n        /* \"--CODEGEN--\":31:32   */\n      0x00\n        /* \"--CODEGEN--\":28:29   */\n      dup1\n        /* \"--CODEGEN--\":21:33   */\n      revert\n        /* \"--CODEGEN--\":4:6   */\n    tag_33:\n        /* \"contracts/polygonUsdt/Usdt-all-openzeppelin.sol\":39405:39631  function revokeRole(bytes32 role, address account) public virtual {... */\n      dup2\n      add\n      swap1\n      dup1\n      dup1\n      calldataload\n      swap1\n      0x20\n      add\n      swap1\n      swap3\n      swap2\n      swap1\n      dup1\n      calldataload\n      0xffffffffffffffffffffffffffffffffffffffff\n      and\n      swap1\n      0x20\n      add\n      swap1\n      swap3\n      swap2\n      swap1\n      pop\n      pop\n      pop\n      tag_34\n      jump\t// in\n    tag_32:\n      stop\n        /* \"contracts/polygonUsdt/Usdt-all-openzeppelin.sol\":38586:38698  function getRoleAdmin(bytes32 role) public view returns (bytes32) {... */\n    tag_14:\n        /* \"contracts/polygonUsdt/Usdt-all-openzeppelin.sol\":38643:38650  bytes32 */\n      0x00\n        /* \"contracts/polygonUsdt/Usdt-all-openzeppelin.sol\":38669:38675  _roles */\n      dup1\n        /* \"contracts/polygonUsdt/Usdt-all-openzeppelin.sol\":38669:38681  _roles[role] */\n      0x00\n        /* \"contracts/polygonUsdt/Usdt-all-openzeppelin.sol\":38676:38680  role */\n      dup4\n        /* \"contracts/polygonUsdt/Usdt-all-openzeppelin.sol\":38669:38681  _roles[role] */\n      dup2\n      mstore\n      0x20\n      add\n      swap1\n      dup2\n      mstore\n      0x20\n      add\n      0x00\n      keccak256\n        /* \"contracts/polygonUsdt/Usdt-all-openzeppelin.sol\":38669:38691  _roles[role].adminRole */\n      0x02\n      add\n      sload\n        /* \"contracts/polygonUsdt/Usdt-all-openzeppelin.sol\":38662:38691  return _roles[role].adminRole */\n      swap1\n      pop\n        /* \"contracts/polygonUsdt/Usdt-all-openzeppelin.sol\":38586:38698  function getRoleAdmin(bytes32 role) public view returns (bytes32) {... */\n      swap2\n      swap1\n      pop\n      jump\t// out\n        /* \"contracts/polygonUsdt/Usdt-all-openzeppelin.sol\":38948:39171  function grantRole(bytes32 role, address account) public virtual {... */\n    tag_17:\n        /* \"contracts/polygonUsdt/Usdt-all-openzeppelin.sol\":39031:39076  hasRole(_roles[role].adminRole, _msgSender()) */\n      tag_37\n        /* \"contracts/polygonUsdt/Usdt-all-openzeppelin.sol\":39039:39045  _roles */\n      0x00\n        /* \"contracts/polygonUsdt/Usdt-all-openzeppelin.sol\":39039:39051  _roles[role] */\n      dup1\n        /* \"contracts/polygonUsdt/Usdt-all-openzeppelin.sol\":39046:39050  role */\n      dup5\n        /* \"contracts/polygonUsdt/Usdt-all-openzeppelin.sol\":39039:39051  _roles[role] */\n      dup2\n      mstore\n      0x20\n      add\n      swap1\n      dup2\n      mstore\n      0x20\n      add\n      0x00\n      keccak256\n        /* \"contracts/polygonUsdt/Usdt-all-openzeppelin.sol\":39039:39061  _roles[role].adminRole */\n      0x02\n      add\n      sload\n        /* \"contracts/polygonUsdt/Usdt-all-openzeppelin.sol\":39063:39075  _msgSender() */\n      tag_38\n        /* \"contracts/polygonUsdt/Usdt-all-openzeppelin.sol\":39063:39073  _msgSender */\n      tag_39\n        /* \"contracts/polygonUsdt/Usdt-all-openzeppelin.sol\":39063:39075  _msgSender() */\n      jump\t// in\n    tag_38:\n        /* \"contracts/polygonUsdt/Usdt-all-openzeppelin.sol\":39031:39038  hasRole */\n      tag_26\n        /* \"contracts/polygonUsdt/Usdt-all-openzeppelin.sol\":39031:39076  hasRole(_roles[role].adminRole, _msgSender()) */\n      jump\t// in\n    tag_37:\n        /* \"contracts/polygonUsdt/Usdt-all-openzeppelin.sol\":39023:39128  require(hasRole(_roles[role].adminRole, _msgSender()), \"AccessControl: sender must be an admin to grant\") */\n      tag_40\n      jumpi\n      mload(0x40)\n      0x08c379a000000000000000000000000000000000000000000000000000000000\n      dup2\n      mstore\n      0x04\n      add\n      dup1\n      dup1\n      0x20\n      add\n      dup3\n      dup2\n      sub\n      dup3\n      mstore\n      0x2f\n      dup2\n      mstore\n      0x20\n      add\n      dup1\n      data_0ba7116025f1ef6b158a2bd2238e617f30e17c9e456917d901086ca4f8ad2811\n      0x2f\n      swap2\n      codecopy\n      0x40\n      add\n      swap2\n      pop\n      pop\n      mload(0x40)\n      dup1\n      swap2\n      sub\n      swap1\n      revert\n    tag_40:\n        /* \"contracts/polygonUsdt/Usdt-all-openzeppelin.sol\":39139:39164  _grantRole(role, account) */\n      tag_41\n        /* \"contracts/polygonUsdt/Usdt-all-openzeppelin.sol\":39150:39154  role */\n      dup3\n        /* \"contracts/polygonUsdt/Usdt-all-openzeppelin.sol\":39156:39163  account */\n      dup3\n        /* \"contracts/polygonUsdt/Usdt-all-openzeppelin.sol\":39139:39149  _grantRole */\n      tag_42\n        /* \"contracts/polygonUsdt/Usdt-all-openzeppelin.sol\":39139:39164  _grantRole(role, account) */\n      jump\t// in\n    tag_41:\n        /* \"contracts/polygonUsdt/Usdt-all-openzeppelin.sol\":38948:39171  function grantRole(bytes32 role, address account) public virtual {... */\n      pop\n      pop\n      jump\t// out\n        /* \"contracts/polygonUsdt/Usdt-all-openzeppelin.sol\":40122:40327  function renounceRole(bytes32 role, address account) public virtual {... */\n    tag_20:\n        /* \"contracts/polygonUsdt/Usdt-all-openzeppelin.sol\":40219:40231  _msgSender() */\n      tag_44\n        /* \"contracts/polygonUsdt/Usdt-all-openzeppelin.sol\":40219:40229  _msgSender */\n      tag_39\n        /* \"contracts/polygonUsdt/Usdt-all-openzeppelin.sol\":40219:40231  _msgSender() */\n      jump\t// in\n    tag_44:\n        /* \"contracts/polygonUsdt/Usdt-all-openzeppelin.sol\":40208:40231  account == _msgSender() */\n      0xffffffffffffffffffffffffffffffffffffffff\n      and\n        /* \"contracts/polygonUsdt/Usdt-all-openzeppelin.sol\":40208:40215  account */\n      dup2\n        /* \"contracts/polygonUsdt/Usdt-all-openzeppelin.sol\":40208:40231  account == _msgSender() */\n      0xffffffffffffffffffffffffffffffffffffffff\n      and\n      eq\n        /* \"contracts/polygonUsdt/Usdt-all-openzeppelin.sol\":40200:40283  require(account == _msgSender(), \"AccessControl: can only renounce roles for self\") */\n      tag_45\n      jumpi\n      mload(0x40)\n      0x08c379a000000000000000000000000000000000000000000000000000000000\n      dup2\n      mstore\n      0x04\n      add\n      dup1\n      dup1\n      0x20\n      add\n      dup3\n      dup2\n      sub\n      dup3\n      mstore\n      0x2f\n      dup2\n      mstore\n      0x20\n      add\n      dup1\n      data_fb06fa8ff2141e8ed74502f6792273793f25f0e9d3cf15344f3f5a0d4948fd4b\n      0x2f\n      swap2\n      codecopy\n      0x40\n      add\n      swap2\n      pop\n      pop\n      mload(0x40)\n      dup1\n      swap2\n      sub\n      swap1\n      revert\n    tag_45:\n        /* \"contracts/polygonUsdt/Usdt-all-openzeppelin.sol\":40294:40320  _revokeRole(role, account) */\n      tag_46\n        /* \"contracts/polygonUsdt/Usdt-all-openzeppelin.sol\":40306:40310  role */\n      dup3\n        /* \"contracts/polygonUsdt/Usdt-all-openzeppelin.sol\":40312:40319  account */\n      dup3\n        /* \"contracts/polygonUsdt/Usdt-all-openzeppelin.sol\":40294:40305  _revokeRole */\n      tag_47\n        /* \"contracts/polygonUsdt/Usdt-all-openzeppelin.sol\":40294:40320  _revokeRole(role, account) */\n      jump\t// in\n    tag_46:\n        /* \"contracts/polygonUsdt/Usdt-all-openzeppelin.sol\":40122:40327  function renounceRole(bytes32 role, address account) public virtual {... */\n      pop\n      pop\n      jump\t// out\n        /* \"contracts/polygonUsdt/Usdt-all-openzeppelin.sol\":38269:38405  function getRoleMember(bytes32 role, uint256 index) public view returns (address) {... */\n    tag_23:\n        /* \"contracts/polygonUsdt/Usdt-all-openzeppelin.sol\":38342:38349  address */\n      0x00\n        /* \"contracts/polygonUsdt/Usdt-all-openzeppelin.sol\":38368:38398  _roles[role].members.at(index) */\n      tag_49\n        /* \"contracts/polygonUsdt/Usdt-all-openzeppelin.sol\":38392:38397  index */\n      dup3\n        /* \"contracts/polygonUsdt/Usdt-all-openzeppelin.sol\":38368:38374  _roles */\n      0x00\n        /* \"contracts/polygonUsdt/Usdt-all-openzeppelin.sol\":38368:38380  _roles[role] */\n      dup1\n        /* \"contracts/polygonUsdt/Usdt-all-openzeppelin.sol\":38375:38379  role */\n      dup7\n        /* \"contracts/polygonUsdt/Usdt-all-openzeppelin.sol\":38368:38380  _roles[role] */\n      dup2\n      mstore\n      0x20\n      add\n      swap1\n      dup2\n      mstore\n      0x20\n      add\n      0x00\n      keccak256\n        /* \"contracts/polygonUsdt/Usdt-all-openzeppelin.sol\":38368:38388  _roles[role].members */\n      0x00\n      add\n        /* \"contracts/polygonUsdt/Usdt-all-openzeppelin.sol\":38368:38391  _roles[role].members.at */\n      tag_50\n      swap1\n        /* \"contracts/polygonUsdt/Usdt-all-openzeppelin.sol\":38368:38398  _roles[role].members.at(index) */\n      swap2\n      swap1\n      0xffffffff\n      and\n      jump\t// in\n    tag_49:\n        /* \"contracts/polygonUsdt/Usdt-all-openzeppelin.sol\":38361:38398  return _roles[role].members.at(index) */\n      swap1\n      pop\n        /* \"contracts/polygonUsdt/Usdt-all-openzeppelin.sol\":38269:38405  function getRoleMember(bytes32 role, uint256 index) public view returns (address) {... */\n      swap3\n      swap2\n      pop\n      pop\n      jump\t// out\n        /* \"contracts/polygonUsdt/Usdt-all-openzeppelin.sol\":37254:37391  function hasRole(bytes32 role, address account) public view returns (bool) {... */\n    tag_26:\n        /* \"contracts/polygonUsdt/Usdt-all-openzeppelin.sol\":37323:37327  bool */\n      0x00\n        /* \"contracts/polygonUsdt/Usdt-all-openzeppelin.sol\":37346:37384  _roles[role].members.contains(account) */\n      tag_52\n        /* \"contracts/polygonUsdt/Usdt-all-openzeppelin.sol\":37376:37383  account */\n      dup3\n        /* \"contracts/polygonUsdt/Usdt-all-openzeppelin.sol\":37346:37352  _roles */\n      0x00\n        /* \"contracts/polygonUsdt/Usdt-all-openzeppelin.sol\":37346:37358  _roles[role] */\n      dup1\n        /* \"contracts/polygonUsdt/Usdt-all-openzeppelin.sol\":37353:37357  role */\n      dup7\n        /* \"contracts/polygonUsdt/Usdt-all-openzeppelin.sol\":37346:37358  _roles[role] */\n      dup2\n      mstore\n      0x20\n      add\n      swap1\n      dup2\n      mstore\n      0x20\n      add\n      0x00\n      keccak256\n        /* \"contracts/polygonUsdt/Usdt-all-openzeppelin.sol\":37346:37366  _roles[role].members */\n      0x00\n      add\n        /* \"contracts/polygonUsdt/Usdt-all-openzeppelin.sol\":37346:37375  _roles[role].members.contains */\n      tag_53\n      swap1\n        /* \"contracts/polygonUsdt/Usdt-all-openzeppelin.sol\":37346:37384  _roles[role].members.contains(account) */\n      swap2\n      swap1\n      0xffffffff\n      and\n      jump\t// in\n    tag_52:\n        /* \"contracts/polygonUsdt/Usdt-all-openzeppelin.sol\":37339:37384  return _roles[role].members.contains(account) */\n      swap1\n      pop\n        /* \"contracts/polygonUsdt/Usdt-all-openzeppelin.sol\":37254:37391  function hasRole(bytes32 role, address account) public view returns (bool) {... */\n      swap3\n      swap2\n      pop\n      pop\n      jump\t// out\n        /* \"contracts/polygonUsdt/Usdt-all-openzeppelin.sol\":36031:36080  bytes32 public constant DEFAULT_ADMIN_ROLE = 0x00 */\n    tag_28:\n        /* \"contracts/polygonUsdt/Usdt-all-openzeppelin.sol\":36076:36080  0x00 */\n      0x00\n        /* \"contracts/polygonUsdt/Usdt-all-openzeppelin.sol\":36031:36080  bytes32 public constant DEFAULT_ADMIN_ROLE = 0x00 */\n      dup1\n      shl\n      dup2\n      jump\t// out\n        /* \"contracts/polygonUsdt/Usdt-all-openzeppelin.sol\":37559:37684  function getRoleMemberCount(bytes32 role) public view returns (uint256) {... */\n    tag_31:\n        /* \"contracts/polygonUsdt/Usdt-all-openzeppelin.sol\":37622:37629  uint256 */\n      0x00\n        /* \"contracts/polygonUsdt/Usdt-all-openzeppelin.sol\":37648:37677  _roles[role].members.length() */\n      tag_55\n        /* \"contracts/polygonUsdt/Usdt-all-openzeppelin.sol\":37648:37654  _roles */\n      0x00\n        /* \"contracts/polygonUsdt/Usdt-all-openzeppelin.sol\":37648:37660  _roles[role] */\n      dup1\n        /* \"contracts/polygonUsdt/Usdt-all-openzeppelin.sol\":37655:37659  role */\n      dup5\n        /* \"contracts/polygonUsdt/Usdt-all-openzeppelin.sol\":37648:37660  _roles[role] */\n      dup2\n      mstore\n      0x20\n      add\n      swap1\n      dup2\n      mstore\n      0x20\n      add\n      0x00\n      keccak256\n        /* \"contracts/polygonUsdt/Usdt-all-openzeppelin.sol\":37648:37668  _roles[role].members */\n      0x00\n      add\n        /* \"contracts/polygonUsdt/Usdt-all-openzeppelin.sol\":37648:37675  _roles[role].members.length */\n      tag_56\n        /* \"contracts/polygonUsdt/Usdt-all-openzeppelin.sol\":37648:37677  _roles[role].members.length() */\n      jump\t// in\n    tag_55:\n        /* \"contracts/polygonUsdt/Usdt-all-openzeppelin.sol\":37641:37677  return _roles[role].members.length() */\n      swap1\n      pop\n        /* \"contracts/polygonUsdt/Usdt-all-openzeppelin.sol\":37559:37684  function getRoleMemberCount(bytes32 role) public view returns (uint256) {... */\n      swap2\n      swap1\n      pop\n      jump\t// out\n        /* \"contracts/polygonUsdt/Usdt-all-openzeppelin.sol\":39405:39631  function revokeRole(bytes32 role, address account) public virtual {... */\n    tag_34:\n        /* \"contracts/polygonUsdt/Usdt-all-openzeppelin.sol\":39489:39534  hasRole(_roles[role].adminRole, _msgSender()) */\n      tag_58\n        /* \"contracts/polygonUsdt/Usdt-all-openzeppelin.sol\":39497:39503  _roles */\n      0x00\n        /* \"contracts/polygonUsdt/Usdt-all-openzeppelin.sol\":39497:39509  _roles[role] */\n      dup1\n        /* \"contracts/polygonUsdt/Usdt-all-openzeppelin.sol\":39504:39508  role */\n      dup5\n        /* \"contracts/polygonUsdt/Usdt-all-openzeppelin.sol\":39497:39509  _roles[role] */\n      dup2\n      mstore\n      0x20\n      add\n      swap1\n      dup2\n      mstore\n      0x20\n      add\n      0x00\n      keccak256\n        /* \"contracts/polygonUsdt/Usdt-all-openzeppelin.sol\":39497:39519  _roles[role].adminRole */\n      0x02\n      add\n      sload\n        /* \"contracts/polygonUsdt/Usdt-all-openzeppelin.sol\":39521:39533  _msgSender() */\n      tag_59\n        /* \"contracts/polygonUsdt/Usdt-all-openzeppelin.sol\":39521:39531  _msgSender */\n      tag_39\n        /* \"contracts/polygonUsdt/Usdt-all-openzeppelin.sol\":39521:39533  _msgSender() */\n      jump\t// in\n    tag_59:\n        /* \"contracts/polygonUsdt/Usdt-all-openzeppelin.sol\":39489:39496  hasRole */\n      tag_26\n        /* \"contracts/polygonUsdt/Usdt-all-openzeppelin.sol\":39489:39534  hasRole(_roles[role].adminRole, _msgSender()) */\n      jump\t// in\n    tag_58:\n        /* \"contracts/polygonUsdt/Usdt-all-openzeppelin.sol\":39481:39587  require(hasRole(_roles[role].adminRole, _msgSender()), \"AccessControl: sender must be an admin to revoke\") */\n      tag_60\n      jumpi\n      mload(0x40)\n      0x08c379a000000000000000000000000000000000000000000000000000000000\n      dup2\n      mstore\n      0x04\n      add\n      dup1\n      dup1\n      0x20\n      add\n      dup3\n      dup2\n      sub\n      dup3\n      mstore\n      0x30\n      dup2\n      mstore\n      0x20\n      add\n      dup1\n      data_64344570eab7406ca49d34d38bf2b2496dfda914405390c5057c8b0aabf798a3\n      0x30\n      swap2\n      codecopy\n      0x40\n      add\n      swap2\n      pop\n      pop\n      mload(0x40)\n      dup1\n      swap2\n      sub\n      swap1\n      revert\n    tag_60:\n        /* \"contracts/polygonUsdt/Usdt-all-openzeppelin.sol\":39598:39624  _revokeRole(role, account) */\n      tag_61\n        /* \"contracts/polygonUsdt/Usdt-all-openzeppelin.sol\":39610:39614  role */\n      dup3\n        /* \"contracts/polygonUsdt/Usdt-all-openzeppelin.sol\":39616:39623  account */\n      dup3\n        /* \"contracts/polygonUsdt/Usdt-all-openzeppelin.sol\":39598:39609  _revokeRole */\n      tag_47\n        /* \"contracts/polygonUsdt/Usdt-all-openzeppelin.sol\":39598:39624  _revokeRole(role, account) */\n      jump\t// in\n    tag_61:\n        /* \"contracts/polygonUsdt/Usdt-all-openzeppelin.sol\":39405:39631  function revokeRole(bytes32 role, address account) public virtual {... */\n      pop\n      pop\n      jump\t// out\n        /* \"contracts/polygonUsdt/Usdt-all-openzeppelin.sol\":712:816  function _msgSender() internal view virtual returns (address payable) {... */\n    tag_39:\n        /* \"contracts/polygonUsdt/Usdt-all-openzeppelin.sol\":765:780  address payable */\n      0x00\n        /* \"contracts/polygonUsdt/Usdt-all-openzeppelin.sol\":799:809  msg.sender */\n      caller\n        /* \"contracts/polygonUsdt/Usdt-all-openzeppelin.sol\":792:809  return msg.sender */\n      swap1\n      pop\n        /* \"contracts/polygonUsdt/Usdt-all-openzeppelin.sol\":712:816  function _msgSender() internal view virtual returns (address payable) {... */\n      swap1\n      jump\t// out\n        /* \"contracts/polygonUsdt/Usdt-all-openzeppelin.sol\":41329:41513  function _grantRole(bytes32 role, address account) private {... */\n    tag_42:\n        /* \"contracts/polygonUsdt/Usdt-all-openzeppelin.sol\":41402:41435  _roles[role].members.add(account) */\n      tag_64\n        /* \"contracts/polygonUsdt/Usdt-all-openzeppelin.sol\":41427:41434  account */\n      dup2\n        /* \"contracts/polygonUsdt/Usdt-all-openzeppelin.sol\":41402:41408  _roles */\n      0x00\n        /* \"contracts/polygonUsdt/Usdt-all-openzeppelin.sol\":41402:41414  _roles[role] */\n      dup1\n        /* \"contracts/polygonUsdt/Usdt-all-openzeppelin.sol\":41409:41413  role */\n      dup6\n        /* \"contracts/polygonUsdt/Usdt-all-openzeppelin.sol\":41402:41414  _roles[role] */\n      dup2\n      mstore\n      0x20\n      add\n      swap1\n      dup2\n      mstore\n      0x20\n      add\n      0x00\n      keccak256\n        /* \"contracts/polygonUsdt/Usdt-all-openzeppelin.sol\":41402:41422  _roles[role].members */\n      0x00\n      add\n        /* \"contracts/polygonUsdt/Usdt-all-openzeppelin.sol\":41402:41426  _roles[role].members.add */\n      tag_65\n      swap1\n        /* \"contracts/polygonUsdt/Usdt-all-openzeppelin.sol\":41402:41435  _roles[role].members.add(account) */\n      swap2\n      swap1\n      0xffffffff\n      and\n      jump\t// in\n    tag_64:\n        /* \"contracts/polygonUsdt/Usdt-all-openzeppelin.sol\":41398:41507  if (_roles[role].members.add(account)) {... */\n      iszero\n      tag_66\n      jumpi\n        /* \"contracts/polygonUsdt/Usdt-all-openzeppelin.sol\":41483:41495  _msgSender() */\n      tag_67\n        /* \"contracts/polygonUsdt/Usdt-all-openzeppelin.sol\":41483:41493  _msgSender */\n      tag_39\n        /* \"contracts/polygonUsdt/Usdt-all-openzeppelin.sol\":41483:41495  _msgSender() */\n      jump\t// in\n    tag_67:\n        /* \"contracts/polygonUsdt/Usdt-all-openzeppelin.sol\":41456:41496  RoleGranted(role, account, _msgSender()) */\n      0xffffffffffffffffffffffffffffffffffffffff\n      and\n        /* \"contracts/polygonUsdt/Usdt-all-openzeppelin.sol\":41474:41481  account */\n      dup2\n        /* \"contracts/polygonUsdt/Usdt-all-openzeppelin.sol\":41456:41496  RoleGranted(role, account, _msgSender()) */\n      0xffffffffffffffffffffffffffffffffffffffff\n      and\n        /* \"contracts/polygonUsdt/Usdt-all-openzeppelin.sol\":41468:41472  role */\n      dup4\n        /* \"contracts/polygonUsdt/Usdt-all-openzeppelin.sol\":41456:41496  RoleGranted(role, account, _msgSender()) */\n      0x2f8788117e7eff1d82e926ec794901d17c78024a50270940304540a733656f0d\n      mload(0x40)\n      mload(0x40)\n      dup1\n      swap2\n      sub\n      swap1\n      log4\n        /* \"contracts/polygonUsdt/Usdt-all-openzeppelin.sol\":41398:41507  if (_roles[role].members.add(account)) {... */\n    tag_66:\n        /* \"contracts/polygonUsdt/Usdt-all-openzeppelin.sol\":41329:41513  function _grantRole(bytes32 role, address account) private {... */\n      pop\n      pop\n      jump\t// out\n        /* \"contracts/polygonUsdt/Usdt-all-openzeppelin.sol\":41519:41707  function _revokeRole(bytes32 role, address account) private {... */\n    tag_47:\n        /* \"contracts/polygonUsdt/Usdt-all-openzeppelin.sol\":41593:41629  _roles[role].members.remove(account) */\n      tag_69\n        /* \"contracts/polygonUsdt/Usdt-all-openzeppelin.sol\":41621:41628  account */\n      dup2\n        /* \"contracts/polygonUsdt/Usdt-all-openzeppelin.sol\":41593:41599  _roles */\n      0x00\n        /* \"contracts/polygonUsdt/Usdt-all-openzeppelin.sol\":41593:41605  _roles[role] */\n      dup1\n        /* \"contracts/polygonUsdt/Usdt-all-openzeppelin.sol\":41600:41604  role */\n      dup6\n        /* \"contracts/polygonUsdt/Usdt-all-openzeppelin.sol\":41593:41605  _roles[role] */\n      dup2\n      mstore\n      0x20\n      add\n      swap1\n      dup2\n      mstore\n      0x20\n      add\n      0x00\n      keccak256\n        /* \"contracts/polygonUsdt/Usdt-all-openzeppelin.sol\":41593:41613  _roles[role].members */\n      0x00\n      add\n        /* \"contracts/polygonUsdt/Usdt-all-openzeppelin.sol\":41593:41620  _roles[role].members.remove */\n      tag_70\n      swap1\n        /* \"contracts/polygonUsdt/Usdt-all-openzeppelin.sol\":41593:41629  _roles[role].members.remove(account) */\n      swap2\n      swap1\n      0xffffffff\n      and\n      jump\t// in\n    tag_69:\n        /* \"contracts/polygonUsdt/Usdt-all-openzeppelin.sol\":41589:41701  if (_roles[role].members.remove(account)) {... */\n      iszero\n      tag_71\n      jumpi\n        /* \"contracts/polygonUsdt/Usdt-all-openzeppelin.sol\":41677:41689  _msgSender() */\n      tag_72\n        /* \"contracts/polygonUsdt/Usdt-all-openzeppelin.sol\":41677:41687  _msgSender */\n      tag_39\n        /* \"contracts/polygonUsdt/Usdt-all-openzeppelin.sol\":41677:41689  _msgSender() */\n      jump\t// in\n    tag_72:\n        /* \"contracts/polygonUsdt/Usdt-all-openzeppelin.sol\":41650:41690  RoleRevoked(role, account, _msgSender()) */\n      0xffffffffffffffffffffffffffffffffffffffff\n      and\n        /* \"contracts/polygonUsdt/Usdt-all-openzeppelin.sol\":41668:41675  account */\n      dup2\n        /* \"contracts/polygonUsdt/Usdt-all-openzeppelin.sol\":41650:41690  RoleRevoked(role, account, _msgSender()) */\n      0xffffffffffffffffffffffffffffffffffffffff\n      and\n        /* \"contracts/polygonUsdt/Usdt-all-openzeppelin.sol\":41662:41666  role */\n      dup4\n        /* \"contracts/polygonUsdt/Usdt-all-openzeppelin.sol\":41650:41690  RoleRevoked(role, account, _msgSender()) */\n      0xf6391f5c32d9c69d2a47ea670b442974b53935d1edc7fd64eb21e047a839171b\n      mload(0x40)\n      mload(0x40)\n      dup1\n      swap2\n      sub\n      swap1\n      log4\n        /* \"contracts/polygonUsdt/Usdt-all-openzeppelin.sol\":41589:41701  if (_roles[role].members.remove(account)) {... */\n    tag_71:\n        /* \"contracts/polygonUsdt/Usdt-all-openzeppelin.sol\":41519:41707  function _revokeRole(bytes32 role, address account) private {... */\n      pop\n      pop\n      jump\t// out\n        /* \"contracts/polygonUsdt/Usdt-all-openzeppelin.sol\":32647:32794  function at(AddressSet storage set, uint256 index) internal view returns (address) {... */\n    tag_50:\n        /* \"contracts/polygonUsdt/Usdt-all-openzeppelin.sol\":32721:32728  address */\n      0x00\n        /* \"contracts/polygonUsdt/Usdt-all-openzeppelin.sol\":32763:32785  _at(set._inner, index) */\n      tag_74\n        /* \"contracts/polygonUsdt/Usdt-all-openzeppelin.sol\":32767:32770  set */\n      dup4\n        /* \"contracts/polygonUsdt/Usdt-all-openzeppelin.sol\":32767:32777  set._inner */\n      0x00\n      add\n        /* \"contracts/polygonUsdt/Usdt-all-openzeppelin.sol\":32779:32784  index */\n      dup4\n        /* \"contracts/polygonUsdt/Usdt-all-openzeppelin.sol\":32763:32766  _at */\n      tag_75\n        /* \"contracts/polygonUsdt/Usdt-all-openzeppelin.sol\":32763:32785  _at(set._inner, index) */\n      jump\t// in\n    tag_74:\n        /* \"contracts/polygonUsdt/Usdt-all-openzeppelin.sol\":32755:32786  uint256(_at(set._inner, index)) */\n      0x00\n      shr\n        /* \"contracts/polygonUsdt/Usdt-all-openzeppelin.sol\":32740:32787  return address(uint256(_at(set._inner, index))) */\n      swap1\n      pop\n        /* \"contracts/polygonUsdt/Usdt-all-openzeppelin.sol\":32647:32794  function at(AddressSet storage set, uint256 index) internal view returns (address) {... */\n      swap3\n      swap2\n      pop\n      pop\n      jump\t// out\n        /* \"contracts/polygonUsdt/Usdt-all-openzeppelin.sol\":31963:32119  function contains(AddressSet storage set, address value) internal view returns (bool) {... */\n    tag_53:\n        /* \"contracts/polygonUsdt/Usdt-all-openzeppelin.sol\":32043:32047  bool */\n      0x00\n        /* \"contracts/polygonUsdt/Usdt-all-openzeppelin.sol\":32066:32112  _contains(set._inner, bytes32(uint256(value))) */\n      tag_77\n        /* \"contracts/polygonUsdt/Usdt-all-openzeppelin.sol\":32076:32079  set */\n      dup4\n        /* \"contracts/polygonUsdt/Usdt-all-openzeppelin.sol\":32076:32086  set._inner */\n      0x00\n      add\n        /* \"contracts/polygonUsdt/Usdt-all-openzeppelin.sol\":32104:32109  value */\n      dup4\n        /* \"contracts/polygonUsdt/Usdt-all-openzeppelin.sol\":32096:32110  uint256(value) */\n      0xffffffffffffffffffffffffffffffffffffffff\n      and\n        /* \"contracts/polygonUsdt/Usdt-all-openzeppelin.sol\":32088:32111  bytes32(uint256(value)) */\n      0x00\n      shl\n        /* \"contracts/polygonUsdt/Usdt-all-openzeppelin.sol\":32066:32075  _contains */\n      tag_78\n        /* \"contracts/polygonUsdt/Usdt-all-openzeppelin.sol\":32066:32112  _contains(set._inner, bytes32(uint256(value))) */\n      jump\t// in\n    tag_77:\n        /* \"contracts/polygonUsdt/Usdt-all-openzeppelin.sol\":32059:32112  return _contains(set._inner, bytes32(uint256(value))) */\n      swap1\n      pop\n        /* \"contracts/polygonUsdt/Usdt-all-openzeppelin.sol\":31963:32119  function contains(AddressSet storage set, address value) internal view returns (bool) {... */\n      swap3\n      swap2\n      pop\n      pop\n      jump\t// out\n        /* \"contracts/polygonUsdt/Usdt-all-openzeppelin.sol\":32200:32315  function length(AddressSet storage set) internal view returns (uint256) {... */\n    tag_56:\n        /* \"contracts/polygonUsdt/Usdt-all-openzeppelin.sol\":32263:32270  uint256 */\n      0x00\n        /* \"contracts/polygonUsdt/Usdt-all-openzeppelin.sol\":32289:32308  _length(set._inner) */\n      tag_80\n        /* \"contracts/polygonUsdt/Usdt-all-openzeppelin.sol\":32297:32300  set */\n      dup3\n        /* \"contracts/polygonUsdt/Usdt-all-openzeppelin.sol\":32297:32307  set._inner */\n      0x00\n      add\n        /* \"contracts/polygonUsdt/Usdt-all-openzeppelin.sol\":32289:32296  _length */\n      tag_81\n        /* \"contracts/polygonUsdt/Usdt-all-openzeppelin.sol\":32289:32308  _length(set._inner) */\n      jump\t// in\n    tag_80:\n        /* \"contracts/polygonUsdt/Usdt-all-openzeppelin.sol\":32282:32308  return _length(set._inner) */\n      swap1\n      pop\n        /* \"contracts/polygonUsdt/Usdt-all-openzeppelin.sol\":32200:32315  function length(AddressSet storage set) internal view returns (uint256) {... */\n      swap2\n      swap1\n      pop\n      jump\t// out\n        /* \"contracts/polygonUsdt/Usdt-all-openzeppelin.sol\":31426:31567  function add(AddressSet storage set, address value) internal returns (bool) {... */\n    tag_65:\n        /* \"contracts/polygonUsdt/Usdt-all-openzeppelin.sol\":31496:31500  bool */\n      0x00\n        /* \"contracts/polygonUsdt/Usdt-all-openzeppelin.sol\":31519:31560  _add(set._inner, bytes32(uint256(value))) */\n      tag_83\n        /* \"contracts/polygonUsdt/Usdt-all-openzeppelin.sol\":31524:31527  set */\n      dup4\n        /* \"contracts/polygonUsdt/Usdt-all-openzeppelin.sol\":31524:31534  set._inner */\n      0x00\n      add\n        /* \"contracts/polygonUsdt/Usdt-all-openzeppelin.sol\":31552:31557  value */\n      dup4\n        /* \"contracts/polygonUsdt/Usdt-all-openzeppelin.sol\":31544:31558  uint256(value) */\n      0xffffffffffffffffffffffffffffffffffffffff\n      and\n        /* \"contracts/polygonUsdt/Usdt-all-openzeppelin.sol\":31536:31559  bytes32(uint256(value)) */\n      0x00\n      shl\n        /* \"contracts/polygonUsdt/Usdt-all-openzeppelin.sol\":31519:31523  _add */\n      tag_84\n        /* \"contracts/polygonUsdt/Usdt-all-openzeppelin.sol\":31519:31560  _add(set._inner, bytes32(uint256(value))) */\n      jump\t// in\n    tag_83:\n        /* \"contracts/polygonUsdt/Usdt-all-openzeppelin.sol\":31512:31560  return _add(set._inner, bytes32(uint256(value))) */\n      swap1\n      pop\n        /* \"contracts/polygonUsdt/Usdt-all-openzeppelin.sol\":31426:31567  function add(AddressSet storage set, address value) internal returns (bool) {... */\n      swap3\n      swap2\n      pop\n      pop\n      jump\t// out\n        /* \"contracts/polygonUsdt/Usdt-all-openzeppelin.sol\":31735:31882  function remove(AddressSet storage set, address value) internal returns (bool) {... */\n    tag_70:\n        /* \"contracts/polygonUsdt/Usdt-all-openzeppelin.sol\":31808:31812  bool */\n      0x00\n        /* \"contracts/polygonUsdt/Usdt-all-openzeppelin.sol\":31831:31875  _remove(set._inner, bytes32(uint256(value))) */\n      tag_86\n        /* \"contracts/polygonUsdt/Usdt-all-openzeppelin.sol\":31839:31842  set */\n      dup4\n        /* \"contracts/polygonUsdt/Usdt-all-openzeppelin.sol\":31839:31849  set._inner */\n      0x00\n      add\n        /* \"contracts/polygonUsdt/Usdt-all-openzeppelin.sol\":31867:31872  value */\n      dup4\n        /* \"contracts/polygonUsdt/Usdt-all-openzeppelin.sol\":31859:31873  uint256(value) */\n      0xffffffffffffffffffffffffffffffffffffffff\n      and\n        /* \"contracts/polygonUsdt/Usdt-all-openzeppelin.sol\":31851:31874  bytes32(uint256(value)) */\n      0x00\n      shl\n        /* \"contracts/polygonUsdt/Usdt-all-openzeppelin.sol\":31831:31838  _remove */\n      tag_87\n        /* \"contracts/polygonUsdt/Usdt-all-openzeppelin.sol\":31831:31875  _remove(set._inner, bytes32(uint256(value))) */\n      jump\t// in\n    tag_86:\n        /* \"contracts/polygonUsdt/Usdt-all-openzeppelin.sol\":31824:31875  return _remove(set._inner, bytes32(uint256(value))) */\n      swap1\n      pop\n        /* \"contracts/polygonUsdt/Usdt-all-openzeppelin.sol\":31735:31882  function remove(AddressSet storage set, address value) internal returns (bool) {... */\n      swap3\n      swap2\n      pop\n      pop\n      jump\t// out\n        /* \"contracts/polygonUsdt/Usdt-all-openzeppelin.sol\":30985:31186  function _at(Set storage set, uint256 index) private view returns (bytes32) {... */\n    tag_75:\n        /* \"contracts/polygonUsdt/Usdt-all-openzeppelin.sol\":31052:31059  bytes32 */\n      0x00\n        /* \"contracts/polygonUsdt/Usdt-all-openzeppelin.sol\":31100:31105  index */\n      dup2\n        /* \"contracts/polygonUsdt/Usdt-all-openzeppelin.sol\":31079:31082  set */\n      dup4\n        /* \"contracts/polygonUsdt/Usdt-all-openzeppelin.sol\":31079:31090  set._values */\n      0x00\n      add\n        /* \"contracts/polygonUsdt/Usdt-all-openzeppelin.sol\":31079:31097  set._values.length */\n      dup1\n      sload\n      swap1\n      pop\n        /* \"contracts/polygonUsdt/Usdt-all-openzeppelin.sol\":31079:31105  set._values.length > index */\n      gt\n        /* \"contracts/polygonUsdt/Usdt-all-openzeppelin.sol\":31071:31144  require(set._values.length > index, \"EnumerableSet: index out of bounds\") */\n      tag_89\n      jumpi\n      mload(0x40)\n      0x08c379a000000000000000000000000000000000000000000000000000000000\n      dup2\n      mstore\n      0x04\n      add\n      dup1\n      dup1\n      0x20\n      add\n      dup3\n      dup2\n      sub\n      dup3\n      mstore\n      0x22\n      dup2\n      mstore\n      0x20\n      add\n      dup1\n      data_045d6834e6193a687012a3ad777f612279e549b6945364d9d2324f48610d3cbb\n      0x22\n      swap2\n      codecopy\n      0x40\n      add\n      swap2\n      pop\n      pop\n      mload(0x40)\n      dup1\n      swap2\n      sub\n      swap1\n      revert\n    tag_89:\n        /* \"contracts/polygonUsdt/Usdt-all-openzeppelin.sol\":31161:31164  set */\n      dup3\n        /* \"contracts/polygonUsdt/Usdt-all-openzeppelin.sol\":31161:31172  set._values */\n      0x00\n      add\n        /* \"contracts/polygonUsdt/Usdt-all-openzeppelin.sol\":31173:31178  index */\n      dup3\n        /* \"contracts/polygonUsdt/Usdt-all-openzeppelin.sol\":31161:31179  set._values[index] */\n      dup2\n      sload\n      dup2\n      lt\n      tag_90\n      jumpi\n      invalid\n    tag_90:\n      swap1\n      0x00\n      mstore\n      keccak256(0x00, 0x20)\n      add\n      sload\n        /* \"contracts/polygonUsdt/Usdt-all-openzeppelin.sol\":31154:31179  return set._values[index] */\n      swap1\n      pop\n        /* \"contracts/polygonUsdt/Usdt-all-openzeppelin.sol\":30985:31186  function _at(Set storage set, uint256 index) private view returns (bytes32) {... */\n      swap3\n      swap2\n      pop\n      pop\n      jump\t// out\n        /* \"contracts/polygonUsdt/Usdt-all-openzeppelin.sol\":30338:30465  function _contains(Set storage set, bytes32 value) private view returns (bool) {... */\n    tag_78:\n        /* \"contracts/polygonUsdt/Usdt-all-openzeppelin.sol\":30411:30415  bool */\n      0x00\n        /* \"contracts/polygonUsdt/Usdt-all-openzeppelin.sol\":30457:30458  0 */\n      dup1\n        /* \"contracts/polygonUsdt/Usdt-all-openzeppelin.sol\":30434:30437  set */\n      dup4\n        /* \"contracts/polygonUsdt/Usdt-all-openzeppelin.sol\":30434:30446  set._indexes */\n      0x01\n      add\n        /* \"contracts/polygonUsdt/Usdt-all-openzeppelin.sol\":30434:30453  set._indexes[value] */\n      0x00\n        /* \"contracts/polygonUsdt/Usdt-all-openzeppelin.sol\":30447:30452  value */\n      dup5\n        /* \"contracts/polygonUsdt/Usdt-all-openzeppelin.sol\":30434:30453  set._indexes[value] */\n      dup2\n      mstore\n      0x20\n      add\n      swap1\n      dup2\n      mstore\n      0x20\n      add\n      0x00\n      keccak256\n      sload\n        /* \"contracts/polygonUsdt/Usdt-all-openzeppelin.sol\":30434:30458  set._indexes[value] != 0 */\n      eq\n      iszero\n        /* \"contracts/polygonUsdt/Usdt-all-openzeppelin.sol\":30427:30458  return set._indexes[value] != 0 */\n      swap1\n      pop\n        /* \"contracts/polygonUsdt/Usdt-all-openzeppelin.sol\":30338:30465  function _contains(Set storage set, bytes32 value) private view returns (bool) {... */\n      swap3\n      swap2\n      pop\n      pop\n      jump\t// out\n        /* \"contracts/polygonUsdt/Usdt-all-openzeppelin.sol\":30546:30653  function _length(Set storage set) private view returns (uint256) {... */\n    tag_81:\n        /* \"contracts/polygonUsdt/Usdt-all-openzeppelin.sol\":30602:30609  uint256 */\n      0x00\n        /* \"contracts/polygonUsdt/Usdt-all-openzeppelin.sol\":30628:30631  set */\n      dup2\n        /* \"contracts/polygonUsdt/Usdt-all-openzeppelin.sol\":30628:30639  set._values */\n      0x00\n      add\n        /* \"contracts/polygonUsdt/Usdt-all-openzeppelin.sol\":30628:30646  set._values.length */\n      dup1\n      sload\n      swap1\n      pop\n        /* \"contracts/polygonUsdt/Usdt-all-openzeppelin.sol\":30621:30646  return set._values.length */\n      swap1\n      pop\n        /* \"contracts/polygonUsdt/Usdt-all-openzeppelin.sol\":30546:30653  function _length(Set storage set) private view returns (uint256) {... */\n      swap2\n      swap1\n      pop\n      jump\t// out\n        /* \"contracts/polygonUsdt/Usdt-all-openzeppelin.sol\":28173:28577  function _add(Set storage set, bytes32 value) private returns (bool) {... */\n    tag_84:\n        /* \"contracts/polygonUsdt/Usdt-all-openzeppelin.sol\":28236:28240  bool */\n      0x00\n        /* \"contracts/polygonUsdt/Usdt-all-openzeppelin.sol\":28257:28278  _contains(set, value) */\n      tag_95\n        /* \"contracts/polygonUsdt/Usdt-all-openzeppelin.sol\":28267:28270  set */\n      dup4\n        /* \"contracts/polygonUsdt/Usdt-all-openzeppelin.sol\":28272:28277  value */\n      dup4\n        /* \"contracts/polygonUsdt/Usdt-all-openzeppelin.sol\":28257:28266  _contains */\n      tag_78\n        /* \"contracts/polygonUsdt/Usdt-all-openzeppelin.sol\":28257:28278  _contains(set, value) */\n      jump\t// in\n    tag_95:\n        /* \"contracts/polygonUsdt/Usdt-all-openzeppelin.sol\":28252:28571  if (!_contains(set, value)) {... */\n      tag_96\n      jumpi\n        /* \"contracts/polygonUsdt/Usdt-all-openzeppelin.sol\":28294:28297  set */\n      dup3\n        /* \"contracts/polygonUsdt/Usdt-all-openzeppelin.sol\":28294:28305  set._values */\n      0x00\n      add\n        /* \"contracts/polygonUsdt/Usdt-all-openzeppelin.sol\":28311:28316  value */\n      dup3\n        /* \"contracts/polygonUsdt/Usdt-all-openzeppelin.sol\":28294:28317  set._values.push(value) */\n      swap1\n      dup1\n        /* \"--CODEGEN--\":39:40   */\n      0x01\n        /* \"--CODEGEN--\":33:36   */\n      dup2\n        /* \"--CODEGEN--\":27:37   */\n      sload\n        /* \"--CODEGEN--\":23:41   */\n      add\n        /* \"--CODEGEN--\":57:67   */\n      dup1\n        /* \"--CODEGEN--\":52:55   */\n      dup3\n        /* \"--CODEGEN--\":45:68   */\n      sstore\n        /* \"--CODEGEN--\":79:89   */\n      dup1\n        /* \"--CODEGEN--\":72:89   */\n      swap2\n      pop\n        /* \"--CODEGEN--\":0:93   */\n      pop\n        /* \"contracts/polygonUsdt/Usdt-all-openzeppelin.sol\":28294:28317  set._values.push(value) */\n      0x01\n      swap1\n      sub\n      swap1\n      0x00\n      mstore\n      keccak256(0x00, 0x20)\n      add\n      0x00\n      swap1\n      swap2\n      swap1\n      swap2\n      swap1\n      swap2\n      pop\n      sstore\n        /* \"contracts/polygonUsdt/Usdt-all-openzeppelin.sol\":28474:28477  set */\n      dup3\n        /* \"contracts/polygonUsdt/Usdt-all-openzeppelin.sol\":28474:28485  set._values */\n      0x00\n      add\n        /* \"contracts/polygonUsdt/Usdt-all-openzeppelin.sol\":28474:28492  set._values.length */\n      dup1\n      sload\n      swap1\n      pop\n        /* \"contracts/polygonUsdt/Usdt-all-openzeppelin.sol\":28452:28455  set */\n      dup4\n        /* \"contracts/polygonUsdt/Usdt-all-openzeppelin.sol\":28452:28464  set._indexes */\n      0x01\n      add\n        /* \"contracts/polygonUsdt/Usdt-all-openzeppelin.sol\":28452:28471  set._indexes[value] */\n      0x00\n        /* \"contracts/polygonUsdt/Usdt-all-openzeppelin.sol\":28465:28470  value */\n      dup5\n        /* \"contracts/polygonUsdt/Usdt-all-openzeppelin.sol\":28452:28471  set._indexes[value] */\n      dup2\n      mstore\n      0x20\n      add\n      swap1\n      dup2\n      mstore\n      0x20\n      add\n      0x00\n      keccak256\n        /* \"contracts/polygonUsdt/Usdt-all-openzeppelin.sol\":28452:28492  set._indexes[value] = set._values.length */\n      dup2\n      swap1\n      sstore\n      pop\n        /* \"contracts/polygonUsdt/Usdt-all-openzeppelin.sol\":28513:28517  true */\n      0x01\n        /* \"contracts/polygonUsdt/Usdt-all-openzeppelin.sol\":28506:28517  return true */\n      swap1\n      pop\n      jump(tag_94)\n        /* \"contracts/polygonUsdt/Usdt-all-openzeppelin.sol\":28252:28571  if (!_contains(set, value)) {... */\n    tag_96:\n        /* \"contracts/polygonUsdt/Usdt-all-openzeppelin.sol\":28555:28560  false */\n      0x00\n        /* \"contracts/polygonUsdt/Usdt-all-openzeppelin.sol\":28548:28560  return false */\n      swap1\n      pop\n        /* \"contracts/polygonUsdt/Usdt-all-openzeppelin.sol\":28173:28577  function _add(Set storage set, bytes32 value) private returns (bool) {... */\n    tag_94:\n      swap3\n      swap2\n      pop\n      pop\n      jump\t// out\n        /* \"contracts/polygonUsdt/Usdt-all-openzeppelin.sol\":28745:30257  function _remove(Set storage set, bytes32 value) private returns (bool) {... */\n    tag_87:\n        /* \"contracts/polygonUsdt/Usdt-all-openzeppelin.sol\":28811:28815  bool */\n      0x00\n        /* \"contracts/polygonUsdt/Usdt-all-openzeppelin.sol\":28927:28945  uint256 valueIndex */\n      dup1\n        /* \"contracts/polygonUsdt/Usdt-all-openzeppelin.sol\":28948:28951  set */\n      dup4\n        /* \"contracts/polygonUsdt/Usdt-all-openzeppelin.sol\":28948:28960  set._indexes */\n      0x01\n      add\n        /* \"contracts/polygonUsdt/Usdt-all-openzeppelin.sol\":28948:28967  set._indexes[value] */\n      0x00\n        /* \"contracts/polygonUsdt/Usdt-all-openzeppelin.sol\":28961:28966  value */\n      dup5\n        /* \"contracts/polygonUsdt/Usdt-all-openzeppelin.sol\":28948:28967  set._indexes[value] */\n      dup2\n      mstore\n      0x20\n      add\n      swap1\n      dup2\n      mstore\n      0x20\n      add\n      0x00\n      keccak256\n      sload\n        /* \"contracts/polygonUsdt/Usdt-all-openzeppelin.sol\":28927:28967  uint256 valueIndex = set._indexes[value] */\n      swap1\n      pop\n        /* \"contracts/polygonUsdt/Usdt-all-openzeppelin.sol\":28996:28997  0 */\n      0x00\n        /* \"contracts/polygonUsdt/Usdt-all-openzeppelin.sol\":28982:28992  valueIndex */\n      dup2\n        /* \"contracts/polygonUsdt/Usdt-all-openzeppelin.sol\":28982:28997  valueIndex != 0 */\n      eq\n        /* \"contracts/polygonUsdt/Usdt-all-openzeppelin.sol\":28978:30251  if (valueIndex != 0) { // Equivalent to contains(set, value)... */\n      tag_100\n      jumpi\n        /* \"contracts/polygonUsdt/Usdt-all-openzeppelin.sol\":29339:29360  uint256 toDeleteIndex */\n      0x00\n        /* \"contracts/polygonUsdt/Usdt-all-openzeppelin.sol\":29376:29377  1 */\n      0x01\n        /* \"contracts/polygonUsdt/Usdt-all-openzeppelin.sol\":29363:29373  valueIndex */\n      dup3\n        /* \"contracts/polygonUsdt/Usdt-all-openzeppelin.sol\":29363:29377  valueIndex - 1 */\n      sub\n        /* \"contracts/polygonUsdt/Usdt-all-openzeppelin.sol\":29339:29377  uint256 toDeleteIndex = valueIndex - 1 */\n      swap1\n      pop\n        /* \"contracts/polygonUsdt/Usdt-all-openzeppelin.sol\":29391:29408  uint256 lastIndex */\n      0x00\n        /* \"contracts/polygonUsdt/Usdt-all-openzeppelin.sol\":29432:29433  1 */\n      0x01\n        /* \"contracts/polygonUsdt/Usdt-all-openzeppelin.sol\":29411:29414  set */\n      dup7\n        /* \"contracts/polygonUsdt/Usdt-all-openzeppelin.sol\":29411:29422  set._values */\n      0x00\n      add\n        /* \"contracts/polygonUsdt/Usdt-all-openzeppelin.sol\":29411:29429  set._values.length */\n      dup1\n      sload\n      swap1\n      pop\n        /* \"contracts/polygonUsdt/Usdt-all-openzeppelin.sol\":29411:29433  set._values.length - 1 */\n      sub\n        /* \"contracts/polygonUsdt/Usdt-all-openzeppelin.sol\":29391:29433  uint256 lastIndex = set._values.length - 1 */\n      swap1\n      pop\n        /* \"contracts/polygonUsdt/Usdt-all-openzeppelin.sol\":29673:29690  bytes32 lastvalue */\n      0x00\n        /* \"contracts/polygonUsdt/Usdt-all-openzeppelin.sol\":29693:29696  set */\n      dup7\n        /* \"contracts/polygonUsdt/Usdt-all-openzeppelin.sol\":29693:29704  set._values */\n      0x00\n      add\n        /* \"contracts/polygonUsdt/Usdt-all-openzeppelin.sol\":29705:29714  lastIndex */\n      dup3\n        /* \"contracts/polygonUsdt/Usdt-all-openzeppelin.sol\":29693:29715  set._values[lastIndex] */\n      dup2\n      sload\n      dup2\n      lt\n      tag_101\n      jumpi\n      invalid\n    tag_101:\n      swap1\n      0x00\n      mstore\n      keccak256(0x00, 0x20)\n      add\n      sload\n        /* \"contracts/polygonUsdt/Usdt-all-openzeppelin.sol\":29673:29715  bytes32 lastvalue = set._values[lastIndex] */\n      swap1\n      pop\n        /* \"contracts/polygonUsdt/Usdt-all-openzeppelin.sol\":29836:29845  lastvalue */\n      dup1\n        /* \"contracts/polygonUsdt/Usdt-all-openzeppelin.sol\":29807:29810  set */\n      dup8\n        /* \"contracts/polygonUsdt/Usdt-all-openzeppelin.sol\":29807:29818  set._values */\n      0x00\n      add\n        /* \"contracts/polygonUsdt/Usdt-all-openzeppelin.sol\":29819:29832  toDeleteIndex */\n      dup5\n        /* \"contracts/polygonUsdt/Usdt-all-openzeppelin.sol\":29807:29833  set._values[toDeleteIndex] */\n      dup2\n      sload\n      dup2\n      lt\n      tag_103\n      jumpi\n      invalid\n    tag_103:\n      swap1\n      0x00\n      mstore\n      keccak256(0x00, 0x20)\n      add\n        /* \"contracts/polygonUsdt/Usdt-all-openzeppelin.sol\":29807:29845  set._values[toDeleteIndex] = lastvalue */\n      dup2\n      swap1\n      sstore\n      pop\n        /* \"contracts/polygonUsdt/Usdt-all-openzeppelin.sol\":29953:29954  1 */\n      0x01\n        /* \"contracts/polygonUsdt/Usdt-all-openzeppelin.sol\":29937:29950  toDeleteIndex */\n      dup4\n        /* \"contracts/polygonUsdt/Usdt-all-openzeppelin.sol\":29937:29954  toDeleteIndex + 1 */\n      add\n        /* \"contracts/polygonUsdt/Usdt-all-openzeppelin.sol\":29911:29914  set */\n      dup8\n        /* \"contracts/polygonUsdt/Usdt-all-openzeppelin.sol\":29911:29923  set._indexes */\n      0x01\n      add\n        /* \"contracts/polygonUsdt/Usdt-all-openzeppelin.sol\":29911:29934  set._indexes[lastvalue] */\n      0x00\n        /* \"contracts/polygonUsdt/Usdt-all-openzeppelin.sol\":29924:29933  lastvalue */\n      dup4\n        /* \"contracts/polygonUsdt/Usdt-all-openzeppelin.sol\":29911:29934  set._indexes[lastvalue] */\n      dup2\n      mstore\n      0x20\n      add\n      swap1\n      dup2\n      mstore\n      0x20\n      add\n      0x00\n      keccak256\n        /* \"contracts/polygonUsdt/Usdt-all-openzeppelin.sol\":29911:29954  set._indexes[lastvalue] = toDeleteIndex + 1 */\n      dup2\n      swap1\n      sstore\n      pop\n        /* \"contracts/polygonUsdt/Usdt-all-openzeppelin.sol\":30060:30063  set */\n      dup7\n        /* \"contracts/polygonUsdt/Usdt-all-openzeppelin.sol\":30060:30071  set._values */\n      0x00\n      add\n        /* \"contracts/polygonUsdt/Usdt-all-openzeppelin.sol\":30060:30077  set._values.pop() */\n      dup1\n      sload\n      dup1\n      tag_105\n      jumpi\n      invalid\n    tag_105:\n      0x01\n      swap1\n      sub\n      dup2\n      dup2\n      swap1\n      0x00\n      mstore\n      keccak256(0x00, 0x20)\n      add\n      0x00\n      swap1\n      sstore\n      swap1\n      sstore\n        /* \"contracts/polygonUsdt/Usdt-all-openzeppelin.sol\":30152:30155  set */\n      dup7\n        /* \"contracts/polygonUsdt/Usdt-all-openzeppelin.sol\":30152:30164  set._indexes */\n      0x01\n      add\n        /* \"contracts/polygonUsdt/Usdt-all-openzeppelin.sol\":30152:30171  set._indexes[value] */\n      0x00\n        /* \"contracts/polygonUsdt/Usdt-all-openzeppelin.sol\":30165:30170  value */\n      dup8\n        /* \"contracts/polygonUsdt/Usdt-all-openzeppelin.sol\":30152:30171  set._indexes[value] */\n      dup2\n      mstore\n      0x20\n      add\n      swap1\n      dup2\n      mstore\n      0x20\n      add\n      0x00\n      keccak256\n        /* \"contracts/polygonUsdt/Usdt-all-openzeppelin.sol\":30145:30171  delete set._indexes[value] */\n      0x00\n      swap1\n      sstore\n        /* \"contracts/polygonUsdt/Usdt-all-openzeppelin.sol\":30193:30197  true */\n      0x01\n        /* \"contracts/polygonUsdt/Usdt-all-openzeppelin.sol\":30186:30197  return true */\n      swap5\n      pop\n      pop\n      pop\n      pop\n      pop\n      jump(tag_99)\n        /* \"contracts/polygonUsdt/Usdt-all-openzeppelin.sol\":28978:30251  if (valueIndex != 0) { // Equivalent to contains(set, value)... */\n    tag_100:\n        /* \"contracts/polygonUsdt/Usdt-all-openzeppelin.sol\":30235:30240  false */\n      0x00\n        /* \"contracts/polygonUsdt/Usdt-all-openzeppelin.sol\":30228:30240  return false */\n      swap2\n      pop\n      pop\n        /* \"contracts/polygonUsdt/Usdt-all-openzeppelin.sol\":28745:30257  function _remove(Set storage set, bytes32 value) private returns (bool) {... */\n    tag_99:\n      swap3\n      swap2\n      pop\n      pop\n      jump\t// out\n    stop\n    data_045d6834e6193a687012a3ad777f612279e549b6945364d9d2324f48610d3cbb 456e756d657261626c655365743a20696e646578206f7574206f6620626f756e6473\n    data_0ba7116025f1ef6b158a2bd2238e617f30e17c9e456917d901086ca4f8ad2811 416363657373436f6e74726f6c3a2073656e646572206d75737420626520616e2061646d696e20746f206772616e74\n    data_64344570eab7406ca49d34d38bf2b2496dfda914405390c5057c8b0aabf798a3 416363657373436f6e74726f6c3a2073656e646572206d75737420626520616e2061646d696e20746f207265766f6b65\n    data_fb06fa8ff2141e8ed74502f6792273793f25f0e9d3cf15344f3f5a0d4948fd4b 416363657373436f6e74726f6c3a2063616e206f6e6c792072656e6f756e636520726f6c657320666f722073656c66\n\n    auxdata: 0xa26469706673582212203637c5e296ba9fdca217a03da26cebd8c1282699e692596838feeba320ee80bd64736f6c63430006060033\n}\n",
				"bytecode": {
					"linkReferences": {},
					"object": "608060405234801561001057600080fd5b50610a32806100206000396000f3fe608060405234801561001057600080fd5b50600436106100885760003560e01c806391d148541161005b57806391d14854146101e3578063a217fddf14610249578063ca15c87314610267578063d547741f146102a957610088565b8063248a9ca31461008d5780632f2ff15d146100cf57806336568abe1461011d5780639010d07c1461016b575b600080fd5b6100b9600480360360208110156100a357600080fd5b81019080803590602001909291905050506102f7565b6040518082815260200191505060405180910390f35b61011b600480360360408110156100e557600080fd5b8101908080359060200190929190803573ffffffffffffffffffffffffffffffffffffffff169060200190929190505050610316565b005b6101696004803603604081101561013357600080fd5b8101908080359060200190929190803573ffffffffffffffffffffffffffffffffffffffff16906020019092919050505061039f565b005b6101a16004803603604081101561018157600080fd5b810190808035906020019092919080359060200190929190505050610438565b604051808273ffffffffffffffffffffffffffffffffffffffff1673ffffffffffffffffffffffffffffffffffffffff16815260200191505060405180910390f35b61022f600480360360408110156101f957600080fd5b8101908080359060200190929190803573ffffffffffffffffffffffffffffffffffffffff169060200190929190505050610469565b604051808215151515815260200191505060405180910390f35b61025161049a565b6040518082815260200191505060405180910390f35b6102936004803603602081101561027d57600080fd5b81019080803590602001909291905050506104a1565b6040518082815260200191505060405180910390f35b6102f5600480360360408110156102bf57600080fd5b8101908080359060200190929190803573ffffffffffffffffffffffffffffffffffffffff1690602001909291905050506104c7565b005b6000806000838152602001908152602001600020600201549050919050565b61033c60008084815260200190815260200160002060020154610337610550565b610469565b610391576040517f08c379a000000000000000000000000000000000000000000000000000000000815260040180806020018281038252602f81526020018061096f602f913960400191505060405180910390fd5b61039b8282610558565b5050565b6103a7610550565b73ffffffffffffffffffffffffffffffffffffffff168173ffffffffffffffffffffffffffffffffffffffff161461042a576040517f08c379a000000000000000000000000000000000000000000000000000000000815260040180806020018281038252602f8152602001806109ce602f913960400191505060405180910390fd5b61043482826105eb565b5050565b60006104618260008086815260200190815260200160002060000161067e90919063ffffffff16565b905092915050565b60006104928260008086815260200190815260200160002060000161069890919063ffffffff16565b905092915050565b6000801b81565b60006104c06000808481526020019081526020016000206000016106c8565b9050919050565b6104ed600080848152602001908152602001600020600201546104e8610550565b610469565b610542576040517f08c379a000000000000000000000000000000000000000000000000000000000815260040180806020018281038252603081526020018061099e6030913960400191505060405180910390fd5b61054c82826105eb565b5050565b600033905090565b61057f816000808581526020019081526020016000206000016106dd90919063ffffffff16565b156105e75761058c610550565b73ffffffffffffffffffffffffffffffffffffffff168173ffffffffffffffffffffffffffffffffffffffff16837f2f8788117e7eff1d82e926ec794901d17c78024a50270940304540a733656f0d60405160405180910390a45b5050565b6106128160008085815260200190815260200160002060000161070d90919063ffffffff16565b1561067a5761061f610550565b73ffffffffffffffffffffffffffffffffffffffff168173ffffffffffffffffffffffffffffffffffffffff16837ff6391f5c32d9c69d2a47ea670b442974b53935d1edc7fd64eb21e047a839171b60405160405180910390a45b5050565b600061068d836000018361073d565b60001c905092915050565b60006106c0836000018373ffffffffffffffffffffffffffffffffffffffff1660001b6107c0565b905092915050565b60006106d6826000016107e3565b9050919050565b6000610705836000018373ffffffffffffffffffffffffffffffffffffffff1660001b6107f4565b905092915050565b6000610735836000018373ffffffffffffffffffffffffffffffffffffffff1660001b610864565b905092915050565b60008183600001805490501161079e576040517f08c379a000000000000000000000000000000000000000000000000000000000815260040180806020018281038252602281526020018061094d6022913960400191505060405180910390fd5b8260000182815481106107ad57fe5b9060005260206000200154905092915050565b600080836001016000848152602001908152602001600020541415905092915050565b600081600001805490509050919050565b600061080083836107c0565b61085957826000018290806001815401808255809150506001900390600052602060002001600090919091909150558260000180549050836001016000848152602001908152602001600020819055506001905061085e565b600090505b92915050565b6000808360010160008481526020019081526020016000205490506000811461094057600060018203905060006001866000018054905003905060008660000182815481106108af57fe5b90600052602060002001549050808760000184815481106108cc57fe5b906000526020600020018190555060018301876001016000838152602001908152602001600020819055508660000180548061090457fe5b60019003818190600052602060002001600090559055866001016000878152602001908152602001600020600090556001945050505050610946565b60009150505b9291505056fe456e756d657261626c655365743a20696e646578206f7574206f6620626f756e6473416363657373436f6e74726f6c3a2073656e646572206d75737420626520616e2061646d696e20746f206772616e74416363657373436f6e74726f6c3a2073656e646572206d75737420626520616e2061646d696e20746f207265766f6b65416363657373436f6e74726f6c3a2063616e206f6e6c792072656e6f756e636520726f6c657320666f722073656c66a26469706673582212203637c5e296ba9fdca217a03da26cebd8c1282699e692596838feeba320ee80bd64736f6c63430006060033",
					"opcodes": "PUSH1 0x80 PUSH1 0x40 MSTORE CALLVALUE DUP1 ISZERO PUSH2 0x10 JUMPI PUSH1 0x0 DUP1 REVERT JUMPDEST POP PUSH2 0xA32 DUP1 PUSH2 0x20 PUSH1 0x0 CODECOPY PUSH1 0x0 RETURN INVALID PUSH1 0x80 PUSH1 0x40 MSTORE CALLVALUE DUP1 ISZERO PUSH2 0x10 JUMPI PUSH1 0x0 DUP1 REVERT JUMPDEST POP PUSH1 0x4 CALLDATASIZE LT PUSH2 0x88 JUMPI PUSH1 0x0 CALLDATALOAD PUSH1 0xE0 SHR DUP1 PUSH4 0x91D14854 GT PUSH2 0x5B JUMPI DUP1 PUSH4 0x91D14854 EQ PUSH2 0x1E3 JUMPI DUP1 PUSH4 0xA217FDDF EQ PUSH2 0x249 JUMPI DUP1 PUSH4 0xCA15C873 EQ PUSH2 0x267 JUMPI DUP1 PUSH4 0xD547741F EQ PUSH2 0x2A9 JUMPI PUSH2 0x88 JUMP JUMPDEST DUP1 PUSH4 0x248A9CA3 EQ PUSH2 0x8D JUMPI DUP1 PUSH4 0x2F2FF15D EQ PUSH2 0xCF JUMPI DUP1 PUSH4 0x36568ABE EQ PUSH2 0x11D JUMPI DUP1 PUSH4 0x9010D07C EQ PUSH2 0x16B JUMPI JUMPDEST PUSH1 0x0 DUP1 REVERT JUMPDEST PUSH2 0xB9 PUSH1 0x4 DUP1 CALLDATASIZE SUB PUSH1 0x20 DUP2 LT ISZERO PUSH2 0xA3 JUMPI PUSH1 0x0 DUP1 REVERT JUMPDEST DUP2 ADD SWAP1 DUP1 DUP1 CALLDATALOAD SWAP1 PUSH1 0x20 ADD SWAP1 SWAP3 SWAP2 SWAP1 POP POP POP PUSH2 0x2F7 JUMP JUMPDEST PUSH1 0x40 MLOAD DUP1 DUP3 DUP2 MSTORE PUSH1 0x20 ADD SWAP2 POP POP PUSH1 0x40 MLOAD DUP1 SWAP2 SUB SWAP1 RETURN JUMPDEST PUSH2 0x11B PUSH1 0x4 DUP1 CALLDATASIZE SUB PUSH1 0x40 DUP2 LT ISZERO PUSH2 0xE5 JUMPI PUSH1 0x0 DUP1 REVERT JUMPDEST DUP2 ADD SWAP1 DUP1 DUP1 CALLDATALOAD SWAP1 PUSH1 0x20 ADD SWAP1 SWAP3 SWAP2 SWAP1 DUP1 CALLDATALOAD PUSH20 0xFFFFFFFFFFFFFFFFFFFFFFFFFFFFFFFFFFFFFFFF AND SWAP1 PUSH1 0x20 ADD SWAP1 SWAP3 SWAP2 SWAP1 POP POP POP PUSH2 0x316 JUMP JUMPDEST STOP JUMPDEST PUSH2 0x169 PUSH1 0x4 DUP1 CALLDATASIZE SUB PUSH1 0x40 DUP2 LT ISZERO PUSH2 0x133 JUMPI PUSH1 0x0 DUP1 REVERT JUMPDEST DUP2 ADD SWAP1 DUP1 DUP1 CALLDATALOAD SWAP1 PUSH1 0x20 ADD SWAP1 SWAP3 SWAP2 SWAP1 DUP1 CALLDATALOAD PUSH20 0xFFFFFFFFFFFFFFFFFFFFFFFFFFFFFFFFFFFFFFFF AND SWAP1 PUSH1 0x20 ADD SWAP1 SWAP3 SWAP2 SWAP1 POP POP POP PUSH2 0x39F JUMP JUMPDEST STOP JUMPDEST PUSH2 0x1A1 PUSH1 0x4 DUP1 CALLDATASIZE SUB PUSH1 0x40 DUP2 LT ISZERO PUSH2 0x181 JUMPI PUSH1 0x0 DUP1 REVERT JUMPDEST DUP2 ADD SWAP1 DUP1 DUP1 CALLDATALOAD SWAP1 PUSH1 0x20 ADD SWAP1 SWAP3 SWAP2 SWAP1 DUP1 CALLDATALOAD SWAP1 PUSH1 0x20 ADD SWAP1 SWAP3 SWAP2 SWAP1 POP POP POP PUSH2 0x438 JUMP JUMPDEST PUSH1 0x40 MLOAD DUP1 DUP3 PUSH20 0xFFFFFFFFFFFFFFFFFFFFFFFFFFFFFFFFFFFFFFFF AND PUSH20 0xFFFFFFFFFFFFFFFFFFFFFFFFFFFFFFFFFFFFFFFF AND DUP2 MSTORE PUSH1 0x20 ADD SWAP2 POP POP PUSH1 0x40 MLOAD DUP1 SWAP2 SUB SWAP1 RETURN JUMPDEST PUSH2 0x22F PUSH1 0x4 DUP1 CALLDATASIZE SUB PUSH1 0x40 DUP2 LT ISZERO PUSH2 0x1F9 JUMPI PUSH1 0x0 DUP1 REVERT JUMPDEST DUP2 ADD SWAP1 DUP1 DUP1 CALLDATALOAD SWAP1 PUSH1 0x20 ADD SWAP1 SWAP3 SWAP2 SWAP1 DUP1 CALLDATALOAD PUSH20 0xFFFFFFFFFFFFFFFFFFFFFFFFFFFFFFFFFFFFFFFF AND SWAP1 PUSH1 0x20 ADD SWAP1 SWAP3 SWAP2 SWAP1 POP POP POP PUSH2 0x469 JUMP JUMPDEST PUSH1 0x40 MLOAD DUP1 DUP3 ISZERO ISZERO ISZERO ISZERO DUP2 MSTORE PUSH1 0x20 ADD SWAP2 POP POP PUSH1 0x40 MLOAD DUP1 SWAP2 SUB SWAP1 RETURN JUMPDEST PUSH2 0x251 PUSH2 0x49A JUMP JUMPDEST PUSH1 0x40 MLOAD DUP1 DUP3 DUP2 MSTORE PUSH1 0x20 ADD SWAP2 POP POP PUSH1 0x40 MLOAD DUP1 SWAP2 SUB SWAP1 RETURN JUMPDEST PUSH2 0x293 PUSH1 0x4 DUP1 CALLDATASIZE SUB PUSH1 0x20 DUP2 LT ISZERO PUSH2 0x27D JUMPI PUSH1 0x0 DUP1 REVERT JUMPDEST DUP2 ADD SWAP1 DUP1 DUP1 CALLDATALOAD SWAP1 PUSH1 0x20 ADD SWAP1 SWAP3 SWAP2 SWAP1 POP POP POP PUSH2 0x4A1 JUMP JUMPDEST PUSH1 0x40 MLOAD DUP1 DUP3 DUP2 MSTORE PUSH1 0x20 ADD SWAP2 POP POP PUSH1 0x40 MLOAD DUP1 SWAP2 SUB SWAP1 RETURN JUMPDEST PUSH2 0x2F5 PUSH1 0x4 DUP1 CALLDATASIZE SUB PUSH1 0x40 DUP2 LT ISZERO PUSH2 0x2BF JUMPI PUSH1 0x0 DUP1 REVERT JUMPDEST DUP2 ADD SWAP1 DUP1 DUP1 CALLDATALOAD SWAP1 PUSH1 0x20 ADD SWAP1 SWAP3 SWAP2 SWAP1 DUP1 CALLDATALOAD PUSH20 0xFFFFFFFFFFFFFFFFFFFFFFFFFFFFFFFFFFFFFFFF AND SWAP1 PUSH1 0x20 ADD SWAP1 SWAP3 SWAP2 SWAP1 POP POP POP PUSH2 0x4C7 JUMP JUMPDEST STOP JUMPDEST PUSH1 0x0 DUP1 PUSH1 0x0 DUP4 DUP2 MSTORE PUSH1 0x20 ADD SWAP1 DUP2 MSTORE PUSH1 0x20 ADD PUSH1 0x0 KECCAK256 PUSH1 0x2 ADD SLOAD SWAP1 POP SWAP2 SWAP1 POP JUMP JUMPDEST PUSH2 0x33C PUSH1 0x0 DUP1 DUP5 DUP2 MSTORE PUSH1 0x20 ADD SWAP1 DUP2 MSTORE PUSH1 0x20 ADD PUSH1 0x0 KECCAK256 PUSH1 0x2 ADD SLOAD PUSH2 0x337 PUSH2 0x550 JUMP JUMPDEST PUSH2 0x469 JUMP JUMPDEST PUSH2 0x391 JUMPI PUSH1 0x40 MLOAD PUSH32 0x8C379A000000000000000000000000000000000000000000000000000000000 DUP2 MSTORE PUSH1 0x4 ADD DUP1 DUP1 PUSH1 0x20 ADD DUP3 DUP2 SUB DUP3 MSTORE PUSH1 0x2F DUP2 MSTORE PUSH1 0x20 ADD DUP1 PUSH2 0x96F PUSH1 0x2F SWAP2 CODECOPY PUSH1 0x40 ADD SWAP2 POP POP PUSH1 0x40 MLOAD DUP1 SWAP2 SUB SWAP1 REVERT JUMPDEST PUSH2 0x39B DUP3 DUP3 PUSH2 0x558 JUMP JUMPDEST POP POP JUMP JUMPDEST PUSH2 0x3A7 PUSH2 0x550 JUMP JUMPDEST PUSH20 0xFFFFFFFFFFFFFFFFFFFFFFFFFFFFFFFFFFFFFFFF AND DUP2 PUSH20 0xFFFFFFFFFFFFFFFFFFFFFFFFFFFFFFFFFFFFFFFF AND EQ PUSH2 0x42A JUMPI PUSH1 0x40 MLOAD PUSH32 0x8C379A000000000000000000000000000000000000000000000000000000000 DUP2 MSTORE PUSH1 0x4 ADD DUP1 DUP1 PUSH1 0x20 ADD DUP3 DUP2 SUB DUP3 MSTORE PUSH1 0x2F DUP2 MSTORE PUSH1 0x20 ADD DUP1 PUSH2 0x9CE PUSH1 0x2F SWAP2 CODECOPY PUSH1 0x40 ADD SWAP2 POP POP PUSH1 0x40 MLOAD DUP1 SWAP2 SUB SWAP1 REVERT JUMPDEST PUSH2 0x434 DUP3 DUP3 PUSH2 0x5EB JUMP JUMPDEST POP POP JUMP JUMPDEST PUSH1 0x0 PUSH2 0x461 DUP3 PUSH1 0x0 DUP1 DUP7 DUP2 MSTORE PUSH1 0x20 ADD SWAP1 DUP2 MSTORE PUSH1 0x20 ADD PUSH1 0x0 KECCAK256 PUSH1 0x0 ADD PUSH2 0x67E SWAP1 SWAP2 SWAP1 PUSH4 0xFFFFFFFF AND JUMP JUMPDEST SWAP1 POP SWAP3 SWAP2 POP POP JUMP JUMPDEST PUSH1 0x0 PUSH2 0x492 DUP3 PUSH1 0x0 DUP1 DUP7 DUP2 MSTORE PUSH1 0x20 ADD SWAP1 DUP2 MSTORE PUSH1 0x20 ADD PUSH1 0x0 KECCAK256 PUSH1 0x0 ADD PUSH2 0x698 SWAP1 SWAP2 SWAP1 PUSH4 0xFFFFFFFF AND JUMP JUMPDEST SWAP1 POP SWAP3 SWAP2 POP POP JUMP JUMPDEST PUSH1 0x0 DUP1 SHL DUP2 JUMP JUMPDEST PUSH1 0x0 PUSH2 0x4C0 PUSH1 0x0 DUP1 DUP5 DUP2 MSTORE PUSH1 0x20 ADD SWAP1 DUP2 MSTORE PUSH1 0x20 ADD PUSH1 0x0 KECCAK256 PUSH1 0x0 ADD PUSH2 0x6C8 JUMP JUMPDEST SWAP1 POP SWAP2 SWAP1 POP JUMP JUMPDEST PUSH2 0x4ED PUSH1 0x0 DUP1 DUP5 DUP2 MSTORE PUSH1 0x20 ADD SWAP1 DUP2 MSTORE PUSH1 0x20 ADD PUSH1 0x0 KECCAK256 PUSH1 0x2 ADD SLOAD PUSH2 0x4E8 PUSH2 0x550 JUMP JUMPDEST PUSH2 0x469 JUMP JUMPDEST PUSH2 0x542 JUMPI PUSH1 0x40 MLOAD PUSH32 0x8C379A000000000000000000000000000000000000000000000000000000000 DUP2 MSTORE PUSH1 0x4 ADD DUP1 DUP1 PUSH1 0x20 ADD DUP3 DUP2 SUB DUP3 MSTORE PUSH1 0x30 DUP2 MSTORE PUSH1 0x20 ADD DUP1 PUSH2 0x99E PUSH1 0x30 SWAP2 CODECOPY PUSH1 0x40 ADD SWAP2 POP POP PUSH1 0x40 MLOAD DUP1 SWAP2 SUB SWAP1 REVERT JUMPDEST PUSH2 0x54C DUP3 DUP3 PUSH2 0x5EB JUMP JUMPDEST POP POP JUMP JUMPDEST PUSH1 0x0 CALLER SWAP1 POP SWAP1 JUMP JUMPDEST PUSH2 0x57F DUP2 PUSH1 0x0 DUP1 DUP6 DUP2 MSTORE PUSH1 0x20 ADD SWAP1 DUP2 MSTORE PUSH1 0x20 ADD PUSH1 0x0 KECCAK256 PUSH1 0x0 ADD PUSH2 0x6DD SWAP1 SWAP2 SWAP1 PUSH4 0xFFFFFFFF AND JUMP JUMPDEST ISZERO PUSH2 0x5E7 JUMPI PUSH2 0x58C PUSH2 0x550 JUMP JUMPDEST PUSH20 0xFFFFFFFFFFFFFFFFFFFFFFFFFFFFFFFFFFFFFFFF AND DUP2 PUSH20 0xFFFFFFFFFFFFFFFFFFFFFFFFFFFFFFFFFFFFFFFF AND DUP4 PUSH32 0x2F8788117E7EFF1D82E926EC794901D17C78024A50270940304540A733656F0D PUSH1 0x40 MLOAD PUSH1 0x40 MLOAD DUP1 SWAP2 SUB SWAP1 LOG4 JUMPDEST POP POP JUMP JUMPDEST PUSH2 0x612 DUP2 PUSH1 0x0 DUP1 DUP6 DUP2 MSTORE PUSH1 0x20 ADD SWAP1 DUP2 MSTORE PUSH1 0x20 ADD PUSH1 0x0 KECCAK256 PUSH1 0x0 ADD PUSH2 0x70D SWAP1 SWAP2 SWAP1 PUSH4 0xFFFFFFFF AND JUMP JUMPDEST ISZERO PUSH2 0x67A JUMPI PUSH2 0x61F PUSH2 0x550 JUMP JUMPDEST PUSH20 0xFFFFFFFFFFFFFFFFFFFFFFFFFFFFFFFFFFFFFFFF AND DUP2 PUSH20 0xFFFFFFFFFFFFFFFFFFFFFFFFFFFFFFFFFFFFFFFF AND DUP4 PUSH32 0xF6391F5C32D9C69D2A47EA670B442974B53935D1EDC7FD64EB21E047A839171B PUSH1 0x40 MLOAD PUSH1 0x40 MLOAD DUP1 SWAP2 SUB SWAP1 LOG4 JUMPDEST POP POP JUMP JUMPDEST PUSH1 0x0 PUSH2 0x68D DUP4 PUSH1 0x0 ADD DUP4 PUSH2 0x73D JUMP JUMPDEST PUSH1 0x0 SHR SWAP1 POP SWAP3 SWAP2 POP POP JUMP JUMPDEST PUSH1 0x0 PUSH2 0x6C0 DUP4 PUSH1 0x0 ADD DUP4 PUSH20 0xFFFFFFFFFFFFFFFFFFFFFFFFFFFFFFFFFFFFFFFF AND PUSH1 0x0 SHL PUSH2 0x7C0 JUMP JUMPDEST SWAP1 POP SWAP3 SWAP2 POP POP JUMP JUMPDEST PUSH1 0x0 PUSH2 0x6D6 DUP3 PUSH1 0x0 ADD PUSH2 0x7E3 JUMP JUMPDEST SWAP1 POP SWAP2 SWAP1 POP JUMP JUMPDEST PUSH1 0x0 PUSH2 0x705 DUP4 PUSH1 0x0 ADD DUP4 PUSH20 0xFFFFFFFFFFFFFFFFFFFFFFFFFFFFFFFFFFFFFFFF AND PUSH1 0x0 SHL PUSH2 0x7F4 JUMP JUMPDEST SWAP1 POP SWAP3 SWAP2 POP POP JUMP JUMPDEST PUSH1 0x0 PUSH2 0x735 DUP4 PUSH1 0x0 ADD DUP4 PUSH20 0xFFFFFFFFFFFFFFFFFFFFFFFFFFFFFFFFFFFFFFFF AND PUSH1 0x0 SHL PUSH2 0x864 JUMP JUMPDEST SWAP1 POP SWAP3 SWAP2 POP POP JUMP JUMPDEST PUSH1 0x0 DUP2 DUP4 PUSH1 0x0 ADD DUP1 SLOAD SWAP1 POP GT PUSH2 0x79E JUMPI PUSH1 0x40 MLOAD PUSH32 0x8C379A000000000000000000000000000000000000000000000000000000000 DUP2 MSTORE PUSH1 0x4 ADD DUP1 DUP1 PUSH1 0x20 ADD DUP3 DUP2 SUB DUP3 MSTORE PUSH1 0x22 DUP2 MSTORE PUSH1 0x20 ADD DUP1 PUSH2 0x94D PUSH1 0x22 SWAP2 CODECOPY PUSH1 0x40 ADD SWAP2 POP POP PUSH1 0x40 MLOAD DUP1 SWAP2 SUB SWAP1 REVERT JUMPDEST DUP3 PUSH1 0x0 ADD DUP3 DUP2 SLOAD DUP2 LT PUSH2 0x7AD JUMPI INVALID JUMPDEST SWAP1 PUSH1 0x0 MSTORE PUSH1 0x20 PUSH1 0x0 KECCAK256 ADD SLOAD SWAP1 POP SWAP3 SWAP2 POP POP JUMP JUMPDEST PUSH1 0x0 DUP1 DUP4 PUSH1 0x1 ADD PUSH1 0x0 DUP5 DUP2 MSTORE PUSH1 0x20 ADD SWAP1 DUP2 MSTORE PUSH1 0x20 ADD PUSH1 0x0 KECCAK256 SLOAD EQ ISZERO SWAP1 POP SWAP3 SWAP2 POP POP JUMP JUMPDEST PUSH1 0x0 DUP2 PUSH1 0x0 ADD DUP1 SLOAD SWAP1 POP SWAP1 POP SWAP2 SWAP1 POP JUMP JUMPDEST PUSH1 0x0 PUSH2 0x800 DUP4 DUP4 PUSH2 0x7C0 JUMP JUMPDEST PUSH2 0x859 JUMPI DUP3 PUSH1 0x0 ADD DUP3 SWAP1 DUP1 PUSH1 0x1 DUP2 SLOAD ADD DUP1 DUP3 SSTORE DUP1 SWAP2 POP POP PUSH1 0x1 SWAP1 SUB SWAP1 PUSH1 0x0 MSTORE PUSH1 0x20 PUSH1 0x0 KECCAK256 ADD PUSH1 0x0 SWAP1 SWAP2 SWAP1 SWAP2 SWAP1 SWAP2 POP SSTORE DUP3 PUSH1 0x0 ADD DUP1 SLOAD SWAP1 POP DUP4 PUSH1 0x1 ADD PUSH1 0x0 DUP5 DUP2 MSTORE PUSH1 0x20 ADD SWAP1 DUP2 MSTORE PUSH1 0x20 ADD PUSH1 0x0 KECCAK256 DUP2 SWAP1 SSTORE POP PUSH1 0x1 SWAP1 POP PUSH2 0x85E JUMP JUMPDEST PUSH1 0x0 SWAP1 POP JUMPDEST SWAP3 SWAP2 POP POP JUMP JUMPDEST PUSH1 0x0 DUP1 DUP4 PUSH1 0x1 ADD PUSH1 0x0 DUP5 DUP2 MSTORE PUSH1 0x20 ADD SWAP1 DUP2 MSTORE PUSH1 0x20 ADD PUSH1 0x0 KECCAK256 SLOAD SWAP1 POP PUSH1 0x0 DUP2 EQ PUSH2 0x940 JUMPI PUSH1 0x0 PUSH1 0x1 DUP3 SUB SWAP1 POP PUSH1 0x0 PUSH1 0x1 DUP7 PUSH1 0x0 ADD DUP1 SLOAD SWAP1 POP SUB SWAP1 POP PUSH1 0x0 DUP7 PUSH1 0x0 ADD DUP3 DUP2 SLOAD DUP2 LT PUSH2 0x8AF JUMPI INVALID JUMPDEST SWAP1 PUSH1 0x0 MSTORE PUSH1 0x20 PUSH1 0x0 KECCAK256 ADD SLOAD SWAP1 POP DUP1 DUP8 PUSH1 0x0 ADD DUP5 DUP2 SLOAD DUP2 LT PUSH2 0x8CC JUMPI INVALID JUMPDEST SWAP1 PUSH1 0x0 MSTORE PUSH1 0x20 PUSH1 0x0 KECCAK256 ADD DUP2 SWAP1 SSTORE POP PUSH1 0x1 DUP4 ADD DUP8 PUSH1 0x1 ADD PUSH1 0x0 DUP4 DUP2 MSTORE PUSH1 0x20 ADD SWAP1 DUP2 MSTORE PUSH1 0x20 ADD PUSH1 0x0 KECCAK256 DUP2 SWAP1 SSTORE POP DUP7 PUSH1 0x0 ADD DUP1 SLOAD DUP1 PUSH2 0x904 JUMPI INVALID JUMPDEST PUSH1 0x1 SWAP1 SUB DUP2 DUP2 SWAP1 PUSH1 0x0 MSTORE PUSH1 0x20 PUSH1 0x0 KECCAK256 ADD PUSH1 0x0 SWAP1 SSTORE SWAP1 SSTORE DUP7 PUSH1 0x1 ADD PUSH1 0x0 DUP8 DUP2 MSTORE PUSH1 0x20 ADD SWAP1 DUP2 MSTORE PUSH1 0x20 ADD PUSH1 0x0 KECCAK256 PUSH1 0x0 SWAP1 SSTORE PUSH1 0x1 SWAP5 POP POP POP POP POP PUSH2 0x946 JUMP JUMPDEST PUSH1 0x0 SWAP2 POP POP JUMPDEST SWAP3 SWAP2 POP POP JUMP INVALID GASLIMIT PUSH15 0x756D657261626C655365743A20696E PUSH5 0x6578206F75 PUSH21 0x206F6620626F756E6473416363657373436F6E7472 PUSH16 0x6C3A2073656E646572206D7573742062 PUSH6 0x20616E206164 PUSH14 0x696E20746F206772616E74416363 PUSH6 0x7373436F6E74 PUSH19 0x6F6C3A2073656E646572206D75737420626520 PUSH2 0x6E20 PUSH2 0x646D PUSH10 0x6E20746F207265766F6B PUSH6 0x416363657373 NUMBER PUSH16 0x6E74726F6C3A2063616E206F6E6C7920 PUSH19 0x656E6F756E636520726F6C657320666F722073 PUSH6 0x6C66A2646970 PUSH7 0x73582212203637 0xC5 0xE2 SWAP7 0xBA SWAP16 0xDC LOG2 OR LOG0 RETURNDATASIZE LOG2 PUSH13 0xEBD8C1282699E692596838FEEB LOG3 KECCAK256 0xEE DUP1 0xBD PUSH5 0x736F6C6343 STOP MOD MOD STOP CALLER "
				},
				"gasEstimates": {
					"creation": {
						"codeDepositCost": "522000",
						"executionCost": "556",
						"totalCost": "522556"
					},
					"external": {
						"DEFAULT_ADMIN_ROLE()": "233",
						"getRoleAdmin(bytes32)": "1185",
						"getRoleMember(bytes32,uint256)": "infinite",
						"getRoleMemberCount(bytes32)": "1334",
						"grantRole(bytes32,address)": "infinite",
						"hasRole(bytes32,address)": "infinite",
						"renounceRole(bytes32,address)": "infinite",
						"revokeRole(bytes32,address)": "infinite"
					},
					"internal": {
						"_setupContractId(string memory)": "infinite"
					}
				},
				"methodIdentifiers": {
					"DEFAULT_ADMIN_ROLE()": "a217fddf",
					"getRoleAdmin(bytes32)": "248a9ca3",
					"getRoleMember(bytes32,uint256)": "9010d07c",
					"getRoleMemberCount(bytes32)": "ca15c873",
					"grantRole(bytes32,address)": "2f2ff15d",
					"hasRole(bytes32,address)": "91d14854",
					"renounceRole(bytes32,address)": "36568abe",
					"revokeRole(bytes32,address)": "d547741f"
				}
			},
			"storageLayout": {
				"storage": [
					{
						"astId": 1442,
						"contract": "contracts/polygonUsdt/Usdt-all-openzeppelin.sol:AccessControlMixin",
						"label": "_roles",
						"offset": 0,
						"slot": "0",
						"type": "t_mapping(t_bytes32,t_struct(RoleData)1438_storage)"
					},
					{
						"astId": 1707,
						"contract": "contracts/polygonUsdt/Usdt-all-openzeppelin.sol:AccessControlMixin",
						"label": "_revertMsg",
						"offset": 0,
						"slot": "1",
						"type": "t_string_storage"
					}
				],
				"types": {
					"t_array(t_bytes32)dyn_storage": {
						"base": "t_bytes32",
						"encoding": "dynamic_array",
						"label": "bytes32[]",
						"numberOfBytes": "32"
					},
					"t_bytes32": {
						"encoding": "inplace",
						"label": "bytes32",
						"numberOfBytes": "32"
					},
					"t_mapping(t_bytes32,t_struct(RoleData)1438_storage)": {
						"encoding": "mapping",
						"key": "t_bytes32",
						"label": "mapping(bytes32 => struct AccessControl.RoleData)",
						"numberOfBytes": "32",
						"value": "t_struct(RoleData)1438_storage"
					},
					"t_mapping(t_bytes32,t_uint256)": {
						"encoding": "mapping",
						"key": "t_bytes32",
						"label": "mapping(bytes32 => uint256)",
						"numberOfBytes": "32",
						"value": "t_uint256"
					},
					"t_string_storage": {
						"encoding": "bytes",
						"label": "string",
						"numberOfBytes": "32"
					},
					"t_struct(AddressSet)1219_storage": {
						"encoding": "inplace",
						"label": "struct EnumerableSet.AddressSet",
						"members": [
							{
								"astId": 1218,
								"contract": "contracts/polygonUsdt/Usdt-all-openzeppelin.sol:AccessControlMixin",
								"label": "_inner",
								"offset": 0,
								"slot": "0",
								"type": "t_struct(Set)1039_storage"
							}
						],
						"numberOfBytes": "64"
					},
					"t_struct(RoleData)1438_storage": {
						"encoding": "inplace",
						"label": "struct AccessControl.RoleData",
						"members": [
							{
								"astId": 1435,
								"contract": "contracts/polygonUsdt/Usdt-all-openzeppelin.sol:AccessControlMixin",
								"label": "members",
								"offset": 0,
								"slot": "0",
								"type": "t_struct(AddressSet)1219_storage"
							},
							{
								"astId": 1437,
								"contract": "contracts/polygonUsdt/Usdt-all-openzeppelin.sol:AccessControlMixin",
								"label": "adminRole",
								"offset": 0,
								"slot": "2",
								"type": "t_bytes32"
							}
						],
						"numberOfBytes": "96"
					},
					"t_struct(Set)1039_storage": {
						"encoding": "inplace",
						"label": "struct EnumerableSet.Set",
						"members": [
							{
								"astId": 1034,
								"contract": "contracts/polygonUsdt/Usdt-all-openzeppelin.sol:AccessControlMixin",
								"label": "_values",
								"offset": 0,
								"slot": "0",
								"type": "t_array(t_bytes32)dyn_storage"
							},
							{
								"astId": 1038,
								"contract": "contracts/polygonUsdt/Usdt-all-openzeppelin.sol:AccessControlMixin",
								"label": "_indexes",
								"offset": 0,
								"slot": "1",
								"type": "t_mapping(t_bytes32,t_uint256)"
							}
						],
						"numberOfBytes": "64"
					},
					"t_uint256": {
						"encoding": "inplace",
						"label": "uint256",
						"numberOfBytes": "32"
					}
				}
			},
			"userdoc": {
				"methods": {}
			}
		}
	}
}