{
	"contracts/polygonUsdt/Usdt-all-openzeppelin.sol": {
		"ERC20": {
			"abi": [
				{
					"inputs": [
						{
							"internalType": "string",
							"name": "name",
							"type": "string"
						},
						{
							"internalType": "string",
							"name": "symbol",
							"type": "string"
						}
					],
					"stateMutability": "nonpayable",
					"type": "constructor"
				},
				{
					"anonymous": false,
					"inputs": [
						{
							"indexed": true,
							"internalType": "address",
							"name": "owner",
							"type": "address"
						},
						{
							"indexed": true,
							"internalType": "address",
							"name": "spender",
							"type": "address"
						},
						{
							"indexed": false,
							"internalType": "uint256",
							"name": "value",
							"type": "uint256"
						}
					],
					"name": "Approval",
					"type": "event"
				},
				{
					"anonymous": false,
					"inputs": [
						{
							"indexed": true,
							"internalType": "address",
							"name": "from",
							"type": "address"
						},
						{
							"indexed": true,
							"internalType": "address",
							"name": "to",
							"type": "address"
						},
						{
							"indexed": false,
							"internalType": "uint256",
							"name": "value",
							"type": "uint256"
						}
					],
					"name": "Transfer",
					"type": "event"
				},
				{
					"inputs": [
						{
							"internalType": "address",
							"name": "owner",
							"type": "address"
						},
						{
							"internalType": "address",
							"name": "spender",
							"type": "address"
						}
					],
					"name": "allowance",
					"outputs": [
						{
							"internalType": "uint256",
							"name": "",
							"type": "uint256"
						}
					],
					"stateMutability": "view",
					"type": "function"
				},
				{
					"inputs": [
						{
							"internalType": "address",
							"name": "spender",
							"type": "address"
						},
						{
							"internalType": "uint256",
							"name": "amount",
							"type": "uint256"
						}
					],
					"name": "approve",
					"outputs": [
						{
							"internalType": "bool",
							"name": "",
							"type": "bool"
						}
					],
					"stateMutability": "nonpayable",
					"type": "function"
				},
				{
					"inputs": [
						{
							"internalType": "address",
							"name": "account",
							"type": "address"
						}
					],
					"name": "balanceOf",
					"outputs": [
						{
							"internalType": "uint256",
							"name": "",
							"type": "uint256"
						}
					],
					"stateMutability": "view",
					"type": "function"
				},
				{
					"inputs": [],
					"name": "decimals",
					"outputs": [
						{
							"internalType": "uint8",
							"name": "",
							"type": "uint8"
						}
					],
					"stateMutability": "view",
					"type": "function"
				},
				{
					"inputs": [
						{
							"internalType": "address",
							"name": "spender",
							"type": "address"
						},
						{
							"internalType": "uint256",
							"name": "subtractedValue",
							"type": "uint256"
						}
					],
					"name": "decreaseAllowance",
					"outputs": [
						{
							"internalType": "bool",
							"name": "",
							"type": "bool"
						}
					],
					"stateMutability": "nonpayable",
					"type": "function"
				},
				{
					"inputs": [
						{
							"internalType": "address",
							"name": "spender",
							"type": "address"
						},
						{
							"internalType": "uint256",
							"name": "addedValue",
							"type": "uint256"
						}
					],
					"name": "increaseAllowance",
					"outputs": [
						{
							"internalType": "bool",
							"name": "",
							"type": "bool"
						}
					],
					"stateMutability": "nonpayable",
					"type": "function"
				},
				{
					"inputs": [],
					"name": "name",
					"outputs": [
						{
							"internalType": "string",
							"name": "",
							"type": "string"
						}
					],
					"stateMutability": "view",
					"type": "function"
				},
				{
					"inputs": [],
					"name": "symbol",
					"outputs": [
						{
							"internalType": "string",
							"name": "",
							"type": "string"
						}
					],
					"stateMutability": "view",
					"type": "function"
				},
				{
					"inputs": [],
					"name": "totalSupply",
					"outputs": [
						{
							"internalType": "uint256",
							"name": "",
							"type": "uint256"
						}
					],
					"stateMutability": "view",
					"type": "function"
				},
				{
					"inputs": [
						{
							"internalType": "address",
							"name": "recipient",
							"type": "address"
						},
						{
							"internalType": "uint256",
							"name": "amount",
							"type": "uint256"
						}
					],
					"name": "transfer",
					"outputs": [
						{
							"internalType": "bool",
							"name": "",
							"type": "bool"
						}
					],
					"stateMutability": "nonpayable",
					"type": "function"
				},
				{
					"inputs": [
						{
							"internalType": "address",
							"name": "sender",
							"type": "address"
						},
						{
							"internalType": "address",
							"name": "recipient",
							"type": "address"
						},
						{
							"internalType": "uint256",
							"name": "amount",
							"type": "uint256"
						}
					],
					"name": "transferFrom",
					"outputs": [
						{
							"internalType": "bool",
							"name": "",
							"type": "bool"
						}
					],
					"stateMutability": "nonpayable",
					"type": "function"
				}
			],
			"devdoc": {
				"details": "openzeppelin Implementation of the {IERC20} interface. * Modified to add setters for name, symbol and decimals. This was needed because * This implementation is agnostic to the way tokens are created. This means that a supply mechanism has to be added in a derived contract using {_mint}. For a generic mechanism see {ERC20PresetMinterPauser}. * TIP: For a detailed writeup see our guide https://forum.zeppelin.solutions/t/how-to-implement-erc20-supply-mechanisms/226[How to implement supply mechanisms]. * We have followed general OpenZeppelin guidelines: functions revert instead of returning `false` on failure. This behavior is nonetheless conventional and does not conflict with the expectations of ERC20 applications. * Additionally, an {Approval} event is emitted on calls to {transferFrom}. This allows applications to reconstruct the allowance for all accounts just by listening to said events. Other implementations of the EIP may not emit these events, as it isn't required by the specification. * Finally, the non-standard {decreaseAllowance} and {increaseAllowance} functions have been added to mitigate the well-known issues around setting allowances. See {IERC20-approve}.",
				"methods": {
					"allowance(address,address)": {
						"details": "See {IERC20-allowance}."
					},
					"approve(address,uint256)": {
						"details": "See {IERC20-approve}.     * Requirements:     * - `spender` cannot be the zero address."
					},
					"balanceOf(address)": {
						"details": "See {IERC20-balanceOf}."
					},
					"constructor": {
						"details": "Sets the values for {name} and {symbol}, initializes {decimals} with a default value of 18.     * To select a different value for {decimals}, use {_setupDecimals}.     * All three of these values are immutable: they can only be set once during construction."
					},
					"decimals()": {
						"details": "Returns the number of decimals used to get its user representation. For example, if `decimals` equals `2`, a balance of `505` tokens should be displayed to a user as `5,05` (`505 / 10 ** 2`).     * Tokens usually opt for a value of 18, imitating the relationship between Ether and Wei. This is the value {ERC20} uses, unless {_setupDecimals} is called.     * NOTE: This information is only used for _display_ purposes: it in no way affects any of the arithmetic of the contract, including {IERC20-balanceOf} and {IERC20-transfer}."
					},
					"decreaseAllowance(address,uint256)": {
						"details": "Atomically decreases the allowance granted to `spender` by the caller.     * This is an alternative to {approve} that can be used as a mitigation for problems described in {IERC20-approve}.     * Emits an {Approval} event indicating the updated allowance.     * Requirements:     * - `spender` cannot be the zero address. - `spender` must have allowance for the caller of at least `subtractedValue`."
					},
					"increaseAllowance(address,uint256)": {
						"details": "Atomically increases the allowance granted to `spender` by the caller.     * This is an alternative to {approve} that can be used as a mitigation for problems described in {IERC20-approve}.     * Emits an {Approval} event indicating the updated allowance.     * Requirements:     * - `spender` cannot be the zero address."
					},
					"name()": {
						"details": "Returns the name of the token."
					},
					"symbol()": {
						"details": "Returns the symbol of the token, usually a shorter version of the name."
					},
					"totalSupply()": {
						"details": "See {IERC20-totalSupply}."
					},
					"transfer(address,uint256)": {
						"details": "See {IERC20-transfer}.     * Requirements:     * - `recipient` cannot be the zero address. - the caller must have a balance of at least `amount`."
					},
					"transferFrom(address,address,uint256)": {
						"details": "See {IERC20-transferFrom}.     * Emits an {Approval} event indicating the updated allowance. This is not required by the EIP. See the note at the beginning of {ERC20};     * Requirements: - `sender` and `recipient` cannot be the zero address. - `sender` must have a balance of at least `amount`. - the caller must have allowance for ``sender``'s tokens of at least `amount`."
					}
				}
			},
			"evm": {
				"assembly": "    /* \"contracts/polygonUsdt/Usdt-all-openzeppelin.sol\":16785:26502  contract ERC20 is Context, IERC20 {... */\n  mstore(0x40, 0x80)\n    /* \"contracts/polygonUsdt/Usdt-all-openzeppelin.sol\":17453:17594  constructor (string memory name, string memory symbol) public {... */\n  callvalue\n    /* \"--CODEGEN--\":5:14   */\n  dup1\n    /* \"--CODEGEN--\":2:4   */\n  iszero\n  tag_1\n  jumpi\n    /* \"--CODEGEN--\":27:28   */\n  0x00\n    /* \"--CODEGEN--\":24:25   */\n  dup1\n    /* \"--CODEGEN--\":17:29   */\n  revert\n    /* \"--CODEGEN--\":2:4   */\ntag_1:\n    /* \"contracts/polygonUsdt/Usdt-all-openzeppelin.sol\":17453:17594  constructor (string memory name, string memory symbol) public {... */\n  pop\n  mload(0x40)\n  sub(codesize, bytecodeSize)\n  dup1\n  bytecodeSize\n  dup4\n  codecopy\n  dup2\n  dup2\n  add\n  0x40\n  mstore\n    /* \"--CODEGEN--\":15:17   */\n  0x40\n    /* \"--CODEGEN--\":10:13   */\n  dup2\n    /* \"--CODEGEN--\":7:18   */\n  lt\n    /* \"--CODEGEN--\":4:6   */\n  iszero\n  tag_2\n  jumpi\n    /* \"--CODEGEN--\":31:32   */\n  0x00\n    /* \"--CODEGEN--\":28:29   */\n  dup1\n    /* \"--CODEGEN--\":21:33   */\n  revert\n    /* \"--CODEGEN--\":4:6   */\ntag_2:\n    /* \"contracts/polygonUsdt/Usdt-all-openzeppelin.sol\":17453:17594  constructor (string memory name, string memory symbol) public {... */\n  dup2\n  add\n  swap1\n  dup1\n  dup1\n  mload\n  mload(0x40)\n  swap4\n  swap3\n  swap2\n  swap1\n  dup5\n    /* \"--CODEGEN--\":19:30   */\n  0x0100000000\n    /* \"--CODEGEN--\":14:17   */\n  dup3\n    /* \"--CODEGEN--\":11:31   */\n  gt\n    /* \"--CODEGEN--\":8:10   */\n  iszero\n  tag_3\n  jumpi\n    /* \"--CODEGEN--\":44:45   */\n  0x00\n    /* \"--CODEGEN--\":41:42   */\n  dup1\n    /* \"--CODEGEN--\":34:46   */\n  revert\n    /* \"--CODEGEN--\":8:10   */\ntag_3:\n    /* \"--CODEGEN--\":71:82   */\n  dup4\n    /* \"--CODEGEN--\":66:69   */\n  dup3\n    /* \"--CODEGEN--\":62:83   */\n  add\n    /* \"--CODEGEN--\":55:83   */\n  swap2\n  pop\n    /* \"--CODEGEN--\":123:127   */\n  0x20\n    /* \"--CODEGEN--\":118:121   */\n  dup3\n    /* \"--CODEGEN--\":114:128   */\n  add\n    /* \"--CODEGEN--\":159:168   */\n  dup6\n    /* \"--CODEGEN--\":141:157   */\n  dup2\n    /* \"--CODEGEN--\":138:169   */\n  gt\n    /* \"--CODEGEN--\":135:137   */\n  iszero\n  tag_4\n  jumpi\n    /* \"--CODEGEN--\":182:183   */\n  0x00\n    /* \"--CODEGEN--\":179:180   */\n  dup1\n    /* \"--CODEGEN--\":172:184   */\n  revert\n    /* \"--CODEGEN--\":135:137   */\ntag_4:\n    /* \"--CODEGEN--\":219:222   */\n  dup3\n    /* \"--CODEGEN--\":213:223   */\n  mload\n    /* \"--CODEGEN--\":330:339   */\n  dup7\n    /* \"--CODEGEN--\":325:326   */\n  0x01\n    /* \"--CODEGEN--\":311:323   */\n  dup3\n    /* \"--CODEGEN--\":307:327   */\n  mul\n    /* \"--CODEGEN--\":289:305   */\n  dup4\n    /* \"--CODEGEN--\":285:328   */\n  add\n    /* \"--CODEGEN--\":282:340   */\n  gt\n    /* \"--CODEGEN--\":261:272   */\n  0x0100000000\n    /* \"--CODEGEN--\":247:259   */\n  dup3\n    /* \"--CODEGEN--\":244:273   */\n  gt\n    /* \"--CODEGEN--\":233:348   */\n  or\n    /* \"--CODEGEN--\":230:232   */\n  iszero\n  tag_5\n  jumpi\n    /* \"--CODEGEN--\":361:362   */\n  0x00\n    /* \"--CODEGEN--\":358:359   */\n  dup1\n    /* \"--CODEGEN--\":351:363   */\n  revert\n    /* \"--CODEGEN--\":230:232   */\ntag_5:\n    /* \"--CODEGEN--\":384:396   */\n  dup1\n    /* \"--CODEGEN--\":379:382   */\n  dup4\n    /* \"--CODEGEN--\":372:397   */\n  mstore\n    /* \"--CODEGEN--\":420:424   */\n  0x20\n    /* \"--CODEGEN--\":415:418   */\n  dup4\n    /* \"--CODEGEN--\":411:425   */\n  add\n    /* \"--CODEGEN--\":404:425   */\n  swap3\n  pop\n    /* \"--CODEGEN--\":0:432   */\n  pop\n  pop\n    /* \"contracts/polygonUsdt/Usdt-all-openzeppelin.sol\":17453:17594  constructor (string memory name, string memory symbol) public {... */\n  swap1\n  dup1\n  mload\n  swap1\n  0x20\n  add\n  swap1\n  dup1\n  dup4\n  dup4\n    /* \"--CODEGEN--\":23:24   */\n  0x00\n    /* \"--CODEGEN--\":8:108   */\ntag_6:\n    /* \"--CODEGEN--\":33:36   */\n  dup4\n    /* \"--CODEGEN--\":30:31   */\n  dup2\n    /* \"--CODEGEN--\":27:37   */\n  lt\n    /* \"--CODEGEN--\":8:108   */\n  iszero\n  tag_8\n  jumpi\n    /* \"--CODEGEN--\":99:100   */\n  dup1\n    /* \"--CODEGEN--\":94:97   */\n  dup3\n    /* \"--CODEGEN--\":90:101   */\n  add\n    /* \"--CODEGEN--\":84:102   */\n  mload\n    /* \"--CODEGEN--\":80:81   */\n  dup2\n    /* \"--CODEGEN--\":75:78   */\n  dup5\n    /* \"--CODEGEN--\":71:82   */\n  add\n    /* \"--CODEGEN--\":64:103   */\n  mstore\n    /* \"--CODEGEN--\":52:54   */\n  0x20\n    /* \"--CODEGEN--\":49:50   */\n  dup2\n    /* \"--CODEGEN--\":45:55   */\n  add\n    /* \"--CODEGEN--\":40:55   */\n  swap1\n  pop\n    /* \"--CODEGEN--\":8:108   */\n  jump(tag_6)\ntag_8:\n    /* \"--CODEGEN--\":12:26   */\n  pop\n    /* \"contracts/polygonUsdt/Usdt-all-openzeppelin.sol\":17453:17594  constructor (string memory name, string memory symbol) public {... */\n  pop\n  pop\n  pop\n  swap1\n  pop\n  swap1\n  dup2\n  add\n  swap1\n  0x1f\n  and\n  dup1\n  iszero\n  tag_9\n  jumpi\n  dup1\n  dup3\n  sub\n  dup1\n  mload\n  0x01\n  dup4\n  0x20\n  sub\n  0x0100\n  exp\n  sub\n  not\n  and\n  dup2\n  mstore\n  0x20\n  add\n  swap2\n  pop\ntag_9:\n  pop\n  0x40\n  mstore\n  0x20\n  add\n  dup1\n  mload\n  mload(0x40)\n  swap4\n  swap3\n  swap2\n  swap1\n  dup5\n    /* \"--CODEGEN--\":19:30   */\n  0x0100000000\n    /* \"--CODEGEN--\":14:17   */\n  dup3\n    /* \"--CODEGEN--\":11:31   */\n  gt\n    /* \"--CODEGEN--\":8:10   */\n  iszero\n  tag_10\n  jumpi\n    /* \"--CODEGEN--\":44:45   */\n  0x00\n    /* \"--CODEGEN--\":41:42   */\n  dup1\n    /* \"--CODEGEN--\":34:46   */\n  revert\n    /* \"--CODEGEN--\":8:10   */\ntag_10:\n    /* \"--CODEGEN--\":71:82   */\n  dup4\n    /* \"--CODEGEN--\":66:69   */\n  dup3\n    /* \"--CODEGEN--\":62:83   */\n  add\n    /* \"--CODEGEN--\":55:83   */\n  swap2\n  pop\n    /* \"--CODEGEN--\":123:127   */\n  0x20\n    /* \"--CODEGEN--\":118:121   */\n  dup3\n    /* \"--CODEGEN--\":114:128   */\n  add\n    /* \"--CODEGEN--\":159:168   */\n  dup6\n    /* \"--CODEGEN--\":141:157   */\n  dup2\n    /* \"--CODEGEN--\":138:169   */\n  gt\n    /* \"--CODEGEN--\":135:137   */\n  iszero\n  tag_11\n  jumpi\n    /* \"--CODEGEN--\":182:183   */\n  0x00\n    /* \"--CODEGEN--\":179:180   */\n  dup1\n    /* \"--CODEGEN--\":172:184   */\n  revert\n    /* \"--CODEGEN--\":135:137   */\ntag_11:\n    /* \"--CODEGEN--\":219:222   */\n  dup3\n    /* \"--CODEGEN--\":213:223   */\n  mload\n    /* \"--CODEGEN--\":330:339   */\n  dup7\n    /* \"--CODEGEN--\":325:326   */\n  0x01\n    /* \"--CODEGEN--\":311:323   */\n  dup3\n    /* \"--CODEGEN--\":307:327   */\n  mul\n    /* \"--CODEGEN--\":289:305   */\n  dup4\n    /* \"--CODEGEN--\":285:328   */\n  add\n    /* \"--CODEGEN--\":282:340   */\n  gt\n    /* \"--CODEGEN--\":261:272   */\n  0x0100000000\n    /* \"--CODEGEN--\":247:259   */\n  dup3\n    /* \"--CODEGEN--\":244:273   */\n  gt\n    /* \"--CODEGEN--\":233:348   */\n  or\n    /* \"--CODEGEN--\":230:232   */\n  iszero\n  tag_12\n  jumpi\n    /* \"--CODEGEN--\":361:362   */\n  0x00\n    /* \"--CODEGEN--\":358:359   */\n  dup1\n    /* \"--CODEGEN--\":351:363   */\n  revert\n    /* \"--CODEGEN--\":230:232   */\ntag_12:\n    /* \"--CODEGEN--\":384:396   */\n  dup1\n    /* \"--CODEGEN--\":379:382   */\n  dup4\n    /* \"--CODEGEN--\":372:397   */\n  mstore\n    /* \"--CODEGEN--\":420:424   */\n  0x20\n    /* \"--CODEGEN--\":415:418   */\n  dup4\n    /* \"--CODEGEN--\":411:425   */\n  add\n    /* \"--CODEGEN--\":404:425   */\n  swap3\n  pop\n    /* \"--CODEGEN--\":0:432   */\n  pop\n  pop\n    /* \"contracts/polygonUsdt/Usdt-all-openzeppelin.sol\":17453:17594  constructor (string memory name, string memory symbol) public {... */\n  swap1\n  dup1\n  mload\n  swap1\n  0x20\n  add\n  swap1\n  dup1\n  dup4\n  dup4\n    /* \"--CODEGEN--\":23:24   */\n  0x00\n    /* \"--CODEGEN--\":8:108   */\ntag_13:\n    /* \"--CODEGEN--\":33:36   */\n  dup4\n    /* \"--CODEGEN--\":30:31   */\n  dup2\n    /* \"--CODEGEN--\":27:37   */\n  lt\n    /* \"--CODEGEN--\":8:108   */\n  iszero\n  tag_15\n  jumpi\n    /* \"--CODEGEN--\":99:100   */\n  dup1\n    /* \"--CODEGEN--\":94:97   */\n  dup3\n    /* \"--CODEGEN--\":90:101   */\n  add\n    /* \"--CODEGEN--\":84:102   */\n  mload\n    /* \"--CODEGEN--\":80:81   */\n  dup2\n    /* \"--CODEGEN--\":75:78   */\n  dup5\n    /* \"--CODEGEN--\":71:82   */\n  add\n    /* \"--CODEGEN--\":64:103   */\n  mstore\n    /* \"--CODEGEN--\":52:54   */\n  0x20\n    /* \"--CODEGEN--\":49:50   */\n  dup2\n    /* \"--CODEGEN--\":45:55   */\n  add\n    /* \"--CODEGEN--\":40:55   */\n  swap1\n  pop\n    /* \"--CODEGEN--\":8:108   */\n  jump(tag_13)\ntag_15:\n    /* \"--CODEGEN--\":12:26   */\n  pop\n    /* \"contracts/polygonUsdt/Usdt-all-openzeppelin.sol\":17453:17594  constructor (string memory name, string memory symbol) public {... */\n  pop\n  pop\n  pop\n  swap1\n  pop\n  swap1\n  dup2\n  add\n  swap1\n  0x1f\n  and\n  dup1\n  iszero\n  tag_16\n  jumpi\n  dup1\n  dup3\n  sub\n  dup1\n  mload\n  0x01\n  dup4\n  0x20\n  sub\n  0x0100\n  exp\n  sub\n  not\n  and\n  dup2\n  mstore\n  0x20\n  add\n  swap2\n  pop\ntag_16:\n  pop\n  0x40\n  mstore\n  pop\n  pop\n  pop\n    /* \"contracts/polygonUsdt/Usdt-all-openzeppelin.sol\":17533:17537  name */\n  dup2\n    /* \"contracts/polygonUsdt/Usdt-all-openzeppelin.sol\":17525:17530  _name */\n  0x03\n    /* \"contracts/polygonUsdt/Usdt-all-openzeppelin.sol\":17525:17537  _name = name */\n  swap1\n  dup1\n  mload\n  swap1\n  0x20\n  add\n  swap1\n  tag_19\n  swap3\n  swap2\n  swap1\n  tag_20\n  jump\t// in\ntag_19:\n  pop\n    /* \"contracts/polygonUsdt/Usdt-all-openzeppelin.sol\":17557:17563  symbol */\n  dup1\n    /* \"contracts/polygonUsdt/Usdt-all-openzeppelin.sol\":17547:17554  _symbol */\n  0x04\n    /* \"contracts/polygonUsdt/Usdt-all-openzeppelin.sol\":17547:17563  _symbol = symbol */\n  swap1\n  dup1\n  mload\n  swap1\n  0x20\n  add\n  swap1\n  tag_21\n  swap3\n  swap2\n  swap1\n  tag_20\n  jump\t// in\ntag_21:\n  pop\n    /* \"contracts/polygonUsdt/Usdt-all-openzeppelin.sol\":17585:17587  18 */\n  0x12\n    /* \"contracts/polygonUsdt/Usdt-all-openzeppelin.sol\":17573:17582  _decimals */\n  0x05\n  0x00\n    /* \"contracts/polygonUsdt/Usdt-all-openzeppelin.sol\":17573:17587  _decimals = 18 */\n  0x0100\n  exp\n  dup2\n  sload\n  dup2\n  0xff\n  mul\n  not\n  and\n  swap1\n  dup4\n  0xff\n  and\n  mul\n  or\n  swap1\n  sstore\n  pop\n    /* \"contracts/polygonUsdt/Usdt-all-openzeppelin.sol\":17453:17594  constructor (string memory name, string memory symbol) public {... */\n  pop\n  pop\n    /* \"contracts/polygonUsdt/Usdt-all-openzeppelin.sol\":16785:26502  contract ERC20 is Context, IERC20 {... */\n  jump(tag_22)\ntag_20:\n  dup3\n  dup1\n  sload\n  0x01\n  dup2\n  0x01\n  and\n  iszero\n  0x0100\n  mul\n  sub\n  and\n  0x02\n  swap1\n  div\n  swap1\n  0x00\n  mstore\n  keccak256(0x00, 0x20)\n  swap1\n  0x1f\n  add\n  0x20\n  swap1\n  div\n  dup2\n  add\n  swap3\n  dup3\n  0x1f\n  lt\n  tag_24\n  jumpi\n  dup1\n  mload\n  not(0xff)\n  and\n  dup4\n  dup1\n  add\n  or\n  dup6\n  sstore\n  jump(tag_23)\ntag_24:\n  dup3\n  dup1\n  add\n  0x01\n  add\n  dup6\n  sstore\n  dup3\n  iszero\n  tag_23\n  jumpi\n  swap2\n  dup3\n  add\ntag_25:\n  dup3\n  dup2\n  gt\n  iszero\n  tag_26\n  jumpi\n  dup3\n  mload\n  dup3\n  sstore\n  swap2\n  0x20\n  add\n  swap2\n  swap1\n  0x01\n  add\n  swap1\n  jump(tag_25)\ntag_26:\ntag_23:\n  pop\n  swap1\n  pop\n  tag_27\n  swap2\n  swap1\n  tag_28\n  jump\t// in\ntag_27:\n  pop\n  swap1\n  jump\t// out\ntag_28:\n  tag_29\n  swap2\n  swap1\ntag_30:\n  dup1\n  dup3\n  gt\n  iszero\n  tag_31\n  jumpi\n  0x00\n  dup2\n  0x00\n  swap1\n  sstore\n  pop\n  0x01\n  add\n  jump(tag_30)\ntag_31:\n  pop\n  swap1\n  jump\ntag_29:\n  swap1\n  jump\t// out\ntag_22:\n  dataSize(sub_0)\n  dup1\n  dataOffset(sub_0)\n  0x00\n  codecopy\n  0x00\n  return\nstop\n\nsub_0: assembly {\n        /* \"contracts/polygonUsdt/Usdt-all-openzeppelin.sol\":16785:26502  contract ERC20 is Context, IERC20 {... */\n      mstore(0x40, 0x80)\n      callvalue\n        /* \"--CODEGEN--\":5:14   */\n      dup1\n        /* \"--CODEGEN--\":2:4   */\n      iszero\n      tag_1\n      jumpi\n        /* \"--CODEGEN--\":27:28   */\n      0x00\n        /* \"--CODEGEN--\":24:25   */\n      dup1\n        /* \"--CODEGEN--\":17:29   */\n      revert\n        /* \"--CODEGEN--\":2:4   */\n    tag_1:\n        /* \"contracts/polygonUsdt/Usdt-all-openzeppelin.sol\":16785:26502  contract ERC20 is Context, IERC20 {... */\n      pop\n      jumpi(tag_2, lt(calldatasize, 0x04))\n      shr(0xe0, calldataload(0x00))\n      dup1\n      0x39509351\n      gt\n      tag_14\n      jumpi\n      dup1\n      0x39509351\n      eq\n      tag_8\n      jumpi\n      dup1\n      0x70a08231\n      eq\n      tag_9\n      jumpi\n      dup1\n      0x95d89b41\n      eq\n      tag_10\n      jumpi\n      dup1\n      0xa457c2d7\n      eq\n      tag_11\n      jumpi\n      dup1\n      0xa9059cbb\n      eq\n      tag_12\n      jumpi\n      dup1\n      0xdd62ed3e\n      eq\n      tag_13\n      jumpi\n      jump(tag_2)\n    tag_14:\n      dup1\n      0x06fdde03\n      eq\n      tag_3\n      jumpi\n      dup1\n      0x095ea7b3\n      eq\n      tag_4\n      jumpi\n      dup1\n      0x18160ddd\n      eq\n      tag_5\n      jumpi\n      dup1\n      0x23b872dd\n      eq\n      tag_6\n      jumpi\n      dup1\n      0x313ce567\n      eq\n      tag_7\n      jumpi\n    tag_2:\n        /* \"--CODEGEN--\":12:13   */\n      0x00\n        /* \"--CODEGEN--\":9:10   */\n      dup1\n        /* \"--CODEGEN--\":2:14   */\n      revert\n        /* \"contracts/polygonUsdt/Usdt-all-openzeppelin.sol\":17659:17740  function name() public view returns (string memory) {... */\n    tag_3:\n      tag_15\n      tag_16\n      jump\t// in\n    tag_15:\n      mload(0x40)\n      dup1\n      dup1\n      0x20\n      add\n      dup3\n      dup2\n      sub\n      dup3\n      mstore\n      dup4\n      dup2\n      dup2\n      mload\n      dup2\n      mstore\n      0x20\n      add\n      swap2\n      pop\n      dup1\n      mload\n      swap1\n      0x20\n      add\n      swap1\n      dup1\n      dup4\n      dup4\n        /* \"--CODEGEN--\":23:24   */\n      0x00\n        /* \"--CODEGEN--\":8:108   */\n    tag_17:\n        /* \"--CODEGEN--\":33:36   */\n      dup4\n        /* \"--CODEGEN--\":30:31   */\n      dup2\n        /* \"--CODEGEN--\":27:37   */\n      lt\n        /* \"--CODEGEN--\":8:108   */\n      iszero\n      tag_19\n      jumpi\n        /* \"--CODEGEN--\":99:100   */\n      dup1\n        /* \"--CODEGEN--\":94:97   */\n      dup3\n        /* \"--CODEGEN--\":90:101   */\n      add\n        /* \"--CODEGEN--\":84:102   */\n      mload\n        /* \"--CODEGEN--\":80:81   */\n      dup2\n        /* \"--CODEGEN--\":75:78   */\n      dup5\n        /* \"--CODEGEN--\":71:82   */\n      add\n        /* \"--CODEGEN--\":64:103   */\n      mstore\n        /* \"--CODEGEN--\":52:54   */\n      0x20\n        /* \"--CODEGEN--\":49:50   */\n      dup2\n        /* \"--CODEGEN--\":45:55   */\n      add\n        /* \"--CODEGEN--\":40:55   */\n      swap1\n      pop\n        /* \"--CODEGEN--\":8:108   */\n      jump(tag_17)\n    tag_19:\n        /* \"--CODEGEN--\":12:26   */\n      pop\n        /* \"contracts/polygonUsdt/Usdt-all-openzeppelin.sol\":17659:17740  function name() public view returns (string memory) {... */\n      pop\n      pop\n      pop\n      swap1\n      pop\n      swap1\n      dup2\n      add\n      swap1\n      0x1f\n      and\n      dup1\n      iszero\n      tag_20\n      jumpi\n      dup1\n      dup3\n      sub\n      dup1\n      mload\n      0x01\n      dup4\n      0x20\n      sub\n      0x0100\n      exp\n      sub\n      not\n      and\n      dup2\n      mstore\n      0x20\n      add\n      swap2\n      pop\n    tag_20:\n      pop\n      swap3\n      pop\n      pop\n      pop\n      mload(0x40)\n      dup1\n      swap2\n      sub\n      swap1\n      return\n        /* \"contracts/polygonUsdt/Usdt-all-openzeppelin.sol\":19966:20132  function approve(address spender, uint256 amount) public virtual override returns (bool) {... */\n    tag_4:\n      tag_21\n      0x04\n      dup1\n      calldatasize\n      sub\n        /* \"--CODEGEN--\":15:17   */\n      0x40\n        /* \"--CODEGEN--\":10:13   */\n      dup2\n        /* \"--CODEGEN--\":7:18   */\n      lt\n        /* \"--CODEGEN--\":4:6   */\n      iszero\n      tag_22\n      jumpi\n        /* \"--CODEGEN--\":31:32   */\n      0x00\n        /* \"--CODEGEN--\":28:29   */\n      dup1\n        /* \"--CODEGEN--\":21:33   */\n      revert\n        /* \"--CODEGEN--\":4:6   */\n    tag_22:\n        /* \"contracts/polygonUsdt/Usdt-all-openzeppelin.sol\":19966:20132  function approve(address spender, uint256 amount) public virtual override returns (bool) {... */\n      dup2\n      add\n      swap1\n      dup1\n      dup1\n      calldataload\n      0xffffffffffffffffffffffffffffffffffffffff\n      and\n      swap1\n      0x20\n      add\n      swap1\n      swap3\n      swap2\n      swap1\n      dup1\n      calldataload\n      swap1\n      0x20\n      add\n      swap1\n      swap3\n      swap2\n      swap1\n      pop\n      pop\n      pop\n      tag_23\n      jump\t// in\n    tag_21:\n      mload(0x40)\n      dup1\n      dup3\n      iszero\n      iszero\n      iszero\n      iszero\n      dup2\n      mstore\n      0x20\n      add\n      swap2\n      pop\n      pop\n      mload(0x40)\n      dup1\n      swap2\n      sub\n      swap1\n      return\n        /* \"contracts/polygonUsdt/Usdt-all-openzeppelin.sol\":18973:19071  function totalSupply() public view override returns (uint256) {... */\n    tag_5:\n      tag_24\n      tag_25\n      jump\t// in\n    tag_24:\n      mload(0x40)\n      dup1\n      dup3\n      dup2\n      mstore\n      0x20\n      add\n      swap2\n      pop\n      pop\n      mload(0x40)\n      dup1\n      swap2\n      sub\n      swap1\n      return\n        /* \"contracts/polygonUsdt/Usdt-all-openzeppelin.sol\":20592:20909  function transferFrom(address sender, address recipient, uint256 amount) public virtual override returns (bool) {... */\n    tag_6:\n      tag_26\n      0x04\n      dup1\n      calldatasize\n      sub\n        /* \"--CODEGEN--\":15:17   */\n      0x60\n        /* \"--CODEGEN--\":10:13   */\n      dup2\n        /* \"--CODEGEN--\":7:18   */\n      lt\n        /* \"--CODEGEN--\":4:6   */\n      iszero\n      tag_27\n      jumpi\n        /* \"--CODEGEN--\":31:32   */\n      0x00\n        /* \"--CODEGEN--\":28:29   */\n      dup1\n        /* \"--CODEGEN--\":21:33   */\n      revert\n        /* \"--CODEGEN--\":4:6   */\n    tag_27:\n        /* \"contracts/polygonUsdt/Usdt-all-openzeppelin.sol\":20592:20909  function transferFrom(address sender, address recipient, uint256 amount) public virtual override returns (bool) {... */\n      dup2\n      add\n      swap1\n      dup1\n      dup1\n      calldataload\n      0xffffffffffffffffffffffffffffffffffffffff\n      and\n      swap1\n      0x20\n      add\n      swap1\n      swap3\n      swap2\n      swap1\n      dup1\n      calldataload\n      0xffffffffffffffffffffffffffffffffffffffff\n      and\n      swap1\n      0x20\n      add\n      swap1\n      swap3\n      swap2\n      swap1\n      dup1\n      calldataload\n      swap1\n      0x20\n      add\n      swap1\n      swap3\n      swap2\n      swap1\n      pop\n      pop\n      pop\n      tag_28\n      jump\t// in\n    tag_26:\n      mload(0x40)\n      dup1\n      dup3\n      iszero\n      iszero\n      iszero\n      iszero\n      dup2\n      mstore\n      0x20\n      add\n      swap2\n      pop\n      pop\n      mload(0x40)\n      dup1\n      swap2\n      sub\n      swap1\n      return\n        /* \"contracts/polygonUsdt/Usdt-all-openzeppelin.sol\":18739:18820  function decimals() public view returns (uint8) {... */\n    tag_7:\n      tag_29\n      tag_30\n      jump\t// in\n    tag_29:\n      mload(0x40)\n      dup1\n      dup3\n      0xff\n      and\n      0xff\n      and\n      dup2\n      mstore\n      0x20\n      add\n      swap2\n      pop\n      pop\n      mload(0x40)\n      dup1\n      swap2\n      sub\n      swap1\n      return\n        /* \"contracts/polygonUsdt/Usdt-all-openzeppelin.sol\":21304:21519  function increaseAllowance(address spender, uint256 addedValue) public virtual returns (bool) {... */\n    tag_8:\n      tag_31\n      0x04\n      dup1\n      calldatasize\n      sub\n        /* \"--CODEGEN--\":15:17   */\n      0x40\n        /* \"--CODEGEN--\":10:13   */\n      dup2\n        /* \"--CODEGEN--\":7:18   */\n      lt\n        /* \"--CODEGEN--\":4:6   */\n      iszero\n      tag_32\n      jumpi\n        /* \"--CODEGEN--\":31:32   */\n      0x00\n        /* \"--CODEGEN--\":28:29   */\n      dup1\n        /* \"--CODEGEN--\":21:33   */\n      revert\n        /* \"--CODEGEN--\":4:6   */\n    tag_32:\n        /* \"contracts/polygonUsdt/Usdt-all-openzeppelin.sol\":21304:21519  function increaseAllowance(address spender, uint256 addedValue) public virtual returns (bool) {... */\n      dup2\n      add\n      swap1\n      dup1\n      dup1\n      calldataload\n      0xffffffffffffffffffffffffffffffffffffffff\n      and\n      swap1\n      0x20\n      add\n      swap1\n      swap3\n      swap2\n      swap1\n      dup1\n      calldataload\n      swap1\n      0x20\n      add\n      swap1\n      swap3\n      swap2\n      swap1\n      pop\n      pop\n      pop\n      tag_33\n      jump\t// in\n    tag_31:\n      mload(0x40)\n      dup1\n      dup3\n      iszero\n      iszero\n      iszero\n      iszero\n      dup2\n      mstore\n      0x20\n      add\n      swap2\n      pop\n      pop\n      mload(0x40)\n      dup1\n      swap2\n      sub\n      swap1\n      return\n        /* \"contracts/polygonUsdt/Usdt-all-openzeppelin.sol\":19129:19246  function balanceOf(address account) public view override returns (uint256) {... */\n    tag_9:\n      tag_34\n      0x04\n      dup1\n      calldatasize\n      sub\n        /* \"--CODEGEN--\":15:17   */\n      0x20\n        /* \"--CODEGEN--\":10:13   */\n      dup2\n        /* \"--CODEGEN--\":7:18   */\n      lt\n        /* \"--CODEGEN--\":4:6   */\n      iszero\n      tag_35\n      jumpi\n        /* \"--CODEGEN--\":31:32   */\n      0x00\n        /* \"--CODEGEN--\":28:29   */\n      dup1\n        /* \"--CODEGEN--\":21:33   */\n      revert\n        /* \"--CODEGEN--\":4:6   */\n    tag_35:\n        /* \"contracts/polygonUsdt/Usdt-all-openzeppelin.sol\":19129:19246  function balanceOf(address account) public view override returns (uint256) {... */\n      dup2\n      add\n      swap1\n      dup1\n      dup1\n      calldataload\n      0xffffffffffffffffffffffffffffffffffffffff\n      and\n      swap1\n      0x20\n      add\n      swap1\n      swap3\n      swap2\n      swap1\n      pop\n      pop\n      pop\n      tag_36\n      jump\t// in\n    tag_34:\n      mload(0x40)\n      dup1\n      dup3\n      dup2\n      mstore\n      0x20\n      add\n      swap2\n      pop\n      pop\n      mload(0x40)\n      dup1\n      swap2\n      sub\n      swap1\n      return\n        /* \"contracts/polygonUsdt/Usdt-all-openzeppelin.sol\":17938:18023  function symbol() public view returns (string memory) {... */\n    tag_10:\n      tag_37\n      tag_38\n      jump\t// in\n    tag_37:\n      mload(0x40)\n      dup1\n      dup1\n      0x20\n      add\n      dup3\n      dup2\n      sub\n      dup3\n      mstore\n      dup4\n      dup2\n      dup2\n      mload\n      dup2\n      mstore\n      0x20\n      add\n      swap2\n      pop\n      dup1\n      mload\n      swap1\n      0x20\n      add\n      swap1\n      dup1\n      dup4\n      dup4\n        /* \"--CODEGEN--\":23:24   */\n      0x00\n        /* \"--CODEGEN--\":8:108   */\n    tag_39:\n        /* \"--CODEGEN--\":33:36   */\n      dup4\n        /* \"--CODEGEN--\":30:31   */\n      dup2\n        /* \"--CODEGEN--\":27:37   */\n      lt\n        /* \"--CODEGEN--\":8:108   */\n      iszero\n      tag_41\n      jumpi\n        /* \"--CODEGEN--\":99:100   */\n      dup1\n        /* \"--CODEGEN--\":94:97   */\n      dup3\n        /* \"--CODEGEN--\":90:101   */\n      add\n        /* \"--CODEGEN--\":84:102   */\n      mload\n        /* \"--CODEGEN--\":80:81   */\n      dup2\n        /* \"--CODEGEN--\":75:78   */\n      dup5\n        /* \"--CODEGEN--\":71:82   */\n      add\n        /* \"--CODEGEN--\":64:103   */\n      mstore\n        /* \"--CODEGEN--\":52:54   */\n      0x20\n        /* \"--CODEGEN--\":49:50   */\n      dup2\n        /* \"--CODEGEN--\":45:55   */\n      add\n        /* \"--CODEGEN--\":40:55   */\n      swap1\n      pop\n        /* \"--CODEGEN--\":8:108   */\n      jump(tag_39)\n    tag_41:\n        /* \"--CODEGEN--\":12:26   */\n      pop\n        /* \"contracts/polygonUsdt/Usdt-all-openzeppelin.sol\":17938:18023  function symbol() public view returns (string memory) {... */\n      pop\n      pop\n      pop\n      swap1\n      pop\n      swap1\n      dup2\n      add\n      swap1\n      0x1f\n      and\n      dup1\n      iszero\n      tag_42\n      jumpi\n      dup1\n      dup3\n      sub\n      dup1\n      mload\n      0x01\n      dup4\n      0x20\n      sub\n      0x0100\n      exp\n      sub\n      not\n      and\n      dup2\n      mstore\n      0x20\n      add\n      swap2\n      pop\n    tag_42:\n      pop\n      swap3\n      pop\n      pop\n      pop\n      mload(0x40)\n      dup1\n      swap2\n      sub\n      swap1\n      return\n        /* \"contracts/polygonUsdt/Usdt-all-openzeppelin.sol\":22006:22272  function decreaseAllowance(address spender, uint256 subtractedValue) public virtual returns (bool) {... */\n    tag_11:\n      tag_43\n      0x04\n      dup1\n      calldatasize\n      sub\n        /* \"--CODEGEN--\":15:17   */\n      0x40\n        /* \"--CODEGEN--\":10:13   */\n      dup2\n        /* \"--CODEGEN--\":7:18   */\n      lt\n        /* \"--CODEGEN--\":4:6   */\n      iszero\n      tag_44\n      jumpi\n        /* \"--CODEGEN--\":31:32   */\n      0x00\n        /* \"--CODEGEN--\":28:29   */\n      dup1\n        /* \"--CODEGEN--\":21:33   */\n      revert\n        /* \"--CODEGEN--\":4:6   */\n    tag_44:\n        /* \"contracts/polygonUsdt/Usdt-all-openzeppelin.sol\":22006:22272  function decreaseAllowance(address spender, uint256 subtractedValue) public virtual returns (bool) {... */\n      dup2\n      add\n      swap1\n      dup1\n      dup1\n      calldataload\n      0xffffffffffffffffffffffffffffffffffffffff\n      and\n      swap1\n      0x20\n      add\n      swap1\n      swap3\n      swap2\n      swap1\n      dup1\n      calldataload\n      swap1\n      0x20\n      add\n      swap1\n      swap3\n      swap2\n      swap1\n      pop\n      pop\n      pop\n      tag_45\n      jump\t// in\n    tag_43:\n      mload(0x40)\n      dup1\n      dup3\n      iszero\n      iszero\n      iszero\n      iszero\n      dup2\n      mstore\n      0x20\n      add\n      swap2\n      pop\n      pop\n      mload(0x40)\n      dup1\n      swap2\n      sub\n      swap1\n      return\n        /* \"contracts/polygonUsdt/Usdt-all-openzeppelin.sol\":19449:19621  function transfer(address recipient, uint256 amount) public virtual override returns (bool) {... */\n    tag_12:\n      tag_46\n      0x04\n      dup1\n      calldatasize\n      sub\n        /* \"--CODEGEN--\":15:17   */\n      0x40\n        /* \"--CODEGEN--\":10:13   */\n      dup2\n        /* \"--CODEGEN--\":7:18   */\n      lt\n        /* \"--CODEGEN--\":4:6   */\n      iszero\n      tag_47\n      jumpi\n        /* \"--CODEGEN--\":31:32   */\n      0x00\n        /* \"--CODEGEN--\":28:29   */\n      dup1\n        /* \"--CODEGEN--\":21:33   */\n      revert\n        /* \"--CODEGEN--\":4:6   */\n    tag_47:\n        /* \"contracts/polygonUsdt/Usdt-all-openzeppelin.sol\":19449:19621  function transfer(address recipient, uint256 amount) public virtual override returns (bool) {... */\n      dup2\n      add\n      swap1\n      dup1\n      dup1\n      calldataload\n      0xffffffffffffffffffffffffffffffffffffffff\n      and\n      swap1\n      0x20\n      add\n      swap1\n      swap3\n      swap2\n      swap1\n      dup1\n      calldataload\n      swap1\n      0x20\n      add\n      swap1\n      swap3\n      swap2\n      swap1\n      pop\n      pop\n      pop\n      tag_48\n      jump\t// in\n    tag_46:\n      mload(0x40)\n      dup1\n      dup3\n      iszero\n      iszero\n      iszero\n      iszero\n      dup2\n      mstore\n      0x20\n      add\n      swap2\n      pop\n      pop\n      mload(0x40)\n      dup1\n      swap2\n      sub\n      swap1\n      return\n        /* \"contracts/polygonUsdt/Usdt-all-openzeppelin.sol\":19679:19828  function allowance(address owner, address spender) public view virtual override returns (uint256) {... */\n    tag_13:\n      tag_49\n      0x04\n      dup1\n      calldatasize\n      sub\n        /* \"--CODEGEN--\":15:17   */\n      0x40\n        /* \"--CODEGEN--\":10:13   */\n      dup2\n        /* \"--CODEGEN--\":7:18   */\n      lt\n        /* \"--CODEGEN--\":4:6   */\n      iszero\n      tag_50\n      jumpi\n        /* \"--CODEGEN--\":31:32   */\n      0x00\n        /* \"--CODEGEN--\":28:29   */\n      dup1\n        /* \"--CODEGEN--\":21:33   */\n      revert\n        /* \"--CODEGEN--\":4:6   */\n    tag_50:\n        /* \"contracts/polygonUsdt/Usdt-all-openzeppelin.sol\":19679:19828  function allowance(address owner, address spender) public view virtual override returns (uint256) {... */\n      dup2\n      add\n      swap1\n      dup1\n      dup1\n      calldataload\n      0xffffffffffffffffffffffffffffffffffffffff\n      and\n      swap1\n      0x20\n      add\n      swap1\n      swap3\n      swap2\n      swap1\n      dup1\n      calldataload\n      0xffffffffffffffffffffffffffffffffffffffff\n      and\n      swap1\n      0x20\n      add\n      swap1\n      swap3\n      swap2\n      swap1\n      pop\n      pop\n      pop\n      tag_51\n      jump\t// in\n    tag_49:\n      mload(0x40)\n      dup1\n      dup3\n      dup2\n      mstore\n      0x20\n      add\n      swap2\n      pop\n      pop\n      mload(0x40)\n      dup1\n      swap2\n      sub\n      swap1\n      return\n        /* \"contracts/polygonUsdt/Usdt-all-openzeppelin.sol\":17659:17740  function name() public view returns (string memory) {... */\n    tag_16:\n        /* \"contracts/polygonUsdt/Usdt-all-openzeppelin.sol\":17696:17709  string memory */\n      0x60\n        /* \"contracts/polygonUsdt/Usdt-all-openzeppelin.sol\":17728:17733  _name */\n      0x03\n        /* \"contracts/polygonUsdt/Usdt-all-openzeppelin.sol\":17721:17733  return _name */\n      dup1\n      sload\n      0x01\n      dup2\n      0x01\n      and\n      iszero\n      0x0100\n      mul\n      sub\n      and\n      0x02\n      swap1\n      div\n      dup1\n      0x1f\n      add\n      0x20\n      dup1\n      swap2\n      div\n      mul\n      0x20\n      add\n      mload(0x40)\n      swap1\n      dup2\n      add\n      0x40\n      mstore\n      dup1\n      swap3\n      swap2\n      swap1\n      dup2\n      dup2\n      mstore\n      0x20\n      add\n      dup3\n      dup1\n      sload\n      0x01\n      dup2\n      0x01\n      and\n      iszero\n      0x0100\n      mul\n      sub\n      and\n      0x02\n      swap1\n      div\n      dup1\n      iszero\n      tag_53\n      jumpi\n      dup1\n      0x1f\n      lt\n      tag_54\n      jumpi\n      0x0100\n      dup1\n      dup4\n      sload\n      div\n      mul\n      dup4\n      mstore\n      swap2\n      0x20\n      add\n      swap2\n      jump(tag_53)\n    tag_54:\n      dup3\n      add\n      swap2\n      swap1\n      0x00\n      mstore\n      keccak256(0x00, 0x20)\n      swap1\n    tag_55:\n      dup2\n      sload\n      dup2\n      mstore\n      swap1\n      0x01\n      add\n      swap1\n      0x20\n      add\n      dup1\n      dup4\n      gt\n      tag_55\n      jumpi\n      dup3\n      swap1\n      sub\n      0x1f\n      and\n      dup3\n      add\n      swap2\n    tag_53:\n      pop\n      pop\n      pop\n      pop\n      pop\n      swap1\n      pop\n        /* \"contracts/polygonUsdt/Usdt-all-openzeppelin.sol\":17659:17740  function name() public view returns (string memory) {... */\n      swap1\n      jump\t// out\n        /* \"contracts/polygonUsdt/Usdt-all-openzeppelin.sol\":19966:20132  function approve(address spender, uint256 amount) public virtual override returns (bool) {... */\n    tag_23:\n        /* \"contracts/polygonUsdt/Usdt-all-openzeppelin.sol\":20049:20053  bool */\n      0x00\n        /* \"contracts/polygonUsdt/Usdt-all-openzeppelin.sol\":20065:20104  _approve(_msgSender(), spender, amount) */\n      tag_57\n        /* \"contracts/polygonUsdt/Usdt-all-openzeppelin.sol\":20074:20086  _msgSender() */\n      tag_58\n        /* \"contracts/polygonUsdt/Usdt-all-openzeppelin.sol\":20074:20084  _msgSender */\n      tag_59\n        /* \"contracts/polygonUsdt/Usdt-all-openzeppelin.sol\":20074:20086  _msgSender() */\n      jump\t// in\n    tag_58:\n        /* \"contracts/polygonUsdt/Usdt-all-openzeppelin.sol\":20088:20095  spender */\n      dup5\n        /* \"contracts/polygonUsdt/Usdt-all-openzeppelin.sol\":20097:20103  amount */\n      dup5\n        /* \"contracts/polygonUsdt/Usdt-all-openzeppelin.sol\":20065:20073  _approve */\n      tag_60\n        /* \"contracts/polygonUsdt/Usdt-all-openzeppelin.sol\":20065:20104  _approve(_msgSender(), spender, amount) */\n      jump\t// in\n    tag_57:\n        /* \"contracts/polygonUsdt/Usdt-all-openzeppelin.sol\":20121:20125  true */\n      0x01\n        /* \"contracts/polygonUsdt/Usdt-all-openzeppelin.sol\":20114:20125  return true */\n      swap1\n      pop\n        /* \"contracts/polygonUsdt/Usdt-all-openzeppelin.sol\":19966:20132  function approve(address spender, uint256 amount) public virtual override returns (bool) {... */\n      swap3\n      swap2\n      pop\n      pop\n      jump\t// out\n        /* \"contracts/polygonUsdt/Usdt-all-openzeppelin.sol\":18973:19071  function totalSupply() public view override returns (uint256) {... */\n    tag_25:\n        /* \"contracts/polygonUsdt/Usdt-all-openzeppelin.sol\":19026:19033  uint256 */\n      0x00\n        /* \"contracts/polygonUsdt/Usdt-all-openzeppelin.sol\":19052:19064  _totalSupply */\n      sload(0x02)\n        /* \"contracts/polygonUsdt/Usdt-all-openzeppelin.sol\":19045:19064  return _totalSupply */\n      swap1\n      pop\n        /* \"contracts/polygonUsdt/Usdt-all-openzeppelin.sol\":18973:19071  function totalSupply() public view override returns (uint256) {... */\n      swap1\n      jump\t// out\n        /* \"contracts/polygonUsdt/Usdt-all-openzeppelin.sol\":20592:20909  function transferFrom(address sender, address recipient, uint256 amount) public virtual override returns (bool) {... */\n    tag_28:\n        /* \"contracts/polygonUsdt/Usdt-all-openzeppelin.sol\":20698:20702  bool */\n      0x00\n        /* \"contracts/polygonUsdt/Usdt-all-openzeppelin.sol\":20714:20750  _transfer(sender, recipient, amount) */\n      tag_63\n        /* \"contracts/polygonUsdt/Usdt-all-openzeppelin.sol\":20724:20730  sender */\n      dup5\n        /* \"contracts/polygonUsdt/Usdt-all-openzeppelin.sol\":20732:20741  recipient */\n      dup5\n        /* \"contracts/polygonUsdt/Usdt-all-openzeppelin.sol\":20743:20749  amount */\n      dup5\n        /* \"contracts/polygonUsdt/Usdt-all-openzeppelin.sol\":20714:20723  _transfer */\n      tag_64\n        /* \"contracts/polygonUsdt/Usdt-all-openzeppelin.sol\":20714:20750  _transfer(sender, recipient, amount) */\n      jump\t// in\n    tag_63:\n        /* \"contracts/polygonUsdt/Usdt-all-openzeppelin.sol\":20760:20881  _approve(sender, _msgSender(), _allowances[sender][_msgSender()].sub(amount, \"ERC20: transfer amount exceeds allowance\")) */\n      tag_65\n        /* \"contracts/polygonUsdt/Usdt-all-openzeppelin.sol\":20769:20775  sender */\n      dup5\n        /* \"contracts/polygonUsdt/Usdt-all-openzeppelin.sol\":20777:20789  _msgSender() */\n      tag_66\n        /* \"contracts/polygonUsdt/Usdt-all-openzeppelin.sol\":20777:20787  _msgSender */\n      tag_59\n        /* \"contracts/polygonUsdt/Usdt-all-openzeppelin.sol\":20777:20789  _msgSender() */\n      jump\t// in\n    tag_66:\n        /* \"contracts/polygonUsdt/Usdt-all-openzeppelin.sol\":20791:20880  _allowances[sender][_msgSender()].sub(amount, \"ERC20: transfer amount exceeds allowance\") */\n      tag_67\n        /* \"contracts/polygonUsdt/Usdt-all-openzeppelin.sol\":20829:20835  amount */\n      dup6\n        /* \"contracts/polygonUsdt/Usdt-all-openzeppelin.sol\":20791:20880  _allowances[sender][_msgSender()].sub(amount, \"ERC20: transfer amount exceeds allowance\") */\n      mload(0x40)\n      dup1\n      0x60\n      add\n      0x40\n      mstore\n      dup1\n      0x28\n      dup2\n      mstore\n      0x20\n      add\n      data_974d1b4421da69cc60b481194f0dad36a5bb4e23da810da7a7fb30cdba178330\n      0x28\n      swap2\n      codecopy\n        /* \"contracts/polygonUsdt/Usdt-all-openzeppelin.sol\":20791:20802  _allowances */\n      0x01\n        /* \"contracts/polygonUsdt/Usdt-all-openzeppelin.sol\":20791:20810  _allowances[sender] */\n      0x00\n        /* \"contracts/polygonUsdt/Usdt-all-openzeppelin.sol\":20803:20809  sender */\n      dup12\n        /* \"contracts/polygonUsdt/Usdt-all-openzeppelin.sol\":20791:20810  _allowances[sender] */\n      0xffffffffffffffffffffffffffffffffffffffff\n      and\n      0xffffffffffffffffffffffffffffffffffffffff\n      and\n      dup2\n      mstore\n      0x20\n      add\n      swap1\n      dup2\n      mstore\n      0x20\n      add\n      0x00\n      keccak256\n        /* \"contracts/polygonUsdt/Usdt-all-openzeppelin.sol\":20791:20824  _allowances[sender][_msgSender()] */\n      0x00\n        /* \"contracts/polygonUsdt/Usdt-all-openzeppelin.sol\":20811:20823  _msgSender() */\n      tag_68\n        /* \"contracts/polygonUsdt/Usdt-all-openzeppelin.sol\":20811:20821  _msgSender */\n      tag_59\n        /* \"contracts/polygonUsdt/Usdt-all-openzeppelin.sol\":20811:20823  _msgSender() */\n      jump\t// in\n    tag_68:\n        /* \"contracts/polygonUsdt/Usdt-all-openzeppelin.sol\":20791:20824  _allowances[sender][_msgSender()] */\n      0xffffffffffffffffffffffffffffffffffffffff\n      and\n      0xffffffffffffffffffffffffffffffffffffffff\n      and\n      dup2\n      mstore\n      0x20\n      add\n      swap1\n      dup2\n      mstore\n      0x20\n      add\n      0x00\n      keccak256\n      sload\n        /* \"contracts/polygonUsdt/Usdt-all-openzeppelin.sol\":20791:20828  _allowances[sender][_msgSender()].sub */\n      tag_69\n      swap1\n        /* \"contracts/polygonUsdt/Usdt-all-openzeppelin.sol\":20791:20880  _allowances[sender][_msgSender()].sub(amount, \"ERC20: transfer amount exceeds allowance\") */\n      swap3\n      swap2\n      swap1\n      0xffffffff\n      and\n      jump\t// in\n    tag_67:\n        /* \"contracts/polygonUsdt/Usdt-all-openzeppelin.sol\":20760:20768  _approve */\n      tag_60\n        /* \"contracts/polygonUsdt/Usdt-all-openzeppelin.sol\":20760:20881  _approve(sender, _msgSender(), _allowances[sender][_msgSender()].sub(amount, \"ERC20: transfer amount exceeds allowance\")) */\n      jump\t// in\n    tag_65:\n        /* \"contracts/polygonUsdt/Usdt-all-openzeppelin.sol\":20898:20902  true */\n      0x01\n        /* \"contracts/polygonUsdt/Usdt-all-openzeppelin.sol\":20891:20902  return true */\n      swap1\n      pop\n        /* \"contracts/polygonUsdt/Usdt-all-openzeppelin.sol\":20592:20909  function transferFrom(address sender, address recipient, uint256 amount) public virtual override returns (bool) {... */\n      swap4\n      swap3\n      pop\n      pop\n      pop\n      jump\t// out\n        /* \"contracts/polygonUsdt/Usdt-all-openzeppelin.sol\":18739:18820  function decimals() public view returns (uint8) {... */\n    tag_30:\n        /* \"contracts/polygonUsdt/Usdt-all-openzeppelin.sol\":18780:18785  uint8 */\n      0x00\n        /* \"contracts/polygonUsdt/Usdt-all-openzeppelin.sol\":18804:18813  _decimals */\n      0x05\n      0x00\n      swap1\n      sload\n      swap1\n      0x0100\n      exp\n      swap1\n      div\n      0xff\n      and\n        /* \"contracts/polygonUsdt/Usdt-all-openzeppelin.sol\":18797:18813  return _decimals */\n      swap1\n      pop\n        /* \"contracts/polygonUsdt/Usdt-all-openzeppelin.sol\":18739:18820  function decimals() public view returns (uint8) {... */\n      swap1\n      jump\t// out\n        /* \"contracts/polygonUsdt/Usdt-all-openzeppelin.sol\":21304:21519  function increaseAllowance(address spender, uint256 addedValue) public virtual returns (bool) {... */\n    tag_33:\n        /* \"contracts/polygonUsdt/Usdt-all-openzeppelin.sol\":21392:21396  bool */\n      0x00\n        /* \"contracts/polygonUsdt/Usdt-all-openzeppelin.sol\":21408:21491  _approve(_msgSender(), spender, _allowances[_msgSender()][spender].add(addedValue)) */\n      tag_72\n        /* \"contracts/polygonUsdt/Usdt-all-openzeppelin.sol\":21417:21429  _msgSender() */\n      tag_73\n        /* \"contracts/polygonUsdt/Usdt-all-openzeppelin.sol\":21417:21427  _msgSender */\n      tag_59\n        /* \"contracts/polygonUsdt/Usdt-all-openzeppelin.sol\":21417:21429  _msgSender() */\n      jump\t// in\n    tag_73:\n        /* \"contracts/polygonUsdt/Usdt-all-openzeppelin.sol\":21431:21438  spender */\n      dup5\n        /* \"contracts/polygonUsdt/Usdt-all-openzeppelin.sol\":21440:21490  _allowances[_msgSender()][spender].add(addedValue) */\n      tag_74\n        /* \"contracts/polygonUsdt/Usdt-all-openzeppelin.sol\":21479:21489  addedValue */\n      dup6\n        /* \"contracts/polygonUsdt/Usdt-all-openzeppelin.sol\":21440:21451  _allowances */\n      0x01\n        /* \"contracts/polygonUsdt/Usdt-all-openzeppelin.sol\":21440:21465  _allowances[_msgSender()] */\n      0x00\n        /* \"contracts/polygonUsdt/Usdt-all-openzeppelin.sol\":21452:21464  _msgSender() */\n      tag_75\n        /* \"contracts/polygonUsdt/Usdt-all-openzeppelin.sol\":21452:21462  _msgSender */\n      tag_59\n        /* \"contracts/polygonUsdt/Usdt-all-openzeppelin.sol\":21452:21464  _msgSender() */\n      jump\t// in\n    tag_75:\n        /* \"contracts/polygonUsdt/Usdt-all-openzeppelin.sol\":21440:21465  _allowances[_msgSender()] */\n      0xffffffffffffffffffffffffffffffffffffffff\n      and\n      0xffffffffffffffffffffffffffffffffffffffff\n      and\n      dup2\n      mstore\n      0x20\n      add\n      swap1\n      dup2\n      mstore\n      0x20\n      add\n      0x00\n      keccak256\n        /* \"contracts/polygonUsdt/Usdt-all-openzeppelin.sol\":21440:21474  _allowances[_msgSender()][spender] */\n      0x00\n        /* \"contracts/polygonUsdt/Usdt-all-openzeppelin.sol\":21466:21473  spender */\n      dup10\n        /* \"contracts/polygonUsdt/Usdt-all-openzeppelin.sol\":21440:21474  _allowances[_msgSender()][spender] */\n      0xffffffffffffffffffffffffffffffffffffffff\n      and\n      0xffffffffffffffffffffffffffffffffffffffff\n      and\n      dup2\n      mstore\n      0x20\n      add\n      swap1\n      dup2\n      mstore\n      0x20\n      add\n      0x00\n      keccak256\n      sload\n        /* \"contracts/polygonUsdt/Usdt-all-openzeppelin.sol\":21440:21478  _allowances[_msgSender()][spender].add */\n      tag_76\n      swap1\n        /* \"contracts/polygonUsdt/Usdt-all-openzeppelin.sol\":21440:21490  _allowances[_msgSender()][spender].add(addedValue) */\n      swap2\n      swap1\n      0xffffffff\n      and\n      jump\t// in\n    tag_74:\n        /* \"contracts/polygonUsdt/Usdt-all-openzeppelin.sol\":21408:21416  _approve */\n      tag_60\n        /* \"contracts/polygonUsdt/Usdt-all-openzeppelin.sol\":21408:21491  _approve(_msgSender(), spender, _allowances[_msgSender()][spender].add(addedValue)) */\n      jump\t// in\n    tag_72:\n        /* \"contracts/polygonUsdt/Usdt-all-openzeppelin.sol\":21508:21512  true */\n      0x01\n        /* \"contracts/polygonUsdt/Usdt-all-openzeppelin.sol\":21501:21512  return true */\n      swap1\n      pop\n        /* \"contracts/polygonUsdt/Usdt-all-openzeppelin.sol\":21304:21519  function increaseAllowance(address spender, uint256 addedValue) public virtual returns (bool) {... */\n      swap3\n      swap2\n      pop\n      pop\n      jump\t// out\n        /* \"contracts/polygonUsdt/Usdt-all-openzeppelin.sol\":19129:19246  function balanceOf(address account) public view override returns (uint256) {... */\n    tag_36:\n        /* \"contracts/polygonUsdt/Usdt-all-openzeppelin.sol\":19195:19202  uint256 */\n      0x00\n        /* \"contracts/polygonUsdt/Usdt-all-openzeppelin.sol\":19221:19230  _balances */\n      dup1\n        /* \"contracts/polygonUsdt/Usdt-all-openzeppelin.sol\":19221:19239  _balances[account] */\n      0x00\n        /* \"contracts/polygonUsdt/Usdt-all-openzeppelin.sol\":19231:19238  account */\n      dup4\n        /* \"contracts/polygonUsdt/Usdt-all-openzeppelin.sol\":19221:19239  _balances[account] */\n      0xffffffffffffffffffffffffffffffffffffffff\n      and\n      0xffffffffffffffffffffffffffffffffffffffff\n      and\n      dup2\n      mstore\n      0x20\n      add\n      swap1\n      dup2\n      mstore\n      0x20\n      add\n      0x00\n      keccak256\n      sload\n        /* \"contracts/polygonUsdt/Usdt-all-openzeppelin.sol\":19214:19239  return _balances[account] */\n      swap1\n      pop\n        /* \"contracts/polygonUsdt/Usdt-all-openzeppelin.sol\":19129:19246  function balanceOf(address account) public view override returns (uint256) {... */\n      swap2\n      swap1\n      pop\n      jump\t// out\n        /* \"contracts/polygonUsdt/Usdt-all-openzeppelin.sol\":17938:18023  function symbol() public view returns (string memory) {... */\n    tag_38:\n        /* \"contracts/polygonUsdt/Usdt-all-openzeppelin.sol\":17977:17990  string memory */\n      0x60\n        /* \"contracts/polygonUsdt/Usdt-all-openzeppelin.sol\":18009:18016  _symbol */\n      0x04\n        /* \"contracts/polygonUsdt/Usdt-all-openzeppelin.sol\":18002:18016  return _symbol */\n      dup1\n      sload\n      0x01\n      dup2\n      0x01\n      and\n      iszero\n      0x0100\n      mul\n      sub\n      and\n      0x02\n      swap1\n      div\n      dup1\n      0x1f\n      add\n      0x20\n      dup1\n      swap2\n      div\n      mul\n      0x20\n      add\n      mload(0x40)\n      swap1\n      dup2\n      add\n      0x40\n      mstore\n      dup1\n      swap3\n      swap2\n      swap1\n      dup2\n      dup2\n      mstore\n      0x20\n      add\n      dup3\n      dup1\n      sload\n      0x01\n      dup2\n      0x01\n      and\n      iszero\n      0x0100\n      mul\n      sub\n      and\n      0x02\n      swap1\n      div\n      dup1\n      iszero\n      tag_79\n      jumpi\n      dup1\n      0x1f\n      lt\n      tag_80\n      jumpi\n      0x0100\n      dup1\n      dup4\n      sload\n      div\n      mul\n      dup4\n      mstore\n      swap2\n      0x20\n      add\n      swap2\n      jump(tag_79)\n    tag_80:\n      dup3\n      add\n      swap2\n      swap1\n      0x00\n      mstore\n      keccak256(0x00, 0x20)\n      swap1\n    tag_81:\n      dup2\n      sload\n      dup2\n      mstore\n      swap1\n      0x01\n      add\n      swap1\n      0x20\n      add\n      dup1\n      dup4\n      gt\n      tag_81\n      jumpi\n      dup3\n      swap1\n      sub\n      0x1f\n      and\n      dup3\n      add\n      swap2\n    tag_79:\n      pop\n      pop\n      pop\n      pop\n      pop\n      swap1\n      pop\n        /* \"contracts/polygonUsdt/Usdt-all-openzeppelin.sol\":17938:18023  function symbol() public view returns (string memory) {... */\n      swap1\n      jump\t// out\n        /* \"contracts/polygonUsdt/Usdt-all-openzeppelin.sol\":22006:22272  function decreaseAllowance(address spender, uint256 subtractedValue) public virtual returns (bool) {... */\n    tag_45:\n        /* \"contracts/polygonUsdt/Usdt-all-openzeppelin.sol\":22099:22103  bool */\n      0x00\n        /* \"contracts/polygonUsdt/Usdt-all-openzeppelin.sol\":22115:22244  _approve(_msgSender(), spender, _allowances[_msgSender()][spender].sub(subtractedValue, \"ERC20: decreased allowance below zero\")) */\n      tag_83\n        /* \"contracts/polygonUsdt/Usdt-all-openzeppelin.sol\":22124:22136  _msgSender() */\n      tag_84\n        /* \"contracts/polygonUsdt/Usdt-all-openzeppelin.sol\":22124:22134  _msgSender */\n      tag_59\n        /* \"contracts/polygonUsdt/Usdt-all-openzeppelin.sol\":22124:22136  _msgSender() */\n      jump\t// in\n    tag_84:\n        /* \"contracts/polygonUsdt/Usdt-all-openzeppelin.sol\":22138:22145  spender */\n      dup5\n        /* \"contracts/polygonUsdt/Usdt-all-openzeppelin.sol\":22147:22243  _allowances[_msgSender()][spender].sub(subtractedValue, \"ERC20: decreased allowance below zero\") */\n      tag_85\n        /* \"contracts/polygonUsdt/Usdt-all-openzeppelin.sol\":22186:22201  subtractedValue */\n      dup6\n        /* \"contracts/polygonUsdt/Usdt-all-openzeppelin.sol\":22147:22243  _allowances[_msgSender()][spender].sub(subtractedValue, \"ERC20: decreased allowance below zero\") */\n      mload(0x40)\n      dup1\n      0x60\n      add\n      0x40\n      mstore\n      dup1\n      0x25\n      dup2\n      mstore\n      0x20\n      add\n      data_f8b476f7d28209d77d4a4ac1fe36b9f8259aa1bb6bddfa6e89de7e51615cf8a8\n      0x25\n      swap2\n      codecopy\n        /* \"contracts/polygonUsdt/Usdt-all-openzeppelin.sol\":22147:22158  _allowances */\n      0x01\n        /* \"contracts/polygonUsdt/Usdt-all-openzeppelin.sol\":22147:22172  _allowances[_msgSender()] */\n      0x00\n        /* \"contracts/polygonUsdt/Usdt-all-openzeppelin.sol\":22159:22171  _msgSender() */\n      tag_86\n        /* \"contracts/polygonUsdt/Usdt-all-openzeppelin.sol\":22159:22169  _msgSender */\n      tag_59\n        /* \"contracts/polygonUsdt/Usdt-all-openzeppelin.sol\":22159:22171  _msgSender() */\n      jump\t// in\n    tag_86:\n        /* \"contracts/polygonUsdt/Usdt-all-openzeppelin.sol\":22147:22172  _allowances[_msgSender()] */\n      0xffffffffffffffffffffffffffffffffffffffff\n      and\n      0xffffffffffffffffffffffffffffffffffffffff\n      and\n      dup2\n      mstore\n      0x20\n      add\n      swap1\n      dup2\n      mstore\n      0x20\n      add\n      0x00\n      keccak256\n        /* \"contracts/polygonUsdt/Usdt-all-openzeppelin.sol\":22147:22181  _allowances[_msgSender()][spender] */\n      0x00\n        /* \"contracts/polygonUsdt/Usdt-all-openzeppelin.sol\":22173:22180  spender */\n      dup11\n        /* \"contracts/polygonUsdt/Usdt-all-openzeppelin.sol\":22147:22181  _allowances[_msgSender()][spender] */\n      0xffffffffffffffffffffffffffffffffffffffff\n      and\n      0xffffffffffffffffffffffffffffffffffffffff\n      and\n      dup2\n      mstore\n      0x20\n      add\n      swap1\n      dup2\n      mstore\n      0x20\n      add\n      0x00\n      keccak256\n      sload\n        /* \"contracts/polygonUsdt/Usdt-all-openzeppelin.sol\":22147:22185  _allowances[_msgSender()][spender].sub */\n      tag_69\n      swap1\n        /* \"contracts/polygonUsdt/Usdt-all-openzeppelin.sol\":22147:22243  _allowances[_msgSender()][spender].sub(subtractedValue, \"ERC20: decreased allowance below zero\") */\n      swap3\n      swap2\n      swap1\n      0xffffffff\n      and\n      jump\t// in\n    tag_85:\n        /* \"contracts/polygonUsdt/Usdt-all-openzeppelin.sol\":22115:22123  _approve */\n      tag_60\n        /* \"contracts/polygonUsdt/Usdt-all-openzeppelin.sol\":22115:22244  _approve(_msgSender(), spender, _allowances[_msgSender()][spender].sub(subtractedValue, \"ERC20: decreased allowance below zero\")) */\n      jump\t// in\n    tag_83:\n        /* \"contracts/polygonUsdt/Usdt-all-openzeppelin.sol\":22261:22265  true */\n      0x01\n        /* \"contracts/polygonUsdt/Usdt-all-openzeppelin.sol\":22254:22265  return true */\n      swap1\n      pop\n        /* \"contracts/polygonUsdt/Usdt-all-openzeppelin.sol\":22006:22272  function decreaseAllowance(address spender, uint256 subtractedValue) public virtual returns (bool) {... */\n      swap3\n      swap2\n      pop\n      pop\n      jump\t// out\n        /* \"contracts/polygonUsdt/Usdt-all-openzeppelin.sol\":19449:19621  function transfer(address recipient, uint256 amount) public virtual override returns (bool) {... */\n    tag_48:\n        /* \"contracts/polygonUsdt/Usdt-all-openzeppelin.sol\":19535:19539  bool */\n      0x00\n        /* \"contracts/polygonUsdt/Usdt-all-openzeppelin.sol\":19551:19593  _transfer(_msgSender(), recipient, amount) */\n      tag_88\n        /* \"contracts/polygonUsdt/Usdt-all-openzeppelin.sol\":19561:19573  _msgSender() */\n      tag_89\n        /* \"contracts/polygonUsdt/Usdt-all-openzeppelin.sol\":19561:19571  _msgSender */\n      tag_59\n        /* \"contracts/polygonUsdt/Usdt-all-openzeppelin.sol\":19561:19573  _msgSender() */\n      jump\t// in\n    tag_89:\n        /* \"contracts/polygonUsdt/Usdt-all-openzeppelin.sol\":19575:19584  recipient */\n      dup5\n        /* \"contracts/polygonUsdt/Usdt-all-openzeppelin.sol\":19586:19592  amount */\n      dup5\n        /* \"contracts/polygonUsdt/Usdt-all-openzeppelin.sol\":19551:19560  _transfer */\n      tag_64\n        /* \"contracts/polygonUsdt/Usdt-all-openzeppelin.sol\":19551:19593  _transfer(_msgSender(), recipient, amount) */\n      jump\t// in\n    tag_88:\n        /* \"contracts/polygonUsdt/Usdt-all-openzeppelin.sol\":19610:19614  true */\n      0x01\n        /* \"contracts/polygonUsdt/Usdt-all-openzeppelin.sol\":19603:19614  return true */\n      swap1\n      pop\n        /* \"contracts/polygonUsdt/Usdt-all-openzeppelin.sol\":19449:19621  function transfer(address recipient, uint256 amount) public virtual override returns (bool) {... */\n      swap3\n      swap2\n      pop\n      pop\n      jump\t// out\n        /* \"contracts/polygonUsdt/Usdt-all-openzeppelin.sol\":19679:19828  function allowance(address owner, address spender) public view virtual override returns (uint256) {... */\n    tag_51:\n        /* \"contracts/polygonUsdt/Usdt-all-openzeppelin.sol\":19768:19775  uint256 */\n      0x00\n        /* \"contracts/polygonUsdt/Usdt-all-openzeppelin.sol\":19794:19805  _allowances */\n      0x01\n        /* \"contracts/polygonUsdt/Usdt-all-openzeppelin.sol\":19794:19812  _allowances[owner] */\n      0x00\n        /* \"contracts/polygonUsdt/Usdt-all-openzeppelin.sol\":19806:19811  owner */\n      dup5\n        /* \"contracts/polygonUsdt/Usdt-all-openzeppelin.sol\":19794:19812  _allowances[owner] */\n      0xffffffffffffffffffffffffffffffffffffffff\n      and\n      0xffffffffffffffffffffffffffffffffffffffff\n      and\n      dup2\n      mstore\n      0x20\n      add\n      swap1\n      dup2\n      mstore\n      0x20\n      add\n      0x00\n      keccak256\n        /* \"contracts/polygonUsdt/Usdt-all-openzeppelin.sol\":19794:19821  _allowances[owner][spender] */\n      0x00\n        /* \"contracts/polygonUsdt/Usdt-all-openzeppelin.sol\":19813:19820  spender */\n      dup4\n        /* \"contracts/polygonUsdt/Usdt-all-openzeppelin.sol\":19794:19821  _allowances[owner][spender] */\n      0xffffffffffffffffffffffffffffffffffffffff\n      and\n      0xffffffffffffffffffffffffffffffffffffffff\n      and\n      dup2\n      mstore\n      0x20\n      add\n      swap1\n      dup2\n      mstore\n      0x20\n      add\n      0x00\n      keccak256\n      sload\n        /* \"contracts/polygonUsdt/Usdt-all-openzeppelin.sol\":19787:19821  return _allowances[owner][spender] */\n      swap1\n      pop\n        /* \"contracts/polygonUsdt/Usdt-all-openzeppelin.sol\":19679:19828  function allowance(address owner, address spender) public view virtual override returns (uint256) {... */\n      swap3\n      swap2\n      pop\n      pop\n      jump\t// out\n        /* \"contracts/polygonUsdt/Usdt-all-openzeppelin.sol\":712:816  function _msgSender() internal view virtual returns (address payable) {... */\n    tag_59:\n        /* \"contracts/polygonUsdt/Usdt-all-openzeppelin.sol\":765:780  address payable */\n      0x00\n        /* \"contracts/polygonUsdt/Usdt-all-openzeppelin.sol\":799:809  msg.sender */\n      caller\n        /* \"contracts/polygonUsdt/Usdt-all-openzeppelin.sol\":792:809  return msg.sender */\n      swap1\n      pop\n        /* \"contracts/polygonUsdt/Usdt-all-openzeppelin.sol\":712:816  function _msgSender() internal view virtual returns (address payable) {... */\n      swap1\n      jump\t// out\n        /* \"contracts/polygonUsdt/Usdt-all-openzeppelin.sol\":25070:25410  function _approve(address owner, address spender, uint256 amount) internal virtual {... */\n    tag_60:\n        /* \"contracts/polygonUsdt/Usdt-all-openzeppelin.sol\":25188:25189  0 */\n      0x00\n        /* \"contracts/polygonUsdt/Usdt-all-openzeppelin.sol\":25171:25190  owner != address(0) */\n      0xffffffffffffffffffffffffffffffffffffffff\n      and\n        /* \"contracts/polygonUsdt/Usdt-all-openzeppelin.sol\":25171:25176  owner */\n      dup4\n        /* \"contracts/polygonUsdt/Usdt-all-openzeppelin.sol\":25171:25190  owner != address(0) */\n      0xffffffffffffffffffffffffffffffffffffffff\n      and\n      eq\n      iszero\n        /* \"contracts/polygonUsdt/Usdt-all-openzeppelin.sol\":25163:25231  require(owner != address(0), \"ERC20: approve from the zero address\") */\n      tag_93\n      jumpi\n      mload(0x40)\n      0x08c379a000000000000000000000000000000000000000000000000000000000\n      dup2\n      mstore\n      0x04\n      add\n      dup1\n      dup1\n      0x20\n      add\n      dup3\n      dup2\n      sub\n      dup3\n      mstore\n      0x24\n      dup2\n      mstore\n      0x20\n      add\n      dup1\n      data_c953f4879035ed60e766b34720f656aab5c697b141d924c283124ecedb91c208\n      0x24\n      swap2\n      codecopy\n      0x40\n      add\n      swap2\n      pop\n      pop\n      mload(0x40)\n      dup1\n      swap2\n      sub\n      swap1\n      revert\n    tag_93:\n        /* \"contracts/polygonUsdt/Usdt-all-openzeppelin.sol\":25268:25269  0 */\n      0x00\n        /* \"contracts/polygonUsdt/Usdt-all-openzeppelin.sol\":25249:25270  spender != address(0) */\n      0xffffffffffffffffffffffffffffffffffffffff\n      and\n        /* \"contracts/polygonUsdt/Usdt-all-openzeppelin.sol\":25249:25256  spender */\n      dup3\n        /* \"contracts/polygonUsdt/Usdt-all-openzeppelin.sol\":25249:25270  spender != address(0) */\n      0xffffffffffffffffffffffffffffffffffffffff\n      and\n      eq\n      iszero\n        /* \"contracts/polygonUsdt/Usdt-all-openzeppelin.sol\":25241:25309  require(spender != address(0), \"ERC20: approve to the zero address\") */\n      tag_94\n      jumpi\n      mload(0x40)\n      0x08c379a000000000000000000000000000000000000000000000000000000000\n      dup2\n      mstore\n      0x04\n      add\n      dup1\n      dup1\n      0x20\n      add\n      dup3\n      dup2\n      sub\n      dup3\n      mstore\n      0x22\n      dup2\n      mstore\n      0x20\n      add\n      dup1\n      data_24883cc5fe64ace9d0df1893501ecb93c77180f0ff69cca79affb3c316dc8029\n      0x22\n      swap2\n      codecopy\n      0x40\n      add\n      swap2\n      pop\n      pop\n      mload(0x40)\n      dup1\n      swap2\n      sub\n      swap1\n      revert\n    tag_94:\n        /* \"contracts/polygonUsdt/Usdt-all-openzeppelin.sol\":25350:25356  amount */\n      dup1\n        /* \"contracts/polygonUsdt/Usdt-all-openzeppelin.sol\":25320:25331  _allowances */\n      0x01\n        /* \"contracts/polygonUsdt/Usdt-all-openzeppelin.sol\":25320:25338  _allowances[owner] */\n      0x00\n        /* \"contracts/polygonUsdt/Usdt-all-openzeppelin.sol\":25332:25337  owner */\n      dup6\n        /* \"contracts/polygonUsdt/Usdt-all-openzeppelin.sol\":25320:25338  _allowances[owner] */\n      0xffffffffffffffffffffffffffffffffffffffff\n      and\n      0xffffffffffffffffffffffffffffffffffffffff\n      and\n      dup2\n      mstore\n      0x20\n      add\n      swap1\n      dup2\n      mstore\n      0x20\n      add\n      0x00\n      keccak256\n        /* \"contracts/polygonUsdt/Usdt-all-openzeppelin.sol\":25320:25347  _allowances[owner][spender] */\n      0x00\n        /* \"contracts/polygonUsdt/Usdt-all-openzeppelin.sol\":25339:25346  spender */\n      dup5\n        /* \"contracts/polygonUsdt/Usdt-all-openzeppelin.sol\":25320:25347  _allowances[owner][spender] */\n      0xffffffffffffffffffffffffffffffffffffffff\n      and\n      0xffffffffffffffffffffffffffffffffffffffff\n      and\n      dup2\n      mstore\n      0x20\n      add\n      swap1\n      dup2\n      mstore\n      0x20\n      add\n      0x00\n      keccak256\n        /* \"contracts/polygonUsdt/Usdt-all-openzeppelin.sol\":25320:25356  _allowances[owner][spender] = amount */\n      dup2\n      swap1\n      sstore\n      pop\n        /* \"contracts/polygonUsdt/Usdt-all-openzeppelin.sol\":25387:25394  spender */\n      dup2\n        /* \"contracts/polygonUsdt/Usdt-all-openzeppelin.sol\":25371:25403  Approval(owner, spender, amount) */\n      0xffffffffffffffffffffffffffffffffffffffff\n      and\n        /* \"contracts/polygonUsdt/Usdt-all-openzeppelin.sol\":25380:25385  owner */\n      dup4\n        /* \"contracts/polygonUsdt/Usdt-all-openzeppelin.sol\":25371:25403  Approval(owner, spender, amount) */\n      0xffffffffffffffffffffffffffffffffffffffff\n      and\n      0x8c5be1e5ebec7d5bd14f71427d1e84f3dd0314c0f7b2291e5b200ac8c7c3b925\n        /* \"contracts/polygonUsdt/Usdt-all-openzeppelin.sol\":25396:25402  amount */\n      dup4\n        /* \"contracts/polygonUsdt/Usdt-all-openzeppelin.sol\":25371:25403  Approval(owner, spender, amount) */\n      mload(0x40)\n      dup1\n      dup3\n      dup2\n      mstore\n      0x20\n      add\n      swap2\n      pop\n      pop\n      mload(0x40)\n      dup1\n      swap2\n      sub\n      swap1\n      log3\n        /* \"contracts/polygonUsdt/Usdt-all-openzeppelin.sol\":25070:25410  function _approve(address owner, address spender, uint256 amount) internal virtual {... */\n      pop\n      pop\n      pop\n      jump\t// out\n        /* \"contracts/polygonUsdt/Usdt-all-openzeppelin.sol\":22746:23276  function _transfer(address sender, address recipient, uint256 amount) internal virtual {... */\n    tag_64:\n        /* \"contracts/polygonUsdt/Usdt-all-openzeppelin.sol\":22869:22870  0 */\n      0x00\n        /* \"contracts/polygonUsdt/Usdt-all-openzeppelin.sol\":22851:22871  sender != address(0) */\n      0xffffffffffffffffffffffffffffffffffffffff\n      and\n        /* \"contracts/polygonUsdt/Usdt-all-openzeppelin.sol\":22851:22857  sender */\n      dup4\n        /* \"contracts/polygonUsdt/Usdt-all-openzeppelin.sol\":22851:22871  sender != address(0) */\n      0xffffffffffffffffffffffffffffffffffffffff\n      and\n      eq\n      iszero\n        /* \"contracts/polygonUsdt/Usdt-all-openzeppelin.sol\":22843:22913  require(sender != address(0), \"ERC20: transfer from the zero address\") */\n      tag_96\n      jumpi\n      mload(0x40)\n      0x08c379a000000000000000000000000000000000000000000000000000000000\n      dup2\n      mstore\n      0x04\n      add\n      dup1\n      dup1\n      0x20\n      add\n      dup3\n      dup2\n      sub\n      dup3\n      mstore\n      0x25\n      dup2\n      mstore\n      0x20\n      add\n      dup1\n      data_baecc556b46f4ed0f2b4cb599d60785ac8563dd2dc0a5bf12edea1c39e5e1fea\n      0x25\n      swap2\n      codecopy\n      0x40\n      add\n      swap2\n      pop\n      pop\n      mload(0x40)\n      dup1\n      swap2\n      sub\n      swap1\n      revert\n    tag_96:\n        /* \"contracts/polygonUsdt/Usdt-all-openzeppelin.sol\":22952:22953  0 */\n      0x00\n        /* \"contracts/polygonUsdt/Usdt-all-openzeppelin.sol\":22931:22954  recipient != address(0) */\n      0xffffffffffffffffffffffffffffffffffffffff\n      and\n        /* \"contracts/polygonUsdt/Usdt-all-openzeppelin.sol\":22931:22940  recipient */\n      dup3\n        /* \"contracts/polygonUsdt/Usdt-all-openzeppelin.sol\":22931:22954  recipient != address(0) */\n      0xffffffffffffffffffffffffffffffffffffffff\n      and\n      eq\n      iszero\n        /* \"contracts/polygonUsdt/Usdt-all-openzeppelin.sol\":22923:22994  require(recipient != address(0), \"ERC20: transfer to the zero address\") */\n      tag_97\n      jumpi\n      mload(0x40)\n      0x08c379a000000000000000000000000000000000000000000000000000000000\n      dup2\n      mstore\n      0x04\n      add\n      dup1\n      dup1\n      0x20\n      add\n      dup3\n      dup2\n      sub\n      dup3\n      mstore\n      0x23\n      dup2\n      mstore\n      0x20\n      add\n      dup1\n      data_0557e210f7a69a685100a7e4e3d0a7024c546085cee28910fd17d0b081d9516f\n      0x23\n      swap2\n      codecopy\n      0x40\n      add\n      swap2\n      pop\n      pop\n      mload(0x40)\n      dup1\n      swap2\n      sub\n      swap1\n      revert\n    tag_97:\n        /* \"contracts/polygonUsdt/Usdt-all-openzeppelin.sol\":23005:23052  _beforeTokenTransfer(sender, recipient, amount) */\n      tag_98\n        /* \"contracts/polygonUsdt/Usdt-all-openzeppelin.sol\":23026:23032  sender */\n      dup4\n        /* \"contracts/polygonUsdt/Usdt-all-openzeppelin.sol\":23034:23043  recipient */\n      dup4\n        /* \"contracts/polygonUsdt/Usdt-all-openzeppelin.sol\":23045:23051  amount */\n      dup4\n        /* \"contracts/polygonUsdt/Usdt-all-openzeppelin.sol\":23005:23025  _beforeTokenTransfer */\n      tag_99\n        /* \"contracts/polygonUsdt/Usdt-all-openzeppelin.sol\":23005:23052  _beforeTokenTransfer(sender, recipient, amount) */\n      jump\t// in\n    tag_98:\n        /* \"contracts/polygonUsdt/Usdt-all-openzeppelin.sol\":23083:23154  _balances[sender].sub(amount, \"ERC20: transfer amount exceeds balance\") */\n      tag_100\n        /* \"contracts/polygonUsdt/Usdt-all-openzeppelin.sol\":23105:23111  amount */\n      dup2\n        /* \"contracts/polygonUsdt/Usdt-all-openzeppelin.sol\":23083:23154  _balances[sender].sub(amount, \"ERC20: transfer amount exceeds balance\") */\n      mload(0x40)\n      dup1\n      0x60\n      add\n      0x40\n      mstore\n      dup1\n      0x26\n      dup2\n      mstore\n      0x20\n      add\n      data_4107e8a8b9e94bf8ff83080ddec1c0bffe897ebc2241b89d44f66b3d274088b6\n      0x26\n      swap2\n      codecopy\n        /* \"contracts/polygonUsdt/Usdt-all-openzeppelin.sol\":23083:23092  _balances */\n      0x00\n        /* \"contracts/polygonUsdt/Usdt-all-openzeppelin.sol\":23083:23100  _balances[sender] */\n      dup1\n        /* \"contracts/polygonUsdt/Usdt-all-openzeppelin.sol\":23093:23099  sender */\n      dup8\n        /* \"contracts/polygonUsdt/Usdt-all-openzeppelin.sol\":23083:23100  _balances[sender] */\n      0xffffffffffffffffffffffffffffffffffffffff\n      and\n      0xffffffffffffffffffffffffffffffffffffffff\n      and\n      dup2\n      mstore\n      0x20\n      add\n      swap1\n      dup2\n      mstore\n      0x20\n      add\n      0x00\n      keccak256\n      sload\n        /* \"contracts/polygonUsdt/Usdt-all-openzeppelin.sol\":23083:23104  _balances[sender].sub */\n      tag_69\n      swap1\n        /* \"contracts/polygonUsdt/Usdt-all-openzeppelin.sol\":23083:23154  _balances[sender].sub(amount, \"ERC20: transfer amount exceeds balance\") */\n      swap3\n      swap2\n      swap1\n      0xffffffff\n      and\n      jump\t// in\n    tag_100:\n        /* \"contracts/polygonUsdt/Usdt-all-openzeppelin.sol\":23063:23072  _balances */\n      0x00\n        /* \"contracts/polygonUsdt/Usdt-all-openzeppelin.sol\":23063:23080  _balances[sender] */\n      dup1\n        /* \"contracts/polygonUsdt/Usdt-all-openzeppelin.sol\":23073:23079  sender */\n      dup6\n        /* \"contracts/polygonUsdt/Usdt-all-openzeppelin.sol\":23063:23080  _balances[sender] */\n      0xffffffffffffffffffffffffffffffffffffffff\n      and\n      0xffffffffffffffffffffffffffffffffffffffff\n      and\n      dup2\n      mstore\n      0x20\n      add\n      swap1\n      dup2\n      mstore\n      0x20\n      add\n      0x00\n      keccak256\n        /* \"contracts/polygonUsdt/Usdt-all-openzeppelin.sol\":23063:23154  _balances[sender] = _balances[sender].sub(amount, \"ERC20: transfer amount exceeds balance\") */\n      dup2\n      swap1\n      sstore\n      pop\n        /* \"contracts/polygonUsdt/Usdt-all-openzeppelin.sol\":23187:23219  _balances[recipient].add(amount) */\n      tag_101\n        /* \"contracts/polygonUsdt/Usdt-all-openzeppelin.sol\":23212:23218  amount */\n      dup2\n        /* \"contracts/polygonUsdt/Usdt-all-openzeppelin.sol\":23187:23196  _balances */\n      0x00\n        /* \"contracts/polygonUsdt/Usdt-all-openzeppelin.sol\":23187:23207  _balances[recipient] */\n      dup1\n        /* \"contracts/polygonUsdt/Usdt-all-openzeppelin.sol\":23197:23206  recipient */\n      dup6\n        /* \"contracts/polygonUsdt/Usdt-all-openzeppelin.sol\":23187:23207  _balances[recipient] */\n      0xffffffffffffffffffffffffffffffffffffffff\n      and\n      0xffffffffffffffffffffffffffffffffffffffff\n      and\n      dup2\n      mstore\n      0x20\n      add\n      swap1\n      dup2\n      mstore\n      0x20\n      add\n      0x00\n      keccak256\n      sload\n        /* \"contracts/polygonUsdt/Usdt-all-openzeppelin.sol\":23187:23211  _balances[recipient].add */\n      tag_76\n      swap1\n        /* \"contracts/polygonUsdt/Usdt-all-openzeppelin.sol\":23187:23219  _balances[recipient].add(amount) */\n      swap2\n      swap1\n      0xffffffff\n      and\n      jump\t// in\n    tag_101:\n        /* \"contracts/polygonUsdt/Usdt-all-openzeppelin.sol\":23164:23173  _balances */\n      0x00\n        /* \"contracts/polygonUsdt/Usdt-all-openzeppelin.sol\":23164:23184  _balances[recipient] */\n      dup1\n        /* \"contracts/polygonUsdt/Usdt-all-openzeppelin.sol\":23174:23183  recipient */\n      dup5\n        /* \"contracts/polygonUsdt/Usdt-all-openzeppelin.sol\":23164:23184  _balances[recipient] */\n      0xffffffffffffffffffffffffffffffffffffffff\n      and\n      0xffffffffffffffffffffffffffffffffffffffff\n      and\n      dup2\n      mstore\n      0x20\n      add\n      swap1\n      dup2\n      mstore\n      0x20\n      add\n      0x00\n      keccak256\n        /* \"contracts/polygonUsdt/Usdt-all-openzeppelin.sol\":23164:23219  _balances[recipient] = _balances[recipient].add(amount) */\n      dup2\n      swap1\n      sstore\n      pop\n        /* \"contracts/polygonUsdt/Usdt-all-openzeppelin.sol\":23251:23260  recipient */\n      dup2\n        /* \"contracts/polygonUsdt/Usdt-all-openzeppelin.sol\":23234:23269  Transfer(sender, recipient, amount) */\n      0xffffffffffffffffffffffffffffffffffffffff\n      and\n        /* \"contracts/polygonUsdt/Usdt-all-openzeppelin.sol\":23243:23249  sender */\n      dup4\n        /* \"contracts/polygonUsdt/Usdt-all-openzeppelin.sol\":23234:23269  Transfer(sender, recipient, amount) */\n      0xffffffffffffffffffffffffffffffffffffffff\n      and\n      0xddf252ad1be2c89b69c2b068fc378daa952ba7f163c4a11628f55a4df523b3ef\n        /* \"contracts/polygonUsdt/Usdt-all-openzeppelin.sol\":23262:23268  amount */\n      dup4\n        /* \"contracts/polygonUsdt/Usdt-all-openzeppelin.sol\":23234:23269  Transfer(sender, recipient, amount) */\n      mload(0x40)\n      dup1\n      dup3\n      dup2\n      mstore\n      0x20\n      add\n      swap2\n      pop\n      pop\n      mload(0x40)\n      dup1\n      swap2\n      sub\n      swap1\n      log3\n        /* \"contracts/polygonUsdt/Usdt-all-openzeppelin.sol\":22746:23276  function _transfer(address sender, address recipient, uint256 amount) internal virtual {... */\n      pop\n      pop\n      pop\n      jump\t// out\n        /* \"contracts/polygonUsdt/Usdt-all-openzeppelin.sol\":5608:5795  function sub(uint256 a, uint256 b, string memory errorMessage) internal pure returns (uint256) {... */\n    tag_69:\n        /* \"contracts/polygonUsdt/Usdt-all-openzeppelin.sol\":5694:5701  uint256 */\n      0x00\n        /* \"contracts/polygonUsdt/Usdt-all-openzeppelin.sol\":5726:5727  a */\n      dup4\n        /* \"contracts/polygonUsdt/Usdt-all-openzeppelin.sol\":5721:5722  b */\n      dup4\n        /* \"contracts/polygonUsdt/Usdt-all-openzeppelin.sol\":5721:5727  b <= a */\n      gt\n      iszero\n        /* \"contracts/polygonUsdt/Usdt-all-openzeppelin.sol\":5729:5741  errorMessage */\n      dup3\n        /* \"contracts/polygonUsdt/Usdt-all-openzeppelin.sol\":5713:5742  require(b <= a, errorMessage) */\n      swap1\n      tag_103\n      jumpi\n      mload(0x40)\n      0x08c379a000000000000000000000000000000000000000000000000000000000\n      dup2\n      mstore\n      0x04\n      add\n      dup1\n      dup1\n      0x20\n      add\n      dup3\n      dup2\n      sub\n      dup3\n      mstore\n      dup4\n      dup2\n      dup2\n      mload\n      dup2\n      mstore\n      0x20\n      add\n      swap2\n      pop\n      dup1\n      mload\n      swap1\n      0x20\n      add\n      swap1\n      dup1\n      dup4\n      dup4\n        /* \"--CODEGEN--\":23:24   */\n      0x00\n        /* \"--CODEGEN--\":8:108   */\n    tag_104:\n        /* \"--CODEGEN--\":33:36   */\n      dup4\n        /* \"--CODEGEN--\":30:31   */\n      dup2\n        /* \"--CODEGEN--\":27:37   */\n      lt\n        /* \"--CODEGEN--\":8:108   */\n      iszero\n      tag_106\n      jumpi\n        /* \"--CODEGEN--\":99:100   */\n      dup1\n        /* \"--CODEGEN--\":94:97   */\n      dup3\n        /* \"--CODEGEN--\":90:101   */\n      add\n        /* \"--CODEGEN--\":84:102   */\n      mload\n        /* \"--CODEGEN--\":80:81   */\n      dup2\n        /* \"--CODEGEN--\":75:78   */\n      dup5\n        /* \"--CODEGEN--\":71:82   */\n      add\n        /* \"--CODEGEN--\":64:103   */\n      mstore\n        /* \"--CODEGEN--\":52:54   */\n      0x20\n        /* \"--CODEGEN--\":49:50   */\n      dup2\n        /* \"--CODEGEN--\":45:55   */\n      add\n        /* \"--CODEGEN--\":40:55   */\n      swap1\n      pop\n        /* \"--CODEGEN--\":8:108   */\n      jump(tag_104)\n    tag_106:\n        /* \"--CODEGEN--\":12:26   */\n      pop\n        /* \"contracts/polygonUsdt/Usdt-all-openzeppelin.sol\":5713:5742  require(b <= a, errorMessage) */\n      pop\n      pop\n      pop\n      swap1\n      pop\n      swap1\n      dup2\n      add\n      swap1\n      0x1f\n      and\n      dup1\n      iszero\n      tag_107\n      jumpi\n      dup1\n      dup3\n      sub\n      dup1\n      mload\n      0x01\n      dup4\n      0x20\n      sub\n      0x0100\n      exp\n      sub\n      not\n      and\n      dup2\n      mstore\n      0x20\n      add\n      swap2\n      pop\n    tag_107:\n      pop\n      swap3\n      pop\n      pop\n      pop\n      mload(0x40)\n      dup1\n      swap2\n      sub\n      swap1\n      revert\n    tag_103:\n      pop\n        /* \"contracts/polygonUsdt/Usdt-all-openzeppelin.sol\":5752:5761  uint256 c */\n      0x00\n        /* \"contracts/polygonUsdt/Usdt-all-openzeppelin.sol\":5768:5769  b */\n      dup4\n        /* \"contracts/polygonUsdt/Usdt-all-openzeppelin.sol\":5764:5765  a */\n      dup6\n        /* \"contracts/polygonUsdt/Usdt-all-openzeppelin.sol\":5764:5769  a - b */\n      sub\n        /* \"contracts/polygonUsdt/Usdt-all-openzeppelin.sol\":5752:5769  uint256 c = a - b */\n      swap1\n      pop\n        /* \"contracts/polygonUsdt/Usdt-all-openzeppelin.sol\":5787:5788  c */\n      dup1\n        /* \"contracts/polygonUsdt/Usdt-all-openzeppelin.sol\":5780:5788  return c */\n      swap2\n      pop\n      pop\n        /* \"contracts/polygonUsdt/Usdt-all-openzeppelin.sol\":5608:5795  function sub(uint256 a, uint256 b, string memory errorMessage) internal pure returns (uint256) {... */\n      swap4\n      swap3\n      pop\n      pop\n      pop\n      jump\t// out\n        /* \"contracts/polygonUsdt/Usdt-all-openzeppelin.sol\":4736:4912  function add(uint256 a, uint256 b) internal pure returns (uint256) {... */\n    tag_76:\n        /* \"contracts/polygonUsdt/Usdt-all-openzeppelin.sol\":4794:4801  uint256 */\n      0x00\n        /* \"contracts/polygonUsdt/Usdt-all-openzeppelin.sol\":4813:4822  uint256 c */\n      dup1\n        /* \"contracts/polygonUsdt/Usdt-all-openzeppelin.sol\":4829:4830  b */\n      dup3\n        /* \"contracts/polygonUsdt/Usdt-all-openzeppelin.sol\":4825:4826  a */\n      dup5\n        /* \"contracts/polygonUsdt/Usdt-all-openzeppelin.sol\":4825:4830  a + b */\n      add\n        /* \"contracts/polygonUsdt/Usdt-all-openzeppelin.sol\":4813:4830  uint256 c = a + b */\n      swap1\n      pop\n        /* \"contracts/polygonUsdt/Usdt-all-openzeppelin.sol\":4853:4854  a */\n      dup4\n        /* \"contracts/polygonUsdt/Usdt-all-openzeppelin.sol\":4848:4849  c */\n      dup2\n        /* \"contracts/polygonUsdt/Usdt-all-openzeppelin.sol\":4848:4854  c >= a */\n      lt\n      iszero\n        /* \"contracts/polygonUsdt/Usdt-all-openzeppelin.sol\":4840:4886  require(c >= a, \"SafeMath: addition overflow\") */\n      tag_109\n      jumpi\n      mload(0x40)\n      0x08c379a000000000000000000000000000000000000000000000000000000000\n      dup2\n      mstore\n      0x04\n      add\n      dup1\n      dup1\n      0x20\n      add\n      dup3\n      dup2\n      sub\n      dup3\n      mstore\n      0x1b\n      dup2\n      mstore\n      0x20\n      add\n      dup1\n      0x536166654d6174683a206164646974696f6e206f766572666c6f770000000000\n      dup2\n      mstore\n      pop\n      0x20\n      add\n      swap2\n      pop\n      pop\n      mload(0x40)\n      dup1\n      swap2\n      sub\n      swap1\n      revert\n    tag_109:\n        /* \"contracts/polygonUsdt/Usdt-all-openzeppelin.sol\":4904:4905  c */\n      dup1\n        /* \"contracts/polygonUsdt/Usdt-all-openzeppelin.sol\":4897:4905  return c */\n      swap2\n      pop\n      pop\n        /* \"contracts/polygonUsdt/Usdt-all-openzeppelin.sol\":4736:4912  function add(uint256 a, uint256 b) internal pure returns (uint256) {... */\n      swap3\n      swap2\n      pop\n      pop\n      jump\t// out\n        /* \"contracts/polygonUsdt/Usdt-all-openzeppelin.sol\":26408:26500  function _beforeTokenTransfer(address from, address to, uint256 amount) internal virtual { } */\n    tag_99:\n      pop\n      pop\n      pop\n      jump\t// out\n    stop\n    data_0557e210f7a69a685100a7e4e3d0a7024c546085cee28910fd17d0b081d9516f 45524332303a207472616e7366657220746f20746865207a65726f2061646472657373\n    data_24883cc5fe64ace9d0df1893501ecb93c77180f0ff69cca79affb3c316dc8029 45524332303a20617070726f766520746f20746865207a65726f2061646472657373\n    data_4107e8a8b9e94bf8ff83080ddec1c0bffe897ebc2241b89d44f66b3d274088b6 45524332303a207472616e7366657220616d6f756e7420657863656564732062616c616e6365\n    data_974d1b4421da69cc60b481194f0dad36a5bb4e23da810da7a7fb30cdba178330 45524332303a207472616e7366657220616d6f756e74206578636565647320616c6c6f77616e6365\n    data_baecc556b46f4ed0f2b4cb599d60785ac8563dd2dc0a5bf12edea1c39e5e1fea 45524332303a207472616e736665722066726f6d20746865207a65726f2061646472657373\n    data_c953f4879035ed60e766b34720f656aab5c697b141d924c283124ecedb91c208 45524332303a20617070726f76652066726f6d20746865207a65726f2061646472657373\n    data_f8b476f7d28209d77d4a4ac1fe36b9f8259aa1bb6bddfa6e89de7e51615cf8a8 45524332303a2064656372656173656420616c6c6f77616e63652062656c6f77207a65726f\n\n    auxdata: 0xa26469706673582212205279539d25d1e49978873cae8094ff12f4196e60d13c9e476fdabfd3b65cdfa164736f6c63430006060033\n}\n",
				"bytecode": {
					"linkReferences": {},
					"object": "60806040523480156200001157600080fd5b50604051620013bb380380620013bb833981810160405260408110156200003757600080fd5b81019080805160405193929190846401000000008211156200005857600080fd5b838201915060208201858111156200006f57600080fd5b82518660018202830111640100000000821117156200008d57600080fd5b8083526020830192505050908051906020019080838360005b83811015620000c3578082015181840152602081019050620000a6565b50505050905090810190601f168015620000f15780820380516001836020036101000a031916815260200191505b50604052602001805160405193929190846401000000008211156200011557600080fd5b838201915060208201858111156200012c57600080fd5b82518660018202830111640100000000821117156200014a57600080fd5b8083526020830192505050908051906020019080838360005b838110156200018057808201518184015260208101905062000163565b50505050905090810190601f168015620001ae5780820380516001836020036101000a031916815260200191505b506040525050508160039080519060200190620001cd9291906200020b565b508060049080519060200190620001e69291906200020b565b506012600560006101000a81548160ff021916908360ff1602179055505050620002ba565b828054600181600116156101000203166002900490600052602060002090601f016020900481019282601f106200024e57805160ff19168380011785556200027f565b828001600101855582156200027f579182015b828111156200027e57825182559160200191906001019062000261565b5b5090506200028e919062000292565b5090565b620002b791905b80821115620002b357600081600090555060010162000299565b5090565b90565b6110f180620002ca6000396000f3fe608060405234801561001057600080fd5b50600436106100a95760003560e01c80633950935111610071578063395093511461025f57806370a08231146102c557806395d89b411461031d578063a457c2d7146103a0578063a9059cbb14610406578063dd62ed3e1461046c576100a9565b806306fdde03146100ae578063095ea7b31461013157806318160ddd1461019757806323b872dd146101b5578063313ce5671461023b575b600080fd5b6100b66104e4565b6040518080602001828103825283818151815260200191508051906020019080838360005b838110156100f65780820151818401526020810190506100db565b50505050905090810190601f1680156101235780820380516001836020036101000a031916815260200191505b509250505060405180910390f35b61017d6004803603604081101561014757600080fd5b81019080803573ffffffffffffffffffffffffffffffffffffffff16906020019092919080359060200190929190505050610586565b604051808215151515815260200191505060405180910390f35b61019f6105a4565b6040518082815260200191505060405180910390f35b610221600480360360608110156101cb57600080fd5b81019080803573ffffffffffffffffffffffffffffffffffffffff169060200190929190803573ffffffffffffffffffffffffffffffffffffffff169060200190929190803590602001909291905050506105ae565b604051808215151515815260200191505060405180910390f35b610243610687565b604051808260ff1660ff16815260200191505060405180910390f35b6102ab6004803603604081101561027557600080fd5b81019080803573ffffffffffffffffffffffffffffffffffffffff1690602001909291908035906020019092919050505061069e565b604051808215151515815260200191505060405180910390f35b610307600480360360208110156102db57600080fd5b81019080803573ffffffffffffffffffffffffffffffffffffffff169060200190929190505050610751565b6040518082815260200191505060405180910390f35b610325610799565b6040518080602001828103825283818151815260200191508051906020019080838360005b8381101561036557808201518184015260208101905061034a565b50505050905090810190601f1680156103925780820380516001836020036101000a031916815260200191505b509250505060405180910390f35b6103ec600480360360408110156103b657600080fd5b81019080803573ffffffffffffffffffffffffffffffffffffffff1690602001909291908035906020019092919050505061083b565b604051808215151515815260200191505060405180910390f35b6104526004803603604081101561041c57600080fd5b81019080803573ffffffffffffffffffffffffffffffffffffffff16906020019092919080359060200190929190505050610908565b604051808215151515815260200191505060405180910390f35b6104ce6004803603604081101561048257600080fd5b81019080803573ffffffffffffffffffffffffffffffffffffffff169060200190929190803573ffffffffffffffffffffffffffffffffffffffff169060200190929190505050610926565b6040518082815260200191505060405180910390f35b606060038054600181600116156101000203166002900480601f01602080910402602001604051908101604052809291908181526020018280546001816001161561010002031660029004801561057c5780601f106105515761010080835404028352916020019161057c565b820191906000526020600020905b81548152906001019060200180831161055f57829003601f168201915b5050505050905090565b600061059a6105936109ad565b84846109b5565b6001905092915050565b6000600254905090565b60006105bb848484610bac565b61067c846105c76109ad565b6106778560405180606001604052806028815260200161102660289139600160008b73ffffffffffffffffffffffffffffffffffffffff1673ffffffffffffffffffffffffffffffffffffffff168152602001908152602001600020600061062d6109ad565b73ffffffffffffffffffffffffffffffffffffffff1673ffffffffffffffffffffffffffffffffffffffff16815260200190815260200160002054610e6d9092919063ffffffff16565b6109b5565b600190509392505050565b6000600560009054906101000a900460ff16905090565b60006107476106ab6109ad565b8461074285600160006106bc6109ad565b73ffffffffffffffffffffffffffffffffffffffff1673ffffffffffffffffffffffffffffffffffffffff16815260200190815260200160002060008973ffffffffffffffffffffffffffffffffffffffff1673ffffffffffffffffffffffffffffffffffffffff16815260200190815260200160002054610f2d90919063ffffffff16565b6109b5565b6001905092915050565b60008060008373ffffffffffffffffffffffffffffffffffffffff1673ffffffffffffffffffffffffffffffffffffffff168152602001908152602001600020549050919050565b606060048054600181600116156101000203166002900480601f0160208091040260200160405190810160405280929190818152602001828054600181600116156101000203166002900480156108315780601f1061080657610100808354040283529160200191610831565b820191906000526020600020905b81548152906001019060200180831161081457829003601f168201915b5050505050905090565b60006108fe6108486109ad565b846108f98560405180606001604052806025815260200161109760259139600160006108726109ad565b73ffffffffffffffffffffffffffffffffffffffff1673ffffffffffffffffffffffffffffffffffffffff16815260200190815260200160002060008a73ffffffffffffffffffffffffffffffffffffffff1673ffffffffffffffffffffffffffffffffffffffff16815260200190815260200160002054610e6d9092919063ffffffff16565b6109b5565b6001905092915050565b600061091c6109156109ad565b8484610bac565b6001905092915050565b6000600160008473ffffffffffffffffffffffffffffffffffffffff1673ffffffffffffffffffffffffffffffffffffffff16815260200190815260200160002060008373ffffffffffffffffffffffffffffffffffffffff1673ffffffffffffffffffffffffffffffffffffffff16815260200190815260200160002054905092915050565b600033905090565b600073ffffffffffffffffffffffffffffffffffffffff168373ffffffffffffffffffffffffffffffffffffffff161415610a3b576040517f08c379a00000000000000000000000000000000000000000000000000000000081526004018080602001828103825260248152602001806110736024913960400191505060405180910390fd5b600073ffffffffffffffffffffffffffffffffffffffff168273ffffffffffffffffffffffffffffffffffffffff161415610ac1576040517f08c379a0000000000000000000000000000000000000000000000000000000008152600401808060200182810382526022815260200180610fde6022913960400191505060405180910390fd5b80600160008573ffffffffffffffffffffffffffffffffffffffff1673ffffffffffffffffffffffffffffffffffffffff16815260200190815260200160002060008473ffffffffffffffffffffffffffffffffffffffff1673ffffffffffffffffffffffffffffffffffffffff168152602001908152602001600020819055508173ffffffffffffffffffffffffffffffffffffffff168373ffffffffffffffffffffffffffffffffffffffff167f8c5be1e5ebec7d5bd14f71427d1e84f3dd0314c0f7b2291e5b200ac8c7c3b925836040518082815260200191505060405180910390a3505050565b600073ffffffffffffffffffffffffffffffffffffffff168373ffffffffffffffffffffffffffffffffffffffff161415610c32576040517f08c379a000000000000000000000000000000000000000000000000000000000815260040180806020018281038252602581526020018061104e6025913960400191505060405180910390fd5b600073ffffffffffffffffffffffffffffffffffffffff168273ffffffffffffffffffffffffffffffffffffffff161415610cb8576040517f08c379a0000000000000000000000000000000000000000000000000000000008152600401808060200182810382526023815260200180610fbb6023913960400191505060405180910390fd5b610cc3838383610fb5565b610d2e81604051806060016040528060268152602001611000602691396000808773ffffffffffffffffffffffffffffffffffffffff1673ffffffffffffffffffffffffffffffffffffffff16815260200190815260200160002054610e6d9092919063ffffffff16565b6000808573ffffffffffffffffffffffffffffffffffffffff1673ffffffffffffffffffffffffffffffffffffffff16815260200190815260200160002081905550610dc1816000808573ffffffffffffffffffffffffffffffffffffffff1673ffffffffffffffffffffffffffffffffffffffff16815260200190815260200160002054610f2d90919063ffffffff16565b6000808473ffffffffffffffffffffffffffffffffffffffff1673ffffffffffffffffffffffffffffffffffffffff168152602001908152602001600020819055508173ffffffffffffffffffffffffffffffffffffffff168373ffffffffffffffffffffffffffffffffffffffff167fddf252ad1be2c89b69c2b068fc378daa952ba7f163c4a11628f55a4df523b3ef836040518082815260200191505060405180910390a3505050565b6000838311158290610f1a576040517f08c379a00000000000000000000000000000000000000000000000000000000081526004018080602001828103825283818151815260200191508051906020019080838360005b83811015610edf578082015181840152602081019050610ec4565b50505050905090810190601f168015610f0c5780820380516001836020036101000a031916815260200191505b509250505060405180910390fd5b5060008385039050809150509392505050565b600080828401905083811015610fab576040517f08c379a000000000000000000000000000000000000000000000000000000000815260040180806020018281038252601b8152602001807f536166654d6174683a206164646974696f6e206f766572666c6f77000000000081525060200191505060405180910390fd5b8091505092915050565b50505056fe45524332303a207472616e7366657220746f20746865207a65726f206164647265737345524332303a20617070726f766520746f20746865207a65726f206164647265737345524332303a207472616e7366657220616d6f756e7420657863656564732062616c616e636545524332303a207472616e7366657220616d6f756e74206578636565647320616c6c6f77616e636545524332303a207472616e736665722066726f6d20746865207a65726f206164647265737345524332303a20617070726f76652066726f6d20746865207a65726f206164647265737345524332303a2064656372656173656420616c6c6f77616e63652062656c6f77207a65726fa26469706673582212205279539d25d1e49978873cae8094ff12f4196e60d13c9e476fdabfd3b65cdfa164736f6c63430006060033",
					"opcodes": "PUSH1 0x80 PUSH1 0x40 MSTORE CALLVALUE DUP1 ISZERO PUSH3 0x11 JUMPI PUSH1 0x0 DUP1 REVERT JUMPDEST POP PUSH1 0x40 MLOAD PUSH3 0x13BB CODESIZE SUB DUP1 PUSH3 0x13BB DUP4 CODECOPY DUP2 DUP2 ADD PUSH1 0x40 MSTORE PUSH1 0x40 DUP2 LT ISZERO PUSH3 0x37 JUMPI PUSH1 0x0 DUP1 REVERT JUMPDEST DUP2 ADD SWAP1 DUP1 DUP1 MLOAD PUSH1 0x40 MLOAD SWAP4 SWAP3 SWAP2 SWAP1 DUP5 PUSH5 0x100000000 DUP3 GT ISZERO PUSH3 0x58 JUMPI PUSH1 0x0 DUP1 REVERT JUMPDEST DUP4 DUP3 ADD SWAP2 POP PUSH1 0x20 DUP3 ADD DUP6 DUP2 GT ISZERO PUSH3 0x6F JUMPI PUSH1 0x0 DUP1 REVERT JUMPDEST DUP3 MLOAD DUP7 PUSH1 0x1 DUP3 MUL DUP4 ADD GT PUSH5 0x100000000 DUP3 GT OR ISZERO PUSH3 0x8D JUMPI PUSH1 0x0 DUP1 REVERT JUMPDEST DUP1 DUP4 MSTORE PUSH1 0x20 DUP4 ADD SWAP3 POP POP POP SWAP1 DUP1 MLOAD SWAP1 PUSH1 0x20 ADD SWAP1 DUP1 DUP4 DUP4 PUSH1 0x0 JUMPDEST DUP4 DUP2 LT ISZERO PUSH3 0xC3 JUMPI DUP1 DUP3 ADD MLOAD DUP2 DUP5 ADD MSTORE PUSH1 0x20 DUP2 ADD SWAP1 POP PUSH3 0xA6 JUMP JUMPDEST POP POP POP POP SWAP1 POP SWAP1 DUP2 ADD SWAP1 PUSH1 0x1F AND DUP1 ISZERO PUSH3 0xF1 JUMPI DUP1 DUP3 SUB DUP1 MLOAD PUSH1 0x1 DUP4 PUSH1 0x20 SUB PUSH2 0x100 EXP SUB NOT AND DUP2 MSTORE PUSH1 0x20 ADD SWAP2 POP JUMPDEST POP PUSH1 0x40 MSTORE PUSH1 0x20 ADD DUP1 MLOAD PUSH1 0x40 MLOAD SWAP4 SWAP3 SWAP2 SWAP1 DUP5 PUSH5 0x100000000 DUP3 GT ISZERO PUSH3 0x115 JUMPI PUSH1 0x0 DUP1 REVERT JUMPDEST DUP4 DUP3 ADD SWAP2 POP PUSH1 0x20 DUP3 ADD DUP6 DUP2 GT ISZERO PUSH3 0x12C JUMPI PUSH1 0x0 DUP1 REVERT JUMPDEST DUP3 MLOAD DUP7 PUSH1 0x1 DUP3 MUL DUP4 ADD GT PUSH5 0x100000000 DUP3 GT OR ISZERO PUSH3 0x14A JUMPI PUSH1 0x0 DUP1 REVERT JUMPDEST DUP1 DUP4 MSTORE PUSH1 0x20 DUP4 ADD SWAP3 POP POP POP SWAP1 DUP1 MLOAD SWAP1 PUSH1 0x20 ADD SWAP1 DUP1 DUP4 DUP4 PUSH1 0x0 JUMPDEST DUP4 DUP2 LT ISZERO PUSH3 0x180 JUMPI DUP1 DUP3 ADD MLOAD DUP2 DUP5 ADD MSTORE PUSH1 0x20 DUP2 ADD SWAP1 POP PUSH3 0x163 JUMP JUMPDEST POP POP POP POP SWAP1 POP SWAP1 DUP2 ADD SWAP1 PUSH1 0x1F AND DUP1 ISZERO PUSH3 0x1AE JUMPI DUP1 DUP3 SUB DUP1 MLOAD PUSH1 0x1 DUP4 PUSH1 0x20 SUB PUSH2 0x100 EXP SUB NOT AND DUP2 MSTORE PUSH1 0x20 ADD SWAP2 POP JUMPDEST POP PUSH1 0x40 MSTORE POP POP POP DUP2 PUSH1 0x3 SWAP1 DUP1 MLOAD SWAP1 PUSH1 0x20 ADD SWAP1 PUSH3 0x1CD SWAP3 SWAP2 SWAP1 PUSH3 0x20B JUMP JUMPDEST POP DUP1 PUSH1 0x4 SWAP1 DUP1 MLOAD SWAP1 PUSH1 0x20 ADD SWAP1 PUSH3 0x1E6 SWAP3 SWAP2 SWAP1 PUSH3 0x20B JUMP JUMPDEST POP PUSH1 0x12 PUSH1 0x5 PUSH1 0x0 PUSH2 0x100 EXP DUP2 SLOAD DUP2 PUSH1 0xFF MUL NOT AND SWAP1 DUP4 PUSH1 0xFF AND MUL OR SWAP1 SSTORE POP POP POP PUSH3 0x2BA JUMP JUMPDEST DUP3 DUP1 SLOAD PUSH1 0x1 DUP2 PUSH1 0x1 AND ISZERO PUSH2 0x100 MUL SUB AND PUSH1 0x2 SWAP1 DIV SWAP1 PUSH1 0x0 MSTORE PUSH1 0x20 PUSH1 0x0 KECCAK256 SWAP1 PUSH1 0x1F ADD PUSH1 0x20 SWAP1 DIV DUP2 ADD SWAP3 DUP3 PUSH1 0x1F LT PUSH3 0x24E JUMPI DUP1 MLOAD PUSH1 0xFF NOT AND DUP4 DUP1 ADD OR DUP6 SSTORE PUSH3 0x27F JUMP JUMPDEST DUP3 DUP1 ADD PUSH1 0x1 ADD DUP6 SSTORE DUP3 ISZERO PUSH3 0x27F JUMPI SWAP2 DUP3 ADD JUMPDEST DUP3 DUP2 GT ISZERO PUSH3 0x27E JUMPI DUP3 MLOAD DUP3 SSTORE SWAP2 PUSH1 0x20 ADD SWAP2 SWAP1 PUSH1 0x1 ADD SWAP1 PUSH3 0x261 JUMP JUMPDEST JUMPDEST POP SWAP1 POP PUSH3 0x28E SWAP2 SWAP1 PUSH3 0x292 JUMP JUMPDEST POP SWAP1 JUMP JUMPDEST PUSH3 0x2B7 SWAP2 SWAP1 JUMPDEST DUP1 DUP3 GT ISZERO PUSH3 0x2B3 JUMPI PUSH1 0x0 DUP2 PUSH1 0x0 SWAP1 SSTORE POP PUSH1 0x1 ADD PUSH3 0x299 JUMP JUMPDEST POP SWAP1 JUMP JUMPDEST SWAP1 JUMP JUMPDEST PUSH2 0x10F1 DUP1 PUSH3 0x2CA PUSH1 0x0 CODECOPY PUSH1 0x0 RETURN INVALID PUSH1 0x80 PUSH1 0x40 MSTORE CALLVALUE DUP1 ISZERO PUSH2 0x10 JUMPI PUSH1 0x0 DUP1 REVERT JUMPDEST POP PUSH1 0x4 CALLDATASIZE LT PUSH2 0xA9 JUMPI PUSH1 0x0 CALLDATALOAD PUSH1 0xE0 SHR DUP1 PUSH4 0x39509351 GT PUSH2 0x71 JUMPI DUP1 PUSH4 0x39509351 EQ PUSH2 0x25F JUMPI DUP1 PUSH4 0x70A08231 EQ PUSH2 0x2C5 JUMPI DUP1 PUSH4 0x95D89B41 EQ PUSH2 0x31D JUMPI DUP1 PUSH4 0xA457C2D7 EQ PUSH2 0x3A0 JUMPI DUP1 PUSH4 0xA9059CBB EQ PUSH2 0x406 JUMPI DUP1 PUSH4 0xDD62ED3E EQ PUSH2 0x46C JUMPI PUSH2 0xA9 JUMP JUMPDEST DUP1 PUSH4 0x6FDDE03 EQ PUSH2 0xAE JUMPI DUP1 PUSH4 0x95EA7B3 EQ PUSH2 0x131 JUMPI DUP1 PUSH4 0x18160DDD EQ PUSH2 0x197 JUMPI DUP1 PUSH4 0x23B872DD EQ PUSH2 0x1B5 JUMPI DUP1 PUSH4 0x313CE567 EQ PUSH2 0x23B JUMPI JUMPDEST PUSH1 0x0 DUP1 REVERT JUMPDEST PUSH2 0xB6 PUSH2 0x4E4 JUMP JUMPDEST PUSH1 0x40 MLOAD DUP1 DUP1 PUSH1 0x20 ADD DUP3 DUP2 SUB DUP3 MSTORE DUP4 DUP2 DUP2 MLOAD DUP2 MSTORE PUSH1 0x20 ADD SWAP2 POP DUP1 MLOAD SWAP1 PUSH1 0x20 ADD SWAP1 DUP1 DUP4 DUP4 PUSH1 0x0 JUMPDEST DUP4 DUP2 LT ISZERO PUSH2 0xF6 JUMPI DUP1 DUP3 ADD MLOAD DUP2 DUP5 ADD MSTORE PUSH1 0x20 DUP2 ADD SWAP1 POP PUSH2 0xDB JUMP JUMPDEST POP POP POP POP SWAP1 POP SWAP1 DUP2 ADD SWAP1 PUSH1 0x1F AND DUP1 ISZERO PUSH2 0x123 JUMPI DUP1 DUP3 SUB DUP1 MLOAD PUSH1 0x1 DUP4 PUSH1 0x20 SUB PUSH2 0x100 EXP SUB NOT AND DUP2 MSTORE PUSH1 0x20 ADD SWAP2 POP JUMPDEST POP SWAP3 POP POP POP PUSH1 0x40 MLOAD DUP1 SWAP2 SUB SWAP1 RETURN JUMPDEST PUSH2 0x17D PUSH1 0x4 DUP1 CALLDATASIZE SUB PUSH1 0x40 DUP2 LT ISZERO PUSH2 0x147 JUMPI PUSH1 0x0 DUP1 REVERT JUMPDEST DUP2 ADD SWAP1 DUP1 DUP1 CALLDATALOAD PUSH20 0xFFFFFFFFFFFFFFFFFFFFFFFFFFFFFFFFFFFFFFFF AND SWAP1 PUSH1 0x20 ADD SWAP1 SWAP3 SWAP2 SWAP1 DUP1 CALLDATALOAD SWAP1 PUSH1 0x20 ADD SWAP1 SWAP3 SWAP2 SWAP1 POP POP POP PUSH2 0x586 JUMP JUMPDEST PUSH1 0x40 MLOAD DUP1 DUP3 ISZERO ISZERO ISZERO ISZERO DUP2 MSTORE PUSH1 0x20 ADD SWAP2 POP POP PUSH1 0x40 MLOAD DUP1 SWAP2 SUB SWAP1 RETURN JUMPDEST PUSH2 0x19F PUSH2 0x5A4 JUMP JUMPDEST PUSH1 0x40 MLOAD DUP1 DUP3 DUP2 MSTORE PUSH1 0x20 ADD SWAP2 POP POP PUSH1 0x40 MLOAD DUP1 SWAP2 SUB SWAP1 RETURN JUMPDEST PUSH2 0x221 PUSH1 0x4 DUP1 CALLDATASIZE SUB PUSH1 0x60 DUP2 LT ISZERO PUSH2 0x1CB JUMPI PUSH1 0x0 DUP1 REVERT JUMPDEST DUP2 ADD SWAP1 DUP1 DUP1 CALLDATALOAD PUSH20 0xFFFFFFFFFFFFFFFFFFFFFFFFFFFFFFFFFFFFFFFF AND SWAP1 PUSH1 0x20 ADD SWAP1 SWAP3 SWAP2 SWAP1 DUP1 CALLDATALOAD PUSH20 0xFFFFFFFFFFFFFFFFFFFFFFFFFFFFFFFFFFFFFFFF AND SWAP1 PUSH1 0x20 ADD SWAP1 SWAP3 SWAP2 SWAP1 DUP1 CALLDATALOAD SWAP1 PUSH1 0x20 ADD SWAP1 SWAP3 SWAP2 SWAP1 POP POP POP PUSH2 0x5AE JUMP JUMPDEST PUSH1 0x40 MLOAD DUP1 DUP3 ISZERO ISZERO ISZERO ISZERO DUP2 MSTORE PUSH1 0x20 ADD SWAP2 POP POP PUSH1 0x40 MLOAD DUP1 SWAP2 SUB SWAP1 RETURN JUMPDEST PUSH2 0x243 PUSH2 0x687 JUMP JUMPDEST PUSH1 0x40 MLOAD DUP1 DUP3 PUSH1 0xFF AND PUSH1 0xFF AND DUP2 MSTORE PUSH1 0x20 ADD SWAP2 POP POP PUSH1 0x40 MLOAD DUP1 SWAP2 SUB SWAP1 RETURN JUMPDEST PUSH2 0x2AB PUSH1 0x4 DUP1 CALLDATASIZE SUB PUSH1 0x40 DUP2 LT ISZERO PUSH2 0x275 JUMPI PUSH1 0x0 DUP1 REVERT JUMPDEST DUP2 ADD SWAP1 DUP1 DUP1 CALLDATALOAD PUSH20 0xFFFFFFFFFFFFFFFFFFFFFFFFFFFFFFFFFFFFFFFF AND SWAP1 PUSH1 0x20 ADD SWAP1 SWAP3 SWAP2 SWAP1 DUP1 CALLDATALOAD SWAP1 PUSH1 0x20 ADD SWAP1 SWAP3 SWAP2 SWAP1 POP POP POP PUSH2 0x69E JUMP JUMPDEST PUSH1 0x40 MLOAD DUP1 DUP3 ISZERO ISZERO ISZERO ISZERO DUP2 MSTORE PUSH1 0x20 ADD SWAP2 POP POP PUSH1 0x40 MLOAD DUP1 SWAP2 SUB SWAP1 RETURN JUMPDEST PUSH2 0x307 PUSH1 0x4 DUP1 CALLDATASIZE SUB PUSH1 0x20 DUP2 LT ISZERO PUSH2 0x2DB JUMPI PUSH1 0x0 DUP1 REVERT JUMPDEST DUP2 ADD SWAP1 DUP1 DUP1 CALLDATALOAD PUSH20 0xFFFFFFFFFFFFFFFFFFFFFFFFFFFFFFFFFFFFFFFF AND SWAP1 PUSH1 0x20 ADD SWAP1 SWAP3 SWAP2 SWAP1 POP POP POP PUSH2 0x751 JUMP JUMPDEST PUSH1 0x40 MLOAD DUP1 DUP3 DUP2 MSTORE PUSH1 0x20 ADD SWAP2 POP POP PUSH1 0x40 MLOAD DUP1 SWAP2 SUB SWAP1 RETURN JUMPDEST PUSH2 0x325 PUSH2 0x799 JUMP JUMPDEST PUSH1 0x40 MLOAD DUP1 DUP1 PUSH1 0x20 ADD DUP3 DUP2 SUB DUP3 MSTORE DUP4 DUP2 DUP2 MLOAD DUP2 MSTORE PUSH1 0x20 ADD SWAP2 POP DUP1 MLOAD SWAP1 PUSH1 0x20 ADD SWAP1 DUP1 DUP4 DUP4 PUSH1 0x0 JUMPDEST DUP4 DUP2 LT ISZERO PUSH2 0x365 JUMPI DUP1 DUP3 ADD MLOAD DUP2 DUP5 ADD MSTORE PUSH1 0x20 DUP2 ADD SWAP1 POP PUSH2 0x34A JUMP JUMPDEST POP POP POP POP SWAP1 POP SWAP1 DUP2 ADD SWAP1 PUSH1 0x1F AND DUP1 ISZERO PUSH2 0x392 JUMPI DUP1 DUP3 SUB DUP1 MLOAD PUSH1 0x1 DUP4 PUSH1 0x20 SUB PUSH2 0x100 EXP SUB NOT AND DUP2 MSTORE PUSH1 0x20 ADD SWAP2 POP JUMPDEST POP SWAP3 POP POP POP PUSH1 0x40 MLOAD DUP1 SWAP2 SUB SWAP1 RETURN JUMPDEST PUSH2 0x3EC PUSH1 0x4 DUP1 CALLDATASIZE SUB PUSH1 0x40 DUP2 LT ISZERO PUSH2 0x3B6 JUMPI PUSH1 0x0 DUP1 REVERT JUMPDEST DUP2 ADD SWAP1 DUP1 DUP1 CALLDATALOAD PUSH20 0xFFFFFFFFFFFFFFFFFFFFFFFFFFFFFFFFFFFFFFFF AND SWAP1 PUSH1 0x20 ADD SWAP1 SWAP3 SWAP2 SWAP1 DUP1 CALLDATALOAD SWAP1 PUSH1 0x20 ADD SWAP1 SWAP3 SWAP2 SWAP1 POP POP POP PUSH2 0x83B JUMP JUMPDEST PUSH1 0x40 MLOAD DUP1 DUP3 ISZERO ISZERO ISZERO ISZERO DUP2 MSTORE PUSH1 0x20 ADD SWAP2 POP POP PUSH1 0x40 MLOAD DUP1 SWAP2 SUB SWAP1 RETURN JUMPDEST PUSH2 0x452 PUSH1 0x4 DUP1 CALLDATASIZE SUB PUSH1 0x40 DUP2 LT ISZERO PUSH2 0x41C JUMPI PUSH1 0x0 DUP1 REVERT JUMPDEST DUP2 ADD SWAP1 DUP1 DUP1 CALLDATALOAD PUSH20 0xFFFFFFFFFFFFFFFFFFFFFFFFFFFFFFFFFFFFFFFF AND SWAP1 PUSH1 0x20 ADD SWAP1 SWAP3 SWAP2 SWAP1 DUP1 CALLDATALOAD SWAP1 PUSH1 0x20 ADD SWAP1 SWAP3 SWAP2 SWAP1 POP POP POP PUSH2 0x908 JUMP JUMPDEST PUSH1 0x40 MLOAD DUP1 DUP3 ISZERO ISZERO ISZERO ISZERO DUP2 MSTORE PUSH1 0x20 ADD SWAP2 POP POP PUSH1 0x40 MLOAD DUP1 SWAP2 SUB SWAP1 RETURN JUMPDEST PUSH2 0x4CE PUSH1 0x4 DUP1 CALLDATASIZE SUB PUSH1 0x40 DUP2 LT ISZERO PUSH2 0x482 JUMPI PUSH1 0x0 DUP1 REVERT JUMPDEST DUP2 ADD SWAP1 DUP1 DUP1 CALLDATALOAD PUSH20 0xFFFFFFFFFFFFFFFFFFFFFFFFFFFFFFFFFFFFFFFF AND SWAP1 PUSH1 0x20 ADD SWAP1 SWAP3 SWAP2 SWAP1 DUP1 CALLDATALOAD PUSH20 0xFFFFFFFFFFFFFFFFFFFFFFFFFFFFFFFFFFFFFFFF AND SWAP1 PUSH1 0x20 ADD SWAP1 SWAP3 SWAP2 SWAP1 POP POP POP PUSH2 0x926 JUMP JUMPDEST PUSH1 0x40 MLOAD DUP1 DUP3 DUP2 MSTORE PUSH1 0x20 ADD SWAP2 POP POP PUSH1 0x40 MLOAD DUP1 SWAP2 SUB SWAP1 RETURN JUMPDEST PUSH1 0x60 PUSH1 0x3 DUP1 SLOAD PUSH1 0x1 DUP2 PUSH1 0x1 AND ISZERO PUSH2 0x100 MUL SUB AND PUSH1 0x2 SWAP1 DIV DUP1 PUSH1 0x1F ADD PUSH1 0x20 DUP1 SWAP2 DIV MUL PUSH1 0x20 ADD PUSH1 0x40 MLOAD SWAP1 DUP2 ADD PUSH1 0x40 MSTORE DUP1 SWAP3 SWAP2 SWAP1 DUP2 DUP2 MSTORE PUSH1 0x20 ADD DUP3 DUP1 SLOAD PUSH1 0x1 DUP2 PUSH1 0x1 AND ISZERO PUSH2 0x100 MUL SUB AND PUSH1 0x2 SWAP1 DIV DUP1 ISZERO PUSH2 0x57C JUMPI DUP1 PUSH1 0x1F LT PUSH2 0x551 JUMPI PUSH2 0x100 DUP1 DUP4 SLOAD DIV MUL DUP4 MSTORE SWAP2 PUSH1 0x20 ADD SWAP2 PUSH2 0x57C JUMP JUMPDEST DUP3 ADD SWAP2 SWAP1 PUSH1 0x0 MSTORE PUSH1 0x20 PUSH1 0x0 KECCAK256 SWAP1 JUMPDEST DUP2 SLOAD DUP2 MSTORE SWAP1 PUSH1 0x1 ADD SWAP1 PUSH1 0x20 ADD DUP1 DUP4 GT PUSH2 0x55F JUMPI DUP3 SWAP1 SUB PUSH1 0x1F AND DUP3 ADD SWAP2 JUMPDEST POP POP POP POP POP SWAP1 POP SWAP1 JUMP JUMPDEST PUSH1 0x0 PUSH2 0x59A PUSH2 0x593 PUSH2 0x9AD JUMP JUMPDEST DUP5 DUP5 PUSH2 0x9B5 JUMP JUMPDEST PUSH1 0x1 SWAP1 POP SWAP3 SWAP2 POP POP JUMP JUMPDEST PUSH1 0x0 PUSH1 0x2 SLOAD SWAP1 POP SWAP1 JUMP JUMPDEST PUSH1 0x0 PUSH2 0x5BB DUP5 DUP5 DUP5 PUSH2 0xBAC JUMP JUMPDEST PUSH2 0x67C DUP5 PUSH2 0x5C7 PUSH2 0x9AD JUMP JUMPDEST PUSH2 0x677 DUP6 PUSH1 0x40 MLOAD DUP1 PUSH1 0x60 ADD PUSH1 0x40 MSTORE DUP1 PUSH1 0x28 DUP2 MSTORE PUSH1 0x20 ADD PUSH2 0x1026 PUSH1 0x28 SWAP2 CODECOPY PUSH1 0x1 PUSH1 0x0 DUP12 PUSH20 0xFFFFFFFFFFFFFFFFFFFFFFFFFFFFFFFFFFFFFFFF AND PUSH20 0xFFFFFFFFFFFFFFFFFFFFFFFFFFFFFFFFFFFFFFFF AND DUP2 MSTORE PUSH1 0x20 ADD SWAP1 DUP2 MSTORE PUSH1 0x20 ADD PUSH1 0x0 KECCAK256 PUSH1 0x0 PUSH2 0x62D PUSH2 0x9AD JUMP JUMPDEST PUSH20 0xFFFFFFFFFFFFFFFFFFFFFFFFFFFFFFFFFFFFFFFF AND PUSH20 0xFFFFFFFFFFFFFFFFFFFFFFFFFFFFFFFFFFFFFFFF AND DUP2 MSTORE PUSH1 0x20 ADD SWAP1 DUP2 MSTORE PUSH1 0x20 ADD PUSH1 0x0 KECCAK256 SLOAD PUSH2 0xE6D SWAP1 SWAP3 SWAP2 SWAP1 PUSH4 0xFFFFFFFF AND JUMP JUMPDEST PUSH2 0x9B5 JUMP JUMPDEST PUSH1 0x1 SWAP1 POP SWAP4 SWAP3 POP POP POP JUMP JUMPDEST PUSH1 0x0 PUSH1 0x5 PUSH1 0x0 SWAP1 SLOAD SWAP1 PUSH2 0x100 EXP SWAP1 DIV PUSH1 0xFF AND SWAP1 POP SWAP1 JUMP JUMPDEST PUSH1 0x0 PUSH2 0x747 PUSH2 0x6AB PUSH2 0x9AD JUMP JUMPDEST DUP5 PUSH2 0x742 DUP6 PUSH1 0x1 PUSH1 0x0 PUSH2 0x6BC PUSH2 0x9AD JUMP JUMPDEST PUSH20 0xFFFFFFFFFFFFFFFFFFFFFFFFFFFFFFFFFFFFFFFF AND PUSH20 0xFFFFFFFFFFFFFFFFFFFFFFFFFFFFFFFFFFFFFFFF AND DUP2 MSTORE PUSH1 0x20 ADD SWAP1 DUP2 MSTORE PUSH1 0x20 ADD PUSH1 0x0 KECCAK256 PUSH1 0x0 DUP10 PUSH20 0xFFFFFFFFFFFFFFFFFFFFFFFFFFFFFFFFFFFFFFFF AND PUSH20 0xFFFFFFFFFFFFFFFFFFFFFFFFFFFFFFFFFFFFFFFF AND DUP2 MSTORE PUSH1 0x20 ADD SWAP1 DUP2 MSTORE PUSH1 0x20 ADD PUSH1 0x0 KECCAK256 SLOAD PUSH2 0xF2D SWAP1 SWAP2 SWAP1 PUSH4 0xFFFFFFFF AND JUMP JUMPDEST PUSH2 0x9B5 JUMP JUMPDEST PUSH1 0x1 SWAP1 POP SWAP3 SWAP2 POP POP JUMP JUMPDEST PUSH1 0x0 DUP1 PUSH1 0x0 DUP4 PUSH20 0xFFFFFFFFFFFFFFFFFFFFFFFFFFFFFFFFFFFFFFFF AND PUSH20 0xFFFFFFFFFFFFFFFFFFFFFFFFFFFFFFFFFFFFFFFF AND DUP2 MSTORE PUSH1 0x20 ADD SWAP1 DUP2 MSTORE PUSH1 0x20 ADD PUSH1 0x0 KECCAK256 SLOAD SWAP1 POP SWAP2 SWAP1 POP JUMP JUMPDEST PUSH1 0x60 PUSH1 0x4 DUP1 SLOAD PUSH1 0x1 DUP2 PUSH1 0x1 AND ISZERO PUSH2 0x100 MUL SUB AND PUSH1 0x2 SWAP1 DIV DUP1 PUSH1 0x1F ADD PUSH1 0x20 DUP1 SWAP2 DIV MUL PUSH1 0x20 ADD PUSH1 0x40 MLOAD SWAP1 DUP2 ADD PUSH1 0x40 MSTORE DUP1 SWAP3 SWAP2 SWAP1 DUP2 DUP2 MSTORE PUSH1 0x20 ADD DUP3 DUP1 SLOAD PUSH1 0x1 DUP2 PUSH1 0x1 AND ISZERO PUSH2 0x100 MUL SUB AND PUSH1 0x2 SWAP1 DIV DUP1 ISZERO PUSH2 0x831 JUMPI DUP1 PUSH1 0x1F LT PUSH2 0x806 JUMPI PUSH2 0x100 DUP1 DUP4 SLOAD DIV MUL DUP4 MSTORE SWAP2 PUSH1 0x20 ADD SWAP2 PUSH2 0x831 JUMP JUMPDEST DUP3 ADD SWAP2 SWAP1 PUSH1 0x0 MSTORE PUSH1 0x20 PUSH1 0x0 KECCAK256 SWAP1 JUMPDEST DUP2 SLOAD DUP2 MSTORE SWAP1 PUSH1 0x1 ADD SWAP1 PUSH1 0x20 ADD DUP1 DUP4 GT PUSH2 0x814 JUMPI DUP3 SWAP1 SUB PUSH1 0x1F AND DUP3 ADD SWAP2 JUMPDEST POP POP POP POP POP SWAP1 POP SWAP1 JUMP JUMPDEST PUSH1 0x0 PUSH2 0x8FE PUSH2 0x848 PUSH2 0x9AD JUMP JUMPDEST DUP5 PUSH2 0x8F9 DUP6 PUSH1 0x40 MLOAD DUP1 PUSH1 0x60 ADD PUSH1 0x40 MSTORE DUP1 PUSH1 0x25 DUP2 MSTORE PUSH1 0x20 ADD PUSH2 0x1097 PUSH1 0x25 SWAP2 CODECOPY PUSH1 0x1 PUSH1 0x0 PUSH2 0x872 PUSH2 0x9AD JUMP JUMPDEST PUSH20 0xFFFFFFFFFFFFFFFFFFFFFFFFFFFFFFFFFFFFFFFF AND PUSH20 0xFFFFFFFFFFFFFFFFFFFFFFFFFFFFFFFFFFFFFFFF AND DUP2 MSTORE PUSH1 0x20 ADD SWAP1 DUP2 MSTORE PUSH1 0x20 ADD PUSH1 0x0 KECCAK256 PUSH1 0x0 DUP11 PUSH20 0xFFFFFFFFFFFFFFFFFFFFFFFFFFFFFFFFFFFFFFFF AND PUSH20 0xFFFFFFFFFFFFFFFFFFFFFFFFFFFFFFFFFFFFFFFF AND DUP2 MSTORE PUSH1 0x20 ADD SWAP1 DUP2 MSTORE PUSH1 0x20 ADD PUSH1 0x0 KECCAK256 SLOAD PUSH2 0xE6D SWAP1 SWAP3 SWAP2 SWAP1 PUSH4 0xFFFFFFFF AND JUMP JUMPDEST PUSH2 0x9B5 JUMP JUMPDEST PUSH1 0x1 SWAP1 POP SWAP3 SWAP2 POP POP JUMP JUMPDEST PUSH1 0x0 PUSH2 0x91C PUSH2 0x915 PUSH2 0x9AD JUMP JUMPDEST DUP5 DUP5 PUSH2 0xBAC JUMP JUMPDEST PUSH1 0x1 SWAP1 POP SWAP3 SWAP2 POP POP JUMP JUMPDEST PUSH1 0x0 PUSH1 0x1 PUSH1 0x0 DUP5 PUSH20 0xFFFFFFFFFFFFFFFFFFFFFFFFFFFFFFFFFFFFFFFF AND PUSH20 0xFFFFFFFFFFFFFFFFFFFFFFFFFFFFFFFFFFFFFFFF AND DUP2 MSTORE PUSH1 0x20 ADD SWAP1 DUP2 MSTORE PUSH1 0x20 ADD PUSH1 0x0 KECCAK256 PUSH1 0x0 DUP4 PUSH20 0xFFFFFFFFFFFFFFFFFFFFFFFFFFFFFFFFFFFFFFFF AND PUSH20 0xFFFFFFFFFFFFFFFFFFFFFFFFFFFFFFFFFFFFFFFF AND DUP2 MSTORE PUSH1 0x20 ADD SWAP1 DUP2 MSTORE PUSH1 0x20 ADD PUSH1 0x0 KECCAK256 SLOAD SWAP1 POP SWAP3 SWAP2 POP POP JUMP JUMPDEST PUSH1 0x0 CALLER SWAP1 POP SWAP1 JUMP JUMPDEST PUSH1 0x0 PUSH20 0xFFFFFFFFFFFFFFFFFFFFFFFFFFFFFFFFFFFFFFFF AND DUP4 PUSH20 0xFFFFFFFFFFFFFFFFFFFFFFFFFFFFFFFFFFFFFFFF AND EQ ISZERO PUSH2 0xA3B JUMPI PUSH1 0x40 MLOAD PUSH32 0x8C379A000000000000000000000000000000000000000000000000000000000 DUP2 MSTORE PUSH1 0x4 ADD DUP1 DUP1 PUSH1 0x20 ADD DUP3 DUP2 SUB DUP3 MSTORE PUSH1 0x24 DUP2 MSTORE PUSH1 0x20 ADD DUP1 PUSH2 0x1073 PUSH1 0x24 SWAP2 CODECOPY PUSH1 0x40 ADD SWAP2 POP POP PUSH1 0x40 MLOAD DUP1 SWAP2 SUB SWAP1 REVERT JUMPDEST PUSH1 0x0 PUSH20 0xFFFFFFFFFFFFFFFFFFFFFFFFFFFFFFFFFFFFFFFF AND DUP3 PUSH20 0xFFFFFFFFFFFFFFFFFFFFFFFFFFFFFFFFFFFFFFFF AND EQ ISZERO PUSH2 0xAC1 JUMPI PUSH1 0x40 MLOAD PUSH32 0x8C379A000000000000000000000000000000000000000000000000000000000 DUP2 MSTORE PUSH1 0x4 ADD DUP1 DUP1 PUSH1 0x20 ADD DUP3 DUP2 SUB DUP3 MSTORE PUSH1 0x22 DUP2 MSTORE PUSH1 0x20 ADD DUP1 PUSH2 0xFDE PUSH1 0x22 SWAP2 CODECOPY PUSH1 0x40 ADD SWAP2 POP POP PUSH1 0x40 MLOAD DUP1 SWAP2 SUB SWAP1 REVERT JUMPDEST DUP1 PUSH1 0x1 PUSH1 0x0 DUP6 PUSH20 0xFFFFFFFFFFFFFFFFFFFFFFFFFFFFFFFFFFFFFFFF AND PUSH20 0xFFFFFFFFFFFFFFFFFFFFFFFFFFFFFFFFFFFFFFFF AND DUP2 MSTORE PUSH1 0x20 ADD SWAP1 DUP2 MSTORE PUSH1 0x20 ADD PUSH1 0x0 KECCAK256 PUSH1 0x0 DUP5 PUSH20 0xFFFFFFFFFFFFFFFFFFFFFFFFFFFFFFFFFFFFFFFF AND PUSH20 0xFFFFFFFFFFFFFFFFFFFFFFFFFFFFFFFFFFFFFFFF AND DUP2 MSTORE PUSH1 0x20 ADD SWAP1 DUP2 MSTORE PUSH1 0x20 ADD PUSH1 0x0 KECCAK256 DUP2 SWAP1 SSTORE POP DUP2 PUSH20 0xFFFFFFFFFFFFFFFFFFFFFFFFFFFFFFFFFFFFFFFF AND DUP4 PUSH20 0xFFFFFFFFFFFFFFFFFFFFFFFFFFFFFFFFFFFFFFFF AND PUSH32 0x8C5BE1E5EBEC7D5BD14F71427D1E84F3DD0314C0F7B2291E5B200AC8C7C3B925 DUP4 PUSH1 0x40 MLOAD DUP1 DUP3 DUP2 MSTORE PUSH1 0x20 ADD SWAP2 POP POP PUSH1 0x40 MLOAD DUP1 SWAP2 SUB SWAP1 LOG3 POP POP POP JUMP JUMPDEST PUSH1 0x0 PUSH20 0xFFFFFFFFFFFFFFFFFFFFFFFFFFFFFFFFFFFFFFFF AND DUP4 PUSH20 0xFFFFFFFFFFFFFFFFFFFFFFFFFFFFFFFFFFFFFFFF AND EQ ISZERO PUSH2 0xC32 JUMPI PUSH1 0x40 MLOAD PUSH32 0x8C379A000000000000000000000000000000000000000000000000000000000 DUP2 MSTORE PUSH1 0x4 ADD DUP1 DUP1 PUSH1 0x20 ADD DUP3 DUP2 SUB DUP3 MSTORE PUSH1 0x25 DUP2 MSTORE PUSH1 0x20 ADD DUP1 PUSH2 0x104E PUSH1 0x25 SWAP2 CODECOPY PUSH1 0x40 ADD SWAP2 POP POP PUSH1 0x40 MLOAD DUP1 SWAP2 SUB SWAP1 REVERT JUMPDEST PUSH1 0x0 PUSH20 0xFFFFFFFFFFFFFFFFFFFFFFFFFFFFFFFFFFFFFFFF AND DUP3 PUSH20 0xFFFFFFFFFFFFFFFFFFFFFFFFFFFFFFFFFFFFFFFF AND EQ ISZERO PUSH2 0xCB8 JUMPI PUSH1 0x40 MLOAD PUSH32 0x8C379A000000000000000000000000000000000000000000000000000000000 DUP2 MSTORE PUSH1 0x4 ADD DUP1 DUP1 PUSH1 0x20 ADD DUP3 DUP2 SUB DUP3 MSTORE PUSH1 0x23 DUP2 MSTORE PUSH1 0x20 ADD DUP1 PUSH2 0xFBB PUSH1 0x23 SWAP2 CODECOPY PUSH1 0x40 ADD SWAP2 POP POP PUSH1 0x40 MLOAD DUP1 SWAP2 SUB SWAP1 REVERT JUMPDEST PUSH2 0xCC3 DUP4 DUP4 DUP4 PUSH2 0xFB5 JUMP JUMPDEST PUSH2 0xD2E DUP2 PUSH1 0x40 MLOAD DUP1 PUSH1 0x60 ADD PUSH1 0x40 MSTORE DUP1 PUSH1 0x26 DUP2 MSTORE PUSH1 0x20 ADD PUSH2 0x1000 PUSH1 0x26 SWAP2 CODECOPY PUSH1 0x0 DUP1 DUP8 PUSH20 0xFFFFFFFFFFFFFFFFFFFFFFFFFFFFFFFFFFFFFFFF AND PUSH20 0xFFFFFFFFFFFFFFFFFFFFFFFFFFFFFFFFFFFFFFFF AND DUP2 MSTORE PUSH1 0x20 ADD SWAP1 DUP2 MSTORE PUSH1 0x20 ADD PUSH1 0x0 KECCAK256 SLOAD PUSH2 0xE6D SWAP1 SWAP3 SWAP2 SWAP1 PUSH4 0xFFFFFFFF AND JUMP JUMPDEST PUSH1 0x0 DUP1 DUP6 PUSH20 0xFFFFFFFFFFFFFFFFFFFFFFFFFFFFFFFFFFFFFFFF AND PUSH20 0xFFFFFFFFFFFFFFFFFFFFFFFFFFFFFFFFFFFFFFFF AND DUP2 MSTORE PUSH1 0x20 ADD SWAP1 DUP2 MSTORE PUSH1 0x20 ADD PUSH1 0x0 KECCAK256 DUP2 SWAP1 SSTORE POP PUSH2 0xDC1 DUP2 PUSH1 0x0 DUP1 DUP6 PUSH20 0xFFFFFFFFFFFFFFFFFFFFFFFFFFFFFFFFFFFFFFFF AND PUSH20 0xFFFFFFFFFFFFFFFFFFFFFFFFFFFFFFFFFFFFFFFF AND DUP2 MSTORE PUSH1 0x20 ADD SWAP1 DUP2 MSTORE PUSH1 0x20 ADD PUSH1 0x0 KECCAK256 SLOAD PUSH2 0xF2D SWAP1 SWAP2 SWAP1 PUSH4 0xFFFFFFFF AND JUMP JUMPDEST PUSH1 0x0 DUP1 DUP5 PUSH20 0xFFFFFFFFFFFFFFFFFFFFFFFFFFFFFFFFFFFFFFFF AND PUSH20 0xFFFFFFFFFFFFFFFFFFFFFFFFFFFFFFFFFFFFFFFF AND DUP2 MSTORE PUSH1 0x20 ADD SWAP1 DUP2 MSTORE PUSH1 0x20 ADD PUSH1 0x0 KECCAK256 DUP2 SWAP1 SSTORE POP DUP2 PUSH20 0xFFFFFFFFFFFFFFFFFFFFFFFFFFFFFFFFFFFFFFFF AND DUP4 PUSH20 0xFFFFFFFFFFFFFFFFFFFFFFFFFFFFFFFFFFFFFFFF AND PUSH32 0xDDF252AD1BE2C89B69C2B068FC378DAA952BA7F163C4A11628F55A4DF523B3EF DUP4 PUSH1 0x40 MLOAD DUP1 DUP3 DUP2 MSTORE PUSH1 0x20 ADD SWAP2 POP POP PUSH1 0x40 MLOAD DUP1 SWAP2 SUB SWAP1 LOG3 POP POP POP JUMP JUMPDEST PUSH1 0x0 DUP4 DUP4 GT ISZERO DUP3 SWAP1 PUSH2 0xF1A JUMPI PUSH1 0x40 MLOAD PUSH32 0x8C379A000000000000000000000000000000000000000000000000000000000 DUP2 MSTORE PUSH1 0x4 ADD DUP1 DUP1 PUSH1 0x20 ADD DUP3 DUP2 SUB DUP3 MSTORE DUP4 DUP2 DUP2 MLOAD DUP2 MSTORE PUSH1 0x20 ADD SWAP2 POP DUP1 MLOAD SWAP1 PUSH1 0x20 ADD SWAP1 DUP1 DUP4 DUP4 PUSH1 0x0 JUMPDEST DUP4 DUP2 LT ISZERO PUSH2 0xEDF JUMPI DUP1 DUP3 ADD MLOAD DUP2 DUP5 ADD MSTORE PUSH1 0x20 DUP2 ADD SWAP1 POP PUSH2 0xEC4 JUMP JUMPDEST POP POP POP POP SWAP1 POP SWAP1 DUP2 ADD SWAP1 PUSH1 0x1F AND DUP1 ISZERO PUSH2 0xF0C JUMPI DUP1 DUP3 SUB DUP1 MLOAD PUSH1 0x1 DUP4 PUSH1 0x20 SUB PUSH2 0x100 EXP SUB NOT AND DUP2 MSTORE PUSH1 0x20 ADD SWAP2 POP JUMPDEST POP SWAP3 POP POP POP PUSH1 0x40 MLOAD DUP1 SWAP2 SUB SWAP1 REVERT JUMPDEST POP PUSH1 0x0 DUP4 DUP6 SUB SWAP1 POP DUP1 SWAP2 POP POP SWAP4 SWAP3 POP POP POP JUMP JUMPDEST PUSH1 0x0 DUP1 DUP3 DUP5 ADD SWAP1 POP DUP4 DUP2 LT ISZERO PUSH2 0xFAB JUMPI PUSH1 0x40 MLOAD PUSH32 0x8C379A000000000000000000000000000000000000000000000000000000000 DUP2 MSTORE PUSH1 0x4 ADD DUP1 DUP1 PUSH1 0x20 ADD DUP3 DUP2 SUB DUP3 MSTORE PUSH1 0x1B DUP2 MSTORE PUSH1 0x20 ADD DUP1 PUSH32 0x536166654D6174683A206164646974696F6E206F766572666C6F770000000000 DUP2 MSTORE POP PUSH1 0x20 ADD SWAP2 POP POP PUSH1 0x40 MLOAD DUP1 SWAP2 SUB SWAP1 REVERT JUMPDEST DUP1 SWAP2 POP POP SWAP3 SWAP2 POP POP JUMP JUMPDEST POP POP POP JUMP INVALID GASLIMIT MSTORE NUMBER ORIGIN ADDRESS GASPRICE KECCAK256 PUSH21 0x72616E7366657220746F20746865207A65726F2061 PUSH5 0x6472657373 GASLIMIT MSTORE NUMBER ORIGIN ADDRESS GASPRICE KECCAK256 PUSH2 0x7070 PUSH19 0x6F766520746F20746865207A65726F20616464 PUSH19 0x65737345524332303A207472616E7366657220 PUSH2 0x6D6F PUSH22 0x6E7420657863656564732062616C616E636545524332 ADDRESS GASPRICE KECCAK256 PUSH21 0x72616E7366657220616D6F756E7420657863656564 PUSH20 0x20616C6C6F77616E636545524332303A20747261 PUSH15 0x736665722066726F6D20746865207A PUSH6 0x726F20616464 PUSH19 0x65737345524332303A20617070726F76652066 PUSH19 0x6F6D20746865207A65726F2061646472657373 GASLIMIT MSTORE NUMBER ORIGIN ADDRESS GASPRICE KECCAK256 PUSH5 0x6563726561 PUSH20 0x656420616C6C6F77616E63652062656C6F77207A PUSH6 0x726FA2646970 PUSH7 0x73582212205279 MSTORE8 SWAP14 0x25 0xD1 0xE4 SWAP10 PUSH25 0x873CAE8094FF12F4196E60D13C9E476FDABFD3B65CDFA16473 PUSH16 0x6C634300060600330000000000000000 "
				},
				"gasEstimates": {
					"creation": {
						"codeDepositCost": "867400",
						"executionCost": "infinite",
						"totalCost": "infinite"
					},
					"external": {
						"allowance(address,address)": "1431",
						"approve(address,uint256)": "infinite",
						"balanceOf(address)": "1218",
						"decimals()": "1150",
						"decreaseAllowance(address,uint256)": "infinite",
						"increaseAllowance(address,uint256)": "infinite",
						"name()": "infinite",
						"symbol()": "infinite",
						"totalSupply()": "1058",
						"transfer(address,uint256)": "infinite",
						"transferFrom(address,address,uint256)": "infinite"
					},
					"internal": {
						"_approve(address,address,uint256)": "infinite",
						"_beforeTokenTransfer(address,address,uint256)": "15",
						"_burn(address,uint256)": "infinite",
						"_mint(address,uint256)": "infinite",
						"_setupDecimals(uint8)": "infinite",
						"_transfer(address,address,uint256)": "infinite",
						"setDecimals(uint8)": "infinite",
						"setName(string memory)": "infinite",
						"setSymbol(string memory)": "infinite"
					}
				},
				"methodIdentifiers": {
					"allowance(address,address)": "dd62ed3e",
					"approve(address,uint256)": "095ea7b3",
					"balanceOf(address)": "70a08231",
					"decimals()": "313ce567",
					"decreaseAllowance(address,uint256)": "a457c2d7",
					"increaseAllowance(address,uint256)": "39509351",
					"name()": "06fdde03",
					"symbol()": "95d89b41",
					"totalSupply()": "18160ddd",
					"transfer(address,uint256)": "a9059cbb",
					"transferFrom(address,address,uint256)": "23b872dd"
				}
			},
			"storageLayout": {
				"storage": [
					{
						"astId": 513,
						"contract": "contracts/polygonUsdt/Usdt-all-openzeppelin.sol:ERC20",
						"label": "_balances",
						"offset": 0,
						"slot": "0",
						"type": "t_mapping(t_address,t_uint256)"
					},
					{
						"astId": 519,
						"contract": "contracts/polygonUsdt/Usdt-all-openzeppelin.sol:ERC20",
						"label": "_allowances",
						"offset": 0,
						"slot": "1",
						"type": "t_mapping(t_address,t_mapping(t_address,t_uint256))"
					},
					{
						"astId": 521,
						"contract": "contracts/polygonUsdt/Usdt-all-openzeppelin.sol:ERC20",
						"label": "_totalSupply",
						"offset": 0,
						"slot": "2",
						"type": "t_uint256"
					},
					{
						"astId": 523,
						"contract": "contracts/polygonUsdt/Usdt-all-openzeppelin.sol:ERC20",
						"label": "_name",
						"offset": 0,
						"slot": "3",
						"type": "t_string_storage"
					},
					{
						"astId": 525,
						"contract": "contracts/polygonUsdt/Usdt-all-openzeppelin.sol:ERC20",
						"label": "_symbol",
						"offset": 0,
						"slot": "4",
						"type": "t_string_storage"
					},
					{
						"astId": 527,
						"contract": "contracts/polygonUsdt/Usdt-all-openzeppelin.sol:ERC20",
						"label": "_decimals",
						"offset": 0,
						"slot": "5",
						"type": "t_uint8"
					}
				],
				"types": {
					"t_address": {
						"encoding": "inplace",
						"label": "address",
						"numberOfBytes": "20"
					},
					"t_mapping(t_address,t_mapping(t_address,t_uint256))": {
						"encoding": "mapping",
						"key": "t_address",
						"label": "mapping(address => mapping(address => uint256))",
						"numberOfBytes": "32",
						"value": "t_mapping(t_address,t_uint256)"
					},
					"t_mapping(t_address,t_uint256)": {
						"encoding": "mapping",
						"key": "t_address",
						"label": "mapping(address => uint256)",
						"numberOfBytes": "32",
						"value": "t_uint256"
					},
					"t_string_storage": {
						"encoding": "bytes",
						"label": "string",
						"numberOfBytes": "32"
					},
					"t_uint256": {
						"encoding": "inplace",
						"label": "uint256",
						"numberOfBytes": "32"
					},
					"t_uint8": {
						"encoding": "inplace",
						"label": "uint8",
						"numberOfBytes": "1"
					}
				}
			},
			"userdoc": {
				"methods": {}
			}
		}
	}
}