{
	"contracts/polygonUsdt/Usdt-all-openzeppelin.sol": {
		"UChildERC20": {
			"abi": [
				{
					"inputs": [],
					"stateMutability": "nonpayable",
					"type": "constructor"
				},
				{
					"anonymous": false,
					"inputs": [
						{
							"indexed": true,
							"internalType": "address",
							"name": "owner",
							"type": "address"
						},
						{
							"indexed": true,
							"internalType": "address",
							"name": "spender",
							"type": "address"
						},
						{
							"indexed": false,
							"internalType": "uint256",
							"name": "value",
							"type": "uint256"
						}
					],
					"name": "Approval",
					"type": "event"
				},
				{
					"anonymous": false,
					"inputs": [
						{
							"indexed": false,
							"internalType": "address",
							"name": "userAddress",
							"type": "address"
						},
						{
							"indexed": false,
							"internalType": "address payable",
							"name": "relayerAddress",
							"type": "address"
						},
						{
							"indexed": false,
							"internalType": "bytes",
							"name": "functionSignature",
							"type": "bytes"
						}
					],
					"name": "MetaTransactionExecuted",
					"type": "event"
				},
				{
					"anonymous": false,
					"inputs": [
						{
							"indexed": true,
							"internalType": "bytes32",
							"name": "role",
							"type": "bytes32"
						},
						{
							"indexed": true,
							"internalType": "bytes32",
							"name": "previousAdminRole",
							"type": "bytes32"
						},
						{
							"indexed": true,
							"internalType": "bytes32",
							"name": "newAdminRole",
							"type": "bytes32"
						}
					],
					"name": "RoleAdminChanged",
					"type": "event"
				},
				{
					"anonymous": false,
					"inputs": [
						{
							"indexed": true,
							"internalType": "bytes32",
							"name": "role",
							"type": "bytes32"
						},
						{
							"indexed": true,
							"internalType": "address",
							"name": "account",
							"type": "address"
						},
						{
							"indexed": true,
							"internalType": "address",
							"name": "sender",
							"type": "address"
						}
					],
					"name": "RoleGranted",
					"type": "event"
				},
				{
					"anonymous": false,
					"inputs": [
						{
							"indexed": true,
							"internalType": "bytes32",
							"name": "role",
							"type": "bytes32"
						},
						{
							"indexed": true,
							"internalType": "address",
							"name": "account",
							"type": "address"
						},
						{
							"indexed": true,
							"internalType": "address",
							"name": "sender",
							"type": "address"
						}
					],
					"name": "RoleRevoked",
					"type": "event"
				},
				{
					"anonymous": false,
					"inputs": [
						{
							"indexed": true,
							"internalType": "address",
							"name": "from",
							"type": "address"
						},
						{
							"indexed": true,
							"internalType": "address",
							"name": "to",
							"type": "address"
						},
						{
							"indexed": false,
							"internalType": "uint256",
							"name": "value",
							"type": "uint256"
						}
					],
					"name": "Transfer",
					"type": "event"
				},
				{
					"inputs": [],
					"name": "CHILD_CHAIN_ID",
					"outputs": [
						{
							"internalType": "uint256",
							"name": "",
							"type": "uint256"
						}
					],
					"stateMutability": "view",
					"type": "function"
				},
				{
					"inputs": [],
					"name": "CHILD_CHAIN_ID_BYTES",
					"outputs": [
						{
							"internalType": "bytes",
							"name": "",
							"type": "bytes"
						}
					],
					"stateMutability": "view",
					"type": "function"
				},
				{
					"inputs": [],
					"name": "DEFAULT_ADMIN_ROLE",
					"outputs": [
						{
							"internalType": "bytes32",
							"name": "",
							"type": "bytes32"
						}
					],
					"stateMutability": "view",
					"type": "function"
				},
				{
					"inputs": [],
					"name": "DEPOSITOR_ROLE",
					"outputs": [
						{
							"internalType": "bytes32",
							"name": "",
							"type": "bytes32"
						}
					],
					"stateMutability": "view",
					"type": "function"
				},
				{
					"inputs": [],
					"name": "ERC712_VERSION",
					"outputs": [
						{
							"internalType": "string",
							"name": "",
							"type": "string"
						}
					],
					"stateMutability": "view",
					"type": "function"
				},
				{
					"inputs": [],
					"name": "ROOT_CHAIN_ID",
					"outputs": [
						{
							"internalType": "uint256",
							"name": "",
							"type": "uint256"
						}
					],
					"stateMutability": "view",
					"type": "function"
				},
				{
					"inputs": [],
					"name": "ROOT_CHAIN_ID_BYTES",
					"outputs": [
						{
							"internalType": "bytes",
							"name": "",
							"type": "bytes"
						}
					],
					"stateMutability": "view",
					"type": "function"
				},
				{
					"inputs": [
						{
							"internalType": "address",
							"name": "owner",
							"type": "address"
						},
						{
							"internalType": "address",
							"name": "spender",
							"type": "address"
						}
					],
					"name": "allowance",
					"outputs": [
						{
							"internalType": "uint256",
							"name": "",
							"type": "uint256"
						}
					],
					"stateMutability": "view",
					"type": "function"
				},
				{
					"inputs": [
						{
							"internalType": "address",
							"name": "spender",
							"type": "address"
						},
						{
							"internalType": "uint256",
							"name": "amount",
							"type": "uint256"
						}
					],
					"name": "approve",
					"outputs": [
						{
							"internalType": "bool",
							"name": "",
							"type": "bool"
						}
					],
					"stateMutability": "nonpayable",
					"type": "function"
				},
				{
					"inputs": [
						{
							"internalType": "address",
							"name": "account",
							"type": "address"
						}
					],
					"name": "balanceOf",
					"outputs": [
						{
							"internalType": "uint256",
							"name": "",
							"type": "uint256"
						}
					],
					"stateMutability": "view",
					"type": "function"
				},
				{
					"inputs": [
						{
							"internalType": "string",
							"name": "name_",
							"type": "string"
						}
					],
					"name": "changeName",
					"outputs": [],
					"stateMutability": "nonpayable",
					"type": "function"
				},
				{
					"inputs": [],
					"name": "decimals",
					"outputs": [
						{
							"internalType": "uint8",
							"name": "",
							"type": "uint8"
						}
					],
					"stateMutability": "view",
					"type": "function"
				},
				{
					"inputs": [
						{
							"internalType": "address",
							"name": "spender",
							"type": "address"
						},
						{
							"internalType": "uint256",
							"name": "subtractedValue",
							"type": "uint256"
						}
					],
					"name": "decreaseAllowance",
					"outputs": [
						{
							"internalType": "bool",
							"name": "",
							"type": "bool"
						}
					],
					"stateMutability": "nonpayable",
					"type": "function"
				},
				{
					"inputs": [
						{
							"internalType": "address",
							"name": "user",
							"type": "address"
						},
						{
							"internalType": "bytes",
							"name": "depositData",
							"type": "bytes"
						}
					],
					"name": "deposit",
					"outputs": [],
					"stateMutability": "nonpayable",
					"type": "function"
				},
				{
					"inputs": [
						{
							"internalType": "address",
							"name": "userAddress",
							"type": "address"
						},
						{
							"internalType": "bytes",
							"name": "functionSignature",
							"type": "bytes"
						},
						{
							"internalType": "bytes32",
							"name": "sigR",
							"type": "bytes32"
						},
						{
							"internalType": "bytes32",
							"name": "sigS",
							"type": "bytes32"
						},
						{
							"internalType": "uint8",
							"name": "sigV",
							"type": "uint8"
						}
					],
					"name": "executeMetaTransaction",
					"outputs": [
						{
							"internalType": "bytes",
							"name": "",
							"type": "bytes"
						}
					],
					"stateMutability": "payable",
					"type": "function"
				},
				{
					"inputs": [],
					"name": "getChainId",
					"outputs": [
						{
							"internalType": "uint256",
							"name": "",
							"type": "uint256"
						}
					],
					"stateMutability": "pure",
					"type": "function"
				},
				{
					"inputs": [],
					"name": "getDomainSeperator",
					"outputs": [
						{
							"internalType": "bytes32",
							"name": "",
							"type": "bytes32"
						}
					],
					"stateMutability": "view",
					"type": "function"
				},
				{
					"inputs": [
						{
							"internalType": "address",
							"name": "user",
							"type": "address"
						}
					],
					"name": "getNonce",
					"outputs": [
						{
							"internalType": "uint256",
							"name": "nonce",
							"type": "uint256"
						}
					],
					"stateMutability": "view",
					"type": "function"
				},
				{
					"inputs": [
						{
							"internalType": "bytes32",
							"name": "role",
							"type": "bytes32"
						}
					],
					"name": "getRoleAdmin",
					"outputs": [
						{
							"internalType": "bytes32",
							"name": "",
							"type": "bytes32"
						}
					],
					"stateMutability": "view",
					"type": "function"
				},
				{
					"inputs": [
						{
							"internalType": "bytes32",
							"name": "role",
							"type": "bytes32"
						},
						{
							"internalType": "uint256",
							"name": "index",
							"type": "uint256"
						}
					],
					"name": "getRoleMember",
					"outputs": [
						{
							"internalType": "address",
							"name": "",
							"type": "address"
						}
					],
					"stateMutability": "view",
					"type": "function"
				},
				{
					"inputs": [
						{
							"internalType": "bytes32",
							"name": "role",
							"type": "bytes32"
						}
					],
					"name": "getRoleMemberCount",
					"outputs": [
						{
							"internalType": "uint256",
							"name": "",
							"type": "uint256"
						}
					],
					"stateMutability": "view",
					"type": "function"
				},
				{
					"inputs": [
						{
							"internalType": "bytes32",
							"name": "role",
							"type": "bytes32"
						},
						{
							"internalType": "address",
							"name": "account",
							"type": "address"
						}
					],
					"name": "grantRole",
					"outputs": [],
					"stateMutability": "nonpayable",
					"type": "function"
				},
				{
					"inputs": [
						{
							"internalType": "bytes32",
							"name": "role",
							"type": "bytes32"
						},
						{
							"internalType": "address",
							"name": "account",
							"type": "address"
						}
					],
					"name": "hasRole",
					"outputs": [
						{
							"internalType": "bool",
							"name": "",
							"type": "bool"
						}
					],
					"stateMutability": "view",
					"type": "function"
				},
				{
					"inputs": [
						{
							"internalType": "address",
							"name": "spender",
							"type": "address"
						},
						{
							"internalType": "uint256",
							"name": "addedValue",
							"type": "uint256"
						}
					],
					"name": "increaseAllowance",
					"outputs": [
						{
							"internalType": "bool",
							"name": "",
							"type": "bool"
						}
					],
					"stateMutability": "nonpayable",
					"type": "function"
				},
				{
					"inputs": [
						{
							"internalType": "string",
							"name": "name_",
							"type": "string"
						},
						{
							"internalType": "string",
							"name": "symbol_",
							"type": "string"
						},
						{
							"internalType": "uint8",
							"name": "decimals_",
							"type": "uint8"
						},
						{
							"internalType": "address",
							"name": "childChainManager",
							"type": "address"
						}
					],
					"name": "initialize",
					"outputs": [],
					"stateMutability": "nonpayable",
					"type": "function"
				},
				{
					"inputs": [],
					"name": "name",
					"outputs": [
						{
							"internalType": "string",
							"name": "",
							"type": "string"
						}
					],
					"stateMutability": "view",
					"type": "function"
				},
				{
					"inputs": [
						{
							"internalType": "bytes32",
							"name": "role",
							"type": "bytes32"
						},
						{
							"internalType": "address",
							"name": "account",
							"type": "address"
						}
					],
					"name": "renounceRole",
					"outputs": [],
					"stateMutability": "nonpayable",
					"type": "function"
				},
				{
					"inputs": [
						{
							"internalType": "bytes32",
							"name": "role",
							"type": "bytes32"
						},
						{
							"internalType": "address",
							"name": "account",
							"type": "address"
						}
					],
					"name": "revokeRole",
					"outputs": [],
					"stateMutability": "nonpayable",
					"type": "function"
				},
				{
					"inputs": [],
					"name": "symbol",
					"outputs": [
						{
							"internalType": "string",
							"name": "",
							"type": "string"
						}
					],
					"stateMutability": "view",
					"type": "function"
				},
				{
					"inputs": [],
					"name": "totalSupply",
					"outputs": [
						{
							"internalType": "uint256",
							"name": "",
							"type": "uint256"
						}
					],
					"stateMutability": "view",
					"type": "function"
				},
				{
					"inputs": [
						{
							"internalType": "address",
							"name": "recipient",
							"type": "address"
						},
						{
							"internalType": "uint256",
							"name": "amount",
							"type": "uint256"
						}
					],
					"name": "transfer",
					"outputs": [
						{
							"internalType": "bool",
							"name": "",
							"type": "bool"
						}
					],
					"stateMutability": "nonpayable",
					"type": "function"
				},
				{
					"inputs": [
						{
							"internalType": "address",
							"name": "sender",
							"type": "address"
						},
						{
							"internalType": "address",
							"name": "recipient",
							"type": "address"
						},
						{
							"internalType": "uint256",
							"name": "amount",
							"type": "uint256"
						}
					],
					"name": "transferFrom",
					"outputs": [
						{
							"internalType": "bool",
							"name": "",
							"type": "bool"
						}
					],
					"stateMutability": "nonpayable",
					"type": "function"
				},
				{
					"inputs": [
						{
							"internalType": "uint256",
							"name": "amount",
							"type": "uint256"
						}
					],
					"name": "withdraw",
					"outputs": [],
					"stateMutability": "nonpayable",
					"type": "function"
				}
			],
			"devdoc": {
				"methods": {
					"allowance(address,address)": {
						"details": "See {IERC20-allowance}."
					},
					"approve(address,uint256)": {
						"details": "See {IERC20-approve}.     * Requirements:     * - `spender` cannot be the zero address."
					},
					"balanceOf(address)": {
						"details": "See {IERC20-balanceOf}."
					},
					"decimals()": {
						"details": "Returns the number of decimals used to get its user representation. For example, if `decimals` equals `2`, a balance of `505` tokens should be displayed to a user as `5,05` (`505 / 10 ** 2`).     * Tokens usually opt for a value of 18, imitating the relationship between Ether and Wei. This is the value {ERC20} uses, unless {_setupDecimals} is called.     * NOTE: This information is only used for _display_ purposes: it in no way affects any of the arithmetic of the contract, including {IERC20-balanceOf} and {IERC20-transfer}."
					},
					"decreaseAllowance(address,uint256)": {
						"details": "Atomically decreases the allowance granted to `spender` by the caller.     * This is an alternative to {approve} that can be used as a mitigation for problems described in {IERC20-approve}.     * Emits an {Approval} event indicating the updated allowance.     * Requirements:     * - `spender` cannot be the zero address. - `spender` must have allowance for the caller of at least `subtractedValue`."
					},
					"deposit(address,bytes)": {
						"details": "Should be callable only by ChildChainManager Should handle deposit by minting the required amount for user Make sure minting is done only by this function",
						"params": {
							"depositData": "abi encoded amount",
							"user": "user address for whom deposit is being done"
						}
					},
					"getRoleAdmin(bytes32)": {
						"details": "Returns the admin role that controls `role`. See {grantRole} and {revokeRole}.     * To change a role's admin, use {_setRoleAdmin}."
					},
					"getRoleMember(bytes32,uint256)": {
						"details": "Returns one of the accounts that have `role`. `index` must be a value between 0 and {getRoleMemberCount}, non-inclusive.     * Role bearers are not sorted in any particular way, and their ordering may change at any point.     * WARNING: When using {getRoleMember} and {getRoleMemberCount}, make sure you perform all queries on the same block. See the following https://forum.openzeppelin.com/t/iterating-over-elements-on-enumerableset-in-openzeppelin-contracts/2296[forum post] for more information."
					},
					"getRoleMemberCount(bytes32)": {
						"details": "Returns the number of accounts that have `role`. Can be used together with {getRoleMember} to enumerate all bearers of a role."
					},
					"grantRole(bytes32,address)": {
						"details": "Grants `role` to `account`.     * If `account` had not been already granted `role`, emits a {RoleGranted} event.     * Requirements:     * - the caller must have ``role``'s admin role."
					},
					"hasRole(bytes32,address)": {
						"details": "Returns `true` if `account` has been granted `role`."
					},
					"increaseAllowance(address,uint256)": {
						"details": "Atomically increases the allowance granted to `spender` by the caller.     * This is an alternative to {approve} that can be used as a mitigation for problems described in {IERC20-approve}.     * Emits an {Approval} event indicating the updated allowance.     * Requirements:     * - `spender` cannot be the zero address."
					},
					"initialize(string,string,uint8,address)": {
						"details": "meant to be called once immediately after deployment"
					},
					"name()": {
						"details": "Returns the name of the token."
					},
					"renounceRole(bytes32,address)": {
						"details": "Revokes `role` from the calling account.     * Roles are often managed via {grantRole} and {revokeRole}: this function's purpose is to provide a mechanism for accounts to lose their privileges if they are compromised (such as when a trusted device is misplaced).     * If the calling account had been granted `role`, emits a {RoleRevoked} event.     * Requirements:     * - the caller must be `account`."
					},
					"revokeRole(bytes32,address)": {
						"details": "Revokes `role` from `account`.     * If `account` had been granted `role`, emits a {RoleRevoked} event.     * Requirements:     * - the caller must have ``role``'s admin role."
					},
					"symbol()": {
						"details": "Returns the symbol of the token, usually a shorter version of the name."
					},
					"totalSupply()": {
						"details": "See {IERC20-totalSupply}."
					},
					"transfer(address,uint256)": {
						"details": "See {IERC20-transfer}.     * Requirements:     * - `recipient` cannot be the zero address. - the caller must have a balance of at least `amount`."
					},
					"transferFrom(address,address,uint256)": {
						"details": "See {IERC20-transferFrom}.     * Emits an {Approval} event indicating the updated allowance. This is not required by the EIP. See the note at the beginning of {ERC20};     * Requirements: - `sender` and `recipient` cannot be the zero address. - `sender` must have a balance of at least `amount`. - the caller must have allowance for ``sender``'s tokens of at least `amount`."
					},
					"withdraw(uint256)": {
						"details": "Should burn user's tokens. This transaction will be verified when exiting on root chain",
						"params": {
							"amount": "amount of tokens to withdraw"
						}
					}
				}
			},
			"evm": {
				"assembly": "    /* \"contracts/polygonUsdt/Usdt-all-openzeppelin.sol\":48856:51144  contract UChildERC20 is... */\n  mstore(0x40, 0x80)\n    /* \"contracts/polygonUsdt/Usdt-all-openzeppelin.sol\":42462:42467  false */\n  0x00\n    /* \"contracts/polygonUsdt/Usdt-all-openzeppelin.sol\":42448:42467  bool inited = false */\n  0x08\n  exp(0x0100, 0x00)\n  dup2\n  sload\n  dup2\n  0xff\n  mul\n  not\n  and\n  swap1\n  dup4\n  iszero\n  iszero\n  mul\n  or\n  swap1\n  sstore\n  pop\n    /* \"contracts/polygonUsdt/Usdt-all-openzeppelin.sol\":49077:49114  constructor() public ERC20(\"\", \"\") {} */\n  callvalue\n    /* \"--CODEGEN--\":5:14   */\n  dup1\n    /* \"--CODEGEN--\":2:4   */\n  iszero\n  tag_1\n  jumpi\n    /* \"--CODEGEN--\":27:28   */\n  0x00\n    /* \"--CODEGEN--\":24:25   */\n  dup1\n    /* \"--CODEGEN--\":17:29   */\n  revert\n    /* \"--CODEGEN--\":2:4   */\ntag_1:\n    /* \"contracts/polygonUsdt/Usdt-all-openzeppelin.sol\":49077:49114  constructor() public ERC20(\"\", \"\") {} */\n  pop\n    /* \"contracts/polygonUsdt/Usdt-all-openzeppelin.sol\":17453:17594  constructor (string memory name, string memory symbol) public {... */\n  mload(0x40)\n  dup1\n  0x20\n  add\n  0x40\n  mstore\n  dup1\n  0x00\n  dup2\n  mstore\n  pop\n  mload(0x40)\n  dup1\n  0x20\n  add\n  0x40\n  mstore\n  dup1\n  0x00\n  dup2\n  mstore\n  pop\n    /* \"contracts/polygonUsdt/Usdt-all-openzeppelin.sol\":17533:17537  name */\n  dup2\n    /* \"contracts/polygonUsdt/Usdt-all-openzeppelin.sol\":17525:17530  _name */\n  0x03\n    /* \"contracts/polygonUsdt/Usdt-all-openzeppelin.sol\":17525:17537  _name = name */\n  swap1\n  dup1\n  mload\n  swap1\n  0x20\n  add\n  swap1\n  tag_5\n  swap3\n  swap2\n  swap1\n  tag_6\n  jump\t// in\ntag_5:\n  pop\n    /* \"contracts/polygonUsdt/Usdt-all-openzeppelin.sol\":17557:17563  symbol */\n  dup1\n    /* \"contracts/polygonUsdt/Usdt-all-openzeppelin.sol\":17547:17554  _symbol */\n  0x04\n    /* \"contracts/polygonUsdt/Usdt-all-openzeppelin.sol\":17547:17563  _symbol = symbol */\n  swap1\n  dup1\n  mload\n  swap1\n  0x20\n  add\n  swap1\n  tag_7\n  swap3\n  swap2\n  swap1\n  tag_6\n  jump\t// in\ntag_7:\n  pop\n    /* \"contracts/polygonUsdt/Usdt-all-openzeppelin.sol\":17585:17587  18 */\n  0x12\n    /* \"contracts/polygonUsdt/Usdt-all-openzeppelin.sol\":17573:17582  _decimals */\n  0x05\n  0x00\n    /* \"contracts/polygonUsdt/Usdt-all-openzeppelin.sol\":17573:17587  _decimals = 18 */\n  0x0100\n  exp\n  dup2\n  sload\n  dup2\n  0xff\n  mul\n  not\n  and\n  swap1\n  dup4\n  0xff\n  and\n  mul\n  or\n  swap1\n  sstore\n  pop\n    /* \"contracts/polygonUsdt/Usdt-all-openzeppelin.sol\":17453:17594  constructor (string memory name, string memory symbol) public {... */\n  pop\n  pop\n    /* \"contracts/polygonUsdt/Usdt-all-openzeppelin.sol\":48856:51144  contract UChildERC20 is... */\n  jump(tag_9)\ntag_6:\n  dup3\n  dup1\n  sload\n  0x01\n  dup2\n  0x01\n  and\n  iszero\n  0x0100\n  mul\n  sub\n  and\n  0x02\n  swap1\n  div\n  swap1\n  0x00\n  mstore\n  keccak256(0x00, 0x20)\n  swap1\n  0x1f\n  add\n  0x20\n  swap1\n  div\n  dup2\n  add\n  swap3\n  dup3\n  0x1f\n  lt\n  tag_11\n  jumpi\n  dup1\n  mload\n  not(0xff)\n  and\n  dup4\n  dup1\n  add\n  or\n  dup6\n  sstore\n  jump(tag_10)\ntag_11:\n  dup3\n  dup1\n  add\n  0x01\n  add\n  dup6\n  sstore\n  dup3\n  iszero\n  tag_10\n  jumpi\n  swap2\n  dup3\n  add\ntag_12:\n  dup3\n  dup2\n  gt\n  iszero\n  tag_13\n  jumpi\n  dup3\n  mload\n  dup3\n  sstore\n  swap2\n  0x20\n  add\n  swap2\n  swap1\n  0x01\n  add\n  swap1\n  jump(tag_12)\ntag_13:\ntag_10:\n  pop\n  swap1\n  pop\n  tag_14\n  swap2\n  swap1\n  tag_15\n  jump\t// in\ntag_14:\n  pop\n  swap1\n  jump\t// out\ntag_15:\n  tag_16\n  swap2\n  swap1\ntag_17:\n  dup1\n  dup3\n  gt\n  iszero\n  tag_18\n  jumpi\n  0x00\n  dup2\n  0x00\n  swap1\n  sstore\n  pop\n  0x01\n  add\n  jump(tag_17)\ntag_18:\n  pop\n  swap1\n  jump\ntag_16:\n  swap1\n  jump\t// out\ntag_9:\n  dataSize(sub_0)\n  dup1\n  dataOffset(sub_0)\n  0x00\n  codecopy\n  0x00\n  return\nstop\n\nsub_0: assembly {\n        /* \"contracts/polygonUsdt/Usdt-all-openzeppelin.sol\":48856:51144  contract UChildERC20 is... */\n      mstore(0x40, 0x80)\n      jumpi(tag_1, lt(calldatasize, 0x04))\n      shr(0xe0, calldataload(0x00))\n      dup1\n      0x39509351\n      gt\n      tag_35\n      jumpi\n      dup1\n      0xa217fddf\n      gt\n      tag_36\n      jumpi\n      dup1\n      0xca15c873\n      gt\n      tag_37\n      jumpi\n      dup1\n      0xca15c873\n      eq\n      tag_30\n      jumpi\n      dup1\n      0xcf2c52cb\n      eq\n      tag_31\n      jumpi\n      dup1\n      0xd547741f\n      eq\n      tag_32\n      jumpi\n      dup1\n      0xdd62ed3e\n      eq\n      tag_33\n      jumpi\n      dup1\n      0xde7ea79d\n      eq\n      tag_34\n      jumpi\n      jump(tag_1)\n    tag_37:\n      dup1\n      0xa217fddf\n      eq\n      tag_26\n      jumpi\n      dup1\n      0xa3b0b5a3\n      eq\n      tag_27\n      jumpi\n      dup1\n      0xa457c2d7\n      eq\n      tag_28\n      jumpi\n      dup1\n      0xa9059cbb\n      eq\n      tag_29\n      jumpi\n      jump(tag_1)\n    tag_36:\n      dup1\n      0x8acfcaf7\n      gt\n      tag_38\n      jumpi\n      dup1\n      0x8acfcaf7\n      eq\n      tag_22\n      jumpi\n      dup1\n      0x9010d07c\n      eq\n      tag_23\n      jumpi\n      dup1\n      0x91d14854\n      eq\n      tag_24\n      jumpi\n      dup1\n      0x95d89b41\n      eq\n      tag_25\n      jumpi\n      jump(tag_1)\n    tag_38:\n      dup1\n      0x39509351\n      eq\n      tag_18\n      jumpi\n      dup1\n      0x5353a2d8\n      eq\n      tag_19\n      jumpi\n      dup1\n      0x626381a0\n      eq\n      tag_20\n      jumpi\n      dup1\n      0x70a08231\n      eq\n      tag_21\n      jumpi\n      jump(tag_1)\n    tag_35:\n      dup1\n      0x23b872dd\n      gt\n      tag_39\n      jumpi\n      dup1\n      0x2f2ff15d\n      gt\n      tag_40\n      jumpi\n      dup1\n      0x2f2ff15d\n      eq\n      tag_14\n      jumpi\n      dup1\n      0x313ce567\n      eq\n      tag_15\n      jumpi\n      dup1\n      0x3408e470\n      eq\n      tag_16\n      jumpi\n      dup1\n      0x36568abe\n      eq\n      tag_17\n      jumpi\n      jump(tag_1)\n    tag_40:\n      dup1\n      0x23b872dd\n      eq\n      tag_10\n      jumpi\n      dup1\n      0x248a9ca3\n      eq\n      tag_11\n      jumpi\n      dup1\n      0x2d0335ab\n      eq\n      tag_12\n      jumpi\n      dup1\n      0x2e1a7d4d\n      eq\n      tag_13\n      jumpi\n      jump(tag_1)\n    tag_39:\n      dup1\n      0x0dd7531a\n      gt\n      tag_41\n      jumpi\n      dup1\n      0x0dd7531a\n      eq\n      tag_6\n      jumpi\n      dup1\n      0x0f7e5970\n      eq\n      tag_7\n      jumpi\n      dup1\n      0x18160ddd\n      eq\n      tag_8\n      jumpi\n      dup1\n      0x20379ee5\n      eq\n      tag_9\n      jumpi\n      jump(tag_1)\n    tag_41:\n      dup1\n      0x06fdde03\n      eq\n      tag_2\n      jumpi\n      dup1\n      0x095ea7b3\n      eq\n      tag_3\n      jumpi\n      dup1\n      0x0b54817c\n      eq\n      tag_4\n      jumpi\n      dup1\n      0x0c53c51c\n      eq\n      tag_5\n      jumpi\n    tag_1:\n        /* \"--CODEGEN--\":12:13   */\n      0x00\n        /* \"--CODEGEN--\":9:10   */\n      dup1\n        /* \"--CODEGEN--\":2:14   */\n      revert\n        /* \"contracts/polygonUsdt/Usdt-all-openzeppelin.sol\":17659:17740  function name() public view returns (string memory) {... */\n    tag_2:\n      callvalue\n        /* \"--CODEGEN--\":5:14   */\n      dup1\n        /* \"--CODEGEN--\":2:4   */\n      iszero\n      tag_42\n      jumpi\n        /* \"--CODEGEN--\":27:28   */\n      0x00\n        /* \"--CODEGEN--\":24:25   */\n      dup1\n        /* \"--CODEGEN--\":17:29   */\n      revert\n        /* \"--CODEGEN--\":2:4   */\n    tag_42:\n        /* \"contracts/polygonUsdt/Usdt-all-openzeppelin.sol\":17659:17740  function name() public view returns (string memory) {... */\n      pop\n      tag_43\n      tag_44\n      jump\t// in\n    tag_43:\n      mload(0x40)\n      dup1\n      dup1\n      0x20\n      add\n      dup3\n      dup2\n      sub\n      dup3\n      mstore\n      dup4\n      dup2\n      dup2\n      mload\n      dup2\n      mstore\n      0x20\n      add\n      swap2\n      pop\n      dup1\n      mload\n      swap1\n      0x20\n      add\n      swap1\n      dup1\n      dup4\n      dup4\n        /* \"--CODEGEN--\":23:24   */\n      0x00\n        /* \"--CODEGEN--\":8:108   */\n    tag_45:\n        /* \"--CODEGEN--\":33:36   */\n      dup4\n        /* \"--CODEGEN--\":30:31   */\n      dup2\n        /* \"--CODEGEN--\":27:37   */\n      lt\n        /* \"--CODEGEN--\":8:108   */\n      iszero\n      tag_47\n      jumpi\n        /* \"--CODEGEN--\":99:100   */\n      dup1\n        /* \"--CODEGEN--\":94:97   */\n      dup3\n        /* \"--CODEGEN--\":90:101   */\n      add\n        /* \"--CODEGEN--\":84:102   */\n      mload\n        /* \"--CODEGEN--\":80:81   */\n      dup2\n        /* \"--CODEGEN--\":75:78   */\n      dup5\n        /* \"--CODEGEN--\":71:82   */\n      add\n        /* \"--CODEGEN--\":64:103   */\n      mstore\n        /* \"--CODEGEN--\":52:54   */\n      0x20\n        /* \"--CODEGEN--\":49:50   */\n      dup2\n        /* \"--CODEGEN--\":45:55   */\n      add\n        /* \"--CODEGEN--\":40:55   */\n      swap1\n      pop\n        /* \"--CODEGEN--\":8:108   */\n      jump(tag_45)\n    tag_47:\n        /* \"--CODEGEN--\":12:26   */\n      pop\n        /* \"contracts/polygonUsdt/Usdt-all-openzeppelin.sol\":17659:17740  function name() public view returns (string memory) {... */\n      pop\n      pop\n      pop\n      swap1\n      pop\n      swap1\n      dup2\n      add\n      swap1\n      0x1f\n      and\n      dup1\n      iszero\n      tag_48\n      jumpi\n      dup1\n      dup3\n      sub\n      dup1\n      mload\n      0x01\n      dup4\n      0x20\n      sub\n      0x0100\n      exp\n      sub\n      not\n      and\n      dup2\n      mstore\n      0x20\n      add\n      swap2\n      pop\n    tag_48:\n      pop\n      swap3\n      pop\n      pop\n      pop\n      mload(0x40)\n      dup1\n      swap2\n      sub\n      swap1\n      return\n        /* \"contracts/polygonUsdt/Usdt-all-openzeppelin.sol\":19966:20132  function approve(address spender, uint256 amount) public virtual override returns (bool) {... */\n    tag_3:\n      callvalue\n        /* \"--CODEGEN--\":5:14   */\n      dup1\n        /* \"--CODEGEN--\":2:4   */\n      iszero\n      tag_49\n      jumpi\n        /* \"--CODEGEN--\":27:28   */\n      0x00\n        /* \"--CODEGEN--\":24:25   */\n      dup1\n        /* \"--CODEGEN--\":17:29   */\n      revert\n        /* \"--CODEGEN--\":2:4   */\n    tag_49:\n        /* \"contracts/polygonUsdt/Usdt-all-openzeppelin.sol\":19966:20132  function approve(address spender, uint256 amount) public virtual override returns (bool) {... */\n      pop\n      tag_50\n      0x04\n      dup1\n      calldatasize\n      sub\n        /* \"--CODEGEN--\":15:17   */\n      0x40\n        /* \"--CODEGEN--\":10:13   */\n      dup2\n        /* \"--CODEGEN--\":7:18   */\n      lt\n        /* \"--CODEGEN--\":4:6   */\n      iszero\n      tag_51\n      jumpi\n        /* \"--CODEGEN--\":31:32   */\n      0x00\n        /* \"--CODEGEN--\":28:29   */\n      dup1\n        /* \"--CODEGEN--\":21:33   */\n      revert\n        /* \"--CODEGEN--\":4:6   */\n    tag_51:\n        /* \"contracts/polygonUsdt/Usdt-all-openzeppelin.sol\":19966:20132  function approve(address spender, uint256 amount) public virtual override returns (bool) {... */\n      dup2\n      add\n      swap1\n      dup1\n      dup1\n      calldataload\n      0xffffffffffffffffffffffffffffffffffffffff\n      and\n      swap1\n      0x20\n      add\n      swap1\n      swap3\n      swap2\n      swap1\n      dup1\n      calldataload\n      swap1\n      0x20\n      add\n      swap1\n      swap3\n      swap2\n      swap1\n      pop\n      pop\n      pop\n      tag_52\n      jump\t// in\n    tag_50:\n      mload(0x40)\n      dup1\n      dup3\n      iszero\n      iszero\n      iszero\n      iszero\n      dup2\n      mstore\n      0x20\n      add\n      swap2\n      pop\n      pop\n      mload(0x40)\n      dup1\n      swap2\n      sub\n      swap1\n      return\n        /* \"contracts/polygonUsdt/Usdt-all-openzeppelin.sol\":47962:48014  bytes constant public CHILD_CHAIN_ID_BYTES = hex\"89\" */\n    tag_4:\n      callvalue\n        /* \"--CODEGEN--\":5:14   */\n      dup1\n        /* \"--CODEGEN--\":2:4   */\n      iszero\n      tag_53\n      jumpi\n        /* \"--CODEGEN--\":27:28   */\n      0x00\n        /* \"--CODEGEN--\":24:25   */\n      dup1\n        /* \"--CODEGEN--\":17:29   */\n      revert\n        /* \"--CODEGEN--\":2:4   */\n    tag_53:\n        /* \"contracts/polygonUsdt/Usdt-all-openzeppelin.sol\":47962:48014  bytes constant public CHILD_CHAIN_ID_BYTES = hex\"89\" */\n      pop\n      tag_54\n      tag_55\n      jump\t// in\n    tag_54:\n      mload(0x40)\n      dup1\n      dup1\n      0x20\n      add\n      dup3\n      dup2\n      sub\n      dup3\n      mstore\n      dup4\n      dup2\n      dup2\n      mload\n      dup2\n      mstore\n      0x20\n      add\n      swap2\n      pop\n      dup1\n      mload\n      swap1\n      0x20\n      add\n      swap1\n      dup1\n      dup4\n      dup4\n        /* \"--CODEGEN--\":23:24   */\n      0x00\n        /* \"--CODEGEN--\":8:108   */\n    tag_56:\n        /* \"--CODEGEN--\":33:36   */\n      dup4\n        /* \"--CODEGEN--\":30:31   */\n      dup2\n        /* \"--CODEGEN--\":27:37   */\n      lt\n        /* \"--CODEGEN--\":8:108   */\n      iszero\n      tag_58\n      jumpi\n        /* \"--CODEGEN--\":99:100   */\n      dup1\n        /* \"--CODEGEN--\":94:97   */\n      dup3\n        /* \"--CODEGEN--\":90:101   */\n      add\n        /* \"--CODEGEN--\":84:102   */\n      mload\n        /* \"--CODEGEN--\":80:81   */\n      dup2\n        /* \"--CODEGEN--\":75:78   */\n      dup5\n        /* \"--CODEGEN--\":71:82   */\n      add\n        /* \"--CODEGEN--\":64:103   */\n      mstore\n        /* \"--CODEGEN--\":52:54   */\n      0x20\n        /* \"--CODEGEN--\":49:50   */\n      dup2\n        /* \"--CODEGEN--\":45:55   */\n      add\n        /* \"--CODEGEN--\":40:55   */\n      swap1\n      pop\n        /* \"--CODEGEN--\":8:108   */\n      jump(tag_56)\n    tag_58:\n        /* \"--CODEGEN--\":12:26   */\n      pop\n        /* \"contracts/polygonUsdt/Usdt-all-openzeppelin.sol\":47962:48014  bytes constant public CHILD_CHAIN_ID_BYTES = hex\"89\" */\n      pop\n      pop\n      pop\n      swap1\n      pop\n      swap1\n      dup2\n      add\n      swap1\n      0x1f\n      and\n      dup1\n      iszero\n      tag_59\n      jumpi\n      dup1\n      dup3\n      sub\n      dup1\n      mload\n      0x01\n      dup4\n      0x20\n      sub\n      0x0100\n      exp\n      sub\n      not\n      and\n      dup2\n      mstore\n      0x20\n      add\n      swap2\n      pop\n    tag_59:\n      pop\n      swap3\n      pop\n      pop\n      pop\n      mload(0x40)\n      dup1\n      swap2\n      sub\n      swap1\n      return\n        /* \"contracts/polygonUsdt/Usdt-all-openzeppelin.sol\":45563:46671  function executeMetaTransaction(... */\n    tag_5:\n      tag_60\n      0x04\n      dup1\n      calldatasize\n      sub\n        /* \"--CODEGEN--\":15:18   */\n      0xa0\n        /* \"--CODEGEN--\":10:13   */\n      dup2\n        /* \"--CODEGEN--\":7:19   */\n      lt\n        /* \"--CODEGEN--\":4:6   */\n      iszero\n      tag_61\n      jumpi\n        /* \"--CODEGEN--\":32:33   */\n      0x00\n        /* \"--CODEGEN--\":29:30   */\n      dup1\n        /* \"--CODEGEN--\":22:34   */\n      revert\n        /* \"--CODEGEN--\":4:6   */\n    tag_61:\n        /* \"contracts/polygonUsdt/Usdt-all-openzeppelin.sol\":45563:46671  function executeMetaTransaction(... */\n      dup2\n      add\n      swap1\n      dup1\n      dup1\n      calldataload\n      0xffffffffffffffffffffffffffffffffffffffff\n      and\n      swap1\n      0x20\n      add\n      swap1\n      swap3\n      swap2\n      swap1\n      dup1\n      calldataload\n      swap1\n      0x20\n      add\n      swap1\n        /* \"--CODEGEN--\":27:38   */\n      0x0100000000\n        /* \"--CODEGEN--\":14:25   */\n      dup2\n        /* \"--CODEGEN--\":11:39   */\n      gt\n        /* \"--CODEGEN--\":8:10   */\n      iszero\n      tag_62\n      jumpi\n        /* \"--CODEGEN--\":52:53   */\n      0x00\n        /* \"--CODEGEN--\":49:50   */\n      dup1\n        /* \"--CODEGEN--\":42:54   */\n      revert\n        /* \"--CODEGEN--\":8:10   */\n    tag_62:\n        /* \"contracts/polygonUsdt/Usdt-all-openzeppelin.sol\":45563:46671  function executeMetaTransaction(... */\n      dup3\n      add\n        /* \"--CODEGEN--\":41:50   */\n      dup4\n        /* \"--CODEGEN--\":34:38   */\n      0x20\n        /* \"--CODEGEN--\":18:32   */\n      dup3\n        /* \"--CODEGEN--\":14:39   */\n      add\n        /* \"--CODEGEN--\":11:51   */\n      gt\n        /* \"--CODEGEN--\":8:10   */\n      iszero\n      tag_63\n      jumpi\n        /* \"--CODEGEN--\":64:65   */\n      0x00\n        /* \"--CODEGEN--\":61:62   */\n      dup1\n        /* \"--CODEGEN--\":54:66   */\n      revert\n        /* \"--CODEGEN--\":8:10   */\n    tag_63:\n        /* \"contracts/polygonUsdt/Usdt-all-openzeppelin.sol\":45563:46671  function executeMetaTransaction(... */\n      dup1\n      calldataload\n      swap1\n      0x20\n      add\n      swap2\n        /* \"--CODEGEN--\":100:109   */\n      dup5\n        /* \"--CODEGEN--\":95:96   */\n      0x01\n        /* \"--CODEGEN--\":81:93   */\n      dup4\n        /* \"--CODEGEN--\":77:97   */\n      mul\n        /* \"--CODEGEN--\":67:75   */\n      dup5\n        /* \"--CODEGEN--\":63:98   */\n      add\n        /* \"--CODEGEN--\":60:110   */\n      gt\n        /* \"--CODEGEN--\":39:50   */\n      0x0100000000\n        /* \"--CODEGEN--\":25:37   */\n      dup4\n        /* \"--CODEGEN--\":22:51   */\n      gt\n        /* \"--CODEGEN--\":11:118   */\n      or\n        /* \"--CODEGEN--\":8:10   */\n      iszero\n      tag_64\n      jumpi\n        /* \"--CODEGEN--\":131:132   */\n      0x00\n        /* \"--CODEGEN--\":128:129   */\n      dup1\n        /* \"--CODEGEN--\":121:133   */\n      revert\n        /* \"--CODEGEN--\":8:10   */\n    tag_64:\n        /* \"contracts/polygonUsdt/Usdt-all-openzeppelin.sol\":45563:46671  function executeMetaTransaction(... */\n      swap2\n      swap1\n      dup1\n      dup1\n      0x1f\n      add\n      0x20\n      dup1\n      swap2\n      div\n      mul\n      0x20\n      add\n      mload(0x40)\n      swap1\n      dup2\n      add\n      0x40\n      mstore\n      dup1\n      swap4\n      swap3\n      swap2\n      swap1\n      dup2\n      dup2\n      mstore\n      0x20\n      add\n      dup4\n      dup4\n        /* \"--CODEGEN--\":30:33   */\n      dup1\n        /* \"--CODEGEN--\":22:28   */\n      dup3\n        /* \"--CODEGEN--\":14:20   */\n      dup5\n        /* \"--CODEGEN--\":1:34   */\n      calldatacopy\n        /* \"--CODEGEN--\":99:100   */\n      0x00\n        /* \"--CODEGEN--\":93:96   */\n      dup2\n        /* \"--CODEGEN--\":85:91   */\n      dup5\n        /* \"--CODEGEN--\":81:97   */\n      add\n        /* \"--CODEGEN--\":74:101   */\n      mstore\n        /* \"--CODEGEN--\":137:141   */\n      0x1f\n        /* \"--CODEGEN--\":133:142   */\n      not\n        /* \"--CODEGEN--\":126:130   */\n      0x1f\n        /* \"--CODEGEN--\":121:124   */\n      dup3\n        /* \"--CODEGEN--\":117:131   */\n      add\n        /* \"--CODEGEN--\":113:143   */\n      and\n        /* \"--CODEGEN--\":106:143   */\n      swap1\n      pop\n        /* \"--CODEGEN--\":169:172   */\n      dup1\n        /* \"--CODEGEN--\":161:167   */\n      dup4\n        /* \"--CODEGEN--\":157:173   */\n      add\n        /* \"--CODEGEN--\":147:173   */\n      swap3\n      pop\n        /* \"contracts/polygonUsdt/Usdt-all-openzeppelin.sol\":45563:46671  function executeMetaTransaction(... */\n      pop\n      pop\n      pop\n      pop\n      pop\n      pop\n      swap2\n      swap3\n      swap2\n      swap3\n      swap1\n      dup1\n      calldataload\n      swap1\n      0x20\n      add\n      swap1\n      swap3\n      swap2\n      swap1\n      dup1\n      calldataload\n      swap1\n      0x20\n      add\n      swap1\n      swap3\n      swap2\n      swap1\n      dup1\n      calldataload\n      0xff\n      and\n      swap1\n      0x20\n      add\n      swap1\n      swap3\n      swap2\n      swap1\n      pop\n      pop\n      pop\n      tag_65\n      jump\t// in\n    tag_60:\n      mload(0x40)\n      dup1\n      dup1\n      0x20\n      add\n      dup3\n      dup2\n      sub\n      dup3\n      mstore\n      dup4\n      dup2\n      dup2\n      mload\n      dup2\n      mstore\n      0x20\n      add\n      swap2\n      pop\n      dup1\n      mload\n      swap1\n      0x20\n      add\n      swap1\n      dup1\n      dup4\n      dup4\n        /* \"--CODEGEN--\":23:24   */\n      0x00\n        /* \"--CODEGEN--\":8:108   */\n    tag_66:\n        /* \"--CODEGEN--\":33:36   */\n      dup4\n        /* \"--CODEGEN--\":30:31   */\n      dup2\n        /* \"--CODEGEN--\":27:37   */\n      lt\n        /* \"--CODEGEN--\":8:108   */\n      iszero\n      tag_68\n      jumpi\n        /* \"--CODEGEN--\":99:100   */\n      dup1\n        /* \"--CODEGEN--\":94:97   */\n      dup3\n        /* \"--CODEGEN--\":90:101   */\n      add\n        /* \"--CODEGEN--\":84:102   */\n      mload\n        /* \"--CODEGEN--\":80:81   */\n      dup2\n        /* \"--CODEGEN--\":75:78   */\n      dup5\n        /* \"--CODEGEN--\":71:82   */\n      add\n        /* \"--CODEGEN--\":64:103   */\n      mstore\n        /* \"--CODEGEN--\":52:54   */\n      0x20\n        /* \"--CODEGEN--\":49:50   */\n      dup2\n        /* \"--CODEGEN--\":45:55   */\n      add\n        /* \"--CODEGEN--\":40:55   */\n      swap1\n      pop\n        /* \"--CODEGEN--\":8:108   */\n      jump(tag_66)\n    tag_68:\n        /* \"--CODEGEN--\":12:26   */\n      pop\n        /* \"contracts/polygonUsdt/Usdt-all-openzeppelin.sol\":45563:46671  function executeMetaTransaction(... */\n      pop\n      pop\n      pop\n      swap1\n      pop\n      swap1\n      dup2\n      add\n      swap1\n      0x1f\n      and\n      dup1\n      iszero\n      tag_69\n      jumpi\n      dup1\n      dup3\n      sub\n      dup1\n      mload\n      0x01\n      dup4\n      0x20\n      sub\n      0x0100\n      exp\n      sub\n      not\n      and\n      dup2\n      mstore\n      0x20\n      add\n      swap2\n      pop\n    tag_69:\n      pop\n      swap3\n      pop\n      pop\n      pop\n      mload(0x40)\n      dup1\n      swap2\n      sub\n      swap1\n      return\n        /* \"contracts/polygonUsdt/Usdt-all-openzeppelin.sol\":47854:47905  bytes constant public ROOT_CHAIN_ID_BYTES = hex\"01\" */\n    tag_6:\n      callvalue\n        /* \"--CODEGEN--\":5:14   */\n      dup1\n        /* \"--CODEGEN--\":2:4   */\n      iszero\n      tag_70\n      jumpi\n        /* \"--CODEGEN--\":27:28   */\n      0x00\n        /* \"--CODEGEN--\":24:25   */\n      dup1\n        /* \"--CODEGEN--\":17:29   */\n      revert\n        /* \"--CODEGEN--\":2:4   */\n    tag_70:\n        /* \"contracts/polygonUsdt/Usdt-all-openzeppelin.sol\":47854:47905  bytes constant public ROOT_CHAIN_ID_BYTES = hex\"01\" */\n      pop\n      tag_71\n      tag_72\n      jump\t// in\n    tag_71:\n      mload(0x40)\n      dup1\n      dup1\n      0x20\n      add\n      dup3\n      dup2\n      sub\n      dup3\n      mstore\n      dup4\n      dup2\n      dup2\n      mload\n      dup2\n      mstore\n      0x20\n      add\n      swap2\n      pop\n      dup1\n      mload\n      swap1\n      0x20\n      add\n      swap1\n      dup1\n      dup4\n      dup4\n        /* \"--CODEGEN--\":23:24   */\n      0x00\n        /* \"--CODEGEN--\":8:108   */\n    tag_73:\n        /* \"--CODEGEN--\":33:36   */\n      dup4\n        /* \"--CODEGEN--\":30:31   */\n      dup2\n        /* \"--CODEGEN--\":27:37   */\n      lt\n        /* \"--CODEGEN--\":8:108   */\n      iszero\n      tag_75\n      jumpi\n        /* \"--CODEGEN--\":99:100   */\n      dup1\n        /* \"--CODEGEN--\":94:97   */\n      dup3\n        /* \"--CODEGEN--\":90:101   */\n      add\n        /* \"--CODEGEN--\":84:102   */\n      mload\n        /* \"--CODEGEN--\":80:81   */\n      dup2\n        /* \"--CODEGEN--\":75:78   */\n      dup5\n        /* \"--CODEGEN--\":71:82   */\n      add\n        /* \"--CODEGEN--\":64:103   */\n      mstore\n        /* \"--CODEGEN--\":52:54   */\n      0x20\n        /* \"--CODEGEN--\":49:50   */\n      dup2\n        /* \"--CODEGEN--\":45:55   */\n      add\n        /* \"--CODEGEN--\":40:55   */\n      swap1\n      pop\n        /* \"--CODEGEN--\":8:108   */\n      jump(tag_73)\n    tag_75:\n        /* \"--CODEGEN--\":12:26   */\n      pop\n        /* \"contracts/polygonUsdt/Usdt-all-openzeppelin.sol\":47854:47905  bytes constant public ROOT_CHAIN_ID_BYTES = hex\"01\" */\n      pop\n      pop\n      pop\n      swap1\n      pop\n      swap1\n      dup2\n      add\n      swap1\n      0x1f\n      and\n      dup1\n      iszero\n      tag_76\n      jumpi\n      dup1\n      dup3\n      sub\n      dup1\n      mload\n      0x01\n      dup4\n      0x20\n      sub\n      0x0100\n      exp\n      sub\n      not\n      and\n      dup2\n      mstore\n      0x20\n      add\n      swap2\n      pop\n    tag_76:\n      pop\n      swap3\n      pop\n      pop\n      pop\n      mload(0x40)\n      dup1\n      swap2\n      sub\n      swap1\n      return\n        /* \"contracts/polygonUsdt/Usdt-all-openzeppelin.sol\":47757:47800  string constant public ERC712_VERSION = \"1\" */\n    tag_7:\n      callvalue\n        /* \"--CODEGEN--\":5:14   */\n      dup1\n        /* \"--CODEGEN--\":2:4   */\n      iszero\n      tag_77\n      jumpi\n        /* \"--CODEGEN--\":27:28   */\n      0x00\n        /* \"--CODEGEN--\":24:25   */\n      dup1\n        /* \"--CODEGEN--\":17:29   */\n      revert\n        /* \"--CODEGEN--\":2:4   */\n    tag_77:\n        /* \"contracts/polygonUsdt/Usdt-all-openzeppelin.sol\":47757:47800  string constant public ERC712_VERSION = \"1\" */\n      pop\n      tag_78\n      tag_79\n      jump\t// in\n    tag_78:\n      mload(0x40)\n      dup1\n      dup1\n      0x20\n      add\n      dup3\n      dup2\n      sub\n      dup3\n      mstore\n      dup4\n      dup2\n      dup2\n      mload\n      dup2\n      mstore\n      0x20\n      add\n      swap2\n      pop\n      dup1\n      mload\n      swap1\n      0x20\n      add\n      swap1\n      dup1\n      dup4\n      dup4\n        /* \"--CODEGEN--\":23:24   */\n      0x00\n        /* \"--CODEGEN--\":8:108   */\n    tag_80:\n        /* \"--CODEGEN--\":33:36   */\n      dup4\n        /* \"--CODEGEN--\":30:31   */\n      dup2\n        /* \"--CODEGEN--\":27:37   */\n      lt\n        /* \"--CODEGEN--\":8:108   */\n      iszero\n      tag_82\n      jumpi\n        /* \"--CODEGEN--\":99:100   */\n      dup1\n        /* \"--CODEGEN--\":94:97   */\n      dup3\n        /* \"--CODEGEN--\":90:101   */\n      add\n        /* \"--CODEGEN--\":84:102   */\n      mload\n        /* \"--CODEGEN--\":80:81   */\n      dup2\n        /* \"--CODEGEN--\":75:78   */\n      dup5\n        /* \"--CODEGEN--\":71:82   */\n      add\n        /* \"--CODEGEN--\":64:103   */\n      mstore\n        /* \"--CODEGEN--\":52:54   */\n      0x20\n        /* \"--CODEGEN--\":49:50   */\n      dup2\n        /* \"--CODEGEN--\":45:55   */\n      add\n        /* \"--CODEGEN--\":40:55   */\n      swap1\n      pop\n        /* \"--CODEGEN--\":8:108   */\n      jump(tag_80)\n    tag_82:\n        /* \"--CODEGEN--\":12:26   */\n      pop\n        /* \"contracts/polygonUsdt/Usdt-all-openzeppelin.sol\":47757:47800  string constant public ERC712_VERSION = \"1\" */\n      pop\n      pop\n      pop\n      swap1\n      pop\n      swap1\n      dup2\n      add\n      swap1\n      0x1f\n      and\n      dup1\n      iszero\n      tag_83\n      jumpi\n      dup1\n      dup3\n      sub\n      dup1\n      mload\n      0x01\n      dup4\n      0x20\n      sub\n      0x0100\n      exp\n      sub\n      not\n      and\n      dup2\n      mstore\n      0x20\n      add\n      swap2\n      pop\n    tag_83:\n      pop\n      swap3\n      pop\n      pop\n      pop\n      mload(0x40)\n      dup1\n      swap2\n      sub\n      swap1\n      return\n        /* \"contracts/polygonUsdt/Usdt-all-openzeppelin.sol\":18973:19071  function totalSupply() public view override returns (uint256) {... */\n    tag_8:\n      callvalue\n        /* \"--CODEGEN--\":5:14   */\n      dup1\n        /* \"--CODEGEN--\":2:4   */\n      iszero\n      tag_84\n      jumpi\n        /* \"--CODEGEN--\":27:28   */\n      0x00\n        /* \"--CODEGEN--\":24:25   */\n      dup1\n        /* \"--CODEGEN--\":17:29   */\n      revert\n        /* \"--CODEGEN--\":2:4   */\n    tag_84:\n        /* \"contracts/polygonUsdt/Usdt-all-openzeppelin.sol\":18973:19071  function totalSupply() public view override returns (uint256) {... */\n      pop\n      tag_85\n      tag_86\n      jump\t// in\n    tag_85:\n      mload(0x40)\n      dup1\n      dup3\n      dup2\n      mstore\n      0x20\n      add\n      swap2\n      pop\n      pop\n      mload(0x40)\n      dup1\n      swap2\n      sub\n      swap1\n      return\n        /* \"contracts/polygonUsdt/Usdt-all-openzeppelin.sol\":43814:43913  function getDomainSeperator() public view returns (bytes32) {... */\n    tag_9:\n      callvalue\n        /* \"--CODEGEN--\":5:14   */\n      dup1\n        /* \"--CODEGEN--\":2:4   */\n      iszero\n      tag_87\n      jumpi\n        /* \"--CODEGEN--\":27:28   */\n      0x00\n        /* \"--CODEGEN--\":24:25   */\n      dup1\n        /* \"--CODEGEN--\":17:29   */\n      revert\n        /* \"--CODEGEN--\":2:4   */\n    tag_87:\n        /* \"contracts/polygonUsdt/Usdt-all-openzeppelin.sol\":43814:43913  function getDomainSeperator() public view returns (bytes32) {... */\n      pop\n      tag_88\n      tag_89\n      jump\t// in\n    tag_88:\n      mload(0x40)\n      dup1\n      dup3\n      dup2\n      mstore\n      0x20\n      add\n      swap2\n      pop\n      pop\n      mload(0x40)\n      dup1\n      swap2\n      sub\n      swap1\n      return\n        /* \"contracts/polygonUsdt/Usdt-all-openzeppelin.sol\":20592:20909  function transferFrom(address sender, address recipient, uint256 amount) public virtual override returns (bool) {... */\n    tag_10:\n      callvalue\n        /* \"--CODEGEN--\":5:14   */\n      dup1\n        /* \"--CODEGEN--\":2:4   */\n      iszero\n      tag_90\n      jumpi\n        /* \"--CODEGEN--\":27:28   */\n      0x00\n        /* \"--CODEGEN--\":24:25   */\n      dup1\n        /* \"--CODEGEN--\":17:29   */\n      revert\n        /* \"--CODEGEN--\":2:4   */\n    tag_90:\n        /* \"contracts/polygonUsdt/Usdt-all-openzeppelin.sol\":20592:20909  function transferFrom(address sender, address recipient, uint256 amount) public virtual override returns (bool) {... */\n      pop\n      tag_91\n      0x04\n      dup1\n      calldatasize\n      sub\n        /* \"--CODEGEN--\":15:17   */\n      0x60\n        /* \"--CODEGEN--\":10:13   */\n      dup2\n        /* \"--CODEGEN--\":7:18   */\n      lt\n        /* \"--CODEGEN--\":4:6   */\n      iszero\n      tag_92\n      jumpi\n        /* \"--CODEGEN--\":31:32   */\n      0x00\n        /* \"--CODEGEN--\":28:29   */\n      dup1\n        /* \"--CODEGEN--\":21:33   */\n      revert\n        /* \"--CODEGEN--\":4:6   */\n    tag_92:\n        /* \"contracts/polygonUsdt/Usdt-all-openzeppelin.sol\":20592:20909  function transferFrom(address sender, address recipient, uint256 amount) public virtual override returns (bool) {... */\n      dup2\n      add\n      swap1\n      dup1\n      dup1\n      calldataload\n      0xffffffffffffffffffffffffffffffffffffffff\n      and\n      swap1\n      0x20\n      add\n      swap1\n      swap3\n      swap2\n      swap1\n      dup1\n      calldataload\n      0xffffffffffffffffffffffffffffffffffffffff\n      and\n      swap1\n      0x20\n      add\n      swap1\n      swap3\n      swap2\n      swap1\n      dup1\n      calldataload\n      swap1\n      0x20\n      add\n      swap1\n      swap3\n      swap2\n      swap1\n      pop\n      pop\n      pop\n      tag_93\n      jump\t// in\n    tag_91:\n      mload(0x40)\n      dup1\n      dup3\n      iszero\n      iszero\n      iszero\n      iszero\n      dup2\n      mstore\n      0x20\n      add\n      swap2\n      pop\n      pop\n      mload(0x40)\n      dup1\n      swap2\n      sub\n      swap1\n      return\n        /* \"contracts/polygonUsdt/Usdt-all-openzeppelin.sol\":38586:38698  function getRoleAdmin(bytes32 role) public view returns (bytes32) {... */\n    tag_11:\n      callvalue\n        /* \"--CODEGEN--\":5:14   */\n      dup1\n        /* \"--CODEGEN--\":2:4   */\n      iszero\n      tag_94\n      jumpi\n        /* \"--CODEGEN--\":27:28   */\n      0x00\n        /* \"--CODEGEN--\":24:25   */\n      dup1\n        /* \"--CODEGEN--\":17:29   */\n      revert\n        /* \"--CODEGEN--\":2:4   */\n    tag_94:\n        /* \"contracts/polygonUsdt/Usdt-all-openzeppelin.sol\":38586:38698  function getRoleAdmin(bytes32 role) public view returns (bytes32) {... */\n      pop\n      tag_95\n      0x04\n      dup1\n      calldatasize\n      sub\n        /* \"--CODEGEN--\":15:17   */\n      0x20\n        /* \"--CODEGEN--\":10:13   */\n      dup2\n        /* \"--CODEGEN--\":7:18   */\n      lt\n        /* \"--CODEGEN--\":4:6   */\n      iszero\n      tag_96\n      jumpi\n        /* \"--CODEGEN--\":31:32   */\n      0x00\n        /* \"--CODEGEN--\":28:29   */\n      dup1\n        /* \"--CODEGEN--\":21:33   */\n      revert\n        /* \"--CODEGEN--\":4:6   */\n    tag_96:\n        /* \"contracts/polygonUsdt/Usdt-all-openzeppelin.sol\":38586:38698  function getRoleAdmin(bytes32 role) public view returns (bytes32) {... */\n      dup2\n      add\n      swap1\n      dup1\n      dup1\n      calldataload\n      swap1\n      0x20\n      add\n      swap1\n      swap3\n      swap2\n      swap1\n      pop\n      pop\n      pop\n      tag_97\n      jump\t// in\n    tag_95:\n      mload(0x40)\n      dup1\n      dup3\n      dup2\n      mstore\n      0x20\n      add\n      swap2\n      pop\n      pop\n      mload(0x40)\n      dup1\n      swap2\n      sub\n      swap1\n      return\n        /* \"contracts/polygonUsdt/Usdt-all-openzeppelin.sol\":47079:47184  function getNonce(address user) public view returns (uint256 nonce) {... */\n    tag_12:\n      callvalue\n        /* \"--CODEGEN--\":5:14   */\n      dup1\n        /* \"--CODEGEN--\":2:4   */\n      iszero\n      tag_98\n      jumpi\n        /* \"--CODEGEN--\":27:28   */\n      0x00\n        /* \"--CODEGEN--\":24:25   */\n      dup1\n        /* \"--CODEGEN--\":17:29   */\n      revert\n        /* \"--CODEGEN--\":2:4   */\n    tag_98:\n        /* \"contracts/polygonUsdt/Usdt-all-openzeppelin.sol\":47079:47184  function getNonce(address user) public view returns (uint256 nonce) {... */\n      pop\n      tag_99\n      0x04\n      dup1\n      calldatasize\n      sub\n        /* \"--CODEGEN--\":15:17   */\n      0x20\n        /* \"--CODEGEN--\":10:13   */\n      dup2\n        /* \"--CODEGEN--\":7:18   */\n      lt\n        /* \"--CODEGEN--\":4:6   */\n      iszero\n      tag_100\n      jumpi\n        /* \"--CODEGEN--\":31:32   */\n      0x00\n        /* \"--CODEGEN--\":28:29   */\n      dup1\n        /* \"--CODEGEN--\":21:33   */\n      revert\n        /* \"--CODEGEN--\":4:6   */\n    tag_100:\n        /* \"contracts/polygonUsdt/Usdt-all-openzeppelin.sol\":47079:47184  function getNonce(address user) public view returns (uint256 nonce) {... */\n      dup2\n      add\n      swap1\n      dup1\n      dup1\n      calldataload\n      0xffffffffffffffffffffffffffffffffffffffff\n      and\n      swap1\n      0x20\n      add\n      swap1\n      swap3\n      swap2\n      swap1\n      pop\n      pop\n      pop\n      tag_101\n      jump\t// in\n    tag_99:\n      mload(0x40)\n      dup1\n      dup3\n      dup2\n      mstore\n      0x20\n      add\n      swap2\n      pop\n      pop\n      mload(0x40)\n      dup1\n      swap2\n      sub\n      swap1\n      return\n        /* \"contracts/polygonUsdt/Usdt-all-openzeppelin.sol\":51055:51142  function withdraw(uint256 amount) external {... */\n    tag_13:\n      callvalue\n        /* \"--CODEGEN--\":5:14   */\n      dup1\n        /* \"--CODEGEN--\":2:4   */\n      iszero\n      tag_102\n      jumpi\n        /* \"--CODEGEN--\":27:28   */\n      0x00\n        /* \"--CODEGEN--\":24:25   */\n      dup1\n        /* \"--CODEGEN--\":17:29   */\n      revert\n        /* \"--CODEGEN--\":2:4   */\n    tag_102:\n        /* \"contracts/polygonUsdt/Usdt-all-openzeppelin.sol\":51055:51142  function withdraw(uint256 amount) external {... */\n      pop\n      tag_103\n      0x04\n      dup1\n      calldatasize\n      sub\n        /* \"--CODEGEN--\":15:17   */\n      0x20\n        /* \"--CODEGEN--\":10:13   */\n      dup2\n        /* \"--CODEGEN--\":7:18   */\n      lt\n        /* \"--CODEGEN--\":4:6   */\n      iszero\n      tag_104\n      jumpi\n        /* \"--CODEGEN--\":31:32   */\n      0x00\n        /* \"--CODEGEN--\":28:29   */\n      dup1\n        /* \"--CODEGEN--\":21:33   */\n      revert\n        /* \"--CODEGEN--\":4:6   */\n    tag_104:\n        /* \"contracts/polygonUsdt/Usdt-all-openzeppelin.sol\":51055:51142  function withdraw(uint256 amount) external {... */\n      dup2\n      add\n      swap1\n      dup1\n      dup1\n      calldataload\n      swap1\n      0x20\n      add\n      swap1\n      swap3\n      swap2\n      swap1\n      pop\n      pop\n      pop\n      tag_105\n      jump\t// in\n    tag_103:\n      stop\n        /* \"contracts/polygonUsdt/Usdt-all-openzeppelin.sol\":38948:39171  function grantRole(bytes32 role, address account) public virtual {... */\n    tag_14:\n      callvalue\n        /* \"--CODEGEN--\":5:14   */\n      dup1\n        /* \"--CODEGEN--\":2:4   */\n      iszero\n      tag_106\n      jumpi\n        /* \"--CODEGEN--\":27:28   */\n      0x00\n        /* \"--CODEGEN--\":24:25   */\n      dup1\n        /* \"--CODEGEN--\":17:29   */\n      revert\n        /* \"--CODEGEN--\":2:4   */\n    tag_106:\n        /* \"contracts/polygonUsdt/Usdt-all-openzeppelin.sol\":38948:39171  function grantRole(bytes32 role, address account) public virtual {... */\n      pop\n      tag_107\n      0x04\n      dup1\n      calldatasize\n      sub\n        /* \"--CODEGEN--\":15:17   */\n      0x40\n        /* \"--CODEGEN--\":10:13   */\n      dup2\n        /* \"--CODEGEN--\":7:18   */\n      lt\n        /* \"--CODEGEN--\":4:6   */\n      iszero\n      tag_108\n      jumpi\n        /* \"--CODEGEN--\":31:32   */\n      0x00\n        /* \"--CODEGEN--\":28:29   */\n      dup1\n        /* \"--CODEGEN--\":21:33   */\n      revert\n        /* \"--CODEGEN--\":4:6   */\n    tag_108:\n        /* \"contracts/polygonUsdt/Usdt-all-openzeppelin.sol\":38948:39171  function grantRole(bytes32 role, address account) public virtual {... */\n      dup2\n      add\n      swap1\n      dup1\n      dup1\n      calldataload\n      swap1\n      0x20\n      add\n      swap1\n      swap3\n      swap2\n      swap1\n      dup1\n      calldataload\n      0xffffffffffffffffffffffffffffffffffffffff\n      and\n      swap1\n      0x20\n      add\n      swap1\n      swap3\n      swap2\n      swap1\n      pop\n      pop\n      pop\n      tag_109\n      jump\t// in\n    tag_107:\n      stop\n        /* \"contracts/polygonUsdt/Usdt-all-openzeppelin.sol\":18739:18820  function decimals() public view returns (uint8) {... */\n    tag_15:\n      callvalue\n        /* \"--CODEGEN--\":5:14   */\n      dup1\n        /* \"--CODEGEN--\":2:4   */\n      iszero\n      tag_110\n      jumpi\n        /* \"--CODEGEN--\":27:28   */\n      0x00\n        /* \"--CODEGEN--\":24:25   */\n      dup1\n        /* \"--CODEGEN--\":17:29   */\n      revert\n        /* \"--CODEGEN--\":2:4   */\n    tag_110:\n        /* \"contracts/polygonUsdt/Usdt-all-openzeppelin.sol\":18739:18820  function decimals() public view returns (uint8) {... */\n      pop\n      tag_111\n      tag_112\n      jump\t// in\n    tag_111:\n      mload(0x40)\n      dup1\n      dup3\n      0xff\n      and\n      0xff\n      and\n      dup2\n      mstore\n      0x20\n      add\n      swap2\n      pop\n      pop\n      mload(0x40)\n      dup1\n      swap2\n      sub\n      swap1\n      return\n        /* \"contracts/polygonUsdt/Usdt-all-openzeppelin.sol\":43919:44074  function getChainId() public pure returns (uint256) {... */\n    tag_16:\n      callvalue\n        /* \"--CODEGEN--\":5:14   */\n      dup1\n        /* \"--CODEGEN--\":2:4   */\n      iszero\n      tag_113\n      jumpi\n        /* \"--CODEGEN--\":27:28   */\n      0x00\n        /* \"--CODEGEN--\":24:25   */\n      dup1\n        /* \"--CODEGEN--\":17:29   */\n      revert\n        /* \"--CODEGEN--\":2:4   */\n    tag_113:\n        /* \"contracts/polygonUsdt/Usdt-all-openzeppelin.sol\":43919:44074  function getChainId() public pure returns (uint256) {... */\n      pop\n      tag_114\n      tag_115\n      jump\t// in\n    tag_114:\n      mload(0x40)\n      dup1\n      dup3\n      dup2\n      mstore\n      0x20\n      add\n      swap2\n      pop\n      pop\n      mload(0x40)\n      dup1\n      swap2\n      sub\n      swap1\n      return\n        /* \"contracts/polygonUsdt/Usdt-all-openzeppelin.sol\":40122:40327  function renounceRole(bytes32 role, address account) public virtual {... */\n    tag_17:\n      callvalue\n        /* \"--CODEGEN--\":5:14   */\n      dup1\n        /* \"--CODEGEN--\":2:4   */\n      iszero\n      tag_116\n      jumpi\n        /* \"--CODEGEN--\":27:28   */\n      0x00\n        /* \"--CODEGEN--\":24:25   */\n      dup1\n        /* \"--CODEGEN--\":17:29   */\n      revert\n        /* \"--CODEGEN--\":2:4   */\n    tag_116:\n        /* \"contracts/polygonUsdt/Usdt-all-openzeppelin.sol\":40122:40327  function renounceRole(bytes32 role, address account) public virtual {... */\n      pop\n      tag_117\n      0x04\n      dup1\n      calldatasize\n      sub\n        /* \"--CODEGEN--\":15:17   */\n      0x40\n        /* \"--CODEGEN--\":10:13   */\n      dup2\n        /* \"--CODEGEN--\":7:18   */\n      lt\n        /* \"--CODEGEN--\":4:6   */\n      iszero\n      tag_118\n      jumpi\n        /* \"--CODEGEN--\":31:32   */\n      0x00\n        /* \"--CODEGEN--\":28:29   */\n      dup1\n        /* \"--CODEGEN--\":21:33   */\n      revert\n        /* \"--CODEGEN--\":4:6   */\n    tag_118:\n        /* \"contracts/polygonUsdt/Usdt-all-openzeppelin.sol\":40122:40327  function renounceRole(bytes32 role, address account) public virtual {... */\n      dup2\n      add\n      swap1\n      dup1\n      dup1\n      calldataload\n      swap1\n      0x20\n      add\n      swap1\n      swap3\n      swap2\n      swap1\n      dup1\n      calldataload\n      0xffffffffffffffffffffffffffffffffffffffff\n      and\n      swap1\n      0x20\n      add\n      swap1\n      swap3\n      swap2\n      swap1\n      pop\n      pop\n      pop\n      tag_119\n      jump\t// in\n    tag_117:\n      stop\n        /* \"contracts/polygonUsdt/Usdt-all-openzeppelin.sol\":21304:21519  function increaseAllowance(address spender, uint256 addedValue) public virtual returns (bool) {... */\n    tag_18:\n      callvalue\n        /* \"--CODEGEN--\":5:14   */\n      dup1\n        /* \"--CODEGEN--\":2:4   */\n      iszero\n      tag_120\n      jumpi\n        /* \"--CODEGEN--\":27:28   */\n      0x00\n        /* \"--CODEGEN--\":24:25   */\n      dup1\n        /* \"--CODEGEN--\":17:29   */\n      revert\n        /* \"--CODEGEN--\":2:4   */\n    tag_120:\n        /* \"contracts/polygonUsdt/Usdt-all-openzeppelin.sol\":21304:21519  function increaseAllowance(address spender, uint256 addedValue) public virtual returns (bool) {... */\n      pop\n      tag_121\n      0x04\n      dup1\n      calldatasize\n      sub\n        /* \"--CODEGEN--\":15:17   */\n      0x40\n        /* \"--CODEGEN--\":10:13   */\n      dup2\n        /* \"--CODEGEN--\":7:18   */\n      lt\n        /* \"--CODEGEN--\":4:6   */\n      iszero\n      tag_122\n      jumpi\n        /* \"--CODEGEN--\":31:32   */\n      0x00\n        /* \"--CODEGEN--\":28:29   */\n      dup1\n        /* \"--CODEGEN--\":21:33   */\n      revert\n        /* \"--CODEGEN--\":4:6   */\n    tag_122:\n        /* \"contracts/polygonUsdt/Usdt-all-openzeppelin.sol\":21304:21519  function increaseAllowance(address spender, uint256 addedValue) public virtual returns (bool) {... */\n      dup2\n      add\n      swap1\n      dup1\n      dup1\n      calldataload\n      0xffffffffffffffffffffffffffffffffffffffff\n      and\n      swap1\n      0x20\n      add\n      swap1\n      swap3\n      swap2\n      swap1\n      dup1\n      calldataload\n      swap1\n      0x20\n      add\n      swap1\n      swap3\n      swap2\n      swap1\n      pop\n      pop\n      pop\n      tag_123\n      jump\t// in\n    tag_121:\n      mload(0x40)\n      dup1\n      dup3\n      iszero\n      iszero\n      iszero\n      iszero\n      dup2\n      mstore\n      0x20\n      add\n      swap2\n      pop\n      pop\n      mload(0x40)\n      dup1\n      swap2\n      sub\n      swap1\n      return\n        /* \"contracts/polygonUsdt/Usdt-all-openzeppelin.sol\":50053:50213  function changeName(string calldata name_) external only(DEFAULT_ADMIN_ROLE) {... */\n    tag_19:\n      callvalue\n        /* \"--CODEGEN--\":5:14   */\n      dup1\n        /* \"--CODEGEN--\":2:4   */\n      iszero\n      tag_124\n      jumpi\n        /* \"--CODEGEN--\":27:28   */\n      0x00\n        /* \"--CODEGEN--\":24:25   */\n      dup1\n        /* \"--CODEGEN--\":17:29   */\n      revert\n        /* \"--CODEGEN--\":2:4   */\n    tag_124:\n        /* \"contracts/polygonUsdt/Usdt-all-openzeppelin.sol\":50053:50213  function changeName(string calldata name_) external only(DEFAULT_ADMIN_ROLE) {... */\n      pop\n      tag_125\n      0x04\n      dup1\n      calldatasize\n      sub\n        /* \"--CODEGEN--\":15:17   */\n      0x20\n        /* \"--CODEGEN--\":10:13   */\n      dup2\n        /* \"--CODEGEN--\":7:18   */\n      lt\n        /* \"--CODEGEN--\":4:6   */\n      iszero\n      tag_126\n      jumpi\n        /* \"--CODEGEN--\":31:32   */\n      0x00\n        /* \"--CODEGEN--\":28:29   */\n      dup1\n        /* \"--CODEGEN--\":21:33   */\n      revert\n        /* \"--CODEGEN--\":4:6   */\n    tag_126:\n        /* \"contracts/polygonUsdt/Usdt-all-openzeppelin.sol\":50053:50213  function changeName(string calldata name_) external only(DEFAULT_ADMIN_ROLE) {... */\n      dup2\n      add\n      swap1\n      dup1\n      dup1\n      calldataload\n      swap1\n      0x20\n      add\n      swap1\n        /* \"--CODEGEN--\":27:38   */\n      0x0100000000\n        /* \"--CODEGEN--\":14:25   */\n      dup2\n        /* \"--CODEGEN--\":11:39   */\n      gt\n        /* \"--CODEGEN--\":8:10   */\n      iszero\n      tag_127\n      jumpi\n        /* \"--CODEGEN--\":52:53   */\n      0x00\n        /* \"--CODEGEN--\":49:50   */\n      dup1\n        /* \"--CODEGEN--\":42:54   */\n      revert\n        /* \"--CODEGEN--\":8:10   */\n    tag_127:\n        /* \"contracts/polygonUsdt/Usdt-all-openzeppelin.sol\":50053:50213  function changeName(string calldata name_) external only(DEFAULT_ADMIN_ROLE) {... */\n      dup3\n      add\n        /* \"--CODEGEN--\":41:50   */\n      dup4\n        /* \"--CODEGEN--\":34:38   */\n      0x20\n        /* \"--CODEGEN--\":18:32   */\n      dup3\n        /* \"--CODEGEN--\":14:39   */\n      add\n        /* \"--CODEGEN--\":11:51   */\n      gt\n        /* \"--CODEGEN--\":8:10   */\n      iszero\n      tag_128\n      jumpi\n        /* \"--CODEGEN--\":64:65   */\n      0x00\n        /* \"--CODEGEN--\":61:62   */\n      dup1\n        /* \"--CODEGEN--\":54:66   */\n      revert\n        /* \"--CODEGEN--\":8:10   */\n    tag_128:\n        /* \"contracts/polygonUsdt/Usdt-all-openzeppelin.sol\":50053:50213  function changeName(string calldata name_) external only(DEFAULT_ADMIN_ROLE) {... */\n      dup1\n      calldataload\n      swap1\n      0x20\n      add\n      swap2\n        /* \"--CODEGEN--\":100:109   */\n      dup5\n        /* \"--CODEGEN--\":95:96   */\n      0x01\n        /* \"--CODEGEN--\":81:93   */\n      dup4\n        /* \"--CODEGEN--\":77:97   */\n      mul\n        /* \"--CODEGEN--\":67:75   */\n      dup5\n        /* \"--CODEGEN--\":63:98   */\n      add\n        /* \"--CODEGEN--\":60:110   */\n      gt\n        /* \"--CODEGEN--\":39:50   */\n      0x0100000000\n        /* \"--CODEGEN--\":25:37   */\n      dup4\n        /* \"--CODEGEN--\":22:51   */\n      gt\n        /* \"--CODEGEN--\":11:118   */\n      or\n        /* \"--CODEGEN--\":8:10   */\n      iszero\n      tag_129\n      jumpi\n        /* \"--CODEGEN--\":131:132   */\n      0x00\n        /* \"--CODEGEN--\":128:129   */\n      dup1\n        /* \"--CODEGEN--\":121:133   */\n      revert\n        /* \"--CODEGEN--\":8:10   */\n    tag_129:\n        /* \"contracts/polygonUsdt/Usdt-all-openzeppelin.sol\":50053:50213  function changeName(string calldata name_) external only(DEFAULT_ADMIN_ROLE) {... */\n      swap1\n      swap2\n      swap3\n      swap4\n      swap2\n      swap3\n      swap4\n      swap1\n      pop\n      pop\n      pop\n      tag_130\n      jump\t// in\n    tag_125:\n      stop\n        /* \"contracts/polygonUsdt/Usdt-all-openzeppelin.sol\":47912:47956  uint256 constant public CHILD_CHAIN_ID = 137 */\n    tag_20:\n      callvalue\n        /* \"--CODEGEN--\":5:14   */\n      dup1\n        /* \"--CODEGEN--\":2:4   */\n      iszero\n      tag_131\n      jumpi\n        /* \"--CODEGEN--\":27:28   */\n      0x00\n        /* \"--CODEGEN--\":24:25   */\n      dup1\n        /* \"--CODEGEN--\":17:29   */\n      revert\n        /* \"--CODEGEN--\":2:4   */\n    tag_131:\n        /* \"contracts/polygonUsdt/Usdt-all-openzeppelin.sol\":47912:47956  uint256 constant public CHILD_CHAIN_ID = 137 */\n      pop\n      tag_132\n      tag_133\n      jump\t// in\n    tag_132:\n      mload(0x40)\n      dup1\n      dup3\n      dup2\n      mstore\n      0x20\n      add\n      swap2\n      pop\n      pop\n      mload(0x40)\n      dup1\n      swap2\n      sub\n      swap1\n      return\n        /* \"contracts/polygonUsdt/Usdt-all-openzeppelin.sol\":19129:19246  function balanceOf(address account) public view override returns (uint256) {... */\n    tag_21:\n      callvalue\n        /* \"--CODEGEN--\":5:14   */\n      dup1\n        /* \"--CODEGEN--\":2:4   */\n      iszero\n      tag_134\n      jumpi\n        /* \"--CODEGEN--\":27:28   */\n      0x00\n        /* \"--CODEGEN--\":24:25   */\n      dup1\n        /* \"--CODEGEN--\":17:29   */\n      revert\n        /* \"--CODEGEN--\":2:4   */\n    tag_134:\n        /* \"contracts/polygonUsdt/Usdt-all-openzeppelin.sol\":19129:19246  function balanceOf(address account) public view override returns (uint256) {... */\n      pop\n      tag_135\n      0x04\n      dup1\n      calldatasize\n      sub\n        /* \"--CODEGEN--\":15:17   */\n      0x20\n        /* \"--CODEGEN--\":10:13   */\n      dup2\n        /* \"--CODEGEN--\":7:18   */\n      lt\n        /* \"--CODEGEN--\":4:6   */\n      iszero\n      tag_136\n      jumpi\n        /* \"--CODEGEN--\":31:32   */\n      0x00\n        /* \"--CODEGEN--\":28:29   */\n      dup1\n        /* \"--CODEGEN--\":21:33   */\n      revert\n        /* \"--CODEGEN--\":4:6   */\n    tag_136:\n        /* \"contracts/polygonUsdt/Usdt-all-openzeppelin.sol\":19129:19246  function balanceOf(address account) public view override returns (uint256) {... */\n      dup2\n      add\n      swap1\n      dup1\n      dup1\n      calldataload\n      0xffffffffffffffffffffffffffffffffffffffff\n      and\n      swap1\n      0x20\n      add\n      swap1\n      swap3\n      swap2\n      swap1\n      pop\n      pop\n      pop\n      tag_137\n      jump\t// in\n    tag_135:\n      mload(0x40)\n      dup1\n      dup3\n      dup2\n      mstore\n      0x20\n      add\n      swap2\n      pop\n      pop\n      mload(0x40)\n      dup1\n      swap2\n      sub\n      swap1\n      return\n        /* \"contracts/polygonUsdt/Usdt-all-openzeppelin.sol\":47807:47848  uint256 constant public ROOT_CHAIN_ID = 1 */\n    tag_22:\n      callvalue\n        /* \"--CODEGEN--\":5:14   */\n      dup1\n        /* \"--CODEGEN--\":2:4   */\n      iszero\n      tag_138\n      jumpi\n        /* \"--CODEGEN--\":27:28   */\n      0x00\n        /* \"--CODEGEN--\":24:25   */\n      dup1\n        /* \"--CODEGEN--\":17:29   */\n      revert\n        /* \"--CODEGEN--\":2:4   */\n    tag_138:\n        /* \"contracts/polygonUsdt/Usdt-all-openzeppelin.sol\":47807:47848  uint256 constant public ROOT_CHAIN_ID = 1 */\n      pop\n      tag_139\n      tag_140\n      jump\t// in\n    tag_139:\n      mload(0x40)\n      dup1\n      dup3\n      dup2\n      mstore\n      0x20\n      add\n      swap2\n      pop\n      pop\n      mload(0x40)\n      dup1\n      swap2\n      sub\n      swap1\n      return\n        /* \"contracts/polygonUsdt/Usdt-all-openzeppelin.sol\":38269:38405  function getRoleMember(bytes32 role, uint256 index) public view returns (address) {... */\n    tag_23:\n      callvalue\n        /* \"--CODEGEN--\":5:14   */\n      dup1\n        /* \"--CODEGEN--\":2:4   */\n      iszero\n      tag_141\n      jumpi\n        /* \"--CODEGEN--\":27:28   */\n      0x00\n        /* \"--CODEGEN--\":24:25   */\n      dup1\n        /* \"--CODEGEN--\":17:29   */\n      revert\n        /* \"--CODEGEN--\":2:4   */\n    tag_141:\n        /* \"contracts/polygonUsdt/Usdt-all-openzeppelin.sol\":38269:38405  function getRoleMember(bytes32 role, uint256 index) public view returns (address) {... */\n      pop\n      tag_142\n      0x04\n      dup1\n      calldatasize\n      sub\n        /* \"--CODEGEN--\":15:17   */\n      0x40\n        /* \"--CODEGEN--\":10:13   */\n      dup2\n        /* \"--CODEGEN--\":7:18   */\n      lt\n        /* \"--CODEGEN--\":4:6   */\n      iszero\n      tag_143\n      jumpi\n        /* \"--CODEGEN--\":31:32   */\n      0x00\n        /* \"--CODEGEN--\":28:29   */\n      dup1\n        /* \"--CODEGEN--\":21:33   */\n      revert\n        /* \"--CODEGEN--\":4:6   */\n    tag_143:\n        /* \"contracts/polygonUsdt/Usdt-all-openzeppelin.sol\":38269:38405  function getRoleMember(bytes32 role, uint256 index) public view returns (address) {... */\n      dup2\n      add\n      swap1\n      dup1\n      dup1\n      calldataload\n      swap1\n      0x20\n      add\n      swap1\n      swap3\n      swap2\n      swap1\n      dup1\n      calldataload\n      swap1\n      0x20\n      add\n      swap1\n      swap3\n      swap2\n      swap1\n      pop\n      pop\n      pop\n      tag_144\n      jump\t// in\n    tag_142:\n      mload(0x40)\n      dup1\n      dup3\n      0xffffffffffffffffffffffffffffffffffffffff\n      and\n      0xffffffffffffffffffffffffffffffffffffffff\n      and\n      dup2\n      mstore\n      0x20\n      add\n      swap2\n      pop\n      pop\n      mload(0x40)\n      dup1\n      swap2\n      sub\n      swap1\n      return\n        /* \"contracts/polygonUsdt/Usdt-all-openzeppelin.sol\":37254:37391  function hasRole(bytes32 role, address account) public view returns (bool) {... */\n    tag_24:\n      callvalue\n        /* \"--CODEGEN--\":5:14   */\n      dup1\n        /* \"--CODEGEN--\":2:4   */\n      iszero\n      tag_145\n      jumpi\n        /* \"--CODEGEN--\":27:28   */\n      0x00\n        /* \"--CODEGEN--\":24:25   */\n      dup1\n        /* \"--CODEGEN--\":17:29   */\n      revert\n        /* \"--CODEGEN--\":2:4   */\n    tag_145:\n        /* \"contracts/polygonUsdt/Usdt-all-openzeppelin.sol\":37254:37391  function hasRole(bytes32 role, address account) public view returns (bool) {... */\n      pop\n      tag_146\n      0x04\n      dup1\n      calldatasize\n      sub\n        /* \"--CODEGEN--\":15:17   */\n      0x40\n        /* \"--CODEGEN--\":10:13   */\n      dup2\n        /* \"--CODEGEN--\":7:18   */\n      lt\n        /* \"--CODEGEN--\":4:6   */\n      iszero\n      tag_147\n      jumpi\n        /* \"--CODEGEN--\":31:32   */\n      0x00\n        /* \"--CODEGEN--\":28:29   */\n      dup1\n        /* \"--CODEGEN--\":21:33   */\n      revert\n        /* \"--CODEGEN--\":4:6   */\n    tag_147:\n        /* \"contracts/polygonUsdt/Usdt-all-openzeppelin.sol\":37254:37391  function hasRole(bytes32 role, address account) public view returns (bool) {... */\n      dup2\n      add\n      swap1\n      dup1\n      dup1\n      calldataload\n      swap1\n      0x20\n      add\n      swap1\n      swap3\n      swap2\n      swap1\n      dup1\n      calldataload\n      0xffffffffffffffffffffffffffffffffffffffff\n      and\n      swap1\n      0x20\n      add\n      swap1\n      swap3\n      swap2\n      swap1\n      pop\n      pop\n      pop\n      tag_148\n      jump\t// in\n    tag_146:\n      mload(0x40)\n      dup1\n      dup3\n      iszero\n      iszero\n      iszero\n      iszero\n      dup2\n      mstore\n      0x20\n      add\n      swap2\n      pop\n      pop\n      mload(0x40)\n      dup1\n      swap2\n      sub\n      swap1\n      return\n        /* \"contracts/polygonUsdt/Usdt-all-openzeppelin.sol\":17938:18023  function symbol() public view returns (string memory) {... */\n    tag_25:\n      callvalue\n        /* \"--CODEGEN--\":5:14   */\n      dup1\n        /* \"--CODEGEN--\":2:4   */\n      iszero\n      tag_149\n      jumpi\n        /* \"--CODEGEN--\":27:28   */\n      0x00\n        /* \"--CODEGEN--\":24:25   */\n      dup1\n        /* \"--CODEGEN--\":17:29   */\n      revert\n        /* \"--CODEGEN--\":2:4   */\n    tag_149:\n        /* \"contracts/polygonUsdt/Usdt-all-openzeppelin.sol\":17938:18023  function symbol() public view returns (string memory) {... */\n      pop\n      tag_150\n      tag_151\n      jump\t// in\n    tag_150:\n      mload(0x40)\n      dup1\n      dup1\n      0x20\n      add\n      dup3\n      dup2\n      sub\n      dup3\n      mstore\n      dup4\n      dup2\n      dup2\n      mload\n      dup2\n      mstore\n      0x20\n      add\n      swap2\n      pop\n      dup1\n      mload\n      swap1\n      0x20\n      add\n      swap1\n      dup1\n      dup4\n      dup4\n        /* \"--CODEGEN--\":23:24   */\n      0x00\n        /* \"--CODEGEN--\":8:108   */\n    tag_152:\n        /* \"--CODEGEN--\":33:36   */\n      dup4\n        /* \"--CODEGEN--\":30:31   */\n      dup2\n        /* \"--CODEGEN--\":27:37   */\n      lt\n        /* \"--CODEGEN--\":8:108   */\n      iszero\n      tag_154\n      jumpi\n        /* \"--CODEGEN--\":99:100   */\n      dup1\n        /* \"--CODEGEN--\":94:97   */\n      dup3\n        /* \"--CODEGEN--\":90:101   */\n      add\n        /* \"--CODEGEN--\":84:102   */\n      mload\n        /* \"--CODEGEN--\":80:81   */\n      dup2\n        /* \"--CODEGEN--\":75:78   */\n      dup5\n        /* \"--CODEGEN--\":71:82   */\n      add\n        /* \"--CODEGEN--\":64:103   */\n      mstore\n        /* \"--CODEGEN--\":52:54   */\n      0x20\n        /* \"--CODEGEN--\":49:50   */\n      dup2\n        /* \"--CODEGEN--\":45:55   */\n      add\n        /* \"--CODEGEN--\":40:55   */\n      swap1\n      pop\n        /* \"--CODEGEN--\":8:108   */\n      jump(tag_152)\n    tag_154:\n        /* \"--CODEGEN--\":12:26   */\n      pop\n        /* \"contracts/polygonUsdt/Usdt-all-openzeppelin.sol\":17938:18023  function symbol() public view returns (string memory) {... */\n      pop\n      pop\n      pop\n      swap1\n      pop\n      swap1\n      dup2\n      add\n      swap1\n      0x1f\n      and\n      dup1\n      iszero\n      tag_155\n      jumpi\n      dup1\n      dup3\n      sub\n      dup1\n      mload\n      0x01\n      dup4\n      0x20\n      sub\n      0x0100\n      exp\n      sub\n      not\n      and\n      dup2\n      mstore\n      0x20\n      add\n      swap2\n      pop\n    tag_155:\n      pop\n      swap3\n      pop\n      pop\n      pop\n      mload(0x40)\n      dup1\n      swap2\n      sub\n      swap1\n      return\n        /* \"contracts/polygonUsdt/Usdt-all-openzeppelin.sol\":36031:36080  bytes32 public constant DEFAULT_ADMIN_ROLE = 0x00 */\n    tag_26:\n      callvalue\n        /* \"--CODEGEN--\":5:14   */\n      dup1\n        /* \"--CODEGEN--\":2:4   */\n      iszero\n      tag_156\n      jumpi\n        /* \"--CODEGEN--\":27:28   */\n      0x00\n        /* \"--CODEGEN--\":24:25   */\n      dup1\n        /* \"--CODEGEN--\":17:29   */\n      revert\n        /* \"--CODEGEN--\":2:4   */\n    tag_156:\n        /* \"contracts/polygonUsdt/Usdt-all-openzeppelin.sol\":36031:36080  bytes32 public constant DEFAULT_ADMIN_ROLE = 0x00 */\n      pop\n      tag_157\n      tag_158\n      jump\t// in\n    tag_157:\n      mload(0x40)\n      dup1\n      dup3\n      dup2\n      mstore\n      0x20\n      add\n      swap2\n      pop\n      pop\n      mload(0x40)\n      dup1\n      swap2\n      sub\n      swap1\n      return\n        /* \"contracts/polygonUsdt/Usdt-all-openzeppelin.sol\":49002:49070  bytes32 public constant DEPOSITOR_ROLE = keccak256(\"DEPOSITOR_ROLE\") */\n    tag_27:\n      callvalue\n        /* \"--CODEGEN--\":5:14   */\n      dup1\n        /* \"--CODEGEN--\":2:4   */\n      iszero\n      tag_159\n      jumpi\n        /* \"--CODEGEN--\":27:28   */\n      0x00\n        /* \"--CODEGEN--\":24:25   */\n      dup1\n        /* \"--CODEGEN--\":17:29   */\n      revert\n        /* \"--CODEGEN--\":2:4   */\n    tag_159:\n        /* \"contracts/polygonUsdt/Usdt-all-openzeppelin.sol\":49002:49070  bytes32 public constant DEPOSITOR_ROLE = keccak256(\"DEPOSITOR_ROLE\") */\n      pop\n      tag_160\n      tag_161\n      jump\t// in\n    tag_160:\n      mload(0x40)\n      dup1\n      dup3\n      dup2\n      mstore\n      0x20\n      add\n      swap2\n      pop\n      pop\n      mload(0x40)\n      dup1\n      swap2\n      sub\n      swap1\n      return\n        /* \"contracts/polygonUsdt/Usdt-all-openzeppelin.sol\":22006:22272  function decreaseAllowance(address spender, uint256 subtractedValue) public virtual returns (bool) {... */\n    tag_28:\n      callvalue\n        /* \"--CODEGEN--\":5:14   */\n      dup1\n        /* \"--CODEGEN--\":2:4   */\n      iszero\n      tag_162\n      jumpi\n        /* \"--CODEGEN--\":27:28   */\n      0x00\n        /* \"--CODEGEN--\":24:25   */\n      dup1\n        /* \"--CODEGEN--\":17:29   */\n      revert\n        /* \"--CODEGEN--\":2:4   */\n    tag_162:\n        /* \"contracts/polygonUsdt/Usdt-all-openzeppelin.sol\":22006:22272  function decreaseAllowance(address spender, uint256 subtractedValue) public virtual returns (bool) {... */\n      pop\n      tag_163\n      0x04\n      dup1\n      calldatasize\n      sub\n        /* \"--CODEGEN--\":15:17   */\n      0x40\n        /* \"--CODEGEN--\":10:13   */\n      dup2\n        /* \"--CODEGEN--\":7:18   */\n      lt\n        /* \"--CODEGEN--\":4:6   */\n      iszero\n      tag_164\n      jumpi\n        /* \"--CODEGEN--\":31:32   */\n      0x00\n        /* \"--CODEGEN--\":28:29   */\n      dup1\n        /* \"--CODEGEN--\":21:33   */\n      revert\n        /* \"--CODEGEN--\":4:6   */\n    tag_164:\n        /* \"contracts/polygonUsdt/Usdt-all-openzeppelin.sol\":22006:22272  function decreaseAllowance(address spender, uint256 subtractedValue) public virtual returns (bool) {... */\n      dup2\n      add\n      swap1\n      dup1\n      dup1\n      calldataload\n      0xffffffffffffffffffffffffffffffffffffffff\n      and\n      swap1\n      0x20\n      add\n      swap1\n      swap3\n      swap2\n      swap1\n      dup1\n      calldataload\n      swap1\n      0x20\n      add\n      swap1\n      swap3\n      swap2\n      swap1\n      pop\n      pop\n      pop\n      tag_165\n      jump\t// in\n    tag_163:\n      mload(0x40)\n      dup1\n      dup3\n      iszero\n      iszero\n      iszero\n      iszero\n      dup2\n      mstore\n      0x20\n      add\n      swap2\n      pop\n      pop\n      mload(0x40)\n      dup1\n      swap2\n      sub\n      swap1\n      return\n        /* \"contracts/polygonUsdt/Usdt-all-openzeppelin.sol\":19449:19621  function transfer(address recipient, uint256 amount) public virtual override returns (bool) {... */\n    tag_29:\n      callvalue\n        /* \"--CODEGEN--\":5:14   */\n      dup1\n        /* \"--CODEGEN--\":2:4   */\n      iszero\n      tag_166\n      jumpi\n        /* \"--CODEGEN--\":27:28   */\n      0x00\n        /* \"--CODEGEN--\":24:25   */\n      dup1\n        /* \"--CODEGEN--\":17:29   */\n      revert\n        /* \"--CODEGEN--\":2:4   */\n    tag_166:\n        /* \"contracts/polygonUsdt/Usdt-all-openzeppelin.sol\":19449:19621  function transfer(address recipient, uint256 amount) public virtual override returns (bool) {... */\n      pop\n      tag_167\n      0x04\n      dup1\n      calldatasize\n      sub\n        /* \"--CODEGEN--\":15:17   */\n      0x40\n        /* \"--CODEGEN--\":10:13   */\n      dup2\n        /* \"--CODEGEN--\":7:18   */\n      lt\n        /* \"--CODEGEN--\":4:6   */\n      iszero\n      tag_168\n      jumpi\n        /* \"--CODEGEN--\":31:32   */\n      0x00\n        /* \"--CODEGEN--\":28:29   */\n      dup1\n        /* \"--CODEGEN--\":21:33   */\n      revert\n        /* \"--CODEGEN--\":4:6   */\n    tag_168:\n        /* \"contracts/polygonUsdt/Usdt-all-openzeppelin.sol\":19449:19621  function transfer(address recipient, uint256 amount) public virtual override returns (bool) {... */\n      dup2\n      add\n      swap1\n      dup1\n      dup1\n      calldataload\n      0xffffffffffffffffffffffffffffffffffffffff\n      and\n      swap1\n      0x20\n      add\n      swap1\n      swap3\n      swap2\n      swap1\n      dup1\n      calldataload\n      swap1\n      0x20\n      add\n      swap1\n      swap3\n      swap2\n      swap1\n      pop\n      pop\n      pop\n      tag_169\n      jump\t// in\n    tag_167:\n      mload(0x40)\n      dup1\n      dup3\n      iszero\n      iszero\n      iszero\n      iszero\n      dup2\n      mstore\n      0x20\n      add\n      swap2\n      pop\n      pop\n      mload(0x40)\n      dup1\n      swap2\n      sub\n      swap1\n      return\n        /* \"contracts/polygonUsdt/Usdt-all-openzeppelin.sol\":37559:37684  function getRoleMemberCount(bytes32 role) public view returns (uint256) {... */\n    tag_30:\n      callvalue\n        /* \"--CODEGEN--\":5:14   */\n      dup1\n        /* \"--CODEGEN--\":2:4   */\n      iszero\n      tag_170\n      jumpi\n        /* \"--CODEGEN--\":27:28   */\n      0x00\n        /* \"--CODEGEN--\":24:25   */\n      dup1\n        /* \"--CODEGEN--\":17:29   */\n      revert\n        /* \"--CODEGEN--\":2:4   */\n    tag_170:\n        /* \"contracts/polygonUsdt/Usdt-all-openzeppelin.sol\":37559:37684  function getRoleMemberCount(bytes32 role) public view returns (uint256) {... */\n      pop\n      tag_171\n      0x04\n      dup1\n      calldatasize\n      sub\n        /* \"--CODEGEN--\":15:17   */\n      0x20\n        /* \"--CODEGEN--\":10:13   */\n      dup2\n        /* \"--CODEGEN--\":7:18   */\n      lt\n        /* \"--CODEGEN--\":4:6   */\n      iszero\n      tag_172\n      jumpi\n        /* \"--CODEGEN--\":31:32   */\n      0x00\n        /* \"--CODEGEN--\":28:29   */\n      dup1\n        /* \"--CODEGEN--\":21:33   */\n      revert\n        /* \"--CODEGEN--\":4:6   */\n    tag_172:\n        /* \"contracts/polygonUsdt/Usdt-all-openzeppelin.sol\":37559:37684  function getRoleMemberCount(bytes32 role) public view returns (uint256) {... */\n      dup2\n      add\n      swap1\n      dup1\n      dup1\n      calldataload\n      swap1\n      0x20\n      add\n      swap1\n      swap3\n      swap2\n      swap1\n      pop\n      pop\n      pop\n      tag_173\n      jump\t// in\n    tag_171:\n      mload(0x40)\n      dup1\n      dup3\n      dup2\n      mstore\n      0x20\n      add\n      swap2\n      pop\n      pop\n      mload(0x40)\n      dup1\n      swap2\n      sub\n      swap1\n      return\n        /* \"contracts/polygonUsdt/Usdt-all-openzeppelin.sol\":50584:50807  function deposit(address user, bytes calldata depositData)... */\n    tag_31:\n      callvalue\n        /* \"--CODEGEN--\":5:14   */\n      dup1\n        /* \"--CODEGEN--\":2:4   */\n      iszero\n      tag_174\n      jumpi\n        /* \"--CODEGEN--\":27:28   */\n      0x00\n        /* \"--CODEGEN--\":24:25   */\n      dup1\n        /* \"--CODEGEN--\":17:29   */\n      revert\n        /* \"--CODEGEN--\":2:4   */\n    tag_174:\n        /* \"contracts/polygonUsdt/Usdt-all-openzeppelin.sol\":50584:50807  function deposit(address user, bytes calldata depositData)... */\n      pop\n      tag_175\n      0x04\n      dup1\n      calldatasize\n      sub\n        /* \"--CODEGEN--\":15:17   */\n      0x40\n        /* \"--CODEGEN--\":10:13   */\n      dup2\n        /* \"--CODEGEN--\":7:18   */\n      lt\n        /* \"--CODEGEN--\":4:6   */\n      iszero\n      tag_176\n      jumpi\n        /* \"--CODEGEN--\":31:32   */\n      0x00\n        /* \"--CODEGEN--\":28:29   */\n      dup1\n        /* \"--CODEGEN--\":21:33   */\n      revert\n        /* \"--CODEGEN--\":4:6   */\n    tag_176:\n        /* \"contracts/polygonUsdt/Usdt-all-openzeppelin.sol\":50584:50807  function deposit(address user, bytes calldata depositData)... */\n      dup2\n      add\n      swap1\n      dup1\n      dup1\n      calldataload\n      0xffffffffffffffffffffffffffffffffffffffff\n      and\n      swap1\n      0x20\n      add\n      swap1\n      swap3\n      swap2\n      swap1\n      dup1\n      calldataload\n      swap1\n      0x20\n      add\n      swap1\n        /* \"--CODEGEN--\":27:38   */\n      0x0100000000\n        /* \"--CODEGEN--\":14:25   */\n      dup2\n        /* \"--CODEGEN--\":11:39   */\n      gt\n        /* \"--CODEGEN--\":8:10   */\n      iszero\n      tag_177\n      jumpi\n        /* \"--CODEGEN--\":52:53   */\n      0x00\n        /* \"--CODEGEN--\":49:50   */\n      dup1\n        /* \"--CODEGEN--\":42:54   */\n      revert\n        /* \"--CODEGEN--\":8:10   */\n    tag_177:\n        /* \"contracts/polygonUsdt/Usdt-all-openzeppelin.sol\":50584:50807  function deposit(address user, bytes calldata depositData)... */\n      dup3\n      add\n        /* \"--CODEGEN--\":41:50   */\n      dup4\n        /* \"--CODEGEN--\":34:38   */\n      0x20\n        /* \"--CODEGEN--\":18:32   */\n      dup3\n        /* \"--CODEGEN--\":14:39   */\n      add\n        /* \"--CODEGEN--\":11:51   */\n      gt\n        /* \"--CODEGEN--\":8:10   */\n      iszero\n      tag_178\n      jumpi\n        /* \"--CODEGEN--\":64:65   */\n      0x00\n        /* \"--CODEGEN--\":61:62   */\n      dup1\n        /* \"--CODEGEN--\":54:66   */\n      revert\n        /* \"--CODEGEN--\":8:10   */\n    tag_178:\n        /* \"contracts/polygonUsdt/Usdt-all-openzeppelin.sol\":50584:50807  function deposit(address user, bytes calldata depositData)... */\n      dup1\n      calldataload\n      swap1\n      0x20\n      add\n      swap2\n        /* \"--CODEGEN--\":100:109   */\n      dup5\n        /* \"--CODEGEN--\":95:96   */\n      0x01\n        /* \"--CODEGEN--\":81:93   */\n      dup4\n        /* \"--CODEGEN--\":77:97   */\n      mul\n        /* \"--CODEGEN--\":67:75   */\n      dup5\n        /* \"--CODEGEN--\":63:98   */\n      add\n        /* \"--CODEGEN--\":60:110   */\n      gt\n        /* \"--CODEGEN--\":39:50   */\n      0x0100000000\n        /* \"--CODEGEN--\":25:37   */\n      dup4\n        /* \"--CODEGEN--\":22:51   */\n      gt\n        /* \"--CODEGEN--\":11:118   */\n      or\n        /* \"--CODEGEN--\":8:10   */\n      iszero\n      tag_179\n      jumpi\n        /* \"--CODEGEN--\":131:132   */\n      0x00\n        /* \"--CODEGEN--\":128:129   */\n      dup1\n        /* \"--CODEGEN--\":121:133   */\n      revert\n        /* \"--CODEGEN--\":8:10   */\n    tag_179:\n        /* \"contracts/polygonUsdt/Usdt-all-openzeppelin.sol\":50584:50807  function deposit(address user, bytes calldata depositData)... */\n      swap1\n      swap2\n      swap3\n      swap4\n      swap2\n      swap3\n      swap4\n      swap1\n      pop\n      pop\n      pop\n      tag_180\n      jump\t// in\n    tag_175:\n      stop\n        /* \"contracts/polygonUsdt/Usdt-all-openzeppelin.sol\":39405:39631  function revokeRole(bytes32 role, address account) public virtual {... */\n    tag_32:\n      callvalue\n        /* \"--CODEGEN--\":5:14   */\n      dup1\n        /* \"--CODEGEN--\":2:4   */\n      iszero\n      tag_181\n      jumpi\n        /* \"--CODEGEN--\":27:28   */\n      0x00\n        /* \"--CODEGEN--\":24:25   */\n      dup1\n        /* \"--CODEGEN--\":17:29   */\n      revert\n        /* \"--CODEGEN--\":2:4   */\n    tag_181:\n        /* \"contracts/polygonUsdt/Usdt-all-openzeppelin.sol\":39405:39631  function revokeRole(bytes32 role, address account) public virtual {... */\n      pop\n      tag_182\n      0x04\n      dup1\n      calldatasize\n      sub\n        /* \"--CODEGEN--\":15:17   */\n      0x40\n        /* \"--CODEGEN--\":10:13   */\n      dup2\n        /* \"--CODEGEN--\":7:18   */\n      lt\n        /* \"--CODEGEN--\":4:6   */\n      iszero\n      tag_183\n      jumpi\n        /* \"--CODEGEN--\":31:32   */\n      0x00\n        /* \"--CODEGEN--\":28:29   */\n      dup1\n        /* \"--CODEGEN--\":21:33   */\n      revert\n        /* \"--CODEGEN--\":4:6   */\n    tag_183:\n        /* \"contracts/polygonUsdt/Usdt-all-openzeppelin.sol\":39405:39631  function revokeRole(bytes32 role, address account) public virtual {... */\n      dup2\n      add\n      swap1\n      dup1\n      dup1\n      calldataload\n      swap1\n      0x20\n      add\n      swap1\n      swap3\n      swap2\n      swap1\n      dup1\n      calldataload\n      0xffffffffffffffffffffffffffffffffffffffff\n      and\n      swap1\n      0x20\n      add\n      swap1\n      swap3\n      swap2\n      swap1\n      pop\n      pop\n      pop\n      tag_184\n      jump\t// in\n    tag_182:\n      stop\n        /* \"contracts/polygonUsdt/Usdt-all-openzeppelin.sol\":19679:19828  function allowance(address owner, address spender) public view virtual override returns (uint256) {... */\n    tag_33:\n      callvalue\n        /* \"--CODEGEN--\":5:14   */\n      dup1\n        /* \"--CODEGEN--\":2:4   */\n      iszero\n      tag_185\n      jumpi\n        /* \"--CODEGEN--\":27:28   */\n      0x00\n        /* \"--CODEGEN--\":24:25   */\n      dup1\n        /* \"--CODEGEN--\":17:29   */\n      revert\n        /* \"--CODEGEN--\":2:4   */\n    tag_185:\n        /* \"contracts/polygonUsdt/Usdt-all-openzeppelin.sol\":19679:19828  function allowance(address owner, address spender) public view virtual override returns (uint256) {... */\n      pop\n      tag_186\n      0x04\n      dup1\n      calldatasize\n      sub\n        /* \"--CODEGEN--\":15:17   */\n      0x40\n        /* \"--CODEGEN--\":10:13   */\n      dup2\n        /* \"--CODEGEN--\":7:18   */\n      lt\n        /* \"--CODEGEN--\":4:6   */\n      iszero\n      tag_187\n      jumpi\n        /* \"--CODEGEN--\":31:32   */\n      0x00\n        /* \"--CODEGEN--\":28:29   */\n      dup1\n        /* \"--CODEGEN--\":21:33   */\n      revert\n        /* \"--CODEGEN--\":4:6   */\n    tag_187:\n        /* \"contracts/polygonUsdt/Usdt-all-openzeppelin.sol\":19679:19828  function allowance(address owner, address spender) public view virtual override returns (uint256) {... */\n      dup2\n      add\n      swap1\n      dup1\n      dup1\n      calldataload\n      0xffffffffffffffffffffffffffffffffffffffff\n      and\n      swap1\n      0x20\n      add\n      swap1\n      swap3\n      swap2\n      swap1\n      dup1\n      calldataload\n      0xffffffffffffffffffffffffffffffffffffffff\n      and\n      swap1\n      0x20\n      add\n      swap1\n      swap3\n      swap2\n      swap1\n      pop\n      pop\n      pop\n      tag_188\n      jump\t// in\n    tag_186:\n      mload(0x40)\n      dup1\n      dup3\n      dup2\n      mstore\n      0x20\n      add\n      swap2\n      pop\n      pop\n      mload(0x40)\n      dup1\n      swap2\n      sub\n      swap1\n      return\n        /* \"contracts/polygonUsdt/Usdt-all-openzeppelin.sol\":49268:49765  function initialize(... */\n    tag_34:\n      callvalue\n        /* \"--CODEGEN--\":5:14   */\n      dup1\n        /* \"--CODEGEN--\":2:4   */\n      iszero\n      tag_189\n      jumpi\n        /* \"--CODEGEN--\":27:28   */\n      0x00\n        /* \"--CODEGEN--\":24:25   */\n      dup1\n        /* \"--CODEGEN--\":17:29   */\n      revert\n        /* \"--CODEGEN--\":2:4   */\n    tag_189:\n        /* \"contracts/polygonUsdt/Usdt-all-openzeppelin.sol\":49268:49765  function initialize(... */\n      pop\n      tag_190\n      0x04\n      dup1\n      calldatasize\n      sub\n        /* \"--CODEGEN--\":15:18   */\n      0x80\n        /* \"--CODEGEN--\":10:13   */\n      dup2\n        /* \"--CODEGEN--\":7:19   */\n      lt\n        /* \"--CODEGEN--\":4:6   */\n      iszero\n      tag_191\n      jumpi\n        /* \"--CODEGEN--\":32:33   */\n      0x00\n        /* \"--CODEGEN--\":29:30   */\n      dup1\n        /* \"--CODEGEN--\":22:34   */\n      revert\n        /* \"--CODEGEN--\":4:6   */\n    tag_191:\n        /* \"contracts/polygonUsdt/Usdt-all-openzeppelin.sol\":49268:49765  function initialize(... */\n      dup2\n      add\n      swap1\n      dup1\n      dup1\n      calldataload\n      swap1\n      0x20\n      add\n      swap1\n        /* \"--CODEGEN--\":27:38   */\n      0x0100000000\n        /* \"--CODEGEN--\":14:25   */\n      dup2\n        /* \"--CODEGEN--\":11:39   */\n      gt\n        /* \"--CODEGEN--\":8:10   */\n      iszero\n      tag_192\n      jumpi\n        /* \"--CODEGEN--\":52:53   */\n      0x00\n        /* \"--CODEGEN--\":49:50   */\n      dup1\n        /* \"--CODEGEN--\":42:54   */\n      revert\n        /* \"--CODEGEN--\":8:10   */\n    tag_192:\n        /* \"contracts/polygonUsdt/Usdt-all-openzeppelin.sol\":49268:49765  function initialize(... */\n      dup3\n      add\n        /* \"--CODEGEN--\":41:50   */\n      dup4\n        /* \"--CODEGEN--\":34:38   */\n      0x20\n        /* \"--CODEGEN--\":18:32   */\n      dup3\n        /* \"--CODEGEN--\":14:39   */\n      add\n        /* \"--CODEGEN--\":11:51   */\n      gt\n        /* \"--CODEGEN--\":8:10   */\n      iszero\n      tag_193\n      jumpi\n        /* \"--CODEGEN--\":64:65   */\n      0x00\n        /* \"--CODEGEN--\":61:62   */\n      dup1\n        /* \"--CODEGEN--\":54:66   */\n      revert\n        /* \"--CODEGEN--\":8:10   */\n    tag_193:\n        /* \"contracts/polygonUsdt/Usdt-all-openzeppelin.sol\":49268:49765  function initialize(... */\n      dup1\n      calldataload\n      swap1\n      0x20\n      add\n      swap2\n        /* \"--CODEGEN--\":100:109   */\n      dup5\n        /* \"--CODEGEN--\":95:96   */\n      0x01\n        /* \"--CODEGEN--\":81:93   */\n      dup4\n        /* \"--CODEGEN--\":77:97   */\n      mul\n        /* \"--CODEGEN--\":67:75   */\n      dup5\n        /* \"--CODEGEN--\":63:98   */\n      add\n        /* \"--CODEGEN--\":60:110   */\n      gt\n        /* \"--CODEGEN--\":39:50   */\n      0x0100000000\n        /* \"--CODEGEN--\":25:37   */\n      dup4\n        /* \"--CODEGEN--\":22:51   */\n      gt\n        /* \"--CODEGEN--\":11:118   */\n      or\n        /* \"--CODEGEN--\":8:10   */\n      iszero\n      tag_194\n      jumpi\n        /* \"--CODEGEN--\":131:132   */\n      0x00\n        /* \"--CODEGEN--\":128:129   */\n      dup1\n        /* \"--CODEGEN--\":121:133   */\n      revert\n        /* \"--CODEGEN--\":8:10   */\n    tag_194:\n        /* \"contracts/polygonUsdt/Usdt-all-openzeppelin.sol\":49268:49765  function initialize(... */\n      swap1\n      swap2\n      swap3\n      swap4\n      swap2\n      swap3\n      swap4\n      swap1\n      dup1\n      calldataload\n      swap1\n      0x20\n      add\n      swap1\n        /* \"--CODEGEN--\":27:38   */\n      0x0100000000\n        /* \"--CODEGEN--\":14:25   */\n      dup2\n        /* \"--CODEGEN--\":11:39   */\n      gt\n        /* \"--CODEGEN--\":8:10   */\n      iszero\n      tag_195\n      jumpi\n        /* \"--CODEGEN--\":52:53   */\n      0x00\n        /* \"--CODEGEN--\":49:50   */\n      dup1\n        /* \"--CODEGEN--\":42:54   */\n      revert\n        /* \"--CODEGEN--\":8:10   */\n    tag_195:\n        /* \"contracts/polygonUsdt/Usdt-all-openzeppelin.sol\":49268:49765  function initialize(... */\n      dup3\n      add\n        /* \"--CODEGEN--\":41:50   */\n      dup4\n        /* \"--CODEGEN--\":34:38   */\n      0x20\n        /* \"--CODEGEN--\":18:32   */\n      dup3\n        /* \"--CODEGEN--\":14:39   */\n      add\n        /* \"--CODEGEN--\":11:51   */\n      gt\n        /* \"--CODEGEN--\":8:10   */\n      iszero\n      tag_196\n      jumpi\n        /* \"--CODEGEN--\":64:65   */\n      0x00\n        /* \"--CODEGEN--\":61:62   */\n      dup1\n        /* \"--CODEGEN--\":54:66   */\n      revert\n        /* \"--CODEGEN--\":8:10   */\n    tag_196:\n        /* \"contracts/polygonUsdt/Usdt-all-openzeppelin.sol\":49268:49765  function initialize(... */\n      dup1\n      calldataload\n      swap1\n      0x20\n      add\n      swap2\n        /* \"--CODEGEN--\":100:109   */\n      dup5\n        /* \"--CODEGEN--\":95:96   */\n      0x01\n        /* \"--CODEGEN--\":81:93   */\n      dup4\n        /* \"--CODEGEN--\":77:97   */\n      mul\n        /* \"--CODEGEN--\":67:75   */\n      dup5\n        /* \"--CODEGEN--\":63:98   */\n      add\n        /* \"--CODEGEN--\":60:110   */\n      gt\n        /* \"--CODEGEN--\":39:50   */\n      0x0100000000\n        /* \"--CODEGEN--\":25:37   */\n      dup4\n        /* \"--CODEGEN--\":22:51   */\n      gt\n        /* \"--CODEGEN--\":11:118   */\n      or\n        /* \"--CODEGEN--\":8:10   */\n      iszero\n      tag_197\n      jumpi\n        /* \"--CODEGEN--\":131:132   */\n      0x00\n        /* \"--CODEGEN--\":128:129   */\n      dup1\n        /* \"--CODEGEN--\":121:133   */\n      revert\n        /* \"--CODEGEN--\":8:10   */\n    tag_197:\n        /* \"contracts/polygonUsdt/Usdt-all-openzeppelin.sol\":49268:49765  function initialize(... */\n      swap1\n      swap2\n      swap3\n      swap4\n      swap2\n      swap3\n      swap4\n      swap1\n      dup1\n      calldataload\n      0xff\n      and\n      swap1\n      0x20\n      add\n      swap1\n      swap3\n      swap2\n      swap1\n      dup1\n      calldataload\n      0xffffffffffffffffffffffffffffffffffffffff\n      and\n      swap1\n      0x20\n      add\n      swap1\n      swap3\n      swap2\n      swap1\n      pop\n      pop\n      pop\n      tag_198\n      jump\t// in\n    tag_190:\n      stop\n        /* \"contracts/polygonUsdt/Usdt-all-openzeppelin.sol\":17659:17740  function name() public view returns (string memory) {... */\n    tag_44:\n        /* \"contracts/polygonUsdt/Usdt-all-openzeppelin.sol\":17696:17709  string memory */\n      0x60\n        /* \"contracts/polygonUsdt/Usdt-all-openzeppelin.sol\":17728:17733  _name */\n      0x03\n        /* \"contracts/polygonUsdt/Usdt-all-openzeppelin.sol\":17721:17733  return _name */\n      dup1\n      sload\n      0x01\n      dup2\n      0x01\n      and\n      iszero\n      0x0100\n      mul\n      sub\n      and\n      0x02\n      swap1\n      div\n      dup1\n      0x1f\n      add\n      0x20\n      dup1\n      swap2\n      div\n      mul\n      0x20\n      add\n      mload(0x40)\n      swap1\n      dup2\n      add\n      0x40\n      mstore\n      dup1\n      swap3\n      swap2\n      swap1\n      dup2\n      dup2\n      mstore\n      0x20\n      add\n      dup3\n      dup1\n      sload\n      0x01\n      dup2\n      0x01\n      and\n      iszero\n      0x0100\n      mul\n      sub\n      and\n      0x02\n      swap1\n      div\n      dup1\n      iszero\n      tag_200\n      jumpi\n      dup1\n      0x1f\n      lt\n      tag_201\n      jumpi\n      0x0100\n      dup1\n      dup4\n      sload\n      div\n      mul\n      dup4\n      mstore\n      swap2\n      0x20\n      add\n      swap2\n      jump(tag_200)\n    tag_201:\n      dup3\n      add\n      swap2\n      swap1\n      0x00\n      mstore\n      keccak256(0x00, 0x20)\n      swap1\n    tag_202:\n      dup2\n      sload\n      dup2\n      mstore\n      swap1\n      0x01\n      add\n      swap1\n      0x20\n      add\n      dup1\n      dup4\n      gt\n      tag_202\n      jumpi\n      dup3\n      swap1\n      sub\n      0x1f\n      and\n      dup3\n      add\n      swap2\n    tag_200:\n      pop\n      pop\n      pop\n      pop\n      pop\n      swap1\n      pop\n        /* \"contracts/polygonUsdt/Usdt-all-openzeppelin.sol\":17659:17740  function name() public view returns (string memory) {... */\n      swap1\n      jump\t// out\n        /* \"contracts/polygonUsdt/Usdt-all-openzeppelin.sol\":19966:20132  function approve(address spender, uint256 amount) public virtual override returns (bool) {... */\n    tag_52:\n        /* \"contracts/polygonUsdt/Usdt-all-openzeppelin.sol\":20049:20053  bool */\n      0x00\n        /* \"contracts/polygonUsdt/Usdt-all-openzeppelin.sol\":20065:20104  _approve(_msgSender(), spender, amount) */\n      tag_204\n        /* \"contracts/polygonUsdt/Usdt-all-openzeppelin.sol\":20074:20086  _msgSender() */\n      tag_205\n        /* \"contracts/polygonUsdt/Usdt-all-openzeppelin.sol\":20074:20084  _msgSender */\n      tag_206\n        /* \"contracts/polygonUsdt/Usdt-all-openzeppelin.sol\":20074:20086  _msgSender() */\n      jump\t// in\n    tag_205:\n        /* \"contracts/polygonUsdt/Usdt-all-openzeppelin.sol\":20088:20095  spender */\n      dup5\n        /* \"contracts/polygonUsdt/Usdt-all-openzeppelin.sol\":20097:20103  amount */\n      dup5\n        /* \"contracts/polygonUsdt/Usdt-all-openzeppelin.sol\":20065:20073  _approve */\n      tag_207\n        /* \"contracts/polygonUsdt/Usdt-all-openzeppelin.sol\":20065:20104  _approve(_msgSender(), spender, amount) */\n      jump\t// in\n    tag_204:\n        /* \"contracts/polygonUsdt/Usdt-all-openzeppelin.sol\":20121:20125  true */\n      0x01\n        /* \"contracts/polygonUsdt/Usdt-all-openzeppelin.sol\":20114:20125  return true */\n      swap1\n      pop\n        /* \"contracts/polygonUsdt/Usdt-all-openzeppelin.sol\":19966:20132  function approve(address spender, uint256 amount) public virtual override returns (bool) {... */\n      swap3\n      swap2\n      pop\n      pop\n      jump\t// out\n        /* \"contracts/polygonUsdt/Usdt-all-openzeppelin.sol\":47962:48014  bytes constant public CHILD_CHAIN_ID_BYTES = hex\"89\" */\n    tag_55:\n      mload(0x40)\n      dup1\n      0x40\n      add\n      0x40\n      mstore\n      dup1\n      0x01\n      dup2\n      mstore\n      0x20\n      add\n      0x8900000000000000000000000000000000000000000000000000000000000000\n      dup2\n      mstore\n      pop\n      dup2\n      jump\t// out\n        /* \"contracts/polygonUsdt/Usdt-all-openzeppelin.sol\":45563:46671  function executeMetaTransaction(... */\n    tag_65:\n        /* \"contracts/polygonUsdt/Usdt-all-openzeppelin.sol\":45758:45770  bytes memory */\n      0x60\n        /* \"contracts/polygonUsdt/Usdt-all-openzeppelin.sol\":45782:45811  MetaTransaction memory metaTx */\n      tag_209\n      tag_210\n      jump\t// in\n    tag_209:\n        /* \"contracts/polygonUsdt/Usdt-all-openzeppelin.sol\":45814:45962  MetaTransaction({... */\n      mload(0x40)\n      dup1\n      0x60\n      add\n      0x40\n      mstore\n      dup1\n        /* \"contracts/polygonUsdt/Usdt-all-openzeppelin.sol\":45851:45857  nonces */\n      0x0a\n        /* \"contracts/polygonUsdt/Usdt-all-openzeppelin.sol\":45851:45870  nonces[userAddress] */\n      0x00\n        /* \"contracts/polygonUsdt/Usdt-all-openzeppelin.sol\":45858:45869  userAddress */\n      dup11\n        /* \"contracts/polygonUsdt/Usdt-all-openzeppelin.sol\":45851:45870  nonces[userAddress] */\n      0xffffffffffffffffffffffffffffffffffffffff\n      and\n      0xffffffffffffffffffffffffffffffffffffffff\n      and\n      dup2\n      mstore\n      0x20\n      add\n      swap1\n      dup2\n      mstore\n      0x20\n      add\n      0x00\n      keccak256\n      sload\n        /* \"contracts/polygonUsdt/Usdt-all-openzeppelin.sol\":45814:45962  MetaTransaction({... */\n      dup2\n      mstore\n      0x20\n      add\n        /* \"contracts/polygonUsdt/Usdt-all-openzeppelin.sol\":45890:45901  userAddress */\n      dup9\n        /* \"contracts/polygonUsdt/Usdt-all-openzeppelin.sol\":45814:45962  MetaTransaction({... */\n      0xffffffffffffffffffffffffffffffffffffffff\n      and\n      dup2\n      mstore\n      0x20\n      add\n        /* \"contracts/polygonUsdt/Usdt-all-openzeppelin.sol\":45934:45951  functionSignature */\n      dup8\n        /* \"contracts/polygonUsdt/Usdt-all-openzeppelin.sol\":45814:45962  MetaTransaction({... */\n      dup2\n      mstore\n      pop\n        /* \"contracts/polygonUsdt/Usdt-all-openzeppelin.sol\":45782:45962  MetaTransaction memory metaTx = MetaTransaction({... */\n      swap1\n      pop\n        /* \"contracts/polygonUsdt/Usdt-all-openzeppelin.sol\":45994:46039  verify(userAddress, metaTx, sigR, sigS, sigV) */\n      tag_211\n        /* \"contracts/polygonUsdt/Usdt-all-openzeppelin.sol\":46001:46012  userAddress */\n      dup8\n        /* \"contracts/polygonUsdt/Usdt-all-openzeppelin.sol\":46014:46020  metaTx */\n      dup3\n        /* \"contracts/polygonUsdt/Usdt-all-openzeppelin.sol\":46022:46026  sigR */\n      dup8\n        /* \"contracts/polygonUsdt/Usdt-all-openzeppelin.sol\":46028:46032  sigS */\n      dup8\n        /* \"contracts/polygonUsdt/Usdt-all-openzeppelin.sol\":46034:46038  sigV */\n      dup8\n        /* \"contracts/polygonUsdt/Usdt-all-openzeppelin.sol\":45994:46000  verify */\n      tag_212\n        /* \"contracts/polygonUsdt/Usdt-all-openzeppelin.sol\":45994:46039  verify(userAddress, metaTx, sigR, sigS, sigV) */\n      jump\t// in\n    tag_211:\n        /* \"contracts/polygonUsdt/Usdt-all-openzeppelin.sol\":45973:46098  require(... */\n      tag_213\n      jumpi\n      mload(0x40)\n      0x08c379a000000000000000000000000000000000000000000000000000000000\n      dup2\n      mstore\n      0x04\n      add\n      dup1\n      dup1\n      0x20\n      add\n      dup3\n      dup2\n      sub\n      dup3\n      mstore\n      0x21\n      dup2\n      mstore\n      0x20\n      add\n      dup1\n      data_a1a5cd4826a8c5c8495a3bcd7f31593c1559fab8207afc024ed2a3f3fa2bbbda\n      0x21\n      swap2\n      codecopy\n      0x40\n      add\n      swap2\n      pop\n      pop\n      mload(0x40)\n      dup1\n      swap2\n      sub\n      swap1\n      revert\n    tag_213:\n        /* \"contracts/polygonUsdt/Usdt-all-openzeppelin.sol\":46184:46210  nonces[userAddress].add(1) */\n      tag_214\n        /* \"contracts/polygonUsdt/Usdt-all-openzeppelin.sol\":46208:46209  1 */\n      0x01\n        /* \"contracts/polygonUsdt/Usdt-all-openzeppelin.sol\":46184:46190  nonces */\n      0x0a\n        /* \"contracts/polygonUsdt/Usdt-all-openzeppelin.sol\":46184:46203  nonces[userAddress] */\n      0x00\n        /* \"contracts/polygonUsdt/Usdt-all-openzeppelin.sol\":46191:46202  userAddress */\n      dup11\n        /* \"contracts/polygonUsdt/Usdt-all-openzeppelin.sol\":46184:46203  nonces[userAddress] */\n      0xffffffffffffffffffffffffffffffffffffffff\n      and\n      0xffffffffffffffffffffffffffffffffffffffff\n      and\n      dup2\n      mstore\n      0x20\n      add\n      swap1\n      dup2\n      mstore\n      0x20\n      add\n      0x00\n      keccak256\n      sload\n        /* \"contracts/polygonUsdt/Usdt-all-openzeppelin.sol\":46184:46207  nonces[userAddress].add */\n      tag_215\n      swap1\n        /* \"contracts/polygonUsdt/Usdt-all-openzeppelin.sol\":46184:46210  nonces[userAddress].add(1) */\n      swap2\n      swap1\n      0xffffffff\n      and\n      jump\t// in\n    tag_214:\n        /* \"contracts/polygonUsdt/Usdt-all-openzeppelin.sol\":46162:46168  nonces */\n      0x0a\n        /* \"contracts/polygonUsdt/Usdt-all-openzeppelin.sol\":46162:46181  nonces[userAddress] */\n      0x00\n        /* \"contracts/polygonUsdt/Usdt-all-openzeppelin.sol\":46169:46180  userAddress */\n      dup10\n        /* \"contracts/polygonUsdt/Usdt-all-openzeppelin.sol\":46162:46181  nonces[userAddress] */\n      0xffffffffffffffffffffffffffffffffffffffff\n      and\n      0xffffffffffffffffffffffffffffffffffffffff\n      and\n      dup2\n      mstore\n      0x20\n      add\n      swap1\n      dup2\n      mstore\n      0x20\n      add\n      0x00\n      keccak256\n        /* \"contracts/polygonUsdt/Usdt-all-openzeppelin.sol\":46162:46210  nonces[userAddress] = nonces[userAddress].add(1) */\n      dup2\n      swap1\n      sstore\n      pop\n        /* \"contracts/polygonUsdt/Usdt-all-openzeppelin.sol\":46226:46339  MetaTransactionExecuted(... */\n      0x5845892132946850460bff5a0083f71031bc5bf9aadcd40f1de79423eac9b10b\n        /* \"contracts/polygonUsdt/Usdt-all-openzeppelin.sol\":46263:46274  userAddress */\n      dup8\n        /* \"contracts/polygonUsdt/Usdt-all-openzeppelin.sol\":46288:46298  msg.sender */\n      caller\n        /* \"contracts/polygonUsdt/Usdt-all-openzeppelin.sol\":46312:46329  functionSignature */\n      dup9\n        /* \"contracts/polygonUsdt/Usdt-all-openzeppelin.sol\":46226:46339  MetaTransactionExecuted(... */\n      mload(0x40)\n      dup1\n      dup5\n      0xffffffffffffffffffffffffffffffffffffffff\n      and\n      0xffffffffffffffffffffffffffffffffffffffff\n      and\n      dup2\n      mstore\n      0x20\n      add\n      dup4\n      0xffffffffffffffffffffffffffffffffffffffff\n      and\n      0xffffffffffffffffffffffffffffffffffffffff\n      and\n      dup2\n      mstore\n      0x20\n      add\n      dup1\n      0x20\n      add\n      dup3\n      dup2\n      sub\n      dup3\n      mstore\n      dup4\n      dup2\n      dup2\n      mload\n      dup2\n      mstore\n      0x20\n      add\n      swap2\n      pop\n      dup1\n      mload\n      swap1\n      0x20\n      add\n      swap1\n      dup1\n      dup4\n      dup4\n        /* \"--CODEGEN--\":23:24   */\n      0x00\n        /* \"--CODEGEN--\":8:108   */\n    tag_216:\n        /* \"--CODEGEN--\":33:36   */\n      dup4\n        /* \"--CODEGEN--\":30:31   */\n      dup2\n        /* \"--CODEGEN--\":27:37   */\n      lt\n        /* \"--CODEGEN--\":8:108   */\n      iszero\n      tag_218\n      jumpi\n        /* \"--CODEGEN--\":99:100   */\n      dup1\n        /* \"--CODEGEN--\":94:97   */\n      dup3\n        /* \"--CODEGEN--\":90:101   */\n      add\n        /* \"--CODEGEN--\":84:102   */\n      mload\n        /* \"--CODEGEN--\":80:81   */\n      dup2\n        /* \"--CODEGEN--\":75:78   */\n      dup5\n        /* \"--CODEGEN--\":71:82   */\n      add\n        /* \"--CODEGEN--\":64:103   */\n      mstore\n        /* \"--CODEGEN--\":52:54   */\n      0x20\n        /* \"--CODEGEN--\":49:50   */\n      dup2\n        /* \"--CODEGEN--\":45:55   */\n      add\n        /* \"--CODEGEN--\":40:55   */\n      swap1\n      pop\n        /* \"--CODEGEN--\":8:108   */\n      jump(tag_216)\n    tag_218:\n        /* \"--CODEGEN--\":12:26   */\n      pop\n        /* \"contracts/polygonUsdt/Usdt-all-openzeppelin.sol\":46226:46339  MetaTransactionExecuted(... */\n      pop\n      pop\n      pop\n      swap1\n      pop\n      swap1\n      dup2\n      add\n      swap1\n      0x1f\n      and\n      dup1\n      iszero\n      tag_219\n      jumpi\n      dup1\n      dup3\n      sub\n      dup1\n      mload\n      0x01\n      dup4\n      0x20\n      sub\n      0x0100\n      exp\n      sub\n      not\n      and\n      dup2\n      mstore\n      0x20\n      add\n      swap2\n      pop\n    tag_219:\n      pop\n      swap5\n      pop\n      pop\n      pop\n      pop\n      pop\n      mload(0x40)\n      dup1\n      swap2\n      sub\n      swap1\n      log1\n        /* \"contracts/polygonUsdt/Usdt-all-openzeppelin.sol\":46447:46459  bool success */\n      0x00\n        /* \"contracts/polygonUsdt/Usdt-all-openzeppelin.sol\":46461:46484  bytes memory returnData */\n      0x60\n        /* \"contracts/polygonUsdt/Usdt-all-openzeppelin.sol\":46496:46500  this */\n      address\n        /* \"contracts/polygonUsdt/Usdt-all-openzeppelin.sol\":46488:46506  address(this).call */\n      0xffffffffffffffffffffffffffffffffffffffff\n      and\n        /* \"contracts/polygonUsdt/Usdt-all-openzeppelin.sol\":46537:46554  functionSignature */\n      dup9\n        /* \"contracts/polygonUsdt/Usdt-all-openzeppelin.sol\":46556:46567  userAddress */\n      dup11\n        /* \"contracts/polygonUsdt/Usdt-all-openzeppelin.sol\":46520:46568  abi.encodePacked(functionSignature, userAddress) */\n      add(0x20, mload(0x40))\n      dup1\n      dup4\n      dup1\n      mload\n      swap1\n      0x20\n      add\n      swap1\n      dup1\n      dup4\n      dup4\n        /* \"--CODEGEN--\":36:189   */\n    tag_220:\n        /* \"--CODEGEN--\":66:68   */\n      0x20\n        /* \"--CODEGEN--\":61:64   */\n      dup4\n        /* \"--CODEGEN--\":58:69   */\n      lt\n        /* \"--CODEGEN--\":36:189   */\n      tag_222\n      jumpi\n        /* \"--CODEGEN--\":182:185   */\n      dup1\n        /* \"--CODEGEN--\":176:186   */\n      mload\n        /* \"--CODEGEN--\":171:174   */\n      dup3\n        /* \"--CODEGEN--\":164:187   */\n      mstore\n        /* \"--CODEGEN--\":98:100   */\n      0x20\n        /* \"--CODEGEN--\":93:96   */\n      dup3\n        /* \"--CODEGEN--\":89:101   */\n      add\n        /* \"--CODEGEN--\":82:101   */\n      swap2\n      pop\n        /* \"--CODEGEN--\":123:125   */\n      0x20\n        /* \"--CODEGEN--\":118:121   */\n      dup2\n        /* \"--CODEGEN--\":114:126   */\n      add\n        /* \"--CODEGEN--\":107:126   */\n      swap1\n      pop\n        /* \"--CODEGEN--\":148:150   */\n      0x20\n        /* \"--CODEGEN--\":143:146   */\n      dup4\n        /* \"--CODEGEN--\":139:151   */\n      sub\n        /* \"--CODEGEN--\":132:151   */\n      swap3\n      pop\n        /* \"--CODEGEN--\":36:189   */\n      jump(tag_220)\n    tag_222:\n        /* \"--CODEGEN--\":274:275   */\n      0x01\n        /* \"--CODEGEN--\":267:270   */\n      dup4\n        /* \"--CODEGEN--\":263:265   */\n      0x20\n        /* \"--CODEGEN--\":259:271   */\n      sub\n        /* \"--CODEGEN--\":254:257   */\n      0x0100\n        /* \"--CODEGEN--\":250:272   */\n      exp\n        /* \"--CODEGEN--\":246:276   */\n      sub\n        /* \"--CODEGEN--\":315:319   */\n      dup1\n        /* \"--CODEGEN--\":311:320   */\n      not\n        /* \"--CODEGEN--\":305:308   */\n      dup3\n        /* \"--CODEGEN--\":299:309   */\n      mload\n        /* \"--CODEGEN--\":295:321   */\n      and\n        /* \"--CODEGEN--\":356:360   */\n      dup2\n        /* \"--CODEGEN--\":350:353   */\n      dup5\n        /* \"--CODEGEN--\":344:354   */\n      mload\n        /* \"--CODEGEN--\":340:361   */\n      and\n        /* \"--CODEGEN--\":389:396   */\n      dup1\n        /* \"--CODEGEN--\":380:387   */\n      dup3\n        /* \"--CODEGEN--\":377:397   */\n      or\n        /* \"--CODEGEN--\":372:375   */\n      dup6\n        /* \"--CODEGEN--\":365:398   */\n      mstore\n        /* \"--CODEGEN--\":3:402   */\n      pop\n      pop\n      pop\n        /* \"contracts/polygonUsdt/Usdt-all-openzeppelin.sol\":46520:46568  abi.encodePacked(functionSignature, userAddress) */\n      pop\n      pop\n      pop\n      swap1\n      pop\n      add\n      dup3\n      0xffffffffffffffffffffffffffffffffffffffff\n      and\n      0xffffffffffffffffffffffffffffffffffffffff\n      and\n      0x60\n      shl\n      dup2\n      mstore\n      0x14\n      add\n      swap3\n      pop\n      pop\n      pop\n      mload(0x40)\n        /* \"--CODEGEN--\":49:53   */\n      0x20\n        /* \"--CODEGEN--\":39:46   */\n      dup2\n        /* \"--CODEGEN--\":30:37   */\n      dup4\n        /* \"--CODEGEN--\":26:47   */\n      sub\n        /* \"--CODEGEN--\":22:54   */\n      sub\n        /* \"--CODEGEN--\":13:20   */\n      dup2\n        /* \"--CODEGEN--\":6:55   */\n      mstore\n        /* \"contracts/polygonUsdt/Usdt-all-openzeppelin.sol\":46520:46568  abi.encodePacked(functionSignature, userAddress) */\n      swap1\n      0x40\n      mstore\n        /* \"contracts/polygonUsdt/Usdt-all-openzeppelin.sol\":46488:46578  address(this).call(... */\n      mload(0x40)\n      dup1\n      dup3\n      dup1\n      mload\n      swap1\n      0x20\n      add\n      swap1\n      dup1\n      dup4\n      dup4\n        /* \"--CODEGEN--\":36:189   */\n    tag_223:\n        /* \"--CODEGEN--\":66:68   */\n      0x20\n        /* \"--CODEGEN--\":61:64   */\n      dup4\n        /* \"--CODEGEN--\":58:69   */\n      lt\n        /* \"--CODEGEN--\":36:189   */\n      tag_225\n      jumpi\n        /* \"--CODEGEN--\":182:185   */\n      dup1\n        /* \"--CODEGEN--\":176:186   */\n      mload\n        /* \"--CODEGEN--\":171:174   */\n      dup3\n        /* \"--CODEGEN--\":164:187   */\n      mstore\n        /* \"--CODEGEN--\":98:100   */\n      0x20\n        /* \"--CODEGEN--\":93:96   */\n      dup3\n        /* \"--CODEGEN--\":89:101   */\n      add\n        /* \"--CODEGEN--\":82:101   */\n      swap2\n      pop\n        /* \"--CODEGEN--\":123:125   */\n      0x20\n        /* \"--CODEGEN--\":118:121   */\n      dup2\n        /* \"--CODEGEN--\":114:126   */\n      add\n        /* \"--CODEGEN--\":107:126   */\n      swap1\n      pop\n        /* \"--CODEGEN--\":148:150   */\n      0x20\n        /* \"--CODEGEN--\":143:146   */\n      dup4\n        /* \"--CODEGEN--\":139:151   */\n      sub\n        /* \"--CODEGEN--\":132:151   */\n      swap3\n      pop\n        /* \"--CODEGEN--\":36:189   */\n      jump(tag_223)\n    tag_225:\n        /* \"--CODEGEN--\":274:275   */\n      0x01\n        /* \"--CODEGEN--\":267:270   */\n      dup4\n        /* \"--CODEGEN--\":263:265   */\n      0x20\n        /* \"--CODEGEN--\":259:271   */\n      sub\n        /* \"--CODEGEN--\":254:257   */\n      0x0100\n        /* \"--CODEGEN--\":250:272   */\n      exp\n        /* \"--CODEGEN--\":246:276   */\n      sub\n        /* \"--CODEGEN--\":315:319   */\n      dup1\n        /* \"--CODEGEN--\":311:320   */\n      not\n        /* \"--CODEGEN--\":305:308   */\n      dup3\n        /* \"--CODEGEN--\":299:309   */\n      mload\n        /* \"--CODEGEN--\":295:321   */\n      and\n        /* \"--CODEGEN--\":356:360   */\n      dup2\n        /* \"--CODEGEN--\":350:353   */\n      dup5\n        /* \"--CODEGEN--\":344:354   */\n      mload\n        /* \"--CODEGEN--\":340:361   */\n      and\n        /* \"--CODEGEN--\":389:396   */\n      dup1\n        /* \"--CODEGEN--\":380:387   */\n      dup3\n        /* \"--CODEGEN--\":377:397   */\n      or\n        /* \"--CODEGEN--\":372:375   */\n      dup6\n        /* \"--CODEGEN--\":365:398   */\n      mstore\n        /* \"--CODEGEN--\":3:402   */\n      pop\n      pop\n      pop\n        /* \"contracts/polygonUsdt/Usdt-all-openzeppelin.sol\":46488:46578  address(this).call(... */\n      pop\n      pop\n      pop\n      swap1\n      pop\n      add\n      swap2\n      pop\n      pop\n      0x00\n      mload(0x40)\n      dup1\n      dup4\n      sub\n      dup2\n      0x00\n      dup7\n      gas\n      call\n      swap2\n      pop\n      pop\n      returndatasize\n        /* \"--CODEGEN--\":12:13   */\n      dup1\n        /* \"--CODEGEN--\":19:20   */\n      0x00\n        /* \"--CODEGEN--\":14:41   */\n      dup2\n      eq\n      tag_228\n      jumpi\n        /* \"--CODEGEN--\":67:71   */\n      0x40\n        /* \"--CODEGEN--\":61:72   */\n      mload\n        /* \"--CODEGEN--\":56:72   */\n      swap2\n      pop\n        /* \"--CODEGEN--\":134:138   */\n      0x1f\n        /* \"--CODEGEN--\":130:139   */\n      not\n        /* \"--CODEGEN--\":123:127   */\n      0x3f\n        /* \"--CODEGEN--\":105:121   */\n      returndatasize\n        /* \"--CODEGEN--\":101:128   */\n      add\n        /* \"--CODEGEN--\":97:140   */\n      and\n        /* \"--CODEGEN--\":94:95   */\n      dup3\n        /* \"--CODEGEN--\":90:141   */\n      add\n        /* \"--CODEGEN--\":84:88   */\n      0x40\n        /* \"--CODEGEN--\":77:142   */\n      mstore\n        /* \"--CODEGEN--\":157:173   */\n      returndatasize\n        /* \"--CODEGEN--\":154:155   */\n      dup3\n        /* \"--CODEGEN--\":147:174   */\n      mstore\n        /* \"--CODEGEN--\":211:227   */\n      returndatasize\n        /* \"--CODEGEN--\":208:209   */\n      0x00\n        /* \"--CODEGEN--\":201:205   */\n      0x20\n        /* \"--CODEGEN--\":198:199   */\n      dup5\n        /* \"--CODEGEN--\":194:206   */\n      add\n        /* \"--CODEGEN--\":179:228   */\n      returndatacopy\n        /* \"--CODEGEN--\":5:233   */\n      jump(tag_227)\n        /* \"--CODEGEN--\":14:41   */\n    tag_228:\n        /* \"--CODEGEN--\":32:36   */\n      0x60\n        /* \"--CODEGEN--\":27:36   */\n      swap2\n      pop\n        /* \"--CODEGEN--\":5:233   */\n    tag_227:\n      pop\n        /* \"contracts/polygonUsdt/Usdt-all-openzeppelin.sol\":46446:46578  (bool success, bytes memory returnData) = address(this).call(... */\n      swap2\n      pop\n      swap2\n      pop\n        /* \"contracts/polygonUsdt/Usdt-all-openzeppelin.sol\":46596:46603  success */\n      dup2\n        /* \"contracts/polygonUsdt/Usdt-all-openzeppelin.sol\":46588:46636  require(success, \"Function call not successful\") */\n      tag_229\n      jumpi\n      mload(0x40)\n      0x08c379a000000000000000000000000000000000000000000000000000000000\n      dup2\n      mstore\n      0x04\n      add\n      dup1\n      dup1\n      0x20\n      add\n      dup3\n      dup2\n      sub\n      dup3\n      mstore\n      0x1c\n      dup2\n      mstore\n      0x20\n      add\n      dup1\n      0x46756e6374696f6e2063616c6c206e6f74207375636365737366756c00000000\n      dup2\n      mstore\n      pop\n      0x20\n      add\n      swap2\n      pop\n      pop\n      mload(0x40)\n      dup1\n      swap2\n      sub\n      swap1\n      revert\n    tag_229:\n        /* \"contracts/polygonUsdt/Usdt-all-openzeppelin.sol\":46654:46664  returnData */\n      dup1\n        /* \"contracts/polygonUsdt/Usdt-all-openzeppelin.sol\":46647:46664  return returnData */\n      swap4\n      pop\n      pop\n      pop\n      pop\n        /* \"contracts/polygonUsdt/Usdt-all-openzeppelin.sol\":45563:46671  function executeMetaTransaction(... */\n      swap6\n      swap5\n      pop\n      pop\n      pop\n      pop\n      pop\n      jump\t// out\n        /* \"contracts/polygonUsdt/Usdt-all-openzeppelin.sol\":47854:47905  bytes constant public ROOT_CHAIN_ID_BYTES = hex\"01\" */\n    tag_72:\n      mload(0x40)\n      dup1\n      0x40\n      add\n      0x40\n      mstore\n      dup1\n      0x01\n      dup2\n      mstore\n      0x20\n      add\n      0x0100000000000000000000000000000000000000000000000000000000000000\n      dup2\n      mstore\n      pop\n      dup2\n      jump\t// out\n        /* \"contracts/polygonUsdt/Usdt-all-openzeppelin.sol\":47757:47800  string constant public ERC712_VERSION = \"1\" */\n    tag_79:\n      mload(0x40)\n      dup1\n      0x40\n      add\n      0x40\n      mstore\n      dup1\n      0x01\n      dup2\n      mstore\n      0x20\n      add\n      0x3100000000000000000000000000000000000000000000000000000000000000\n      dup2\n      mstore\n      pop\n      dup2\n      jump\t// out\n        /* \"contracts/polygonUsdt/Usdt-all-openzeppelin.sol\":18973:19071  function totalSupply() public view override returns (uint256) {... */\n    tag_86:\n        /* \"contracts/polygonUsdt/Usdt-all-openzeppelin.sol\":19026:19033  uint256 */\n      0x00\n        /* \"contracts/polygonUsdt/Usdt-all-openzeppelin.sol\":19052:19064  _totalSupply */\n      sload(0x02)\n        /* \"contracts/polygonUsdt/Usdt-all-openzeppelin.sol\":19045:19064  return _totalSupply */\n      swap1\n      pop\n        /* \"contracts/polygonUsdt/Usdt-all-openzeppelin.sol\":18973:19071  function totalSupply() public view override returns (uint256) {... */\n      swap1\n      jump\t// out\n        /* \"contracts/polygonUsdt/Usdt-all-openzeppelin.sol\":43814:43913  function getDomainSeperator() public view returns (bytes32) {... */\n    tag_89:\n        /* \"contracts/polygonUsdt/Usdt-all-openzeppelin.sol\":43865:43872  bytes32 */\n      0x00\n        /* \"contracts/polygonUsdt/Usdt-all-openzeppelin.sol\":43891:43906  domainSeperator */\n      sload(0x09)\n        /* \"contracts/polygonUsdt/Usdt-all-openzeppelin.sol\":43884:43906  return domainSeperator */\n      swap1\n      pop\n        /* \"contracts/polygonUsdt/Usdt-all-openzeppelin.sol\":43814:43913  function getDomainSeperator() public view returns (bytes32) {... */\n      swap1\n      jump\t// out\n        /* \"contracts/polygonUsdt/Usdt-all-openzeppelin.sol\":20592:20909  function transferFrom(address sender, address recipient, uint256 amount) public virtual override returns (bool) {... */\n    tag_93:\n        /* \"contracts/polygonUsdt/Usdt-all-openzeppelin.sol\":20698:20702  bool */\n      0x00\n        /* \"contracts/polygonUsdt/Usdt-all-openzeppelin.sol\":20714:20750  _transfer(sender, recipient, amount) */\n      tag_233\n        /* \"contracts/polygonUsdt/Usdt-all-openzeppelin.sol\":20724:20730  sender */\n      dup5\n        /* \"contracts/polygonUsdt/Usdt-all-openzeppelin.sol\":20732:20741  recipient */\n      dup5\n        /* \"contracts/polygonUsdt/Usdt-all-openzeppelin.sol\":20743:20749  amount */\n      dup5\n        /* \"contracts/polygonUsdt/Usdt-all-openzeppelin.sol\":20714:20723  _transfer */\n      tag_234\n        /* \"contracts/polygonUsdt/Usdt-all-openzeppelin.sol\":20714:20750  _transfer(sender, recipient, amount) */\n      jump\t// in\n    tag_233:\n        /* \"contracts/polygonUsdt/Usdt-all-openzeppelin.sol\":20760:20881  _approve(sender, _msgSender(), _allowances[sender][_msgSender()].sub(amount, \"ERC20: transfer amount exceeds allowance\")) */\n      tag_235\n        /* \"contracts/polygonUsdt/Usdt-all-openzeppelin.sol\":20769:20775  sender */\n      dup5\n        /* \"contracts/polygonUsdt/Usdt-all-openzeppelin.sol\":20777:20789  _msgSender() */\n      tag_236\n        /* \"contracts/polygonUsdt/Usdt-all-openzeppelin.sol\":20777:20787  _msgSender */\n      tag_206\n        /* \"contracts/polygonUsdt/Usdt-all-openzeppelin.sol\":20777:20789  _msgSender() */\n      jump\t// in\n    tag_236:\n        /* \"contracts/polygonUsdt/Usdt-all-openzeppelin.sol\":20791:20880  _allowances[sender][_msgSender()].sub(amount, \"ERC20: transfer amount exceeds allowance\") */\n      tag_237\n        /* \"contracts/polygonUsdt/Usdt-all-openzeppelin.sol\":20829:20835  amount */\n      dup6\n        /* \"contracts/polygonUsdt/Usdt-all-openzeppelin.sol\":20791:20880  _allowances[sender][_msgSender()].sub(amount, \"ERC20: transfer amount exceeds allowance\") */\n      mload(0x40)\n      dup1\n      0x60\n      add\n      0x40\n      mstore\n      dup1\n      0x28\n      dup2\n      mstore\n      0x20\n      add\n      data_974d1b4421da69cc60b481194f0dad36a5bb4e23da810da7a7fb30cdba178330\n      0x28\n      swap2\n      codecopy\n        /* \"contracts/polygonUsdt/Usdt-all-openzeppelin.sol\":20791:20802  _allowances */\n      0x01\n        /* \"contracts/polygonUsdt/Usdt-all-openzeppelin.sol\":20791:20810  _allowances[sender] */\n      0x00\n        /* \"contracts/polygonUsdt/Usdt-all-openzeppelin.sol\":20803:20809  sender */\n      dup12\n        /* \"contracts/polygonUsdt/Usdt-all-openzeppelin.sol\":20791:20810  _allowances[sender] */\n      0xffffffffffffffffffffffffffffffffffffffff\n      and\n      0xffffffffffffffffffffffffffffffffffffffff\n      and\n      dup2\n      mstore\n      0x20\n      add\n      swap1\n      dup2\n      mstore\n      0x20\n      add\n      0x00\n      keccak256\n        /* \"contracts/polygonUsdt/Usdt-all-openzeppelin.sol\":20791:20824  _allowances[sender][_msgSender()] */\n      0x00\n        /* \"contracts/polygonUsdt/Usdt-all-openzeppelin.sol\":20811:20823  _msgSender() */\n      tag_238\n        /* \"contracts/polygonUsdt/Usdt-all-openzeppelin.sol\":20811:20821  _msgSender */\n      tag_206\n        /* \"contracts/polygonUsdt/Usdt-all-openzeppelin.sol\":20811:20823  _msgSender() */\n      jump\t// in\n    tag_238:\n        /* \"contracts/polygonUsdt/Usdt-all-openzeppelin.sol\":20791:20824  _allowances[sender][_msgSender()] */\n      0xffffffffffffffffffffffffffffffffffffffff\n      and\n      0xffffffffffffffffffffffffffffffffffffffff\n      and\n      dup2\n      mstore\n      0x20\n      add\n      swap1\n      dup2\n      mstore\n      0x20\n      add\n      0x00\n      keccak256\n      sload\n        /* \"contracts/polygonUsdt/Usdt-all-openzeppelin.sol\":20791:20828  _allowances[sender][_msgSender()].sub */\n      tag_239\n      swap1\n        /* \"contracts/polygonUsdt/Usdt-all-openzeppelin.sol\":20791:20880  _allowances[sender][_msgSender()].sub(amount, \"ERC20: transfer amount exceeds allowance\") */\n      swap3\n      swap2\n      swap1\n      0xffffffff\n      and\n      jump\t// in\n    tag_237:\n        /* \"contracts/polygonUsdt/Usdt-all-openzeppelin.sol\":20760:20768  _approve */\n      tag_207\n        /* \"contracts/polygonUsdt/Usdt-all-openzeppelin.sol\":20760:20881  _approve(sender, _msgSender(), _allowances[sender][_msgSender()].sub(amount, \"ERC20: transfer amount exceeds allowance\")) */\n      jump\t// in\n    tag_235:\n        /* \"contracts/polygonUsdt/Usdt-all-openzeppelin.sol\":20898:20902  true */\n      0x01\n        /* \"contracts/polygonUsdt/Usdt-all-openzeppelin.sol\":20891:20902  return true */\n      swap1\n      pop\n        /* \"contracts/polygonUsdt/Usdt-all-openzeppelin.sol\":20592:20909  function transferFrom(address sender, address recipient, uint256 amount) public virtual override returns (bool) {... */\n      swap4\n      swap3\n      pop\n      pop\n      pop\n      jump\t// out\n        /* \"contracts/polygonUsdt/Usdt-all-openzeppelin.sol\":38586:38698  function getRoleAdmin(bytes32 role) public view returns (bytes32) {... */\n    tag_97:\n        /* \"contracts/polygonUsdt/Usdt-all-openzeppelin.sol\":38643:38650  bytes32 */\n      0x00\n        /* \"contracts/polygonUsdt/Usdt-all-openzeppelin.sol\":38669:38675  _roles */\n      0x06\n        /* \"contracts/polygonUsdt/Usdt-all-openzeppelin.sol\":38669:38681  _roles[role] */\n      0x00\n        /* \"contracts/polygonUsdt/Usdt-all-openzeppelin.sol\":38676:38680  role */\n      dup4\n        /* \"contracts/polygonUsdt/Usdt-all-openzeppelin.sol\":38669:38681  _roles[role] */\n      dup2\n      mstore\n      0x20\n      add\n      swap1\n      dup2\n      mstore\n      0x20\n      add\n      0x00\n      keccak256\n        /* \"contracts/polygonUsdt/Usdt-all-openzeppelin.sol\":38669:38691  _roles[role].adminRole */\n      0x02\n      add\n      sload\n        /* \"contracts/polygonUsdt/Usdt-all-openzeppelin.sol\":38662:38691  return _roles[role].adminRole */\n      swap1\n      pop\n        /* \"contracts/polygonUsdt/Usdt-all-openzeppelin.sol\":38586:38698  function getRoleAdmin(bytes32 role) public view returns (bytes32) {... */\n      swap2\n      swap1\n      pop\n      jump\t// out\n        /* \"contracts/polygonUsdt/Usdt-all-openzeppelin.sol\":47079:47184  function getNonce(address user) public view returns (uint256 nonce) {... */\n    tag_101:\n        /* \"contracts/polygonUsdt/Usdt-all-openzeppelin.sol\":47132:47145  uint256 nonce */\n      0x00\n        /* \"contracts/polygonUsdt/Usdt-all-openzeppelin.sol\":47165:47171  nonces */\n      0x0a\n        /* \"contracts/polygonUsdt/Usdt-all-openzeppelin.sol\":47165:47177  nonces[user] */\n      0x00\n        /* \"contracts/polygonUsdt/Usdt-all-openzeppelin.sol\":47172:47176  user */\n      dup4\n        /* \"contracts/polygonUsdt/Usdt-all-openzeppelin.sol\":47165:47177  nonces[user] */\n      0xffffffffffffffffffffffffffffffffffffffff\n      and\n      0xffffffffffffffffffffffffffffffffffffffff\n      and\n      dup2\n      mstore\n      0x20\n      add\n      swap1\n      dup2\n      mstore\n      0x20\n      add\n      0x00\n      keccak256\n      sload\n        /* \"contracts/polygonUsdt/Usdt-all-openzeppelin.sol\":47157:47177  nonce = nonces[user] */\n      swap1\n      pop\n        /* \"contracts/polygonUsdt/Usdt-all-openzeppelin.sol\":47079:47184  function getNonce(address user) public view returns (uint256 nonce) {... */\n      swap2\n      swap1\n      pop\n      jump\t// out\n        /* \"contracts/polygonUsdt/Usdt-all-openzeppelin.sol\":51055:51142  function withdraw(uint256 amount) external {... */\n    tag_105:\n        /* \"contracts/polygonUsdt/Usdt-all-openzeppelin.sol\":51108:51135  _burn(_msgSender(), amount) */\n      tag_243\n        /* \"contracts/polygonUsdt/Usdt-all-openzeppelin.sol\":51114:51126  _msgSender() */\n      tag_244\n        /* \"contracts/polygonUsdt/Usdt-all-openzeppelin.sol\":51114:51124  _msgSender */\n      tag_206\n        /* \"contracts/polygonUsdt/Usdt-all-openzeppelin.sol\":51114:51126  _msgSender() */\n      jump\t// in\n    tag_244:\n        /* \"contracts/polygonUsdt/Usdt-all-openzeppelin.sol\":51128:51134  amount */\n      dup3\n        /* \"contracts/polygonUsdt/Usdt-all-openzeppelin.sol\":51108:51113  _burn */\n      tag_245\n        /* \"contracts/polygonUsdt/Usdt-all-openzeppelin.sol\":51108:51135  _burn(_msgSender(), amount) */\n      jump\t// in\n    tag_243:\n        /* \"contracts/polygonUsdt/Usdt-all-openzeppelin.sol\":51055:51142  function withdraw(uint256 amount) external {... */\n      pop\n      jump\t// out\n        /* \"contracts/polygonUsdt/Usdt-all-openzeppelin.sol\":38948:39171  function grantRole(bytes32 role, address account) public virtual {... */\n    tag_109:\n        /* \"contracts/polygonUsdt/Usdt-all-openzeppelin.sol\":39031:39076  hasRole(_roles[role].adminRole, _msgSender()) */\n      tag_247\n        /* \"contracts/polygonUsdt/Usdt-all-openzeppelin.sol\":39039:39045  _roles */\n      0x06\n        /* \"contracts/polygonUsdt/Usdt-all-openzeppelin.sol\":39039:39051  _roles[role] */\n      0x00\n        /* \"contracts/polygonUsdt/Usdt-all-openzeppelin.sol\":39046:39050  role */\n      dup5\n        /* \"contracts/polygonUsdt/Usdt-all-openzeppelin.sol\":39039:39051  _roles[role] */\n      dup2\n      mstore\n      0x20\n      add\n      swap1\n      dup2\n      mstore\n      0x20\n      add\n      0x00\n      keccak256\n        /* \"contracts/polygonUsdt/Usdt-all-openzeppelin.sol\":39039:39061  _roles[role].adminRole */\n      0x02\n      add\n      sload\n        /* \"contracts/polygonUsdt/Usdt-all-openzeppelin.sol\":39063:39075  _msgSender() */\n      tag_248\n        /* \"contracts/polygonUsdt/Usdt-all-openzeppelin.sol\":39063:39073  _msgSender */\n      tag_206\n        /* \"contracts/polygonUsdt/Usdt-all-openzeppelin.sol\":39063:39075  _msgSender() */\n      jump\t// in\n    tag_248:\n        /* \"contracts/polygonUsdt/Usdt-all-openzeppelin.sol\":39031:39038  hasRole */\n      tag_148\n        /* \"contracts/polygonUsdt/Usdt-all-openzeppelin.sol\":39031:39076  hasRole(_roles[role].adminRole, _msgSender()) */\n      jump\t// in\n    tag_247:\n        /* \"contracts/polygonUsdt/Usdt-all-openzeppelin.sol\":39023:39128  require(hasRole(_roles[role].adminRole, _msgSender()), \"AccessControl: sender must be an admin to grant\") */\n      tag_249\n      jumpi\n      mload(0x40)\n      0x08c379a000000000000000000000000000000000000000000000000000000000\n      dup2\n      mstore\n      0x04\n      add\n      dup1\n      dup1\n      0x20\n      add\n      dup3\n      dup2\n      sub\n      dup3\n      mstore\n      0x2f\n      dup2\n      mstore\n      0x20\n      add\n      dup1\n      data_0ba7116025f1ef6b158a2bd2238e617f30e17c9e456917d901086ca4f8ad2811\n      0x2f\n      swap2\n      codecopy\n      0x40\n      add\n      swap2\n      pop\n      pop\n      mload(0x40)\n      dup1\n      swap2\n      sub\n      swap1\n      revert\n    tag_249:\n        /* \"contracts/polygonUsdt/Usdt-all-openzeppelin.sol\":39139:39164  _grantRole(role, account) */\n      tag_250\n        /* \"contracts/polygonUsdt/Usdt-all-openzeppelin.sol\":39150:39154  role */\n      dup3\n        /* \"contracts/polygonUsdt/Usdt-all-openzeppelin.sol\":39156:39163  account */\n      dup3\n        /* \"contracts/polygonUsdt/Usdt-all-openzeppelin.sol\":39139:39149  _grantRole */\n      tag_251\n        /* \"contracts/polygonUsdt/Usdt-all-openzeppelin.sol\":39139:39164  _grantRole(role, account) */\n      jump\t// in\n    tag_250:\n        /* \"contracts/polygonUsdt/Usdt-all-openzeppelin.sol\":38948:39171  function grantRole(bytes32 role, address account) public virtual {... */\n      pop\n      pop\n      jump\t// out\n        /* \"contracts/polygonUsdt/Usdt-all-openzeppelin.sol\":18739:18820  function decimals() public view returns (uint8) {... */\n    tag_112:\n        /* \"contracts/polygonUsdt/Usdt-all-openzeppelin.sol\":18780:18785  uint8 */\n      0x00\n        /* \"contracts/polygonUsdt/Usdt-all-openzeppelin.sol\":18804:18813  _decimals */\n      0x05\n      0x00\n      swap1\n      sload\n      swap1\n      0x0100\n      exp\n      swap1\n      div\n      0xff\n      and\n        /* \"contracts/polygonUsdt/Usdt-all-openzeppelin.sol\":18797:18813  return _decimals */\n      swap1\n      pop\n        /* \"contracts/polygonUsdt/Usdt-all-openzeppelin.sol\":18739:18820  function decimals() public view returns (uint8) {... */\n      swap1\n      jump\t// out\n        /* \"contracts/polygonUsdt/Usdt-all-openzeppelin.sol\":43919:44074  function getChainId() public pure returns (uint256) {... */\n    tag_115:\n        /* \"contracts/polygonUsdt/Usdt-all-openzeppelin.sol\":43962:43969  uint256 */\n      0x00\n        /* \"contracts/polygonUsdt/Usdt-all-openzeppelin.sol\":43981:43991  uint256 id */\n      dup1\n        /* \"contracts/polygonUsdt/Usdt-all-openzeppelin.sol\":44030:44039  chainid() */\n      chainid\n        /* \"contracts/polygonUsdt/Usdt-all-openzeppelin.sol\":44024:44039  id := chainid() */\n      swap1\n      pop\n        /* \"contracts/polygonUsdt/Usdt-all-openzeppelin.sol\":44065:44067  id */\n      dup1\n        /* \"contracts/polygonUsdt/Usdt-all-openzeppelin.sol\":44058:44067  return id */\n      swap2\n      pop\n      pop\n        /* \"contracts/polygonUsdt/Usdt-all-openzeppelin.sol\":43919:44074  function getChainId() public pure returns (uint256) {... */\n      swap1\n      jump\t// out\n        /* \"contracts/polygonUsdt/Usdt-all-openzeppelin.sol\":40122:40327  function renounceRole(bytes32 role, address account) public virtual {... */\n    tag_119:\n        /* \"contracts/polygonUsdt/Usdt-all-openzeppelin.sol\":40219:40231  _msgSender() */\n      tag_255\n        /* \"contracts/polygonUsdt/Usdt-all-openzeppelin.sol\":40219:40229  _msgSender */\n      tag_206\n        /* \"contracts/polygonUsdt/Usdt-all-openzeppelin.sol\":40219:40231  _msgSender() */\n      jump\t// in\n    tag_255:\n        /* \"contracts/polygonUsdt/Usdt-all-openzeppelin.sol\":40208:40231  account == _msgSender() */\n      0xffffffffffffffffffffffffffffffffffffffff\n      and\n        /* \"contracts/polygonUsdt/Usdt-all-openzeppelin.sol\":40208:40215  account */\n      dup2\n        /* \"contracts/polygonUsdt/Usdt-all-openzeppelin.sol\":40208:40231  account == _msgSender() */\n      0xffffffffffffffffffffffffffffffffffffffff\n      and\n      eq\n        /* \"contracts/polygonUsdt/Usdt-all-openzeppelin.sol\":40200:40283  require(account == _msgSender(), \"AccessControl: can only renounce roles for self\") */\n      tag_256\n      jumpi\n      mload(0x40)\n      0x08c379a000000000000000000000000000000000000000000000000000000000\n      dup2\n      mstore\n      0x04\n      add\n      dup1\n      dup1\n      0x20\n      add\n      dup3\n      dup2\n      sub\n      dup3\n      mstore\n      0x2f\n      dup2\n      mstore\n      0x20\n      add\n      dup1\n      data_fb06fa8ff2141e8ed74502f6792273793f25f0e9d3cf15344f3f5a0d4948fd4b\n      0x2f\n      swap2\n      codecopy\n      0x40\n      add\n      swap2\n      pop\n      pop\n      mload(0x40)\n      dup1\n      swap2\n      sub\n      swap1\n      revert\n    tag_256:\n        /* \"contracts/polygonUsdt/Usdt-all-openzeppelin.sol\":40294:40320  _revokeRole(role, account) */\n      tag_257\n        /* \"contracts/polygonUsdt/Usdt-all-openzeppelin.sol\":40306:40310  role */\n      dup3\n        /* \"contracts/polygonUsdt/Usdt-all-openzeppelin.sol\":40312:40319  account */\n      dup3\n        /* \"contracts/polygonUsdt/Usdt-all-openzeppelin.sol\":40294:40305  _revokeRole */\n      tag_258\n        /* \"contracts/polygonUsdt/Usdt-all-openzeppelin.sol\":40294:40320  _revokeRole(role, account) */\n      jump\t// in\n    tag_257:\n        /* \"contracts/polygonUsdt/Usdt-all-openzeppelin.sol\":40122:40327  function renounceRole(bytes32 role, address account) public virtual {... */\n      pop\n      pop\n      jump\t// out\n        /* \"contracts/polygonUsdt/Usdt-all-openzeppelin.sol\":21304:21519  function increaseAllowance(address spender, uint256 addedValue) public virtual returns (bool) {... */\n    tag_123:\n        /* \"contracts/polygonUsdt/Usdt-all-openzeppelin.sol\":21392:21396  bool */\n      0x00\n        /* \"contracts/polygonUsdt/Usdt-all-openzeppelin.sol\":21408:21491  _approve(_msgSender(), spender, _allowances[_msgSender()][spender].add(addedValue)) */\n      tag_260\n        /* \"contracts/polygonUsdt/Usdt-all-openzeppelin.sol\":21417:21429  _msgSender() */\n      tag_261\n        /* \"contracts/polygonUsdt/Usdt-all-openzeppelin.sol\":21417:21427  _msgSender */\n      tag_206\n        /* \"contracts/polygonUsdt/Usdt-all-openzeppelin.sol\":21417:21429  _msgSender() */\n      jump\t// in\n    tag_261:\n        /* \"contracts/polygonUsdt/Usdt-all-openzeppelin.sol\":21431:21438  spender */\n      dup5\n        /* \"contracts/polygonUsdt/Usdt-all-openzeppelin.sol\":21440:21490  _allowances[_msgSender()][spender].add(addedValue) */\n      tag_262\n        /* \"contracts/polygonUsdt/Usdt-all-openzeppelin.sol\":21479:21489  addedValue */\n      dup6\n        /* \"contracts/polygonUsdt/Usdt-all-openzeppelin.sol\":21440:21451  _allowances */\n      0x01\n        /* \"contracts/polygonUsdt/Usdt-all-openzeppelin.sol\":21440:21465  _allowances[_msgSender()] */\n      0x00\n        /* \"contracts/polygonUsdt/Usdt-all-openzeppelin.sol\":21452:21464  _msgSender() */\n      tag_263\n        /* \"contracts/polygonUsdt/Usdt-all-openzeppelin.sol\":21452:21462  _msgSender */\n      tag_206\n        /* \"contracts/polygonUsdt/Usdt-all-openzeppelin.sol\":21452:21464  _msgSender() */\n      jump\t// in\n    tag_263:\n        /* \"contracts/polygonUsdt/Usdt-all-openzeppelin.sol\":21440:21465  _allowances[_msgSender()] */\n      0xffffffffffffffffffffffffffffffffffffffff\n      and\n      0xffffffffffffffffffffffffffffffffffffffff\n      and\n      dup2\n      mstore\n      0x20\n      add\n      swap1\n      dup2\n      mstore\n      0x20\n      add\n      0x00\n      keccak256\n        /* \"contracts/polygonUsdt/Usdt-all-openzeppelin.sol\":21440:21474  _allowances[_msgSender()][spender] */\n      0x00\n        /* \"contracts/polygonUsdt/Usdt-all-openzeppelin.sol\":21466:21473  spender */\n      dup10\n        /* \"contracts/polygonUsdt/Usdt-all-openzeppelin.sol\":21440:21474  _allowances[_msgSender()][spender] */\n      0xffffffffffffffffffffffffffffffffffffffff\n      and\n      0xffffffffffffffffffffffffffffffffffffffff\n      and\n      dup2\n      mstore\n      0x20\n      add\n      swap1\n      dup2\n      mstore\n      0x20\n      add\n      0x00\n      keccak256\n      sload\n        /* \"contracts/polygonUsdt/Usdt-all-openzeppelin.sol\":21440:21478  _allowances[_msgSender()][spender].add */\n      tag_215\n      swap1\n        /* \"contracts/polygonUsdt/Usdt-all-openzeppelin.sol\":21440:21490  _allowances[_msgSender()][spender].add(addedValue) */\n      swap2\n      swap1\n      0xffffffff\n      and\n      jump\t// in\n    tag_262:\n        /* \"contracts/polygonUsdt/Usdt-all-openzeppelin.sol\":21408:21416  _approve */\n      tag_207\n        /* \"contracts/polygonUsdt/Usdt-all-openzeppelin.sol\":21408:21491  _approve(_msgSender(), spender, _allowances[_msgSender()][spender].add(addedValue)) */\n      jump\t// in\n    tag_260:\n        /* \"contracts/polygonUsdt/Usdt-all-openzeppelin.sol\":21508:21512  true */\n      0x01\n        /* \"contracts/polygonUsdt/Usdt-all-openzeppelin.sol\":21501:21512  return true */\n      swap1\n      pop\n        /* \"contracts/polygonUsdt/Usdt-all-openzeppelin.sol\":21304:21519  function increaseAllowance(address spender, uint256 addedValue) public virtual returns (bool) {... */\n      swap3\n      swap2\n      pop\n      pop\n      jump\t// out\n        /* \"contracts/polygonUsdt/Usdt-all-openzeppelin.sol\":50053:50213  function changeName(string calldata name_) external only(DEFAULT_ADMIN_ROLE) {... */\n    tag_130:\n        /* \"contracts/polygonUsdt/Usdt-all-openzeppelin.sol\":36076:36080  0x00 */\n      0x00\n        /* \"contracts/polygonUsdt/Usdt-all-openzeppelin.sol\":50110:50128  DEFAULT_ADMIN_ROLE */\n      dup1\n      shl\n        /* \"contracts/polygonUsdt/Usdt-all-openzeppelin.sol\":42090:42117  hasRole(role, _msgSender()) */\n      tag_265\n        /* \"contracts/polygonUsdt/Usdt-all-openzeppelin.sol\":42098:42102  role */\n      dup2\n        /* \"contracts/polygonUsdt/Usdt-all-openzeppelin.sol\":42104:42116  _msgSender() */\n      tag_266\n        /* \"contracts/polygonUsdt/Usdt-all-openzeppelin.sol\":42104:42114  _msgSender */\n      tag_206\n        /* \"contracts/polygonUsdt/Usdt-all-openzeppelin.sol\":42104:42116  _msgSender() */\n      jump\t// in\n    tag_266:\n        /* \"contracts/polygonUsdt/Usdt-all-openzeppelin.sol\":42090:42097  hasRole */\n      tag_148\n        /* \"contracts/polygonUsdt/Usdt-all-openzeppelin.sol\":42090:42117  hasRole(role, _msgSender()) */\n      jump\t// in\n    tag_265:\n        /* \"contracts/polygonUsdt/Usdt-all-openzeppelin.sol\":42131:42141  _revertMsg */\n      0x07\n        /* \"contracts/polygonUsdt/Usdt-all-openzeppelin.sol\":42069:42151  require(... */\n      swap1\n      tag_267\n      jumpi\n      mload(0x40)\n      0x08c379a000000000000000000000000000000000000000000000000000000000\n      dup2\n      mstore\n      0x04\n      add\n      dup1\n      dup1\n      0x20\n      add\n      dup3\n      dup2\n      sub\n      dup3\n      mstore\n      dup4\n      dup2\n      dup2\n      sload\n      0x01\n      dup2\n      0x01\n      and\n      iszero\n      0x0100\n      mul\n      sub\n      and\n      0x02\n      swap1\n      div\n      dup2\n      mstore\n      0x20\n      add\n      swap2\n      pop\n      dup1\n      sload\n      0x01\n      dup2\n      0x01\n      and\n      iszero\n      0x0100\n      mul\n      sub\n      and\n      0x02\n      swap1\n      div\n      dup1\n      iszero\n      tag_268\n      jumpi\n      dup1\n      0x1f\n      lt\n      tag_269\n      jumpi\n      0x0100\n      dup1\n      dup4\n      sload\n      div\n      mul\n      dup4\n      mstore\n      swap2\n      0x20\n      add\n      swap2\n      jump(tag_268)\n    tag_269:\n      dup3\n      add\n      swap2\n      swap1\n      0x00\n      mstore\n      keccak256(0x00, 0x20)\n      swap1\n    tag_270:\n      dup2\n      sload\n      dup2\n      mstore\n      swap1\n      0x01\n      add\n      swap1\n      0x20\n      add\n      dup1\n      dup4\n      gt\n      tag_270\n      jumpi\n      dup3\n      swap1\n      sub\n      0x1f\n      and\n      dup3\n      add\n      swap2\n    tag_268:\n      pop\n      pop\n      swap3\n      pop\n      pop\n      pop\n      mload(0x40)\n      dup1\n      swap2\n      sub\n      swap1\n      revert\n    tag_267:\n      pop\n        /* \"contracts/polygonUsdt/Usdt-all-openzeppelin.sol\":50140:50154  setName(name_) */\n      tag_272\n        /* \"contracts/polygonUsdt/Usdt-all-openzeppelin.sol\":50148:50153  name_ */\n      dup4\n      dup4\n        /* \"contracts/polygonUsdt/Usdt-all-openzeppelin.sol\":50140:50154  setName(name_) */\n      dup1\n      dup1\n      0x1f\n      add\n      0x20\n      dup1\n      swap2\n      div\n      mul\n      0x20\n      add\n      mload(0x40)\n      swap1\n      dup2\n      add\n      0x40\n      mstore\n      dup1\n      swap4\n      swap3\n      swap2\n      swap1\n      dup2\n      dup2\n      mstore\n      0x20\n      add\n      dup4\n      dup4\n        /* \"--CODEGEN--\":30:33   */\n      dup1\n        /* \"--CODEGEN--\":22:28   */\n      dup3\n        /* \"--CODEGEN--\":14:20   */\n      dup5\n        /* \"--CODEGEN--\":1:34   */\n      calldatacopy\n        /* \"--CODEGEN--\":99:100   */\n      0x00\n        /* \"--CODEGEN--\":93:96   */\n      dup2\n        /* \"--CODEGEN--\":85:91   */\n      dup5\n        /* \"--CODEGEN--\":81:97   */\n      add\n        /* \"--CODEGEN--\":74:101   */\n      mstore\n        /* \"--CODEGEN--\":137:141   */\n      0x1f\n        /* \"--CODEGEN--\":133:142   */\n      not\n        /* \"--CODEGEN--\":126:130   */\n      0x1f\n        /* \"--CODEGEN--\":121:124   */\n      dup3\n        /* \"--CODEGEN--\":117:131   */\n      add\n        /* \"--CODEGEN--\":113:143   */\n      and\n        /* \"--CODEGEN--\":106:143   */\n      swap1\n      pop\n        /* \"--CODEGEN--\":169:172   */\n      dup1\n        /* \"--CODEGEN--\":161:167   */\n      dup4\n        /* \"--CODEGEN--\":157:173   */\n      add\n        /* \"--CODEGEN--\":147:173   */\n      swap3\n      pop\n        /* \"contracts/polygonUsdt/Usdt-all-openzeppelin.sol\":50140:50154  setName(name_) */\n      pop\n      pop\n      pop\n      pop\n      pop\n      pop\n        /* \"contracts/polygonUsdt/Usdt-all-openzeppelin.sol\":50140:50147  setName */\n      tag_273\n        /* \"contracts/polygonUsdt/Usdt-all-openzeppelin.sol\":50140:50154  setName(name_) */\n      jump\t// in\n    tag_272:\n        /* \"contracts/polygonUsdt/Usdt-all-openzeppelin.sol\":50164:50206  _setDomainSeperator(name_, ERC712_VERSION) */\n      tag_274\n        /* \"contracts/polygonUsdt/Usdt-all-openzeppelin.sol\":50184:50189  name_ */\n      dup4\n      dup4\n        /* \"contracts/polygonUsdt/Usdt-all-openzeppelin.sol\":50164:50206  _setDomainSeperator(name_, ERC712_VERSION) */\n      dup1\n      dup1\n      0x1f\n      add\n      0x20\n      dup1\n      swap2\n      div\n      mul\n      0x20\n      add\n      mload(0x40)\n      swap1\n      dup2\n      add\n      0x40\n      mstore\n      dup1\n      swap4\n      swap3\n      swap2\n      swap1\n      dup2\n      dup2\n      mstore\n      0x20\n      add\n      dup4\n      dup4\n        /* \"--CODEGEN--\":30:33   */\n      dup1\n        /* \"--CODEGEN--\":22:28   */\n      dup3\n        /* \"--CODEGEN--\":14:20   */\n      dup5\n        /* \"--CODEGEN--\":1:34   */\n      calldatacopy\n        /* \"--CODEGEN--\":99:100   */\n      0x00\n        /* \"--CODEGEN--\":93:96   */\n      dup2\n        /* \"--CODEGEN--\":85:91   */\n      dup5\n        /* \"--CODEGEN--\":81:97   */\n      add\n        /* \"--CODEGEN--\":74:101   */\n      mstore\n        /* \"--CODEGEN--\":137:141   */\n      0x1f\n        /* \"--CODEGEN--\":133:142   */\n      not\n        /* \"--CODEGEN--\":126:130   */\n      0x1f\n        /* \"--CODEGEN--\":121:124   */\n      dup3\n        /* \"--CODEGEN--\":117:131   */\n      add\n        /* \"--CODEGEN--\":113:143   */\n      and\n        /* \"--CODEGEN--\":106:143   */\n      swap1\n      pop\n        /* \"--CODEGEN--\":169:172   */\n      dup1\n        /* \"--CODEGEN--\":161:167   */\n      dup4\n        /* \"--CODEGEN--\":157:173   */\n      add\n        /* \"--CODEGEN--\":147:173   */\n      swap3\n      pop\n        /* \"contracts/polygonUsdt/Usdt-all-openzeppelin.sol\":50164:50206  _setDomainSeperator(name_, ERC712_VERSION) */\n      pop\n      pop\n      pop\n      pop\n      pop\n      pop\n        /* \"contracts/polygonUsdt/Usdt-all-openzeppelin.sol\":50191:50205  ERC712_VERSION */\n      mload(0x40)\n      dup1\n      0x40\n      add\n      0x40\n      mstore\n      dup1\n      0x01\n      dup2\n      mstore\n      0x20\n      add\n      0x3100000000000000000000000000000000000000000000000000000000000000\n      dup2\n      mstore\n      pop\n        /* \"contracts/polygonUsdt/Usdt-all-openzeppelin.sol\":50164:50183  _setDomainSeperator */\n      tag_275\n        /* \"contracts/polygonUsdt/Usdt-all-openzeppelin.sol\":50164:50206  _setDomainSeperator(name_, ERC712_VERSION) */\n      jump\t// in\n    tag_274:\n        /* \"contracts/polygonUsdt/Usdt-all-openzeppelin.sol\":50053:50213  function changeName(string calldata name_) external only(DEFAULT_ADMIN_ROLE) {... */\n      pop\n      pop\n      pop\n      jump\t// out\n        /* \"contracts/polygonUsdt/Usdt-all-openzeppelin.sol\":47912:47956  uint256 constant public CHILD_CHAIN_ID = 137 */\n    tag_133:\n        /* \"contracts/polygonUsdt/Usdt-all-openzeppelin.sol\":47953:47956  137 */\n      0x89\n        /* \"contracts/polygonUsdt/Usdt-all-openzeppelin.sol\":47912:47956  uint256 constant public CHILD_CHAIN_ID = 137 */\n      dup2\n      jump\t// out\n        /* \"contracts/polygonUsdt/Usdt-all-openzeppelin.sol\":19129:19246  function balanceOf(address account) public view override returns (uint256) {... */\n    tag_137:\n        /* \"contracts/polygonUsdt/Usdt-all-openzeppelin.sol\":19195:19202  uint256 */\n      0x00\n        /* \"contracts/polygonUsdt/Usdt-all-openzeppelin.sol\":19221:19230  _balances */\n      dup1\n        /* \"contracts/polygonUsdt/Usdt-all-openzeppelin.sol\":19221:19239  _balances[account] */\n      0x00\n        /* \"contracts/polygonUsdt/Usdt-all-openzeppelin.sol\":19231:19238  account */\n      dup4\n        /* \"contracts/polygonUsdt/Usdt-all-openzeppelin.sol\":19221:19239  _balances[account] */\n      0xffffffffffffffffffffffffffffffffffffffff\n      and\n      0xffffffffffffffffffffffffffffffffffffffff\n      and\n      dup2\n      mstore\n      0x20\n      add\n      swap1\n      dup2\n      mstore\n      0x20\n      add\n      0x00\n      keccak256\n      sload\n        /* \"contracts/polygonUsdt/Usdt-all-openzeppelin.sol\":19214:19239  return _balances[account] */\n      swap1\n      pop\n        /* \"contracts/polygonUsdt/Usdt-all-openzeppelin.sol\":19129:19246  function balanceOf(address account) public view override returns (uint256) {... */\n      swap2\n      swap1\n      pop\n      jump\t// out\n        /* \"contracts/polygonUsdt/Usdt-all-openzeppelin.sol\":47807:47848  uint256 constant public ROOT_CHAIN_ID = 1 */\n    tag_140:\n        /* \"contracts/polygonUsdt/Usdt-all-openzeppelin.sol\":47847:47848  1 */\n      0x01\n        /* \"contracts/polygonUsdt/Usdt-all-openzeppelin.sol\":47807:47848  uint256 constant public ROOT_CHAIN_ID = 1 */\n      dup2\n      jump\t// out\n        /* \"contracts/polygonUsdt/Usdt-all-openzeppelin.sol\":38269:38405  function getRoleMember(bytes32 role, uint256 index) public view returns (address) {... */\n    tag_144:\n        /* \"contracts/polygonUsdt/Usdt-all-openzeppelin.sol\":38342:38349  address */\n      0x00\n        /* \"contracts/polygonUsdt/Usdt-all-openzeppelin.sol\":38368:38398  _roles[role].members.at(index) */\n      tag_278\n        /* \"contracts/polygonUsdt/Usdt-all-openzeppelin.sol\":38392:38397  index */\n      dup3\n        /* \"contracts/polygonUsdt/Usdt-all-openzeppelin.sol\":38368:38374  _roles */\n      0x06\n        /* \"contracts/polygonUsdt/Usdt-all-openzeppelin.sol\":38368:38380  _roles[role] */\n      0x00\n        /* \"contracts/polygonUsdt/Usdt-all-openzeppelin.sol\":38375:38379  role */\n      dup7\n        /* \"contracts/polygonUsdt/Usdt-all-openzeppelin.sol\":38368:38380  _roles[role] */\n      dup2\n      mstore\n      0x20\n      add\n      swap1\n      dup2\n      mstore\n      0x20\n      add\n      0x00\n      keccak256\n        /* \"contracts/polygonUsdt/Usdt-all-openzeppelin.sol\":38368:38388  _roles[role].members */\n      0x00\n      add\n        /* \"contracts/polygonUsdt/Usdt-all-openzeppelin.sol\":38368:38391  _roles[role].members.at */\n      tag_279\n      swap1\n        /* \"contracts/polygonUsdt/Usdt-all-openzeppelin.sol\":38368:38398  _roles[role].members.at(index) */\n      swap2\n      swap1\n      0xffffffff\n      and\n      jump\t// in\n    tag_278:\n        /* \"contracts/polygonUsdt/Usdt-all-openzeppelin.sol\":38361:38398  return _roles[role].members.at(index) */\n      swap1\n      pop\n        /* \"contracts/polygonUsdt/Usdt-all-openzeppelin.sol\":38269:38405  function getRoleMember(bytes32 role, uint256 index) public view returns (address) {... */\n      swap3\n      swap2\n      pop\n      pop\n      jump\t// out\n        /* \"contracts/polygonUsdt/Usdt-all-openzeppelin.sol\":37254:37391  function hasRole(bytes32 role, address account) public view returns (bool) {... */\n    tag_148:\n        /* \"contracts/polygonUsdt/Usdt-all-openzeppelin.sol\":37323:37327  bool */\n      0x00\n        /* \"contracts/polygonUsdt/Usdt-all-openzeppelin.sol\":37346:37384  _roles[role].members.contains(account) */\n      tag_281\n        /* \"contracts/polygonUsdt/Usdt-all-openzeppelin.sol\":37376:37383  account */\n      dup3\n        /* \"contracts/polygonUsdt/Usdt-all-openzeppelin.sol\":37346:37352  _roles */\n      0x06\n        /* \"contracts/polygonUsdt/Usdt-all-openzeppelin.sol\":37346:37358  _roles[role] */\n      0x00\n        /* \"contracts/polygonUsdt/Usdt-all-openzeppelin.sol\":37353:37357  role */\n      dup7\n        /* \"contracts/polygonUsdt/Usdt-all-openzeppelin.sol\":37346:37358  _roles[role] */\n      dup2\n      mstore\n      0x20\n      add\n      swap1\n      dup2\n      mstore\n      0x20\n      add\n      0x00\n      keccak256\n        /* \"contracts/polygonUsdt/Usdt-all-openzeppelin.sol\":37346:37366  _roles[role].members */\n      0x00\n      add\n        /* \"contracts/polygonUsdt/Usdt-all-openzeppelin.sol\":37346:37375  _roles[role].members.contains */\n      tag_282\n      swap1\n        /* \"contracts/polygonUsdt/Usdt-all-openzeppelin.sol\":37346:37384  _roles[role].members.contains(account) */\n      swap2\n      swap1\n      0xffffffff\n      and\n      jump\t// in\n    tag_281:\n        /* \"contracts/polygonUsdt/Usdt-all-openzeppelin.sol\":37339:37384  return _roles[role].members.contains(account) */\n      swap1\n      pop\n        /* \"contracts/polygonUsdt/Usdt-all-openzeppelin.sol\":37254:37391  function hasRole(bytes32 role, address account) public view returns (bool) {... */\n      swap3\n      swap2\n      pop\n      pop\n      jump\t// out\n        /* \"contracts/polygonUsdt/Usdt-all-openzeppelin.sol\":17938:18023  function symbol() public view returns (string memory) {... */\n    tag_151:\n        /* \"contracts/polygonUsdt/Usdt-all-openzeppelin.sol\":17977:17990  string memory */\n      0x60\n        /* \"contracts/polygonUsdt/Usdt-all-openzeppelin.sol\":18009:18016  _symbol */\n      0x04\n        /* \"contracts/polygonUsdt/Usdt-all-openzeppelin.sol\":18002:18016  return _symbol */\n      dup1\n      sload\n      0x01\n      dup2\n      0x01\n      and\n      iszero\n      0x0100\n      mul\n      sub\n      and\n      0x02\n      swap1\n      div\n      dup1\n      0x1f\n      add\n      0x20\n      dup1\n      swap2\n      div\n      mul\n      0x20\n      add\n      mload(0x40)\n      swap1\n      dup2\n      add\n      0x40\n      mstore\n      dup1\n      swap3\n      swap2\n      swap1\n      dup2\n      dup2\n      mstore\n      0x20\n      add\n      dup3\n      dup1\n      sload\n      0x01\n      dup2\n      0x01\n      and\n      iszero\n      0x0100\n      mul\n      sub\n      and\n      0x02\n      swap1\n      div\n      dup1\n      iszero\n      tag_284\n      jumpi\n      dup1\n      0x1f\n      lt\n      tag_285\n      jumpi\n      0x0100\n      dup1\n      dup4\n      sload\n      div\n      mul\n      dup4\n      mstore\n      swap2\n      0x20\n      add\n      swap2\n      jump(tag_284)\n    tag_285:\n      dup3\n      add\n      swap2\n      swap1\n      0x00\n      mstore\n      keccak256(0x00, 0x20)\n      swap1\n    tag_286:\n      dup2\n      sload\n      dup2\n      mstore\n      swap1\n      0x01\n      add\n      swap1\n      0x20\n      add\n      dup1\n      dup4\n      gt\n      tag_286\n      jumpi\n      dup3\n      swap1\n      sub\n      0x1f\n      and\n      dup3\n      add\n      swap2\n    tag_284:\n      pop\n      pop\n      pop\n      pop\n      pop\n      swap1\n      pop\n        /* \"contracts/polygonUsdt/Usdt-all-openzeppelin.sol\":17938:18023  function symbol() public view returns (string memory) {... */\n      swap1\n      jump\t// out\n        /* \"contracts/polygonUsdt/Usdt-all-openzeppelin.sol\":36031:36080  bytes32 public constant DEFAULT_ADMIN_ROLE = 0x00 */\n    tag_158:\n        /* \"contracts/polygonUsdt/Usdt-all-openzeppelin.sol\":36076:36080  0x00 */\n      0x00\n        /* \"contracts/polygonUsdt/Usdt-all-openzeppelin.sol\":36031:36080  bytes32 public constant DEFAULT_ADMIN_ROLE = 0x00 */\n      dup1\n      shl\n      dup2\n      jump\t// out\n        /* \"contracts/polygonUsdt/Usdt-all-openzeppelin.sol\":49002:49070  bytes32 public constant DEPOSITOR_ROLE = keccak256(\"DEPOSITOR_ROLE\") */\n    tag_161:\n        /* \"contracts/polygonUsdt/Usdt-all-openzeppelin.sol\":49043:49070  keccak256(\"DEPOSITOR_ROLE\") */\n      mload(0x40)\n      dup1\n      dup1\n      0x4445504f5349544f525f524f4c45000000000000000000000000000000000000\n      dup2\n      mstore\n      pop\n      0x0e\n      add\n      swap1\n      pop\n      mload(0x40)\n      dup1\n      swap2\n      sub\n      swap1\n      keccak256\n        /* \"contracts/polygonUsdt/Usdt-all-openzeppelin.sol\":49002:49070  bytes32 public constant DEPOSITOR_ROLE = keccak256(\"DEPOSITOR_ROLE\") */\n      dup2\n      jump\t// out\n        /* \"contracts/polygonUsdt/Usdt-all-openzeppelin.sol\":22006:22272  function decreaseAllowance(address spender, uint256 subtractedValue) public virtual returns (bool) {... */\n    tag_165:\n        /* \"contracts/polygonUsdt/Usdt-all-openzeppelin.sol\":22099:22103  bool */\n      0x00\n        /* \"contracts/polygonUsdt/Usdt-all-openzeppelin.sol\":22115:22244  _approve(_msgSender(), spender, _allowances[_msgSender()][spender].sub(subtractedValue, \"ERC20: decreased allowance below zero\")) */\n      tag_288\n        /* \"contracts/polygonUsdt/Usdt-all-openzeppelin.sol\":22124:22136  _msgSender() */\n      tag_289\n        /* \"contracts/polygonUsdt/Usdt-all-openzeppelin.sol\":22124:22134  _msgSender */\n      tag_206\n        /* \"contracts/polygonUsdt/Usdt-all-openzeppelin.sol\":22124:22136  _msgSender() */\n      jump\t// in\n    tag_289:\n        /* \"contracts/polygonUsdt/Usdt-all-openzeppelin.sol\":22138:22145  spender */\n      dup5\n        /* \"contracts/polygonUsdt/Usdt-all-openzeppelin.sol\":22147:22243  _allowances[_msgSender()][spender].sub(subtractedValue, \"ERC20: decreased allowance below zero\") */\n      tag_290\n        /* \"contracts/polygonUsdt/Usdt-all-openzeppelin.sol\":22186:22201  subtractedValue */\n      dup6\n        /* \"contracts/polygonUsdt/Usdt-all-openzeppelin.sol\":22147:22243  _allowances[_msgSender()][spender].sub(subtractedValue, \"ERC20: decreased allowance below zero\") */\n      mload(0x40)\n      dup1\n      0x60\n      add\n      0x40\n      mstore\n      dup1\n      0x25\n      dup2\n      mstore\n      0x20\n      add\n      data_f8b476f7d28209d77d4a4ac1fe36b9f8259aa1bb6bddfa6e89de7e51615cf8a8\n      0x25\n      swap2\n      codecopy\n        /* \"contracts/polygonUsdt/Usdt-all-openzeppelin.sol\":22147:22158  _allowances */\n      0x01\n        /* \"contracts/polygonUsdt/Usdt-all-openzeppelin.sol\":22147:22172  _allowances[_msgSender()] */\n      0x00\n        /* \"contracts/polygonUsdt/Usdt-all-openzeppelin.sol\":22159:22171  _msgSender() */\n      tag_291\n        /* \"contracts/polygonUsdt/Usdt-all-openzeppelin.sol\":22159:22169  _msgSender */\n      tag_206\n        /* \"contracts/polygonUsdt/Usdt-all-openzeppelin.sol\":22159:22171  _msgSender() */\n      jump\t// in\n    tag_291:\n        /* \"contracts/polygonUsdt/Usdt-all-openzeppelin.sol\":22147:22172  _allowances[_msgSender()] */\n      0xffffffffffffffffffffffffffffffffffffffff\n      and\n      0xffffffffffffffffffffffffffffffffffffffff\n      and\n      dup2\n      mstore\n      0x20\n      add\n      swap1\n      dup2\n      mstore\n      0x20\n      add\n      0x00\n      keccak256\n        /* \"contracts/polygonUsdt/Usdt-all-openzeppelin.sol\":22147:22181  _allowances[_msgSender()][spender] */\n      0x00\n        /* \"contracts/polygonUsdt/Usdt-all-openzeppelin.sol\":22173:22180  spender */\n      dup11\n        /* \"contracts/polygonUsdt/Usdt-all-openzeppelin.sol\":22147:22181  _allowances[_msgSender()][spender] */\n      0xffffffffffffffffffffffffffffffffffffffff\n      and\n      0xffffffffffffffffffffffffffffffffffffffff\n      and\n      dup2\n      mstore\n      0x20\n      add\n      swap1\n      dup2\n      mstore\n      0x20\n      add\n      0x00\n      keccak256\n      sload\n        /* \"contracts/polygonUsdt/Usdt-all-openzeppelin.sol\":22147:22185  _allowances[_msgSender()][spender].sub */\n      tag_239\n      swap1\n        /* \"contracts/polygonUsdt/Usdt-all-openzeppelin.sol\":22147:22243  _allowances[_msgSender()][spender].sub(subtractedValue, \"ERC20: decreased allowance below zero\") */\n      swap3\n      swap2\n      swap1\n      0xffffffff\n      and\n      jump\t// in\n    tag_290:\n        /* \"contracts/polygonUsdt/Usdt-all-openzeppelin.sol\":22115:22123  _approve */\n      tag_207\n        /* \"contracts/polygonUsdt/Usdt-all-openzeppelin.sol\":22115:22244  _approve(_msgSender(), spender, _allowances[_msgSender()][spender].sub(subtractedValue, \"ERC20: decreased allowance below zero\")) */\n      jump\t// in\n    tag_288:\n        /* \"contracts/polygonUsdt/Usdt-all-openzeppelin.sol\":22261:22265  true */\n      0x01\n        /* \"contracts/polygonUsdt/Usdt-all-openzeppelin.sol\":22254:22265  return true */\n      swap1\n      pop\n        /* \"contracts/polygonUsdt/Usdt-all-openzeppelin.sol\":22006:22272  function decreaseAllowance(address spender, uint256 subtractedValue) public virtual returns (bool) {... */\n      swap3\n      swap2\n      pop\n      pop\n      jump\t// out\n        /* \"contracts/polygonUsdt/Usdt-all-openzeppelin.sol\":19449:19621  function transfer(address recipient, uint256 amount) public virtual override returns (bool) {... */\n    tag_169:\n        /* \"contracts/polygonUsdt/Usdt-all-openzeppelin.sol\":19535:19539  bool */\n      0x00\n        /* \"contracts/polygonUsdt/Usdt-all-openzeppelin.sol\":19551:19593  _transfer(_msgSender(), recipient, amount) */\n      tag_293\n        /* \"contracts/polygonUsdt/Usdt-all-openzeppelin.sol\":19561:19573  _msgSender() */\n      tag_294\n        /* \"contracts/polygonUsdt/Usdt-all-openzeppelin.sol\":19561:19571  _msgSender */\n      tag_206\n        /* \"contracts/polygonUsdt/Usdt-all-openzeppelin.sol\":19561:19573  _msgSender() */\n      jump\t// in\n    tag_294:\n        /* \"contracts/polygonUsdt/Usdt-all-openzeppelin.sol\":19575:19584  recipient */\n      dup5\n        /* \"contracts/polygonUsdt/Usdt-all-openzeppelin.sol\":19586:19592  amount */\n      dup5\n        /* \"contracts/polygonUsdt/Usdt-all-openzeppelin.sol\":19551:19560  _transfer */\n      tag_234\n        /* \"contracts/polygonUsdt/Usdt-all-openzeppelin.sol\":19551:19593  _transfer(_msgSender(), recipient, amount) */\n      jump\t// in\n    tag_293:\n        /* \"contracts/polygonUsdt/Usdt-all-openzeppelin.sol\":19610:19614  true */\n      0x01\n        /* \"contracts/polygonUsdt/Usdt-all-openzeppelin.sol\":19603:19614  return true */\n      swap1\n      pop\n        /* \"contracts/polygonUsdt/Usdt-all-openzeppelin.sol\":19449:19621  function transfer(address recipient, uint256 amount) public virtual override returns (bool) {... */\n      swap3\n      swap2\n      pop\n      pop\n      jump\t// out\n        /* \"contracts/polygonUsdt/Usdt-all-openzeppelin.sol\":37559:37684  function getRoleMemberCount(bytes32 role) public view returns (uint256) {... */\n    tag_173:\n        /* \"contracts/polygonUsdt/Usdt-all-openzeppelin.sol\":37622:37629  uint256 */\n      0x00\n        /* \"contracts/polygonUsdt/Usdt-all-openzeppelin.sol\":37648:37677  _roles[role].members.length() */\n      tag_296\n        /* \"contracts/polygonUsdt/Usdt-all-openzeppelin.sol\":37648:37654  _roles */\n      0x06\n        /* \"contracts/polygonUsdt/Usdt-all-openzeppelin.sol\":37648:37660  _roles[role] */\n      0x00\n        /* \"contracts/polygonUsdt/Usdt-all-openzeppelin.sol\":37655:37659  role */\n      dup5\n        /* \"contracts/polygonUsdt/Usdt-all-openzeppelin.sol\":37648:37660  _roles[role] */\n      dup2\n      mstore\n      0x20\n      add\n      swap1\n      dup2\n      mstore\n      0x20\n      add\n      0x00\n      keccak256\n        /* \"contracts/polygonUsdt/Usdt-all-openzeppelin.sol\":37648:37668  _roles[role].members */\n      0x00\n      add\n        /* \"contracts/polygonUsdt/Usdt-all-openzeppelin.sol\":37648:37675  _roles[role].members.length */\n      tag_297\n        /* \"contracts/polygonUsdt/Usdt-all-openzeppelin.sol\":37648:37677  _roles[role].members.length() */\n      jump\t// in\n    tag_296:\n        /* \"contracts/polygonUsdt/Usdt-all-openzeppelin.sol\":37641:37677  return _roles[role].members.length() */\n      swap1\n      pop\n        /* \"contracts/polygonUsdt/Usdt-all-openzeppelin.sol\":37559:37684  function getRoleMemberCount(bytes32 role) public view returns (uint256) {... */\n      swap2\n      swap1\n      pop\n      jump\t// out\n        /* \"contracts/polygonUsdt/Usdt-all-openzeppelin.sol\":50584:50807  function deposit(address user, bytes calldata depositData)... */\n    tag_180:\n        /* \"contracts/polygonUsdt/Usdt-all-openzeppelin.sol\":49043:49070  keccak256(\"DEPOSITOR_ROLE\") */\n      mload(0x40)\n      dup1\n      dup1\n      0x4445504f5349544f525f524f4c45000000000000000000000000000000000000\n      dup2\n      mstore\n      pop\n      0x0e\n      add\n      swap1\n      pop\n      mload(0x40)\n      dup1\n      swap2\n      sub\n      swap1\n      keccak256\n        /* \"contracts/polygonUsdt/Usdt-all-openzeppelin.sol\":42090:42117  hasRole(role, _msgSender()) */\n      tag_299\n        /* \"contracts/polygonUsdt/Usdt-all-openzeppelin.sol\":42098:42102  role */\n      dup2\n        /* \"contracts/polygonUsdt/Usdt-all-openzeppelin.sol\":42104:42116  _msgSender() */\n      tag_300\n        /* \"contracts/polygonUsdt/Usdt-all-openzeppelin.sol\":42104:42114  _msgSender */\n      tag_206\n        /* \"contracts/polygonUsdt/Usdt-all-openzeppelin.sol\":42104:42116  _msgSender() */\n      jump\t// in\n    tag_300:\n        /* \"contracts/polygonUsdt/Usdt-all-openzeppelin.sol\":42090:42097  hasRole */\n      tag_148\n        /* \"contracts/polygonUsdt/Usdt-all-openzeppelin.sol\":42090:42117  hasRole(role, _msgSender()) */\n      jump\t// in\n    tag_299:\n        /* \"contracts/polygonUsdt/Usdt-all-openzeppelin.sol\":42131:42141  _revertMsg */\n      0x07\n        /* \"contracts/polygonUsdt/Usdt-all-openzeppelin.sol\":42069:42151  require(... */\n      swap1\n      tag_301\n      jumpi\n      mload(0x40)\n      0x08c379a000000000000000000000000000000000000000000000000000000000\n      dup2\n      mstore\n      0x04\n      add\n      dup1\n      dup1\n      0x20\n      add\n      dup3\n      dup2\n      sub\n      dup3\n      mstore\n      dup4\n      dup2\n      dup2\n      sload\n      0x01\n      dup2\n      0x01\n      and\n      iszero\n      0x0100\n      mul\n      sub\n      and\n      0x02\n      swap1\n      div\n      dup2\n      mstore\n      0x20\n      add\n      swap2\n      pop\n      dup1\n      sload\n      0x01\n      dup2\n      0x01\n      and\n      iszero\n      0x0100\n      mul\n      sub\n      and\n      0x02\n      swap1\n      div\n      dup1\n      iszero\n      tag_302\n      jumpi\n      dup1\n      0x1f\n      lt\n      tag_303\n      jumpi\n      0x0100\n      dup1\n      dup4\n      sload\n      div\n      mul\n      dup4\n      mstore\n      swap2\n      0x20\n      add\n      swap2\n      jump(tag_302)\n    tag_303:\n      dup3\n      add\n      swap2\n      swap1\n      0x00\n      mstore\n      keccak256(0x00, 0x20)\n      swap1\n    tag_304:\n      dup2\n      sload\n      dup2\n      mstore\n      swap1\n      0x01\n      add\n      swap1\n      0x20\n      add\n      dup1\n      dup4\n      gt\n      tag_304\n      jumpi\n      dup3\n      swap1\n      sub\n      0x1f\n      and\n      dup3\n      add\n      swap2\n    tag_302:\n      pop\n      pop\n      swap3\n      pop\n      pop\n      pop\n      mload(0x40)\n      dup1\n      swap2\n      sub\n      swap1\n      revert\n    tag_301:\n      pop\n        /* \"contracts/polygonUsdt/Usdt-all-openzeppelin.sol\":50720:50734  uint256 amount */\n      0x00\n        /* \"contracts/polygonUsdt/Usdt-all-openzeppelin.sol\":50748:50759  depositData */\n      dup4\n      dup4\n        /* \"--CODEGEN--\":15:17   */\n      0x20\n        /* \"--CODEGEN--\":10:13   */\n      dup2\n        /* \"--CODEGEN--\":7:18   */\n      lt\n        /* \"--CODEGEN--\":4:6   */\n      iszero\n      tag_306\n      jumpi\n        /* \"--CODEGEN--\":31:32   */\n      0x00\n        /* \"--CODEGEN--\":28:29   */\n      dup1\n        /* \"--CODEGEN--\":21:33   */\n      revert\n        /* \"--CODEGEN--\":4:6   */\n    tag_306:\n        /* \"contracts/polygonUsdt/Usdt-all-openzeppelin.sol\":50737:50771  abi.decode(depositData, (uint256)) */\n      dup2\n      add\n      swap1\n      dup1\n      dup1\n      calldataload\n      swap1\n      0x20\n      add\n      swap1\n      swap3\n      swap2\n      swap1\n      pop\n      pop\n      pop\n        /* \"contracts/polygonUsdt/Usdt-all-openzeppelin.sol\":50720:50771  uint256 amount = abi.decode(depositData, (uint256)) */\n      swap1\n      pop\n        /* \"contracts/polygonUsdt/Usdt-all-openzeppelin.sol\":50781:50800  _mint(user, amount) */\n      tag_307\n        /* \"contracts/polygonUsdt/Usdt-all-openzeppelin.sol\":50787:50791  user */\n      dup6\n        /* \"contracts/polygonUsdt/Usdt-all-openzeppelin.sol\":50793:50799  amount */\n      dup3\n        /* \"contracts/polygonUsdt/Usdt-all-openzeppelin.sol\":50781:50786  _mint */\n      tag_308\n        /* \"contracts/polygonUsdt/Usdt-all-openzeppelin.sol\":50781:50800  _mint(user, amount) */\n      jump\t// in\n    tag_307:\n        /* \"contracts/polygonUsdt/Usdt-all-openzeppelin.sol\":42161:42162  _ */\n      pop\n        /* \"contracts/polygonUsdt/Usdt-all-openzeppelin.sol\":50584:50807  function deposit(address user, bytes calldata depositData)... */\n      pop\n      pop\n      pop\n      pop\n      jump\t// out\n        /* \"contracts/polygonUsdt/Usdt-all-openzeppelin.sol\":39405:39631  function revokeRole(bytes32 role, address account) public virtual {... */\n    tag_184:\n        /* \"contracts/polygonUsdt/Usdt-all-openzeppelin.sol\":39489:39534  hasRole(_roles[role].adminRole, _msgSender()) */\n      tag_310\n        /* \"contracts/polygonUsdt/Usdt-all-openzeppelin.sol\":39497:39503  _roles */\n      0x06\n        /* \"contracts/polygonUsdt/Usdt-all-openzeppelin.sol\":39497:39509  _roles[role] */\n      0x00\n        /* \"contracts/polygonUsdt/Usdt-all-openzeppelin.sol\":39504:39508  role */\n      dup5\n        /* \"contracts/polygonUsdt/Usdt-all-openzeppelin.sol\":39497:39509  _roles[role] */\n      dup2\n      mstore\n      0x20\n      add\n      swap1\n      dup2\n      mstore\n      0x20\n      add\n      0x00\n      keccak256\n        /* \"contracts/polygonUsdt/Usdt-all-openzeppelin.sol\":39497:39519  _roles[role].adminRole */\n      0x02\n      add\n      sload\n        /* \"contracts/polygonUsdt/Usdt-all-openzeppelin.sol\":39521:39533  _msgSender() */\n      tag_311\n        /* \"contracts/polygonUsdt/Usdt-all-openzeppelin.sol\":39521:39531  _msgSender */\n      tag_206\n        /* \"contracts/polygonUsdt/Usdt-all-openzeppelin.sol\":39521:39533  _msgSender() */\n      jump\t// in\n    tag_311:\n        /* \"contracts/polygonUsdt/Usdt-all-openzeppelin.sol\":39489:39496  hasRole */\n      tag_148\n        /* \"contracts/polygonUsdt/Usdt-all-openzeppelin.sol\":39489:39534  hasRole(_roles[role].adminRole, _msgSender()) */\n      jump\t// in\n    tag_310:\n        /* \"contracts/polygonUsdt/Usdt-all-openzeppelin.sol\":39481:39587  require(hasRole(_roles[role].adminRole, _msgSender()), \"AccessControl: sender must be an admin to revoke\") */\n      tag_312\n      jumpi\n      mload(0x40)\n      0x08c379a000000000000000000000000000000000000000000000000000000000\n      dup2\n      mstore\n      0x04\n      add\n      dup1\n      dup1\n      0x20\n      add\n      dup3\n      dup2\n      sub\n      dup3\n      mstore\n      0x30\n      dup2\n      mstore\n      0x20\n      add\n      dup1\n      data_64344570eab7406ca49d34d38bf2b2496dfda914405390c5057c8b0aabf798a3\n      0x30\n      swap2\n      codecopy\n      0x40\n      add\n      swap2\n      pop\n      pop\n      mload(0x40)\n      dup1\n      swap2\n      sub\n      swap1\n      revert\n    tag_312:\n        /* \"contracts/polygonUsdt/Usdt-all-openzeppelin.sol\":39598:39624  _revokeRole(role, account) */\n      tag_313\n        /* \"contracts/polygonUsdt/Usdt-all-openzeppelin.sol\":39610:39614  role */\n      dup3\n        /* \"contracts/polygonUsdt/Usdt-all-openzeppelin.sol\":39616:39623  account */\n      dup3\n        /* \"contracts/polygonUsdt/Usdt-all-openzeppelin.sol\":39598:39609  _revokeRole */\n      tag_258\n        /* \"contracts/polygonUsdt/Usdt-all-openzeppelin.sol\":39598:39624  _revokeRole(role, account) */\n      jump\t// in\n    tag_313:\n        /* \"contracts/polygonUsdt/Usdt-all-openzeppelin.sol\":39405:39631  function revokeRole(bytes32 role, address account) public virtual {... */\n      pop\n      pop\n      jump\t// out\n        /* \"contracts/polygonUsdt/Usdt-all-openzeppelin.sol\":19679:19828  function allowance(address owner, address spender) public view virtual override returns (uint256) {... */\n    tag_188:\n        /* \"contracts/polygonUsdt/Usdt-all-openzeppelin.sol\":19768:19775  uint256 */\n      0x00\n        /* \"contracts/polygonUsdt/Usdt-all-openzeppelin.sol\":19794:19805  _allowances */\n      0x01\n        /* \"contracts/polygonUsdt/Usdt-all-openzeppelin.sol\":19794:19812  _allowances[owner] */\n      0x00\n        /* \"contracts/polygonUsdt/Usdt-all-openzeppelin.sol\":19806:19811  owner */\n      dup5\n        /* \"contracts/polygonUsdt/Usdt-all-openzeppelin.sol\":19794:19812  _allowances[owner] */\n      0xffffffffffffffffffffffffffffffffffffffff\n      and\n      0xffffffffffffffffffffffffffffffffffffffff\n      and\n      dup2\n      mstore\n      0x20\n      add\n      swap1\n      dup2\n      mstore\n      0x20\n      add\n      0x00\n      keccak256\n        /* \"contracts/polygonUsdt/Usdt-all-openzeppelin.sol\":19794:19821  _allowances[owner][spender] */\n      0x00\n        /* \"contracts/polygonUsdt/Usdt-all-openzeppelin.sol\":19813:19820  spender */\n      dup4\n        /* \"contracts/polygonUsdt/Usdt-all-openzeppelin.sol\":19794:19821  _allowances[owner][spender] */\n      0xffffffffffffffffffffffffffffffffffffffff\n      and\n      0xffffffffffffffffffffffffffffffffffffffff\n      and\n      dup2\n      mstore\n      0x20\n      add\n      swap1\n      dup2\n      mstore\n      0x20\n      add\n      0x00\n      keccak256\n      sload\n        /* \"contracts/polygonUsdt/Usdt-all-openzeppelin.sol\":19787:19821  return _allowances[owner][spender] */\n      swap1\n      pop\n        /* \"contracts/polygonUsdt/Usdt-all-openzeppelin.sol\":19679:19828  function allowance(address owner, address spender) public view virtual override returns (uint256) {... */\n      swap3\n      swap2\n      pop\n      pop\n      jump\t// out\n        /* \"contracts/polygonUsdt/Usdt-all-openzeppelin.sol\":49268:49765  function initialize(... */\n    tag_198:\n        /* \"contracts/polygonUsdt/Usdt-all-openzeppelin.sol\":42516:42522  inited */\n      0x08\n      0x00\n      swap1\n      sload\n      swap1\n      0x0100\n      exp\n      swap1\n      div\n      0xff\n      and\n        /* \"contracts/polygonUsdt/Usdt-all-openzeppelin.sol\":42515:42522  !inited */\n      iszero\n        /* \"contracts/polygonUsdt/Usdt-all-openzeppelin.sol\":42507:42541  require(!inited, \"already inited\") */\n      tag_316\n      jumpi\n      mload(0x40)\n      0x08c379a000000000000000000000000000000000000000000000000000000000\n      dup2\n      mstore\n      0x04\n      add\n      dup1\n      dup1\n      0x20\n      add\n      dup3\n      dup2\n      sub\n      dup3\n      mstore\n      0x0e\n      dup2\n      mstore\n      0x20\n      add\n      dup1\n      0x616c726561647920696e69746564000000000000000000000000000000000000\n      dup2\n      mstore\n      pop\n      0x20\n      add\n      swap2\n      pop\n      pop\n      mload(0x40)\n      dup1\n      swap2\n      sub\n      swap1\n      revert\n    tag_316:\n        /* \"contracts/polygonUsdt/Usdt-all-openzeppelin.sol\":49467:49481  setName(name_) */\n      tag_318\n        /* \"contracts/polygonUsdt/Usdt-all-openzeppelin.sol\":49475:49480  name_ */\n      dup7\n      dup7\n        /* \"contracts/polygonUsdt/Usdt-all-openzeppelin.sol\":49467:49481  setName(name_) */\n      dup1\n      dup1\n      0x1f\n      add\n      0x20\n      dup1\n      swap2\n      div\n      mul\n      0x20\n      add\n      mload(0x40)\n      swap1\n      dup2\n      add\n      0x40\n      mstore\n      dup1\n      swap4\n      swap3\n      swap2\n      swap1\n      dup2\n      dup2\n      mstore\n      0x20\n      add\n      dup4\n      dup4\n        /* \"--CODEGEN--\":30:33   */\n      dup1\n        /* \"--CODEGEN--\":22:28   */\n      dup3\n        /* \"--CODEGEN--\":14:20   */\n      dup5\n        /* \"--CODEGEN--\":1:34   */\n      calldatacopy\n        /* \"--CODEGEN--\":99:100   */\n      0x00\n        /* \"--CODEGEN--\":93:96   */\n      dup2\n        /* \"--CODEGEN--\":85:91   */\n      dup5\n        /* \"--CODEGEN--\":81:97   */\n      add\n        /* \"--CODEGEN--\":74:101   */\n      mstore\n        /* \"--CODEGEN--\":137:141   */\n      0x1f\n        /* \"--CODEGEN--\":133:142   */\n      not\n        /* \"--CODEGEN--\":126:130   */\n      0x1f\n        /* \"--CODEGEN--\":121:124   */\n      dup3\n        /* \"--CODEGEN--\":117:131   */\n      add\n        /* \"--CODEGEN--\":113:143   */\n      and\n        /* \"--CODEGEN--\":106:143   */\n      swap1\n      pop\n        /* \"--CODEGEN--\":169:172   */\n      dup1\n        /* \"--CODEGEN--\":161:167   */\n      dup4\n        /* \"--CODEGEN--\":157:173   */\n      add\n        /* \"--CODEGEN--\":147:173   */\n      swap3\n      pop\n        /* \"contracts/polygonUsdt/Usdt-all-openzeppelin.sol\":49467:49481  setName(name_) */\n      pop\n      pop\n      pop\n      pop\n      pop\n      pop\n        /* \"contracts/polygonUsdt/Usdt-all-openzeppelin.sol\":49467:49474  setName */\n      tag_273\n        /* \"contracts/polygonUsdt/Usdt-all-openzeppelin.sol\":49467:49481  setName(name_) */\n      jump\t// in\n    tag_318:\n        /* \"contracts/polygonUsdt/Usdt-all-openzeppelin.sol\":49489:49507  setSymbol(symbol_) */\n      tag_319\n        /* \"contracts/polygonUsdt/Usdt-all-openzeppelin.sol\":49499:49506  symbol_ */\n      dup5\n      dup5\n        /* \"contracts/polygonUsdt/Usdt-all-openzeppelin.sol\":49489:49507  setSymbol(symbol_) */\n      dup1\n      dup1\n      0x1f\n      add\n      0x20\n      dup1\n      swap2\n      div\n      mul\n      0x20\n      add\n      mload(0x40)\n      swap1\n      dup2\n      add\n      0x40\n      mstore\n      dup1\n      swap4\n      swap3\n      swap2\n      swap1\n      dup2\n      dup2\n      mstore\n      0x20\n      add\n      dup4\n      dup4\n        /* \"--CODEGEN--\":30:33   */\n      dup1\n        /* \"--CODEGEN--\":22:28   */\n      dup3\n        /* \"--CODEGEN--\":14:20   */\n      dup5\n        /* \"--CODEGEN--\":1:34   */\n      calldatacopy\n        /* \"--CODEGEN--\":99:100   */\n      0x00\n        /* \"--CODEGEN--\":93:96   */\n      dup2\n        /* \"--CODEGEN--\":85:91   */\n      dup5\n        /* \"--CODEGEN--\":81:97   */\n      add\n        /* \"--CODEGEN--\":74:101   */\n      mstore\n        /* \"--CODEGEN--\":137:141   */\n      0x1f\n        /* \"--CODEGEN--\":133:142   */\n      not\n        /* \"--CODEGEN--\":126:130   */\n      0x1f\n        /* \"--CODEGEN--\":121:124   */\n      dup3\n        /* \"--CODEGEN--\":117:131   */\n      add\n        /* \"--CODEGEN--\":113:143   */\n      and\n        /* \"--CODEGEN--\":106:143   */\n      swap1\n      pop\n        /* \"--CODEGEN--\":169:172   */\n      dup1\n        /* \"--CODEGEN--\":161:167   */\n      dup4\n        /* \"--CODEGEN--\":157:173   */\n      add\n        /* \"--CODEGEN--\":147:173   */\n      swap3\n      pop\n        /* \"contracts/polygonUsdt/Usdt-all-openzeppelin.sol\":49489:49507  setSymbol(symbol_) */\n      pop\n      pop\n      pop\n      pop\n      pop\n      pop\n        /* \"contracts/polygonUsdt/Usdt-all-openzeppelin.sol\":49489:49498  setSymbol */\n      tag_320\n        /* \"contracts/polygonUsdt/Usdt-all-openzeppelin.sol\":49489:49507  setSymbol(symbol_) */\n      jump\t// in\n    tag_319:\n        /* \"contracts/polygonUsdt/Usdt-all-openzeppelin.sol\":49515:49537  setDecimals(decimals_) */\n      tag_321\n        /* \"contracts/polygonUsdt/Usdt-all-openzeppelin.sol\":49527:49536  decimals_ */\n      dup3\n        /* \"contracts/polygonUsdt/Usdt-all-openzeppelin.sol\":49515:49526  setDecimals */\n      tag_322\n        /* \"contracts/polygonUsdt/Usdt-all-openzeppelin.sol\":49515:49537  setDecimals(decimals_) */\n      jump\t// in\n    tag_321:\n        /* \"contracts/polygonUsdt/Usdt-all-openzeppelin.sol\":49545:49605  _setupContractId(string(abi.encodePacked(\"Child\", symbol_))) */\n      tag_323\n        /* \"contracts/polygonUsdt/Usdt-all-openzeppelin.sol\":49595:49602  symbol_ */\n      dup5\n      dup5\n        /* \"contracts/polygonUsdt/Usdt-all-openzeppelin.sol\":49569:49603  abi.encodePacked(\"Child\", symbol_) */\n      add(0x20, mload(0x40))\n      dup1\n      dup1\n      0x4368696c64000000000000000000000000000000000000000000000000000000\n      dup2\n      mstore\n      pop\n      0x05\n      add\n      dup4\n      dup4\n        /* \"--CODEGEN--\":30:33   */\n      dup1\n        /* \"--CODEGEN--\":22:28   */\n      dup3\n        /* \"--CODEGEN--\":14:20   */\n      dup5\n        /* \"--CODEGEN--\":1:34   */\n      calldatacopy\n        /* \"--CODEGEN--\":57:60   */\n      dup1\n        /* \"--CODEGEN--\":49:55   */\n      dup4\n        /* \"--CODEGEN--\":45:61   */\n      add\n        /* \"--CODEGEN--\":35:61   */\n      swap3\n      pop\n        /* \"contracts/polygonUsdt/Usdt-all-openzeppelin.sol\":49569:49603  abi.encodePacked(\"Child\", symbol_) */\n      pop\n      pop\n      swap3\n      pop\n      pop\n      pop\n      mload(0x40)\n        /* \"--CODEGEN--\":49:53   */\n      0x20\n        /* \"--CODEGEN--\":39:46   */\n      dup2\n        /* \"--CODEGEN--\":30:37   */\n      dup4\n        /* \"--CODEGEN--\":26:47   */\n      sub\n        /* \"--CODEGEN--\":22:54   */\n      sub\n        /* \"--CODEGEN--\":13:20   */\n      dup2\n        /* \"--CODEGEN--\":6:55   */\n      mstore\n        /* \"contracts/polygonUsdt/Usdt-all-openzeppelin.sol\":49569:49603  abi.encodePacked(\"Child\", symbol_) */\n      swap1\n      0x40\n      mstore\n        /* \"contracts/polygonUsdt/Usdt-all-openzeppelin.sol\":49545:49561  _setupContractId */\n      tag_324\n        /* \"contracts/polygonUsdt/Usdt-all-openzeppelin.sol\":49545:49605  _setupContractId(string(abi.encodePacked(\"Child\", symbol_))) */\n      jump\t// in\n    tag_323:\n        /* \"contracts/polygonUsdt/Usdt-all-openzeppelin.sol\":49613:49657  _setupRole(DEFAULT_ADMIN_ROLE, _msgSender()) */\n      tag_325\n        /* \"contracts/polygonUsdt/Usdt-all-openzeppelin.sol\":36076:36080  0x00 */\n      0x00\n        /* \"contracts/polygonUsdt/Usdt-all-openzeppelin.sol\":49624:49642  DEFAULT_ADMIN_ROLE */\n      dup1\n      shl\n        /* \"contracts/polygonUsdt/Usdt-all-openzeppelin.sol\":49644:49656  _msgSender() */\n      tag_326\n        /* \"contracts/polygonUsdt/Usdt-all-openzeppelin.sol\":49644:49654  _msgSender */\n      tag_206\n        /* \"contracts/polygonUsdt/Usdt-all-openzeppelin.sol\":49644:49656  _msgSender() */\n      jump\t// in\n    tag_326:\n        /* \"contracts/polygonUsdt/Usdt-all-openzeppelin.sol\":49613:49623  _setupRole */\n      tag_327\n        /* \"contracts/polygonUsdt/Usdt-all-openzeppelin.sol\":49613:49657  _setupRole(DEFAULT_ADMIN_ROLE, _msgSender()) */\n      jump\t// in\n    tag_325:\n        /* \"contracts/polygonUsdt/Usdt-all-openzeppelin.sol\":49665:49710  _setupRole(DEPOSITOR_ROLE, childChainManager) */\n      tag_328\n        /* \"contracts/polygonUsdt/Usdt-all-openzeppelin.sol\":49043:49070  keccak256(\"DEPOSITOR_ROLE\") */\n      mload(0x40)\n      dup1\n      dup1\n      0x4445504f5349544f525f524f4c45000000000000000000000000000000000000\n      dup2\n      mstore\n      pop\n      0x0e\n      add\n      swap1\n      pop\n      mload(0x40)\n      dup1\n      swap2\n      sub\n      swap1\n      keccak256\n        /* \"contracts/polygonUsdt/Usdt-all-openzeppelin.sol\":49692:49709  childChainManager */\n      dup3\n        /* \"contracts/polygonUsdt/Usdt-all-openzeppelin.sol\":49665:49675  _setupRole */\n      tag_327\n        /* \"contracts/polygonUsdt/Usdt-all-openzeppelin.sol\":49665:49710  _setupRole(DEPOSITOR_ROLE, childChainManager) */\n      jump\t// in\n    tag_328:\n        /* \"contracts/polygonUsdt/Usdt-all-openzeppelin.sol\":49718:49758  _initializeEIP712(name_, ERC712_VERSION) */\n      tag_329\n        /* \"contracts/polygonUsdt/Usdt-all-openzeppelin.sol\":49736:49741  name_ */\n      dup7\n      dup7\n        /* \"contracts/polygonUsdt/Usdt-all-openzeppelin.sol\":49718:49758  _initializeEIP712(name_, ERC712_VERSION) */\n      dup1\n      dup1\n      0x1f\n      add\n      0x20\n      dup1\n      swap2\n      div\n      mul\n      0x20\n      add\n      mload(0x40)\n      swap1\n      dup2\n      add\n      0x40\n      mstore\n      dup1\n      swap4\n      swap3\n      swap2\n      swap1\n      dup2\n      dup2\n      mstore\n      0x20\n      add\n      dup4\n      dup4\n        /* \"--CODEGEN--\":30:33   */\n      dup1\n        /* \"--CODEGEN--\":22:28   */\n      dup3\n        /* \"--CODEGEN--\":14:20   */\n      dup5\n        /* \"--CODEGEN--\":1:34   */\n      calldatacopy\n        /* \"--CODEGEN--\":99:100   */\n      0x00\n        /* \"--CODEGEN--\":93:96   */\n      dup2\n        /* \"--CODEGEN--\":85:91   */\n      dup5\n        /* \"--CODEGEN--\":81:97   */\n      add\n        /* \"--CODEGEN--\":74:101   */\n      mstore\n        /* \"--CODEGEN--\":137:141   */\n      0x1f\n        /* \"--CODEGEN--\":133:142   */\n      not\n        /* \"--CODEGEN--\":126:130   */\n      0x1f\n        /* \"--CODEGEN--\":121:124   */\n      dup3\n        /* \"--CODEGEN--\":117:131   */\n      add\n        /* \"--CODEGEN--\":113:143   */\n      and\n        /* \"--CODEGEN--\":106:143   */\n      swap1\n      pop\n        /* \"--CODEGEN--\":169:172   */\n      dup1\n        /* \"--CODEGEN--\":161:167   */\n      dup4\n        /* \"--CODEGEN--\":157:173   */\n      add\n        /* \"--CODEGEN--\":147:173   */\n      swap3\n      pop\n        /* \"contracts/polygonUsdt/Usdt-all-openzeppelin.sol\":49718:49758  _initializeEIP712(name_, ERC712_VERSION) */\n      pop\n      pop\n      pop\n      pop\n      pop\n      pop\n        /* \"contracts/polygonUsdt/Usdt-all-openzeppelin.sol\":49743:49757  ERC712_VERSION */\n      mload(0x40)\n      dup1\n      0x40\n      add\n      0x40\n      mstore\n      dup1\n      0x01\n      dup2\n      mstore\n      0x20\n      add\n      0x3100000000000000000000000000000000000000000000000000000000000000\n      dup2\n      mstore\n      pop\n        /* \"contracts/polygonUsdt/Usdt-all-openzeppelin.sol\":49718:49735  _initializeEIP712 */\n      tag_330\n        /* \"contracts/polygonUsdt/Usdt-all-openzeppelin.sol\":49718:49758  _initializeEIP712(name_, ERC712_VERSION) */\n      jump\t// in\n    tag_329:\n        /* \"contracts/polygonUsdt/Usdt-all-openzeppelin.sol\":42571:42575  true */\n      0x01\n        /* \"contracts/polygonUsdt/Usdt-all-openzeppelin.sol\":42562:42568  inited */\n      0x08\n      0x00\n        /* \"contracts/polygonUsdt/Usdt-all-openzeppelin.sol\":42562:42575  inited = true */\n      0x0100\n      exp\n      dup2\n      sload\n      dup2\n      0xff\n      mul\n      not\n      and\n      swap1\n      dup4\n      iszero\n      iszero\n      mul\n      or\n      swap1\n      sstore\n      pop\n        /* \"contracts/polygonUsdt/Usdt-all-openzeppelin.sol\":49268:49765  function initialize(... */\n      pop\n      pop\n      pop\n      pop\n      pop\n      pop\n      jump\t// out\n        /* \"contracts/polygonUsdt/Usdt-all-openzeppelin.sol\":49885:50047  function _msgSender()... */\n    tag_206:\n        /* \"contracts/polygonUsdt/Usdt-all-openzeppelin.sol\":49971:49993  address payable sender */\n      0x00\n        /* \"contracts/polygonUsdt/Usdt-all-openzeppelin.sol\":50016:50040  ContextMixin.msgSender() */\n      tag_332\n        /* \"contracts/polygonUsdt/Usdt-all-openzeppelin.sol\":50016:50038  ContextMixin.msgSender */\n      tag_333\n        /* \"contracts/polygonUsdt/Usdt-all-openzeppelin.sol\":50016:50040  ContextMixin.msgSender() */\n      jump\t// in\n    tag_332:\n        /* \"contracts/polygonUsdt/Usdt-all-openzeppelin.sol\":50009:50040  return ContextMixin.msgSender() */\n      swap1\n      pop\n        /* \"contracts/polygonUsdt/Usdt-all-openzeppelin.sol\":49885:50047  function _msgSender()... */\n      swap1\n      jump\t// out\n        /* \"contracts/polygonUsdt/Usdt-all-openzeppelin.sol\":25070:25410  function _approve(address owner, address spender, uint256 amount) internal virtual {... */\n    tag_207:\n        /* \"contracts/polygonUsdt/Usdt-all-openzeppelin.sol\":25188:25189  0 */\n      0x00\n        /* \"contracts/polygonUsdt/Usdt-all-openzeppelin.sol\":25171:25190  owner != address(0) */\n      0xffffffffffffffffffffffffffffffffffffffff\n      and\n        /* \"contracts/polygonUsdt/Usdt-all-openzeppelin.sol\":25171:25176  owner */\n      dup4\n        /* \"contracts/polygonUsdt/Usdt-all-openzeppelin.sol\":25171:25190  owner != address(0) */\n      0xffffffffffffffffffffffffffffffffffffffff\n      and\n      eq\n      iszero\n        /* \"contracts/polygonUsdt/Usdt-all-openzeppelin.sol\":25163:25231  require(owner != address(0), \"ERC20: approve from the zero address\") */\n      tag_335\n      jumpi\n      mload(0x40)\n      0x08c379a000000000000000000000000000000000000000000000000000000000\n      dup2\n      mstore\n      0x04\n      add\n      dup1\n      dup1\n      0x20\n      add\n      dup3\n      dup2\n      sub\n      dup3\n      mstore\n      0x24\n      dup2\n      mstore\n      0x20\n      add\n      dup1\n      data_c953f4879035ed60e766b34720f656aab5c697b141d924c283124ecedb91c208\n      0x24\n      swap2\n      codecopy\n      0x40\n      add\n      swap2\n      pop\n      pop\n      mload(0x40)\n      dup1\n      swap2\n      sub\n      swap1\n      revert\n    tag_335:\n        /* \"contracts/polygonUsdt/Usdt-all-openzeppelin.sol\":25268:25269  0 */\n      0x00\n        /* \"contracts/polygonUsdt/Usdt-all-openzeppelin.sol\":25249:25270  spender != address(0) */\n      0xffffffffffffffffffffffffffffffffffffffff\n      and\n        /* \"contracts/polygonUsdt/Usdt-all-openzeppelin.sol\":25249:25256  spender */\n      dup3\n        /* \"contracts/polygonUsdt/Usdt-all-openzeppelin.sol\":25249:25270  spender != address(0) */\n      0xffffffffffffffffffffffffffffffffffffffff\n      and\n      eq\n      iszero\n        /* \"contracts/polygonUsdt/Usdt-all-openzeppelin.sol\":25241:25309  require(spender != address(0), \"ERC20: approve to the zero address\") */\n      tag_336\n      jumpi\n      mload(0x40)\n      0x08c379a000000000000000000000000000000000000000000000000000000000\n      dup2\n      mstore\n      0x04\n      add\n      dup1\n      dup1\n      0x20\n      add\n      dup3\n      dup2\n      sub\n      dup3\n      mstore\n      0x22\n      dup2\n      mstore\n      0x20\n      add\n      dup1\n      data_24883cc5fe64ace9d0df1893501ecb93c77180f0ff69cca79affb3c316dc8029\n      0x22\n      swap2\n      codecopy\n      0x40\n      add\n      swap2\n      pop\n      pop\n      mload(0x40)\n      dup1\n      swap2\n      sub\n      swap1\n      revert\n    tag_336:\n        /* \"contracts/polygonUsdt/Usdt-all-openzeppelin.sol\":25350:25356  amount */\n      dup1\n        /* \"contracts/polygonUsdt/Usdt-all-openzeppelin.sol\":25320:25331  _allowances */\n      0x01\n        /* \"contracts/polygonUsdt/Usdt-all-openzeppelin.sol\":25320:25338  _allowances[owner] */\n      0x00\n        /* \"contracts/polygonUsdt/Usdt-all-openzeppelin.sol\":25332:25337  owner */\n      dup6\n        /* \"contracts/polygonUsdt/Usdt-all-openzeppelin.sol\":25320:25338  _allowances[owner] */\n      0xffffffffffffffffffffffffffffffffffffffff\n      and\n      0xffffffffffffffffffffffffffffffffffffffff\n      and\n      dup2\n      mstore\n      0x20\n      add\n      swap1\n      dup2\n      mstore\n      0x20\n      add\n      0x00\n      keccak256\n        /* \"contracts/polygonUsdt/Usdt-all-openzeppelin.sol\":25320:25347  _allowances[owner][spender] */\n      0x00\n        /* \"contracts/polygonUsdt/Usdt-all-openzeppelin.sol\":25339:25346  spender */\n      dup5\n        /* \"contracts/polygonUsdt/Usdt-all-openzeppelin.sol\":25320:25347  _allowances[owner][spender] */\n      0xffffffffffffffffffffffffffffffffffffffff\n      and\n      0xffffffffffffffffffffffffffffffffffffffff\n      and\n      dup2\n      mstore\n      0x20\n      add\n      swap1\n      dup2\n      mstore\n      0x20\n      add\n      0x00\n      keccak256\n        /* \"contracts/polygonUsdt/Usdt-all-openzeppelin.sol\":25320:25356  _allowances[owner][spender] = amount */\n      dup2\n      swap1\n      sstore\n      pop\n        /* \"contracts/polygonUsdt/Usdt-all-openzeppelin.sol\":25387:25394  spender */\n      dup2\n        /* \"contracts/polygonUsdt/Usdt-all-openzeppelin.sol\":25371:25403  Approval(owner, spender, amount) */\n      0xffffffffffffffffffffffffffffffffffffffff\n      and\n        /* \"contracts/polygonUsdt/Usdt-all-openzeppelin.sol\":25380:25385  owner */\n      dup4\n        /* \"contracts/polygonUsdt/Usdt-all-openzeppelin.sol\":25371:25403  Approval(owner, spender, amount) */\n      0xffffffffffffffffffffffffffffffffffffffff\n      and\n      0x8c5be1e5ebec7d5bd14f71427d1e84f3dd0314c0f7b2291e5b200ac8c7c3b925\n        /* \"contracts/polygonUsdt/Usdt-all-openzeppelin.sol\":25396:25402  amount */\n      dup4\n        /* \"contracts/polygonUsdt/Usdt-all-openzeppelin.sol\":25371:25403  Approval(owner, spender, amount) */\n      mload(0x40)\n      dup1\n      dup3\n      dup2\n      mstore\n      0x20\n      add\n      swap2\n      pop\n      pop\n      mload(0x40)\n      dup1\n      swap2\n      sub\n      swap1\n      log3\n        /* \"contracts/polygonUsdt/Usdt-all-openzeppelin.sol\":25070:25410  function _approve(address owner, address spender, uint256 amount) internal virtual {... */\n      pop\n      pop\n      pop\n      jump\t// out\n        /* \"contracts/polygonUsdt/Usdt-all-openzeppelin.sol\":47190:47660  function verify(... */\n    tag_212:\n        /* \"contracts/polygonUsdt/Usdt-all-openzeppelin.sol\":47362:47366  bool */\n      0x00\n        /* \"contracts/polygonUsdt/Usdt-all-openzeppelin.sol\":47404:47405  0 */\n      dup1\n        /* \"contracts/polygonUsdt/Usdt-all-openzeppelin.sol\":47386:47406  signer != address(0) */\n      0xffffffffffffffffffffffffffffffffffffffff\n      and\n        /* \"contracts/polygonUsdt/Usdt-all-openzeppelin.sol\":47386:47392  signer */\n      dup7\n        /* \"contracts/polygonUsdt/Usdt-all-openzeppelin.sol\":47386:47406  signer != address(0) */\n      0xffffffffffffffffffffffffffffffffffffffff\n      and\n      eq\n      iszero\n        /* \"contracts/polygonUsdt/Usdt-all-openzeppelin.sol\":47378:47448  require(signer != address(0), \"NativeMetaTransaction: INVALID_SIGNER\") */\n      tag_338\n      jumpi\n      mload(0x40)\n      0x08c379a000000000000000000000000000000000000000000000000000000000\n      dup2\n      mstore\n      0x04\n      add\n      dup1\n      dup1\n      0x20\n      add\n      dup3\n      dup2\n      sub\n      dup3\n      mstore\n      0x25\n      dup2\n      mstore\n      0x20\n      add\n      dup1\n      data_677c3aff34a7c44a5c4470b26f7bc0d31cbb2b3473b145bc518ea22bfc186273\n      0x25\n      swap2\n      codecopy\n      0x40\n      add\n      swap2\n      pop\n      pop\n      mload(0x40)\n      dup1\n      swap2\n      sub\n      swap1\n      revert\n    tag_338:\n        /* \"contracts/polygonUsdt/Usdt-all-openzeppelin.sol\":47499:47653  ecrecover(... */\n      0x01\n        /* \"contracts/polygonUsdt/Usdt-all-openzeppelin.sol\":47526:47573  toTypedMessageHash(hashMetaTransaction(metaTx)) */\n      tag_339\n        /* \"contracts/polygonUsdt/Usdt-all-openzeppelin.sol\":47545:47572  hashMetaTransaction(metaTx) */\n      tag_340\n        /* \"contracts/polygonUsdt/Usdt-all-openzeppelin.sol\":47565:47571  metaTx */\n      dup8\n        /* \"contracts/polygonUsdt/Usdt-all-openzeppelin.sol\":47545:47564  hashMetaTransaction */\n      tag_341\n        /* \"contracts/polygonUsdt/Usdt-all-openzeppelin.sol\":47545:47572  hashMetaTransaction(metaTx) */\n      jump\t// in\n    tag_340:\n        /* \"contracts/polygonUsdt/Usdt-all-openzeppelin.sol\":47526:47544  toTypedMessageHash */\n      tag_342\n        /* \"contracts/polygonUsdt/Usdt-all-openzeppelin.sol\":47526:47573  toTypedMessageHash(hashMetaTransaction(metaTx)) */\n      jump\t// in\n    tag_339:\n        /* \"contracts/polygonUsdt/Usdt-all-openzeppelin.sol\":47591:47595  sigV */\n      dup4\n        /* \"contracts/polygonUsdt/Usdt-all-openzeppelin.sol\":47613:47617  sigR */\n      dup7\n        /* \"contracts/polygonUsdt/Usdt-all-openzeppelin.sol\":47635:47639  sigS */\n      dup7\n        /* \"contracts/polygonUsdt/Usdt-all-openzeppelin.sol\":47499:47653  ecrecover(... */\n      mload(0x40)\n      0x00\n      dup2\n      mstore\n      0x20\n      add\n      0x40\n      mstore\n      mload(0x40)\n      dup1\n      dup6\n      dup2\n      mstore\n      0x20\n      add\n      dup5\n      0xff\n      and\n      0xff\n      and\n      dup2\n      mstore\n      0x20\n      add\n      dup4\n      dup2\n      mstore\n      0x20\n      add\n      dup3\n      dup2\n      mstore\n      0x20\n      add\n      swap5\n      pop\n      pop\n      pop\n      pop\n      pop\n      0x20\n      mload(0x40)\n      0x20\n      dup2\n      sub\n      swap1\n      dup1\n      dup5\n      sub\n      swap1\n      dup6\n      gas\n      staticcall\n      iszero\n        /* \"--CODEGEN--\":8:17   */\n      dup1\n        /* \"--CODEGEN--\":5:7   */\n      iszero\n      tag_344\n      jumpi\n        /* \"--CODEGEN--\":45:61   */\n      returndatasize\n        /* \"--CODEGEN--\":42:43   */\n      0x00\n        /* \"--CODEGEN--\":39:40   */\n      dup1\n        /* \"--CODEGEN--\":24:62   */\n      returndatacopy\n        /* \"--CODEGEN--\":77:93   */\n      returndatasize\n        /* \"--CODEGEN--\":74:75   */\n      0x00\n        /* \"--CODEGEN--\":67:94   */\n      revert\n        /* \"--CODEGEN--\":5:7   */\n    tag_344:\n        /* \"contracts/polygonUsdt/Usdt-all-openzeppelin.sol\":47499:47653  ecrecover(... */\n      pop\n      pop\n      pop\n      mload(sub(mload(0x40), 0x20))\n        /* \"contracts/polygonUsdt/Usdt-all-openzeppelin.sol\":47477:47653  signer ==... */\n      0xffffffffffffffffffffffffffffffffffffffff\n      and\n        /* \"contracts/polygonUsdt/Usdt-all-openzeppelin.sol\":47477:47483  signer */\n      dup7\n        /* \"contracts/polygonUsdt/Usdt-all-openzeppelin.sol\":47477:47653  signer ==... */\n      0xffffffffffffffffffffffffffffffffffffffff\n      and\n      eq\n        /* \"contracts/polygonUsdt/Usdt-all-openzeppelin.sol\":47458:47653  return... */\n      swap1\n      pop\n        /* \"contracts/polygonUsdt/Usdt-all-openzeppelin.sol\":47190:47660  function verify(... */\n      swap6\n      swap5\n      pop\n      pop\n      pop\n      pop\n      pop\n      jump\t// out\n        /* \"contracts/polygonUsdt/Usdt-all-openzeppelin.sol\":4736:4912  function add(uint256 a, uint256 b) internal pure returns (uint256) {... */\n    tag_215:\n        /* \"contracts/polygonUsdt/Usdt-all-openzeppelin.sol\":4794:4801  uint256 */\n      0x00\n        /* \"contracts/polygonUsdt/Usdt-all-openzeppelin.sol\":4813:4822  uint256 c */\n      dup1\n        /* \"contracts/polygonUsdt/Usdt-all-openzeppelin.sol\":4829:4830  b */\n      dup3\n        /* \"contracts/polygonUsdt/Usdt-all-openzeppelin.sol\":4825:4826  a */\n      dup5\n        /* \"contracts/polygonUsdt/Usdt-all-openzeppelin.sol\":4825:4830  a + b */\n      add\n        /* \"contracts/polygonUsdt/Usdt-all-openzeppelin.sol\":4813:4830  uint256 c = a + b */\n      swap1\n      pop\n        /* \"contracts/polygonUsdt/Usdt-all-openzeppelin.sol\":4853:4854  a */\n      dup4\n        /* \"contracts/polygonUsdt/Usdt-all-openzeppelin.sol\":4848:4849  c */\n      dup2\n        /* \"contracts/polygonUsdt/Usdt-all-openzeppelin.sol\":4848:4854  c >= a */\n      lt\n      iszero\n        /* \"contracts/polygonUsdt/Usdt-all-openzeppelin.sol\":4840:4886  require(c >= a, \"SafeMath: addition overflow\") */\n      tag_346\n      jumpi\n      mload(0x40)\n      0x08c379a000000000000000000000000000000000000000000000000000000000\n      dup2\n      mstore\n      0x04\n      add\n      dup1\n      dup1\n      0x20\n      add\n      dup3\n      dup2\n      sub\n      dup3\n      mstore\n      0x1b\n      dup2\n      mstore\n      0x20\n      add\n      dup1\n      0x536166654d6174683a206164646974696f6e206f766572666c6f770000000000\n      dup2\n      mstore\n      pop\n      0x20\n      add\n      swap2\n      pop\n      pop\n      mload(0x40)\n      dup1\n      swap2\n      sub\n      swap1\n      revert\n    tag_346:\n        /* \"contracts/polygonUsdt/Usdt-all-openzeppelin.sol\":4904:4905  c */\n      dup1\n        /* \"contracts/polygonUsdt/Usdt-all-openzeppelin.sol\":4897:4905  return c */\n      swap2\n      pop\n      pop\n        /* \"contracts/polygonUsdt/Usdt-all-openzeppelin.sol\":4736:4912  function add(uint256 a, uint256 b) internal pure returns (uint256) {... */\n      swap3\n      swap2\n      pop\n      pop\n      jump\t// out\n        /* \"contracts/polygonUsdt/Usdt-all-openzeppelin.sol\":22746:23276  function _transfer(address sender, address recipient, uint256 amount) internal virtual {... */\n    tag_234:\n        /* \"contracts/polygonUsdt/Usdt-all-openzeppelin.sol\":22869:22870  0 */\n      0x00\n        /* \"contracts/polygonUsdt/Usdt-all-openzeppelin.sol\":22851:22871  sender != address(0) */\n      0xffffffffffffffffffffffffffffffffffffffff\n      and\n        /* \"contracts/polygonUsdt/Usdt-all-openzeppelin.sol\":22851:22857  sender */\n      dup4\n        /* \"contracts/polygonUsdt/Usdt-all-openzeppelin.sol\":22851:22871  sender != address(0) */\n      0xffffffffffffffffffffffffffffffffffffffff\n      and\n      eq\n      iszero\n        /* \"contracts/polygonUsdt/Usdt-all-openzeppelin.sol\":22843:22913  require(sender != address(0), \"ERC20: transfer from the zero address\") */\n      tag_348\n      jumpi\n      mload(0x40)\n      0x08c379a000000000000000000000000000000000000000000000000000000000\n      dup2\n      mstore\n      0x04\n      add\n      dup1\n      dup1\n      0x20\n      add\n      dup3\n      dup2\n      sub\n      dup3\n      mstore\n      0x25\n      dup2\n      mstore\n      0x20\n      add\n      dup1\n      data_baecc556b46f4ed0f2b4cb599d60785ac8563dd2dc0a5bf12edea1c39e5e1fea\n      0x25\n      swap2\n      codecopy\n      0x40\n      add\n      swap2\n      pop\n      pop\n      mload(0x40)\n      dup1\n      swap2\n      sub\n      swap1\n      revert\n    tag_348:\n        /* \"contracts/polygonUsdt/Usdt-all-openzeppelin.sol\":22952:22953  0 */\n      0x00\n        /* \"contracts/polygonUsdt/Usdt-all-openzeppelin.sol\":22931:22954  recipient != address(0) */\n      0xffffffffffffffffffffffffffffffffffffffff\n      and\n        /* \"contracts/polygonUsdt/Usdt-all-openzeppelin.sol\":22931:22940  recipient */\n      dup3\n        /* \"contracts/polygonUsdt/Usdt-all-openzeppelin.sol\":22931:22954  recipient != address(0) */\n      0xffffffffffffffffffffffffffffffffffffffff\n      and\n      eq\n      iszero\n        /* \"contracts/polygonUsdt/Usdt-all-openzeppelin.sol\":22923:22994  require(recipient != address(0), \"ERC20: transfer to the zero address\") */\n      tag_349\n      jumpi\n      mload(0x40)\n      0x08c379a000000000000000000000000000000000000000000000000000000000\n      dup2\n      mstore\n      0x04\n      add\n      dup1\n      dup1\n      0x20\n      add\n      dup3\n      dup2\n      sub\n      dup3\n      mstore\n      0x23\n      dup2\n      mstore\n      0x20\n      add\n      dup1\n      data_0557e210f7a69a685100a7e4e3d0a7024c546085cee28910fd17d0b081d9516f\n      0x23\n      swap2\n      codecopy\n      0x40\n      add\n      swap2\n      pop\n      pop\n      mload(0x40)\n      dup1\n      swap2\n      sub\n      swap1\n      revert\n    tag_349:\n        /* \"contracts/polygonUsdt/Usdt-all-openzeppelin.sol\":23005:23052  _beforeTokenTransfer(sender, recipient, amount) */\n      tag_350\n        /* \"contracts/polygonUsdt/Usdt-all-openzeppelin.sol\":23026:23032  sender */\n      dup4\n        /* \"contracts/polygonUsdt/Usdt-all-openzeppelin.sol\":23034:23043  recipient */\n      dup4\n        /* \"contracts/polygonUsdt/Usdt-all-openzeppelin.sol\":23045:23051  amount */\n      dup4\n        /* \"contracts/polygonUsdt/Usdt-all-openzeppelin.sol\":23005:23025  _beforeTokenTransfer */\n      tag_351\n        /* \"contracts/polygonUsdt/Usdt-all-openzeppelin.sol\":23005:23052  _beforeTokenTransfer(sender, recipient, amount) */\n      jump\t// in\n    tag_350:\n        /* \"contracts/polygonUsdt/Usdt-all-openzeppelin.sol\":23083:23154  _balances[sender].sub(amount, \"ERC20: transfer amount exceeds balance\") */\n      tag_352\n        /* \"contracts/polygonUsdt/Usdt-all-openzeppelin.sol\":23105:23111  amount */\n      dup2\n        /* \"contracts/polygonUsdt/Usdt-all-openzeppelin.sol\":23083:23154  _balances[sender].sub(amount, \"ERC20: transfer amount exceeds balance\") */\n      mload(0x40)\n      dup1\n      0x60\n      add\n      0x40\n      mstore\n      dup1\n      0x26\n      dup2\n      mstore\n      0x20\n      add\n      data_4107e8a8b9e94bf8ff83080ddec1c0bffe897ebc2241b89d44f66b3d274088b6\n      0x26\n      swap2\n      codecopy\n        /* \"contracts/polygonUsdt/Usdt-all-openzeppelin.sol\":23083:23092  _balances */\n      0x00\n        /* \"contracts/polygonUsdt/Usdt-all-openzeppelin.sol\":23083:23100  _balances[sender] */\n      dup1\n        /* \"contracts/polygonUsdt/Usdt-all-openzeppelin.sol\":23093:23099  sender */\n      dup8\n        /* \"contracts/polygonUsdt/Usdt-all-openzeppelin.sol\":23083:23100  _balances[sender] */\n      0xffffffffffffffffffffffffffffffffffffffff\n      and\n      0xffffffffffffffffffffffffffffffffffffffff\n      and\n      dup2\n      mstore\n      0x20\n      add\n      swap1\n      dup2\n      mstore\n      0x20\n      add\n      0x00\n      keccak256\n      sload\n        /* \"contracts/polygonUsdt/Usdt-all-openzeppelin.sol\":23083:23104  _balances[sender].sub */\n      tag_239\n      swap1\n        /* \"contracts/polygonUsdt/Usdt-all-openzeppelin.sol\":23083:23154  _balances[sender].sub(amount, \"ERC20: transfer amount exceeds balance\") */\n      swap3\n      swap2\n      swap1\n      0xffffffff\n      and\n      jump\t// in\n    tag_352:\n        /* \"contracts/polygonUsdt/Usdt-all-openzeppelin.sol\":23063:23072  _balances */\n      0x00\n        /* \"contracts/polygonUsdt/Usdt-all-openzeppelin.sol\":23063:23080  _balances[sender] */\n      dup1\n        /* \"contracts/polygonUsdt/Usdt-all-openzeppelin.sol\":23073:23079  sender */\n      dup6\n        /* \"contracts/polygonUsdt/Usdt-all-openzeppelin.sol\":23063:23080  _balances[sender] */\n      0xffffffffffffffffffffffffffffffffffffffff\n      and\n      0xffffffffffffffffffffffffffffffffffffffff\n      and\n      dup2\n      mstore\n      0x20\n      add\n      swap1\n      dup2\n      mstore\n      0x20\n      add\n      0x00\n      keccak256\n        /* \"contracts/polygonUsdt/Usdt-all-openzeppelin.sol\":23063:23154  _balances[sender] = _balances[sender].sub(amount, \"ERC20: transfer amount exceeds balance\") */\n      dup2\n      swap1\n      sstore\n      pop\n        /* \"contracts/polygonUsdt/Usdt-all-openzeppelin.sol\":23187:23219  _balances[recipient].add(amount) */\n      tag_353\n        /* \"contracts/polygonUsdt/Usdt-all-openzeppelin.sol\":23212:23218  amount */\n      dup2\n        /* \"contracts/polygonUsdt/Usdt-all-openzeppelin.sol\":23187:23196  _balances */\n      0x00\n        /* \"contracts/polygonUsdt/Usdt-all-openzeppelin.sol\":23187:23207  _balances[recipient] */\n      dup1\n        /* \"contracts/polygonUsdt/Usdt-all-openzeppelin.sol\":23197:23206  recipient */\n      dup6\n        /* \"contracts/polygonUsdt/Usdt-all-openzeppelin.sol\":23187:23207  _balances[recipient] */\n      0xffffffffffffffffffffffffffffffffffffffff\n      and\n      0xffffffffffffffffffffffffffffffffffffffff\n      and\n      dup2\n      mstore\n      0x20\n      add\n      swap1\n      dup2\n      mstore\n      0x20\n      add\n      0x00\n      keccak256\n      sload\n        /* \"contracts/polygonUsdt/Usdt-all-openzeppelin.sol\":23187:23211  _balances[recipient].add */\n      tag_215\n      swap1\n        /* \"contracts/polygonUsdt/Usdt-all-openzeppelin.sol\":23187:23219  _balances[recipient].add(amount) */\n      swap2\n      swap1\n      0xffffffff\n      and\n      jump\t// in\n    tag_353:\n        /* \"contracts/polygonUsdt/Usdt-all-openzeppelin.sol\":23164:23173  _balances */\n      0x00\n        /* \"contracts/polygonUsdt/Usdt-all-openzeppelin.sol\":23164:23184  _balances[recipient] */\n      dup1\n        /* \"contracts/polygonUsdt/Usdt-all-openzeppelin.sol\":23174:23183  recipient */\n      dup5\n        /* \"contracts/polygonUsdt/Usdt-all-openzeppelin.sol\":23164:23184  _balances[recipient] */\n      0xffffffffffffffffffffffffffffffffffffffff\n      and\n      0xffffffffffffffffffffffffffffffffffffffff\n      and\n      dup2\n      mstore\n      0x20\n      add\n      swap1\n      dup2\n      mstore\n      0x20\n      add\n      0x00\n      keccak256\n        /* \"contracts/polygonUsdt/Usdt-all-openzeppelin.sol\":23164:23219  _balances[recipient] = _balances[recipient].add(amount) */\n      dup2\n      swap1\n      sstore\n      pop\n        /* \"contracts/polygonUsdt/Usdt-all-openzeppelin.sol\":23251:23260  recipient */\n      dup2\n        /* \"contracts/polygonUsdt/Usdt-all-openzeppelin.sol\":23234:23269  Transfer(sender, recipient, amount) */\n      0xffffffffffffffffffffffffffffffffffffffff\n      and\n        /* \"contracts/polygonUsdt/Usdt-all-openzeppelin.sol\":23243:23249  sender */\n      dup4\n        /* \"contracts/polygonUsdt/Usdt-all-openzeppelin.sol\":23234:23269  Transfer(sender, recipient, amount) */\n      0xffffffffffffffffffffffffffffffffffffffff\n      and\n      0xddf252ad1be2c89b69c2b068fc378daa952ba7f163c4a11628f55a4df523b3ef\n        /* \"contracts/polygonUsdt/Usdt-all-openzeppelin.sol\":23262:23268  amount */\n      dup4\n        /* \"contracts/polygonUsdt/Usdt-all-openzeppelin.sol\":23234:23269  Transfer(sender, recipient, amount) */\n      mload(0x40)\n      dup1\n      dup3\n      dup2\n      mstore\n      0x20\n      add\n      swap2\n      pop\n      pop\n      mload(0x40)\n      dup1\n      swap2\n      sub\n      swap1\n      log3\n        /* \"contracts/polygonUsdt/Usdt-all-openzeppelin.sol\":22746:23276  function _transfer(address sender, address recipient, uint256 amount) internal virtual {... */\n      pop\n      pop\n      pop\n      jump\t// out\n        /* \"contracts/polygonUsdt/Usdt-all-openzeppelin.sol\":5608:5795  function sub(uint256 a, uint256 b, string memory errorMessage) internal pure returns (uint256) {... */\n    tag_239:\n        /* \"contracts/polygonUsdt/Usdt-all-openzeppelin.sol\":5694:5701  uint256 */\n      0x00\n        /* \"contracts/polygonUsdt/Usdt-all-openzeppelin.sol\":5726:5727  a */\n      dup4\n        /* \"contracts/polygonUsdt/Usdt-all-openzeppelin.sol\":5721:5722  b */\n      dup4\n        /* \"contracts/polygonUsdt/Usdt-all-openzeppelin.sol\":5721:5727  b <= a */\n      gt\n      iszero\n        /* \"contracts/polygonUsdt/Usdt-all-openzeppelin.sol\":5729:5741  errorMessage */\n      dup3\n        /* \"contracts/polygonUsdt/Usdt-all-openzeppelin.sol\":5713:5742  require(b <= a, errorMessage) */\n      swap1\n      tag_355\n      jumpi\n      mload(0x40)\n      0x08c379a000000000000000000000000000000000000000000000000000000000\n      dup2\n      mstore\n      0x04\n      add\n      dup1\n      dup1\n      0x20\n      add\n      dup3\n      dup2\n      sub\n      dup3\n      mstore\n      dup4\n      dup2\n      dup2\n      mload\n      dup2\n      mstore\n      0x20\n      add\n      swap2\n      pop\n      dup1\n      mload\n      swap1\n      0x20\n      add\n      swap1\n      dup1\n      dup4\n      dup4\n        /* \"--CODEGEN--\":23:24   */\n      0x00\n        /* \"--CODEGEN--\":8:108   */\n    tag_356:\n        /* \"--CODEGEN--\":33:36   */\n      dup4\n        /* \"--CODEGEN--\":30:31   */\n      dup2\n        /* \"--CODEGEN--\":27:37   */\n      lt\n        /* \"--CODEGEN--\":8:108   */\n      iszero\n      tag_358\n      jumpi\n        /* \"--CODEGEN--\":99:100   */\n      dup1\n        /* \"--CODEGEN--\":94:97   */\n      dup3\n        /* \"--CODEGEN--\":90:101   */\n      add\n        /* \"--CODEGEN--\":84:102   */\n      mload\n        /* \"--CODEGEN--\":80:81   */\n      dup2\n        /* \"--CODEGEN--\":75:78   */\n      dup5\n        /* \"--CODEGEN--\":71:82   */\n      add\n        /* \"--CODEGEN--\":64:103   */\n      mstore\n        /* \"--CODEGEN--\":52:54   */\n      0x20\n        /* \"--CODEGEN--\":49:50   */\n      dup2\n        /* \"--CODEGEN--\":45:55   */\n      add\n        /* \"--CODEGEN--\":40:55   */\n      swap1\n      pop\n        /* \"--CODEGEN--\":8:108   */\n      jump(tag_356)\n    tag_358:\n        /* \"--CODEGEN--\":12:26   */\n      pop\n        /* \"contracts/polygonUsdt/Usdt-all-openzeppelin.sol\":5713:5742  require(b <= a, errorMessage) */\n      pop\n      pop\n      pop\n      swap1\n      pop\n      swap1\n      dup2\n      add\n      swap1\n      0x1f\n      and\n      dup1\n      iszero\n      tag_359\n      jumpi\n      dup1\n      dup3\n      sub\n      dup1\n      mload\n      0x01\n      dup4\n      0x20\n      sub\n      0x0100\n      exp\n      sub\n      not\n      and\n      dup2\n      mstore\n      0x20\n      add\n      swap2\n      pop\n    tag_359:\n      pop\n      swap3\n      pop\n      pop\n      pop\n      mload(0x40)\n      dup1\n      swap2\n      sub\n      swap1\n      revert\n    tag_355:\n      pop\n        /* \"contracts/polygonUsdt/Usdt-all-openzeppelin.sol\":5752:5761  uint256 c */\n      0x00\n        /* \"contracts/polygonUsdt/Usdt-all-openzeppelin.sol\":5768:5769  b */\n      dup4\n        /* \"contracts/polygonUsdt/Usdt-all-openzeppelin.sol\":5764:5765  a */\n      dup6\n        /* \"contracts/polygonUsdt/Usdt-all-openzeppelin.sol\":5764:5769  a - b */\n      sub\n        /* \"contracts/polygonUsdt/Usdt-all-openzeppelin.sol\":5752:5769  uint256 c = a - b */\n      swap1\n      pop\n        /* \"contracts/polygonUsdt/Usdt-all-openzeppelin.sol\":5787:5788  c */\n      dup1\n        /* \"contracts/polygonUsdt/Usdt-all-openzeppelin.sol\":5780:5788  return c */\n      swap2\n      pop\n      pop\n        /* \"contracts/polygonUsdt/Usdt-all-openzeppelin.sol\":5608:5795  function sub(uint256 a, uint256 b, string memory errorMessage) internal pure returns (uint256) {... */\n      swap4\n      swap3\n      pop\n      pop\n      pop\n      jump\t// out\n        /* \"contracts/polygonUsdt/Usdt-all-openzeppelin.sol\":24235:24645  function _burn(address account, uint256 amount) internal virtual {... */\n    tag_245:\n        /* \"contracts/polygonUsdt/Usdt-all-openzeppelin.sol\":24337:24338  0 */\n      0x00\n        /* \"contracts/polygonUsdt/Usdt-all-openzeppelin.sol\":24318:24339  account != address(0) */\n      0xffffffffffffffffffffffffffffffffffffffff\n      and\n        /* \"contracts/polygonUsdt/Usdt-all-openzeppelin.sol\":24318:24325  account */\n      dup3\n        /* \"contracts/polygonUsdt/Usdt-all-openzeppelin.sol\":24318:24339  account != address(0) */\n      0xffffffffffffffffffffffffffffffffffffffff\n      and\n      eq\n      iszero\n        /* \"contracts/polygonUsdt/Usdt-all-openzeppelin.sol\":24310:24377  require(account != address(0), \"ERC20: burn from the zero address\") */\n      tag_361\n      jumpi\n      mload(0x40)\n      0x08c379a000000000000000000000000000000000000000000000000000000000\n      dup2\n      mstore\n      0x04\n      add\n      dup1\n      dup1\n      0x20\n      add\n      dup3\n      dup2\n      sub\n      dup3\n      mstore\n      0x21\n      dup2\n      mstore\n      0x20\n      add\n      dup1\n      data_b16788493b576042bb52c50ed56189e0b250db113c7bfb1c3897d25cf9632d7f\n      0x21\n      swap2\n      codecopy\n      0x40\n      add\n      swap2\n      pop\n      pop\n      mload(0x40)\n      dup1\n      swap2\n      sub\n      swap1\n      revert\n    tag_361:\n        /* \"contracts/polygonUsdt/Usdt-all-openzeppelin.sol\":24388:24437  _beforeTokenTransfer(account, address(0), amount) */\n      tag_362\n        /* \"contracts/polygonUsdt/Usdt-all-openzeppelin.sol\":24409:24416  account */\n      dup3\n        /* \"contracts/polygonUsdt/Usdt-all-openzeppelin.sol\":24426:24427  0 */\n      0x00\n        /* \"contracts/polygonUsdt/Usdt-all-openzeppelin.sol\":24430:24436  amount */\n      dup4\n        /* \"contracts/polygonUsdt/Usdt-all-openzeppelin.sol\":24388:24408  _beforeTokenTransfer */\n      tag_351\n        /* \"contracts/polygonUsdt/Usdt-all-openzeppelin.sol\":24388:24437  _beforeTokenTransfer(account, address(0), amount) */\n      jump\t// in\n    tag_362:\n        /* \"contracts/polygonUsdt/Usdt-all-openzeppelin.sol\":24469:24537  _balances[account].sub(amount, \"ERC20: burn amount exceeds balance\") */\n      tag_363\n        /* \"contracts/polygonUsdt/Usdt-all-openzeppelin.sol\":24492:24498  amount */\n      dup2\n        /* \"contracts/polygonUsdt/Usdt-all-openzeppelin.sol\":24469:24537  _balances[account].sub(amount, \"ERC20: burn amount exceeds balance\") */\n      mload(0x40)\n      dup1\n      0x60\n      add\n      0x40\n      mstore\n      dup1\n      0x22\n      dup2\n      mstore\n      0x20\n      add\n      data_149b126e7125232b4200af45303d04fba8b74653b1a295a6a561a528c33fefdd\n      0x22\n      swap2\n      codecopy\n        /* \"contracts/polygonUsdt/Usdt-all-openzeppelin.sol\":24469:24478  _balances */\n      0x00\n        /* \"contracts/polygonUsdt/Usdt-all-openzeppelin.sol\":24469:24487  _balances[account] */\n      dup1\n        /* \"contracts/polygonUsdt/Usdt-all-openzeppelin.sol\":24479:24486  account */\n      dup7\n        /* \"contracts/polygonUsdt/Usdt-all-openzeppelin.sol\":24469:24487  _balances[account] */\n      0xffffffffffffffffffffffffffffffffffffffff\n      and\n      0xffffffffffffffffffffffffffffffffffffffff\n      and\n      dup2\n      mstore\n      0x20\n      add\n      swap1\n      dup2\n      mstore\n      0x20\n      add\n      0x00\n      keccak256\n      sload\n        /* \"contracts/polygonUsdt/Usdt-all-openzeppelin.sol\":24469:24491  _balances[account].sub */\n      tag_239\n      swap1\n        /* \"contracts/polygonUsdt/Usdt-all-openzeppelin.sol\":24469:24537  _balances[account].sub(amount, \"ERC20: burn amount exceeds balance\") */\n      swap3\n      swap2\n      swap1\n      0xffffffff\n      and\n      jump\t// in\n    tag_363:\n        /* \"contracts/polygonUsdt/Usdt-all-openzeppelin.sol\":24448:24457  _balances */\n      0x00\n        /* \"contracts/polygonUsdt/Usdt-all-openzeppelin.sol\":24448:24466  _balances[account] */\n      dup1\n        /* \"contracts/polygonUsdt/Usdt-all-openzeppelin.sol\":24458:24465  account */\n      dup5\n        /* \"contracts/polygonUsdt/Usdt-all-openzeppelin.sol\":24448:24466  _balances[account] */\n      0xffffffffffffffffffffffffffffffffffffffff\n      and\n      0xffffffffffffffffffffffffffffffffffffffff\n      and\n      dup2\n      mstore\n      0x20\n      add\n      swap1\n      dup2\n      mstore\n      0x20\n      add\n      0x00\n      keccak256\n        /* \"contracts/polygonUsdt/Usdt-all-openzeppelin.sol\":24448:24537  _balances[account] = _balances[account].sub(amount, \"ERC20: burn amount exceeds balance\") */\n      dup2\n      swap1\n      sstore\n      pop\n        /* \"contracts/polygonUsdt/Usdt-all-openzeppelin.sol\":24562:24586  _totalSupply.sub(amount) */\n      tag_364\n        /* \"contracts/polygonUsdt/Usdt-all-openzeppelin.sol\":24579:24585  amount */\n      dup2\n        /* \"contracts/polygonUsdt/Usdt-all-openzeppelin.sol\":24562:24574  _totalSupply */\n      sload(0x02)\n        /* \"contracts/polygonUsdt/Usdt-all-openzeppelin.sol\":24562:24578  _totalSupply.sub */\n      tag_365\n      swap1\n        /* \"contracts/polygonUsdt/Usdt-all-openzeppelin.sol\":24562:24586  _totalSupply.sub(amount) */\n      swap2\n      swap1\n      0xffffffff\n      and\n      jump\t// in\n    tag_364:\n        /* \"contracts/polygonUsdt/Usdt-all-openzeppelin.sol\":24547:24559  _totalSupply */\n      0x02\n        /* \"contracts/polygonUsdt/Usdt-all-openzeppelin.sol\":24547:24586  _totalSupply = _totalSupply.sub(amount) */\n      dup2\n      swap1\n      sstore\n      pop\n        /* \"contracts/polygonUsdt/Usdt-all-openzeppelin.sol\":24627:24628  0 */\n      0x00\n        /* \"contracts/polygonUsdt/Usdt-all-openzeppelin.sol\":24601:24638  Transfer(account, address(0), amount) */\n      0xffffffffffffffffffffffffffffffffffffffff\n      and\n        /* \"contracts/polygonUsdt/Usdt-all-openzeppelin.sol\":24610:24617  account */\n      dup3\n        /* \"contracts/polygonUsdt/Usdt-all-openzeppelin.sol\":24601:24638  Transfer(account, address(0), amount) */\n      0xffffffffffffffffffffffffffffffffffffffff\n      and\n      0xddf252ad1be2c89b69c2b068fc378daa952ba7f163c4a11628f55a4df523b3ef\n        /* \"contracts/polygonUsdt/Usdt-all-openzeppelin.sol\":24631:24637  amount */\n      dup4\n        /* \"contracts/polygonUsdt/Usdt-all-openzeppelin.sol\":24601:24638  Transfer(account, address(0), amount) */\n      mload(0x40)\n      dup1\n      dup3\n      dup2\n      mstore\n      0x20\n      add\n      swap2\n      pop\n      pop\n      mload(0x40)\n      dup1\n      swap2\n      sub\n      swap1\n      log3\n        /* \"contracts/polygonUsdt/Usdt-all-openzeppelin.sol\":24235:24645  function _burn(address account, uint256 amount) internal virtual {... */\n      pop\n      pop\n      jump\t// out\n        /* \"contracts/polygonUsdt/Usdt-all-openzeppelin.sol\":41329:41513  function _grantRole(bytes32 role, address account) private {... */\n    tag_251:\n        /* \"contracts/polygonUsdt/Usdt-all-openzeppelin.sol\":41402:41435  _roles[role].members.add(account) */\n      tag_367\n        /* \"contracts/polygonUsdt/Usdt-all-openzeppelin.sol\":41427:41434  account */\n      dup2\n        /* \"contracts/polygonUsdt/Usdt-all-openzeppelin.sol\":41402:41408  _roles */\n      0x06\n        /* \"contracts/polygonUsdt/Usdt-all-openzeppelin.sol\":41402:41414  _roles[role] */\n      0x00\n        /* \"contracts/polygonUsdt/Usdt-all-openzeppelin.sol\":41409:41413  role */\n      dup6\n        /* \"contracts/polygonUsdt/Usdt-all-openzeppelin.sol\":41402:41414  _roles[role] */\n      dup2\n      mstore\n      0x20\n      add\n      swap1\n      dup2\n      mstore\n      0x20\n      add\n      0x00\n      keccak256\n        /* \"contracts/polygonUsdt/Usdt-all-openzeppelin.sol\":41402:41422  _roles[role].members */\n      0x00\n      add\n        /* \"contracts/polygonUsdt/Usdt-all-openzeppelin.sol\":41402:41426  _roles[role].members.add */\n      tag_368\n      swap1\n        /* \"contracts/polygonUsdt/Usdt-all-openzeppelin.sol\":41402:41435  _roles[role].members.add(account) */\n      swap2\n      swap1\n      0xffffffff\n      and\n      jump\t// in\n    tag_367:\n        /* \"contracts/polygonUsdt/Usdt-all-openzeppelin.sol\":41398:41507  if (_roles[role].members.add(account)) {... */\n      iszero\n      tag_369\n      jumpi\n        /* \"contracts/polygonUsdt/Usdt-all-openzeppelin.sol\":41483:41495  _msgSender() */\n      tag_370\n        /* \"contracts/polygonUsdt/Usdt-all-openzeppelin.sol\":41483:41493  _msgSender */\n      tag_206\n        /* \"contracts/polygonUsdt/Usdt-all-openzeppelin.sol\":41483:41495  _msgSender() */\n      jump\t// in\n    tag_370:\n        /* \"contracts/polygonUsdt/Usdt-all-openzeppelin.sol\":41456:41496  RoleGranted(role, account, _msgSender()) */\n      0xffffffffffffffffffffffffffffffffffffffff\n      and\n        /* \"contracts/polygonUsdt/Usdt-all-openzeppelin.sol\":41474:41481  account */\n      dup2\n        /* \"contracts/polygonUsdt/Usdt-all-openzeppelin.sol\":41456:41496  RoleGranted(role, account, _msgSender()) */\n      0xffffffffffffffffffffffffffffffffffffffff\n      and\n        /* \"contracts/polygonUsdt/Usdt-all-openzeppelin.sol\":41468:41472  role */\n      dup4\n        /* \"contracts/polygonUsdt/Usdt-all-openzeppelin.sol\":41456:41496  RoleGranted(role, account, _msgSender()) */\n      0x2f8788117e7eff1d82e926ec794901d17c78024a50270940304540a733656f0d\n      mload(0x40)\n      mload(0x40)\n      dup1\n      swap2\n      sub\n      swap1\n      log4\n        /* \"contracts/polygonUsdt/Usdt-all-openzeppelin.sol\":41398:41507  if (_roles[role].members.add(account)) {... */\n    tag_369:\n        /* \"contracts/polygonUsdt/Usdt-all-openzeppelin.sol\":41329:41513  function _grantRole(bytes32 role, address account) private {... */\n      pop\n      pop\n      jump\t// out\n        /* \"contracts/polygonUsdt/Usdt-all-openzeppelin.sol\":41519:41707  function _revokeRole(bytes32 role, address account) private {... */\n    tag_258:\n        /* \"contracts/polygonUsdt/Usdt-all-openzeppelin.sol\":41593:41629  _roles[role].members.remove(account) */\n      tag_372\n        /* \"contracts/polygonUsdt/Usdt-all-openzeppelin.sol\":41621:41628  account */\n      dup2\n        /* \"contracts/polygonUsdt/Usdt-all-openzeppelin.sol\":41593:41599  _roles */\n      0x06\n        /* \"contracts/polygonUsdt/Usdt-all-openzeppelin.sol\":41593:41605  _roles[role] */\n      0x00\n        /* \"contracts/polygonUsdt/Usdt-all-openzeppelin.sol\":41600:41604  role */\n      dup6\n        /* \"contracts/polygonUsdt/Usdt-all-openzeppelin.sol\":41593:41605  _roles[role] */\n      dup2\n      mstore\n      0x20\n      add\n      swap1\n      dup2\n      mstore\n      0x20\n      add\n      0x00\n      keccak256\n        /* \"contracts/polygonUsdt/Usdt-all-openzeppelin.sol\":41593:41613  _roles[role].members */\n      0x00\n      add\n        /* \"contracts/polygonUsdt/Usdt-all-openzeppelin.sol\":41593:41620  _roles[role].members.remove */\n      tag_373\n      swap1\n        /* \"contracts/polygonUsdt/Usdt-all-openzeppelin.sol\":41593:41629  _roles[role].members.remove(account) */\n      swap2\n      swap1\n      0xffffffff\n      and\n      jump\t// in\n    tag_372:\n        /* \"contracts/polygonUsdt/Usdt-all-openzeppelin.sol\":41589:41701  if (_roles[role].members.remove(account)) {... */\n      iszero\n      tag_374\n      jumpi\n        /* \"contracts/polygonUsdt/Usdt-all-openzeppelin.sol\":41677:41689  _msgSender() */\n      tag_375\n        /* \"contracts/polygonUsdt/Usdt-all-openzeppelin.sol\":41677:41687  _msgSender */\n      tag_206\n        /* \"contracts/polygonUsdt/Usdt-all-openzeppelin.sol\":41677:41689  _msgSender() */\n      jump\t// in\n    tag_375:\n        /* \"contracts/polygonUsdt/Usdt-all-openzeppelin.sol\":41650:41690  RoleRevoked(role, account, _msgSender()) */\n      0xffffffffffffffffffffffffffffffffffffffff\n      and\n        /* \"contracts/polygonUsdt/Usdt-all-openzeppelin.sol\":41668:41675  account */\n      dup2\n        /* \"contracts/polygonUsdt/Usdt-all-openzeppelin.sol\":41650:41690  RoleRevoked(role, account, _msgSender()) */\n      0xffffffffffffffffffffffffffffffffffffffff\n      and\n        /* \"contracts/polygonUsdt/Usdt-all-openzeppelin.sol\":41662:41666  role */\n      dup4\n        /* \"contracts/polygonUsdt/Usdt-all-openzeppelin.sol\":41650:41690  RoleRevoked(role, account, _msgSender()) */\n      0xf6391f5c32d9c69d2a47ea670b442974b53935d1edc7fd64eb21e047a839171b\n      mload(0x40)\n      mload(0x40)\n      dup1\n      swap2\n      sub\n      swap1\n      log4\n        /* \"contracts/polygonUsdt/Usdt-all-openzeppelin.sol\":41589:41701  if (_roles[role].members.remove(account)) {... */\n    tag_374:\n        /* \"contracts/polygonUsdt/Usdt-all-openzeppelin.sol\":41519:41707  function _revokeRole(bytes32 role, address account) private {... */\n      pop\n      pop\n      jump\t// out\n        /* \"contracts/polygonUsdt/Usdt-all-openzeppelin.sol\":17746:17825  function setName(string memory newName) internal {... */\n    tag_273:\n        /* \"contracts/polygonUsdt/Usdt-all-openzeppelin.sol\":17811:17818  newName */\n      dup1\n        /* \"contracts/polygonUsdt/Usdt-all-openzeppelin.sol\":17803:17808  _name */\n      0x03\n        /* \"contracts/polygonUsdt/Usdt-all-openzeppelin.sol\":17803:17818  _name = newName */\n      swap1\n      dup1\n      mload\n      swap1\n      0x20\n      add\n      swap1\n      tag_377\n      swap3\n      swap2\n      swap1\n      tag_378\n      jump\t// in\n    tag_377:\n      pop\n        /* \"contracts/polygonUsdt/Usdt-all-openzeppelin.sol\":17746:17825  function setName(string memory newName) internal {... */\n      pop\n      jump\t// out\n        /* \"contracts/polygonUsdt/Usdt-all-openzeppelin.sol\":43442:43808  function _setDomainSeperator(string memory name, string memory version) internal {... */\n    tag_275:\n        /* \"contracts/polygonUsdt/Usdt-all-openzeppelin.sol\":42901:43011  bytes(... */\n      mload(0x40)\n      dup1\n      0x80\n      add\n      0x40\n      mstore\n      dup1\n      0x4f\n      dup2\n      mstore\n      0x20\n      add\n      data_36c25de3e541d5d970f66e4210d728721220fff5c077cc6cd008b3a0c62adab7\n      0x4f\n      swap2\n      codecopy\n        /* \"contracts/polygonUsdt/Usdt-all-openzeppelin.sol\":42882:43017  keccak256(... */\n      dup1\n      mload\n      swap1\n      0x20\n      add\n      keccak256\n        /* \"contracts/polygonUsdt/Usdt-all-openzeppelin.sol\":43658:43662  name */\n      dup3\n        /* \"contracts/polygonUsdt/Usdt-all-openzeppelin.sol\":43642:43664  keccak256(bytes(name)) */\n      dup1\n      mload\n      swap1\n      0x20\n      add\n      keccak256\n        /* \"contracts/polygonUsdt/Usdt-all-openzeppelin.sol\":43698:43705  version */\n      dup3\n        /* \"contracts/polygonUsdt/Usdt-all-openzeppelin.sol\":43682:43707  keccak256(bytes(version)) */\n      dup1\n      mload\n      swap1\n      0x20\n      add\n      keccak256\n        /* \"contracts/polygonUsdt/Usdt-all-openzeppelin.sol\":43733:43737  this */\n      address\n        /* \"contracts/polygonUsdt/Usdt-all-openzeppelin.sol\":43764:43776  getChainId() */\n      tag_380\n        /* \"contracts/polygonUsdt/Usdt-all-openzeppelin.sol\":43764:43774  getChainId */\n      tag_115\n        /* \"contracts/polygonUsdt/Usdt-all-openzeppelin.sol\":43764:43776  getChainId() */\n      jump\t// in\n    tag_380:\n        /* \"contracts/polygonUsdt/Usdt-all-openzeppelin.sol\":43756:43777  bytes32(getChainId()) */\n      0x00\n      shl\n        /* \"contracts/polygonUsdt/Usdt-all-openzeppelin.sol\":43574:43791  abi.encode(... */\n      add(0x20, mload(0x40))\n      dup1\n      dup7\n      dup2\n      mstore\n      0x20\n      add\n      dup6\n      dup2\n      mstore\n      0x20\n      add\n      dup5\n      dup2\n      mstore\n      0x20\n      add\n      dup4\n      0xffffffffffffffffffffffffffffffffffffffff\n      and\n      0xffffffffffffffffffffffffffffffffffffffff\n      and\n      dup2\n      mstore\n      0x20\n      add\n      dup3\n      dup2\n      mstore\n      0x20\n      add\n      swap6\n      pop\n      pop\n      pop\n      pop\n      pop\n      pop\n      mload(0x40)\n        /* \"--CODEGEN--\":49:53   */\n      0x20\n        /* \"--CODEGEN--\":39:46   */\n      dup2\n        /* \"--CODEGEN--\":30:37   */\n      dup4\n        /* \"--CODEGEN--\":26:47   */\n      sub\n        /* \"--CODEGEN--\":22:54   */\n      sub\n        /* \"--CODEGEN--\":13:20   */\n      dup2\n        /* \"--CODEGEN--\":6:55   */\n      mstore\n        /* \"contracts/polygonUsdt/Usdt-all-openzeppelin.sol\":43574:43791  abi.encode(... */\n      swap1\n      0x40\n      mstore\n        /* \"contracts/polygonUsdt/Usdt-all-openzeppelin.sol\":43551:43801  keccak256(... */\n      dup1\n      mload\n      swap1\n      0x20\n      add\n      keccak256\n        /* \"contracts/polygonUsdt/Usdt-all-openzeppelin.sol\":43533:43548  domainSeperator */\n      0x09\n        /* \"contracts/polygonUsdt/Usdt-all-openzeppelin.sol\":43533:43801  domainSeperator = keccak256(... */\n      dup2\n      swap1\n      sstore\n      pop\n        /* \"contracts/polygonUsdt/Usdt-all-openzeppelin.sol\":43442:43808  function _setDomainSeperator(string memory name, string memory version) internal {... */\n      pop\n      pop\n      jump\t// out\n        /* \"contracts/polygonUsdt/Usdt-all-openzeppelin.sol\":32647:32794  function at(AddressSet storage set, uint256 index) internal view returns (address) {... */\n    tag_279:\n        /* \"contracts/polygonUsdt/Usdt-all-openzeppelin.sol\":32721:32728  address */\n      0x00\n        /* \"contracts/polygonUsdt/Usdt-all-openzeppelin.sol\":32763:32785  _at(set._inner, index) */\n      tag_382\n        /* \"contracts/polygonUsdt/Usdt-all-openzeppelin.sol\":32767:32770  set */\n      dup4\n        /* \"contracts/polygonUsdt/Usdt-all-openzeppelin.sol\":32767:32777  set._inner */\n      0x00\n      add\n        /* \"contracts/polygonUsdt/Usdt-all-openzeppelin.sol\":32779:32784  index */\n      dup4\n        /* \"contracts/polygonUsdt/Usdt-all-openzeppelin.sol\":32763:32766  _at */\n      tag_383\n        /* \"contracts/polygonUsdt/Usdt-all-openzeppelin.sol\":32763:32785  _at(set._inner, index) */\n      jump\t// in\n    tag_382:\n        /* \"contracts/polygonUsdt/Usdt-all-openzeppelin.sol\":32755:32786  uint256(_at(set._inner, index)) */\n      0x00\n      shr\n        /* \"contracts/polygonUsdt/Usdt-all-openzeppelin.sol\":32740:32787  return address(uint256(_at(set._inner, index))) */\n      swap1\n      pop\n        /* \"contracts/polygonUsdt/Usdt-all-openzeppelin.sol\":32647:32794  function at(AddressSet storage set, uint256 index) internal view returns (address) {... */\n      swap3\n      swap2\n      pop\n      pop\n      jump\t// out\n        /* \"contracts/polygonUsdt/Usdt-all-openzeppelin.sol\":31963:32119  function contains(AddressSet storage set, address value) internal view returns (bool) {... */\n    tag_282:\n        /* \"contracts/polygonUsdt/Usdt-all-openzeppelin.sol\":32043:32047  bool */\n      0x00\n        /* \"contracts/polygonUsdt/Usdt-all-openzeppelin.sol\":32066:32112  _contains(set._inner, bytes32(uint256(value))) */\n      tag_385\n        /* \"contracts/polygonUsdt/Usdt-all-openzeppelin.sol\":32076:32079  set */\n      dup4\n        /* \"contracts/polygonUsdt/Usdt-all-openzeppelin.sol\":32076:32086  set._inner */\n      0x00\n      add\n        /* \"contracts/polygonUsdt/Usdt-all-openzeppelin.sol\":32104:32109  value */\n      dup4\n        /* \"contracts/polygonUsdt/Usdt-all-openzeppelin.sol\":32096:32110  uint256(value) */\n      0xffffffffffffffffffffffffffffffffffffffff\n      and\n        /* \"contracts/polygonUsdt/Usdt-all-openzeppelin.sol\":32088:32111  bytes32(uint256(value)) */\n      0x00\n      shl\n        /* \"contracts/polygonUsdt/Usdt-all-openzeppelin.sol\":32066:32075  _contains */\n      tag_386\n        /* \"contracts/polygonUsdt/Usdt-all-openzeppelin.sol\":32066:32112  _contains(set._inner, bytes32(uint256(value))) */\n      jump\t// in\n    tag_385:\n        /* \"contracts/polygonUsdt/Usdt-all-openzeppelin.sol\":32059:32112  return _contains(set._inner, bytes32(uint256(value))) */\n      swap1\n      pop\n        /* \"contracts/polygonUsdt/Usdt-all-openzeppelin.sol\":31963:32119  function contains(AddressSet storage set, address value) internal view returns (bool) {... */\n      swap3\n      swap2\n      pop\n      pop\n      jump\t// out\n        /* \"contracts/polygonUsdt/Usdt-all-openzeppelin.sol\":32200:32315  function length(AddressSet storage set) internal view returns (uint256) {... */\n    tag_297:\n        /* \"contracts/polygonUsdt/Usdt-all-openzeppelin.sol\":32263:32270  uint256 */\n      0x00\n        /* \"contracts/polygonUsdt/Usdt-all-openzeppelin.sol\":32289:32308  _length(set._inner) */\n      tag_388\n        /* \"contracts/polygonUsdt/Usdt-all-openzeppelin.sol\":32297:32300  set */\n      dup3\n        /* \"contracts/polygonUsdt/Usdt-all-openzeppelin.sol\":32297:32307  set._inner */\n      0x00\n      add\n        /* \"contracts/polygonUsdt/Usdt-all-openzeppelin.sol\":32289:32296  _length */\n      tag_389\n        /* \"contracts/polygonUsdt/Usdt-all-openzeppelin.sol\":32289:32308  _length(set._inner) */\n      jump\t// in\n    tag_388:\n        /* \"contracts/polygonUsdt/Usdt-all-openzeppelin.sol\":32282:32308  return _length(set._inner) */\n      swap1\n      pop\n        /* \"contracts/polygonUsdt/Usdt-all-openzeppelin.sol\":32200:32315  function length(AddressSet storage set) internal view returns (uint256) {... */\n      swap2\n      swap1\n      pop\n      jump\t// out\n        /* \"contracts/polygonUsdt/Usdt-all-openzeppelin.sol\":23546:23916  function _mint(address account, uint256 amount) internal virtual {... */\n    tag_308:\n        /* \"contracts/polygonUsdt/Usdt-all-openzeppelin.sol\":23648:23649  0 */\n      0x00\n        /* \"contracts/polygonUsdt/Usdt-all-openzeppelin.sol\":23629:23650  account != address(0) */\n      0xffffffffffffffffffffffffffffffffffffffff\n      and\n        /* \"contracts/polygonUsdt/Usdt-all-openzeppelin.sol\":23629:23636  account */\n      dup3\n        /* \"contracts/polygonUsdt/Usdt-all-openzeppelin.sol\":23629:23650  account != address(0) */\n      0xffffffffffffffffffffffffffffffffffffffff\n      and\n      eq\n      iszero\n        /* \"contracts/polygonUsdt/Usdt-all-openzeppelin.sol\":23621:23686  require(account != address(0), \"ERC20: mint to the zero address\") */\n      tag_391\n      jumpi\n      mload(0x40)\n      0x08c379a000000000000000000000000000000000000000000000000000000000\n      dup2\n      mstore\n      0x04\n      add\n      dup1\n      dup1\n      0x20\n      add\n      dup3\n      dup2\n      sub\n      dup3\n      mstore\n      0x1f\n      dup2\n      mstore\n      0x20\n      add\n      dup1\n      0x45524332303a206d696e7420746f20746865207a65726f206164647265737300\n      dup2\n      mstore\n      pop\n      0x20\n      add\n      swap2\n      pop\n      pop\n      mload(0x40)\n      dup1\n      swap2\n      sub\n      swap1\n      revert\n    tag_391:\n        /* \"contracts/polygonUsdt/Usdt-all-openzeppelin.sol\":23697:23746  _beforeTokenTransfer(address(0), account, amount) */\n      tag_392\n        /* \"contracts/polygonUsdt/Usdt-all-openzeppelin.sol\":23726:23727  0 */\n      0x00\n        /* \"contracts/polygonUsdt/Usdt-all-openzeppelin.sol\":23730:23737  account */\n      dup4\n        /* \"contracts/polygonUsdt/Usdt-all-openzeppelin.sol\":23739:23745  amount */\n      dup4\n        /* \"contracts/polygonUsdt/Usdt-all-openzeppelin.sol\":23697:23717  _beforeTokenTransfer */\n      tag_351\n        /* \"contracts/polygonUsdt/Usdt-all-openzeppelin.sol\":23697:23746  _beforeTokenTransfer(address(0), account, amount) */\n      jump\t// in\n    tag_392:\n        /* \"contracts/polygonUsdt/Usdt-all-openzeppelin.sol\":23772:23796  _totalSupply.add(amount) */\n      tag_393\n        /* \"contracts/polygonUsdt/Usdt-all-openzeppelin.sol\":23789:23795  amount */\n      dup2\n        /* \"contracts/polygonUsdt/Usdt-all-openzeppelin.sol\":23772:23784  _totalSupply */\n      sload(0x02)\n        /* \"contracts/polygonUsdt/Usdt-all-openzeppelin.sol\":23772:23788  _totalSupply.add */\n      tag_215\n      swap1\n        /* \"contracts/polygonUsdt/Usdt-all-openzeppelin.sol\":23772:23796  _totalSupply.add(amount) */\n      swap2\n      swap1\n      0xffffffff\n      and\n      jump\t// in\n    tag_393:\n        /* \"contracts/polygonUsdt/Usdt-all-openzeppelin.sol\":23757:23769  _totalSupply */\n      0x02\n        /* \"contracts/polygonUsdt/Usdt-all-openzeppelin.sol\":23757:23796  _totalSupply = _totalSupply.add(amount) */\n      dup2\n      swap1\n      sstore\n      pop\n        /* \"contracts/polygonUsdt/Usdt-all-openzeppelin.sol\":23827:23857  _balances[account].add(amount) */\n      tag_394\n        /* \"contracts/polygonUsdt/Usdt-all-openzeppelin.sol\":23850:23856  amount */\n      dup2\n        /* \"contracts/polygonUsdt/Usdt-all-openzeppelin.sol\":23827:23836  _balances */\n      0x00\n        /* \"contracts/polygonUsdt/Usdt-all-openzeppelin.sol\":23827:23845  _balances[account] */\n      dup1\n        /* \"contracts/polygonUsdt/Usdt-all-openzeppelin.sol\":23837:23844  account */\n      dup6\n        /* \"contracts/polygonUsdt/Usdt-all-openzeppelin.sol\":23827:23845  _balances[account] */\n      0xffffffffffffffffffffffffffffffffffffffff\n      and\n      0xffffffffffffffffffffffffffffffffffffffff\n      and\n      dup2\n      mstore\n      0x20\n      add\n      swap1\n      dup2\n      mstore\n      0x20\n      add\n      0x00\n      keccak256\n      sload\n        /* \"contracts/polygonUsdt/Usdt-all-openzeppelin.sol\":23827:23849  _balances[account].add */\n      tag_215\n      swap1\n        /* \"contracts/polygonUsdt/Usdt-all-openzeppelin.sol\":23827:23857  _balances[account].add(amount) */\n      swap2\n      swap1\n      0xffffffff\n      and\n      jump\t// in\n    tag_394:\n        /* \"contracts/polygonUsdt/Usdt-all-openzeppelin.sol\":23806:23815  _balances */\n      0x00\n        /* \"contracts/polygonUsdt/Usdt-all-openzeppelin.sol\":23806:23824  _balances[account] */\n      dup1\n        /* \"contracts/polygonUsdt/Usdt-all-openzeppelin.sol\":23816:23823  account */\n      dup5\n        /* \"contracts/polygonUsdt/Usdt-all-openzeppelin.sol\":23806:23824  _balances[account] */\n      0xffffffffffffffffffffffffffffffffffffffff\n      and\n      0xffffffffffffffffffffffffffffffffffffffff\n      and\n      dup2\n      mstore\n      0x20\n      add\n      swap1\n      dup2\n      mstore\n      0x20\n      add\n      0x00\n      keccak256\n        /* \"contracts/polygonUsdt/Usdt-all-openzeppelin.sol\":23806:23857  _balances[account] = _balances[account].add(amount) */\n      dup2\n      swap1\n      sstore\n      pop\n        /* \"contracts/polygonUsdt/Usdt-all-openzeppelin.sol\":23893:23900  account */\n      dup2\n        /* \"contracts/polygonUsdt/Usdt-all-openzeppelin.sol\":23872:23909  Transfer(address(0), account, amount) */\n      0xffffffffffffffffffffffffffffffffffffffff\n      and\n        /* \"contracts/polygonUsdt/Usdt-all-openzeppelin.sol\":23889:23890  0 */\n      0x00\n        /* \"contracts/polygonUsdt/Usdt-all-openzeppelin.sol\":23872:23909  Transfer(address(0), account, amount) */\n      0xffffffffffffffffffffffffffffffffffffffff\n      and\n      0xddf252ad1be2c89b69c2b068fc378daa952ba7f163c4a11628f55a4df523b3ef\n        /* \"contracts/polygonUsdt/Usdt-all-openzeppelin.sol\":23902:23908  amount */\n      dup4\n        /* \"contracts/polygonUsdt/Usdt-all-openzeppelin.sol\":23872:23909  Transfer(address(0), account, amount) */\n      mload(0x40)\n      dup1\n      dup3\n      dup2\n      mstore\n      0x20\n      add\n      swap2\n      pop\n      pop\n      mload(0x40)\n      dup1\n      swap2\n      sub\n      swap1\n      log3\n        /* \"contracts/polygonUsdt/Usdt-all-openzeppelin.sol\":23546:23916  function _mint(address account, uint256 amount) internal virtual {... */\n      pop\n      pop\n      jump\t// out\n        /* \"contracts/polygonUsdt/Usdt-all-openzeppelin.sol\":18029:18116  function setSymbol(string memory newSymbol) internal {... */\n    tag_320:\n        /* \"contracts/polygonUsdt/Usdt-all-openzeppelin.sol\":18100:18109  newSymbol */\n      dup1\n        /* \"contracts/polygonUsdt/Usdt-all-openzeppelin.sol\":18090:18097  _symbol */\n      0x04\n        /* \"contracts/polygonUsdt/Usdt-all-openzeppelin.sol\":18090:18109  _symbol = newSymbol */\n      swap1\n      dup1\n      mload\n      swap1\n      0x20\n      add\n      swap1\n      tag_396\n      swap3\n      swap2\n      swap1\n      tag_378\n      jump\t// in\n    tag_396:\n      pop\n        /* \"contracts/polygonUsdt/Usdt-all-openzeppelin.sol\":18029:18116  function setSymbol(string memory newSymbol) internal {... */\n      pop\n      jump\t// out\n        /* \"contracts/polygonUsdt/Usdt-all-openzeppelin.sol\":18826:18913  function setDecimals(uint8 newDecimals) internal {... */\n    tag_322:\n        /* \"contracts/polygonUsdt/Usdt-all-openzeppelin.sol\":18895:18906  newDecimals */\n      dup1\n        /* \"contracts/polygonUsdt/Usdt-all-openzeppelin.sol\":18883:18892  _decimals */\n      0x05\n      0x00\n        /* \"contracts/polygonUsdt/Usdt-all-openzeppelin.sol\":18883:18906  _decimals = newDecimals */\n      0x0100\n      exp\n      dup2\n      sload\n      dup2\n      0xff\n      mul\n      not\n      and\n      swap1\n      dup4\n      0xff\n      and\n      mul\n      or\n      swap1\n      sstore\n      pop\n        /* \"contracts/polygonUsdt/Usdt-all-openzeppelin.sol\":18826:18913  function setDecimals(uint8 newDecimals) internal {... */\n      pop\n      jump\t// out\n        /* \"contracts/polygonUsdt/Usdt-all-openzeppelin.sol\":41868:42025  function _setupContractId(string memory contractId) internal {... */\n    tag_324:\n        /* \"contracts/polygonUsdt/Usdt-all-openzeppelin.sol\":41976:41986  contractId */\n      dup1\n        /* \"contracts/polygonUsdt/Usdt-all-openzeppelin.sol\":41959:42017  abi.encodePacked(contractId, \": INSUFFICIENT_PERMISSIONS\") */\n      add(0x20, mload(0x40))\n      dup1\n      dup3\n      dup1\n      mload\n      swap1\n      0x20\n      add\n      swap1\n      dup1\n      dup4\n      dup4\n        /* \"--CODEGEN--\":36:189   */\n    tag_399:\n        /* \"--CODEGEN--\":66:68   */\n      0x20\n        /* \"--CODEGEN--\":61:64   */\n      dup4\n        /* \"--CODEGEN--\":58:69   */\n      lt\n        /* \"--CODEGEN--\":36:189   */\n      tag_401\n      jumpi\n        /* \"--CODEGEN--\":182:185   */\n      dup1\n        /* \"--CODEGEN--\":176:186   */\n      mload\n        /* \"--CODEGEN--\":171:174   */\n      dup3\n        /* \"--CODEGEN--\":164:187   */\n      mstore\n        /* \"--CODEGEN--\":98:100   */\n      0x20\n        /* \"--CODEGEN--\":93:96   */\n      dup3\n        /* \"--CODEGEN--\":89:101   */\n      add\n        /* \"--CODEGEN--\":82:101   */\n      swap2\n      pop\n        /* \"--CODEGEN--\":123:125   */\n      0x20\n        /* \"--CODEGEN--\":118:121   */\n      dup2\n        /* \"--CODEGEN--\":114:126   */\n      add\n        /* \"--CODEGEN--\":107:126   */\n      swap1\n      pop\n        /* \"--CODEGEN--\":148:150   */\n      0x20\n        /* \"--CODEGEN--\":143:146   */\n      dup4\n        /* \"--CODEGEN--\":139:151   */\n      sub\n        /* \"--CODEGEN--\":132:151   */\n      swap3\n      pop\n        /* \"--CODEGEN--\":36:189   */\n      jump(tag_399)\n    tag_401:\n        /* \"--CODEGEN--\":274:275   */\n      0x01\n        /* \"--CODEGEN--\":267:270   */\n      dup4\n        /* \"--CODEGEN--\":263:265   */\n      0x20\n        /* \"--CODEGEN--\":259:271   */\n      sub\n        /* \"--CODEGEN--\":254:257   */\n      0x0100\n        /* \"--CODEGEN--\":250:272   */\n      exp\n        /* \"--CODEGEN--\":246:276   */\n      sub\n        /* \"--CODEGEN--\":315:319   */\n      dup1\n        /* \"--CODEGEN--\":311:320   */\n      not\n        /* \"--CODEGEN--\":305:308   */\n      dup3\n        /* \"--CODEGEN--\":299:309   */\n      mload\n        /* \"--CODEGEN--\":295:321   */\n      and\n        /* \"--CODEGEN--\":356:360   */\n      dup2\n        /* \"--CODEGEN--\":350:353   */\n      dup5\n        /* \"--CODEGEN--\":344:354   */\n      mload\n        /* \"--CODEGEN--\":340:361   */\n      and\n        /* \"--CODEGEN--\":389:396   */\n      dup1\n        /* \"--CODEGEN--\":380:387   */\n      dup3\n        /* \"--CODEGEN--\":377:397   */\n      or\n        /* \"--CODEGEN--\":372:375   */\n      dup6\n        /* \"--CODEGEN--\":365:398   */\n      mstore\n        /* \"--CODEGEN--\":3:402   */\n      pop\n      pop\n      pop\n        /* \"contracts/polygonUsdt/Usdt-all-openzeppelin.sol\":41959:42017  abi.encodePacked(contractId, \": INSUFFICIENT_PERMISSIONS\") */\n      pop\n      pop\n      pop\n      swap1\n      pop\n      add\n      dup1\n      0x3a20494e53554646494349454e545f5045524d495353494f4e53000000000000\n      dup2\n      mstore\n      pop\n      0x1a\n      add\n      swap2\n      pop\n      pop\n      mload(0x40)\n        /* \"--CODEGEN--\":49:53   */\n      0x20\n        /* \"--CODEGEN--\":39:46   */\n      dup2\n        /* \"--CODEGEN--\":30:37   */\n      dup4\n        /* \"--CODEGEN--\":26:47   */\n      sub\n        /* \"--CODEGEN--\":22:54   */\n      sub\n        /* \"--CODEGEN--\":13:20   */\n      dup2\n        /* \"--CODEGEN--\":6:55   */\n      mstore\n        /* \"contracts/polygonUsdt/Usdt-all-openzeppelin.sol\":41959:42017  abi.encodePacked(contractId, \": INSUFFICIENT_PERMISSIONS\") */\n      swap1\n      0x40\n      mstore\n        /* \"contracts/polygonUsdt/Usdt-all-openzeppelin.sol\":41939:41949  _revertMsg */\n      0x07\n        /* \"contracts/polygonUsdt/Usdt-all-openzeppelin.sol\":41939:42018  _revertMsg = string(abi.encodePacked(contractId, \": INSUFFICIENT_PERMISSIONS\")) */\n      swap1\n      dup1\n      mload\n      swap1\n      0x20\n      add\n      swap1\n      tag_402\n      swap3\n      swap2\n      swap1\n      tag_378\n      jump\t// in\n    tag_402:\n      pop\n        /* \"contracts/polygonUsdt/Usdt-all-openzeppelin.sol\":41868:42025  function _setupContractId(string memory contractId) internal {... */\n      pop\n      jump\t// out\n        /* \"contracts/polygonUsdt/Usdt-all-openzeppelin.sol\":40892:41002  function _setupRole(bytes32 role, address account) internal virtual {... */\n    tag_327:\n        /* \"contracts/polygonUsdt/Usdt-all-openzeppelin.sol\":40970:40995  _grantRole(role, account) */\n      tag_404\n        /* \"contracts/polygonUsdt/Usdt-all-openzeppelin.sol\":40981:40985  role */\n      dup3\n        /* \"contracts/polygonUsdt/Usdt-all-openzeppelin.sol\":40987:40994  account */\n      dup3\n        /* \"contracts/polygonUsdt/Usdt-all-openzeppelin.sol\":40970:40980  _grantRole */\n      tag_251\n        /* \"contracts/polygonUsdt/Usdt-all-openzeppelin.sol\":40970:40995  _grantRole(role, account) */\n      jump\t// in\n    tag_404:\n        /* \"contracts/polygonUsdt/Usdt-all-openzeppelin.sol\":40892:41002  function _setupRole(bytes32 role, address account) internal virtual {... */\n      pop\n      pop\n      jump\t// out\n        /* \"contracts/polygonUsdt/Usdt-all-openzeppelin.sol\":43252:43436  function _initializeEIP712(... */\n    tag_330:\n        /* \"contracts/polygonUsdt/Usdt-all-openzeppelin.sol\":42516:42522  inited */\n      0x08\n      0x00\n      swap1\n      sload\n      swap1\n      0x0100\n      exp\n      swap1\n      div\n      0xff\n      and\n        /* \"contracts/polygonUsdt/Usdt-all-openzeppelin.sol\":42515:42522  !inited */\n      iszero\n        /* \"contracts/polygonUsdt/Usdt-all-openzeppelin.sol\":42507:42541  require(!inited, \"already inited\") */\n      tag_406\n      jumpi\n      mload(0x40)\n      0x08c379a000000000000000000000000000000000000000000000000000000000\n      dup2\n      mstore\n      0x04\n      add\n      dup1\n      dup1\n      0x20\n      add\n      dup3\n      dup2\n      sub\n      dup3\n      mstore\n      0x0e\n      dup2\n      mstore\n      0x20\n      add\n      dup1\n      0x616c726561647920696e69746564000000000000000000000000000000000000\n      dup2\n      mstore\n      pop\n      0x20\n      add\n      swap2\n      pop\n      pop\n      mload(0x40)\n      dup1\n      swap2\n      sub\n      swap1\n      revert\n    tag_406:\n        /* \"contracts/polygonUsdt/Usdt-all-openzeppelin.sol\":43395:43429  _setDomainSeperator(name, version) */\n      tag_408\n        /* \"contracts/polygonUsdt/Usdt-all-openzeppelin.sol\":43415:43419  name */\n      dup3\n        /* \"contracts/polygonUsdt/Usdt-all-openzeppelin.sol\":43421:43428  version */\n      dup3\n        /* \"contracts/polygonUsdt/Usdt-all-openzeppelin.sol\":43395:43414  _setDomainSeperator */\n      tag_275\n        /* \"contracts/polygonUsdt/Usdt-all-openzeppelin.sol\":43395:43429  _setDomainSeperator(name, version) */\n      jump\t// in\n    tag_408:\n        /* \"contracts/polygonUsdt/Usdt-all-openzeppelin.sol\":42571:42575  true */\n      0x01\n        /* \"contracts/polygonUsdt/Usdt-all-openzeppelin.sol\":42562:42568  inited */\n      0x08\n      0x00\n        /* \"contracts/polygonUsdt/Usdt-all-openzeppelin.sol\":42562:42575  inited = true */\n      0x0100\n      exp\n      dup2\n      sload\n      dup2\n      0xff\n      mul\n      not\n      and\n      swap1\n      dup4\n      iszero\n      iszero\n      mul\n      or\n      swap1\n      sstore\n      pop\n        /* \"contracts/polygonUsdt/Usdt-all-openzeppelin.sol\":43252:43436  function _initializeEIP712(... */\n      pop\n      pop\n      jump\t// out\n        /* \"contracts/polygonUsdt/Usdt-all-openzeppelin.sol\":48124:48746  function msgSender()... */\n    tag_333:\n        /* \"contracts/polygonUsdt/Usdt-all-openzeppelin.sol\":48192:48214  address payable sender */\n      0x00\n        /* \"contracts/polygonUsdt/Usdt-all-openzeppelin.sol\":48256:48260  this */\n      address\n        /* \"contracts/polygonUsdt/Usdt-all-openzeppelin.sol\":48234:48261  msg.sender == address(this) */\n      0xffffffffffffffffffffffffffffffffffffffff\n      and\n        /* \"contracts/polygonUsdt/Usdt-all-openzeppelin.sol\":48234:48244  msg.sender */\n      caller\n        /* \"contracts/polygonUsdt/Usdt-all-openzeppelin.sol\":48234:48261  msg.sender == address(this) */\n      0xffffffffffffffffffffffffffffffffffffffff\n      and\n      eq\n        /* \"contracts/polygonUsdt/Usdt-all-openzeppelin.sol\":48230:48717  if (msg.sender == address(this)) {... */\n      iszero\n      tag_410\n      jumpi\n        /* \"contracts/polygonUsdt/Usdt-all-openzeppelin.sol\":48277:48295  bytes memory array */\n      0x60\n        /* \"contracts/polygonUsdt/Usdt-all-openzeppelin.sol\":48298:48306  msg.data */\n      0x00\n      calldatasize\n        /* \"contracts/polygonUsdt/Usdt-all-openzeppelin.sol\":48277:48306  bytes memory array = msg.data */\n      dup1\n      dup1\n      0x1f\n      add\n      0x20\n      dup1\n      swap2\n      div\n      mul\n      0x20\n      add\n      mload(0x40)\n      swap1\n      dup2\n      add\n      0x40\n      mstore\n      dup1\n      swap4\n      swap3\n      swap2\n      swap1\n      dup2\n      dup2\n      mstore\n      0x20\n      add\n      dup4\n      dup4\n        /* \"--CODEGEN--\":30:33   */\n      dup1\n        /* \"--CODEGEN--\":22:28   */\n      dup3\n        /* \"--CODEGEN--\":14:20   */\n      dup5\n        /* \"--CODEGEN--\":1:34   */\n      calldatacopy\n        /* \"--CODEGEN--\":99:100   */\n      0x00\n        /* \"--CODEGEN--\":93:96   */\n      dup2\n        /* \"--CODEGEN--\":85:91   */\n      dup5\n        /* \"--CODEGEN--\":81:97   */\n      add\n        /* \"--CODEGEN--\":74:101   */\n      mstore\n        /* \"--CODEGEN--\":137:141   */\n      0x1f\n        /* \"--CODEGEN--\":133:142   */\n      not\n        /* \"--CODEGEN--\":126:130   */\n      0x1f\n        /* \"--CODEGEN--\":121:124   */\n      dup3\n        /* \"--CODEGEN--\":117:131   */\n      add\n        /* \"--CODEGEN--\":113:143   */\n      and\n        /* \"--CODEGEN--\":106:143   */\n      swap1\n      pop\n        /* \"--CODEGEN--\":169:172   */\n      dup1\n        /* \"--CODEGEN--\":161:167   */\n      dup4\n        /* \"--CODEGEN--\":157:173   */\n      add\n        /* \"--CODEGEN--\":147:173   */\n      swap3\n      pop\n        /* \"contracts/polygonUsdt/Usdt-all-openzeppelin.sol\":48277:48306  bytes memory array = msg.data */\n      pop\n      pop\n      pop\n      pop\n      pop\n      pop\n      swap1\n      pop\n        /* \"contracts/polygonUsdt/Usdt-all-openzeppelin.sol\":48320:48333  uint256 index */\n      0x00\n        /* \"contracts/polygonUsdt/Usdt-all-openzeppelin.sol\":48336:48344  msg.data */\n      dup1\n      calldatasize\n        /* \"contracts/polygonUsdt/Usdt-all-openzeppelin.sol\":48336:48351  msg.data.length */\n      swap1\n      pop\n        /* \"contracts/polygonUsdt/Usdt-all-openzeppelin.sol\":48320:48351  uint256 index = msg.data.length */\n      swap1\n      pop\n        /* \"contracts/polygonUsdt/Usdt-all-openzeppelin.sol\":48583:48625  0xffffffffffffffffffffffffffffffffffffffff */\n      0xffffffffffffffffffffffffffffffffffffffff\n        /* \"contracts/polygonUsdt/Usdt-all-openzeppelin.sol\":48554:48559  index */\n      dup2\n        /* \"contracts/polygonUsdt/Usdt-all-openzeppelin.sol\":48547:48552  array */\n      dup4\n        /* \"contracts/polygonUsdt/Usdt-all-openzeppelin.sol\":48543:48560  add(array, index) */\n      add\n        /* \"contracts/polygonUsdt/Usdt-all-openzeppelin.sol\":48537:48561  mload(add(array, index)) */\n      mload\n        /* \"contracts/polygonUsdt/Usdt-all-openzeppelin.sol\":48512:48643  and(... */\n      and\n        /* \"contracts/polygonUsdt/Usdt-all-openzeppelin.sol\":48502:48643  sender := and(... */\n      swap3\n      pop\n        /* \"contracts/polygonUsdt/Usdt-all-openzeppelin.sol\":48374:48657  {... */\n      pop\n      pop\n      jump(tag_411)\n    tag_410:\n        /* \"contracts/polygonUsdt/Usdt-all-openzeppelin.sol\":48696:48706  msg.sender */\n      caller\n        /* \"contracts/polygonUsdt/Usdt-all-openzeppelin.sol\":48687:48706  sender = msg.sender */\n      swap1\n      pop\n        /* \"contracts/polygonUsdt/Usdt-all-openzeppelin.sol\":48230:48717  if (msg.sender == address(this)) {... */\n    tag_411:\n        /* \"contracts/polygonUsdt/Usdt-all-openzeppelin.sol\":48733:48739  sender */\n      dup1\n        /* \"contracts/polygonUsdt/Usdt-all-openzeppelin.sol\":48726:48739  return sender */\n      swap1\n      pop\n        /* \"contracts/polygonUsdt/Usdt-all-openzeppelin.sol\":48124:48746  function msgSender()... */\n      swap1\n      jump\t// out\n        /* \"contracts/polygonUsdt/Usdt-all-openzeppelin.sol\":46677:47073  function hashMetaTransaction(MetaTransaction memory metaTx)... */\n    tag_341:\n        /* \"contracts/polygonUsdt/Usdt-all-openzeppelin.sol\":46784:46791  bytes32 */\n      0x00\n        /* \"contracts/polygonUsdt/Usdt-all-openzeppelin.sol\":44921:45019  bytes(... */\n      mload(0x40)\n      dup1\n      0x80\n      add\n      0x40\n      mstore\n      dup1\n      0x43\n      dup2\n      mstore\n      0x20\n      add\n      data_23d10def3caacba2e4042e0c75d44a42d2558aabcf5ce951d0642a8032e1e653\n      0x43\n      swap2\n      codecopy\n        /* \"contracts/polygonUsdt/Usdt-all-openzeppelin.sol\":44902:45025  keccak256(... */\n      dup1\n      mload\n      swap1\n      0x20\n      add\n      keccak256\n        /* \"contracts/polygonUsdt/Usdt-all-openzeppelin.sol\":46932:46938  metaTx */\n      dup3\n        /* \"contracts/polygonUsdt/Usdt-all-openzeppelin.sol\":46932:46944  metaTx.nonce */\n      0x00\n      add\n      mload\n        /* \"contracts/polygonUsdt/Usdt-all-openzeppelin.sol\":46966:46972  metaTx */\n      dup4\n        /* \"contracts/polygonUsdt/Usdt-all-openzeppelin.sol\":46966:46977  metaTx.from */\n      0x20\n      add\n      mload\n        /* \"contracts/polygonUsdt/Usdt-all-openzeppelin.sol\":47009:47015  metaTx */\n      dup5\n        /* \"contracts/polygonUsdt/Usdt-all-openzeppelin.sol\":47009:47033  metaTx.functionSignature */\n      0x40\n      add\n      mload\n        /* \"contracts/polygonUsdt/Usdt-all-openzeppelin.sol\":46999:47034  keccak256(metaTx.functionSignature) */\n      dup1\n      mload\n      swap1\n      0x20\n      add\n      keccak256\n        /* \"contracts/polygonUsdt/Usdt-all-openzeppelin.sol\":46853:47052  abi.encode(... */\n      add(0x20, mload(0x40))\n      dup1\n      dup6\n      dup2\n      mstore\n      0x20\n      add\n      dup5\n      dup2\n      mstore\n      0x20\n      add\n      dup4\n      0xffffffffffffffffffffffffffffffffffffffff\n      and\n      0xffffffffffffffffffffffffffffffffffffffff\n      and\n      dup2\n      mstore\n      0x20\n      add\n      dup3\n      dup2\n      mstore\n      0x20\n      add\n      swap5\n      pop\n      pop\n      pop\n      pop\n      pop\n      mload(0x40)\n        /* \"--CODEGEN--\":49:53   */\n      0x20\n        /* \"--CODEGEN--\":39:46   */\n      dup2\n        /* \"--CODEGEN--\":30:37   */\n      dup4\n        /* \"--CODEGEN--\":26:47   */\n      sub\n        /* \"--CODEGEN--\":22:54   */\n      sub\n        /* \"--CODEGEN--\":13:20   */\n      dup2\n        /* \"--CODEGEN--\":6:55   */\n      mstore\n        /* \"contracts/polygonUsdt/Usdt-all-openzeppelin.sol\":46853:47052  abi.encode(... */\n      swap1\n      0x40\n      mstore\n        /* \"contracts/polygonUsdt/Usdt-all-openzeppelin.sol\":46826:47066  keccak256(... */\n      dup1\n      mload\n      swap1\n      0x20\n      add\n      keccak256\n        /* \"contracts/polygonUsdt/Usdt-all-openzeppelin.sol\":46807:47066  return... */\n      swap1\n      pop\n        /* \"contracts/polygonUsdt/Usdt-all-openzeppelin.sol\":46677:47073  function hashMetaTransaction(MetaTransaction memory metaTx)... */\n      swap2\n      swap1\n      pop\n      jump\t// out\n        /* \"contracts/polygonUsdt/Usdt-all-openzeppelin.sol\":44434:44683  function toTypedMessageHash(bytes32 messageHash)... */\n    tag_342:\n        /* \"contracts/polygonUsdt/Usdt-all-openzeppelin.sol\":44530:44537  bytes32 */\n      0x00\n        /* \"contracts/polygonUsdt/Usdt-all-openzeppelin.sol\":44628:44648  getDomainSeperator() */\n      tag_414\n        /* \"contracts/polygonUsdt/Usdt-all-openzeppelin.sol\":44628:44646  getDomainSeperator */\n      tag_89\n        /* \"contracts/polygonUsdt/Usdt-all-openzeppelin.sol\":44628:44648  getDomainSeperator() */\n      jump\t// in\n    tag_414:\n        /* \"contracts/polygonUsdt/Usdt-all-openzeppelin.sol\":44650:44661  messageHash */\n      dup3\n        /* \"contracts/polygonUsdt/Usdt-all-openzeppelin.sol\":44599:44662  abi.encodePacked(\"\\x19\\x01\", getDomainSeperator(), messageHash) */\n      add(0x20, mload(0x40))\n      dup1\n      dup1\n      0x1901000000000000000000000000000000000000000000000000000000000000\n      dup2\n      mstore\n      pop\n      0x02\n      add\n      dup4\n      dup2\n      mstore\n      0x20\n      add\n      dup3\n      dup2\n      mstore\n      0x20\n      add\n      swap3\n      pop\n      pop\n      pop\n      mload(0x40)\n        /* \"--CODEGEN--\":49:53   */\n      0x20\n        /* \"--CODEGEN--\":39:46   */\n      dup2\n        /* \"--CODEGEN--\":30:37   */\n      dup4\n        /* \"--CODEGEN--\":26:47   */\n      sub\n        /* \"--CODEGEN--\":22:54   */\n      sub\n        /* \"--CODEGEN--\":13:20   */\n      dup2\n        /* \"--CODEGEN--\":6:55   */\n      mstore\n        /* \"contracts/polygonUsdt/Usdt-all-openzeppelin.sol\":44599:44662  abi.encodePacked(\"\\x19\\x01\", getDomainSeperator(), messageHash) */\n      swap1\n      0x40\n      mstore\n        /* \"contracts/polygonUsdt/Usdt-all-openzeppelin.sol\":44572:44676  keccak256(... */\n      dup1\n      mload\n      swap1\n      0x20\n      add\n      keccak256\n        /* \"contracts/polygonUsdt/Usdt-all-openzeppelin.sol\":44553:44676  return... */\n      swap1\n      pop\n        /* \"contracts/polygonUsdt/Usdt-all-openzeppelin.sol\":44434:44683  function toTypedMessageHash(bytes32 messageHash)... */\n      swap2\n      swap1\n      pop\n      jump\t// out\n        /* \"contracts/polygonUsdt/Usdt-all-openzeppelin.sol\":26408:26500  function _beforeTokenTransfer(address from, address to, uint256 amount) internal virtual { } */\n    tag_351:\n      pop\n      pop\n      pop\n      jump\t// out\n        /* \"contracts/polygonUsdt/Usdt-all-openzeppelin.sol\":5183:5317  function sub(uint256 a, uint256 b) internal pure returns (uint256) {... */\n    tag_365:\n        /* \"contracts/polygonUsdt/Usdt-all-openzeppelin.sol\":5241:5248  uint256 */\n      0x00\n        /* \"contracts/polygonUsdt/Usdt-all-openzeppelin.sol\":5267:5310  sub(a, b, \"SafeMath: subtraction overflow\") */\n      tag_417\n        /* \"contracts/polygonUsdt/Usdt-all-openzeppelin.sol\":5271:5272  a */\n      dup4\n        /* \"contracts/polygonUsdt/Usdt-all-openzeppelin.sol\":5274:5275  b */\n      dup4\n        /* \"contracts/polygonUsdt/Usdt-all-openzeppelin.sol\":5267:5310  sub(a, b, \"SafeMath: subtraction overflow\") */\n      mload(0x40)\n      dup1\n      0x40\n      add\n      0x40\n      mstore\n      dup1\n      0x1e\n      dup2\n      mstore\n      0x20\n      add\n      0x536166654d6174683a207375627472616374696f6e206f766572666c6f770000\n      dup2\n      mstore\n      pop\n        /* \"contracts/polygonUsdt/Usdt-all-openzeppelin.sol\":5267:5270  sub */\n      tag_239\n        /* \"contracts/polygonUsdt/Usdt-all-openzeppelin.sol\":5267:5310  sub(a, b, \"SafeMath: subtraction overflow\") */\n      jump\t// in\n    tag_417:\n        /* \"contracts/polygonUsdt/Usdt-all-openzeppelin.sol\":5260:5310  return sub(a, b, \"SafeMath: subtraction overflow\") */\n      swap1\n      pop\n        /* \"contracts/polygonUsdt/Usdt-all-openzeppelin.sol\":5183:5317  function sub(uint256 a, uint256 b) internal pure returns (uint256) {... */\n      swap3\n      swap2\n      pop\n      pop\n      jump\t// out\n        /* \"contracts/polygonUsdt/Usdt-all-openzeppelin.sol\":31426:31567  function add(AddressSet storage set, address value) internal returns (bool) {... */\n    tag_368:\n        /* \"contracts/polygonUsdt/Usdt-all-openzeppelin.sol\":31496:31500  bool */\n      0x00\n        /* \"contracts/polygonUsdt/Usdt-all-openzeppelin.sol\":31519:31560  _add(set._inner, bytes32(uint256(value))) */\n      tag_419\n        /* \"contracts/polygonUsdt/Usdt-all-openzeppelin.sol\":31524:31527  set */\n      dup4\n        /* \"contracts/polygonUsdt/Usdt-all-openzeppelin.sol\":31524:31534  set._inner */\n      0x00\n      add\n        /* \"contracts/polygonUsdt/Usdt-all-openzeppelin.sol\":31552:31557  value */\n      dup4\n        /* \"contracts/polygonUsdt/Usdt-all-openzeppelin.sol\":31544:31558  uint256(value) */\n      0xffffffffffffffffffffffffffffffffffffffff\n      and\n        /* \"contracts/polygonUsdt/Usdt-all-openzeppelin.sol\":31536:31559  bytes32(uint256(value)) */\n      0x00\n      shl\n        /* \"contracts/polygonUsdt/Usdt-all-openzeppelin.sol\":31519:31523  _add */\n      tag_420\n        /* \"contracts/polygonUsdt/Usdt-all-openzeppelin.sol\":31519:31560  _add(set._inner, bytes32(uint256(value))) */\n      jump\t// in\n    tag_419:\n        /* \"contracts/polygonUsdt/Usdt-all-openzeppelin.sol\":31512:31560  return _add(set._inner, bytes32(uint256(value))) */\n      swap1\n      pop\n        /* \"contracts/polygonUsdt/Usdt-all-openzeppelin.sol\":31426:31567  function add(AddressSet storage set, address value) internal returns (bool) {... */\n      swap3\n      swap2\n      pop\n      pop\n      jump\t// out\n        /* \"contracts/polygonUsdt/Usdt-all-openzeppelin.sol\":31735:31882  function remove(AddressSet storage set, address value) internal returns (bool) {... */\n    tag_373:\n        /* \"contracts/polygonUsdt/Usdt-all-openzeppelin.sol\":31808:31812  bool */\n      0x00\n        /* \"contracts/polygonUsdt/Usdt-all-openzeppelin.sol\":31831:31875  _remove(set._inner, bytes32(uint256(value))) */\n      tag_422\n        /* \"contracts/polygonUsdt/Usdt-all-openzeppelin.sol\":31839:31842  set */\n      dup4\n        /* \"contracts/polygonUsdt/Usdt-all-openzeppelin.sol\":31839:31849  set._inner */\n      0x00\n      add\n        /* \"contracts/polygonUsdt/Usdt-all-openzeppelin.sol\":31867:31872  value */\n      dup4\n        /* \"contracts/polygonUsdt/Usdt-all-openzeppelin.sol\":31859:31873  uint256(value) */\n      0xffffffffffffffffffffffffffffffffffffffff\n      and\n        /* \"contracts/polygonUsdt/Usdt-all-openzeppelin.sol\":31851:31874  bytes32(uint256(value)) */\n      0x00\n      shl\n        /* \"contracts/polygonUsdt/Usdt-all-openzeppelin.sol\":31831:31838  _remove */\n      tag_423\n        /* \"contracts/polygonUsdt/Usdt-all-openzeppelin.sol\":31831:31875  _remove(set._inner, bytes32(uint256(value))) */\n      jump\t// in\n    tag_422:\n        /* \"contracts/polygonUsdt/Usdt-all-openzeppelin.sol\":31824:31875  return _remove(set._inner, bytes32(uint256(value))) */\n      swap1\n      pop\n        /* \"contracts/polygonUsdt/Usdt-all-openzeppelin.sol\":31735:31882  function remove(AddressSet storage set, address value) internal returns (bool) {... */\n      swap3\n      swap2\n      pop\n      pop\n      jump\t// out\n        /* \"contracts/polygonUsdt/Usdt-all-openzeppelin.sol\":30985:31186  function _at(Set storage set, uint256 index) private view returns (bytes32) {... */\n    tag_383:\n        /* \"contracts/polygonUsdt/Usdt-all-openzeppelin.sol\":31052:31059  bytes32 */\n      0x00\n        /* \"contracts/polygonUsdt/Usdt-all-openzeppelin.sol\":31100:31105  index */\n      dup2\n        /* \"contracts/polygonUsdt/Usdt-all-openzeppelin.sol\":31079:31082  set */\n      dup4\n        /* \"contracts/polygonUsdt/Usdt-all-openzeppelin.sol\":31079:31090  set._values */\n      0x00\n      add\n        /* \"contracts/polygonUsdt/Usdt-all-openzeppelin.sol\":31079:31097  set._values.length */\n      dup1\n      sload\n      swap1\n      pop\n        /* \"contracts/polygonUsdt/Usdt-all-openzeppelin.sol\":31079:31105  set._values.length > index */\n      gt\n        /* \"contracts/polygonUsdt/Usdt-all-openzeppelin.sol\":31071:31144  require(set._values.length > index, \"EnumerableSet: index out of bounds\") */\n      tag_425\n      jumpi\n      mload(0x40)\n      0x08c379a000000000000000000000000000000000000000000000000000000000\n      dup2\n      mstore\n      0x04\n      add\n      dup1\n      dup1\n      0x20\n      add\n      dup3\n      dup2\n      sub\n      dup3\n      mstore\n      0x22\n      dup2\n      mstore\n      0x20\n      add\n      dup1\n      data_045d6834e6193a687012a3ad777f612279e549b6945364d9d2324f48610d3cbb\n      0x22\n      swap2\n      codecopy\n      0x40\n      add\n      swap2\n      pop\n      pop\n      mload(0x40)\n      dup1\n      swap2\n      sub\n      swap1\n      revert\n    tag_425:\n        /* \"contracts/polygonUsdt/Usdt-all-openzeppelin.sol\":31161:31164  set */\n      dup3\n        /* \"contracts/polygonUsdt/Usdt-all-openzeppelin.sol\":31161:31172  set._values */\n      0x00\n      add\n        /* \"contracts/polygonUsdt/Usdt-all-openzeppelin.sol\":31173:31178  index */\n      dup3\n        /* \"contracts/polygonUsdt/Usdt-all-openzeppelin.sol\":31161:31179  set._values[index] */\n      dup2\n      sload\n      dup2\n      lt\n      tag_426\n      jumpi\n      invalid\n    tag_426:\n      swap1\n      0x00\n      mstore\n      keccak256(0x00, 0x20)\n      add\n      sload\n        /* \"contracts/polygonUsdt/Usdt-all-openzeppelin.sol\":31154:31179  return set._values[index] */\n      swap1\n      pop\n        /* \"contracts/polygonUsdt/Usdt-all-openzeppelin.sol\":30985:31186  function _at(Set storage set, uint256 index) private view returns (bytes32) {... */\n      swap3\n      swap2\n      pop\n      pop\n      jump\t// out\n        /* \"contracts/polygonUsdt/Usdt-all-openzeppelin.sol\":30338:30465  function _contains(Set storage set, bytes32 value) private view returns (bool) {... */\n    tag_386:\n        /* \"contracts/polygonUsdt/Usdt-all-openzeppelin.sol\":30411:30415  bool */\n      0x00\n        /* \"contracts/polygonUsdt/Usdt-all-openzeppelin.sol\":30457:30458  0 */\n      dup1\n        /* \"contracts/polygonUsdt/Usdt-all-openzeppelin.sol\":30434:30437  set */\n      dup4\n        /* \"contracts/polygonUsdt/Usdt-all-openzeppelin.sol\":30434:30446  set._indexes */\n      0x01\n      add\n        /* \"contracts/polygonUsdt/Usdt-all-openzeppelin.sol\":30434:30453  set._indexes[value] */\n      0x00\n        /* \"contracts/polygonUsdt/Usdt-all-openzeppelin.sol\":30447:30452  value */\n      dup5\n        /* \"contracts/polygonUsdt/Usdt-all-openzeppelin.sol\":30434:30453  set._indexes[value] */\n      dup2\n      mstore\n      0x20\n      add\n      swap1\n      dup2\n      mstore\n      0x20\n      add\n      0x00\n      keccak256\n      sload\n        /* \"contracts/polygonUsdt/Usdt-all-openzeppelin.sol\":30434:30458  set._indexes[value] != 0 */\n      eq\n      iszero\n        /* \"contracts/polygonUsdt/Usdt-all-openzeppelin.sol\":30427:30458  return set._indexes[value] != 0 */\n      swap1\n      pop\n        /* \"contracts/polygonUsdt/Usdt-all-openzeppelin.sol\":30338:30465  function _contains(Set storage set, bytes32 value) private view returns (bool) {... */\n      swap3\n      swap2\n      pop\n      pop\n      jump\t// out\n        /* \"contracts/polygonUsdt/Usdt-all-openzeppelin.sol\":30546:30653  function _length(Set storage set) private view returns (uint256) {... */\n    tag_389:\n        /* \"contracts/polygonUsdt/Usdt-all-openzeppelin.sol\":30602:30609  uint256 */\n      0x00\n        /* \"contracts/polygonUsdt/Usdt-all-openzeppelin.sol\":30628:30631  set */\n      dup2\n        /* \"contracts/polygonUsdt/Usdt-all-openzeppelin.sol\":30628:30639  set._values */\n      0x00\n      add\n        /* \"contracts/polygonUsdt/Usdt-all-openzeppelin.sol\":30628:30646  set._values.length */\n      dup1\n      sload\n      swap1\n      pop\n        /* \"contracts/polygonUsdt/Usdt-all-openzeppelin.sol\":30621:30646  return set._values.length */\n      swap1\n      pop\n        /* \"contracts/polygonUsdt/Usdt-all-openzeppelin.sol\":30546:30653  function _length(Set storage set) private view returns (uint256) {... */\n      swap2\n      swap1\n      pop\n      jump\t// out\n        /* \"contracts/polygonUsdt/Usdt-all-openzeppelin.sol\":28173:28577  function _add(Set storage set, bytes32 value) private returns (bool) {... */\n    tag_420:\n        /* \"contracts/polygonUsdt/Usdt-all-openzeppelin.sol\":28236:28240  bool */\n      0x00\n        /* \"contracts/polygonUsdt/Usdt-all-openzeppelin.sol\":28257:28278  _contains(set, value) */\n      tag_431\n        /* \"contracts/polygonUsdt/Usdt-all-openzeppelin.sol\":28267:28270  set */\n      dup4\n        /* \"contracts/polygonUsdt/Usdt-all-openzeppelin.sol\":28272:28277  value */\n      dup4\n        /* \"contracts/polygonUsdt/Usdt-all-openzeppelin.sol\":28257:28266  _contains */\n      tag_386\n        /* \"contracts/polygonUsdt/Usdt-all-openzeppelin.sol\":28257:28278  _contains(set, value) */\n      jump\t// in\n    tag_431:\n        /* \"contracts/polygonUsdt/Usdt-all-openzeppelin.sol\":28252:28571  if (!_contains(set, value)) {... */\n      tag_432\n      jumpi\n        /* \"contracts/polygonUsdt/Usdt-all-openzeppelin.sol\":28294:28297  set */\n      dup3\n        /* \"contracts/polygonUsdt/Usdt-all-openzeppelin.sol\":28294:28305  set._values */\n      0x00\n      add\n        /* \"contracts/polygonUsdt/Usdt-all-openzeppelin.sol\":28311:28316  value */\n      dup3\n        /* \"contracts/polygonUsdt/Usdt-all-openzeppelin.sol\":28294:28317  set._values.push(value) */\n      swap1\n      dup1\n        /* \"--CODEGEN--\":39:40   */\n      0x01\n        /* \"--CODEGEN--\":33:36   */\n      dup2\n        /* \"--CODEGEN--\":27:37   */\n      sload\n        /* \"--CODEGEN--\":23:41   */\n      add\n        /* \"--CODEGEN--\":57:67   */\n      dup1\n        /* \"--CODEGEN--\":52:55   */\n      dup3\n        /* \"--CODEGEN--\":45:68   */\n      sstore\n        /* \"--CODEGEN--\":79:89   */\n      dup1\n        /* \"--CODEGEN--\":72:89   */\n      swap2\n      pop\n        /* \"--CODEGEN--\":0:93   */\n      pop\n        /* \"contracts/polygonUsdt/Usdt-all-openzeppelin.sol\":28294:28317  set._values.push(value) */\n      0x01\n      swap1\n      sub\n      swap1\n      0x00\n      mstore\n      keccak256(0x00, 0x20)\n      add\n      0x00\n      swap1\n      swap2\n      swap1\n      swap2\n      swap1\n      swap2\n      pop\n      sstore\n        /* \"contracts/polygonUsdt/Usdt-all-openzeppelin.sol\":28474:28477  set */\n      dup3\n        /* \"contracts/polygonUsdt/Usdt-all-openzeppelin.sol\":28474:28485  set._values */\n      0x00\n      add\n        /* \"contracts/polygonUsdt/Usdt-all-openzeppelin.sol\":28474:28492  set._values.length */\n      dup1\n      sload\n      swap1\n      pop\n        /* \"contracts/polygonUsdt/Usdt-all-openzeppelin.sol\":28452:28455  set */\n      dup4\n        /* \"contracts/polygonUsdt/Usdt-all-openzeppelin.sol\":28452:28464  set._indexes */\n      0x01\n      add\n        /* \"contracts/polygonUsdt/Usdt-all-openzeppelin.sol\":28452:28471  set._indexes[value] */\n      0x00\n        /* \"contracts/polygonUsdt/Usdt-all-openzeppelin.sol\":28465:28470  value */\n      dup5\n        /* \"contracts/polygonUsdt/Usdt-all-openzeppelin.sol\":28452:28471  set._indexes[value] */\n      dup2\n      mstore\n      0x20\n      add\n      swap1\n      dup2\n      mstore\n      0x20\n      add\n      0x00\n      keccak256\n        /* \"contracts/polygonUsdt/Usdt-all-openzeppelin.sol\":28452:28492  set._indexes[value] = set._values.length */\n      dup2\n      swap1\n      sstore\n      pop\n        /* \"contracts/polygonUsdt/Usdt-all-openzeppelin.sol\":28513:28517  true */\n      0x01\n        /* \"contracts/polygonUsdt/Usdt-all-openzeppelin.sol\":28506:28517  return true */\n      swap1\n      pop\n      jump(tag_430)\n        /* \"contracts/polygonUsdt/Usdt-all-openzeppelin.sol\":28252:28571  if (!_contains(set, value)) {... */\n    tag_432:\n        /* \"contracts/polygonUsdt/Usdt-all-openzeppelin.sol\":28555:28560  false */\n      0x00\n        /* \"contracts/polygonUsdt/Usdt-all-openzeppelin.sol\":28548:28560  return false */\n      swap1\n      pop\n        /* \"contracts/polygonUsdt/Usdt-all-openzeppelin.sol\":28173:28577  function _add(Set storage set, bytes32 value) private returns (bool) {... */\n    tag_430:\n      swap3\n      swap2\n      pop\n      pop\n      jump\t// out\n        /* \"contracts/polygonUsdt/Usdt-all-openzeppelin.sol\":28745:30257  function _remove(Set storage set, bytes32 value) private returns (bool) {... */\n    tag_423:\n        /* \"contracts/polygonUsdt/Usdt-all-openzeppelin.sol\":28811:28815  bool */\n      0x00\n        /* \"contracts/polygonUsdt/Usdt-all-openzeppelin.sol\":28927:28945  uint256 valueIndex */\n      dup1\n        /* \"contracts/polygonUsdt/Usdt-all-openzeppelin.sol\":28948:28951  set */\n      dup4\n        /* \"contracts/polygonUsdt/Usdt-all-openzeppelin.sol\":28948:28960  set._indexes */\n      0x01\n      add\n        /* \"contracts/polygonUsdt/Usdt-all-openzeppelin.sol\":28948:28967  set._indexes[value] */\n      0x00\n        /* \"contracts/polygonUsdt/Usdt-all-openzeppelin.sol\":28961:28966  value */\n      dup5\n        /* \"contracts/polygonUsdt/Usdt-all-openzeppelin.sol\":28948:28967  set._indexes[value] */\n      dup2\n      mstore\n      0x20\n      add\n      swap1\n      dup2\n      mstore\n      0x20\n      add\n      0x00\n      keccak256\n      sload\n        /* \"contracts/polygonUsdt/Usdt-all-openzeppelin.sol\":28927:28967  uint256 valueIndex = set._indexes[value] */\n      swap1\n      pop\n        /* \"contracts/polygonUsdt/Usdt-all-openzeppelin.sol\":28996:28997  0 */\n      0x00\n        /* \"contracts/polygonUsdt/Usdt-all-openzeppelin.sol\":28982:28992  valueIndex */\n      dup2\n        /* \"contracts/polygonUsdt/Usdt-all-openzeppelin.sol\":28982:28997  valueIndex != 0 */\n      eq\n        /* \"contracts/polygonUsdt/Usdt-all-openzeppelin.sol\":28978:30251  if (valueIndex != 0) { // Equivalent to contains(set, value)... */\n      tag_436\n      jumpi\n        /* \"contracts/polygonUsdt/Usdt-all-openzeppelin.sol\":29339:29360  uint256 toDeleteIndex */\n      0x00\n        /* \"contracts/polygonUsdt/Usdt-all-openzeppelin.sol\":29376:29377  1 */\n      0x01\n        /* \"contracts/polygonUsdt/Usdt-all-openzeppelin.sol\":29363:29373  valueIndex */\n      dup3\n        /* \"contracts/polygonUsdt/Usdt-all-openzeppelin.sol\":29363:29377  valueIndex - 1 */\n      sub\n        /* \"contracts/polygonUsdt/Usdt-all-openzeppelin.sol\":29339:29377  uint256 toDeleteIndex = valueIndex - 1 */\n      swap1\n      pop\n        /* \"contracts/polygonUsdt/Usdt-all-openzeppelin.sol\":29391:29408  uint256 lastIndex */\n      0x00\n        /* \"contracts/polygonUsdt/Usdt-all-openzeppelin.sol\":29432:29433  1 */\n      0x01\n        /* \"contracts/polygonUsdt/Usdt-all-openzeppelin.sol\":29411:29414  set */\n      dup7\n        /* \"contracts/polygonUsdt/Usdt-all-openzeppelin.sol\":29411:29422  set._values */\n      0x00\n      add\n        /* \"contracts/polygonUsdt/Usdt-all-openzeppelin.sol\":29411:29429  set._values.length */\n      dup1\n      sload\n      swap1\n      pop\n        /* \"contracts/polygonUsdt/Usdt-all-openzeppelin.sol\":29411:29433  set._values.length - 1 */\n      sub\n        /* \"contracts/polygonUsdt/Usdt-all-openzeppelin.sol\":29391:29433  uint256 lastIndex = set._values.length - 1 */\n      swap1\n      pop\n        /* \"contracts/polygonUsdt/Usdt-all-openzeppelin.sol\":29673:29690  bytes32 lastvalue */\n      0x00\n        /* \"contracts/polygonUsdt/Usdt-all-openzeppelin.sol\":29693:29696  set */\n      dup7\n        /* \"contracts/polygonUsdt/Usdt-all-openzeppelin.sol\":29693:29704  set._values */\n      0x00\n      add\n        /* \"contracts/polygonUsdt/Usdt-all-openzeppelin.sol\":29705:29714  lastIndex */\n      dup3\n        /* \"contracts/polygonUsdt/Usdt-all-openzeppelin.sol\":29693:29715  set._values[lastIndex] */\n      dup2\n      sload\n      dup2\n      lt\n      tag_437\n      jumpi\n      invalid\n    tag_437:\n      swap1\n      0x00\n      mstore\n      keccak256(0x00, 0x20)\n      add\n      sload\n        /* \"contracts/polygonUsdt/Usdt-all-openzeppelin.sol\":29673:29715  bytes32 lastvalue = set._values[lastIndex] */\n      swap1\n      pop\n        /* \"contracts/polygonUsdt/Usdt-all-openzeppelin.sol\":29836:29845  lastvalue */\n      dup1\n        /* \"contracts/polygonUsdt/Usdt-all-openzeppelin.sol\":29807:29810  set */\n      dup8\n        /* \"contracts/polygonUsdt/Usdt-all-openzeppelin.sol\":29807:29818  set._values */\n      0x00\n      add\n        /* \"contracts/polygonUsdt/Usdt-all-openzeppelin.sol\":29819:29832  toDeleteIndex */\n      dup5\n        /* \"contracts/polygonUsdt/Usdt-all-openzeppelin.sol\":29807:29833  set._values[toDeleteIndex] */\n      dup2\n      sload\n      dup2\n      lt\n      tag_439\n      jumpi\n      invalid\n    tag_439:\n      swap1\n      0x00\n      mstore\n      keccak256(0x00, 0x20)\n      add\n        /* \"contracts/polygonUsdt/Usdt-all-openzeppelin.sol\":29807:29845  set._values[toDeleteIndex] = lastvalue */\n      dup2\n      swap1\n      sstore\n      pop\n        /* \"contracts/polygonUsdt/Usdt-all-openzeppelin.sol\":29953:29954  1 */\n      0x01\n        /* \"contracts/polygonUsdt/Usdt-all-openzeppelin.sol\":29937:29950  toDeleteIndex */\n      dup4\n        /* \"contracts/polygonUsdt/Usdt-all-openzeppelin.sol\":29937:29954  toDeleteIndex + 1 */\n      add\n        /* \"contracts/polygonUsdt/Usdt-all-openzeppelin.sol\":29911:29914  set */\n      dup8\n        /* \"contracts/polygonUsdt/Usdt-all-openzeppelin.sol\":29911:29923  set._indexes */\n      0x01\n      add\n        /* \"contracts/polygonUsdt/Usdt-all-openzeppelin.sol\":29911:29934  set._indexes[lastvalue] */\n      0x00\n        /* \"contracts/polygonUsdt/Usdt-all-openzeppelin.sol\":29924:29933  lastvalue */\n      dup4\n        /* \"contracts/polygonUsdt/Usdt-all-openzeppelin.sol\":29911:29934  set._indexes[lastvalue] */\n      dup2\n      mstore\n      0x20\n      add\n      swap1\n      dup2\n      mstore\n      0x20\n      add\n      0x00\n      keccak256\n        /* \"contracts/polygonUsdt/Usdt-all-openzeppelin.sol\":29911:29954  set._indexes[lastvalue] = toDeleteIndex + 1 */\n      dup2\n      swap1\n      sstore\n      pop\n        /* \"contracts/polygonUsdt/Usdt-all-openzeppelin.sol\":30060:30063  set */\n      dup7\n        /* \"contracts/polygonUsdt/Usdt-all-openzeppelin.sol\":30060:30071  set._values */\n      0x00\n      add\n        /* \"contracts/polygonUsdt/Usdt-all-openzeppelin.sol\":30060:30077  set._values.pop() */\n      dup1\n      sload\n      dup1\n      tag_441\n      jumpi\n      invalid\n    tag_441:\n      0x01\n      swap1\n      sub\n      dup2\n      dup2\n      swap1\n      0x00\n      mstore\n      keccak256(0x00, 0x20)\n      add\n      0x00\n      swap1\n      sstore\n      swap1\n      sstore\n        /* \"contracts/polygonUsdt/Usdt-all-openzeppelin.sol\":30152:30155  set */\n      dup7\n        /* \"contracts/polygonUsdt/Usdt-all-openzeppelin.sol\":30152:30164  set._indexes */\n      0x01\n      add\n        /* \"contracts/polygonUsdt/Usdt-all-openzeppelin.sol\":30152:30171  set._indexes[value] */\n      0x00\n        /* \"contracts/polygonUsdt/Usdt-all-openzeppelin.sol\":30165:30170  value */\n      dup8\n        /* \"contracts/polygonUsdt/Usdt-all-openzeppelin.sol\":30152:30171  set._indexes[value] */\n      dup2\n      mstore\n      0x20\n      add\n      swap1\n      dup2\n      mstore\n      0x20\n      add\n      0x00\n      keccak256\n        /* \"contracts/polygonUsdt/Usdt-all-openzeppelin.sol\":30145:30171  delete set._indexes[value] */\n      0x00\n      swap1\n      sstore\n        /* \"contracts/polygonUsdt/Usdt-all-openzeppelin.sol\":30193:30197  true */\n      0x01\n        /* \"contracts/polygonUsdt/Usdt-all-openzeppelin.sol\":30186:30197  return true */\n      swap5\n      pop\n      pop\n      pop\n      pop\n      pop\n      jump(tag_435)\n        /* \"contracts/polygonUsdt/Usdt-all-openzeppelin.sol\":28978:30251  if (valueIndex != 0) { // Equivalent to contains(set, value)... */\n    tag_436:\n        /* \"contracts/polygonUsdt/Usdt-all-openzeppelin.sol\":30235:30240  false */\n      0x00\n        /* \"contracts/polygonUsdt/Usdt-all-openzeppelin.sol\":30228:30240  return false */\n      swap2\n      pop\n      pop\n        /* \"contracts/polygonUsdt/Usdt-all-openzeppelin.sol\":28745:30257  function _remove(Set storage set, bytes32 value) private returns (bool) {... */\n    tag_435:\n      swap3\n      swap2\n      pop\n      pop\n      jump\t// out\n        /* \"contracts/polygonUsdt/Usdt-all-openzeppelin.sol\":48856:51144  contract UChildERC20 is... */\n    tag_210:\n      mload(0x40)\n      dup1\n      0x60\n      add\n      0x40\n      mstore\n      dup1\n      0x00\n      dup2\n      mstore\n      0x20\n      add\n      and(0xffffffffffffffffffffffffffffffffffffffff, 0x00)\n      dup2\n      mstore\n      0x20\n      add\n      0x60\n      dup2\n      mstore\n      pop\n      swap1\n      jump\t// out\n    tag_378:\n      dup3\n      dup1\n      sload\n      0x01\n      dup2\n      0x01\n      and\n      iszero\n      0x0100\n      mul\n      sub\n      and\n      0x02\n      swap1\n      div\n      swap1\n      0x00\n      mstore\n      keccak256(0x00, 0x20)\n      swap1\n      0x1f\n      add\n      0x20\n      swap1\n      div\n      dup2\n      add\n      swap3\n      dup3\n      0x1f\n      lt\n      tag_445\n      jumpi\n      dup1\n      mload\n      not(0xff)\n      and\n      dup4\n      dup1\n      add\n      or\n      dup6\n      sstore\n      jump(tag_444)\n    tag_445:\n      dup3\n      dup1\n      add\n      0x01\n      add\n      dup6\n      sstore\n      dup3\n      iszero\n      tag_444\n      jumpi\n      swap2\n      dup3\n      add\n    tag_446:\n      dup3\n      dup2\n      gt\n      iszero\n      tag_447\n      jumpi\n      dup3\n      mload\n      dup3\n      sstore\n      swap2\n      0x20\n      add\n      swap2\n      swap1\n      0x01\n      add\n      swap1\n      jump(tag_446)\n    tag_447:\n    tag_444:\n      pop\n      swap1\n      pop\n      tag_448\n      swap2\n      swap1\n      tag_449\n      jump\t// in\n    tag_448:\n      pop\n      swap1\n      jump\t// out\n    tag_449:\n      tag_450\n      swap2\n      swap1\n    tag_451:\n      dup1\n      dup3\n      gt\n      iszero\n      tag_452\n      jumpi\n      0x00\n      dup2\n      0x00\n      swap1\n      sstore\n      pop\n      0x01\n      add\n      jump(tag_451)\n    tag_452:\n      pop\n      swap1\n      jump\n    tag_450:\n      swap1\n      jump\t// out\n    stop\n    data_045d6834e6193a687012a3ad777f612279e549b6945364d9d2324f48610d3cbb 456e756d657261626c655365743a20696e646578206f7574206f6620626f756e6473\n    data_0557e210f7a69a685100a7e4e3d0a7024c546085cee28910fd17d0b081d9516f 45524332303a207472616e7366657220746f20746865207a65726f2061646472657373\n    data_0ba7116025f1ef6b158a2bd2238e617f30e17c9e456917d901086ca4f8ad2811 416363657373436f6e74726f6c3a2073656e646572206d75737420626520616e2061646d696e20746f206772616e74\n    data_149b126e7125232b4200af45303d04fba8b74653b1a295a6a561a528c33fefdd 45524332303a206275726e20616d6f756e7420657863656564732062616c616e6365\n    data_23d10def3caacba2e4042e0c75d44a42d2558aabcf5ce951d0642a8032e1e653 4d6574615472616e73616374696f6e2875696e74323536206e6f6e63652c616464726573732066726f6d2c62797465732066756e6374696f6e5369676e617475726529\n    data_24883cc5fe64ace9d0df1893501ecb93c77180f0ff69cca79affb3c316dc8029 45524332303a20617070726f766520746f20746865207a65726f2061646472657373\n    data_36c25de3e541d5d970f66e4210d728721220fff5c077cc6cd008b3a0c62adab7 454950373132446f6d61696e28737472696e67206e616d652c737472696e672076657273696f6e2c6164647265737320766572696679696e67436f6e74726163742c627974657333322073616c7429\n    data_4107e8a8b9e94bf8ff83080ddec1c0bffe897ebc2241b89d44f66b3d274088b6 45524332303a207472616e7366657220616d6f756e7420657863656564732062616c616e6365\n    data_64344570eab7406ca49d34d38bf2b2496dfda914405390c5057c8b0aabf798a3 416363657373436f6e74726f6c3a2073656e646572206d75737420626520616e2061646d696e20746f207265766f6b65\n    data_677c3aff34a7c44a5c4470b26f7bc0d31cbb2b3473b145bc518ea22bfc186273 4e61746976654d6574615472616e73616374696f6e3a20494e56414c49445f5349474e4552\n    data_974d1b4421da69cc60b481194f0dad36a5bb4e23da810da7a7fb30cdba178330 45524332303a207472616e7366657220616d6f756e74206578636565647320616c6c6f77616e6365\n    data_a1a5cd4826a8c5c8495a3bcd7f31593c1559fab8207afc024ed2a3f3fa2bbbda 5369676e657220616e64207369676e617475726520646f206e6f74206d61746368\n    data_b16788493b576042bb52c50ed56189e0b250db113c7bfb1c3897d25cf9632d7f 45524332303a206275726e2066726f6d20746865207a65726f2061646472657373\n    data_baecc556b46f4ed0f2b4cb599d60785ac8563dd2dc0a5bf12edea1c39e5e1fea 45524332303a207472616e736665722066726f6d20746865207a65726f2061646472657373\n    data_c953f4879035ed60e766b34720f656aab5c697b141d924c283124ecedb91c208 45524332303a20617070726f76652066726f6d20746865207a65726f2061646472657373\n    data_f8b476f7d28209d77d4a4ac1fe36b9f8259aa1bb6bddfa6e89de7e51615cf8a8 45524332303a2064656372656173656420616c6c6f77616e63652062656c6f77207a65726f\n    data_fb06fa8ff2141e8ed74502f6792273793f25f0e9d3cf15344f3f5a0d4948fd4b 416363657373436f6e74726f6c3a2063616e206f6e6c792072656e6f756e636520726f6c657320666f722073656c66\n\n    auxdata: 0xa2646970667358221220022847b15fd8bc298c60bc7b8605b4870539512391731e9d8669c921ae90a02264736f6c63430006060033\n}\n",
				"bytecode": {
					"linkReferences": {},
					"object": "60806040526000600860006101000a81548160ff0219169083151502179055503480156200002c57600080fd5b506040518060200160405280600081525060405180602001604052806000815250816003908051906020019062000065929190620000a3565b5080600490805190602001906200007e929190620000a3565b506012600560006101000a81548160ff021916908360ff160217905550505062000152565b828054600181600116156101000203166002900490600052602060002090601f016020900481019282601f10620000e657805160ff191683800117855562000117565b8280016001018555821562000117579182015b8281111562000116578251825591602001919060010190620000f9565b5b5090506200012691906200012a565b5090565b6200014f91905b808211156200014b57600081600090555060010162000131565b5090565b90565b6139c780620001626000396000f3fe6080604052600436106101ee5760003560e01c8063395093511161010d578063a217fddf116100a0578063ca15c8731161006f578063ca15c87314610d7d578063cf2c52cb14610dcc578063d547741f14610e72578063dd62ed3e14610ecd578063de7ea79d14610f52576101ee565b8063a217fddf14610c41578063a3b0b5a314610c6c578063a457c2d714610c97578063a9059cbb14610d0a576101ee565b80638acfcaf7116100dc5780638acfcaf714610a8e5780639010d07c14610ab957806391d1485414610b3e57806395d89b4114610bb1576101ee565b806339509351146109055780635353a2d814610978578063626381a0146109fe57806370a0823114610a29576101ee565b806323b872dd116101855780632f2ff15d116101545780632f2ff15d146107f3578063313ce5671461084e5780633408e4701461087f57806336568abe146108aa576101ee565b806323b872dd14610671578063248a9ca3146107045780632d0335ab146107535780632e1a7d4d146107b8576101ee565b80630dd7531a116101c15780630dd7531a146104fb5780630f7e59701461058b57806318160ddd1461061b57806320379ee514610646576101ee565b806306fdde03146101f3578063095ea7b3146102835780630b54817c146102f65780630c53c51c14610386575b600080fd5b3480156101ff57600080fd5b5061020861105a565b6040518080602001828103825283818151815260200191508051906020019080838360005b8381101561024857808201518184015260208101905061022d565b50505050905090810190601f1680156102755780820380516001836020036101000a031916815260200191505b509250505060405180910390f35b34801561028f57600080fd5b506102dc600480360360408110156102a657600080fd5b81019080803573ffffffffffffffffffffffffffffffffffffffff169060200190929190803590602001909291905050506110fc565b604051808215151515815260200191505060405180910390f35b34801561030257600080fd5b5061030b61111a565b6040518080602001828103825283818151815260200191508051906020019080838360005b8381101561034b578082015181840152602081019050610330565b50505050905090810190601f1680156103785780820380516001836020036101000a031916815260200191505b509250505060405180910390f35b610480600480360360a081101561039c57600080fd5b81019080803573ffffffffffffffffffffffffffffffffffffffff169060200190929190803590602001906401000000008111156103d957600080fd5b8201836020820111156103eb57600080fd5b8035906020019184600183028401116401000000008311171561040d57600080fd5b91908080601f016020809104026020016040519081016040528093929190818152602001838380828437600081840152601f19601f8201169050808301925050505050505091929192908035906020019092919080359060200190929190803560ff169060200190929190505050611153565b6040518080602001828103825283818151815260200191508051906020019080838360005b838110156104c05780820151818401526020810190506104a5565b50505050905090810190601f1680156104ed5780820380516001836020036101000a031916815260200191505b509250505060405180910390f35b34801561050757600080fd5b506105106115a9565b6040518080602001828103825283818151815260200191508051906020019080838360005b83811015610550578082015181840152602081019050610535565b50505050905090810190601f16801561057d5780820380516001836020036101000a031916815260200191505b509250505060405180910390f35b34801561059757600080fd5b506105a06115e2565b6040518080602001828103825283818151815260200191508051906020019080838360005b838110156105e05780820151818401526020810190506105c5565b50505050905090810190601f16801561060d5780820380516001836020036101000a031916815260200191505b509250505060405180910390f35b34801561062757600080fd5b5061063061161b565b6040518082815260200191505060405180910390f35b34801561065257600080fd5b5061065b611625565b6040518082815260200191505060405180910390f35b34801561067d57600080fd5b506106ea6004803603606081101561069457600080fd5b81019080803573ffffffffffffffffffffffffffffffffffffffff169060200190929190803573ffffffffffffffffffffffffffffffffffffffff1690602001909291908035906020019092919050505061162f565b604051808215151515815260200191505060405180910390f35b34801561071057600080fd5b5061073d6004803603602081101561072757600080fd5b8101908080359060200190929190505050611708565b6040518082815260200191505060405180910390f35b34801561075f57600080fd5b506107a26004803603602081101561077657600080fd5b81019080803573ffffffffffffffffffffffffffffffffffffffff169060200190929190505050611728565b6040518082815260200191505060405180910390f35b3480156107c457600080fd5b506107f1600480360360208110156107db57600080fd5b8101908080359060200190929190505050611771565b005b3480156107ff57600080fd5b5061084c6004803603604081101561081657600080fd5b8101908080359060200190929190803573ffffffffffffffffffffffffffffffffffffffff169060200190929190505050611785565b005b34801561085a57600080fd5b5061086361180f565b604051808260ff1660ff16815260200191505060405180910390f35b34801561088b57600080fd5b50610894611826565b6040518082815260200191505060405180910390f35b3480156108b657600080fd5b50610903600480360360408110156108cd57600080fd5b8101908080359060200190929190803573ffffffffffffffffffffffffffffffffffffffff169060200190929190505050611833565b005b34801561091157600080fd5b5061095e6004803603604081101561092857600080fd5b81019080803573ffffffffffffffffffffffffffffffffffffffff169060200190929190803590602001909291905050506118cc565b604051808215151515815260200191505060405180910390f35b34801561098457600080fd5b506109fc6004803603602081101561099b57600080fd5b81019080803590602001906401000000008111156109b857600080fd5b8201836020820111156109ca57600080fd5b803590602001918460018302840111640100000000831117156109ec57600080fd5b909192939192939050505061197f565b005b348015610a0a57600080fd5b50610a13611b2f565b6040518082815260200191505060405180910390f35b348015610a3557600080fd5b50610a7860048036036020811015610a4c57600080fd5b81019080803573ffffffffffffffffffffffffffffffffffffffff169060200190929190505050611b34565b6040518082815260200191505060405180910390f35b348015610a9a57600080fd5b50610aa3611b7c565b6040518082815260200191505060405180910390f35b348015610ac557600080fd5b50610afc60048036036040811015610adc57600080fd5b810190808035906020019092919080359060200190929190505050611b81565b604051808273ffffffffffffffffffffffffffffffffffffffff1673ffffffffffffffffffffffffffffffffffffffff16815260200191505060405180910390f35b348015610b4a57600080fd5b50610b9760048036036040811015610b6157600080fd5b8101908080359060200190929190803573ffffffffffffffffffffffffffffffffffffffff169060200190929190505050611bb3565b604051808215151515815260200191505060405180910390f35b348015610bbd57600080fd5b50610bc6611be5565b6040518080602001828103825283818151815260200191508051906020019080838360005b83811015610c06578082015181840152602081019050610beb565b50505050905090810190601f168015610c335780820380516001836020036101000a031916815260200191505b509250505060405180910390f35b348015610c4d57600080fd5b50610c56611c87565b6040518082815260200191505060405180910390f35b348015610c7857600080fd5b50610c81611c8e565b6040518082815260200191505060405180910390f35b348015610ca357600080fd5b50610cf060048036036040811015610cba57600080fd5b81019080803573ffffffffffffffffffffffffffffffffffffffff16906020019092919080359060200190929190505050611cc7565b604051808215151515815260200191505060405180910390f35b348015610d1657600080fd5b50610d6360048036036040811015610d2d57600080fd5b81019080803573ffffffffffffffffffffffffffffffffffffffff16906020019092919080359060200190929190505050611d94565b604051808215151515815260200191505060405180910390f35b348015610d8957600080fd5b50610db660048036036020811015610da057600080fd5b8101908080359060200190929190505050611db2565b6040518082815260200191505060405180910390f35b348015610dd857600080fd5b50610e7060048036036040811015610def57600080fd5b81019080803573ffffffffffffffffffffffffffffffffffffffff16906020019092919080359060200190640100000000811115610e2c57600080fd5b820183602082011115610e3e57600080fd5b80359060200191846001830284011164010000000083111715610e6057600080fd5b9091929391929390505050611dd9565b005b348015610e7e57600080fd5b50610ecb60048036036040811015610e9557600080fd5b8101908080359060200190929190803573ffffffffffffffffffffffffffffffffffffffff169060200190929190505050611f1c565b005b348015610ed957600080fd5b50610f3c60048036036040811015610ef057600080fd5b81019080803573ffffffffffffffffffffffffffffffffffffffff169060200190929190803573ffffffffffffffffffffffffffffffffffffffff169060200190929190505050611fa6565b6040518082815260200191505060405180910390f35b348015610f5e57600080fd5b5061105860048036036080811015610f7557600080fd5b8101908080359060200190640100000000811115610f9257600080fd5b820183602082011115610fa457600080fd5b80359060200191846001830284011164010000000083111715610fc657600080fd5b909192939192939080359060200190640100000000811115610fe757600080fd5b820183602082011115610ff957600080fd5b8035906020019184600183028401116401000000008311171561101b57600080fd5b9091929391929390803560ff169060200190929190803573ffffffffffffffffffffffffffffffffffffffff16906020019092919050505061202d565b005b606060038054600181600116156101000203166002900480601f0160208091040260200160405190810160405280929190818152602001828054600181600116156101000203166002900480156110f25780601f106110c7576101008083540402835291602001916110f2565b820191906000526020600020905b8154815290600101906020018083116110d557829003601f168201915b5050505050905090565b60006111106111096122a5565b84846122b4565b6001905092915050565b6040518060400160405280600181526020017f890000000000000000000000000000000000000000000000000000000000000081525081565b606061115d6135e9565b6040518060600160405280600a60008a73ffffffffffffffffffffffffffffffffffffffff1673ffffffffffffffffffffffffffffffffffffffff1681526020019081526020016000205481526020018873ffffffffffffffffffffffffffffffffffffffff1681526020018781525090506111dc87828787876124ab565b611231576040517f08c379a00000000000000000000000000000000000000000000000000000000081526004018080602001828103825260218152602001806138b36021913960400191505060405180910390fd5b6112846001600a60008a73ffffffffffffffffffffffffffffffffffffffff1673ffffffffffffffffffffffffffffffffffffffff168152602001908152602001600020546125e290919063ffffffff16565b600a60008973ffffffffffffffffffffffffffffffffffffffff1673ffffffffffffffffffffffffffffffffffffffff168152602001908152602001600020819055507f5845892132946850460bff5a0083f71031bc5bf9aadcd40f1de79423eac9b10b873388604051808473ffffffffffffffffffffffffffffffffffffffff1673ffffffffffffffffffffffffffffffffffffffff1681526020018373ffffffffffffffffffffffffffffffffffffffff1673ffffffffffffffffffffffffffffffffffffffff16815260200180602001828103825283818151815260200191508051906020019080838360005b8381101561138f578082015181840152602081019050611374565b50505050905090810190601f1680156113bc5780820380516001836020036101000a031916815260200191505b5094505050505060405180910390a1600060603073ffffffffffffffffffffffffffffffffffffffff16888a6040516020018083805190602001908083835b6020831061141e57805182526020820191506020810190506020830392506113fb565b6001836020036101000a0380198251168184511680821785525050505050509050018273ffffffffffffffffffffffffffffffffffffffff1673ffffffffffffffffffffffffffffffffffffffff1660601b8152601401925050506040516020818303038152906040526040518082805190602001908083835b602083106114bb5780518252602082019150602081019050602083039250611498565b6001836020036101000a0380198251168184511680821785525050505050509050019150506000604051808303816000865af19150503d806000811461151d576040519150601f19603f3d011682016040523d82523d6000602084013e611522565b606091505b50915091508161159a576040517f08c379a000000000000000000000000000000000000000000000000000000000815260040180806020018281038252601c8152602001807f46756e6374696f6e2063616c6c206e6f74207375636365737366756c0000000081525060200191505060405180910390fd5b80935050505095945050505050565b6040518060400160405280600181526020017f010000000000000000000000000000000000000000000000000000000000000081525081565b6040518060400160405280600181526020017f310000000000000000000000000000000000000000000000000000000000000081525081565b6000600254905090565b6000600954905090565b600061163c84848461266a565b6116fd846116486122a5565b6116f88560405180606001604052806028815260200161388b60289139600160008b73ffffffffffffffffffffffffffffffffffffffff1673ffffffffffffffffffffffffffffffffffffffff16815260200190815260200160002060006116ae6122a5565b73ffffffffffffffffffffffffffffffffffffffff1673ffffffffffffffffffffffffffffffffffffffff1681526020019081526020016000205461292b9092919063ffffffff16565b6122b4565b600190509392505050565b600060066000838152602001908152602001600020600201549050919050565b6000600a60008373ffffffffffffffffffffffffffffffffffffffff1673ffffffffffffffffffffffffffffffffffffffff168152602001908152602001600020549050919050565b61178261177c6122a5565b826129eb565b50565b6117ac60066000848152602001908152602001600020600201546117a76122a5565b611bb3565b611801576040517f08c379a000000000000000000000000000000000000000000000000000000000815260040180806020018281038252602f81526020018061370b602f913960400191505060405180910390fd5b61180b8282612baf565b5050565b6000600560009054906101000a900460ff16905090565b6000804690508091505090565b61183b6122a5565b73ffffffffffffffffffffffffffffffffffffffff168173ffffffffffffffffffffffffffffffffffffffff16146118be576040517f08c379a000000000000000000000000000000000000000000000000000000000815260040180806020018281038252602f815260200180613963602f913960400191505060405180910390fd5b6118c88282612c43565b5050565b60006119756118d96122a5565b8461197085600160006118ea6122a5565b73ffffffffffffffffffffffffffffffffffffffff1673ffffffffffffffffffffffffffffffffffffffff16815260200190815260200160002060008973ffffffffffffffffffffffffffffffffffffffff1673ffffffffffffffffffffffffffffffffffffffff168152602001908152602001600020546125e290919063ffffffff16565b6122b4565b6001905092915050565b6000801b6119948161198f6122a5565b611bb3565b600790611a59576040517f08c379a00000000000000000000000000000000000000000000000000000000081526004018080602001828103825283818154600181600116156101000203166002900481526020019150805460018160011615610100020316600290048015611a4a5780601f10611a1f57610100808354040283529160200191611a4a565b820191906000526020600020905b815481529060010190602001808311611a2d57829003601f168201915b50509250505060405180910390fd5b50611aa783838080601f016020809104026020016040519081016040528093929190818152602001838380828437600081840152601f19601f82011690508083019250505050505050612cd7565b611b2a83838080601f016020809104026020016040519081016040528093929190818152602001838380828437600081840152601f19601f820116905080830192505050505050506040518060400160405280600181526020017f3100000000000000000000000000000000000000000000000000000000000000815250612cf1565b505050565b608981565b60008060008373ffffffffffffffffffffffffffffffffffffffff1673ffffffffffffffffffffffffffffffffffffffff168152602001908152602001600020549050919050565b600181565b6000611bab8260066000868152602001908152602001600020600001612da590919063ffffffff16565b905092915050565b6000611bdd8260066000868152602001908152602001600020600001612dbf90919063ffffffff16565b905092915050565b606060048054600181600116156101000203166002900480601f016020809104026020016040519081016040528092919081815260200182805460018160011615610100020316600290048015611c7d5780601f10611c5257610100808354040283529160200191611c7d565b820191906000526020600020905b815481529060010190602001808311611c6057829003601f168201915b5050505050905090565b6000801b81565b60405180807f4445504f5349544f525f524f4c45000000000000000000000000000000000000815250600e019050604051809103902081565b6000611d8a611cd46122a5565b84611d858560405180606001604052806025815260200161393e6025913960016000611cfe6122a5565b73ffffffffffffffffffffffffffffffffffffffff1673ffffffffffffffffffffffffffffffffffffffff16815260200190815260200160002060008a73ffffffffffffffffffffffffffffffffffffffff1673ffffffffffffffffffffffffffffffffffffffff1681526020019081526020016000205461292b9092919063ffffffff16565b6122b4565b6001905092915050565b6000611da8611da16122a5565b848461266a565b6001905092915050565b6000611dd260066000848152602001908152602001600020600001612def565b9050919050565b60405180807f4445504f5349544f525f524f4c45000000000000000000000000000000000000815250600e0190506040518091039020611e2081611e1b6122a5565b611bb3565b600790611ee5576040517f08c379a00000000000000000000000000000000000000000000000000000000081526004018080602001828103825283818154600181600116156101000203166002900481526020019150805460018160011615610100020316600290048015611ed65780601f10611eab57610100808354040283529160200191611ed6565b820191906000526020600020905b815481529060010190602001808311611eb957829003601f168201915b50509250505060405180910390fd5b50600083836020811015611ef857600080fd5b81019080803590602001909291905050509050611f158582612e04565b5050505050565b611f436006600084815260200190815260200160002060020154611f3e6122a5565b611bb3565b611f98576040517f08c379a00000000000000000000000000000000000000000000000000000000081526004018080602001828103825260308152602001806138366030913960400191505060405180910390fd5b611fa28282612c43565b5050565b6000600160008473ffffffffffffffffffffffffffffffffffffffff1673ffffffffffffffffffffffffffffffffffffffff16815260200190815260200160002060008373ffffffffffffffffffffffffffffffffffffffff1673ffffffffffffffffffffffffffffffffffffffff16815260200190815260200160002054905092915050565b600860009054906101000a900460ff16156120b0576040517f08c379a000000000000000000000000000000000000000000000000000000000815260040180806020018281038252600e8152602001807f616c726561647920696e6974656400000000000000000000000000000000000081525060200191505060405180910390fd5b6120fd86868080601f016020809104026020016040519081016040528093929190818152602001838380828437600081840152601f19601f82011690508083019250505050505050612cd7565b61214a84848080601f016020809104026020016040519081016040528093929190818152602001838380828437600081840152601f19601f82011690508083019250505050505050612fcb565b61215382612fe5565b6121ac848460405160200180807f4368696c640000000000000000000000000000000000000000000000000000008152506005018383808284378083019250505092505050604051602081830303815290604052613003565b6121c06000801b6121bb6122a5565b6130af565b6121ff60405180807f4445504f5349544f525f524f4c45000000000000000000000000000000000000815250600e0190506040518091039020826130af565b61228286868080601f016020809104026020016040519081016040528093929190818152602001838380828437600081840152601f19601f820116905080830192505050505050506040518060400160405280600181526020017f31000000000000000000000000000000000000000000000000000000000000008152506130bd565b6001600860006101000a81548160ff021916908315150217905550505050505050565b60006122af613169565b905090565b600073ffffffffffffffffffffffffffffffffffffffff168373ffffffffffffffffffffffffffffffffffffffff16141561233a576040517f08c379a000000000000000000000000000000000000000000000000000000000815260040180806020018281038252602481526020018061391a6024913960400191505060405180910390fd5b600073ffffffffffffffffffffffffffffffffffffffff168273ffffffffffffffffffffffffffffffffffffffff1614156123c0576040517f08c379a000000000000000000000000000000000000000000000000000000000815260040180806020018281038252602281526020018061379f6022913960400191505060405180910390fd5b80600160008573ffffffffffffffffffffffffffffffffffffffff1673ffffffffffffffffffffffffffffffffffffffff16815260200190815260200160002060008473ffffffffffffffffffffffffffffffffffffffff1673ffffffffffffffffffffffffffffffffffffffff168152602001908152602001600020819055508173ffffffffffffffffffffffffffffffffffffffff168373ffffffffffffffffffffffffffffffffffffffff167f8c5be1e5ebec7d5bd14f71427d1e84f3dd0314c0f7b2291e5b200ac8c7c3b925836040518082815260200191505060405180910390a3505050565b60008073ffffffffffffffffffffffffffffffffffffffff168673ffffffffffffffffffffffffffffffffffffffff161415612532576040517f08c379a00000000000000000000000000000000000000000000000000000000081526004018080602001828103825260258152602001806138666025913960400191505060405180910390fd5b60016125456125408761321e565b6132c4565b83868660405160008152602001604052604051808581526020018460ff1660ff1681526020018381526020018281526020019450505050506020604051602081039080840390855afa15801561259f573d6000803e3d6000fd5b5050506020604051035173ffffffffffffffffffffffffffffffffffffffff168673ffffffffffffffffffffffffffffffffffffffff1614905095945050505050565b600080828401905083811015612660576040517f08c379a000000000000000000000000000000000000000000000000000000000815260040180806020018281038252601b8152602001807f536166654d6174683a206164646974696f6e206f766572666c6f77000000000081525060200191505060405180910390fd5b8091505092915050565b600073ffffffffffffffffffffffffffffffffffffffff168373ffffffffffffffffffffffffffffffffffffffff1614156126f0576040517f08c379a00000000000000000000000000000000000000000000000000000000081526004018080602001828103825260258152602001806138f56025913960400191505060405180910390fd5b600073ffffffffffffffffffffffffffffffffffffffff168273ffffffffffffffffffffffffffffffffffffffff161415612776576040517f08c379a00000000000000000000000000000000000000000000000000000000081526004018080602001828103825260238152602001806136e86023913960400191505060405180910390fd5b61278183838361332b565b6127ec81604051806060016040528060268152602001613810602691396000808773ffffffffffffffffffffffffffffffffffffffff1673ffffffffffffffffffffffffffffffffffffffff1681526020019081526020016000205461292b9092919063ffffffff16565b6000808573ffffffffffffffffffffffffffffffffffffffff1673ffffffffffffffffffffffffffffffffffffffff1681526020019081526020016000208190555061287f816000808573ffffffffffffffffffffffffffffffffffffffff1673ffffffffffffffffffffffffffffffffffffffff168152602001908152602001600020546125e290919063ffffffff16565b6000808473ffffffffffffffffffffffffffffffffffffffff1673ffffffffffffffffffffffffffffffffffffffff168152602001908152602001600020819055508173ffffffffffffffffffffffffffffffffffffffff168373ffffffffffffffffffffffffffffffffffffffff167fddf252ad1be2c89b69c2b068fc378daa952ba7f163c4a11628f55a4df523b3ef836040518082815260200191505060405180910390a3505050565b60008383111582906129d8576040517f08c379a00000000000000000000000000000000000000000000000000000000081526004018080602001828103825283818151815260200191508051906020019080838360005b8381101561299d578082015181840152602081019050612982565b50505050905090810190601f1680156129ca5780820380516001836020036101000a031916815260200191505b509250505060405180910390fd5b5060008385039050809150509392505050565b600073ffffffffffffffffffffffffffffffffffffffff168273ffffffffffffffffffffffffffffffffffffffff161415612a71576040517f08c379a00000000000000000000000000000000000000000000000000000000081526004018080602001828103825260218152602001806138d46021913960400191505060405180910390fd5b612a7d8260008361332b565b612ae88160405180606001604052806022815260200161373a602291396000808673ffffffffffffffffffffffffffffffffffffffff1673ffffffffffffffffffffffffffffffffffffffff1681526020019081526020016000205461292b9092919063ffffffff16565b6000808473ffffffffffffffffffffffffffffffffffffffff1673ffffffffffffffffffffffffffffffffffffffff16815260200190815260200160002081905550612b3f8160025461333090919063ffffffff16565b600281905550600073ffffffffffffffffffffffffffffffffffffffff168273ffffffffffffffffffffffffffffffffffffffff167fddf252ad1be2c89b69c2b068fc378daa952ba7f163c4a11628f55a4df523b3ef836040518082815260200191505060405180910390a35050565b612bd7816006600085815260200190815260200160002060000161337a90919063ffffffff16565b15612c3f57612be46122a5565b73ffffffffffffffffffffffffffffffffffffffff168173ffffffffffffffffffffffffffffffffffffffff16837f2f8788117e7eff1d82e926ec794901d17c78024a50270940304540a733656f0d60405160405180910390a45b5050565b612c6b81600660008581526020019081526020016000206000016133aa90919063ffffffff16565b15612cd357612c786122a5565b73ffffffffffffffffffffffffffffffffffffffff168173ffffffffffffffffffffffffffffffffffffffff16837ff6391f5c32d9c69d2a47ea670b442974b53935d1edc7fd64eb21e047a839171b60405160405180910390a45b5050565b8060039080519060200190612ced929190613620565b5050565b6040518060800160405280604f81526020016137c1604f9139805190602001208280519060200120828051906020012030612d2a611826565b60001b604051602001808681526020018581526020018481526020018373ffffffffffffffffffffffffffffffffffffffff1673ffffffffffffffffffffffffffffffffffffffff16815260200182815260200195505050505050604051602081830303815290604052805190602001206009819055505050565b6000612db483600001836133da565b60001c905092915050565b6000612de7836000018373ffffffffffffffffffffffffffffffffffffffff1660001b61345d565b905092915050565b6000612dfd82600001613480565b9050919050565b600073ffffffffffffffffffffffffffffffffffffffff168273ffffffffffffffffffffffffffffffffffffffff161415612ea7576040517f08c379a000000000000000000000000000000000000000000000000000000000815260040180806020018281038252601f8152602001807f45524332303a206d696e7420746f20746865207a65726f20616464726573730081525060200191505060405180910390fd5b612eb36000838361332b565b612ec8816002546125e290919063ffffffff16565b600281905550612f1f816000808573ffffffffffffffffffffffffffffffffffffffff1673ffffffffffffffffffffffffffffffffffffffff168152602001908152602001600020546125e290919063ffffffff16565b6000808473ffffffffffffffffffffffffffffffffffffffff1673ffffffffffffffffffffffffffffffffffffffff168152602001908152602001600020819055508173ffffffffffffffffffffffffffffffffffffffff16600073ffffffffffffffffffffffffffffffffffffffff167fddf252ad1be2c89b69c2b068fc378daa952ba7f163c4a11628f55a4df523b3ef836040518082815260200191505060405180910390a35050565b8060049080519060200190612fe1929190613620565b5050565b80600560006101000a81548160ff021916908360ff16021790555050565b806040516020018082805190602001908083835b6020831061303a5780518252602082019150602081019050602083039250613017565b6001836020036101000a038019825116818451168082178552505050505050905001807f3a20494e53554646494349454e545f5045524d495353494f4e53000000000000815250601a01915050604051602081830303815290604052600790805190602001906130ab929190613620565b5050565b6130b98282612baf565b5050565b600860009054906101000a900460ff1615613140576040517f08c379a000000000000000000000000000000000000000000000000000000000815260040180806020018281038252600e8152602001807f616c726561647920696e6974656400000000000000000000000000000000000081525060200191505060405180910390fd5b61314a8282612cf1565b6001600860006101000a81548160ff0219169083151502179055505050565b60003073ffffffffffffffffffffffffffffffffffffffff163373ffffffffffffffffffffffffffffffffffffffff1614156132145760606000368080601f016020809104026020016040519081016040528093929190818152602001838380828437600081840152601f19601f820116905080830192505050505050509050600080369050905073ffffffffffffffffffffffffffffffffffffffff818301511692505050613218565b3390505b80905090565b600060405180608001604052806043815260200161375c604391398051906020012082600001518360200151846040015180519060200120604051602001808581526020018481526020018373ffffffffffffffffffffffffffffffffffffffff1673ffffffffffffffffffffffffffffffffffffffff168152602001828152602001945050505050604051602081830303815290604052805190602001209050919050565b60006132ce611625565b8260405160200180807f190100000000000000000000000000000000000000000000000000000000000081525060020183815260200182815260200192505050604051602081830303815290604052805190602001209050919050565b505050565b600061337283836040518060400160405280601e81526020017f536166654d6174683a207375627472616374696f6e206f766572666c6f77000081525061292b565b905092915050565b60006133a2836000018373ffffffffffffffffffffffffffffffffffffffff1660001b613491565b905092915050565b60006133d2836000018373ffffffffffffffffffffffffffffffffffffffff1660001b613501565b905092915050565b60008183600001805490501161343b576040517f08c379a00000000000000000000000000000000000000000000000000000000081526004018080602001828103825260228152602001806136c66022913960400191505060405180910390fd5b82600001828154811061344a57fe5b9060005260206000200154905092915050565b600080836001016000848152602001908152602001600020541415905092915050565b600081600001805490509050919050565b600061349d838361345d565b6134f65782600001829080600181540180825580915050600190039060005260206000200160009091909190915055826000018054905083600101600084815260200190815260200160002081905550600190506134fb565b600090505b92915050565b600080836001016000848152602001908152602001600020549050600081146135dd576000600182039050600060018660000180549050039050600086600001828154811061354c57fe5b906000526020600020015490508087600001848154811061356957fe5b90600052602060002001819055506001830187600101600083815260200190815260200160002081905550866000018054806135a157fe5b600190038181906000526020600020016000905590558660010160008781526020019081526020016000206000905560019450505050506135e3565b60009150505b92915050565b604051806060016040528060008152602001600073ffffffffffffffffffffffffffffffffffffffff168152602001606081525090565b828054600181600116156101000203166002900490600052602060002090601f016020900481019282601f1061366157805160ff191683800117855561368f565b8280016001018555821561368f579182015b8281111561368e578251825591602001919060010190613673565b5b50905061369c91906136a0565b5090565b6136c291905b808211156136be5760008160009055506001016136a6565b5090565b9056fe456e756d657261626c655365743a20696e646578206f7574206f6620626f756e647345524332303a207472616e7366657220746f20746865207a65726f2061646472657373416363657373436f6e74726f6c3a2073656e646572206d75737420626520616e2061646d696e20746f206772616e7445524332303a206275726e20616d6f756e7420657863656564732062616c616e63654d6574615472616e73616374696f6e2875696e74323536206e6f6e63652c616464726573732066726f6d2c62797465732066756e6374696f6e5369676e61747572652945524332303a20617070726f766520746f20746865207a65726f2061646472657373454950373132446f6d61696e28737472696e67206e616d652c737472696e672076657273696f6e2c6164647265737320766572696679696e67436f6e74726163742c627974657333322073616c742945524332303a207472616e7366657220616d6f756e7420657863656564732062616c616e6365416363657373436f6e74726f6c3a2073656e646572206d75737420626520616e2061646d696e20746f207265766f6b654e61746976654d6574615472616e73616374696f6e3a20494e56414c49445f5349474e455245524332303a207472616e7366657220616d6f756e74206578636565647320616c6c6f77616e63655369676e657220616e64207369676e617475726520646f206e6f74206d6174636845524332303a206275726e2066726f6d20746865207a65726f206164647265737345524332303a207472616e736665722066726f6d20746865207a65726f206164647265737345524332303a20617070726f76652066726f6d20746865207a65726f206164647265737345524332303a2064656372656173656420616c6c6f77616e63652062656c6f77207a65726f416363657373436f6e74726f6c3a2063616e206f6e6c792072656e6f756e636520726f6c657320666f722073656c66a2646970667358221220022847b15fd8bc298c60bc7b8605b4870539512391731e9d8669c921ae90a02264736f6c63430006060033",
					"opcodes": "PUSH1 0x80 PUSH1 0x40 MSTORE PUSH1 0x0 PUSH1 0x8 PUSH1 0x0 PUSH2 0x100 EXP DUP2 SLOAD DUP2 PUSH1 0xFF MUL NOT AND SWAP1 DUP4 ISZERO ISZERO MUL OR SWAP1 SSTORE POP CALLVALUE DUP1 ISZERO PUSH3 0x2C JUMPI PUSH1 0x0 DUP1 REVERT JUMPDEST POP PUSH1 0x40 MLOAD DUP1 PUSH1 0x20 ADD PUSH1 0x40 MSTORE DUP1 PUSH1 0x0 DUP2 MSTORE POP PUSH1 0x40 MLOAD DUP1 PUSH1 0x20 ADD PUSH1 0x40 MSTORE DUP1 PUSH1 0x0 DUP2 MSTORE POP DUP2 PUSH1 0x3 SWAP1 DUP1 MLOAD SWAP1 PUSH1 0x20 ADD SWAP1 PUSH3 0x65 SWAP3 SWAP2 SWAP1 PUSH3 0xA3 JUMP JUMPDEST POP DUP1 PUSH1 0x4 SWAP1 DUP1 MLOAD SWAP1 PUSH1 0x20 ADD SWAP1 PUSH3 0x7E SWAP3 SWAP2 SWAP1 PUSH3 0xA3 JUMP JUMPDEST POP PUSH1 0x12 PUSH1 0x5 PUSH1 0x0 PUSH2 0x100 EXP DUP2 SLOAD DUP2 PUSH1 0xFF MUL NOT AND SWAP1 DUP4 PUSH1 0xFF AND MUL OR SWAP1 SSTORE POP POP POP PUSH3 0x152 JUMP JUMPDEST DUP3 DUP1 SLOAD PUSH1 0x1 DUP2 PUSH1 0x1 AND ISZERO PUSH2 0x100 MUL SUB AND PUSH1 0x2 SWAP1 DIV SWAP1 PUSH1 0x0 MSTORE PUSH1 0x20 PUSH1 0x0 KECCAK256 SWAP1 PUSH1 0x1F ADD PUSH1 0x20 SWAP1 DIV DUP2 ADD SWAP3 DUP3 PUSH1 0x1F LT PUSH3 0xE6 JUMPI DUP1 MLOAD PUSH1 0xFF NOT AND DUP4 DUP1 ADD OR DUP6 SSTORE PUSH3 0x117 JUMP JUMPDEST DUP3 DUP1 ADD PUSH1 0x1 ADD DUP6 SSTORE DUP3 ISZERO PUSH3 0x117 JUMPI SWAP2 DUP3 ADD JUMPDEST DUP3 DUP2 GT ISZERO PUSH3 0x116 JUMPI DUP3 MLOAD DUP3 SSTORE SWAP2 PUSH1 0x20 ADD SWAP2 SWAP1 PUSH1 0x1 ADD SWAP1 PUSH3 0xF9 JUMP JUMPDEST JUMPDEST POP SWAP1 POP PUSH3 0x126 SWAP2 SWAP1 PUSH3 0x12A JUMP JUMPDEST POP SWAP1 JUMP JUMPDEST PUSH3 0x14F SWAP2 SWAP1 JUMPDEST DUP1 DUP3 GT ISZERO PUSH3 0x14B JUMPI PUSH1 0x0 DUP2 PUSH1 0x0 SWAP1 SSTORE POP PUSH1 0x1 ADD PUSH3 0x131 JUMP JUMPDEST POP SWAP1 JUMP JUMPDEST SWAP1 JUMP JUMPDEST PUSH2 0x39C7 DUP1 PUSH3 0x162 PUSH1 0x0 CODECOPY PUSH1 0x0 RETURN INVALID PUSH1 0x80 PUSH1 0x40 MSTORE PUSH1 0x4 CALLDATASIZE LT PUSH2 0x1EE JUMPI PUSH1 0x0 CALLDATALOAD PUSH1 0xE0 SHR DUP1 PUSH4 0x39509351 GT PUSH2 0x10D JUMPI DUP1 PUSH4 0xA217FDDF GT PUSH2 0xA0 JUMPI DUP1 PUSH4 0xCA15C873 GT PUSH2 0x6F JUMPI DUP1 PUSH4 0xCA15C873 EQ PUSH2 0xD7D JUMPI DUP1 PUSH4 0xCF2C52CB EQ PUSH2 0xDCC JUMPI DUP1 PUSH4 0xD547741F EQ PUSH2 0xE72 JUMPI DUP1 PUSH4 0xDD62ED3E EQ PUSH2 0xECD JUMPI DUP1 PUSH4 0xDE7EA79D EQ PUSH2 0xF52 JUMPI PUSH2 0x1EE JUMP JUMPDEST DUP1 PUSH4 0xA217FDDF EQ PUSH2 0xC41 JUMPI DUP1 PUSH4 0xA3B0B5A3 EQ PUSH2 0xC6C JUMPI DUP1 PUSH4 0xA457C2D7 EQ PUSH2 0xC97 JUMPI DUP1 PUSH4 0xA9059CBB EQ PUSH2 0xD0A JUMPI PUSH2 0x1EE JUMP JUMPDEST DUP1 PUSH4 0x8ACFCAF7 GT PUSH2 0xDC JUMPI DUP1 PUSH4 0x8ACFCAF7 EQ PUSH2 0xA8E JUMPI DUP1 PUSH4 0x9010D07C EQ PUSH2 0xAB9 JUMPI DUP1 PUSH4 0x91D14854 EQ PUSH2 0xB3E JUMPI DUP1 PUSH4 0x95D89B41 EQ PUSH2 0xBB1 JUMPI PUSH2 0x1EE JUMP JUMPDEST DUP1 PUSH4 0x39509351 EQ PUSH2 0x905 JUMPI DUP1 PUSH4 0x5353A2D8 EQ PUSH2 0x978 JUMPI DUP1 PUSH4 0x626381A0 EQ PUSH2 0x9FE JUMPI DUP1 PUSH4 0x70A08231 EQ PUSH2 0xA29 JUMPI PUSH2 0x1EE JUMP JUMPDEST DUP1 PUSH4 0x23B872DD GT PUSH2 0x185 JUMPI DUP1 PUSH4 0x2F2FF15D GT PUSH2 0x154 JUMPI DUP1 PUSH4 0x2F2FF15D EQ PUSH2 0x7F3 JUMPI DUP1 PUSH4 0x313CE567 EQ PUSH2 0x84E JUMPI DUP1 PUSH4 0x3408E470 EQ PUSH2 0x87F JUMPI DUP1 PUSH4 0x36568ABE EQ PUSH2 0x8AA JUMPI PUSH2 0x1EE JUMP JUMPDEST DUP1 PUSH4 0x23B872DD EQ PUSH2 0x671 JUMPI DUP1 PUSH4 0x248A9CA3 EQ PUSH2 0x704 JUMPI DUP1 PUSH4 0x2D0335AB EQ PUSH2 0x753 JUMPI DUP1 PUSH4 0x2E1A7D4D EQ PUSH2 0x7B8 JUMPI PUSH2 0x1EE JUMP JUMPDEST DUP1 PUSH4 0xDD7531A GT PUSH2 0x1C1 JUMPI DUP1 PUSH4 0xDD7531A EQ PUSH2 0x4FB JUMPI DUP1 PUSH4 0xF7E5970 EQ PUSH2 0x58B JUMPI DUP1 PUSH4 0x18160DDD EQ PUSH2 0x61B JUMPI DUP1 PUSH4 0x20379EE5 EQ PUSH2 0x646 JUMPI PUSH2 0x1EE JUMP JUMPDEST DUP1 PUSH4 0x6FDDE03 EQ PUSH2 0x1F3 JUMPI DUP1 PUSH4 0x95EA7B3 EQ PUSH2 0x283 JUMPI DUP1 PUSH4 0xB54817C EQ PUSH2 0x2F6 JUMPI DUP1 PUSH4 0xC53C51C EQ PUSH2 0x386 JUMPI JUMPDEST PUSH1 0x0 DUP1 REVERT JUMPDEST CALLVALUE DUP1 ISZERO PUSH2 0x1FF JUMPI PUSH1 0x0 DUP1 REVERT JUMPDEST POP PUSH2 0x208 PUSH2 0x105A JUMP JUMPDEST PUSH1 0x40 MLOAD DUP1 DUP1 PUSH1 0x20 ADD DUP3 DUP2 SUB DUP3 MSTORE DUP4 DUP2 DUP2 MLOAD DUP2 MSTORE PUSH1 0x20 ADD SWAP2 POP DUP1 MLOAD SWAP1 PUSH1 0x20 ADD SWAP1 DUP1 DUP4 DUP4 PUSH1 0x0 JUMPDEST DUP4 DUP2 LT ISZERO PUSH2 0x248 JUMPI DUP1 DUP3 ADD MLOAD DUP2 DUP5 ADD MSTORE PUSH1 0x20 DUP2 ADD SWAP1 POP PUSH2 0x22D JUMP JUMPDEST POP POP POP POP SWAP1 POP SWAP1 DUP2 ADD SWAP1 PUSH1 0x1F AND DUP1 ISZERO PUSH2 0x275 JUMPI DUP1 DUP3 SUB DUP1 MLOAD PUSH1 0x1 DUP4 PUSH1 0x20 SUB PUSH2 0x100 EXP SUB NOT AND DUP2 MSTORE PUSH1 0x20 ADD SWAP2 POP JUMPDEST POP SWAP3 POP POP POP PUSH1 0x40 MLOAD DUP1 SWAP2 SUB SWAP1 RETURN JUMPDEST CALLVALUE DUP1 ISZERO PUSH2 0x28F JUMPI PUSH1 0x0 DUP1 REVERT JUMPDEST POP PUSH2 0x2DC PUSH1 0x4 DUP1 CALLDATASIZE SUB PUSH1 0x40 DUP2 LT ISZERO PUSH2 0x2A6 JUMPI PUSH1 0x0 DUP1 REVERT JUMPDEST DUP2 ADD SWAP1 DUP1 DUP1 CALLDATALOAD PUSH20 0xFFFFFFFFFFFFFFFFFFFFFFFFFFFFFFFFFFFFFFFF AND SWAP1 PUSH1 0x20 ADD SWAP1 SWAP3 SWAP2 SWAP1 DUP1 CALLDATALOAD SWAP1 PUSH1 0x20 ADD SWAP1 SWAP3 SWAP2 SWAP1 POP POP POP PUSH2 0x10FC JUMP JUMPDEST PUSH1 0x40 MLOAD DUP1 DUP3 ISZERO ISZERO ISZERO ISZERO DUP2 MSTORE PUSH1 0x20 ADD SWAP2 POP POP PUSH1 0x40 MLOAD DUP1 SWAP2 SUB SWAP1 RETURN JUMPDEST CALLVALUE DUP1 ISZERO PUSH2 0x302 JUMPI PUSH1 0x0 DUP1 REVERT JUMPDEST POP PUSH2 0x30B PUSH2 0x111A JUMP JUMPDEST PUSH1 0x40 MLOAD DUP1 DUP1 PUSH1 0x20 ADD DUP3 DUP2 SUB DUP3 MSTORE DUP4 DUP2 DUP2 MLOAD DUP2 MSTORE PUSH1 0x20 ADD SWAP2 POP DUP1 MLOAD SWAP1 PUSH1 0x20 ADD SWAP1 DUP1 DUP4 DUP4 PUSH1 0x0 JUMPDEST DUP4 DUP2 LT ISZERO PUSH2 0x34B JUMPI DUP1 DUP3 ADD MLOAD DUP2 DUP5 ADD MSTORE PUSH1 0x20 DUP2 ADD SWAP1 POP PUSH2 0x330 JUMP JUMPDEST POP POP POP POP SWAP1 POP SWAP1 DUP2 ADD SWAP1 PUSH1 0x1F AND DUP1 ISZERO PUSH2 0x378 JUMPI DUP1 DUP3 SUB DUP1 MLOAD PUSH1 0x1 DUP4 PUSH1 0x20 SUB PUSH2 0x100 EXP SUB NOT AND DUP2 MSTORE PUSH1 0x20 ADD SWAP2 POP JUMPDEST POP SWAP3 POP POP POP PUSH1 0x40 MLOAD DUP1 SWAP2 SUB SWAP1 RETURN JUMPDEST PUSH2 0x480 PUSH1 0x4 DUP1 CALLDATASIZE SUB PUSH1 0xA0 DUP2 LT ISZERO PUSH2 0x39C JUMPI PUSH1 0x0 DUP1 REVERT JUMPDEST DUP2 ADD SWAP1 DUP1 DUP1 CALLDATALOAD PUSH20 0xFFFFFFFFFFFFFFFFFFFFFFFFFFFFFFFFFFFFFFFF AND SWAP1 PUSH1 0x20 ADD SWAP1 SWAP3 SWAP2 SWAP1 DUP1 CALLDATALOAD SWAP1 PUSH1 0x20 ADD SWAP1 PUSH5 0x100000000 DUP2 GT ISZERO PUSH2 0x3D9 JUMPI PUSH1 0x0 DUP1 REVERT JUMPDEST DUP3 ADD DUP4 PUSH1 0x20 DUP3 ADD GT ISZERO PUSH2 0x3EB JUMPI PUSH1 0x0 DUP1 REVERT JUMPDEST DUP1 CALLDATALOAD SWAP1 PUSH1 0x20 ADD SWAP2 DUP5 PUSH1 0x1 DUP4 MUL DUP5 ADD GT PUSH5 0x100000000 DUP4 GT OR ISZERO PUSH2 0x40D JUMPI PUSH1 0x0 DUP1 REVERT JUMPDEST SWAP2 SWAP1 DUP1 DUP1 PUSH1 0x1F ADD PUSH1 0x20 DUP1 SWAP2 DIV MUL PUSH1 0x20 ADD PUSH1 0x40 MLOAD SWAP1 DUP2 ADD PUSH1 0x40 MSTORE DUP1 SWAP4 SWAP3 SWAP2 SWAP1 DUP2 DUP2 MSTORE PUSH1 0x20 ADD DUP4 DUP4 DUP1 DUP3 DUP5 CALLDATACOPY PUSH1 0x0 DUP2 DUP5 ADD MSTORE PUSH1 0x1F NOT PUSH1 0x1F DUP3 ADD AND SWAP1 POP DUP1 DUP4 ADD SWAP3 POP POP POP POP POP POP POP SWAP2 SWAP3 SWAP2 SWAP3 SWAP1 DUP1 CALLDATALOAD SWAP1 PUSH1 0x20 ADD SWAP1 SWAP3 SWAP2 SWAP1 DUP1 CALLDATALOAD SWAP1 PUSH1 0x20 ADD SWAP1 SWAP3 SWAP2 SWAP1 DUP1 CALLDATALOAD PUSH1 0xFF AND SWAP1 PUSH1 0x20 ADD SWAP1 SWAP3 SWAP2 SWAP1 POP POP POP PUSH2 0x1153 JUMP JUMPDEST PUSH1 0x40 MLOAD DUP1 DUP1 PUSH1 0x20 ADD DUP3 DUP2 SUB DUP3 MSTORE DUP4 DUP2 DUP2 MLOAD DUP2 MSTORE PUSH1 0x20 ADD SWAP2 POP DUP1 MLOAD SWAP1 PUSH1 0x20 ADD SWAP1 DUP1 DUP4 DUP4 PUSH1 0x0 JUMPDEST DUP4 DUP2 LT ISZERO PUSH2 0x4C0 JUMPI DUP1 DUP3 ADD MLOAD DUP2 DUP5 ADD MSTORE PUSH1 0x20 DUP2 ADD SWAP1 POP PUSH2 0x4A5 JUMP JUMPDEST POP POP POP POP SWAP1 POP SWAP1 DUP2 ADD SWAP1 PUSH1 0x1F AND DUP1 ISZERO PUSH2 0x4ED JUMPI DUP1 DUP3 SUB DUP1 MLOAD PUSH1 0x1 DUP4 PUSH1 0x20 SUB PUSH2 0x100 EXP SUB NOT AND DUP2 MSTORE PUSH1 0x20 ADD SWAP2 POP JUMPDEST POP SWAP3 POP POP POP PUSH1 0x40 MLOAD DUP1 SWAP2 SUB SWAP1 RETURN JUMPDEST CALLVALUE DUP1 ISZERO PUSH2 0x507 JUMPI PUSH1 0x0 DUP1 REVERT JUMPDEST POP PUSH2 0x510 PUSH2 0x15A9 JUMP JUMPDEST PUSH1 0x40 MLOAD DUP1 DUP1 PUSH1 0x20 ADD DUP3 DUP2 SUB DUP3 MSTORE DUP4 DUP2 DUP2 MLOAD DUP2 MSTORE PUSH1 0x20 ADD SWAP2 POP DUP1 MLOAD SWAP1 PUSH1 0x20 ADD SWAP1 DUP1 DUP4 DUP4 PUSH1 0x0 JUMPDEST DUP4 DUP2 LT ISZERO PUSH2 0x550 JUMPI DUP1 DUP3 ADD MLOAD DUP2 DUP5 ADD MSTORE PUSH1 0x20 DUP2 ADD SWAP1 POP PUSH2 0x535 JUMP JUMPDEST POP POP POP POP SWAP1 POP SWAP1 DUP2 ADD SWAP1 PUSH1 0x1F AND DUP1 ISZERO PUSH2 0x57D JUMPI DUP1 DUP3 SUB DUP1 MLOAD PUSH1 0x1 DUP4 PUSH1 0x20 SUB PUSH2 0x100 EXP SUB NOT AND DUP2 MSTORE PUSH1 0x20 ADD SWAP2 POP JUMPDEST POP SWAP3 POP POP POP PUSH1 0x40 MLOAD DUP1 SWAP2 SUB SWAP1 RETURN JUMPDEST CALLVALUE DUP1 ISZERO PUSH2 0x597 JUMPI PUSH1 0x0 DUP1 REVERT JUMPDEST POP PUSH2 0x5A0 PUSH2 0x15E2 JUMP JUMPDEST PUSH1 0x40 MLOAD DUP1 DUP1 PUSH1 0x20 ADD DUP3 DUP2 SUB DUP3 MSTORE DUP4 DUP2 DUP2 MLOAD DUP2 MSTORE PUSH1 0x20 ADD SWAP2 POP DUP1 MLOAD SWAP1 PUSH1 0x20 ADD SWAP1 DUP1 DUP4 DUP4 PUSH1 0x0 JUMPDEST DUP4 DUP2 LT ISZERO PUSH2 0x5E0 JUMPI DUP1 DUP3 ADD MLOAD DUP2 DUP5 ADD MSTORE PUSH1 0x20 DUP2 ADD SWAP1 POP PUSH2 0x5C5 JUMP JUMPDEST POP POP POP POP SWAP1 POP SWAP1 DUP2 ADD SWAP1 PUSH1 0x1F AND DUP1 ISZERO PUSH2 0x60D JUMPI DUP1 DUP3 SUB DUP1 MLOAD PUSH1 0x1 DUP4 PUSH1 0x20 SUB PUSH2 0x100 EXP SUB NOT AND DUP2 MSTORE PUSH1 0x20 ADD SWAP2 POP JUMPDEST POP SWAP3 POP POP POP PUSH1 0x40 MLOAD DUP1 SWAP2 SUB SWAP1 RETURN JUMPDEST CALLVALUE DUP1 ISZERO PUSH2 0x627 JUMPI PUSH1 0x0 DUP1 REVERT JUMPDEST POP PUSH2 0x630 PUSH2 0x161B JUMP JUMPDEST PUSH1 0x40 MLOAD DUP1 DUP3 DUP2 MSTORE PUSH1 0x20 ADD SWAP2 POP POP PUSH1 0x40 MLOAD DUP1 SWAP2 SUB SWAP1 RETURN JUMPDEST CALLVALUE DUP1 ISZERO PUSH2 0x652 JUMPI PUSH1 0x0 DUP1 REVERT JUMPDEST POP PUSH2 0x65B PUSH2 0x1625 JUMP JUMPDEST PUSH1 0x40 MLOAD DUP1 DUP3 DUP2 MSTORE PUSH1 0x20 ADD SWAP2 POP POP PUSH1 0x40 MLOAD DUP1 SWAP2 SUB SWAP1 RETURN JUMPDEST CALLVALUE DUP1 ISZERO PUSH2 0x67D JUMPI PUSH1 0x0 DUP1 REVERT JUMPDEST POP PUSH2 0x6EA PUSH1 0x4 DUP1 CALLDATASIZE SUB PUSH1 0x60 DUP2 LT ISZERO PUSH2 0x694 JUMPI PUSH1 0x0 DUP1 REVERT JUMPDEST DUP2 ADD SWAP1 DUP1 DUP1 CALLDATALOAD PUSH20 0xFFFFFFFFFFFFFFFFFFFFFFFFFFFFFFFFFFFFFFFF AND SWAP1 PUSH1 0x20 ADD SWAP1 SWAP3 SWAP2 SWAP1 DUP1 CALLDATALOAD PUSH20 0xFFFFFFFFFFFFFFFFFFFFFFFFFFFFFFFFFFFFFFFF AND SWAP1 PUSH1 0x20 ADD SWAP1 SWAP3 SWAP2 SWAP1 DUP1 CALLDATALOAD SWAP1 PUSH1 0x20 ADD SWAP1 SWAP3 SWAP2 SWAP1 POP POP POP PUSH2 0x162F JUMP JUMPDEST PUSH1 0x40 MLOAD DUP1 DUP3 ISZERO ISZERO ISZERO ISZERO DUP2 MSTORE PUSH1 0x20 ADD SWAP2 POP POP PUSH1 0x40 MLOAD DUP1 SWAP2 SUB SWAP1 RETURN JUMPDEST CALLVALUE DUP1 ISZERO PUSH2 0x710 JUMPI PUSH1 0x0 DUP1 REVERT JUMPDEST POP PUSH2 0x73D PUSH1 0x4 DUP1 CALLDATASIZE SUB PUSH1 0x20 DUP2 LT ISZERO PUSH2 0x727 JUMPI PUSH1 0x0 DUP1 REVERT JUMPDEST DUP2 ADD SWAP1 DUP1 DUP1 CALLDATALOAD SWAP1 PUSH1 0x20 ADD SWAP1 SWAP3 SWAP2 SWAP1 POP POP POP PUSH2 0x1708 JUMP JUMPDEST PUSH1 0x40 MLOAD DUP1 DUP3 DUP2 MSTORE PUSH1 0x20 ADD SWAP2 POP POP PUSH1 0x40 MLOAD DUP1 SWAP2 SUB SWAP1 RETURN JUMPDEST CALLVALUE DUP1 ISZERO PUSH2 0x75F JUMPI PUSH1 0x0 DUP1 REVERT JUMPDEST POP PUSH2 0x7A2 PUSH1 0x4 DUP1 CALLDATASIZE SUB PUSH1 0x20 DUP2 LT ISZERO PUSH2 0x776 JUMPI PUSH1 0x0 DUP1 REVERT JUMPDEST DUP2 ADD SWAP1 DUP1 DUP1 CALLDATALOAD PUSH20 0xFFFFFFFFFFFFFFFFFFFFFFFFFFFFFFFFFFFFFFFF AND SWAP1 PUSH1 0x20 ADD SWAP1 SWAP3 SWAP2 SWAP1 POP POP POP PUSH2 0x1728 JUMP JUMPDEST PUSH1 0x40 MLOAD DUP1 DUP3 DUP2 MSTORE PUSH1 0x20 ADD SWAP2 POP POP PUSH1 0x40 MLOAD DUP1 SWAP2 SUB SWAP1 RETURN JUMPDEST CALLVALUE DUP1 ISZERO PUSH2 0x7C4 JUMPI PUSH1 0x0 DUP1 REVERT JUMPDEST POP PUSH2 0x7F1 PUSH1 0x4 DUP1 CALLDATASIZE SUB PUSH1 0x20 DUP2 LT ISZERO PUSH2 0x7DB JUMPI PUSH1 0x0 DUP1 REVERT JUMPDEST DUP2 ADD SWAP1 DUP1 DUP1 CALLDATALOAD SWAP1 PUSH1 0x20 ADD SWAP1 SWAP3 SWAP2 SWAP1 POP POP POP PUSH2 0x1771 JUMP JUMPDEST STOP JUMPDEST CALLVALUE DUP1 ISZERO PUSH2 0x7FF JUMPI PUSH1 0x0 DUP1 REVERT JUMPDEST POP PUSH2 0x84C PUSH1 0x4 DUP1 CALLDATASIZE SUB PUSH1 0x40 DUP2 LT ISZERO PUSH2 0x816 JUMPI PUSH1 0x0 DUP1 REVERT JUMPDEST DUP2 ADD SWAP1 DUP1 DUP1 CALLDATALOAD SWAP1 PUSH1 0x20 ADD SWAP1 SWAP3 SWAP2 SWAP1 DUP1 CALLDATALOAD PUSH20 0xFFFFFFFFFFFFFFFFFFFFFFFFFFFFFFFFFFFFFFFF AND SWAP1 PUSH1 0x20 ADD SWAP1 SWAP3 SWAP2 SWAP1 POP POP POP PUSH2 0x1785 JUMP JUMPDEST STOP JUMPDEST CALLVALUE DUP1 ISZERO PUSH2 0x85A JUMPI PUSH1 0x0 DUP1 REVERT JUMPDEST POP PUSH2 0x863 PUSH2 0x180F JUMP JUMPDEST PUSH1 0x40 MLOAD DUP1 DUP3 PUSH1 0xFF AND PUSH1 0xFF AND DUP2 MSTORE PUSH1 0x20 ADD SWAP2 POP POP PUSH1 0x40 MLOAD DUP1 SWAP2 SUB SWAP1 RETURN JUMPDEST CALLVALUE DUP1 ISZERO PUSH2 0x88B JUMPI PUSH1 0x0 DUP1 REVERT JUMPDEST POP PUSH2 0x894 PUSH2 0x1826 JUMP JUMPDEST PUSH1 0x40 MLOAD DUP1 DUP3 DUP2 MSTORE PUSH1 0x20 ADD SWAP2 POP POP PUSH1 0x40 MLOAD DUP1 SWAP2 SUB SWAP1 RETURN JUMPDEST CALLVALUE DUP1 ISZERO PUSH2 0x8B6 JUMPI PUSH1 0x0 DUP1 REVERT JUMPDEST POP PUSH2 0x903 PUSH1 0x4 DUP1 CALLDATASIZE SUB PUSH1 0x40 DUP2 LT ISZERO PUSH2 0x8CD JUMPI PUSH1 0x0 DUP1 REVERT JUMPDEST DUP2 ADD SWAP1 DUP1 DUP1 CALLDATALOAD SWAP1 PUSH1 0x20 ADD SWAP1 SWAP3 SWAP2 SWAP1 DUP1 CALLDATALOAD PUSH20 0xFFFFFFFFFFFFFFFFFFFFFFFFFFFFFFFFFFFFFFFF AND SWAP1 PUSH1 0x20 ADD SWAP1 SWAP3 SWAP2 SWAP1 POP POP POP PUSH2 0x1833 JUMP JUMPDEST STOP JUMPDEST CALLVALUE DUP1 ISZERO PUSH2 0x911 JUMPI PUSH1 0x0 DUP1 REVERT JUMPDEST POP PUSH2 0x95E PUSH1 0x4 DUP1 CALLDATASIZE SUB PUSH1 0x40 DUP2 LT ISZERO PUSH2 0x928 JUMPI PUSH1 0x0 DUP1 REVERT JUMPDEST DUP2 ADD SWAP1 DUP1 DUP1 CALLDATALOAD PUSH20 0xFFFFFFFFFFFFFFFFFFFFFFFFFFFFFFFFFFFFFFFF AND SWAP1 PUSH1 0x20 ADD SWAP1 SWAP3 SWAP2 SWAP1 DUP1 CALLDATALOAD SWAP1 PUSH1 0x20 ADD SWAP1 SWAP3 SWAP2 SWAP1 POP POP POP PUSH2 0x18CC JUMP JUMPDEST PUSH1 0x40 MLOAD DUP1 DUP3 ISZERO ISZERO ISZERO ISZERO DUP2 MSTORE PUSH1 0x20 ADD SWAP2 POP POP PUSH1 0x40 MLOAD DUP1 SWAP2 SUB SWAP1 RETURN JUMPDEST CALLVALUE DUP1 ISZERO PUSH2 0x984 JUMPI PUSH1 0x0 DUP1 REVERT JUMPDEST POP PUSH2 0x9FC PUSH1 0x4 DUP1 CALLDATASIZE SUB PUSH1 0x20 DUP2 LT ISZERO PUSH2 0x99B JUMPI PUSH1 0x0 DUP1 REVERT JUMPDEST DUP2 ADD SWAP1 DUP1 DUP1 CALLDATALOAD SWAP1 PUSH1 0x20 ADD SWAP1 PUSH5 0x100000000 DUP2 GT ISZERO PUSH2 0x9B8 JUMPI PUSH1 0x0 DUP1 REVERT JUMPDEST DUP3 ADD DUP4 PUSH1 0x20 DUP3 ADD GT ISZERO PUSH2 0x9CA JUMPI PUSH1 0x0 DUP1 REVERT JUMPDEST DUP1 CALLDATALOAD SWAP1 PUSH1 0x20 ADD SWAP2 DUP5 PUSH1 0x1 DUP4 MUL DUP5 ADD GT PUSH5 0x100000000 DUP4 GT OR ISZERO PUSH2 0x9EC JUMPI PUSH1 0x0 DUP1 REVERT JUMPDEST SWAP1 SWAP2 SWAP3 SWAP4 SWAP2 SWAP3 SWAP4 SWAP1 POP POP POP PUSH2 0x197F JUMP JUMPDEST STOP JUMPDEST CALLVALUE DUP1 ISZERO PUSH2 0xA0A JUMPI PUSH1 0x0 DUP1 REVERT JUMPDEST POP PUSH2 0xA13 PUSH2 0x1B2F JUMP JUMPDEST PUSH1 0x40 MLOAD DUP1 DUP3 DUP2 MSTORE PUSH1 0x20 ADD SWAP2 POP POP PUSH1 0x40 MLOAD DUP1 SWAP2 SUB SWAP1 RETURN JUMPDEST CALLVALUE DUP1 ISZERO PUSH2 0xA35 JUMPI PUSH1 0x0 DUP1 REVERT JUMPDEST POP PUSH2 0xA78 PUSH1 0x4 DUP1 CALLDATASIZE SUB PUSH1 0x20 DUP2 LT ISZERO PUSH2 0xA4C JUMPI PUSH1 0x0 DUP1 REVERT JUMPDEST DUP2 ADD SWAP1 DUP1 DUP1 CALLDATALOAD PUSH20 0xFFFFFFFFFFFFFFFFFFFFFFFFFFFFFFFFFFFFFFFF AND SWAP1 PUSH1 0x20 ADD SWAP1 SWAP3 SWAP2 SWAP1 POP POP POP PUSH2 0x1B34 JUMP JUMPDEST PUSH1 0x40 MLOAD DUP1 DUP3 DUP2 MSTORE PUSH1 0x20 ADD SWAP2 POP POP PUSH1 0x40 MLOAD DUP1 SWAP2 SUB SWAP1 RETURN JUMPDEST CALLVALUE DUP1 ISZERO PUSH2 0xA9A JUMPI PUSH1 0x0 DUP1 REVERT JUMPDEST POP PUSH2 0xAA3 PUSH2 0x1B7C JUMP JUMPDEST PUSH1 0x40 MLOAD DUP1 DUP3 DUP2 MSTORE PUSH1 0x20 ADD SWAP2 POP POP PUSH1 0x40 MLOAD DUP1 SWAP2 SUB SWAP1 RETURN JUMPDEST CALLVALUE DUP1 ISZERO PUSH2 0xAC5 JUMPI PUSH1 0x0 DUP1 REVERT JUMPDEST POP PUSH2 0xAFC PUSH1 0x4 DUP1 CALLDATASIZE SUB PUSH1 0x40 DUP2 LT ISZERO PUSH2 0xADC JUMPI PUSH1 0x0 DUP1 REVERT JUMPDEST DUP2 ADD SWAP1 DUP1 DUP1 CALLDATALOAD SWAP1 PUSH1 0x20 ADD SWAP1 SWAP3 SWAP2 SWAP1 DUP1 CALLDATALOAD SWAP1 PUSH1 0x20 ADD SWAP1 SWAP3 SWAP2 SWAP1 POP POP POP PUSH2 0x1B81 JUMP JUMPDEST PUSH1 0x40 MLOAD DUP1 DUP3 PUSH20 0xFFFFFFFFFFFFFFFFFFFFFFFFFFFFFFFFFFFFFFFF AND PUSH20 0xFFFFFFFFFFFFFFFFFFFFFFFFFFFFFFFFFFFFFFFF AND DUP2 MSTORE PUSH1 0x20 ADD SWAP2 POP POP PUSH1 0x40 MLOAD DUP1 SWAP2 SUB SWAP1 RETURN JUMPDEST CALLVALUE DUP1 ISZERO PUSH2 0xB4A JUMPI PUSH1 0x0 DUP1 REVERT JUMPDEST POP PUSH2 0xB97 PUSH1 0x4 DUP1 CALLDATASIZE SUB PUSH1 0x40 DUP2 LT ISZERO PUSH2 0xB61 JUMPI PUSH1 0x0 DUP1 REVERT JUMPDEST DUP2 ADD SWAP1 DUP1 DUP1 CALLDATALOAD SWAP1 PUSH1 0x20 ADD SWAP1 SWAP3 SWAP2 SWAP1 DUP1 CALLDATALOAD PUSH20 0xFFFFFFFFFFFFFFFFFFFFFFFFFFFFFFFFFFFFFFFF AND SWAP1 PUSH1 0x20 ADD SWAP1 SWAP3 SWAP2 SWAP1 POP POP POP PUSH2 0x1BB3 JUMP JUMPDEST PUSH1 0x40 MLOAD DUP1 DUP3 ISZERO ISZERO ISZERO ISZERO DUP2 MSTORE PUSH1 0x20 ADD SWAP2 POP POP PUSH1 0x40 MLOAD DUP1 SWAP2 SUB SWAP1 RETURN JUMPDEST CALLVALUE DUP1 ISZERO PUSH2 0xBBD JUMPI PUSH1 0x0 DUP1 REVERT JUMPDEST POP PUSH2 0xBC6 PUSH2 0x1BE5 JUMP JUMPDEST PUSH1 0x40 MLOAD DUP1 DUP1 PUSH1 0x20 ADD DUP3 DUP2 SUB DUP3 MSTORE DUP4 DUP2 DUP2 MLOAD DUP2 MSTORE PUSH1 0x20 ADD SWAP2 POP DUP1 MLOAD SWAP1 PUSH1 0x20 ADD SWAP1 DUP1 DUP4 DUP4 PUSH1 0x0 JUMPDEST DUP4 DUP2 LT ISZERO PUSH2 0xC06 JUMPI DUP1 DUP3 ADD MLOAD DUP2 DUP5 ADD MSTORE PUSH1 0x20 DUP2 ADD SWAP1 POP PUSH2 0xBEB JUMP JUMPDEST POP POP POP POP SWAP1 POP SWAP1 DUP2 ADD SWAP1 PUSH1 0x1F AND DUP1 ISZERO PUSH2 0xC33 JUMPI DUP1 DUP3 SUB DUP1 MLOAD PUSH1 0x1 DUP4 PUSH1 0x20 SUB PUSH2 0x100 EXP SUB NOT AND DUP2 MSTORE PUSH1 0x20 ADD SWAP2 POP JUMPDEST POP SWAP3 POP POP POP PUSH1 0x40 MLOAD DUP1 SWAP2 SUB SWAP1 RETURN JUMPDEST CALLVALUE DUP1 ISZERO PUSH2 0xC4D JUMPI PUSH1 0x0 DUP1 REVERT JUMPDEST POP PUSH2 0xC56 PUSH2 0x1C87 JUMP JUMPDEST PUSH1 0x40 MLOAD DUP1 DUP3 DUP2 MSTORE PUSH1 0x20 ADD SWAP2 POP POP PUSH1 0x40 MLOAD DUP1 SWAP2 SUB SWAP1 RETURN JUMPDEST CALLVALUE DUP1 ISZERO PUSH2 0xC78 JUMPI PUSH1 0x0 DUP1 REVERT JUMPDEST POP PUSH2 0xC81 PUSH2 0x1C8E JUMP JUMPDEST PUSH1 0x40 MLOAD DUP1 DUP3 DUP2 MSTORE PUSH1 0x20 ADD SWAP2 POP POP PUSH1 0x40 MLOAD DUP1 SWAP2 SUB SWAP1 RETURN JUMPDEST CALLVALUE DUP1 ISZERO PUSH2 0xCA3 JUMPI PUSH1 0x0 DUP1 REVERT JUMPDEST POP PUSH2 0xCF0 PUSH1 0x4 DUP1 CALLDATASIZE SUB PUSH1 0x40 DUP2 LT ISZERO PUSH2 0xCBA JUMPI PUSH1 0x0 DUP1 REVERT JUMPDEST DUP2 ADD SWAP1 DUP1 DUP1 CALLDATALOAD PUSH20 0xFFFFFFFFFFFFFFFFFFFFFFFFFFFFFFFFFFFFFFFF AND SWAP1 PUSH1 0x20 ADD SWAP1 SWAP3 SWAP2 SWAP1 DUP1 CALLDATALOAD SWAP1 PUSH1 0x20 ADD SWAP1 SWAP3 SWAP2 SWAP1 POP POP POP PUSH2 0x1CC7 JUMP JUMPDEST PUSH1 0x40 MLOAD DUP1 DUP3 ISZERO ISZERO ISZERO ISZERO DUP2 MSTORE PUSH1 0x20 ADD SWAP2 POP POP PUSH1 0x40 MLOAD DUP1 SWAP2 SUB SWAP1 RETURN JUMPDEST CALLVALUE DUP1 ISZERO PUSH2 0xD16 JUMPI PUSH1 0x0 DUP1 REVERT JUMPDEST POP PUSH2 0xD63 PUSH1 0x4 DUP1 CALLDATASIZE SUB PUSH1 0x40 DUP2 LT ISZERO PUSH2 0xD2D JUMPI PUSH1 0x0 DUP1 REVERT JUMPDEST DUP2 ADD SWAP1 DUP1 DUP1 CALLDATALOAD PUSH20 0xFFFFFFFFFFFFFFFFFFFFFFFFFFFFFFFFFFFFFFFF AND SWAP1 PUSH1 0x20 ADD SWAP1 SWAP3 SWAP2 SWAP1 DUP1 CALLDATALOAD SWAP1 PUSH1 0x20 ADD SWAP1 SWAP3 SWAP2 SWAP1 POP POP POP PUSH2 0x1D94 JUMP JUMPDEST PUSH1 0x40 MLOAD DUP1 DUP3 ISZERO ISZERO ISZERO ISZERO DUP2 MSTORE PUSH1 0x20 ADD SWAP2 POP POP PUSH1 0x40 MLOAD DUP1 SWAP2 SUB SWAP1 RETURN JUMPDEST CALLVALUE DUP1 ISZERO PUSH2 0xD89 JUMPI PUSH1 0x0 DUP1 REVERT JUMPDEST POP PUSH2 0xDB6 PUSH1 0x4 DUP1 CALLDATASIZE SUB PUSH1 0x20 DUP2 LT ISZERO PUSH2 0xDA0 JUMPI PUSH1 0x0 DUP1 REVERT JUMPDEST DUP2 ADD SWAP1 DUP1 DUP1 CALLDATALOAD SWAP1 PUSH1 0x20 ADD SWAP1 SWAP3 SWAP2 SWAP1 POP POP POP PUSH2 0x1DB2 JUMP JUMPDEST PUSH1 0x40 MLOAD DUP1 DUP3 DUP2 MSTORE PUSH1 0x20 ADD SWAP2 POP POP PUSH1 0x40 MLOAD DUP1 SWAP2 SUB SWAP1 RETURN JUMPDEST CALLVALUE DUP1 ISZERO PUSH2 0xDD8 JUMPI PUSH1 0x0 DUP1 REVERT JUMPDEST POP PUSH2 0xE70 PUSH1 0x4 DUP1 CALLDATASIZE SUB PUSH1 0x40 DUP2 LT ISZERO PUSH2 0xDEF JUMPI PUSH1 0x0 DUP1 REVERT JUMPDEST DUP2 ADD SWAP1 DUP1 DUP1 CALLDATALOAD PUSH20 0xFFFFFFFFFFFFFFFFFFFFFFFFFFFFFFFFFFFFFFFF AND SWAP1 PUSH1 0x20 ADD SWAP1 SWAP3 SWAP2 SWAP1 DUP1 CALLDATALOAD SWAP1 PUSH1 0x20 ADD SWAP1 PUSH5 0x100000000 DUP2 GT ISZERO PUSH2 0xE2C JUMPI PUSH1 0x0 DUP1 REVERT JUMPDEST DUP3 ADD DUP4 PUSH1 0x20 DUP3 ADD GT ISZERO PUSH2 0xE3E JUMPI PUSH1 0x0 DUP1 REVERT JUMPDEST DUP1 CALLDATALOAD SWAP1 PUSH1 0x20 ADD SWAP2 DUP5 PUSH1 0x1 DUP4 MUL DUP5 ADD GT PUSH5 0x100000000 DUP4 GT OR ISZERO PUSH2 0xE60 JUMPI PUSH1 0x0 DUP1 REVERT JUMPDEST SWAP1 SWAP2 SWAP3 SWAP4 SWAP2 SWAP3 SWAP4 SWAP1 POP POP POP PUSH2 0x1DD9 JUMP JUMPDEST STOP JUMPDEST CALLVALUE DUP1 ISZERO PUSH2 0xE7E JUMPI PUSH1 0x0 DUP1 REVERT JUMPDEST POP PUSH2 0xECB PUSH1 0x4 DUP1 CALLDATASIZE SUB PUSH1 0x40 DUP2 LT ISZERO PUSH2 0xE95 JUMPI PUSH1 0x0 DUP1 REVERT JUMPDEST DUP2 ADD SWAP1 DUP1 DUP1 CALLDATALOAD SWAP1 PUSH1 0x20 ADD SWAP1 SWAP3 SWAP2 SWAP1 DUP1 CALLDATALOAD PUSH20 0xFFFFFFFFFFFFFFFFFFFFFFFFFFFFFFFFFFFFFFFF AND SWAP1 PUSH1 0x20 ADD SWAP1 SWAP3 SWAP2 SWAP1 POP POP POP PUSH2 0x1F1C JUMP JUMPDEST STOP JUMPDEST CALLVALUE DUP1 ISZERO PUSH2 0xED9 JUMPI PUSH1 0x0 DUP1 REVERT JUMPDEST POP PUSH2 0xF3C PUSH1 0x4 DUP1 CALLDATASIZE SUB PUSH1 0x40 DUP2 LT ISZERO PUSH2 0xEF0 JUMPI PUSH1 0x0 DUP1 REVERT JUMPDEST DUP2 ADD SWAP1 DUP1 DUP1 CALLDATALOAD PUSH20 0xFFFFFFFFFFFFFFFFFFFFFFFFFFFFFFFFFFFFFFFF AND SWAP1 PUSH1 0x20 ADD SWAP1 SWAP3 SWAP2 SWAP1 DUP1 CALLDATALOAD PUSH20 0xFFFFFFFFFFFFFFFFFFFFFFFFFFFFFFFFFFFFFFFF AND SWAP1 PUSH1 0x20 ADD SWAP1 SWAP3 SWAP2 SWAP1 POP POP POP PUSH2 0x1FA6 JUMP JUMPDEST PUSH1 0x40 MLOAD DUP1 DUP3 DUP2 MSTORE PUSH1 0x20 ADD SWAP2 POP POP PUSH1 0x40 MLOAD DUP1 SWAP2 SUB SWAP1 RETURN JUMPDEST CALLVALUE DUP1 ISZERO PUSH2 0xF5E JUMPI PUSH1 0x0 DUP1 REVERT JUMPDEST POP PUSH2 0x1058 PUSH1 0x4 DUP1 CALLDATASIZE SUB PUSH1 0x80 DUP2 LT ISZERO PUSH2 0xF75 JUMPI PUSH1 0x0 DUP1 REVERT JUMPDEST DUP2 ADD SWAP1 DUP1 DUP1 CALLDATALOAD SWAP1 PUSH1 0x20 ADD SWAP1 PUSH5 0x100000000 DUP2 GT ISZERO PUSH2 0xF92 JUMPI PUSH1 0x0 DUP1 REVERT JUMPDEST DUP3 ADD DUP4 PUSH1 0x20 DUP3 ADD GT ISZERO PUSH2 0xFA4 JUMPI PUSH1 0x0 DUP1 REVERT JUMPDEST DUP1 CALLDATALOAD SWAP1 PUSH1 0x20 ADD SWAP2 DUP5 PUSH1 0x1 DUP4 MUL DUP5 ADD GT PUSH5 0x100000000 DUP4 GT OR ISZERO PUSH2 0xFC6 JUMPI PUSH1 0x0 DUP1 REVERT JUMPDEST SWAP1 SWAP2 SWAP3 SWAP4 SWAP2 SWAP3 SWAP4 SWAP1 DUP1 CALLDATALOAD SWAP1 PUSH1 0x20 ADD SWAP1 PUSH5 0x100000000 DUP2 GT ISZERO PUSH2 0xFE7 JUMPI PUSH1 0x0 DUP1 REVERT JUMPDEST DUP3 ADD DUP4 PUSH1 0x20 DUP3 ADD GT ISZERO PUSH2 0xFF9 JUMPI PUSH1 0x0 DUP1 REVERT JUMPDEST DUP1 CALLDATALOAD SWAP1 PUSH1 0x20 ADD SWAP2 DUP5 PUSH1 0x1 DUP4 MUL DUP5 ADD GT PUSH5 0x100000000 DUP4 GT OR ISZERO PUSH2 0x101B JUMPI PUSH1 0x0 DUP1 REVERT JUMPDEST SWAP1 SWAP2 SWAP3 SWAP4 SWAP2 SWAP3 SWAP4 SWAP1 DUP1 CALLDATALOAD PUSH1 0xFF AND SWAP1 PUSH1 0x20 ADD SWAP1 SWAP3 SWAP2 SWAP1 DUP1 CALLDATALOAD PUSH20 0xFFFFFFFFFFFFFFFFFFFFFFFFFFFFFFFFFFFFFFFF AND SWAP1 PUSH1 0x20 ADD SWAP1 SWAP3 SWAP2 SWAP1 POP POP POP PUSH2 0x202D JUMP JUMPDEST STOP JUMPDEST PUSH1 0x60 PUSH1 0x3 DUP1 SLOAD PUSH1 0x1 DUP2 PUSH1 0x1 AND ISZERO PUSH2 0x100 MUL SUB AND PUSH1 0x2 SWAP1 DIV DUP1 PUSH1 0x1F ADD PUSH1 0x20 DUP1 SWAP2 DIV MUL PUSH1 0x20 ADD PUSH1 0x40 MLOAD SWAP1 DUP2 ADD PUSH1 0x40 MSTORE DUP1 SWAP3 SWAP2 SWAP1 DUP2 DUP2 MSTORE PUSH1 0x20 ADD DUP3 DUP1 SLOAD PUSH1 0x1 DUP2 PUSH1 0x1 AND ISZERO PUSH2 0x100 MUL SUB AND PUSH1 0x2 SWAP1 DIV DUP1 ISZERO PUSH2 0x10F2 JUMPI DUP1 PUSH1 0x1F LT PUSH2 0x10C7 JUMPI PUSH2 0x100 DUP1 DUP4 SLOAD DIV MUL DUP4 MSTORE SWAP2 PUSH1 0x20 ADD SWAP2 PUSH2 0x10F2 JUMP JUMPDEST DUP3 ADD SWAP2 SWAP1 PUSH1 0x0 MSTORE PUSH1 0x20 PUSH1 0x0 KECCAK256 SWAP1 JUMPDEST DUP2 SLOAD DUP2 MSTORE SWAP1 PUSH1 0x1 ADD SWAP1 PUSH1 0x20 ADD DUP1 DUP4 GT PUSH2 0x10D5 JUMPI DUP3 SWAP1 SUB PUSH1 0x1F AND DUP3 ADD SWAP2 JUMPDEST POP POP POP POP POP SWAP1 POP SWAP1 JUMP JUMPDEST PUSH1 0x0 PUSH2 0x1110 PUSH2 0x1109 PUSH2 0x22A5 JUMP JUMPDEST DUP5 DUP5 PUSH2 0x22B4 JUMP JUMPDEST PUSH1 0x1 SWAP1 POP SWAP3 SWAP2 POP POP JUMP JUMPDEST PUSH1 0x40 MLOAD DUP1 PUSH1 0x40 ADD PUSH1 0x40 MSTORE DUP1 PUSH1 0x1 DUP2 MSTORE PUSH1 0x20 ADD PUSH32 0x8900000000000000000000000000000000000000000000000000000000000000 DUP2 MSTORE POP DUP2 JUMP JUMPDEST PUSH1 0x60 PUSH2 0x115D PUSH2 0x35E9 JUMP JUMPDEST PUSH1 0x40 MLOAD DUP1 PUSH1 0x60 ADD PUSH1 0x40 MSTORE DUP1 PUSH1 0xA PUSH1 0x0 DUP11 PUSH20 0xFFFFFFFFFFFFFFFFFFFFFFFFFFFFFFFFFFFFFFFF AND PUSH20 0xFFFFFFFFFFFFFFFFFFFFFFFFFFFFFFFFFFFFFFFF AND DUP2 MSTORE PUSH1 0x20 ADD SWAP1 DUP2 MSTORE PUSH1 0x20 ADD PUSH1 0x0 KECCAK256 SLOAD DUP2 MSTORE PUSH1 0x20 ADD DUP9 PUSH20 0xFFFFFFFFFFFFFFFFFFFFFFFFFFFFFFFFFFFFFFFF AND DUP2 MSTORE PUSH1 0x20 ADD DUP8 DUP2 MSTORE POP SWAP1 POP PUSH2 0x11DC DUP8 DUP3 DUP8 DUP8 DUP8 PUSH2 0x24AB JUMP JUMPDEST PUSH2 0x1231 JUMPI PUSH1 0x40 MLOAD PUSH32 0x8C379A000000000000000000000000000000000000000000000000000000000 DUP2 MSTORE PUSH1 0x4 ADD DUP1 DUP1 PUSH1 0x20 ADD DUP3 DUP2 SUB DUP3 MSTORE PUSH1 0x21 DUP2 MSTORE PUSH1 0x20 ADD DUP1 PUSH2 0x38B3 PUSH1 0x21 SWAP2 CODECOPY PUSH1 0x40 ADD SWAP2 POP POP PUSH1 0x40 MLOAD DUP1 SWAP2 SUB SWAP1 REVERT JUMPDEST PUSH2 0x1284 PUSH1 0x1 PUSH1 0xA PUSH1 0x0 DUP11 PUSH20 0xFFFFFFFFFFFFFFFFFFFFFFFFFFFFFFFFFFFFFFFF AND PUSH20 0xFFFFFFFFFFFFFFFFFFFFFFFFFFFFFFFFFFFFFFFF AND DUP2 MSTORE PUSH1 0x20 ADD SWAP1 DUP2 MSTORE PUSH1 0x20 ADD PUSH1 0x0 KECCAK256 SLOAD PUSH2 0x25E2 SWAP1 SWAP2 SWAP1 PUSH4 0xFFFFFFFF AND JUMP JUMPDEST PUSH1 0xA PUSH1 0x0 DUP10 PUSH20 0xFFFFFFFFFFFFFFFFFFFFFFFFFFFFFFFFFFFFFFFF AND PUSH20 0xFFFFFFFFFFFFFFFFFFFFFFFFFFFFFFFFFFFFFFFF AND DUP2 MSTORE PUSH1 0x20 ADD SWAP1 DUP2 MSTORE PUSH1 0x20 ADD PUSH1 0x0 KECCAK256 DUP2 SWAP1 SSTORE POP PUSH32 0x5845892132946850460BFF5A0083F71031BC5BF9AADCD40F1DE79423EAC9B10B DUP8 CALLER DUP9 PUSH1 0x40 MLOAD DUP1 DUP5 PUSH20 0xFFFFFFFFFFFFFFFFFFFFFFFFFFFFFFFFFFFFFFFF AND PUSH20 0xFFFFFFFFFFFFFFFFFFFFFFFFFFFFFFFFFFFFFFFF AND DUP2 MSTORE PUSH1 0x20 ADD DUP4 PUSH20 0xFFFFFFFFFFFFFFFFFFFFFFFFFFFFFFFFFFFFFFFF AND PUSH20 0xFFFFFFFFFFFFFFFFFFFFFFFFFFFFFFFFFFFFFFFF AND DUP2 MSTORE PUSH1 0x20 ADD DUP1 PUSH1 0x20 ADD DUP3 DUP2 SUB DUP3 MSTORE DUP4 DUP2 DUP2 MLOAD DUP2 MSTORE PUSH1 0x20 ADD SWAP2 POP DUP1 MLOAD SWAP1 PUSH1 0x20 ADD SWAP1 DUP1 DUP4 DUP4 PUSH1 0x0 JUMPDEST DUP4 DUP2 LT ISZERO PUSH2 0x138F JUMPI DUP1 DUP3 ADD MLOAD DUP2 DUP5 ADD MSTORE PUSH1 0x20 DUP2 ADD SWAP1 POP PUSH2 0x1374 JUMP JUMPDEST POP POP POP POP SWAP1 POP SWAP1 DUP2 ADD SWAP1 PUSH1 0x1F AND DUP1 ISZERO PUSH2 0x13BC JUMPI DUP1 DUP3 SUB DUP1 MLOAD PUSH1 0x1 DUP4 PUSH1 0x20 SUB PUSH2 0x100 EXP SUB NOT AND DUP2 MSTORE PUSH1 0x20 ADD SWAP2 POP JUMPDEST POP SWAP5 POP POP POP POP POP PUSH1 0x40 MLOAD DUP1 SWAP2 SUB SWAP1 LOG1 PUSH1 0x0 PUSH1 0x60 ADDRESS PUSH20 0xFFFFFFFFFFFFFFFFFFFFFFFFFFFFFFFFFFFFFFFF AND DUP9 DUP11 PUSH1 0x40 MLOAD PUSH1 0x20 ADD DUP1 DUP4 DUP1 MLOAD SWAP1 PUSH1 0x20 ADD SWAP1 DUP1 DUP4 DUP4 JUMPDEST PUSH1 0x20 DUP4 LT PUSH2 0x141E JUMPI DUP1 MLOAD DUP3 MSTORE PUSH1 0x20 DUP3 ADD SWAP2 POP PUSH1 0x20 DUP2 ADD SWAP1 POP PUSH1 0x20 DUP4 SUB SWAP3 POP PUSH2 0x13FB JUMP JUMPDEST PUSH1 0x1 DUP4 PUSH1 0x20 SUB PUSH2 0x100 EXP SUB DUP1 NOT DUP3 MLOAD AND DUP2 DUP5 MLOAD AND DUP1 DUP3 OR DUP6 MSTORE POP POP POP POP POP POP SWAP1 POP ADD DUP3 PUSH20 0xFFFFFFFFFFFFFFFFFFFFFFFFFFFFFFFFFFFFFFFF AND PUSH20 0xFFFFFFFFFFFFFFFFFFFFFFFFFFFFFFFFFFFFFFFF AND PUSH1 0x60 SHL DUP2 MSTORE PUSH1 0x14 ADD SWAP3 POP POP POP PUSH1 0x40 MLOAD PUSH1 0x20 DUP2 DUP4 SUB SUB DUP2 MSTORE SWAP1 PUSH1 0x40 MSTORE PUSH1 0x40 MLOAD DUP1 DUP3 DUP1 MLOAD SWAP1 PUSH1 0x20 ADD SWAP1 DUP1 DUP4 DUP4 JUMPDEST PUSH1 0x20 DUP4 LT PUSH2 0x14BB JUMPI DUP1 MLOAD DUP3 MSTORE PUSH1 0x20 DUP3 ADD SWAP2 POP PUSH1 0x20 DUP2 ADD SWAP1 POP PUSH1 0x20 DUP4 SUB SWAP3 POP PUSH2 0x1498 JUMP JUMPDEST PUSH1 0x1 DUP4 PUSH1 0x20 SUB PUSH2 0x100 EXP SUB DUP1 NOT DUP3 MLOAD AND DUP2 DUP5 MLOAD AND DUP1 DUP3 OR DUP6 MSTORE POP POP POP POP POP POP SWAP1 POP ADD SWAP2 POP POP PUSH1 0x0 PUSH1 0x40 MLOAD DUP1 DUP4 SUB DUP2 PUSH1 0x0 DUP7 GAS CALL SWAP2 POP POP RETURNDATASIZE DUP1 PUSH1 0x0 DUP2 EQ PUSH2 0x151D JUMPI PUSH1 0x40 MLOAD SWAP2 POP PUSH1 0x1F NOT PUSH1 0x3F RETURNDATASIZE ADD AND DUP3 ADD PUSH1 0x40 MSTORE RETURNDATASIZE DUP3 MSTORE RETURNDATASIZE PUSH1 0x0 PUSH1 0x20 DUP5 ADD RETURNDATACOPY PUSH2 0x1522 JUMP JUMPDEST PUSH1 0x60 SWAP2 POP JUMPDEST POP SWAP2 POP SWAP2 POP DUP2 PUSH2 0x159A JUMPI PUSH1 0x40 MLOAD PUSH32 0x8C379A000000000000000000000000000000000000000000000000000000000 DUP2 MSTORE PUSH1 0x4 ADD DUP1 DUP1 PUSH1 0x20 ADD DUP3 DUP2 SUB DUP3 MSTORE PUSH1 0x1C DUP2 MSTORE PUSH1 0x20 ADD DUP1 PUSH32 0x46756E6374696F6E2063616C6C206E6F74207375636365737366756C00000000 DUP2 MSTORE POP PUSH1 0x20 ADD SWAP2 POP POP PUSH1 0x40 MLOAD DUP1 SWAP2 SUB SWAP1 REVERT JUMPDEST DUP1 SWAP4 POP POP POP POP SWAP6 SWAP5 POP POP POP POP POP JUMP JUMPDEST PUSH1 0x40 MLOAD DUP1 PUSH1 0x40 ADD PUSH1 0x40 MSTORE DUP1 PUSH1 0x1 DUP2 MSTORE PUSH1 0x20 ADD PUSH32 0x100000000000000000000000000000000000000000000000000000000000000 DUP2 MSTORE POP DUP2 JUMP JUMPDEST PUSH1 0x40 MLOAD DUP1 PUSH1 0x40 ADD PUSH1 0x40 MSTORE DUP1 PUSH1 0x1 DUP2 MSTORE PUSH1 0x20 ADD PUSH32 0x3100000000000000000000000000000000000000000000000000000000000000 DUP2 MSTORE POP DUP2 JUMP JUMPDEST PUSH1 0x0 PUSH1 0x2 SLOAD SWAP1 POP SWAP1 JUMP JUMPDEST PUSH1 0x0 PUSH1 0x9 SLOAD SWAP1 POP SWAP1 JUMP JUMPDEST PUSH1 0x0 PUSH2 0x163C DUP5 DUP5 DUP5 PUSH2 0x266A JUMP JUMPDEST PUSH2 0x16FD DUP5 PUSH2 0x1648 PUSH2 0x22A5 JUMP JUMPDEST PUSH2 0x16F8 DUP6 PUSH1 0x40 MLOAD DUP1 PUSH1 0x60 ADD PUSH1 0x40 MSTORE DUP1 PUSH1 0x28 DUP2 MSTORE PUSH1 0x20 ADD PUSH2 0x388B PUSH1 0x28 SWAP2 CODECOPY PUSH1 0x1 PUSH1 0x0 DUP12 PUSH20 0xFFFFFFFFFFFFFFFFFFFFFFFFFFFFFFFFFFFFFFFF AND PUSH20 0xFFFFFFFFFFFFFFFFFFFFFFFFFFFFFFFFFFFFFFFF AND DUP2 MSTORE PUSH1 0x20 ADD SWAP1 DUP2 MSTORE PUSH1 0x20 ADD PUSH1 0x0 KECCAK256 PUSH1 0x0 PUSH2 0x16AE PUSH2 0x22A5 JUMP JUMPDEST PUSH20 0xFFFFFFFFFFFFFFFFFFFFFFFFFFFFFFFFFFFFFFFF AND PUSH20 0xFFFFFFFFFFFFFFFFFFFFFFFFFFFFFFFFFFFFFFFF AND DUP2 MSTORE PUSH1 0x20 ADD SWAP1 DUP2 MSTORE PUSH1 0x20 ADD PUSH1 0x0 KECCAK256 SLOAD PUSH2 0x292B SWAP1 SWAP3 SWAP2 SWAP1 PUSH4 0xFFFFFFFF AND JUMP JUMPDEST PUSH2 0x22B4 JUMP JUMPDEST PUSH1 0x1 SWAP1 POP SWAP4 SWAP3 POP POP POP JUMP JUMPDEST PUSH1 0x0 PUSH1 0x6 PUSH1 0x0 DUP4 DUP2 MSTORE PUSH1 0x20 ADD SWAP1 DUP2 MSTORE PUSH1 0x20 ADD PUSH1 0x0 KECCAK256 PUSH1 0x2 ADD SLOAD SWAP1 POP SWAP2 SWAP1 POP JUMP JUMPDEST PUSH1 0x0 PUSH1 0xA PUSH1 0x0 DUP4 PUSH20 0xFFFFFFFFFFFFFFFFFFFFFFFFFFFFFFFFFFFFFFFF AND PUSH20 0xFFFFFFFFFFFFFFFFFFFFFFFFFFFFFFFFFFFFFFFF AND DUP2 MSTORE PUSH1 0x20 ADD SWAP1 DUP2 MSTORE PUSH1 0x20 ADD PUSH1 0x0 KECCAK256 SLOAD SWAP1 POP SWAP2 SWAP1 POP JUMP JUMPDEST PUSH2 0x1782 PUSH2 0x177C PUSH2 0x22A5 JUMP JUMPDEST DUP3 PUSH2 0x29EB JUMP JUMPDEST POP JUMP JUMPDEST PUSH2 0x17AC PUSH1 0x6 PUSH1 0x0 DUP5 DUP2 MSTORE PUSH1 0x20 ADD SWAP1 DUP2 MSTORE PUSH1 0x20 ADD PUSH1 0x0 KECCAK256 PUSH1 0x2 ADD SLOAD PUSH2 0x17A7 PUSH2 0x22A5 JUMP JUMPDEST PUSH2 0x1BB3 JUMP JUMPDEST PUSH2 0x1801 JUMPI PUSH1 0x40 MLOAD PUSH32 0x8C379A000000000000000000000000000000000000000000000000000000000 DUP2 MSTORE PUSH1 0x4 ADD DUP1 DUP1 PUSH1 0x20 ADD DUP3 DUP2 SUB DUP3 MSTORE PUSH1 0x2F DUP2 MSTORE PUSH1 0x20 ADD DUP1 PUSH2 0x370B PUSH1 0x2F SWAP2 CODECOPY PUSH1 0x40 ADD SWAP2 POP POP PUSH1 0x40 MLOAD DUP1 SWAP2 SUB SWAP1 REVERT JUMPDEST PUSH2 0x180B DUP3 DUP3 PUSH2 0x2BAF JUMP JUMPDEST POP POP JUMP JUMPDEST PUSH1 0x0 PUSH1 0x5 PUSH1 0x0 SWAP1 SLOAD SWAP1 PUSH2 0x100 EXP SWAP1 DIV PUSH1 0xFF AND SWAP1 POP SWAP1 JUMP JUMPDEST PUSH1 0x0 DUP1 CHAINID SWAP1 POP DUP1 SWAP2 POP POP SWAP1 JUMP JUMPDEST PUSH2 0x183B PUSH2 0x22A5 JUMP JUMPDEST PUSH20 0xFFFFFFFFFFFFFFFFFFFFFFFFFFFFFFFFFFFFFFFF AND DUP2 PUSH20 0xFFFFFFFFFFFFFFFFFFFFFFFFFFFFFFFFFFFFFFFF AND EQ PUSH2 0x18BE JUMPI PUSH1 0x40 MLOAD PUSH32 0x8C379A000000000000000000000000000000000000000000000000000000000 DUP2 MSTORE PUSH1 0x4 ADD DUP1 DUP1 PUSH1 0x20 ADD DUP3 DUP2 SUB DUP3 MSTORE PUSH1 0x2F DUP2 MSTORE PUSH1 0x20 ADD DUP1 PUSH2 0x3963 PUSH1 0x2F SWAP2 CODECOPY PUSH1 0x40 ADD SWAP2 POP POP PUSH1 0x40 MLOAD DUP1 SWAP2 SUB SWAP1 REVERT JUMPDEST PUSH2 0x18C8 DUP3 DUP3 PUSH2 0x2C43 JUMP JUMPDEST POP POP JUMP JUMPDEST PUSH1 0x0 PUSH2 0x1975 PUSH2 0x18D9 PUSH2 0x22A5 JUMP JUMPDEST DUP5 PUSH2 0x1970 DUP6 PUSH1 0x1 PUSH1 0x0 PUSH2 0x18EA PUSH2 0x22A5 JUMP JUMPDEST PUSH20 0xFFFFFFFFFFFFFFFFFFFFFFFFFFFFFFFFFFFFFFFF AND PUSH20 0xFFFFFFFFFFFFFFFFFFFFFFFFFFFFFFFFFFFFFFFF AND DUP2 MSTORE PUSH1 0x20 ADD SWAP1 DUP2 MSTORE PUSH1 0x20 ADD PUSH1 0x0 KECCAK256 PUSH1 0x0 DUP10 PUSH20 0xFFFFFFFFFFFFFFFFFFFFFFFFFFFFFFFFFFFFFFFF AND PUSH20 0xFFFFFFFFFFFFFFFFFFFFFFFFFFFFFFFFFFFFFFFF AND DUP2 MSTORE PUSH1 0x20 ADD SWAP1 DUP2 MSTORE PUSH1 0x20 ADD PUSH1 0x0 KECCAK256 SLOAD PUSH2 0x25E2 SWAP1 SWAP2 SWAP1 PUSH4 0xFFFFFFFF AND JUMP JUMPDEST PUSH2 0x22B4 JUMP JUMPDEST PUSH1 0x1 SWAP1 POP SWAP3 SWAP2 POP POP JUMP JUMPDEST PUSH1 0x0 DUP1 SHL PUSH2 0x1994 DUP2 PUSH2 0x198F PUSH2 0x22A5 JUMP JUMPDEST PUSH2 0x1BB3 JUMP JUMPDEST PUSH1 0x7 SWAP1 PUSH2 0x1A59 JUMPI PUSH1 0x40 MLOAD PUSH32 0x8C379A000000000000000000000000000000000000000000000000000000000 DUP2 MSTORE PUSH1 0x4 ADD DUP1 DUP1 PUSH1 0x20 ADD DUP3 DUP2 SUB DUP3 MSTORE DUP4 DUP2 DUP2 SLOAD PUSH1 0x1 DUP2 PUSH1 0x1 AND ISZERO PUSH2 0x100 MUL SUB AND PUSH1 0x2 SWAP1 DIV DUP2 MSTORE PUSH1 0x20 ADD SWAP2 POP DUP1 SLOAD PUSH1 0x1 DUP2 PUSH1 0x1 AND ISZERO PUSH2 0x100 MUL SUB AND PUSH1 0x2 SWAP1 DIV DUP1 ISZERO PUSH2 0x1A4A JUMPI DUP1 PUSH1 0x1F LT PUSH2 0x1A1F JUMPI PUSH2 0x100 DUP1 DUP4 SLOAD DIV MUL DUP4 MSTORE SWAP2 PUSH1 0x20 ADD SWAP2 PUSH2 0x1A4A JUMP JUMPDEST DUP3 ADD SWAP2 SWAP1 PUSH1 0x0 MSTORE PUSH1 0x20 PUSH1 0x0 KECCAK256 SWAP1 JUMPDEST DUP2 SLOAD DUP2 MSTORE SWAP1 PUSH1 0x1 ADD SWAP1 PUSH1 0x20 ADD DUP1 DUP4 GT PUSH2 0x1A2D JUMPI DUP3 SWAP1 SUB PUSH1 0x1F AND DUP3 ADD SWAP2 JUMPDEST POP POP SWAP3 POP POP POP PUSH1 0x40 MLOAD DUP1 SWAP2 SUB SWAP1 REVERT JUMPDEST POP PUSH2 0x1AA7 DUP4 DUP4 DUP1 DUP1 PUSH1 0x1F ADD PUSH1 0x20 DUP1 SWAP2 DIV MUL PUSH1 0x20 ADD PUSH1 0x40 MLOAD SWAP1 DUP2 ADD PUSH1 0x40 MSTORE DUP1 SWAP4 SWAP3 SWAP2 SWAP1 DUP2 DUP2 MSTORE PUSH1 0x20 ADD DUP4 DUP4 DUP1 DUP3 DUP5 CALLDATACOPY PUSH1 0x0 DUP2 DUP5 ADD MSTORE PUSH1 0x1F NOT PUSH1 0x1F DUP3 ADD AND SWAP1 POP DUP1 DUP4 ADD SWAP3 POP POP POP POP POP POP POP PUSH2 0x2CD7 JUMP JUMPDEST PUSH2 0x1B2A DUP4 DUP4 DUP1 DUP1 PUSH1 0x1F ADD PUSH1 0x20 DUP1 SWAP2 DIV MUL PUSH1 0x20 ADD PUSH1 0x40 MLOAD SWAP1 DUP2 ADD PUSH1 0x40 MSTORE DUP1 SWAP4 SWAP3 SWAP2 SWAP1 DUP2 DUP2 MSTORE PUSH1 0x20 ADD DUP4 DUP4 DUP1 DUP3 DUP5 CALLDATACOPY PUSH1 0x0 DUP2 DUP5 ADD MSTORE PUSH1 0x1F NOT PUSH1 0x1F DUP3 ADD AND SWAP1 POP DUP1 DUP4 ADD SWAP3 POP POP POP POP POP POP POP PUSH1 0x40 MLOAD DUP1 PUSH1 0x40 ADD PUSH1 0x40 MSTORE DUP1 PUSH1 0x1 DUP2 MSTORE PUSH1 0x20 ADD PUSH32 0x3100000000000000000000000000000000000000000000000000000000000000 DUP2 MSTORE POP PUSH2 0x2CF1 JUMP JUMPDEST POP POP POP JUMP JUMPDEST PUSH1 0x89 DUP2 JUMP JUMPDEST PUSH1 0x0 DUP1 PUSH1 0x0 DUP4 PUSH20 0xFFFFFFFFFFFFFFFFFFFFFFFFFFFFFFFFFFFFFFFF AND PUSH20 0xFFFFFFFFFFFFFFFFFFFFFFFFFFFFFFFFFFFFFFFF AND DUP2 MSTORE PUSH1 0x20 ADD SWAP1 DUP2 MSTORE PUSH1 0x20 ADD PUSH1 0x0 KECCAK256 SLOAD SWAP1 POP SWAP2 SWAP1 POP JUMP JUMPDEST PUSH1 0x1 DUP2 JUMP JUMPDEST PUSH1 0x0 PUSH2 0x1BAB DUP3 PUSH1 0x6 PUSH1 0x0 DUP7 DUP2 MSTORE PUSH1 0x20 ADD SWAP1 DUP2 MSTORE PUSH1 0x20 ADD PUSH1 0x0 KECCAK256 PUSH1 0x0 ADD PUSH2 0x2DA5 SWAP1 SWAP2 SWAP1 PUSH4 0xFFFFFFFF AND JUMP JUMPDEST SWAP1 POP SWAP3 SWAP2 POP POP JUMP JUMPDEST PUSH1 0x0 PUSH2 0x1BDD DUP3 PUSH1 0x6 PUSH1 0x0 DUP7 DUP2 MSTORE PUSH1 0x20 ADD SWAP1 DUP2 MSTORE PUSH1 0x20 ADD PUSH1 0x0 KECCAK256 PUSH1 0x0 ADD PUSH2 0x2DBF SWAP1 SWAP2 SWAP1 PUSH4 0xFFFFFFFF AND JUMP JUMPDEST SWAP1 POP SWAP3 SWAP2 POP POP JUMP JUMPDEST PUSH1 0x60 PUSH1 0x4 DUP1 SLOAD PUSH1 0x1 DUP2 PUSH1 0x1 AND ISZERO PUSH2 0x100 MUL SUB AND PUSH1 0x2 SWAP1 DIV DUP1 PUSH1 0x1F ADD PUSH1 0x20 DUP1 SWAP2 DIV MUL PUSH1 0x20 ADD PUSH1 0x40 MLOAD SWAP1 DUP2 ADD PUSH1 0x40 MSTORE DUP1 SWAP3 SWAP2 SWAP1 DUP2 DUP2 MSTORE PUSH1 0x20 ADD DUP3 DUP1 SLOAD PUSH1 0x1 DUP2 PUSH1 0x1 AND ISZERO PUSH2 0x100 MUL SUB AND PUSH1 0x2 SWAP1 DIV DUP1 ISZERO PUSH2 0x1C7D JUMPI DUP1 PUSH1 0x1F LT PUSH2 0x1C52 JUMPI PUSH2 0x100 DUP1 DUP4 SLOAD DIV MUL DUP4 MSTORE SWAP2 PUSH1 0x20 ADD SWAP2 PUSH2 0x1C7D JUMP JUMPDEST DUP3 ADD SWAP2 SWAP1 PUSH1 0x0 MSTORE PUSH1 0x20 PUSH1 0x0 KECCAK256 SWAP1 JUMPDEST DUP2 SLOAD DUP2 MSTORE SWAP1 PUSH1 0x1 ADD SWAP1 PUSH1 0x20 ADD DUP1 DUP4 GT PUSH2 0x1C60 JUMPI DUP3 SWAP1 SUB PUSH1 0x1F AND DUP3 ADD SWAP2 JUMPDEST POP POP POP POP POP SWAP1 POP SWAP1 JUMP JUMPDEST PUSH1 0x0 DUP1 SHL DUP2 JUMP JUMPDEST PUSH1 0x40 MLOAD DUP1 DUP1 PUSH32 0x4445504F5349544F525F524F4C45000000000000000000000000000000000000 DUP2 MSTORE POP PUSH1 0xE ADD SWAP1 POP PUSH1 0x40 MLOAD DUP1 SWAP2 SUB SWAP1 KECCAK256 DUP2 JUMP JUMPDEST PUSH1 0x0 PUSH2 0x1D8A PUSH2 0x1CD4 PUSH2 0x22A5 JUMP JUMPDEST DUP5 PUSH2 0x1D85 DUP6 PUSH1 0x40 MLOAD DUP1 PUSH1 0x60 ADD PUSH1 0x40 MSTORE DUP1 PUSH1 0x25 DUP2 MSTORE PUSH1 0x20 ADD PUSH2 0x393E PUSH1 0x25 SWAP2 CODECOPY PUSH1 0x1 PUSH1 0x0 PUSH2 0x1CFE PUSH2 0x22A5 JUMP JUMPDEST PUSH20 0xFFFFFFFFFFFFFFFFFFFFFFFFFFFFFFFFFFFFFFFF AND PUSH20 0xFFFFFFFFFFFFFFFFFFFFFFFFFFFFFFFFFFFFFFFF AND DUP2 MSTORE PUSH1 0x20 ADD SWAP1 DUP2 MSTORE PUSH1 0x20 ADD PUSH1 0x0 KECCAK256 PUSH1 0x0 DUP11 PUSH20 0xFFFFFFFFFFFFFFFFFFFFFFFFFFFFFFFFFFFFFFFF AND PUSH20 0xFFFFFFFFFFFFFFFFFFFFFFFFFFFFFFFFFFFFFFFF AND DUP2 MSTORE PUSH1 0x20 ADD SWAP1 DUP2 MSTORE PUSH1 0x20 ADD PUSH1 0x0 KECCAK256 SLOAD PUSH2 0x292B SWAP1 SWAP3 SWAP2 SWAP1 PUSH4 0xFFFFFFFF AND JUMP JUMPDEST PUSH2 0x22B4 JUMP JUMPDEST PUSH1 0x1 SWAP1 POP SWAP3 SWAP2 POP POP JUMP JUMPDEST PUSH1 0x0 PUSH2 0x1DA8 PUSH2 0x1DA1 PUSH2 0x22A5 JUMP JUMPDEST DUP5 DUP5 PUSH2 0x266A JUMP JUMPDEST PUSH1 0x1 SWAP1 POP SWAP3 SWAP2 POP POP JUMP JUMPDEST PUSH1 0x0 PUSH2 0x1DD2 PUSH1 0x6 PUSH1 0x0 DUP5 DUP2 MSTORE PUSH1 0x20 ADD SWAP1 DUP2 MSTORE PUSH1 0x20 ADD PUSH1 0x0 KECCAK256 PUSH1 0x0 ADD PUSH2 0x2DEF JUMP JUMPDEST SWAP1 POP SWAP2 SWAP1 POP JUMP JUMPDEST PUSH1 0x40 MLOAD DUP1 DUP1 PUSH32 0x4445504F5349544F525F524F4C45000000000000000000000000000000000000 DUP2 MSTORE POP PUSH1 0xE ADD SWAP1 POP PUSH1 0x40 MLOAD DUP1 SWAP2 SUB SWAP1 KECCAK256 PUSH2 0x1E20 DUP2 PUSH2 0x1E1B PUSH2 0x22A5 JUMP JUMPDEST PUSH2 0x1BB3 JUMP JUMPDEST PUSH1 0x7 SWAP1 PUSH2 0x1EE5 JUMPI PUSH1 0x40 MLOAD PUSH32 0x8C379A000000000000000000000000000000000000000000000000000000000 DUP2 MSTORE PUSH1 0x4 ADD DUP1 DUP1 PUSH1 0x20 ADD DUP3 DUP2 SUB DUP3 MSTORE DUP4 DUP2 DUP2 SLOAD PUSH1 0x1 DUP2 PUSH1 0x1 AND ISZERO PUSH2 0x100 MUL SUB AND PUSH1 0x2 SWAP1 DIV DUP2 MSTORE PUSH1 0x20 ADD SWAP2 POP DUP1 SLOAD PUSH1 0x1 DUP2 PUSH1 0x1 AND ISZERO PUSH2 0x100 MUL SUB AND PUSH1 0x2 SWAP1 DIV DUP1 ISZERO PUSH2 0x1ED6 JUMPI DUP1 PUSH1 0x1F LT PUSH2 0x1EAB JUMPI PUSH2 0x100 DUP1 DUP4 SLOAD DIV MUL DUP4 MSTORE SWAP2 PUSH1 0x20 ADD SWAP2 PUSH2 0x1ED6 JUMP JUMPDEST DUP3 ADD SWAP2 SWAP1 PUSH1 0x0 MSTORE PUSH1 0x20 PUSH1 0x0 KECCAK256 SWAP1 JUMPDEST DUP2 SLOAD DUP2 MSTORE SWAP1 PUSH1 0x1 ADD SWAP1 PUSH1 0x20 ADD DUP1 DUP4 GT PUSH2 0x1EB9 JUMPI DUP3 SWAP1 SUB PUSH1 0x1F AND DUP3 ADD SWAP2 JUMPDEST POP POP SWAP3 POP POP POP PUSH1 0x40 MLOAD DUP1 SWAP2 SUB SWAP1 REVERT JUMPDEST POP PUSH1 0x0 DUP4 DUP4 PUSH1 0x20 DUP2 LT ISZERO PUSH2 0x1EF8 JUMPI PUSH1 0x0 DUP1 REVERT JUMPDEST DUP2 ADD SWAP1 DUP1 DUP1 CALLDATALOAD SWAP1 PUSH1 0x20 ADD SWAP1 SWAP3 SWAP2 SWAP1 POP POP POP SWAP1 POP PUSH2 0x1F15 DUP6 DUP3 PUSH2 0x2E04 JUMP JUMPDEST POP POP POP POP POP JUMP JUMPDEST PUSH2 0x1F43 PUSH1 0x6 PUSH1 0x0 DUP5 DUP2 MSTORE PUSH1 0x20 ADD SWAP1 DUP2 MSTORE PUSH1 0x20 ADD PUSH1 0x0 KECCAK256 PUSH1 0x2 ADD SLOAD PUSH2 0x1F3E PUSH2 0x22A5 JUMP JUMPDEST PUSH2 0x1BB3 JUMP JUMPDEST PUSH2 0x1F98 JUMPI PUSH1 0x40 MLOAD PUSH32 0x8C379A000000000000000000000000000000000000000000000000000000000 DUP2 MSTORE PUSH1 0x4 ADD DUP1 DUP1 PUSH1 0x20 ADD DUP3 DUP2 SUB DUP3 MSTORE PUSH1 0x30 DUP2 MSTORE PUSH1 0x20 ADD DUP1 PUSH2 0x3836 PUSH1 0x30 SWAP2 CODECOPY PUSH1 0x40 ADD SWAP2 POP POP PUSH1 0x40 MLOAD DUP1 SWAP2 SUB SWAP1 REVERT JUMPDEST PUSH2 0x1FA2 DUP3 DUP3 PUSH2 0x2C43 JUMP JUMPDEST POP POP JUMP JUMPDEST PUSH1 0x0 PUSH1 0x1 PUSH1 0x0 DUP5 PUSH20 0xFFFFFFFFFFFFFFFFFFFFFFFFFFFFFFFFFFFFFFFF AND PUSH20 0xFFFFFFFFFFFFFFFFFFFFFFFFFFFFFFFFFFFFFFFF AND DUP2 MSTORE PUSH1 0x20 ADD SWAP1 DUP2 MSTORE PUSH1 0x20 ADD PUSH1 0x0 KECCAK256 PUSH1 0x0 DUP4 PUSH20 0xFFFFFFFFFFFFFFFFFFFFFFFFFFFFFFFFFFFFFFFF AND PUSH20 0xFFFFFFFFFFFFFFFFFFFFFFFFFFFFFFFFFFFFFFFF AND DUP2 MSTORE PUSH1 0x20 ADD SWAP1 DUP2 MSTORE PUSH1 0x20 ADD PUSH1 0x0 KECCAK256 SLOAD SWAP1 POP SWAP3 SWAP2 POP POP JUMP JUMPDEST PUSH1 0x8 PUSH1 0x0 SWAP1 SLOAD SWAP1 PUSH2 0x100 EXP SWAP1 DIV PUSH1 0xFF AND ISZERO PUSH2 0x20B0 JUMPI PUSH1 0x40 MLOAD PUSH32 0x8C379A000000000000000000000000000000000000000000000000000000000 DUP2 MSTORE PUSH1 0x4 ADD DUP1 DUP1 PUSH1 0x20 ADD DUP3 DUP2 SUB DUP3 MSTORE PUSH1 0xE DUP2 MSTORE PUSH1 0x20 ADD DUP1 PUSH32 0x616C726561647920696E69746564000000000000000000000000000000000000 DUP2 MSTORE POP PUSH1 0x20 ADD SWAP2 POP POP PUSH1 0x40 MLOAD DUP1 SWAP2 SUB SWAP1 REVERT JUMPDEST PUSH2 0x20FD DUP7 DUP7 DUP1 DUP1 PUSH1 0x1F ADD PUSH1 0x20 DUP1 SWAP2 DIV MUL PUSH1 0x20 ADD PUSH1 0x40 MLOAD SWAP1 DUP2 ADD PUSH1 0x40 MSTORE DUP1 SWAP4 SWAP3 SWAP2 SWAP1 DUP2 DUP2 MSTORE PUSH1 0x20 ADD DUP4 DUP4 DUP1 DUP3 DUP5 CALLDATACOPY PUSH1 0x0 DUP2 DUP5 ADD MSTORE PUSH1 0x1F NOT PUSH1 0x1F DUP3 ADD AND SWAP1 POP DUP1 DUP4 ADD SWAP3 POP POP POP POP POP POP POP PUSH2 0x2CD7 JUMP JUMPDEST PUSH2 0x214A DUP5 DUP5 DUP1 DUP1 PUSH1 0x1F ADD PUSH1 0x20 DUP1 SWAP2 DIV MUL PUSH1 0x20 ADD PUSH1 0x40 MLOAD SWAP1 DUP2 ADD PUSH1 0x40 MSTORE DUP1 SWAP4 SWAP3 SWAP2 SWAP1 DUP2 DUP2 MSTORE PUSH1 0x20 ADD DUP4 DUP4 DUP1 DUP3 DUP5 CALLDATACOPY PUSH1 0x0 DUP2 DUP5 ADD MSTORE PUSH1 0x1F NOT PUSH1 0x1F DUP3 ADD AND SWAP1 POP DUP1 DUP4 ADD SWAP3 POP POP POP POP POP POP POP PUSH2 0x2FCB JUMP JUMPDEST PUSH2 0x2153 DUP3 PUSH2 0x2FE5 JUMP JUMPDEST PUSH2 0x21AC DUP5 DUP5 PUSH1 0x40 MLOAD PUSH1 0x20 ADD DUP1 DUP1 PUSH32 0x4368696C64000000000000000000000000000000000000000000000000000000 DUP2 MSTORE POP PUSH1 0x5 ADD DUP4 DUP4 DUP1 DUP3 DUP5 CALLDATACOPY DUP1 DUP4 ADD SWAP3 POP POP POP SWAP3 POP POP POP PUSH1 0x40 MLOAD PUSH1 0x20 DUP2 DUP4 SUB SUB DUP2 MSTORE SWAP1 PUSH1 0x40 MSTORE PUSH2 0x3003 JUMP JUMPDEST PUSH2 0x21C0 PUSH1 0x0 DUP1 SHL PUSH2 0x21BB PUSH2 0x22A5 JUMP JUMPDEST PUSH2 0x30AF JUMP JUMPDEST PUSH2 0x21FF PUSH1 0x40 MLOAD DUP1 DUP1 PUSH32 0x4445504F5349544F525F524F4C45000000000000000000000000000000000000 DUP2 MSTORE POP PUSH1 0xE ADD SWAP1 POP PUSH1 0x40 MLOAD DUP1 SWAP2 SUB SWAP1 KECCAK256 DUP3 PUSH2 0x30AF JUMP JUMPDEST PUSH2 0x2282 DUP7 DUP7 DUP1 DUP1 PUSH1 0x1F ADD PUSH1 0x20 DUP1 SWAP2 DIV MUL PUSH1 0x20 ADD PUSH1 0x40 MLOAD SWAP1 DUP2 ADD PUSH1 0x40 MSTORE DUP1 SWAP4 SWAP3 SWAP2 SWAP1 DUP2 DUP2 MSTORE PUSH1 0x20 ADD DUP4 DUP4 DUP1 DUP3 DUP5 CALLDATACOPY PUSH1 0x0 DUP2 DUP5 ADD MSTORE PUSH1 0x1F NOT PUSH1 0x1F DUP3 ADD AND SWAP1 POP DUP1 DUP4 ADD SWAP3 POP POP POP POP POP POP POP PUSH1 0x40 MLOAD DUP1 PUSH1 0x40 ADD PUSH1 0x40 MSTORE DUP1 PUSH1 0x1 DUP2 MSTORE PUSH1 0x20 ADD PUSH32 0x3100000000000000000000000000000000000000000000000000000000000000 DUP2 MSTORE POP PUSH2 0x30BD JUMP JUMPDEST PUSH1 0x1 PUSH1 0x8 PUSH1 0x0 PUSH2 0x100 EXP DUP2 SLOAD DUP2 PUSH1 0xFF MUL NOT AND SWAP1 DUP4 ISZERO ISZERO MUL OR SWAP1 SSTORE POP POP POP POP POP POP POP JUMP JUMPDEST PUSH1 0x0 PUSH2 0x22AF PUSH2 0x3169 JUMP JUMPDEST SWAP1 POP SWAP1 JUMP JUMPDEST PUSH1 0x0 PUSH20 0xFFFFFFFFFFFFFFFFFFFFFFFFFFFFFFFFFFFFFFFF AND DUP4 PUSH20 0xFFFFFFFFFFFFFFFFFFFFFFFFFFFFFFFFFFFFFFFF AND EQ ISZERO PUSH2 0x233A JUMPI PUSH1 0x40 MLOAD PUSH32 0x8C379A000000000000000000000000000000000000000000000000000000000 DUP2 MSTORE PUSH1 0x4 ADD DUP1 DUP1 PUSH1 0x20 ADD DUP3 DUP2 SUB DUP3 MSTORE PUSH1 0x24 DUP2 MSTORE PUSH1 0x20 ADD DUP1 PUSH2 0x391A PUSH1 0x24 SWAP2 CODECOPY PUSH1 0x40 ADD SWAP2 POP POP PUSH1 0x40 MLOAD DUP1 SWAP2 SUB SWAP1 REVERT JUMPDEST PUSH1 0x0 PUSH20 0xFFFFFFFFFFFFFFFFFFFFFFFFFFFFFFFFFFFFFFFF AND DUP3 PUSH20 0xFFFFFFFFFFFFFFFFFFFFFFFFFFFFFFFFFFFFFFFF AND EQ ISZERO PUSH2 0x23C0 JUMPI PUSH1 0x40 MLOAD PUSH32 0x8C379A000000000000000000000000000000000000000000000000000000000 DUP2 MSTORE PUSH1 0x4 ADD DUP1 DUP1 PUSH1 0x20 ADD DUP3 DUP2 SUB DUP3 MSTORE PUSH1 0x22 DUP2 MSTORE PUSH1 0x20 ADD DUP1 PUSH2 0x379F PUSH1 0x22 SWAP2 CODECOPY PUSH1 0x40 ADD SWAP2 POP POP PUSH1 0x40 MLOAD DUP1 SWAP2 SUB SWAP1 REVERT JUMPDEST DUP1 PUSH1 0x1 PUSH1 0x0 DUP6 PUSH20 0xFFFFFFFFFFFFFFFFFFFFFFFFFFFFFFFFFFFFFFFF AND PUSH20 0xFFFFFFFFFFFFFFFFFFFFFFFFFFFFFFFFFFFFFFFF AND DUP2 MSTORE PUSH1 0x20 ADD SWAP1 DUP2 MSTORE PUSH1 0x20 ADD PUSH1 0x0 KECCAK256 PUSH1 0x0 DUP5 PUSH20 0xFFFFFFFFFFFFFFFFFFFFFFFFFFFFFFFFFFFFFFFF AND PUSH20 0xFFFFFFFFFFFFFFFFFFFFFFFFFFFFFFFFFFFFFFFF AND DUP2 MSTORE PUSH1 0x20 ADD SWAP1 DUP2 MSTORE PUSH1 0x20 ADD PUSH1 0x0 KECCAK256 DUP2 SWAP1 SSTORE POP DUP2 PUSH20 0xFFFFFFFFFFFFFFFFFFFFFFFFFFFFFFFFFFFFFFFF AND DUP4 PUSH20 0xFFFFFFFFFFFFFFFFFFFFFFFFFFFFFFFFFFFFFFFF AND PUSH32 0x8C5BE1E5EBEC7D5BD14F71427D1E84F3DD0314C0F7B2291E5B200AC8C7C3B925 DUP4 PUSH1 0x40 MLOAD DUP1 DUP3 DUP2 MSTORE PUSH1 0x20 ADD SWAP2 POP POP PUSH1 0x40 MLOAD DUP1 SWAP2 SUB SWAP1 LOG3 POP POP POP JUMP JUMPDEST PUSH1 0x0 DUP1 PUSH20 0xFFFFFFFFFFFFFFFFFFFFFFFFFFFFFFFFFFFFFFFF AND DUP7 PUSH20 0xFFFFFFFFFFFFFFFFFFFFFFFFFFFFFFFFFFFFFFFF AND EQ ISZERO PUSH2 0x2532 JUMPI PUSH1 0x40 MLOAD PUSH32 0x8C379A000000000000000000000000000000000000000000000000000000000 DUP2 MSTORE PUSH1 0x4 ADD DUP1 DUP1 PUSH1 0x20 ADD DUP3 DUP2 SUB DUP3 MSTORE PUSH1 0x25 DUP2 MSTORE PUSH1 0x20 ADD DUP1 PUSH2 0x3866 PUSH1 0x25 SWAP2 CODECOPY PUSH1 0x40 ADD SWAP2 POP POP PUSH1 0x40 MLOAD DUP1 SWAP2 SUB SWAP1 REVERT JUMPDEST PUSH1 0x1 PUSH2 0x2545 PUSH2 0x2540 DUP8 PUSH2 0x321E JUMP JUMPDEST PUSH2 0x32C4 JUMP JUMPDEST DUP4 DUP7 DUP7 PUSH1 0x40 MLOAD PUSH1 0x0 DUP2 MSTORE PUSH1 0x20 ADD PUSH1 0x40 MSTORE PUSH1 0x40 MLOAD DUP1 DUP6 DUP2 MSTORE PUSH1 0x20 ADD DUP5 PUSH1 0xFF AND PUSH1 0xFF AND DUP2 MSTORE PUSH1 0x20 ADD DUP4 DUP2 MSTORE PUSH1 0x20 ADD DUP3 DUP2 MSTORE PUSH1 0x20 ADD SWAP5 POP POP POP POP POP PUSH1 0x20 PUSH1 0x40 MLOAD PUSH1 0x20 DUP2 SUB SWAP1 DUP1 DUP5 SUB SWAP1 DUP6 GAS STATICCALL ISZERO DUP1 ISZERO PUSH2 0x259F JUMPI RETURNDATASIZE PUSH1 0x0 DUP1 RETURNDATACOPY RETURNDATASIZE PUSH1 0x0 REVERT JUMPDEST POP POP POP PUSH1 0x20 PUSH1 0x40 MLOAD SUB MLOAD PUSH20 0xFFFFFFFFFFFFFFFFFFFFFFFFFFFFFFFFFFFFFFFF AND DUP7 PUSH20 0xFFFFFFFFFFFFFFFFFFFFFFFFFFFFFFFFFFFFFFFF AND EQ SWAP1 POP SWAP6 SWAP5 POP POP POP POP POP JUMP JUMPDEST PUSH1 0x0 DUP1 DUP3 DUP5 ADD SWAP1 POP DUP4 DUP2 LT ISZERO PUSH2 0x2660 JUMPI PUSH1 0x40 MLOAD PUSH32 0x8C379A000000000000000000000000000000000000000000000000000000000 DUP2 MSTORE PUSH1 0x4 ADD DUP1 DUP1 PUSH1 0x20 ADD DUP3 DUP2 SUB DUP3 MSTORE PUSH1 0x1B DUP2 MSTORE PUSH1 0x20 ADD DUP1 PUSH32 0x536166654D6174683A206164646974696F6E206F766572666C6F770000000000 DUP2 MSTORE POP PUSH1 0x20 ADD SWAP2 POP POP PUSH1 0x40 MLOAD DUP1 SWAP2 SUB SWAP1 REVERT JUMPDEST DUP1 SWAP2 POP POP SWAP3 SWAP2 POP POP JUMP JUMPDEST PUSH1 0x0 PUSH20 0xFFFFFFFFFFFFFFFFFFFFFFFFFFFFFFFFFFFFFFFF AND DUP4 PUSH20 0xFFFFFFFFFFFFFFFFFFFFFFFFFFFFFFFFFFFFFFFF AND EQ ISZERO PUSH2 0x26F0 JUMPI PUSH1 0x40 MLOAD PUSH32 0x8C379A000000000000000000000000000000000000000000000000000000000 DUP2 MSTORE PUSH1 0x4 ADD DUP1 DUP1 PUSH1 0x20 ADD DUP3 DUP2 SUB DUP3 MSTORE PUSH1 0x25 DUP2 MSTORE PUSH1 0x20 ADD DUP1 PUSH2 0x38F5 PUSH1 0x25 SWAP2 CODECOPY PUSH1 0x40 ADD SWAP2 POP POP PUSH1 0x40 MLOAD DUP1 SWAP2 SUB SWAP1 REVERT JUMPDEST PUSH1 0x0 PUSH20 0xFFFFFFFFFFFFFFFFFFFFFFFFFFFFFFFFFFFFFFFF AND DUP3 PUSH20 0xFFFFFFFFFFFFFFFFFFFFFFFFFFFFFFFFFFFFFFFF AND EQ ISZERO PUSH2 0x2776 JUMPI PUSH1 0x40 MLOAD PUSH32 0x8C379A000000000000000000000000000000000000000000000000000000000 DUP2 MSTORE PUSH1 0x4 ADD DUP1 DUP1 PUSH1 0x20 ADD DUP3 DUP2 SUB DUP3 MSTORE PUSH1 0x23 DUP2 MSTORE PUSH1 0x20 ADD DUP1 PUSH2 0x36E8 PUSH1 0x23 SWAP2 CODECOPY PUSH1 0x40 ADD SWAP2 POP POP PUSH1 0x40 MLOAD DUP1 SWAP2 SUB SWAP1 REVERT JUMPDEST PUSH2 0x2781 DUP4 DUP4 DUP4 PUSH2 0x332B JUMP JUMPDEST PUSH2 0x27EC DUP2 PUSH1 0x40 MLOAD DUP1 PUSH1 0x60 ADD PUSH1 0x40 MSTORE DUP1 PUSH1 0x26 DUP2 MSTORE PUSH1 0x20 ADD PUSH2 0x3810 PUSH1 0x26 SWAP2 CODECOPY PUSH1 0x0 DUP1 DUP8 PUSH20 0xFFFFFFFFFFFFFFFFFFFFFFFFFFFFFFFFFFFFFFFF AND PUSH20 0xFFFFFFFFFFFFFFFFFFFFFFFFFFFFFFFFFFFFFFFF AND DUP2 MSTORE PUSH1 0x20 ADD SWAP1 DUP2 MSTORE PUSH1 0x20 ADD PUSH1 0x0 KECCAK256 SLOAD PUSH2 0x292B SWAP1 SWAP3 SWAP2 SWAP1 PUSH4 0xFFFFFFFF AND JUMP JUMPDEST PUSH1 0x0 DUP1 DUP6 PUSH20 0xFFFFFFFFFFFFFFFFFFFFFFFFFFFFFFFFFFFFFFFF AND PUSH20 0xFFFFFFFFFFFFFFFFFFFFFFFFFFFFFFFFFFFFFFFF AND DUP2 MSTORE PUSH1 0x20 ADD SWAP1 DUP2 MSTORE PUSH1 0x20 ADD PUSH1 0x0 KECCAK256 DUP2 SWAP1 SSTORE POP PUSH2 0x287F DUP2 PUSH1 0x0 DUP1 DUP6 PUSH20 0xFFFFFFFFFFFFFFFFFFFFFFFFFFFFFFFFFFFFFFFF AND PUSH20 0xFFFFFFFFFFFFFFFFFFFFFFFFFFFFFFFFFFFFFFFF AND DUP2 MSTORE PUSH1 0x20 ADD SWAP1 DUP2 MSTORE PUSH1 0x20 ADD PUSH1 0x0 KECCAK256 SLOAD PUSH2 0x25E2 SWAP1 SWAP2 SWAP1 PUSH4 0xFFFFFFFF AND JUMP JUMPDEST PUSH1 0x0 DUP1 DUP5 PUSH20 0xFFFFFFFFFFFFFFFFFFFFFFFFFFFFFFFFFFFFFFFF AND PUSH20 0xFFFFFFFFFFFFFFFFFFFFFFFFFFFFFFFFFFFFFFFF AND DUP2 MSTORE PUSH1 0x20 ADD SWAP1 DUP2 MSTORE PUSH1 0x20 ADD PUSH1 0x0 KECCAK256 DUP2 SWAP1 SSTORE POP DUP2 PUSH20 0xFFFFFFFFFFFFFFFFFFFFFFFFFFFFFFFFFFFFFFFF AND DUP4 PUSH20 0xFFFFFFFFFFFFFFFFFFFFFFFFFFFFFFFFFFFFFFFF AND PUSH32 0xDDF252AD1BE2C89B69C2B068FC378DAA952BA7F163C4A11628F55A4DF523B3EF DUP4 PUSH1 0x40 MLOAD DUP1 DUP3 DUP2 MSTORE PUSH1 0x20 ADD SWAP2 POP POP PUSH1 0x40 MLOAD DUP1 SWAP2 SUB SWAP1 LOG3 POP POP POP JUMP JUMPDEST PUSH1 0x0 DUP4 DUP4 GT ISZERO DUP3 SWAP1 PUSH2 0x29D8 JUMPI PUSH1 0x40 MLOAD PUSH32 0x8C379A000000000000000000000000000000000000000000000000000000000 DUP2 MSTORE PUSH1 0x4 ADD DUP1 DUP1 PUSH1 0x20 ADD DUP3 DUP2 SUB DUP3 MSTORE DUP4 DUP2 DUP2 MLOAD DUP2 MSTORE PUSH1 0x20 ADD SWAP2 POP DUP1 MLOAD SWAP1 PUSH1 0x20 ADD SWAP1 DUP1 DUP4 DUP4 PUSH1 0x0 JUMPDEST DUP4 DUP2 LT ISZERO PUSH2 0x299D JUMPI DUP1 DUP3 ADD MLOAD DUP2 DUP5 ADD MSTORE PUSH1 0x20 DUP2 ADD SWAP1 POP PUSH2 0x2982 JUMP JUMPDEST POP POP POP POP SWAP1 POP SWAP1 DUP2 ADD SWAP1 PUSH1 0x1F AND DUP1 ISZERO PUSH2 0x29CA JUMPI DUP1 DUP3 SUB DUP1 MLOAD PUSH1 0x1 DUP4 PUSH1 0x20 SUB PUSH2 0x100 EXP SUB NOT AND DUP2 MSTORE PUSH1 0x20 ADD SWAP2 POP JUMPDEST POP SWAP3 POP POP POP PUSH1 0x40 MLOAD DUP1 SWAP2 SUB SWAP1 REVERT JUMPDEST POP PUSH1 0x0 DUP4 DUP6 SUB SWAP1 POP DUP1 SWAP2 POP POP SWAP4 SWAP3 POP POP POP JUMP JUMPDEST PUSH1 0x0 PUSH20 0xFFFFFFFFFFFFFFFFFFFFFFFFFFFFFFFFFFFFFFFF AND DUP3 PUSH20 0xFFFFFFFFFFFFFFFFFFFFFFFFFFFFFFFFFFFFFFFF AND EQ ISZERO PUSH2 0x2A71 JUMPI PUSH1 0x40 MLOAD PUSH32 0x8C379A000000000000000000000000000000000000000000000000000000000 DUP2 MSTORE PUSH1 0x4 ADD DUP1 DUP1 PUSH1 0x20 ADD DUP3 DUP2 SUB DUP3 MSTORE PUSH1 0x21 DUP2 MSTORE PUSH1 0x20 ADD DUP1 PUSH2 0x38D4 PUSH1 0x21 SWAP2 CODECOPY PUSH1 0x40 ADD SWAP2 POP POP PUSH1 0x40 MLOAD DUP1 SWAP2 SUB SWAP1 REVERT JUMPDEST PUSH2 0x2A7D DUP3 PUSH1 0x0 DUP4 PUSH2 0x332B JUMP JUMPDEST PUSH2 0x2AE8 DUP2 PUSH1 0x40 MLOAD DUP1 PUSH1 0x60 ADD PUSH1 0x40 MSTORE DUP1 PUSH1 0x22 DUP2 MSTORE PUSH1 0x20 ADD PUSH2 0x373A PUSH1 0x22 SWAP2 CODECOPY PUSH1 0x0 DUP1 DUP7 PUSH20 0xFFFFFFFFFFFFFFFFFFFFFFFFFFFFFFFFFFFFFFFF AND PUSH20 0xFFFFFFFFFFFFFFFFFFFFFFFFFFFFFFFFFFFFFFFF AND DUP2 MSTORE PUSH1 0x20 ADD SWAP1 DUP2 MSTORE PUSH1 0x20 ADD PUSH1 0x0 KECCAK256 SLOAD PUSH2 0x292B SWAP1 SWAP3 SWAP2 SWAP1 PUSH4 0xFFFFFFFF AND JUMP JUMPDEST PUSH1 0x0 DUP1 DUP5 PUSH20 0xFFFFFFFFFFFFFFFFFFFFFFFFFFFFFFFFFFFFFFFF AND PUSH20 0xFFFFFFFFFFFFFFFFFFFFFFFFFFFFFFFFFFFFFFFF AND DUP2 MSTORE PUSH1 0x20 ADD SWAP1 DUP2 MSTORE PUSH1 0x20 ADD PUSH1 0x0 KECCAK256 DUP2 SWAP1 SSTORE POP PUSH2 0x2B3F DUP2 PUSH1 0x2 SLOAD PUSH2 0x3330 SWAP1 SWAP2 SWAP1 PUSH4 0xFFFFFFFF AND JUMP JUMPDEST PUSH1 0x2 DUP2 SWAP1 SSTORE POP PUSH1 0x0 PUSH20 0xFFFFFFFFFFFFFFFFFFFFFFFFFFFFFFFFFFFFFFFF AND DUP3 PUSH20 0xFFFFFFFFFFFFFFFFFFFFFFFFFFFFFFFFFFFFFFFF AND PUSH32 0xDDF252AD1BE2C89B69C2B068FC378DAA952BA7F163C4A11628F55A4DF523B3EF DUP4 PUSH1 0x40 MLOAD DUP1 DUP3 DUP2 MSTORE PUSH1 0x20 ADD SWAP2 POP POP PUSH1 0x40 MLOAD DUP1 SWAP2 SUB SWAP1 LOG3 POP POP JUMP JUMPDEST PUSH2 0x2BD7 DUP2 PUSH1 0x6 PUSH1 0x0 DUP6 DUP2 MSTORE PUSH1 0x20 ADD SWAP1 DUP2 MSTORE PUSH1 0x20 ADD PUSH1 0x0 KECCAK256 PUSH1 0x0 ADD PUSH2 0x337A SWAP1 SWAP2 SWAP1 PUSH4 0xFFFFFFFF AND JUMP JUMPDEST ISZERO PUSH2 0x2C3F JUMPI PUSH2 0x2BE4 PUSH2 0x22A5 JUMP JUMPDEST PUSH20 0xFFFFFFFFFFFFFFFFFFFFFFFFFFFFFFFFFFFFFFFF AND DUP2 PUSH20 0xFFFFFFFFFFFFFFFFFFFFFFFFFFFFFFFFFFFFFFFF AND DUP4 PUSH32 0x2F8788117E7EFF1D82E926EC794901D17C78024A50270940304540A733656F0D PUSH1 0x40 MLOAD PUSH1 0x40 MLOAD DUP1 SWAP2 SUB SWAP1 LOG4 JUMPDEST POP POP JUMP JUMPDEST PUSH2 0x2C6B DUP2 PUSH1 0x6 PUSH1 0x0 DUP6 DUP2 MSTORE PUSH1 0x20 ADD SWAP1 DUP2 MSTORE PUSH1 0x20 ADD PUSH1 0x0 KECCAK256 PUSH1 0x0 ADD PUSH2 0x33AA SWAP1 SWAP2 SWAP1 PUSH4 0xFFFFFFFF AND JUMP JUMPDEST ISZERO PUSH2 0x2CD3 JUMPI PUSH2 0x2C78 PUSH2 0x22A5 JUMP JUMPDEST PUSH20 0xFFFFFFFFFFFFFFFFFFFFFFFFFFFFFFFFFFFFFFFF AND DUP2 PUSH20 0xFFFFFFFFFFFFFFFFFFFFFFFFFFFFFFFFFFFFFFFF AND DUP4 PUSH32 0xF6391F5C32D9C69D2A47EA670B442974B53935D1EDC7FD64EB21E047A839171B PUSH1 0x40 MLOAD PUSH1 0x40 MLOAD DUP1 SWAP2 SUB SWAP1 LOG4 JUMPDEST POP POP JUMP JUMPDEST DUP1 PUSH1 0x3 SWAP1 DUP1 MLOAD SWAP1 PUSH1 0x20 ADD SWAP1 PUSH2 0x2CED SWAP3 SWAP2 SWAP1 PUSH2 0x3620 JUMP JUMPDEST POP POP JUMP JUMPDEST PUSH1 0x40 MLOAD DUP1 PUSH1 0x80 ADD PUSH1 0x40 MSTORE DUP1 PUSH1 0x4F DUP2 MSTORE PUSH1 0x20 ADD PUSH2 0x37C1 PUSH1 0x4F SWAP2 CODECOPY DUP1 MLOAD SWAP1 PUSH1 0x20 ADD KECCAK256 DUP3 DUP1 MLOAD SWAP1 PUSH1 0x20 ADD KECCAK256 DUP3 DUP1 MLOAD SWAP1 PUSH1 0x20 ADD KECCAK256 ADDRESS PUSH2 0x2D2A PUSH2 0x1826 JUMP JUMPDEST PUSH1 0x0 SHL PUSH1 0x40 MLOAD PUSH1 0x20 ADD DUP1 DUP7 DUP2 MSTORE PUSH1 0x20 ADD DUP6 DUP2 MSTORE PUSH1 0x20 ADD DUP5 DUP2 MSTORE PUSH1 0x20 ADD DUP4 PUSH20 0xFFFFFFFFFFFFFFFFFFFFFFFFFFFFFFFFFFFFFFFF AND PUSH20 0xFFFFFFFFFFFFFFFFFFFFFFFFFFFFFFFFFFFFFFFF AND DUP2 MSTORE PUSH1 0x20 ADD DUP3 DUP2 MSTORE PUSH1 0x20 ADD SWAP6 POP POP POP POP POP POP PUSH1 0x40 MLOAD PUSH1 0x20 DUP2 DUP4 SUB SUB DUP2 MSTORE SWAP1 PUSH1 0x40 MSTORE DUP1 MLOAD SWAP1 PUSH1 0x20 ADD KECCAK256 PUSH1 0x9 DUP2 SWAP1 SSTORE POP POP POP JUMP JUMPDEST PUSH1 0x0 PUSH2 0x2DB4 DUP4 PUSH1 0x0 ADD DUP4 PUSH2 0x33DA JUMP JUMPDEST PUSH1 0x0 SHR SWAP1 POP SWAP3 SWAP2 POP POP JUMP JUMPDEST PUSH1 0x0 PUSH2 0x2DE7 DUP4 PUSH1 0x0 ADD DUP4 PUSH20 0xFFFFFFFFFFFFFFFFFFFFFFFFFFFFFFFFFFFFFFFF AND PUSH1 0x0 SHL PUSH2 0x345D JUMP JUMPDEST SWAP1 POP SWAP3 SWAP2 POP POP JUMP JUMPDEST PUSH1 0x0 PUSH2 0x2DFD DUP3 PUSH1 0x0 ADD PUSH2 0x3480 JUMP JUMPDEST SWAP1 POP SWAP2 SWAP1 POP JUMP JUMPDEST PUSH1 0x0 PUSH20 0xFFFFFFFFFFFFFFFFFFFFFFFFFFFFFFFFFFFFFFFF AND DUP3 PUSH20 0xFFFFFFFFFFFFFFFFFFFFFFFFFFFFFFFFFFFFFFFF AND EQ ISZERO PUSH2 0x2EA7 JUMPI PUSH1 0x40 MLOAD PUSH32 0x8C379A000000000000000000000000000000000000000000000000000000000 DUP2 MSTORE PUSH1 0x4 ADD DUP1 DUP1 PUSH1 0x20 ADD DUP3 DUP2 SUB DUP3 MSTORE PUSH1 0x1F DUP2 MSTORE PUSH1 0x20 ADD DUP1 PUSH32 0x45524332303A206D696E7420746F20746865207A65726F206164647265737300 DUP2 MSTORE POP PUSH1 0x20 ADD SWAP2 POP POP PUSH1 0x40 MLOAD DUP1 SWAP2 SUB SWAP1 REVERT JUMPDEST PUSH2 0x2EB3 PUSH1 0x0 DUP4 DUP4 PUSH2 0x332B JUMP JUMPDEST PUSH2 0x2EC8 DUP2 PUSH1 0x2 SLOAD PUSH2 0x25E2 SWAP1 SWAP2 SWAP1 PUSH4 0xFFFFFFFF AND JUMP JUMPDEST PUSH1 0x2 DUP2 SWAP1 SSTORE POP PUSH2 0x2F1F DUP2 PUSH1 0x0 DUP1 DUP6 PUSH20 0xFFFFFFFFFFFFFFFFFFFFFFFFFFFFFFFFFFFFFFFF AND PUSH20 0xFFFFFFFFFFFFFFFFFFFFFFFFFFFFFFFFFFFFFFFF AND DUP2 MSTORE PUSH1 0x20 ADD SWAP1 DUP2 MSTORE PUSH1 0x20 ADD PUSH1 0x0 KECCAK256 SLOAD PUSH2 0x25E2 SWAP1 SWAP2 SWAP1 PUSH4 0xFFFFFFFF AND JUMP JUMPDEST PUSH1 0x0 DUP1 DUP5 PUSH20 0xFFFFFFFFFFFFFFFFFFFFFFFFFFFFFFFFFFFFFFFF AND PUSH20 0xFFFFFFFFFFFFFFFFFFFFFFFFFFFFFFFFFFFFFFFF AND DUP2 MSTORE PUSH1 0x20 ADD SWAP1 DUP2 MSTORE PUSH1 0x20 ADD PUSH1 0x0 KECCAK256 DUP2 SWAP1 SSTORE POP DUP2 PUSH20 0xFFFFFFFFFFFFFFFFFFFFFFFFFFFFFFFFFFFFFFFF AND PUSH1 0x0 PUSH20 0xFFFFFFFFFFFFFFFFFFFFFFFFFFFFFFFFFFFFFFFF AND PUSH32 0xDDF252AD1BE2C89B69C2B068FC378DAA952BA7F163C4A11628F55A4DF523B3EF DUP4 PUSH1 0x40 MLOAD DUP1 DUP3 DUP2 MSTORE PUSH1 0x20 ADD SWAP2 POP POP PUSH1 0x40 MLOAD DUP1 SWAP2 SUB SWAP1 LOG3 POP POP JUMP JUMPDEST DUP1 PUSH1 0x4 SWAP1 DUP1 MLOAD SWAP1 PUSH1 0x20 ADD SWAP1 PUSH2 0x2FE1 SWAP3 SWAP2 SWAP1 PUSH2 0x3620 JUMP JUMPDEST POP POP JUMP JUMPDEST DUP1 PUSH1 0x5 PUSH1 0x0 PUSH2 0x100 EXP DUP2 SLOAD DUP2 PUSH1 0xFF MUL NOT AND SWAP1 DUP4 PUSH1 0xFF AND MUL OR SWAP1 SSTORE POP POP JUMP JUMPDEST DUP1 PUSH1 0x40 MLOAD PUSH1 0x20 ADD DUP1 DUP3 DUP1 MLOAD SWAP1 PUSH1 0x20 ADD SWAP1 DUP1 DUP4 DUP4 JUMPDEST PUSH1 0x20 DUP4 LT PUSH2 0x303A JUMPI DUP1 MLOAD DUP3 MSTORE PUSH1 0x20 DUP3 ADD SWAP2 POP PUSH1 0x20 DUP2 ADD SWAP1 POP PUSH1 0x20 DUP4 SUB SWAP3 POP PUSH2 0x3017 JUMP JUMPDEST PUSH1 0x1 DUP4 PUSH1 0x20 SUB PUSH2 0x100 EXP SUB DUP1 NOT DUP3 MLOAD AND DUP2 DUP5 MLOAD AND DUP1 DUP3 OR DUP6 MSTORE POP POP POP POP POP POP SWAP1 POP ADD DUP1 PUSH32 0x3A20494E53554646494349454E545F5045524D495353494F4E53000000000000 DUP2 MSTORE POP PUSH1 0x1A ADD SWAP2 POP POP PUSH1 0x40 MLOAD PUSH1 0x20 DUP2 DUP4 SUB SUB DUP2 MSTORE SWAP1 PUSH1 0x40 MSTORE PUSH1 0x7 SWAP1 DUP1 MLOAD SWAP1 PUSH1 0x20 ADD SWAP1 PUSH2 0x30AB SWAP3 SWAP2 SWAP1 PUSH2 0x3620 JUMP JUMPDEST POP POP JUMP JUMPDEST PUSH2 0x30B9 DUP3 DUP3 PUSH2 0x2BAF JUMP JUMPDEST POP POP JUMP JUMPDEST PUSH1 0x8 PUSH1 0x0 SWAP1 SLOAD SWAP1 PUSH2 0x100 EXP SWAP1 DIV PUSH1 0xFF AND ISZERO PUSH2 0x3140 JUMPI PUSH1 0x40 MLOAD PUSH32 0x8C379A000000000000000000000000000000000000000000000000000000000 DUP2 MSTORE PUSH1 0x4 ADD DUP1 DUP1 PUSH1 0x20 ADD DUP3 DUP2 SUB DUP3 MSTORE PUSH1 0xE DUP2 MSTORE PUSH1 0x20 ADD DUP1 PUSH32 0x616C726561647920696E69746564000000000000000000000000000000000000 DUP2 MSTORE POP PUSH1 0x20 ADD SWAP2 POP POP PUSH1 0x40 MLOAD DUP1 SWAP2 SUB SWAP1 REVERT JUMPDEST PUSH2 0x314A DUP3 DUP3 PUSH2 0x2CF1 JUMP JUMPDEST PUSH1 0x1 PUSH1 0x8 PUSH1 0x0 PUSH2 0x100 EXP DUP2 SLOAD DUP2 PUSH1 0xFF MUL NOT AND SWAP1 DUP4 ISZERO ISZERO MUL OR SWAP1 SSTORE POP POP POP JUMP JUMPDEST PUSH1 0x0 ADDRESS PUSH20 0xFFFFFFFFFFFFFFFFFFFFFFFFFFFFFFFFFFFFFFFF AND CALLER PUSH20 0xFFFFFFFFFFFFFFFFFFFFFFFFFFFFFFFFFFFFFFFF AND EQ ISZERO PUSH2 0x3214 JUMPI PUSH1 0x60 PUSH1 0x0 CALLDATASIZE DUP1 DUP1 PUSH1 0x1F ADD PUSH1 0x20 DUP1 SWAP2 DIV MUL PUSH1 0x20 ADD PUSH1 0x40 MLOAD SWAP1 DUP2 ADD PUSH1 0x40 MSTORE DUP1 SWAP4 SWAP3 SWAP2 SWAP1 DUP2 DUP2 MSTORE PUSH1 0x20 ADD DUP4 DUP4 DUP1 DUP3 DUP5 CALLDATACOPY PUSH1 0x0 DUP2 DUP5 ADD MSTORE PUSH1 0x1F NOT PUSH1 0x1F DUP3 ADD AND SWAP1 POP DUP1 DUP4 ADD SWAP3 POP POP POP POP POP POP POP SWAP1 POP PUSH1 0x0 DUP1 CALLDATASIZE SWAP1 POP SWAP1 POP PUSH20 0xFFFFFFFFFFFFFFFFFFFFFFFFFFFFFFFFFFFFFFFF DUP2 DUP4 ADD MLOAD AND SWAP3 POP POP POP PUSH2 0x3218 JUMP JUMPDEST CALLER SWAP1 POP JUMPDEST DUP1 SWAP1 POP SWAP1 JUMP JUMPDEST PUSH1 0x0 PUSH1 0x40 MLOAD DUP1 PUSH1 0x80 ADD PUSH1 0x40 MSTORE DUP1 PUSH1 0x43 DUP2 MSTORE PUSH1 0x20 ADD PUSH2 0x375C PUSH1 0x43 SWAP2 CODECOPY DUP1 MLOAD SWAP1 PUSH1 0x20 ADD KECCAK256 DUP3 PUSH1 0x0 ADD MLOAD DUP4 PUSH1 0x20 ADD MLOAD DUP5 PUSH1 0x40 ADD MLOAD DUP1 MLOAD SWAP1 PUSH1 0x20 ADD KECCAK256 PUSH1 0x40 MLOAD PUSH1 0x20 ADD DUP1 DUP6 DUP2 MSTORE PUSH1 0x20 ADD DUP5 DUP2 MSTORE PUSH1 0x20 ADD DUP4 PUSH20 0xFFFFFFFFFFFFFFFFFFFFFFFFFFFFFFFFFFFFFFFF AND PUSH20 0xFFFFFFFFFFFFFFFFFFFFFFFFFFFFFFFFFFFFFFFF AND DUP2 MSTORE PUSH1 0x20 ADD DUP3 DUP2 MSTORE PUSH1 0x20 ADD SWAP5 POP POP POP POP POP PUSH1 0x40 MLOAD PUSH1 0x20 DUP2 DUP4 SUB SUB DUP2 MSTORE SWAP1 PUSH1 0x40 MSTORE DUP1 MLOAD SWAP1 PUSH1 0x20 ADD KECCAK256 SWAP1 POP SWAP2 SWAP1 POP JUMP JUMPDEST PUSH1 0x0 PUSH2 0x32CE PUSH2 0x1625 JUMP JUMPDEST DUP3 PUSH1 0x40 MLOAD PUSH1 0x20 ADD DUP1 DUP1 PUSH32 0x1901000000000000000000000000000000000000000000000000000000000000 DUP2 MSTORE POP PUSH1 0x2 ADD DUP4 DUP2 MSTORE PUSH1 0x20 ADD DUP3 DUP2 MSTORE PUSH1 0x20 ADD SWAP3 POP POP POP PUSH1 0x40 MLOAD PUSH1 0x20 DUP2 DUP4 SUB SUB DUP2 MSTORE SWAP1 PUSH1 0x40 MSTORE DUP1 MLOAD SWAP1 PUSH1 0x20 ADD KECCAK256 SWAP1 POP SWAP2 SWAP1 POP JUMP JUMPDEST POP POP POP JUMP JUMPDEST PUSH1 0x0 PUSH2 0x3372 DUP4 DUP4 PUSH1 0x40 MLOAD DUP1 PUSH1 0x40 ADD PUSH1 0x40 MSTORE DUP1 PUSH1 0x1E DUP2 MSTORE PUSH1 0x20 ADD PUSH32 0x536166654D6174683A207375627472616374696F6E206F766572666C6F770000 DUP2 MSTORE POP PUSH2 0x292B JUMP JUMPDEST SWAP1 POP SWAP3 SWAP2 POP POP JUMP JUMPDEST PUSH1 0x0 PUSH2 0x33A2 DUP4 PUSH1 0x0 ADD DUP4 PUSH20 0xFFFFFFFFFFFFFFFFFFFFFFFFFFFFFFFFFFFFFFFF AND PUSH1 0x0 SHL PUSH2 0x3491 JUMP JUMPDEST SWAP1 POP SWAP3 SWAP2 POP POP JUMP JUMPDEST PUSH1 0x0 PUSH2 0x33D2 DUP4 PUSH1 0x0 ADD DUP4 PUSH20 0xFFFFFFFFFFFFFFFFFFFFFFFFFFFFFFFFFFFFFFFF AND PUSH1 0x0 SHL PUSH2 0x3501 JUMP JUMPDEST SWAP1 POP SWAP3 SWAP2 POP POP JUMP JUMPDEST PUSH1 0x0 DUP2 DUP4 PUSH1 0x0 ADD DUP1 SLOAD SWAP1 POP GT PUSH2 0x343B JUMPI PUSH1 0x40 MLOAD PUSH32 0x8C379A000000000000000000000000000000000000000000000000000000000 DUP2 MSTORE PUSH1 0x4 ADD DUP1 DUP1 PUSH1 0x20 ADD DUP3 DUP2 SUB DUP3 MSTORE PUSH1 0x22 DUP2 MSTORE PUSH1 0x20 ADD DUP1 PUSH2 0x36C6 PUSH1 0x22 SWAP2 CODECOPY PUSH1 0x40 ADD SWAP2 POP POP PUSH1 0x40 MLOAD DUP1 SWAP2 SUB SWAP1 REVERT JUMPDEST DUP3 PUSH1 0x0 ADD DUP3 DUP2 SLOAD DUP2 LT PUSH2 0x344A JUMPI INVALID JUMPDEST SWAP1 PUSH1 0x0 MSTORE PUSH1 0x20 PUSH1 0x0 KECCAK256 ADD SLOAD SWAP1 POP SWAP3 SWAP2 POP POP JUMP JUMPDEST PUSH1 0x0 DUP1 DUP4 PUSH1 0x1 ADD PUSH1 0x0 DUP5 DUP2 MSTORE PUSH1 0x20 ADD SWAP1 DUP2 MSTORE PUSH1 0x20 ADD PUSH1 0x0 KECCAK256 SLOAD EQ ISZERO SWAP1 POP SWAP3 SWAP2 POP POP JUMP JUMPDEST PUSH1 0x0 DUP2 PUSH1 0x0 ADD DUP1 SLOAD SWAP1 POP SWAP1 POP SWAP2 SWAP1 POP JUMP JUMPDEST PUSH1 0x0 PUSH2 0x349D DUP4 DUP4 PUSH2 0x345D JUMP JUMPDEST PUSH2 0x34F6 JUMPI DUP3 PUSH1 0x0 ADD DUP3 SWAP1 DUP1 PUSH1 0x1 DUP2 SLOAD ADD DUP1 DUP3 SSTORE DUP1 SWAP2 POP POP PUSH1 0x1 SWAP1 SUB SWAP1 PUSH1 0x0 MSTORE PUSH1 0x20 PUSH1 0x0 KECCAK256 ADD PUSH1 0x0 SWAP1 SWAP2 SWAP1 SWAP2 SWAP1 SWAP2 POP SSTORE DUP3 PUSH1 0x0 ADD DUP1 SLOAD SWAP1 POP DUP4 PUSH1 0x1 ADD PUSH1 0x0 DUP5 DUP2 MSTORE PUSH1 0x20 ADD SWAP1 DUP2 MSTORE PUSH1 0x20 ADD PUSH1 0x0 KECCAK256 DUP2 SWAP1 SSTORE POP PUSH1 0x1 SWAP1 POP PUSH2 0x34FB JUMP JUMPDEST PUSH1 0x0 SWAP1 POP JUMPDEST SWAP3 SWAP2 POP POP JUMP JUMPDEST PUSH1 0x0 DUP1 DUP4 PUSH1 0x1 ADD PUSH1 0x0 DUP5 DUP2 MSTORE PUSH1 0x20 ADD SWAP1 DUP2 MSTORE PUSH1 0x20 ADD PUSH1 0x0 KECCAK256 SLOAD SWAP1 POP PUSH1 0x0 DUP2 EQ PUSH2 0x35DD JUMPI PUSH1 0x0 PUSH1 0x1 DUP3 SUB SWAP1 POP PUSH1 0x0 PUSH1 0x1 DUP7 PUSH1 0x0 ADD DUP1 SLOAD SWAP1 POP SUB SWAP1 POP PUSH1 0x0 DUP7 PUSH1 0x0 ADD DUP3 DUP2 SLOAD DUP2 LT PUSH2 0x354C JUMPI INVALID JUMPDEST SWAP1 PUSH1 0x0 MSTORE PUSH1 0x20 PUSH1 0x0 KECCAK256 ADD SLOAD SWAP1 POP DUP1 DUP8 PUSH1 0x0 ADD DUP5 DUP2 SLOAD DUP2 LT PUSH2 0x3569 JUMPI INVALID JUMPDEST SWAP1 PUSH1 0x0 MSTORE PUSH1 0x20 PUSH1 0x0 KECCAK256 ADD DUP2 SWAP1 SSTORE POP PUSH1 0x1 DUP4 ADD DUP8 PUSH1 0x1 ADD PUSH1 0x0 DUP4 DUP2 MSTORE PUSH1 0x20 ADD SWAP1 DUP2 MSTORE PUSH1 0x20 ADD PUSH1 0x0 KECCAK256 DUP2 SWAP1 SSTORE POP DUP7 PUSH1 0x0 ADD DUP1 SLOAD DUP1 PUSH2 0x35A1 JUMPI INVALID JUMPDEST PUSH1 0x1 SWAP1 SUB DUP2 DUP2 SWAP1 PUSH1 0x0 MSTORE PUSH1 0x20 PUSH1 0x0 KECCAK256 ADD PUSH1 0x0 SWAP1 SSTORE SWAP1 SSTORE DUP7 PUSH1 0x1 ADD PUSH1 0x0 DUP8 DUP2 MSTORE PUSH1 0x20 ADD SWAP1 DUP2 MSTORE PUSH1 0x20 ADD PUSH1 0x0 KECCAK256 PUSH1 0x0 SWAP1 SSTORE PUSH1 0x1 SWAP5 POP POP POP POP POP PUSH2 0x35E3 JUMP JUMPDEST PUSH1 0x0 SWAP2 POP POP JUMPDEST SWAP3 SWAP2 POP POP JUMP JUMPDEST PUSH1 0x40 MLOAD DUP1 PUSH1 0x60 ADD PUSH1 0x40 MSTORE DUP1 PUSH1 0x0 DUP2 MSTORE PUSH1 0x20 ADD PUSH1 0x0 PUSH20 0xFFFFFFFFFFFFFFFFFFFFFFFFFFFFFFFFFFFFFFFF AND DUP2 MSTORE PUSH1 0x20 ADD PUSH1 0x60 DUP2 MSTORE POP SWAP1 JUMP JUMPDEST DUP3 DUP1 SLOAD PUSH1 0x1 DUP2 PUSH1 0x1 AND ISZERO PUSH2 0x100 MUL SUB AND PUSH1 0x2 SWAP1 DIV SWAP1 PUSH1 0x0 MSTORE PUSH1 0x20 PUSH1 0x0 KECCAK256 SWAP1 PUSH1 0x1F ADD PUSH1 0x20 SWAP1 DIV DUP2 ADD SWAP3 DUP3 PUSH1 0x1F LT PUSH2 0x3661 JUMPI DUP1 MLOAD PUSH1 0xFF NOT AND DUP4 DUP1 ADD OR DUP6 SSTORE PUSH2 0x368F JUMP JUMPDEST DUP3 DUP1 ADD PUSH1 0x1 ADD DUP6 SSTORE DUP3 ISZERO PUSH2 0x368F JUMPI SWAP2 DUP3 ADD JUMPDEST DUP3 DUP2 GT ISZERO PUSH2 0x368E JUMPI DUP3 MLOAD DUP3 SSTORE SWAP2 PUSH1 0x20 ADD SWAP2 SWAP1 PUSH1 0x1 ADD SWAP1 PUSH2 0x3673 JUMP JUMPDEST JUMPDEST POP SWAP1 POP PUSH2 0x369C SWAP2 SWAP1 PUSH2 0x36A0 JUMP JUMPDEST POP SWAP1 JUMP JUMPDEST PUSH2 0x36C2 SWAP2 SWAP1 JUMPDEST DUP1 DUP3 GT ISZERO PUSH2 0x36BE JUMPI PUSH1 0x0 DUP2 PUSH1 0x0 SWAP1 SSTORE POP PUSH1 0x1 ADD PUSH2 0x36A6 JUMP JUMPDEST POP SWAP1 JUMP JUMPDEST SWAP1 JUMP INVALID GASLIMIT PUSH15 0x756D657261626C655365743A20696E PUSH5 0x6578206F75 PUSH21 0x206F6620626F756E647345524332303A207472616E PUSH20 0x66657220746F20746865207A65726F2061646472 PUSH6 0x737341636365 PUSH20 0x73436F6E74726F6C3A2073656E646572206D7573 PUSH21 0x20626520616E2061646D696E20746F206772616E74 GASLIMIT MSTORE NUMBER ORIGIN ADDRESS GASPRICE KECCAK256 PUSH3 0x75726E KECCAK256 PUSH2 0x6D6F PUSH22 0x6E7420657863656564732062616C616E63654D657461 SLOAD PUSH19 0x616E73616374696F6E2875696E74323536206E PUSH16 0x6E63652C616464726573732066726F6D 0x2C PUSH3 0x797465 PUSH20 0x2066756E6374696F6E5369676E61747572652945 MSTORE NUMBER ORIGIN ADDRESS GASPRICE KECCAK256 PUSH2 0x7070 PUSH19 0x6F766520746F20746865207A65726F20616464 PUSH19 0x657373454950373132446F6D61696E28737472 PUSH10 0x6E67206E616D652C7374 PUSH19 0x696E672076657273696F6E2C61646472657373 KECCAK256 PUSH23 0x6572696679696E67436F6E74726163742C627974657333 ORIGIN KECCAK256 PUSH20 0x616C742945524332303A207472616E7366657220 PUSH2 0x6D6F PUSH22 0x6E7420657863656564732062616C616E636541636365 PUSH20 0x73436F6E74726F6C3A2073656E646572206D7573 PUSH21 0x20626520616E2061646D696E20746F207265766F6B PUSH6 0x4E6174697665 0x4D PUSH6 0x74615472616E PUSH20 0x616374696F6E3A20494E56414C49445F5349474E GASLIMIT MSTORE GASLIMIT MSTORE NUMBER ORIGIN ADDRESS GASPRICE KECCAK256 PUSH21 0x72616E7366657220616D6F756E7420657863656564 PUSH20 0x20616C6C6F77616E63655369676E657220616E64 KECCAK256 PUSH20 0x69676E617475726520646F206E6F74206D617463 PUSH9 0x45524332303A206275 PUSH19 0x6E2066726F6D20746865207A65726F20616464 PUSH19 0x65737345524332303A207472616E7366657220 PUSH7 0x726F6D20746865 KECCAK256 PUSH27 0x65726F206164647265737345524332303A20617070726F76652066 PUSH19 0x6F6D20746865207A65726F2061646472657373 GASLIMIT MSTORE NUMBER ORIGIN ADDRESS GASPRICE KECCAK256 PUSH5 0x6563726561 PUSH20 0x656420616C6C6F77616E63652062656C6F77207A PUSH6 0x726F41636365 PUSH20 0x73436F6E74726F6C3A2063616E206F6E6C792072 PUSH6 0x6E6F756E6365 KECCAK256 PUSH19 0x6F6C657320666F722073656C66A26469706673 PC 0x22 SLT KECCAK256 MUL 0x28 SELFBALANCE 0xB1 0x5F 0xD8 0xBC 0x29 DUP13 PUSH1 0xBC PUSH28 0x8605B4870539512391731E9D8669C921AE90A02264736F6C63430006 MOD STOP CALLER "
				},
				"gasEstimates": {
					"creation": {
						"codeDepositCost": "2958200",
						"executionCost": "infinite",
						"totalCost": "infinite"
					},
					"external": {
						"CHILD_CHAIN_ID()": "295",
						"CHILD_CHAIN_ID_BYTES()": "infinite",
						"DEFAULT_ADMIN_ROLE()": "256",
						"DEPOSITOR_ROLE()": "357",
						"ERC712_VERSION()": "infinite",
						"ROOT_CHAIN_ID()": "250",
						"ROOT_CHAIN_ID_BYTES()": "infinite",
						"allowance(address,address)": "1431",
						"approve(address,uint256)": "infinite",
						"balanceOf(address)": "1308",
						"changeName(string)": "infinite",
						"decimals()": "1128",
						"decreaseAllowance(address,uint256)": "infinite",
						"deposit(address,bytes)": "infinite",
						"executeMetaTransaction(address,bytes,bytes32,bytes32,uint8)": "infinite",
						"getChainId()": "314",
						"getDomainSeperator()": "1125",
						"getNonce(address)": "1286",
						"getRoleAdmin(bytes32)": "1252",
						"getRoleMember(bytes32,uint256)": "infinite",
						"getRoleMemberCount(bytes32)": "1334",
						"grantRole(bytes32,address)": "infinite",
						"hasRole(bytes32,address)": "infinite",
						"increaseAllowance(address,uint256)": "infinite",
						"initialize(string,string,uint8,address)": "infinite",
						"name()": "infinite",
						"renounceRole(bytes32,address)": "infinite",
						"revokeRole(bytes32,address)": "infinite",
						"symbol()": "infinite",
						"totalSupply()": "1103",
						"transfer(address,uint256)": "infinite",
						"transferFrom(address,address,uint256)": "infinite",
						"withdraw(uint256)": "infinite"
					},
					"internal": {
						"_msgSender()": "infinite"
					}
				},
				"methodIdentifiers": {
					"CHILD_CHAIN_ID()": "626381a0",
					"CHILD_CHAIN_ID_BYTES()": "0b54817c",
					"DEFAULT_ADMIN_ROLE()": "a217fddf",
					"DEPOSITOR_ROLE()": "a3b0b5a3",
					"ERC712_VERSION()": "0f7e5970",
					"ROOT_CHAIN_ID()": "8acfcaf7",
					"ROOT_CHAIN_ID_BYTES()": "0dd7531a",
					"allowance(address,address)": "dd62ed3e",
					"approve(address,uint256)": "095ea7b3",
					"balanceOf(address)": "70a08231",
					"changeName(string)": "5353a2d8",
					"decimals()": "313ce567",
					"decreaseAllowance(address,uint256)": "a457c2d7",
					"deposit(address,bytes)": "cf2c52cb",
					"executeMetaTransaction(address,bytes,bytes32,bytes32,uint8)": "0c53c51c",
					"getChainId()": "3408e470",
					"getDomainSeperator()": "20379ee5",
					"getNonce(address)": "2d0335ab",
					"getRoleAdmin(bytes32)": "248a9ca3",
					"getRoleMember(bytes32,uint256)": "9010d07c",
					"getRoleMemberCount(bytes32)": "ca15c873",
					"grantRole(bytes32,address)": "2f2ff15d",
					"hasRole(bytes32,address)": "91d14854",
					"increaseAllowance(address,uint256)": "39509351",
					"initialize(string,string,uint8,address)": "de7ea79d",
					"name()": "06fdde03",
					"renounceRole(bytes32,address)": "36568abe",
					"revokeRole(bytes32,address)": "d547741f",
					"symbol()": "95d89b41",
					"totalSupply()": "18160ddd",
					"transfer(address,uint256)": "a9059cbb",
					"transferFrom(address,address,uint256)": "23b872dd",
					"withdraw(uint256)": "2e1a7d4d"
				}
			},
			"storageLayout": {
				"storage": [
					{
						"astId": 513,
						"contract": "contracts/polygonUsdt/Usdt-all-openzeppelin.sol:UChildERC20",
						"label": "_balances",
						"offset": 0,
						"slot": "0",
						"type": "t_mapping(t_address,t_uint256)"
					},
					{
						"astId": 519,
						"contract": "contracts/polygonUsdt/Usdt-all-openzeppelin.sol:UChildERC20",
						"label": "_allowances",
						"offset": 0,
						"slot": "1",
						"type": "t_mapping(t_address,t_mapping(t_address,t_uint256))"
					},
					{
						"astId": 521,
						"contract": "contracts/polygonUsdt/Usdt-all-openzeppelin.sol:UChildERC20",
						"label": "_totalSupply",
						"offset": 0,
						"slot": "2",
						"type": "t_uint256"
					},
					{
						"astId": 523,
						"contract": "contracts/polygonUsdt/Usdt-all-openzeppelin.sol:UChildERC20",
						"label": "_name",
						"offset": 0,
						"slot": "3",
						"type": "t_string_storage"
					},
					{
						"astId": 525,
						"contract": "contracts/polygonUsdt/Usdt-all-openzeppelin.sol:UChildERC20",
						"label": "_symbol",
						"offset": 0,
						"slot": "4",
						"type": "t_string_storage"
					},
					{
						"astId": 527,
						"contract": "contracts/polygonUsdt/Usdt-all-openzeppelin.sol:UChildERC20",
						"label": "_decimals",
						"offset": 0,
						"slot": "5",
						"type": "t_uint8"
					},
					{
						"astId": 1442,
						"contract": "contracts/polygonUsdt/Usdt-all-openzeppelin.sol:UChildERC20",
						"label": "_roles",
						"offset": 0,
						"slot": "6",
						"type": "t_mapping(t_bytes32,t_struct(RoleData)1438_storage)"
					},
					{
						"astId": 1707,
						"contract": "contracts/polygonUsdt/Usdt-all-openzeppelin.sol:UChildERC20",
						"label": "_revertMsg",
						"offset": 0,
						"slot": "7",
						"type": "t_string_storage"
					},
					{
						"astId": 1753,
						"contract": "contracts/polygonUsdt/Usdt-all-openzeppelin.sol:UChildERC20",
						"label": "inited",
						"offset": 0,
						"slot": "8",
						"type": "t_bool"
					},
					{
						"astId": 1790,
						"contract": "contracts/polygonUsdt/Usdt-all-openzeppelin.sol:UChildERC20",
						"label": "domainSeperator",
						"offset": 0,
						"slot": "9",
						"type": "t_bytes32"
					},
					{
						"astId": 1909,
						"contract": "contracts/polygonUsdt/Usdt-all-openzeppelin.sol:UChildERC20",
						"label": "nonces",
						"offset": 0,
						"slot": "10",
						"type": "t_mapping(t_address,t_uint256)"
					}
				],
				"types": {
					"t_address": {
						"encoding": "inplace",
						"label": "address",
						"numberOfBytes": "20"
					},
					"t_array(t_bytes32)dyn_storage": {
						"base": "t_bytes32",
						"encoding": "dynamic_array",
						"label": "bytes32[]",
						"numberOfBytes": "32"
					},
					"t_bool": {
						"encoding": "inplace",
						"label": "bool",
						"numberOfBytes": "1"
					},
					"t_bytes32": {
						"encoding": "inplace",
						"label": "bytes32",
						"numberOfBytes": "32"
					},
					"t_mapping(t_address,t_mapping(t_address,t_uint256))": {
						"encoding": "mapping",
						"key": "t_address",
						"label": "mapping(address => mapping(address => uint256))",
						"numberOfBytes": "32",
						"value": "t_mapping(t_address,t_uint256)"
					},
					"t_mapping(t_address,t_uint256)": {
						"encoding": "mapping",
						"key": "t_address",
						"label": "mapping(address => uint256)",
						"numberOfBytes": "32",
						"value": "t_uint256"
					},
					"t_mapping(t_bytes32,t_struct(RoleData)1438_storage)": {
						"encoding": "mapping",
						"key": "t_bytes32",
						"label": "mapping(bytes32 => struct AccessControl.RoleData)",
						"numberOfBytes": "32",
						"value": "t_struct(RoleData)1438_storage"
					},
					"t_mapping(t_bytes32,t_uint256)": {
						"encoding": "mapping",
						"key": "t_bytes32",
						"label": "mapping(bytes32 => uint256)",
						"numberOfBytes": "32",
						"value": "t_uint256"
					},
					"t_string_storage": {
						"encoding": "bytes",
						"label": "string",
						"numberOfBytes": "32"
					},
					"t_struct(AddressSet)1219_storage": {
						"encoding": "inplace",
						"label": "struct EnumerableSet.AddressSet",
						"members": [
							{
								"astId": 1218,
								"contract": "contracts/polygonUsdt/Usdt-all-openzeppelin.sol:UChildERC20",
								"label": "_inner",
								"offset": 0,
								"slot": "0",
								"type": "t_struct(Set)1039_storage"
							}
						],
						"numberOfBytes": "64"
					},
					"t_struct(RoleData)1438_storage": {
						"encoding": "inplace",
						"label": "struct AccessControl.RoleData",
						"members": [
							{
								"astId": 1435,
								"contract": "contracts/polygonUsdt/Usdt-all-openzeppelin.sol:UChildERC20",
								"label": "members",
								"offset": 0,
								"slot": "0",
								"type": "t_struct(AddressSet)1219_storage"
							},
							{
								"astId": 1437,
								"contract": "contracts/polygonUsdt/Usdt-all-openzeppelin.sol:UChildERC20",
								"label": "adminRole",
								"offset": 0,
								"slot": "2",
								"type": "t_bytes32"
							}
						],
						"numberOfBytes": "96"
					},
					"t_struct(Set)1039_storage": {
						"encoding": "inplace",
						"label": "struct EnumerableSet.Set",
						"members": [
							{
								"astId": 1034,
								"contract": "contracts/polygonUsdt/Usdt-all-openzeppelin.sol:UChildERC20",
								"label": "_values",
								"offset": 0,
								"slot": "0",
								"type": "t_array(t_bytes32)dyn_storage"
							},
							{
								"astId": 1038,
								"contract": "contracts/polygonUsdt/Usdt-all-openzeppelin.sol:UChildERC20",
								"label": "_indexes",
								"offset": 0,
								"slot": "1",
								"type": "t_mapping(t_bytes32,t_uint256)"
							}
						],
						"numberOfBytes": "64"
					},
					"t_uint256": {
						"encoding": "inplace",
						"label": "uint256",
						"numberOfBytes": "32"
					},
					"t_uint8": {
						"encoding": "inplace",
						"label": "uint8",
						"numberOfBytes": "1"
					}
				}
			},
			"userdoc": {
				"methods": {
					"deposit(address,bytes)": {
						"notice": "called when token is deposited on root chain"
					},
					"initialize(string,string,uint8,address)": {
						"notice": "Initialize the contract after it has been proxified"
					},
					"withdraw(uint256)": {
						"notice": "called when user wants to withdraw tokens back to root chain"
					}
				}
			}
		}
	}
}