{
	"contracts/polygonUsdt/Usdt-all-openzeppelin.sol": {
		"NativeMetaTransaction": {
			"abi": [
				{
					"anonymous": false,
					"inputs": [
						{
							"indexed": false,
							"internalType": "address",
							"name": "userAddress",
							"type": "address"
						},
						{
							"indexed": false,
							"internalType": "address payable",
							"name": "relayerAddress",
							"type": "address"
						},
						{
							"indexed": false,
							"internalType": "bytes",
							"name": "functionSignature",
							"type": "bytes"
						}
					],
					"name": "MetaTransactionExecuted",
					"type": "event"
				},
				{
					"inputs": [
						{
							"internalType": "address",
							"name": "userAddress",
							"type": "address"
						},
						{
							"internalType": "bytes",
							"name": "functionSignature",
							"type": "bytes"
						},
						{
							"internalType": "bytes32",
							"name": "sigR",
							"type": "bytes32"
						},
						{
							"internalType": "bytes32",
							"name": "sigS",
							"type": "bytes32"
						},
						{
							"internalType": "uint8",
							"name": "sigV",
							"type": "uint8"
						}
					],
					"name": "executeMetaTransaction",
					"outputs": [
						{
							"internalType": "bytes",
							"name": "",
							"type": "bytes"
						}
					],
					"stateMutability": "payable",
					"type": "function"
				},
				{
					"inputs": [],
					"name": "getChainId",
					"outputs": [
						{
							"internalType": "uint256",
							"name": "",
							"type": "uint256"
						}
					],
					"stateMutability": "pure",
					"type": "function"
				},
				{
					"inputs": [],
					"name": "getDomainSeperator",
					"outputs": [
						{
							"internalType": "bytes32",
							"name": "",
							"type": "bytes32"
						}
					],
					"stateMutability": "view",
					"type": "function"
				},
				{
					"inputs": [
						{
							"internalType": "address",
							"name": "user",
							"type": "address"
						}
					],
					"name": "getNonce",
					"outputs": [
						{
							"internalType": "uint256",
							"name": "nonce",
							"type": "uint256"
						}
					],
					"stateMutability": "view",
					"type": "function"
				}
			],
			"devdoc": {
				"methods": {}
			},
			"evm": {
				"assembly": "    /* \"contracts/polygonUsdt/Usdt-all-openzeppelin.sol\":44766:47662  contract NativeMetaTransaction is EIP712Base {... */\n  mstore(0x40, 0x80)\n    /* \"contracts/polygonUsdt/Usdt-all-openzeppelin.sol\":42462:42467  false */\n  0x00\n    /* \"contracts/polygonUsdt/Usdt-all-openzeppelin.sol\":42448:42467  bool inited = false */\n  dup1\n  exp(0x0100, 0x00)\n  dup2\n  sload\n  dup2\n  0xff\n  mul\n  not\n  and\n  swap1\n  dup4\n  iszero\n  iszero\n  mul\n  or\n  swap1\n  sstore\n  pop\n    /* \"contracts/polygonUsdt/Usdt-all-openzeppelin.sol\":44766:47662  contract NativeMetaTransaction is EIP712Base {... */\n  callvalue\n    /* \"--CODEGEN--\":5:14   */\n  dup1\n    /* \"--CODEGEN--\":2:4   */\n  iszero\n  tag_1\n  jumpi\n    /* \"--CODEGEN--\":27:28   */\n  0x00\n    /* \"--CODEGEN--\":24:25   */\n  dup1\n    /* \"--CODEGEN--\":17:29   */\n  revert\n    /* \"--CODEGEN--\":2:4   */\ntag_1:\n    /* \"contracts/polygonUsdt/Usdt-all-openzeppelin.sol\":44766:47662  contract NativeMetaTransaction is EIP712Base {... */\n  pop\n  dataSize(sub_0)\n  dup1\n  dataOffset(sub_0)\n  0x00\n  codecopy\n  0x00\n  return\nstop\n\nsub_0: assembly {\n        /* \"contracts/polygonUsdt/Usdt-all-openzeppelin.sol\":44766:47662  contract NativeMetaTransaction is EIP712Base {... */\n      mstore(0x40, 0x80)\n      jumpi(tag_1, lt(calldatasize, 0x04))\n      shr(0xe0, calldataload(0x00))\n      dup1\n      0x0c53c51c\n      eq\n      tag_2\n      jumpi\n      dup1\n      0x20379ee5\n      eq\n      tag_3\n      jumpi\n      dup1\n      0x2d0335ab\n      eq\n      tag_4\n      jumpi\n      dup1\n      0x3408e470\n      eq\n      tag_5\n      jumpi\n    tag_1:\n        /* \"--CODEGEN--\":12:13   */\n      0x00\n        /* \"--CODEGEN--\":9:10   */\n      dup1\n        /* \"--CODEGEN--\":2:14   */\n      revert\n        /* \"contracts/polygonUsdt/Usdt-all-openzeppelin.sol\":45563:46671  function executeMetaTransaction(... */\n    tag_2:\n      tag_6\n      0x04\n      dup1\n      calldatasize\n      sub\n        /* \"--CODEGEN--\":15:18   */\n      0xa0\n        /* \"--CODEGEN--\":10:13   */\n      dup2\n        /* \"--CODEGEN--\":7:19   */\n      lt\n        /* \"--CODEGEN--\":4:6   */\n      iszero\n      tag_7\n      jumpi\n        /* \"--CODEGEN--\":32:33   */\n      0x00\n        /* \"--CODEGEN--\":29:30   */\n      dup1\n        /* \"--CODEGEN--\":22:34   */\n      revert\n        /* \"--CODEGEN--\":4:6   */\n    tag_7:\n        /* \"contracts/polygonUsdt/Usdt-all-openzeppelin.sol\":45563:46671  function executeMetaTransaction(... */\n      dup2\n      add\n      swap1\n      dup1\n      dup1\n      calldataload\n      0xffffffffffffffffffffffffffffffffffffffff\n      and\n      swap1\n      0x20\n      add\n      swap1\n      swap3\n      swap2\n      swap1\n      dup1\n      calldataload\n      swap1\n      0x20\n      add\n      swap1\n        /* \"--CODEGEN--\":27:38   */\n      0x0100000000\n        /* \"--CODEGEN--\":14:25   */\n      dup2\n        /* \"--CODEGEN--\":11:39   */\n      gt\n        /* \"--CODEGEN--\":8:10   */\n      iszero\n      tag_8\n      jumpi\n        /* \"--CODEGEN--\":52:53   */\n      0x00\n        /* \"--CODEGEN--\":49:50   */\n      dup1\n        /* \"--CODEGEN--\":42:54   */\n      revert\n        /* \"--CODEGEN--\":8:10   */\n    tag_8:\n        /* \"contracts/polygonUsdt/Usdt-all-openzeppelin.sol\":45563:46671  function executeMetaTransaction(... */\n      dup3\n      add\n        /* \"--CODEGEN--\":41:50   */\n      dup4\n        /* \"--CODEGEN--\":34:38   */\n      0x20\n        /* \"--CODEGEN--\":18:32   */\n      dup3\n        /* \"--CODEGEN--\":14:39   */\n      add\n        /* \"--CODEGEN--\":11:51   */\n      gt\n        /* \"--CODEGEN--\":8:10   */\n      iszero\n      tag_9\n      jumpi\n        /* \"--CODEGEN--\":64:65   */\n      0x00\n        /* \"--CODEGEN--\":61:62   */\n      dup1\n        /* \"--CODEGEN--\":54:66   */\n      revert\n        /* \"--CODEGEN--\":8:10   */\n    tag_9:\n        /* \"contracts/polygonUsdt/Usdt-all-openzeppelin.sol\":45563:46671  function executeMetaTransaction(... */\n      dup1\n      calldataload\n      swap1\n      0x20\n      add\n      swap2\n        /* \"--CODEGEN--\":100:109   */\n      dup5\n        /* \"--CODEGEN--\":95:96   */\n      0x01\n        /* \"--CODEGEN--\":81:93   */\n      dup4\n        /* \"--CODEGEN--\":77:97   */\n      mul\n        /* \"--CODEGEN--\":67:75   */\n      dup5\n        /* \"--CODEGEN--\":63:98   */\n      add\n        /* \"--CODEGEN--\":60:110   */\n      gt\n        /* \"--CODEGEN--\":39:50   */\n      0x0100000000\n        /* \"--CODEGEN--\":25:37   */\n      dup4\n        /* \"--CODEGEN--\":22:51   */\n      gt\n        /* \"--CODEGEN--\":11:118   */\n      or\n        /* \"--CODEGEN--\":8:10   */\n      iszero\n      tag_10\n      jumpi\n        /* \"--CODEGEN--\":131:132   */\n      0x00\n        /* \"--CODEGEN--\":128:129   */\n      dup1\n        /* \"--CODEGEN--\":121:133   */\n      revert\n        /* \"--CODEGEN--\":8:10   */\n    tag_10:\n        /* \"contracts/polygonUsdt/Usdt-all-openzeppelin.sol\":45563:46671  function executeMetaTransaction(... */\n      swap2\n      swap1\n      dup1\n      dup1\n      0x1f\n      add\n      0x20\n      dup1\n      swap2\n      div\n      mul\n      0x20\n      add\n      mload(0x40)\n      swap1\n      dup2\n      add\n      0x40\n      mstore\n      dup1\n      swap4\n      swap3\n      swap2\n      swap1\n      dup2\n      dup2\n      mstore\n      0x20\n      add\n      dup4\n      dup4\n        /* \"--CODEGEN--\":30:33   */\n      dup1\n        /* \"--CODEGEN--\":22:28   */\n      dup3\n        /* \"--CODEGEN--\":14:20   */\n      dup5\n        /* \"--CODEGEN--\":1:34   */\n      calldatacopy\n        /* \"--CODEGEN--\":99:100   */\n      0x00\n        /* \"--CODEGEN--\":93:96   */\n      dup2\n        /* \"--CODEGEN--\":85:91   */\n      dup5\n        /* \"--CODEGEN--\":81:97   */\n      add\n        /* \"--CODEGEN--\":74:101   */\n      mstore\n        /* \"--CODEGEN--\":137:141   */\n      0x1f\n        /* \"--CODEGEN--\":133:142   */\n      not\n        /* \"--CODEGEN--\":126:130   */\n      0x1f\n        /* \"--CODEGEN--\":121:124   */\n      dup3\n        /* \"--CODEGEN--\":117:131   */\n      add\n        /* \"--CODEGEN--\":113:143   */\n      and\n        /* \"--CODEGEN--\":106:143   */\n      swap1\n      pop\n        /* \"--CODEGEN--\":169:172   */\n      dup1\n        /* \"--CODEGEN--\":161:167   */\n      dup4\n        /* \"--CODEGEN--\":157:173   */\n      add\n        /* \"--CODEGEN--\":147:173   */\n      swap3\n      pop\n        /* \"contracts/polygonUsdt/Usdt-all-openzeppelin.sol\":45563:46671  function executeMetaTransaction(... */\n      pop\n      pop\n      pop\n      pop\n      pop\n      pop\n      swap2\n      swap3\n      swap2\n      swap3\n      swap1\n      dup1\n      calldataload\n      swap1\n      0x20\n      add\n      swap1\n      swap3\n      swap2\n      swap1\n      dup1\n      calldataload\n      swap1\n      0x20\n      add\n      swap1\n      swap3\n      swap2\n      swap1\n      dup1\n      calldataload\n      0xff\n      and\n      swap1\n      0x20\n      add\n      swap1\n      swap3\n      swap2\n      swap1\n      pop\n      pop\n      pop\n      tag_11\n      jump\t// in\n    tag_6:\n      mload(0x40)\n      dup1\n      dup1\n      0x20\n      add\n      dup3\n      dup2\n      sub\n      dup3\n      mstore\n      dup4\n      dup2\n      dup2\n      mload\n      dup2\n      mstore\n      0x20\n      add\n      swap2\n      pop\n      dup1\n      mload\n      swap1\n      0x20\n      add\n      swap1\n      dup1\n      dup4\n      dup4\n        /* \"--CODEGEN--\":23:24   */\n      0x00\n        /* \"--CODEGEN--\":8:108   */\n    tag_12:\n        /* \"--CODEGEN--\":33:36   */\n      dup4\n        /* \"--CODEGEN--\":30:31   */\n      dup2\n        /* \"--CODEGEN--\":27:37   */\n      lt\n        /* \"--CODEGEN--\":8:108   */\n      iszero\n      tag_14\n      jumpi\n        /* \"--CODEGEN--\":99:100   */\n      dup1\n        /* \"--CODEGEN--\":94:97   */\n      dup3\n        /* \"--CODEGEN--\":90:101   */\n      add\n        /* \"--CODEGEN--\":84:102   */\n      mload\n        /* \"--CODEGEN--\":80:81   */\n      dup2\n        /* \"--CODEGEN--\":75:78   */\n      dup5\n        /* \"--CODEGEN--\":71:82   */\n      add\n        /* \"--CODEGEN--\":64:103   */\n      mstore\n        /* \"--CODEGEN--\":52:54   */\n      0x20\n        /* \"--CODEGEN--\":49:50   */\n      dup2\n        /* \"--CODEGEN--\":45:55   */\n      add\n        /* \"--CODEGEN--\":40:55   */\n      swap1\n      pop\n        /* \"--CODEGEN--\":8:108   */\n      jump(tag_12)\n    tag_14:\n        /* \"--CODEGEN--\":12:26   */\n      pop\n        /* \"contracts/polygonUsdt/Usdt-all-openzeppelin.sol\":45563:46671  function executeMetaTransaction(... */\n      pop\n      pop\n      pop\n      swap1\n      pop\n      swap1\n      dup2\n      add\n      swap1\n      0x1f\n      and\n      dup1\n      iszero\n      tag_15\n      jumpi\n      dup1\n      dup3\n      sub\n      dup1\n      mload\n      0x01\n      dup4\n      0x20\n      sub\n      0x0100\n      exp\n      sub\n      not\n      and\n      dup2\n      mstore\n      0x20\n      add\n      swap2\n      pop\n    tag_15:\n      pop\n      swap3\n      pop\n      pop\n      pop\n      mload(0x40)\n      dup1\n      swap2\n      sub\n      swap1\n      return\n        /* \"contracts/polygonUsdt/Usdt-all-openzeppelin.sol\":43814:43913  function getDomainSeperator() public view returns (bytes32) {... */\n    tag_3:\n      callvalue\n        /* \"--CODEGEN--\":5:14   */\n      dup1\n        /* \"--CODEGEN--\":2:4   */\n      iszero\n      tag_16\n      jumpi\n        /* \"--CODEGEN--\":27:28   */\n      0x00\n        /* \"--CODEGEN--\":24:25   */\n      dup1\n        /* \"--CODEGEN--\":17:29   */\n      revert\n        /* \"--CODEGEN--\":2:4   */\n    tag_16:\n        /* \"contracts/polygonUsdt/Usdt-all-openzeppelin.sol\":43814:43913  function getDomainSeperator() public view returns (bytes32) {... */\n      pop\n      tag_17\n      tag_18\n      jump\t// in\n    tag_17:\n      mload(0x40)\n      dup1\n      dup3\n      dup2\n      mstore\n      0x20\n      add\n      swap2\n      pop\n      pop\n      mload(0x40)\n      dup1\n      swap2\n      sub\n      swap1\n      return\n        /* \"contracts/polygonUsdt/Usdt-all-openzeppelin.sol\":47079:47184  function getNonce(address user) public view returns (uint256 nonce) {... */\n    tag_4:\n      callvalue\n        /* \"--CODEGEN--\":5:14   */\n      dup1\n        /* \"--CODEGEN--\":2:4   */\n      iszero\n      tag_19\n      jumpi\n        /* \"--CODEGEN--\":27:28   */\n      0x00\n        /* \"--CODEGEN--\":24:25   */\n      dup1\n        /* \"--CODEGEN--\":17:29   */\n      revert\n        /* \"--CODEGEN--\":2:4   */\n    tag_19:\n        /* \"contracts/polygonUsdt/Usdt-all-openzeppelin.sol\":47079:47184  function getNonce(address user) public view returns (uint256 nonce) {... */\n      pop\n      tag_20\n      0x04\n      dup1\n      calldatasize\n      sub\n        /* \"--CODEGEN--\":15:17   */\n      0x20\n        /* \"--CODEGEN--\":10:13   */\n      dup2\n        /* \"--CODEGEN--\":7:18   */\n      lt\n        /* \"--CODEGEN--\":4:6   */\n      iszero\n      tag_21\n      jumpi\n        /* \"--CODEGEN--\":31:32   */\n      0x00\n        /* \"--CODEGEN--\":28:29   */\n      dup1\n        /* \"--CODEGEN--\":21:33   */\n      revert\n        /* \"--CODEGEN--\":4:6   */\n    tag_21:\n        /* \"contracts/polygonUsdt/Usdt-all-openzeppelin.sol\":47079:47184  function getNonce(address user) public view returns (uint256 nonce) {... */\n      dup2\n      add\n      swap1\n      dup1\n      dup1\n      calldataload\n      0xffffffffffffffffffffffffffffffffffffffff\n      and\n      swap1\n      0x20\n      add\n      swap1\n      swap3\n      swap2\n      swap1\n      pop\n      pop\n      pop\n      tag_22\n      jump\t// in\n    tag_20:\n      mload(0x40)\n      dup1\n      dup3\n      dup2\n      mstore\n      0x20\n      add\n      swap2\n      pop\n      pop\n      mload(0x40)\n      dup1\n      swap2\n      sub\n      swap1\n      return\n        /* \"contracts/polygonUsdt/Usdt-all-openzeppelin.sol\":43919:44074  function getChainId() public pure returns (uint256) {... */\n    tag_5:\n      callvalue\n        /* \"--CODEGEN--\":5:14   */\n      dup1\n        /* \"--CODEGEN--\":2:4   */\n      iszero\n      tag_23\n      jumpi\n        /* \"--CODEGEN--\":27:28   */\n      0x00\n        /* \"--CODEGEN--\":24:25   */\n      dup1\n        /* \"--CODEGEN--\":17:29   */\n      revert\n        /* \"--CODEGEN--\":2:4   */\n    tag_23:\n        /* \"contracts/polygonUsdt/Usdt-all-openzeppelin.sol\":43919:44074  function getChainId() public pure returns (uint256) {... */\n      pop\n      tag_24\n      tag_25\n      jump\t// in\n    tag_24:\n      mload(0x40)\n      dup1\n      dup3\n      dup2\n      mstore\n      0x20\n      add\n      swap2\n      pop\n      pop\n      mload(0x40)\n      dup1\n      swap2\n      sub\n      swap1\n      return\n        /* \"contracts/polygonUsdt/Usdt-all-openzeppelin.sol\":45563:46671  function executeMetaTransaction(... */\n    tag_11:\n        /* \"contracts/polygonUsdt/Usdt-all-openzeppelin.sol\":45758:45770  bytes memory */\n      0x60\n        /* \"contracts/polygonUsdt/Usdt-all-openzeppelin.sol\":45782:45811  MetaTransaction memory metaTx */\n      tag_27\n      tag_28\n      jump\t// in\n    tag_27:\n        /* \"contracts/polygonUsdt/Usdt-all-openzeppelin.sol\":45814:45962  MetaTransaction({... */\n      mload(0x40)\n      dup1\n      0x60\n      add\n      0x40\n      mstore\n      dup1\n        /* \"contracts/polygonUsdt/Usdt-all-openzeppelin.sol\":45851:45857  nonces */\n      0x02\n        /* \"contracts/polygonUsdt/Usdt-all-openzeppelin.sol\":45851:45870  nonces[userAddress] */\n      0x00\n        /* \"contracts/polygonUsdt/Usdt-all-openzeppelin.sol\":45858:45869  userAddress */\n      dup11\n        /* \"contracts/polygonUsdt/Usdt-all-openzeppelin.sol\":45851:45870  nonces[userAddress] */\n      0xffffffffffffffffffffffffffffffffffffffff\n      and\n      0xffffffffffffffffffffffffffffffffffffffff\n      and\n      dup2\n      mstore\n      0x20\n      add\n      swap1\n      dup2\n      mstore\n      0x20\n      add\n      0x00\n      keccak256\n      sload\n        /* \"contracts/polygonUsdt/Usdt-all-openzeppelin.sol\":45814:45962  MetaTransaction({... */\n      dup2\n      mstore\n      0x20\n      add\n        /* \"contracts/polygonUsdt/Usdt-all-openzeppelin.sol\":45890:45901  userAddress */\n      dup9\n        /* \"contracts/polygonUsdt/Usdt-all-openzeppelin.sol\":45814:45962  MetaTransaction({... */\n      0xffffffffffffffffffffffffffffffffffffffff\n      and\n      dup2\n      mstore\n      0x20\n      add\n        /* \"contracts/polygonUsdt/Usdt-all-openzeppelin.sol\":45934:45951  functionSignature */\n      dup8\n        /* \"contracts/polygonUsdt/Usdt-all-openzeppelin.sol\":45814:45962  MetaTransaction({... */\n      dup2\n      mstore\n      pop\n        /* \"contracts/polygonUsdt/Usdt-all-openzeppelin.sol\":45782:45962  MetaTransaction memory metaTx = MetaTransaction({... */\n      swap1\n      pop\n        /* \"contracts/polygonUsdt/Usdt-all-openzeppelin.sol\":45994:46039  verify(userAddress, metaTx, sigR, sigS, sigV) */\n      tag_29\n        /* \"contracts/polygonUsdt/Usdt-all-openzeppelin.sol\":46001:46012  userAddress */\n      dup8\n        /* \"contracts/polygonUsdt/Usdt-all-openzeppelin.sol\":46014:46020  metaTx */\n      dup3\n        /* \"contracts/polygonUsdt/Usdt-all-openzeppelin.sol\":46022:46026  sigR */\n      dup8\n        /* \"contracts/polygonUsdt/Usdt-all-openzeppelin.sol\":46028:46032  sigS */\n      dup8\n        /* \"contracts/polygonUsdt/Usdt-all-openzeppelin.sol\":46034:46038  sigV */\n      dup8\n        /* \"contracts/polygonUsdt/Usdt-all-openzeppelin.sol\":45994:46000  verify */\n      tag_30\n        /* \"contracts/polygonUsdt/Usdt-all-openzeppelin.sol\":45994:46039  verify(userAddress, metaTx, sigR, sigS, sigV) */\n      jump\t// in\n    tag_29:\n        /* \"contracts/polygonUsdt/Usdt-all-openzeppelin.sol\":45973:46098  require(... */\n      tag_31\n      jumpi\n      mload(0x40)\n      0x08c379a000000000000000000000000000000000000000000000000000000000\n      dup2\n      mstore\n      0x04\n      add\n      dup1\n      dup1\n      0x20\n      add\n      dup3\n      dup2\n      sub\n      dup3\n      mstore\n      0x21\n      dup2\n      mstore\n      0x20\n      add\n      dup1\n      data_a1a5cd4826a8c5c8495a3bcd7f31593c1559fab8207afc024ed2a3f3fa2bbbda\n      0x21\n      swap2\n      codecopy\n      0x40\n      add\n      swap2\n      pop\n      pop\n      mload(0x40)\n      dup1\n      swap2\n      sub\n      swap1\n      revert\n    tag_31:\n        /* \"contracts/polygonUsdt/Usdt-all-openzeppelin.sol\":46184:46210  nonces[userAddress].add(1) */\n      tag_32\n        /* \"contracts/polygonUsdt/Usdt-all-openzeppelin.sol\":46208:46209  1 */\n      0x01\n        /* \"contracts/polygonUsdt/Usdt-all-openzeppelin.sol\":46184:46190  nonces */\n      0x02\n        /* \"contracts/polygonUsdt/Usdt-all-openzeppelin.sol\":46184:46203  nonces[userAddress] */\n      0x00\n        /* \"contracts/polygonUsdt/Usdt-all-openzeppelin.sol\":46191:46202  userAddress */\n      dup11\n        /* \"contracts/polygonUsdt/Usdt-all-openzeppelin.sol\":46184:46203  nonces[userAddress] */\n      0xffffffffffffffffffffffffffffffffffffffff\n      and\n      0xffffffffffffffffffffffffffffffffffffffff\n      and\n      dup2\n      mstore\n      0x20\n      add\n      swap1\n      dup2\n      mstore\n      0x20\n      add\n      0x00\n      keccak256\n      sload\n        /* \"contracts/polygonUsdt/Usdt-all-openzeppelin.sol\":46184:46207  nonces[userAddress].add */\n      tag_33\n      swap1\n        /* \"contracts/polygonUsdt/Usdt-all-openzeppelin.sol\":46184:46210  nonces[userAddress].add(1) */\n      swap2\n      swap1\n      0xffffffff\n      and\n      jump\t// in\n    tag_32:\n        /* \"contracts/polygonUsdt/Usdt-all-openzeppelin.sol\":46162:46168  nonces */\n      0x02\n        /* \"contracts/polygonUsdt/Usdt-all-openzeppelin.sol\":46162:46181  nonces[userAddress] */\n      0x00\n        /* \"contracts/polygonUsdt/Usdt-all-openzeppelin.sol\":46169:46180  userAddress */\n      dup10\n        /* \"contracts/polygonUsdt/Usdt-all-openzeppelin.sol\":46162:46181  nonces[userAddress] */\n      0xffffffffffffffffffffffffffffffffffffffff\n      and\n      0xffffffffffffffffffffffffffffffffffffffff\n      and\n      dup2\n      mstore\n      0x20\n      add\n      swap1\n      dup2\n      mstore\n      0x20\n      add\n      0x00\n      keccak256\n        /* \"contracts/polygonUsdt/Usdt-all-openzeppelin.sol\":46162:46210  nonces[userAddress] = nonces[userAddress].add(1) */\n      dup2\n      swap1\n      sstore\n      pop\n        /* \"contracts/polygonUsdt/Usdt-all-openzeppelin.sol\":46226:46339  MetaTransactionExecuted(... */\n      0x5845892132946850460bff5a0083f71031bc5bf9aadcd40f1de79423eac9b10b\n        /* \"contracts/polygonUsdt/Usdt-all-openzeppelin.sol\":46263:46274  userAddress */\n      dup8\n        /* \"contracts/polygonUsdt/Usdt-all-openzeppelin.sol\":46288:46298  msg.sender */\n      caller\n        /* \"contracts/polygonUsdt/Usdt-all-openzeppelin.sol\":46312:46329  functionSignature */\n      dup9\n        /* \"contracts/polygonUsdt/Usdt-all-openzeppelin.sol\":46226:46339  MetaTransactionExecuted(... */\n      mload(0x40)\n      dup1\n      dup5\n      0xffffffffffffffffffffffffffffffffffffffff\n      and\n      0xffffffffffffffffffffffffffffffffffffffff\n      and\n      dup2\n      mstore\n      0x20\n      add\n      dup4\n      0xffffffffffffffffffffffffffffffffffffffff\n      and\n      0xffffffffffffffffffffffffffffffffffffffff\n      and\n      dup2\n      mstore\n      0x20\n      add\n      dup1\n      0x20\n      add\n      dup3\n      dup2\n      sub\n      dup3\n      mstore\n      dup4\n      dup2\n      dup2\n      mload\n      dup2\n      mstore\n      0x20\n      add\n      swap2\n      pop\n      dup1\n      mload\n      swap1\n      0x20\n      add\n      swap1\n      dup1\n      dup4\n      dup4\n        /* \"--CODEGEN--\":23:24   */\n      0x00\n        /* \"--CODEGEN--\":8:108   */\n    tag_34:\n        /* \"--CODEGEN--\":33:36   */\n      dup4\n        /* \"--CODEGEN--\":30:31   */\n      dup2\n        /* \"--CODEGEN--\":27:37   */\n      lt\n        /* \"--CODEGEN--\":8:108   */\n      iszero\n      tag_36\n      jumpi\n        /* \"--CODEGEN--\":99:100   */\n      dup1\n        /* \"--CODEGEN--\":94:97   */\n      dup3\n        /* \"--CODEGEN--\":90:101   */\n      add\n        /* \"--CODEGEN--\":84:102   */\n      mload\n        /* \"--CODEGEN--\":80:81   */\n      dup2\n        /* \"--CODEGEN--\":75:78   */\n      dup5\n        /* \"--CODEGEN--\":71:82   */\n      add\n        /* \"--CODEGEN--\":64:103   */\n      mstore\n        /* \"--CODEGEN--\":52:54   */\n      0x20\n        /* \"--CODEGEN--\":49:50   */\n      dup2\n        /* \"--CODEGEN--\":45:55   */\n      add\n        /* \"--CODEGEN--\":40:55   */\n      swap1\n      pop\n        /* \"--CODEGEN--\":8:108   */\n      jump(tag_34)\n    tag_36:\n        /* \"--CODEGEN--\":12:26   */\n      pop\n        /* \"contracts/polygonUsdt/Usdt-all-openzeppelin.sol\":46226:46339  MetaTransactionExecuted(... */\n      pop\n      pop\n      pop\n      swap1\n      pop\n      swap1\n      dup2\n      add\n      swap1\n      0x1f\n      and\n      dup1\n      iszero\n      tag_37\n      jumpi\n      dup1\n      dup3\n      sub\n      dup1\n      mload\n      0x01\n      dup4\n      0x20\n      sub\n      0x0100\n      exp\n      sub\n      not\n      and\n      dup2\n      mstore\n      0x20\n      add\n      swap2\n      pop\n    tag_37:\n      pop\n      swap5\n      pop\n      pop\n      pop\n      pop\n      pop\n      mload(0x40)\n      dup1\n      swap2\n      sub\n      swap1\n      log1\n        /* \"contracts/polygonUsdt/Usdt-all-openzeppelin.sol\":46447:46459  bool success */\n      0x00\n        /* \"contracts/polygonUsdt/Usdt-all-openzeppelin.sol\":46461:46484  bytes memory returnData */\n      0x60\n        /* \"contracts/polygonUsdt/Usdt-all-openzeppelin.sol\":46496:46500  this */\n      address\n        /* \"contracts/polygonUsdt/Usdt-all-openzeppelin.sol\":46488:46506  address(this).call */\n      0xffffffffffffffffffffffffffffffffffffffff\n      and\n        /* \"contracts/polygonUsdt/Usdt-all-openzeppelin.sol\":46537:46554  functionSignature */\n      dup9\n        /* \"contracts/polygonUsdt/Usdt-all-openzeppelin.sol\":46556:46567  userAddress */\n      dup11\n        /* \"contracts/polygonUsdt/Usdt-all-openzeppelin.sol\":46520:46568  abi.encodePacked(functionSignature, userAddress) */\n      add(0x20, mload(0x40))\n      dup1\n      dup4\n      dup1\n      mload\n      swap1\n      0x20\n      add\n      swap1\n      dup1\n      dup4\n      dup4\n        /* \"--CODEGEN--\":36:189   */\n    tag_38:\n        /* \"--CODEGEN--\":66:68   */\n      0x20\n        /* \"--CODEGEN--\":61:64   */\n      dup4\n        /* \"--CODEGEN--\":58:69   */\n      lt\n        /* \"--CODEGEN--\":36:189   */\n      tag_40\n      jumpi\n        /* \"--CODEGEN--\":182:185   */\n      dup1\n        /* \"--CODEGEN--\":176:186   */\n      mload\n        /* \"--CODEGEN--\":171:174   */\n      dup3\n        /* \"--CODEGEN--\":164:187   */\n      mstore\n        /* \"--CODEGEN--\":98:100   */\n      0x20\n        /* \"--CODEGEN--\":93:96   */\n      dup3\n        /* \"--CODEGEN--\":89:101   */\n      add\n        /* \"--CODEGEN--\":82:101   */\n      swap2\n      pop\n        /* \"--CODEGEN--\":123:125   */\n      0x20\n        /* \"--CODEGEN--\":118:121   */\n      dup2\n        /* \"--CODEGEN--\":114:126   */\n      add\n        /* \"--CODEGEN--\":107:126   */\n      swap1\n      pop\n        /* \"--CODEGEN--\":148:150   */\n      0x20\n        /* \"--CODEGEN--\":143:146   */\n      dup4\n        /* \"--CODEGEN--\":139:151   */\n      sub\n        /* \"--CODEGEN--\":132:151   */\n      swap3\n      pop\n        /* \"--CODEGEN--\":36:189   */\n      jump(tag_38)\n    tag_40:\n        /* \"--CODEGEN--\":274:275   */\n      0x01\n        /* \"--CODEGEN--\":267:270   */\n      dup4\n        /* \"--CODEGEN--\":263:265   */\n      0x20\n        /* \"--CODEGEN--\":259:271   */\n      sub\n        /* \"--CODEGEN--\":254:257   */\n      0x0100\n        /* \"--CODEGEN--\":250:272   */\n      exp\n        /* \"--CODEGEN--\":246:276   */\n      sub\n        /* \"--CODEGEN--\":315:319   */\n      dup1\n        /* \"--CODEGEN--\":311:320   */\n      not\n        /* \"--CODEGEN--\":305:308   */\n      dup3\n        /* \"--CODEGEN--\":299:309   */\n      mload\n        /* \"--CODEGEN--\":295:321   */\n      and\n        /* \"--CODEGEN--\":356:360   */\n      dup2\n        /* \"--CODEGEN--\":350:353   */\n      dup5\n        /* \"--CODEGEN--\":344:354   */\n      mload\n        /* \"--CODEGEN--\":340:361   */\n      and\n        /* \"--CODEGEN--\":389:396   */\n      dup1\n        /* \"--CODEGEN--\":380:387   */\n      dup3\n        /* \"--CODEGEN--\":377:397   */\n      or\n        /* \"--CODEGEN--\":372:375   */\n      dup6\n        /* \"--CODEGEN--\":365:398   */\n      mstore\n        /* \"--CODEGEN--\":3:402   */\n      pop\n      pop\n      pop\n        /* \"contracts/polygonUsdt/Usdt-all-openzeppelin.sol\":46520:46568  abi.encodePacked(functionSignature, userAddress) */\n      pop\n      pop\n      pop\n      swap1\n      pop\n      add\n      dup3\n      0xffffffffffffffffffffffffffffffffffffffff\n      and\n      0xffffffffffffffffffffffffffffffffffffffff\n      and\n      0x60\n      shl\n      dup2\n      mstore\n      0x14\n      add\n      swap3\n      pop\n      pop\n      pop\n      mload(0x40)\n        /* \"--CODEGEN--\":49:53   */\n      0x20\n        /* \"--CODEGEN--\":39:46   */\n      dup2\n        /* \"--CODEGEN--\":30:37   */\n      dup4\n        /* \"--CODEGEN--\":26:47   */\n      sub\n        /* \"--CODEGEN--\":22:54   */\n      sub\n        /* \"--CODEGEN--\":13:20   */\n      dup2\n        /* \"--CODEGEN--\":6:55   */\n      mstore\n        /* \"contracts/polygonUsdt/Usdt-all-openzeppelin.sol\":46520:46568  abi.encodePacked(functionSignature, userAddress) */\n      swap1\n      0x40\n      mstore\n        /* \"contracts/polygonUsdt/Usdt-all-openzeppelin.sol\":46488:46578  address(this).call(... */\n      mload(0x40)\n      dup1\n      dup3\n      dup1\n      mload\n      swap1\n      0x20\n      add\n      swap1\n      dup1\n      dup4\n      dup4\n        /* \"--CODEGEN--\":36:189   */\n    tag_41:\n        /* \"--CODEGEN--\":66:68   */\n      0x20\n        /* \"--CODEGEN--\":61:64   */\n      dup4\n        /* \"--CODEGEN--\":58:69   */\n      lt\n        /* \"--CODEGEN--\":36:189   */\n      tag_43\n      jumpi\n        /* \"--CODEGEN--\":182:185   */\n      dup1\n        /* \"--CODEGEN--\":176:186   */\n      mload\n        /* \"--CODEGEN--\":171:174   */\n      dup3\n        /* \"--CODEGEN--\":164:187   */\n      mstore\n        /* \"--CODEGEN--\":98:100   */\n      0x20\n        /* \"--CODEGEN--\":93:96   */\n      dup3\n        /* \"--CODEGEN--\":89:101   */\n      add\n        /* \"--CODEGEN--\":82:101   */\n      swap2\n      pop\n        /* \"--CODEGEN--\":123:125   */\n      0x20\n        /* \"--CODEGEN--\":118:121   */\n      dup2\n        /* \"--CODEGEN--\":114:126   */\n      add\n        /* \"--CODEGEN--\":107:126   */\n      swap1\n      pop\n        /* \"--CODEGEN--\":148:150   */\n      0x20\n        /* \"--CODEGEN--\":143:146   */\n      dup4\n        /* \"--CODEGEN--\":139:151   */\n      sub\n        /* \"--CODEGEN--\":132:151   */\n      swap3\n      pop\n        /* \"--CODEGEN--\":36:189   */\n      jump(tag_41)\n    tag_43:\n        /* \"--CODEGEN--\":274:275   */\n      0x01\n        /* \"--CODEGEN--\":267:270   */\n      dup4\n        /* \"--CODEGEN--\":263:265   */\n      0x20\n        /* \"--CODEGEN--\":259:271   */\n      sub\n        /* \"--CODEGEN--\":254:257   */\n      0x0100\n        /* \"--CODEGEN--\":250:272   */\n      exp\n        /* \"--CODEGEN--\":246:276   */\n      sub\n        /* \"--CODEGEN--\":315:319   */\n      dup1\n        /* \"--CODEGEN--\":311:320   */\n      not\n        /* \"--CODEGEN--\":305:308   */\n      dup3\n        /* \"--CODEGEN--\":299:309   */\n      mload\n        /* \"--CODEGEN--\":295:321   */\n      and\n        /* \"--CODEGEN--\":356:360   */\n      dup2\n        /* \"--CODEGEN--\":350:353   */\n      dup5\n        /* \"--CODEGEN--\":344:354   */\n      mload\n        /* \"--CODEGEN--\":340:361   */\n      and\n        /* \"--CODEGEN--\":389:396   */\n      dup1\n        /* \"--CODEGEN--\":380:387   */\n      dup3\n        /* \"--CODEGEN--\":377:397   */\n      or\n        /* \"--CODEGEN--\":372:375   */\n      dup6\n        /* \"--CODEGEN--\":365:398   */\n      mstore\n        /* \"--CODEGEN--\":3:402   */\n      pop\n      pop\n      pop\n        /* \"contracts/polygonUsdt/Usdt-all-openzeppelin.sol\":46488:46578  address(this).call(... */\n      pop\n      pop\n      pop\n      swap1\n      pop\n      add\n      swap2\n      pop\n      pop\n      0x00\n      mload(0x40)\n      dup1\n      dup4\n      sub\n      dup2\n      0x00\n      dup7\n      gas\n      call\n      swap2\n      pop\n      pop\n      returndatasize\n        /* \"--CODEGEN--\":12:13   */\n      dup1\n        /* \"--CODEGEN--\":19:20   */\n      0x00\n        /* \"--CODEGEN--\":14:41   */\n      dup2\n      eq\n      tag_46\n      jumpi\n        /* \"--CODEGEN--\":67:71   */\n      0x40\n        /* \"--CODEGEN--\":61:72   */\n      mload\n        /* \"--CODEGEN--\":56:72   */\n      swap2\n      pop\n        /* \"--CODEGEN--\":134:138   */\n      0x1f\n        /* \"--CODEGEN--\":130:139   */\n      not\n        /* \"--CODEGEN--\":123:127   */\n      0x3f\n        /* \"--CODEGEN--\":105:121   */\n      returndatasize\n        /* \"--CODEGEN--\":101:128   */\n      add\n        /* \"--CODEGEN--\":97:140   */\n      and\n        /* \"--CODEGEN--\":94:95   */\n      dup3\n        /* \"--CODEGEN--\":90:141   */\n      add\n        /* \"--CODEGEN--\":84:88   */\n      0x40\n        /* \"--CODEGEN--\":77:142   */\n      mstore\n        /* \"--CODEGEN--\":157:173   */\n      returndatasize\n        /* \"--CODEGEN--\":154:155   */\n      dup3\n        /* \"--CODEGEN--\":147:174   */\n      mstore\n        /* \"--CODEGEN--\":211:227   */\n      returndatasize\n        /* \"--CODEGEN--\":208:209   */\n      0x00\n        /* \"--CODEGEN--\":201:205   */\n      0x20\n        /* \"--CODEGEN--\":198:199   */\n      dup5\n        /* \"--CODEGEN--\":194:206   */\n      add\n        /* \"--CODEGEN--\":179:228   */\n      returndatacopy\n        /* \"--CODEGEN--\":5:233   */\n      jump(tag_45)\n        /* \"--CODEGEN--\":14:41   */\n    tag_46:\n        /* \"--CODEGEN--\":32:36   */\n      0x60\n        /* \"--CODEGEN--\":27:36   */\n      swap2\n      pop\n        /* \"--CODEGEN--\":5:233   */\n    tag_45:\n      pop\n        /* \"contracts/polygonUsdt/Usdt-all-openzeppelin.sol\":46446:46578  (bool success, bytes memory returnData) = address(this).call(... */\n      swap2\n      pop\n      swap2\n      pop\n        /* \"contracts/polygonUsdt/Usdt-all-openzeppelin.sol\":46596:46603  success */\n      dup2\n        /* \"contracts/polygonUsdt/Usdt-all-openzeppelin.sol\":46588:46636  require(success, \"Function call not successful\") */\n      tag_47\n      jumpi\n      mload(0x40)\n      0x08c379a000000000000000000000000000000000000000000000000000000000\n      dup2\n      mstore\n      0x04\n      add\n      dup1\n      dup1\n      0x20\n      add\n      dup3\n      dup2\n      sub\n      dup3\n      mstore\n      0x1c\n      dup2\n      mstore\n      0x20\n      add\n      dup1\n      0x46756e6374696f6e2063616c6c206e6f74207375636365737366756c00000000\n      dup2\n      mstore\n      pop\n      0x20\n      add\n      swap2\n      pop\n      pop\n      mload(0x40)\n      dup1\n      swap2\n      sub\n      swap1\n      revert\n    tag_47:\n        /* \"contracts/polygonUsdt/Usdt-all-openzeppelin.sol\":46654:46664  returnData */\n      dup1\n        /* \"contracts/polygonUsdt/Usdt-all-openzeppelin.sol\":46647:46664  return returnData */\n      swap4\n      pop\n      pop\n      pop\n      pop\n        /* \"contracts/polygonUsdt/Usdt-all-openzeppelin.sol\":45563:46671  function executeMetaTransaction(... */\n      swap6\n      swap5\n      pop\n      pop\n      pop\n      pop\n      pop\n      jump\t// out\n        /* \"contracts/polygonUsdt/Usdt-all-openzeppelin.sol\":43814:43913  function getDomainSeperator() public view returns (bytes32) {... */\n    tag_18:\n        /* \"contracts/polygonUsdt/Usdt-all-openzeppelin.sol\":43865:43872  bytes32 */\n      0x00\n        /* \"contracts/polygonUsdt/Usdt-all-openzeppelin.sol\":43891:43906  domainSeperator */\n      sload(0x01)\n        /* \"contracts/polygonUsdt/Usdt-all-openzeppelin.sol\":43884:43906  return domainSeperator */\n      swap1\n      pop\n        /* \"contracts/polygonUsdt/Usdt-all-openzeppelin.sol\":43814:43913  function getDomainSeperator() public view returns (bytes32) {... */\n      swap1\n      jump\t// out\n        /* \"contracts/polygonUsdt/Usdt-all-openzeppelin.sol\":47079:47184  function getNonce(address user) public view returns (uint256 nonce) {... */\n    tag_22:\n        /* \"contracts/polygonUsdt/Usdt-all-openzeppelin.sol\":47132:47145  uint256 nonce */\n      0x00\n        /* \"contracts/polygonUsdt/Usdt-all-openzeppelin.sol\":47165:47171  nonces */\n      0x02\n        /* \"contracts/polygonUsdt/Usdt-all-openzeppelin.sol\":47165:47177  nonces[user] */\n      0x00\n        /* \"contracts/polygonUsdt/Usdt-all-openzeppelin.sol\":47172:47176  user */\n      dup4\n        /* \"contracts/polygonUsdt/Usdt-all-openzeppelin.sol\":47165:47177  nonces[user] */\n      0xffffffffffffffffffffffffffffffffffffffff\n      and\n      0xffffffffffffffffffffffffffffffffffffffff\n      and\n      dup2\n      mstore\n      0x20\n      add\n      swap1\n      dup2\n      mstore\n      0x20\n      add\n      0x00\n      keccak256\n      sload\n        /* \"contracts/polygonUsdt/Usdt-all-openzeppelin.sol\":47157:47177  nonce = nonces[user] */\n      swap1\n      pop\n        /* \"contracts/polygonUsdt/Usdt-all-openzeppelin.sol\":47079:47184  function getNonce(address user) public view returns (uint256 nonce) {... */\n      swap2\n      swap1\n      pop\n      jump\t// out\n        /* \"contracts/polygonUsdt/Usdt-all-openzeppelin.sol\":43919:44074  function getChainId() public pure returns (uint256) {... */\n    tag_25:\n        /* \"contracts/polygonUsdt/Usdt-all-openzeppelin.sol\":43962:43969  uint256 */\n      0x00\n        /* \"contracts/polygonUsdt/Usdt-all-openzeppelin.sol\":43981:43991  uint256 id */\n      dup1\n        /* \"contracts/polygonUsdt/Usdt-all-openzeppelin.sol\":44030:44039  chainid() */\n      chainid\n        /* \"contracts/polygonUsdt/Usdt-all-openzeppelin.sol\":44024:44039  id := chainid() */\n      swap1\n      pop\n        /* \"contracts/polygonUsdt/Usdt-all-openzeppelin.sol\":44065:44067  id */\n      dup1\n        /* \"contracts/polygonUsdt/Usdt-all-openzeppelin.sol\":44058:44067  return id */\n      swap2\n      pop\n      pop\n        /* \"contracts/polygonUsdt/Usdt-all-openzeppelin.sol\":43919:44074  function getChainId() public pure returns (uint256) {... */\n      swap1\n      jump\t// out\n        /* \"contracts/polygonUsdt/Usdt-all-openzeppelin.sol\":47190:47660  function verify(... */\n    tag_30:\n        /* \"contracts/polygonUsdt/Usdt-all-openzeppelin.sol\":47362:47366  bool */\n      0x00\n        /* \"contracts/polygonUsdt/Usdt-all-openzeppelin.sol\":47404:47405  0 */\n      dup1\n        /* \"contracts/polygonUsdt/Usdt-all-openzeppelin.sol\":47386:47406  signer != address(0) */\n      0xffffffffffffffffffffffffffffffffffffffff\n      and\n        /* \"contracts/polygonUsdt/Usdt-all-openzeppelin.sol\":47386:47392  signer */\n      dup7\n        /* \"contracts/polygonUsdt/Usdt-all-openzeppelin.sol\":47386:47406  signer != address(0) */\n      0xffffffffffffffffffffffffffffffffffffffff\n      and\n      eq\n      iszero\n        /* \"contracts/polygonUsdt/Usdt-all-openzeppelin.sol\":47378:47448  require(signer != address(0), \"NativeMetaTransaction: INVALID_SIGNER\") */\n      tag_52\n      jumpi\n      mload(0x40)\n      0x08c379a000000000000000000000000000000000000000000000000000000000\n      dup2\n      mstore\n      0x04\n      add\n      dup1\n      dup1\n      0x20\n      add\n      dup3\n      dup2\n      sub\n      dup3\n      mstore\n      0x25\n      dup2\n      mstore\n      0x20\n      add\n      dup1\n      data_677c3aff34a7c44a5c4470b26f7bc0d31cbb2b3473b145bc518ea22bfc186273\n      0x25\n      swap2\n      codecopy\n      0x40\n      add\n      swap2\n      pop\n      pop\n      mload(0x40)\n      dup1\n      swap2\n      sub\n      swap1\n      revert\n    tag_52:\n        /* \"contracts/polygonUsdt/Usdt-all-openzeppelin.sol\":47499:47653  ecrecover(... */\n      0x01\n        /* \"contracts/polygonUsdt/Usdt-all-openzeppelin.sol\":47526:47573  toTypedMessageHash(hashMetaTransaction(metaTx)) */\n      tag_53\n        /* \"contracts/polygonUsdt/Usdt-all-openzeppelin.sol\":47545:47572  hashMetaTransaction(metaTx) */\n      tag_54\n        /* \"contracts/polygonUsdt/Usdt-all-openzeppelin.sol\":47565:47571  metaTx */\n      dup8\n        /* \"contracts/polygonUsdt/Usdt-all-openzeppelin.sol\":47545:47564  hashMetaTransaction */\n      tag_55\n        /* \"contracts/polygonUsdt/Usdt-all-openzeppelin.sol\":47545:47572  hashMetaTransaction(metaTx) */\n      jump\t// in\n    tag_54:\n        /* \"contracts/polygonUsdt/Usdt-all-openzeppelin.sol\":47526:47544  toTypedMessageHash */\n      tag_56\n        /* \"contracts/polygonUsdt/Usdt-all-openzeppelin.sol\":47526:47573  toTypedMessageHash(hashMetaTransaction(metaTx)) */\n      jump\t// in\n    tag_53:\n        /* \"contracts/polygonUsdt/Usdt-all-openzeppelin.sol\":47591:47595  sigV */\n      dup4\n        /* \"contracts/polygonUsdt/Usdt-all-openzeppelin.sol\":47613:47617  sigR */\n      dup7\n        /* \"contracts/polygonUsdt/Usdt-all-openzeppelin.sol\":47635:47639  sigS */\n      dup7\n        /* \"contracts/polygonUsdt/Usdt-all-openzeppelin.sol\":47499:47653  ecrecover(... */\n      mload(0x40)\n      0x00\n      dup2\n      mstore\n      0x20\n      add\n      0x40\n      mstore\n      mload(0x40)\n      dup1\n      dup6\n      dup2\n      mstore\n      0x20\n      add\n      dup5\n      0xff\n      and\n      0xff\n      and\n      dup2\n      mstore\n      0x20\n      add\n      dup4\n      dup2\n      mstore\n      0x20\n      add\n      dup3\n      dup2\n      mstore\n      0x20\n      add\n      swap5\n      pop\n      pop\n      pop\n      pop\n      pop\n      0x20\n      mload(0x40)\n      0x20\n      dup2\n      sub\n      swap1\n      dup1\n      dup5\n      sub\n      swap1\n      dup6\n      gas\n      staticcall\n      iszero\n        /* \"--CODEGEN--\":8:17   */\n      dup1\n        /* \"--CODEGEN--\":5:7   */\n      iszero\n      tag_58\n      jumpi\n        /* \"--CODEGEN--\":45:61   */\n      returndatasize\n        /* \"--CODEGEN--\":42:43   */\n      0x00\n        /* \"--CODEGEN--\":39:40   */\n      dup1\n        /* \"--CODEGEN--\":24:62   */\n      returndatacopy\n        /* \"--CODEGEN--\":77:93   */\n      returndatasize\n        /* \"--CODEGEN--\":74:75   */\n      0x00\n        /* \"--CODEGEN--\":67:94   */\n      revert\n        /* \"--CODEGEN--\":5:7   */\n    tag_58:\n        /* \"contracts/polygonUsdt/Usdt-all-openzeppelin.sol\":47499:47653  ecrecover(... */\n      pop\n      pop\n      pop\n      mload(sub(mload(0x40), 0x20))\n        /* \"contracts/polygonUsdt/Usdt-all-openzeppelin.sol\":47477:47653  signer ==... */\n      0xffffffffffffffffffffffffffffffffffffffff\n      and\n        /* \"contracts/polygonUsdt/Usdt-all-openzeppelin.sol\":47477:47483  signer */\n      dup7\n        /* \"contracts/polygonUsdt/Usdt-all-openzeppelin.sol\":47477:47653  signer ==... */\n      0xffffffffffffffffffffffffffffffffffffffff\n      and\n      eq\n        /* \"contracts/polygonUsdt/Usdt-all-openzeppelin.sol\":47458:47653  return... */\n      swap1\n      pop\n        /* \"contracts/polygonUsdt/Usdt-all-openzeppelin.sol\":47190:47660  function verify(... */\n      swap6\n      swap5\n      pop\n      pop\n      pop\n      pop\n      pop\n      jump\t// out\n        /* \"contracts/polygonUsdt/Usdt-all-openzeppelin.sol\":4736:4912  function add(uint256 a, uint256 b) internal pure returns (uint256) {... */\n    tag_33:\n        /* \"contracts/polygonUsdt/Usdt-all-openzeppelin.sol\":4794:4801  uint256 */\n      0x00\n        /* \"contracts/polygonUsdt/Usdt-all-openzeppelin.sol\":4813:4822  uint256 c */\n      dup1\n        /* \"contracts/polygonUsdt/Usdt-all-openzeppelin.sol\":4829:4830  b */\n      dup3\n        /* \"contracts/polygonUsdt/Usdt-all-openzeppelin.sol\":4825:4826  a */\n      dup5\n        /* \"contracts/polygonUsdt/Usdt-all-openzeppelin.sol\":4825:4830  a + b */\n      add\n        /* \"contracts/polygonUsdt/Usdt-all-openzeppelin.sol\":4813:4830  uint256 c = a + b */\n      swap1\n      pop\n        /* \"contracts/polygonUsdt/Usdt-all-openzeppelin.sol\":4853:4854  a */\n      dup4\n        /* \"contracts/polygonUsdt/Usdt-all-openzeppelin.sol\":4848:4849  c */\n      dup2\n        /* \"contracts/polygonUsdt/Usdt-all-openzeppelin.sol\":4848:4854  c >= a */\n      lt\n      iszero\n        /* \"contracts/polygonUsdt/Usdt-all-openzeppelin.sol\":4840:4886  require(c >= a, \"SafeMath: addition overflow\") */\n      tag_60\n      jumpi\n      mload(0x40)\n      0x08c379a000000000000000000000000000000000000000000000000000000000\n      dup2\n      mstore\n      0x04\n      add\n      dup1\n      dup1\n      0x20\n      add\n      dup3\n      dup2\n      sub\n      dup3\n      mstore\n      0x1b\n      dup2\n      mstore\n      0x20\n      add\n      dup1\n      0x536166654d6174683a206164646974696f6e206f766572666c6f770000000000\n      dup2\n      mstore\n      pop\n      0x20\n      add\n      swap2\n      pop\n      pop\n      mload(0x40)\n      dup1\n      swap2\n      sub\n      swap1\n      revert\n    tag_60:\n        /* \"contracts/polygonUsdt/Usdt-all-openzeppelin.sol\":4904:4905  c */\n      dup1\n        /* \"contracts/polygonUsdt/Usdt-all-openzeppelin.sol\":4897:4905  return c */\n      swap2\n      pop\n      pop\n        /* \"contracts/polygonUsdt/Usdt-all-openzeppelin.sol\":4736:4912  function add(uint256 a, uint256 b) internal pure returns (uint256) {... */\n      swap3\n      swap2\n      pop\n      pop\n      jump\t// out\n        /* \"contracts/polygonUsdt/Usdt-all-openzeppelin.sol\":46677:47073  function hashMetaTransaction(MetaTransaction memory metaTx)... */\n    tag_55:\n        /* \"contracts/polygonUsdt/Usdt-all-openzeppelin.sol\":46784:46791  bytes32 */\n      0x00\n        /* \"contracts/polygonUsdt/Usdt-all-openzeppelin.sol\":44921:45019  bytes(... */\n      mload(0x40)\n      dup1\n      0x80\n      add\n      0x40\n      mstore\n      dup1\n      0x43\n      dup2\n      mstore\n      0x20\n      add\n      data_23d10def3caacba2e4042e0c75d44a42d2558aabcf5ce951d0642a8032e1e653\n      0x43\n      swap2\n      codecopy\n        /* \"contracts/polygonUsdt/Usdt-all-openzeppelin.sol\":44902:45025  keccak256(... */\n      dup1\n      mload\n      swap1\n      0x20\n      add\n      keccak256\n        /* \"contracts/polygonUsdt/Usdt-all-openzeppelin.sol\":46932:46938  metaTx */\n      dup3\n        /* \"contracts/polygonUsdt/Usdt-all-openzeppelin.sol\":46932:46944  metaTx.nonce */\n      0x00\n      add\n      mload\n        /* \"contracts/polygonUsdt/Usdt-all-openzeppelin.sol\":46966:46972  metaTx */\n      dup4\n        /* \"contracts/polygonUsdt/Usdt-all-openzeppelin.sol\":46966:46977  metaTx.from */\n      0x20\n      add\n      mload\n        /* \"contracts/polygonUsdt/Usdt-all-openzeppelin.sol\":47009:47015  metaTx */\n      dup5\n        /* \"contracts/polygonUsdt/Usdt-all-openzeppelin.sol\":47009:47033  metaTx.functionSignature */\n      0x40\n      add\n      mload\n        /* \"contracts/polygonUsdt/Usdt-all-openzeppelin.sol\":46999:47034  keccak256(metaTx.functionSignature) */\n      dup1\n      mload\n      swap1\n      0x20\n      add\n      keccak256\n        /* \"contracts/polygonUsdt/Usdt-all-openzeppelin.sol\":46853:47052  abi.encode(... */\n      add(0x20, mload(0x40))\n      dup1\n      dup6\n      dup2\n      mstore\n      0x20\n      add\n      dup5\n      dup2\n      mstore\n      0x20\n      add\n      dup4\n      0xffffffffffffffffffffffffffffffffffffffff\n      and\n      0xffffffffffffffffffffffffffffffffffffffff\n      and\n      dup2\n      mstore\n      0x20\n      add\n      dup3\n      dup2\n      mstore\n      0x20\n      add\n      swap5\n      pop\n      pop\n      pop\n      pop\n      pop\n      mload(0x40)\n        /* \"--CODEGEN--\":49:53   */\n      0x20\n        /* \"--CODEGEN--\":39:46   */\n      dup2\n        /* \"--CODEGEN--\":30:37   */\n      dup4\n        /* \"--CODEGEN--\":26:47   */\n      sub\n        /* \"--CODEGEN--\":22:54   */\n      sub\n        /* \"--CODEGEN--\":13:20   */\n      dup2\n        /* \"--CODEGEN--\":6:55   */\n      mstore\n        /* \"contracts/polygonUsdt/Usdt-all-openzeppelin.sol\":46853:47052  abi.encode(... */\n      swap1\n      0x40\n      mstore\n        /* \"contracts/polygonUsdt/Usdt-all-openzeppelin.sol\":46826:47066  keccak256(... */\n      dup1\n      mload\n      swap1\n      0x20\n      add\n      keccak256\n        /* \"contracts/polygonUsdt/Usdt-all-openzeppelin.sol\":46807:47066  return... */\n      swap1\n      pop\n        /* \"contracts/polygonUsdt/Usdt-all-openzeppelin.sol\":46677:47073  function hashMetaTransaction(MetaTransaction memory metaTx)... */\n      swap2\n      swap1\n      pop\n      jump\t// out\n        /* \"contracts/polygonUsdt/Usdt-all-openzeppelin.sol\":44434:44683  function toTypedMessageHash(bytes32 messageHash)... */\n    tag_56:\n        /* \"contracts/polygonUsdt/Usdt-all-openzeppelin.sol\":44530:44537  bytes32 */\n      0x00\n        /* \"contracts/polygonUsdt/Usdt-all-openzeppelin.sol\":44628:44648  getDomainSeperator() */\n      tag_63\n        /* \"contracts/polygonUsdt/Usdt-all-openzeppelin.sol\":44628:44646  getDomainSeperator */\n      tag_18\n        /* \"contracts/polygonUsdt/Usdt-all-openzeppelin.sol\":44628:44648  getDomainSeperator() */\n      jump\t// in\n    tag_63:\n        /* \"contracts/polygonUsdt/Usdt-all-openzeppelin.sol\":44650:44661  messageHash */\n      dup3\n        /* \"contracts/polygonUsdt/Usdt-all-openzeppelin.sol\":44599:44662  abi.encodePacked(\"\\x19\\x01\", getDomainSeperator(), messageHash) */\n      add(0x20, mload(0x40))\n      dup1\n      dup1\n      0x1901000000000000000000000000000000000000000000000000000000000000\n      dup2\n      mstore\n      pop\n      0x02\n      add\n      dup4\n      dup2\n      mstore\n      0x20\n      add\n      dup3\n      dup2\n      mstore\n      0x20\n      add\n      swap3\n      pop\n      pop\n      pop\n      mload(0x40)\n        /* \"--CODEGEN--\":49:53   */\n      0x20\n        /* \"--CODEGEN--\":39:46   */\n      dup2\n        /* \"--CODEGEN--\":30:37   */\n      dup4\n        /* \"--CODEGEN--\":26:47   */\n      sub\n        /* \"--CODEGEN--\":22:54   */\n      sub\n        /* \"--CODEGEN--\":13:20   */\n      dup2\n        /* \"--CODEGEN--\":6:55   */\n      mstore\n        /* \"contracts/polygonUsdt/Usdt-all-openzeppelin.sol\":44599:44662  abi.encodePacked(\"\\x19\\x01\", getDomainSeperator(), messageHash) */\n      swap1\n      0x40\n      mstore\n        /* \"contracts/polygonUsdt/Usdt-all-openzeppelin.sol\":44572:44676  keccak256(... */\n      dup1\n      mload\n      swap1\n      0x20\n      add\n      keccak256\n        /* \"contracts/polygonUsdt/Usdt-all-openzeppelin.sol\":44553:44676  return... */\n      swap1\n      pop\n        /* \"contracts/polygonUsdt/Usdt-all-openzeppelin.sol\":44434:44683  function toTypedMessageHash(bytes32 messageHash)... */\n      swap2\n      swap1\n      pop\n      jump\t// out\n        /* \"contracts/polygonUsdt/Usdt-all-openzeppelin.sol\":44766:47662  contract NativeMetaTransaction is EIP712Base {... */\n    tag_28:\n      mload(0x40)\n      dup1\n      0x60\n      add\n      0x40\n      mstore\n      dup1\n      0x00\n      dup2\n      mstore\n      0x20\n      add\n      and(0xffffffffffffffffffffffffffffffffffffffff, 0x00)\n      dup2\n      mstore\n      0x20\n      add\n      0x60\n      dup2\n      mstore\n      pop\n      swap1\n      jump\t// out\n    stop\n    data_23d10def3caacba2e4042e0c75d44a42d2558aabcf5ce951d0642a8032e1e653 4d6574615472616e73616374696f6e2875696e74323536206e6f6e63652c616464726573732066726f6d2c62797465732066756e6374696f6e5369676e617475726529\n    data_677c3aff34a7c44a5c4470b26f7bc0d31cbb2b3473b145bc518ea22bfc186273 4e61746976654d6574615472616e73616374696f6e3a20494e56414c49445f5349474e4552\n    data_a1a5cd4826a8c5c8495a3bcd7f31593c1559fab8207afc024ed2a3f3fa2bbbda 5369676e657220616e64207369676e617475726520646f206e6f74206d61746368\n\n    auxdata: 0xa2646970667358221220bbce6ca80441eaa1daea65a7ffc7f128178df2841b2d53327911ef831b93982a64736f6c63430006060033\n}\n",
				"bytecode": {
					"linkReferences": {},
					"object": "608060405260008060006101000a81548160ff02191690831515021790555034801561002a57600080fd5b50610aec8061003a6000396000f3fe60806040526004361061003f5760003560e01c80630c53c51c1461004457806320379ee5146101b95780632d0335ab146101e45780633408e47014610249575b600080fd5b61013e600480360360a081101561005a57600080fd5b81019080803573ffffffffffffffffffffffffffffffffffffffff1690602001909291908035906020019064010000000081111561009757600080fd5b8201836020820111156100a957600080fd5b803590602001918460018302840111640100000000831117156100cb57600080fd5b91908080601f016020809104026020016040519081016040528093929190818152602001838380828437600081840152601f19601f8201169050808301925050505050505091929192908035906020019092919080359060200190929190803560ff169060200190929190505050610274565b6040518080602001828103825283818151815260200191508051906020019080838360005b8381101561017e578082015181840152602081019050610163565b50505050905090810190601f1680156101ab5780820380516001836020036101000a031916815260200191505b509250505060405180910390f35b3480156101c557600080fd5b506101ce6106ca565b6040518082815260200191505060405180910390f35b3480156101f057600080fd5b506102336004803603602081101561020757600080fd5b81019080803573ffffffffffffffffffffffffffffffffffffffff1690602001909291905050506106d4565b6040518082815260200191505060405180910390f35b34801561025557600080fd5b5061025e61071d565b6040518082815260200191505060405180910390f35b606061027e6109f6565b6040518060600160405280600260008a73ffffffffffffffffffffffffffffffffffffffff1673ffffffffffffffffffffffffffffffffffffffff1681526020019081526020016000205481526020018873ffffffffffffffffffffffffffffffffffffffff1681526020018781525090506102fd878287878761072a565b610352576040517f08c379a0000000000000000000000000000000000000000000000000000000008152600401808060200182810382526021815260200180610a966021913960400191505060405180910390fd5b6103a56001600260008a73ffffffffffffffffffffffffffffffffffffffff1673ffffffffffffffffffffffffffffffffffffffff1681526020019081526020016000205461086190919063ffffffff16565b600260008973ffffffffffffffffffffffffffffffffffffffff1673ffffffffffffffffffffffffffffffffffffffff168152602001908152602001600020819055507f5845892132946850460bff5a0083f71031bc5bf9aadcd40f1de79423eac9b10b873388604051808473ffffffffffffffffffffffffffffffffffffffff1673ffffffffffffffffffffffffffffffffffffffff1681526020018373ffffffffffffffffffffffffffffffffffffffff1673ffffffffffffffffffffffffffffffffffffffff16815260200180602001828103825283818151815260200191508051906020019080838360005b838110156104b0578082015181840152602081019050610495565b50505050905090810190601f1680156104dd5780820380516001836020036101000a031916815260200191505b5094505050505060405180910390a1600060603073ffffffffffffffffffffffffffffffffffffffff16888a6040516020018083805190602001908083835b6020831061053f578051825260208201915060208101905060208303925061051c565b6001836020036101000a0380198251168184511680821785525050505050509050018273ffffffffffffffffffffffffffffffffffffffff1673ffffffffffffffffffffffffffffffffffffffff1660601b8152601401925050506040516020818303038152906040526040518082805190602001908083835b602083106105dc57805182526020820191506020810190506020830392506105b9565b6001836020036101000a0380198251168184511680821785525050505050509050019150506000604051808303816000865af19150503d806000811461063e576040519150601f19603f3d011682016040523d82523d6000602084013e610643565b606091505b5091509150816106bb576040517f08c379a000000000000000000000000000000000000000000000000000000000815260040180806020018281038252601c8152602001807f46756e6374696f6e2063616c6c206e6f74207375636365737366756c0000000081525060200191505060405180910390fd5b80935050505095945050505050565b6000600154905090565b6000600260008373ffffffffffffffffffffffffffffffffffffffff1673ffffffffffffffffffffffffffffffffffffffff168152602001908152602001600020549050919050565b6000804690508091505090565b60008073ffffffffffffffffffffffffffffffffffffffff168673ffffffffffffffffffffffffffffffffffffffff1614156107b1576040517f08c379a0000000000000000000000000000000000000000000000000000000008152600401808060200182810382526025815260200180610a716025913960400191505060405180910390fd5b60016107c46107bf876108e9565b61098f565b83868660405160008152602001604052604051808581526020018460ff1660ff1681526020018381526020018281526020019450505050506020604051602081039080840390855afa15801561081e573d6000803e3d6000fd5b5050506020604051035173ffffffffffffffffffffffffffffffffffffffff168673ffffffffffffffffffffffffffffffffffffffff1614905095945050505050565b6000808284019050838110156108df576040517f08c379a000000000000000000000000000000000000000000000000000000000815260040180806020018281038252601b8152602001807f536166654d6174683a206164646974696f6e206f766572666c6f77000000000081525060200191505060405180910390fd5b8091505092915050565b6000604051806080016040528060438152602001610a2e604391398051906020012082600001518360200151846040015180519060200120604051602001808581526020018481526020018373ffffffffffffffffffffffffffffffffffffffff1673ffffffffffffffffffffffffffffffffffffffff168152602001828152602001945050505050604051602081830303815290604052805190602001209050919050565b60006109996106ca565b8260405160200180807f190100000000000000000000000000000000000000000000000000000000000081525060020183815260200182815260200192505050604051602081830303815290604052805190602001209050919050565b604051806060016040528060008152602001600073ffffffffffffffffffffffffffffffffffffffff16815260200160608152509056fe4d6574615472616e73616374696f6e2875696e74323536206e6f6e63652c616464726573732066726f6d2c62797465732066756e6374696f6e5369676e6174757265294e61746976654d6574615472616e73616374696f6e3a20494e56414c49445f5349474e45525369676e657220616e64207369676e617475726520646f206e6f74206d61746368a2646970667358221220bbce6ca80441eaa1daea65a7ffc7f128178df2841b2d53327911ef831b93982a64736f6c63430006060033",
					"opcodes": "PUSH1 0x80 PUSH1 0x40 MSTORE PUSH1 0x0 DUP1 PUSH1 0x0 PUSH2 0x100 EXP DUP2 SLOAD DUP2 PUSH1 0xFF MUL NOT AND SWAP1 DUP4 ISZERO ISZERO MUL OR SWAP1 SSTORE POP CALLVALUE DUP1 ISZERO PUSH2 0x2A JUMPI PUSH1 0x0 DUP1 REVERT JUMPDEST POP PUSH2 0xAEC DUP1 PUSH2 0x3A PUSH1 0x0 CODECOPY PUSH1 0x0 RETURN INVALID PUSH1 0x80 PUSH1 0x40 MSTORE PUSH1 0x4 CALLDATASIZE LT PUSH2 0x3F JUMPI PUSH1 0x0 CALLDATALOAD PUSH1 0xE0 SHR DUP1 PUSH4 0xC53C51C EQ PUSH2 0x44 JUMPI DUP1 PUSH4 0x20379EE5 EQ PUSH2 0x1B9 JUMPI DUP1 PUSH4 0x2D0335AB EQ PUSH2 0x1E4 JUMPI DUP1 PUSH4 0x3408E470 EQ PUSH2 0x249 JUMPI JUMPDEST PUSH1 0x0 DUP1 REVERT JUMPDEST PUSH2 0x13E PUSH1 0x4 DUP1 CALLDATASIZE SUB PUSH1 0xA0 DUP2 LT ISZERO PUSH2 0x5A JUMPI PUSH1 0x0 DUP1 REVERT JUMPDEST DUP2 ADD SWAP1 DUP1 DUP1 CALLDATALOAD PUSH20 0xFFFFFFFFFFFFFFFFFFFFFFFFFFFFFFFFFFFFFFFF AND SWAP1 PUSH1 0x20 ADD SWAP1 SWAP3 SWAP2 SWAP1 DUP1 CALLDATALOAD SWAP1 PUSH1 0x20 ADD SWAP1 PUSH5 0x100000000 DUP2 GT ISZERO PUSH2 0x97 JUMPI PUSH1 0x0 DUP1 REVERT JUMPDEST DUP3 ADD DUP4 PUSH1 0x20 DUP3 ADD GT ISZERO PUSH2 0xA9 JUMPI PUSH1 0x0 DUP1 REVERT JUMPDEST DUP1 CALLDATALOAD SWAP1 PUSH1 0x20 ADD SWAP2 DUP5 PUSH1 0x1 DUP4 MUL DUP5 ADD GT PUSH5 0x100000000 DUP4 GT OR ISZERO PUSH2 0xCB JUMPI PUSH1 0x0 DUP1 REVERT JUMPDEST SWAP2 SWAP1 DUP1 DUP1 PUSH1 0x1F ADD PUSH1 0x20 DUP1 SWAP2 DIV MUL PUSH1 0x20 ADD PUSH1 0x40 MLOAD SWAP1 DUP2 ADD PUSH1 0x40 MSTORE DUP1 SWAP4 SWAP3 SWAP2 SWAP1 DUP2 DUP2 MSTORE PUSH1 0x20 ADD DUP4 DUP4 DUP1 DUP3 DUP5 CALLDATACOPY PUSH1 0x0 DUP2 DUP5 ADD MSTORE PUSH1 0x1F NOT PUSH1 0x1F DUP3 ADD AND SWAP1 POP DUP1 DUP4 ADD SWAP3 POP POP POP POP POP POP POP SWAP2 SWAP3 SWAP2 SWAP3 SWAP1 DUP1 CALLDATALOAD SWAP1 PUSH1 0x20 ADD SWAP1 SWAP3 SWAP2 SWAP1 DUP1 CALLDATALOAD SWAP1 PUSH1 0x20 ADD SWAP1 SWAP3 SWAP2 SWAP1 DUP1 CALLDATALOAD PUSH1 0xFF AND SWAP1 PUSH1 0x20 ADD SWAP1 SWAP3 SWAP2 SWAP1 POP POP POP PUSH2 0x274 JUMP JUMPDEST PUSH1 0x40 MLOAD DUP1 DUP1 PUSH1 0x20 ADD DUP3 DUP2 SUB DUP3 MSTORE DUP4 DUP2 DUP2 MLOAD DUP2 MSTORE PUSH1 0x20 ADD SWAP2 POP DUP1 MLOAD SWAP1 PUSH1 0x20 ADD SWAP1 DUP1 DUP4 DUP4 PUSH1 0x0 JUMPDEST DUP4 DUP2 LT ISZERO PUSH2 0x17E JUMPI DUP1 DUP3 ADD MLOAD DUP2 DUP5 ADD MSTORE PUSH1 0x20 DUP2 ADD SWAP1 POP PUSH2 0x163 JUMP JUMPDEST POP POP POP POP SWAP1 POP SWAP1 DUP2 ADD SWAP1 PUSH1 0x1F AND DUP1 ISZERO PUSH2 0x1AB JUMPI DUP1 DUP3 SUB DUP1 MLOAD PUSH1 0x1 DUP4 PUSH1 0x20 SUB PUSH2 0x100 EXP SUB NOT AND DUP2 MSTORE PUSH1 0x20 ADD SWAP2 POP JUMPDEST POP SWAP3 POP POP POP PUSH1 0x40 MLOAD DUP1 SWAP2 SUB SWAP1 RETURN JUMPDEST CALLVALUE DUP1 ISZERO PUSH2 0x1C5 JUMPI PUSH1 0x0 DUP1 REVERT JUMPDEST POP PUSH2 0x1CE PUSH2 0x6CA JUMP JUMPDEST PUSH1 0x40 MLOAD DUP1 DUP3 DUP2 MSTORE PUSH1 0x20 ADD SWAP2 POP POP PUSH1 0x40 MLOAD DUP1 SWAP2 SUB SWAP1 RETURN JUMPDEST CALLVALUE DUP1 ISZERO PUSH2 0x1F0 JUMPI PUSH1 0x0 DUP1 REVERT JUMPDEST POP PUSH2 0x233 PUSH1 0x4 DUP1 CALLDATASIZE SUB PUSH1 0x20 DUP2 LT ISZERO PUSH2 0x207 JUMPI PUSH1 0x0 DUP1 REVERT JUMPDEST DUP2 ADD SWAP1 DUP1 DUP1 CALLDATALOAD PUSH20 0xFFFFFFFFFFFFFFFFFFFFFFFFFFFFFFFFFFFFFFFF AND SWAP1 PUSH1 0x20 ADD SWAP1 SWAP3 SWAP2 SWAP1 POP POP POP PUSH2 0x6D4 JUMP JUMPDEST PUSH1 0x40 MLOAD DUP1 DUP3 DUP2 MSTORE PUSH1 0x20 ADD SWAP2 POP POP PUSH1 0x40 MLOAD DUP1 SWAP2 SUB SWAP1 RETURN JUMPDEST CALLVALUE DUP1 ISZERO PUSH2 0x255 JUMPI PUSH1 0x0 DUP1 REVERT JUMPDEST POP PUSH2 0x25E PUSH2 0x71D JUMP JUMPDEST PUSH1 0x40 MLOAD DUP1 DUP3 DUP2 MSTORE PUSH1 0x20 ADD SWAP2 POP POP PUSH1 0x40 MLOAD DUP1 SWAP2 SUB SWAP1 RETURN JUMPDEST PUSH1 0x60 PUSH2 0x27E PUSH2 0x9F6 JUMP JUMPDEST PUSH1 0x40 MLOAD DUP1 PUSH1 0x60 ADD PUSH1 0x40 MSTORE DUP1 PUSH1 0x2 PUSH1 0x0 DUP11 PUSH20 0xFFFFFFFFFFFFFFFFFFFFFFFFFFFFFFFFFFFFFFFF AND PUSH20 0xFFFFFFFFFFFFFFFFFFFFFFFFFFFFFFFFFFFFFFFF AND DUP2 MSTORE PUSH1 0x20 ADD SWAP1 DUP2 MSTORE PUSH1 0x20 ADD PUSH1 0x0 KECCAK256 SLOAD DUP2 MSTORE PUSH1 0x20 ADD DUP9 PUSH20 0xFFFFFFFFFFFFFFFFFFFFFFFFFFFFFFFFFFFFFFFF AND DUP2 MSTORE PUSH1 0x20 ADD DUP8 DUP2 MSTORE POP SWAP1 POP PUSH2 0x2FD DUP8 DUP3 DUP8 DUP8 DUP8 PUSH2 0x72A JUMP JUMPDEST PUSH2 0x352 JUMPI PUSH1 0x40 MLOAD PUSH32 0x8C379A000000000000000000000000000000000000000000000000000000000 DUP2 MSTORE PUSH1 0x4 ADD DUP1 DUP1 PUSH1 0x20 ADD DUP3 DUP2 SUB DUP3 MSTORE PUSH1 0x21 DUP2 MSTORE PUSH1 0x20 ADD DUP1 PUSH2 0xA96 PUSH1 0x21 SWAP2 CODECOPY PUSH1 0x40 ADD SWAP2 POP POP PUSH1 0x40 MLOAD DUP1 SWAP2 SUB SWAP1 REVERT JUMPDEST PUSH2 0x3A5 PUSH1 0x1 PUSH1 0x2 PUSH1 0x0 DUP11 PUSH20 0xFFFFFFFFFFFFFFFFFFFFFFFFFFFFFFFFFFFFFFFF AND PUSH20 0xFFFFFFFFFFFFFFFFFFFFFFFFFFFFFFFFFFFFFFFF AND DUP2 MSTORE PUSH1 0x20 ADD SWAP1 DUP2 MSTORE PUSH1 0x20 ADD PUSH1 0x0 KECCAK256 SLOAD PUSH2 0x861 SWAP1 SWAP2 SWAP1 PUSH4 0xFFFFFFFF AND JUMP JUMPDEST PUSH1 0x2 PUSH1 0x0 DUP10 PUSH20 0xFFFFFFFFFFFFFFFFFFFFFFFFFFFFFFFFFFFFFFFF AND PUSH20 0xFFFFFFFFFFFFFFFFFFFFFFFFFFFFFFFFFFFFFFFF AND DUP2 MSTORE PUSH1 0x20 ADD SWAP1 DUP2 MSTORE PUSH1 0x20 ADD PUSH1 0x0 KECCAK256 DUP2 SWAP1 SSTORE POP PUSH32 0x5845892132946850460BFF5A0083F71031BC5BF9AADCD40F1DE79423EAC9B10B DUP8 CALLER DUP9 PUSH1 0x40 MLOAD DUP1 DUP5 PUSH20 0xFFFFFFFFFFFFFFFFFFFFFFFFFFFFFFFFFFFFFFFF AND PUSH20 0xFFFFFFFFFFFFFFFFFFFFFFFFFFFFFFFFFFFFFFFF AND DUP2 MSTORE PUSH1 0x20 ADD DUP4 PUSH20 0xFFFFFFFFFFFFFFFFFFFFFFFFFFFFFFFFFFFFFFFF AND PUSH20 0xFFFFFFFFFFFFFFFFFFFFFFFFFFFFFFFFFFFFFFFF AND DUP2 MSTORE PUSH1 0x20 ADD DUP1 PUSH1 0x20 ADD DUP3 DUP2 SUB DUP3 MSTORE DUP4 DUP2 DUP2 MLOAD DUP2 MSTORE PUSH1 0x20 ADD SWAP2 POP DUP1 MLOAD SWAP1 PUSH1 0x20 ADD SWAP1 DUP1 DUP4 DUP4 PUSH1 0x0 JUMPDEST DUP4 DUP2 LT ISZERO PUSH2 0x4B0 JUMPI DUP1 DUP3 ADD MLOAD DUP2 DUP5 ADD MSTORE PUSH1 0x20 DUP2 ADD SWAP1 POP PUSH2 0x495 JUMP JUMPDEST POP POP POP POP SWAP1 POP SWAP1 DUP2 ADD SWAP1 PUSH1 0x1F AND DUP1 ISZERO PUSH2 0x4DD JUMPI DUP1 DUP3 SUB DUP1 MLOAD PUSH1 0x1 DUP4 PUSH1 0x20 SUB PUSH2 0x100 EXP SUB NOT AND DUP2 MSTORE PUSH1 0x20 ADD SWAP2 POP JUMPDEST POP SWAP5 POP POP POP POP POP PUSH1 0x40 MLOAD DUP1 SWAP2 SUB SWAP1 LOG1 PUSH1 0x0 PUSH1 0x60 ADDRESS PUSH20 0xFFFFFFFFFFFFFFFFFFFFFFFFFFFFFFFFFFFFFFFF AND DUP9 DUP11 PUSH1 0x40 MLOAD PUSH1 0x20 ADD DUP1 DUP4 DUP1 MLOAD SWAP1 PUSH1 0x20 ADD SWAP1 DUP1 DUP4 DUP4 JUMPDEST PUSH1 0x20 DUP4 LT PUSH2 0x53F JUMPI DUP1 MLOAD DUP3 MSTORE PUSH1 0x20 DUP3 ADD SWAP2 POP PUSH1 0x20 DUP2 ADD SWAP1 POP PUSH1 0x20 DUP4 SUB SWAP3 POP PUSH2 0x51C JUMP JUMPDEST PUSH1 0x1 DUP4 PUSH1 0x20 SUB PUSH2 0x100 EXP SUB DUP1 NOT DUP3 MLOAD AND DUP2 DUP5 MLOAD AND DUP1 DUP3 OR DUP6 MSTORE POP POP POP POP POP POP SWAP1 POP ADD DUP3 PUSH20 0xFFFFFFFFFFFFFFFFFFFFFFFFFFFFFFFFFFFFFFFF AND PUSH20 0xFFFFFFFFFFFFFFFFFFFFFFFFFFFFFFFFFFFFFFFF AND PUSH1 0x60 SHL DUP2 MSTORE PUSH1 0x14 ADD SWAP3 POP POP POP PUSH1 0x40 MLOAD PUSH1 0x20 DUP2 DUP4 SUB SUB DUP2 MSTORE SWAP1 PUSH1 0x40 MSTORE PUSH1 0x40 MLOAD DUP1 DUP3 DUP1 MLOAD SWAP1 PUSH1 0x20 ADD SWAP1 DUP1 DUP4 DUP4 JUMPDEST PUSH1 0x20 DUP4 LT PUSH2 0x5DC JUMPI DUP1 MLOAD DUP3 MSTORE PUSH1 0x20 DUP3 ADD SWAP2 POP PUSH1 0x20 DUP2 ADD SWAP1 POP PUSH1 0x20 DUP4 SUB SWAP3 POP PUSH2 0x5B9 JUMP JUMPDEST PUSH1 0x1 DUP4 PUSH1 0x20 SUB PUSH2 0x100 EXP SUB DUP1 NOT DUP3 MLOAD AND DUP2 DUP5 MLOAD AND DUP1 DUP3 OR DUP6 MSTORE POP POP POP POP POP POP SWAP1 POP ADD SWAP2 POP POP PUSH1 0x0 PUSH1 0x40 MLOAD DUP1 DUP4 SUB DUP2 PUSH1 0x0 DUP7 GAS CALL SWAP2 POP POP RETURNDATASIZE DUP1 PUSH1 0x0 DUP2 EQ PUSH2 0x63E JUMPI PUSH1 0x40 MLOAD SWAP2 POP PUSH1 0x1F NOT PUSH1 0x3F RETURNDATASIZE ADD AND DUP3 ADD PUSH1 0x40 MSTORE RETURNDATASIZE DUP3 MSTORE RETURNDATASIZE PUSH1 0x0 PUSH1 0x20 DUP5 ADD RETURNDATACOPY PUSH2 0x643 JUMP JUMPDEST PUSH1 0x60 SWAP2 POP JUMPDEST POP SWAP2 POP SWAP2 POP DUP2 PUSH2 0x6BB JUMPI PUSH1 0x40 MLOAD PUSH32 0x8C379A000000000000000000000000000000000000000000000000000000000 DUP2 MSTORE PUSH1 0x4 ADD DUP1 DUP1 PUSH1 0x20 ADD DUP3 DUP2 SUB DUP3 MSTORE PUSH1 0x1C DUP2 MSTORE PUSH1 0x20 ADD DUP1 PUSH32 0x46756E6374696F6E2063616C6C206E6F74207375636365737366756C00000000 DUP2 MSTORE POP PUSH1 0x20 ADD SWAP2 POP POP PUSH1 0x40 MLOAD DUP1 SWAP2 SUB SWAP1 REVERT JUMPDEST DUP1 SWAP4 POP POP POP POP SWAP6 SWAP5 POP POP POP POP POP JUMP JUMPDEST PUSH1 0x0 PUSH1 0x1 SLOAD SWAP1 POP SWAP1 JUMP JUMPDEST PUSH1 0x0 PUSH1 0x2 PUSH1 0x0 DUP4 PUSH20 0xFFFFFFFFFFFFFFFFFFFFFFFFFFFFFFFFFFFFFFFF AND PUSH20 0xFFFFFFFFFFFFFFFFFFFFFFFFFFFFFFFFFFFFFFFF AND DUP2 MSTORE PUSH1 0x20 ADD SWAP1 DUP2 MSTORE PUSH1 0x20 ADD PUSH1 0x0 KECCAK256 SLOAD SWAP1 POP SWAP2 SWAP1 POP JUMP JUMPDEST PUSH1 0x0 DUP1 CHAINID SWAP1 POP DUP1 SWAP2 POP POP SWAP1 JUMP JUMPDEST PUSH1 0x0 DUP1 PUSH20 0xFFFFFFFFFFFFFFFFFFFFFFFFFFFFFFFFFFFFFFFF AND DUP7 PUSH20 0xFFFFFFFFFFFFFFFFFFFFFFFFFFFFFFFFFFFFFFFF AND EQ ISZERO PUSH2 0x7B1 JUMPI PUSH1 0x40 MLOAD PUSH32 0x8C379A000000000000000000000000000000000000000000000000000000000 DUP2 MSTORE PUSH1 0x4 ADD DUP1 DUP1 PUSH1 0x20 ADD DUP3 DUP2 SUB DUP3 MSTORE PUSH1 0x25 DUP2 MSTORE PUSH1 0x20 ADD DUP1 PUSH2 0xA71 PUSH1 0x25 SWAP2 CODECOPY PUSH1 0x40 ADD SWAP2 POP POP PUSH1 0x40 MLOAD DUP1 SWAP2 SUB SWAP1 REVERT JUMPDEST PUSH1 0x1 PUSH2 0x7C4 PUSH2 0x7BF DUP8 PUSH2 0x8E9 JUMP JUMPDEST PUSH2 0x98F JUMP JUMPDEST DUP4 DUP7 DUP7 PUSH1 0x40 MLOAD PUSH1 0x0 DUP2 MSTORE PUSH1 0x20 ADD PUSH1 0x40 MSTORE PUSH1 0x40 MLOAD DUP1 DUP6 DUP2 MSTORE PUSH1 0x20 ADD DUP5 PUSH1 0xFF AND PUSH1 0xFF AND DUP2 MSTORE PUSH1 0x20 ADD DUP4 DUP2 MSTORE PUSH1 0x20 ADD DUP3 DUP2 MSTORE PUSH1 0x20 ADD SWAP5 POP POP POP POP POP PUSH1 0x20 PUSH1 0x40 MLOAD PUSH1 0x20 DUP2 SUB SWAP1 DUP1 DUP5 SUB SWAP1 DUP6 GAS STATICCALL ISZERO DUP1 ISZERO PUSH2 0x81E JUMPI RETURNDATASIZE PUSH1 0x0 DUP1 RETURNDATACOPY RETURNDATASIZE PUSH1 0x0 REVERT JUMPDEST POP POP POP PUSH1 0x20 PUSH1 0x40 MLOAD SUB MLOAD PUSH20 0xFFFFFFFFFFFFFFFFFFFFFFFFFFFFFFFFFFFFFFFF AND DUP7 PUSH20 0xFFFFFFFFFFFFFFFFFFFFFFFFFFFFFFFFFFFFFFFF AND EQ SWAP1 POP SWAP6 SWAP5 POP POP POP POP POP JUMP JUMPDEST PUSH1 0x0 DUP1 DUP3 DUP5 ADD SWAP1 POP DUP4 DUP2 LT ISZERO PUSH2 0x8DF JUMPI PUSH1 0x40 MLOAD PUSH32 0x8C379A000000000000000000000000000000000000000000000000000000000 DUP2 MSTORE PUSH1 0x4 ADD DUP1 DUP1 PUSH1 0x20 ADD DUP3 DUP2 SUB DUP3 MSTORE PUSH1 0x1B DUP2 MSTORE PUSH1 0x20 ADD DUP1 PUSH32 0x536166654D6174683A206164646974696F6E206F766572666C6F770000000000 DUP2 MSTORE POP PUSH1 0x20 ADD SWAP2 POP POP PUSH1 0x40 MLOAD DUP1 SWAP2 SUB SWAP1 REVERT JUMPDEST DUP1 SWAP2 POP POP SWAP3 SWAP2 POP POP JUMP JUMPDEST PUSH1 0x0 PUSH1 0x40 MLOAD DUP1 PUSH1 0x80 ADD PUSH1 0x40 MSTORE DUP1 PUSH1 0x43 DUP2 MSTORE PUSH1 0x20 ADD PUSH2 0xA2E PUSH1 0x43 SWAP2 CODECOPY DUP1 MLOAD SWAP1 PUSH1 0x20 ADD KECCAK256 DUP3 PUSH1 0x0 ADD MLOAD DUP4 PUSH1 0x20 ADD MLOAD DUP5 PUSH1 0x40 ADD MLOAD DUP1 MLOAD SWAP1 PUSH1 0x20 ADD KECCAK256 PUSH1 0x40 MLOAD PUSH1 0x20 ADD DUP1 DUP6 DUP2 MSTORE PUSH1 0x20 ADD DUP5 DUP2 MSTORE PUSH1 0x20 ADD DUP4 PUSH20 0xFFFFFFFFFFFFFFFFFFFFFFFFFFFFFFFFFFFFFFFF AND PUSH20 0xFFFFFFFFFFFFFFFFFFFFFFFFFFFFFFFFFFFFFFFF AND DUP2 MSTORE PUSH1 0x20 ADD DUP3 DUP2 MSTORE PUSH1 0x20 ADD SWAP5 POP POP POP POP POP PUSH1 0x40 MLOAD PUSH1 0x20 DUP2 DUP4 SUB SUB DUP2 MSTORE SWAP1 PUSH1 0x40 MSTORE DUP1 MLOAD SWAP1 PUSH1 0x20 ADD KECCAK256 SWAP1 POP SWAP2 SWAP1 POP JUMP JUMPDEST PUSH1 0x0 PUSH2 0x999 PUSH2 0x6CA JUMP JUMPDEST DUP3 PUSH1 0x40 MLOAD PUSH1 0x20 ADD DUP1 DUP1 PUSH32 0x1901000000000000000000000000000000000000000000000000000000000000 DUP2 MSTORE POP PUSH1 0x2 ADD DUP4 DUP2 MSTORE PUSH1 0x20 ADD DUP3 DUP2 MSTORE PUSH1 0x20 ADD SWAP3 POP POP POP PUSH1 0x40 MLOAD PUSH1 0x20 DUP2 DUP4 SUB SUB DUP2 MSTORE SWAP1 PUSH1 0x40 MSTORE DUP1 MLOAD SWAP1 PUSH1 0x20 ADD KECCAK256 SWAP1 POP SWAP2 SWAP1 POP JUMP JUMPDEST PUSH1 0x40 MLOAD DUP1 PUSH1 0x60 ADD PUSH1 0x40 MSTORE DUP1 PUSH1 0x0 DUP2 MSTORE PUSH1 0x20 ADD PUSH1 0x0 PUSH20 0xFFFFFFFFFFFFFFFFFFFFFFFFFFFFFFFFFFFFFFFF AND DUP2 MSTORE PUSH1 0x20 ADD PUSH1 0x60 DUP2 MSTORE POP SWAP1 JUMP INVALID 0x4D PUSH6 0x74615472616E PUSH20 0x616374696F6E2875696E74323536206E6F6E6365 0x2C PUSH2 0x6464 PUSH19 0x6573732066726F6D2C62797465732066756E63 PUSH21 0x696F6E5369676E6174757265294E61746976654D65 PUSH21 0x615472616E73616374696F6E3A20494E56414C4944 0x5F MSTORE8 0x49 SELFBALANCE 0x4E GASLIMIT MSTORE MSTORE8 PUSH10 0x676E657220616E642073 PUSH10 0x676E617475726520646F KECCAK256 PUSH15 0x6F74206D61746368A2646970667358 0x22 SLT KECCAK256 0xBB 0xCE PUSH13 0xA80441EAA1DAEA65A7FFC7F128 OR DUP14 CALLCODE DUP5 SHL 0x2D MSTORE8 ORIGIN PUSH26 0x11EF831B93982A64736F6C634300060600330000000000000000 "
				},
				"gasEstimates": {
					"creation": {
						"codeDepositCost": "559200",
						"executionCost": "21461",
						"totalCost": "580661"
					},
					"external": {
						"executeMetaTransaction(address,bytes,bytes32,bytes32,uint8)": "infinite",
						"getChainId()": "269",
						"getDomainSeperator()": "1013",
						"getNonce(address)": "1218"
					},
					"internal": {
						"hashMetaTransaction(struct NativeMetaTransaction.MetaTransaction memory)": "infinite",
						"verify(address,struct NativeMetaTransaction.MetaTransaction memory,bytes32,bytes32,uint8)": "infinite"
					}
				},
				"methodIdentifiers": {
					"executeMetaTransaction(address,bytes,bytes32,bytes32,uint8)": "0c53c51c",
					"getChainId()": "3408e470",
					"getDomainSeperator()": "20379ee5",
					"getNonce(address)": "2d0335ab"
				}
			},
			"storageLayout": {
				"storage": [
					{
						"astId": 1753,
						"contract": "contracts/polygonUsdt/Usdt-all-openzeppelin.sol:NativeMetaTransaction",
						"label": "inited",
						"offset": 0,
						"slot": "0",
						"type": "t_bool"
					},
					{
						"astId": 1790,
						"contract": "contracts/polygonUsdt/Usdt-all-openzeppelin.sol:NativeMetaTransaction",
						"label": "domainSeperator",
						"offset": 0,
						"slot": "1",
						"type": "t_bytes32"
					},
					{
						"astId": 1909,
						"contract": "contracts/polygonUsdt/Usdt-all-openzeppelin.sol:NativeMetaTransaction",
						"label": "nonces",
						"offset": 0,
						"slot": "2",
						"type": "t_mapping(t_address,t_uint256)"
					}
				],
				"types": {
					"t_address": {
						"encoding": "inplace",
						"label": "address",
						"numberOfBytes": "20"
					},
					"t_bool": {
						"encoding": "inplace",
						"label": "bool",
						"numberOfBytes": "1"
					},
					"t_bytes32": {
						"encoding": "inplace",
						"label": "bytes32",
						"numberOfBytes": "32"
					},
					"t_mapping(t_address,t_uint256)": {
						"encoding": "mapping",
						"key": "t_address",
						"label": "mapping(address => uint256)",
						"numberOfBytes": "32",
						"value": "t_uint256"
					},
					"t_uint256": {
						"encoding": "inplace",
						"label": "uint256",
						"numberOfBytes": "32"
					}
				}
			},
			"userdoc": {
				"methods": {}
			}
		}
	}
}