{
	"contracts/polygonUsdt/Usdt-proxy-all.sol": {
		"UChildERC20Proxy": {
			"abi": [
				{
					"inputs": [
						{
							"internalType": "address",
							"name": "_proxyTo",
							"type": "address"
						}
					],
					"stateMutability": "nonpayable",
					"type": "constructor"
				},
				{
					"anonymous": false,
					"inputs": [
						{
							"indexed": false,
							"internalType": "address",
							"name": "_new",
							"type": "address"
						},
						{
							"indexed": false,
							"internalType": "address",
							"name": "_old",
							"type": "address"
						}
					],
					"name": "ProxyOwnerUpdate",
					"type": "event"
				},
				{
					"anonymous": false,
					"inputs": [
						{
							"indexed": true,
							"internalType": "address",
							"name": "_new",
							"type": "address"
						},
						{
							"indexed": true,
							"internalType": "address",
							"name": "_old",
							"type": "address"
						}
					],
					"name": "ProxyUpdated",
					"type": "event"
				},
				{
					"stateMutability": "payable",
					"type": "fallback"
				},
				{
					"inputs": [],
					"name": "implementation",
					"outputs": [
						{
							"internalType": "address",
							"name": "",
							"type": "address"
						}
					],
					"stateMutability": "view",
					"type": "function"
				},
				{
					"inputs": [],
					"name": "proxyOwner",
					"outputs": [
						{
							"internalType": "address",
							"name": "",
							"type": "address"
						}
					],
					"stateMutability": "view",
					"type": "function"
				},
				{
					"inputs": [],
					"name": "proxyType",
					"outputs": [
						{
							"internalType": "uint256",
							"name": "proxyTypeId",
							"type": "uint256"
						}
					],
					"stateMutability": "pure",
					"type": "function"
				},
				{
					"inputs": [
						{
							"internalType": "address",
							"name": "newOwner",
							"type": "address"
						}
					],
					"name": "transferProxyOwnership",
					"outputs": [],
					"stateMutability": "nonpayable",
					"type": "function"
				},
				{
					"inputs": [
						{
							"internalType": "address",
							"name": "_newProxyTo",
							"type": "address"
						},
						{
							"internalType": "bytes",
							"name": "data",
							"type": "bytes"
						}
					],
					"name": "updateAndCall",
					"outputs": [],
					"stateMutability": "payable",
					"type": "function"
				},
				{
					"inputs": [
						{
							"internalType": "address",
							"name": "_newProxyTo",
							"type": "address"
						}
					],
					"name": "updateImplementation",
					"outputs": [],
					"stateMutability": "nonpayable",
					"type": "function"
				},
				{
					"stateMutability": "payable",
					"type": "receive"
				}
			],
			"devdoc": {
				"methods": {}
			},
			"evm": {
				"assembly": "    /* \"contracts/polygonUsdt/Usdt-proxy-all.sol\":4639:4777  contract UChildERC20Proxy is UpgradableProxy {... */\n  mstore(0x40, 0x80)\n    /* \"contracts/polygonUsdt/Usdt-proxy-all.sol\":4690:4775  constructor(address _proxyTo)... */\n  callvalue\n    /* \"--CODEGEN--\":5:14   */\n  dup1\n    /* \"--CODEGEN--\":2:4   */\n  iszero\n  tag_1\n  jumpi\n    /* \"--CODEGEN--\":27:28   */\n  0x00\n    /* \"--CODEGEN--\":24:25   */\n  dup1\n    /* \"--CODEGEN--\":17:29   */\n  revert\n    /* \"--CODEGEN--\":2:4   */\ntag_1:\n    /* \"contracts/polygonUsdt/Usdt-proxy-all.sol\":4690:4775  constructor(address _proxyTo)... */\n  pop\n  mload(0x40)\n  sub(codesize, bytecodeSize)\n  dup1\n  bytecodeSize\n  dup4\n  codecopy\n  dup2\n  dup2\n  add\n  0x40\n  mstore\n    /* \"--CODEGEN--\":15:17   */\n  0x20\n    /* \"--CODEGEN--\":10:13   */\n  dup2\n    /* \"--CODEGEN--\":7:18   */\n  lt\n    /* \"--CODEGEN--\":4:6   */\n  iszero\n  tag_2\n  jumpi\n    /* \"--CODEGEN--\":31:32   */\n  0x00\n    /* \"--CODEGEN--\":28:29   */\n  dup1\n    /* \"--CODEGEN--\":21:33   */\n  revert\n    /* \"--CODEGEN--\":4:6   */\ntag_2:\n    /* \"contracts/polygonUsdt/Usdt-proxy-all.sol\":4690:4775  constructor(address _proxyTo)... */\n  dup2\n  add\n  swap1\n  dup1\n  dup1\n  mload\n  swap1\n  0x20\n  add\n  swap1\n  swap3\n  swap2\n  swap1\n  pop\n  pop\n  pop\n    /* \"contracts/polygonUsdt/Usdt-proxy-all.sol\":4759:4767  _proxyTo */\n  dup1\n    /* \"contracts/polygonUsdt/Usdt-proxy-all.sol\":1981:2006  setProxyOwner(msg.sender) */\n  tag_6\n    /* \"contracts/polygonUsdt/Usdt-proxy-all.sol\":1995:2005  msg.sender */\n  caller\n    /* \"contracts/polygonUsdt/Usdt-proxy-all.sol\":1981:1994  setProxyOwner */\n  shl(0x20, tag_7)\n    /* \"contracts/polygonUsdt/Usdt-proxy-all.sol\":1981:2006  setProxyOwner(msg.sender) */\n  0x20\n  shr\n  jump\t// in\ntag_6:\n    /* \"contracts/polygonUsdt/Usdt-proxy-all.sol\":2016:2043  setImplementation(_proxyTo) */\n  tag_8\n    /* \"contracts/polygonUsdt/Usdt-proxy-all.sol\":2034:2042  _proxyTo */\n  dup2\n    /* \"contracts/polygonUsdt/Usdt-proxy-all.sol\":2016:2033  setImplementation */\n  shl(0x20, tag_9)\n    /* \"contracts/polygonUsdt/Usdt-proxy-all.sol\":2016:2043  setImplementation(_proxyTo) */\n  0x20\n  shr\n  jump\t// in\ntag_8:\n    /* \"contracts/polygonUsdt/Usdt-proxy-all.sol\":1934:2050  constructor(address _proxyTo) public {... */\n  pop\n    /* \"contracts/polygonUsdt/Usdt-proxy-all.sol\":4690:4775  constructor(address _proxyTo)... */\n  pop\n    /* \"contracts/polygonUsdt/Usdt-proxy-all.sol\":4639:4777  contract UChildERC20Proxy is UpgradableProxy {... */\n  jump(tag_11)\n    /* \"contracts/polygonUsdt/Usdt-proxy-all.sol\":3263:3426  function setProxyOwner(address newOwner) private {... */\ntag_7:\n    /* \"contracts/polygonUsdt/Usdt-proxy-all.sol\":3322:3338  bytes32 position */\n  0x00\n    /* \"contracts/polygonUsdt/Usdt-proxy-all.sol\":1889:1927  keccak256(\"matic.network.proxy.owner\") */\n  mload(0x40)\n  dup1\n  dup1\n  0x6d617469632e6e6574776f726b2e70726f78792e6f776e657200000000000000\n  dup2\n  mstore\n  pop\n  0x19\n  add\n  swap1\n  pop\n  mload(0x40)\n  dup1\n  swap2\n  sub\n  swap1\n  keccak256\n    /* \"contracts/polygonUsdt/Usdt-proxy-all.sol\":3322:3351  bytes32 position = OWNER_SLOT */\n  swap1\n  pop\n    /* \"contracts/polygonUsdt/Usdt-proxy-all.sol\":3401:3409  newOwner */\n  dup2\n    /* \"contracts/polygonUsdt/Usdt-proxy-all.sol\":3391:3399  position */\n  dup2\n    /* \"contracts/polygonUsdt/Usdt-proxy-all.sol\":3384:3410  sstore(position, newOwner) */\n  sstore\n    /* \"contracts/polygonUsdt/Usdt-proxy-all.sol\":3370:3420  {... */\n  pop\n  pop\n  jump\t// out\n    /* \"contracts/polygonUsdt/Usdt-proxy-all.sol\":4074:4256  function setImplementation(address _newProxyTo) private {... */\ntag_9:\n    /* \"contracts/polygonUsdt/Usdt-proxy-all.sol\":4140:4156  bytes32 position */\n  0x00\n    /* \"contracts/polygonUsdt/Usdt-proxy-all.sol\":1806:1853  keccak256(\"matic.network.proxy.implementation\") */\n  mload(0x40)\n  dup1\n  dup1\n  data_baab7dbf64751104133af04abc7d9979f0fda3b059a322a8333f533d3f32bf7f\n  0x22\n  swap2\n  codecopy\n  0x22\n  add\n  swap1\n  pop\n  mload(0x40)\n  dup1\n  swap2\n  sub\n  swap1\n  keccak256\n    /* \"contracts/polygonUsdt/Usdt-proxy-all.sol\":4140:4178  bytes32 position = IMPLEMENTATION_SLOT */\n  swap1\n  pop\n    /* \"contracts/polygonUsdt/Usdt-proxy-all.sol\":4228:4239  _newProxyTo */\n  dup2\n    /* \"contracts/polygonUsdt/Usdt-proxy-all.sol\":4218:4226  position */\n  dup2\n    /* \"contracts/polygonUsdt/Usdt-proxy-all.sol\":4211:4240  sstore(position, _newProxyTo) */\n  sstore\n    /* \"contracts/polygonUsdt/Usdt-proxy-all.sol\":4197:4250  {... */\n  pop\n  pop\n  jump\t// out\n    /* \"contracts/polygonUsdt/Usdt-proxy-all.sol\":4639:4777  contract UChildERC20Proxy is UpgradableProxy {... */\ntag_11:\n  dataSize(sub_0)\n  dup1\n  dataOffset(sub_0)\n  0x00\n  codecopy\n  0x00\n  return\nstop\ndata_baab7dbf64751104133af04abc7d9979f0fda3b059a322a8333f533d3f32bf7f 6d617469632e6e6574776f726b2e70726f78792e696d706c656d656e746174696f6e\n\nsub_0: assembly {\n        /* \"contracts/polygonUsdt/Usdt-proxy-all.sol\":4639:4777  contract UChildERC20Proxy is UpgradableProxy {... */\n      mstore(0x40, 0x80)\n      jumpi(tag_1, lt(calldatasize, 0x04))\n      shr(0xe0, calldataload(0x00))\n      dup1\n      0x025313a2\n      eq\n      tag_3\n      jumpi\n      dup1\n      0x025b22bc\n      eq\n      tag_4\n      jumpi\n      dup1\n      0x4555d5c9\n      eq\n      tag_5\n      jumpi\n      dup1\n      0x5c60da1b\n      eq\n      tag_6\n      jumpi\n      dup1\n      0xd88ca2c8\n      eq\n      tag_7\n      jumpi\n      dup1\n      0xf1739cae\n      eq\n      tag_8\n      jumpi\n      jump(tag_2)\n    tag_1:\n      jumpi(tag_2, calldatasize)\n        /* \"contracts/polygonUsdt/Usdt-proxy-all.sol\":2188:2232  delegatedFwd(loadImplementation(), msg.data) */\n      tag_11\n        /* \"contracts/polygonUsdt/Usdt-proxy-all.sol\":2201:2221  loadImplementation() */\n      tag_12\n        /* \"contracts/polygonUsdt/Usdt-proxy-all.sol\":2201:2219  loadImplementation */\n      tag_13\n        /* \"contracts/polygonUsdt/Usdt-proxy-all.sol\":2201:2221  loadImplementation() */\n      jump\t// in\n    tag_12:\n        /* \"contracts/polygonUsdt/Usdt-proxy-all.sol\":2223:2231  msg.data */\n      0x00\n      calldatasize\n        /* \"contracts/polygonUsdt/Usdt-proxy-all.sol\":2188:2232  delegatedFwd(loadImplementation(), msg.data) */\n      dup1\n      dup1\n      0x1f\n      add\n      0x20\n      dup1\n      swap2\n      div\n      mul\n      0x20\n      add\n      mload(0x40)\n      swap1\n      dup2\n      add\n      0x40\n      mstore\n      dup1\n      swap4\n      swap3\n      swap2\n      swap1\n      dup2\n      dup2\n      mstore\n      0x20\n      add\n      dup4\n      dup4\n        /* \"--CODEGEN--\":30:33   */\n      dup1\n        /* \"--CODEGEN--\":22:28   */\n      dup3\n        /* \"--CODEGEN--\":14:20   */\n      dup5\n        /* \"--CODEGEN--\":1:34   */\n      calldatacopy\n        /* \"--CODEGEN--\":99:100   */\n      0x00\n        /* \"--CODEGEN--\":93:96   */\n      dup2\n        /* \"--CODEGEN--\":85:91   */\n      dup5\n        /* \"--CODEGEN--\":81:97   */\n      add\n        /* \"--CODEGEN--\":74:101   */\n      mstore\n        /* \"--CODEGEN--\":137:141   */\n      0x1f\n        /* \"--CODEGEN--\":133:142   */\n      not\n        /* \"--CODEGEN--\":126:130   */\n      0x1f\n        /* \"--CODEGEN--\":121:124   */\n      dup3\n        /* \"--CODEGEN--\":117:131   */\n      add\n        /* \"--CODEGEN--\":113:143   */\n      and\n        /* \"--CODEGEN--\":106:143   */\n      swap1\n      pop\n        /* \"--CODEGEN--\":169:172   */\n      dup1\n        /* \"--CODEGEN--\":161:167   */\n      dup4\n        /* \"--CODEGEN--\":157:173   */\n      add\n        /* \"--CODEGEN--\":147:173   */\n      swap3\n      pop\n        /* \"contracts/polygonUsdt/Usdt-proxy-all.sol\":2188:2232  delegatedFwd(loadImplementation(), msg.data) */\n      pop\n      pop\n      pop\n      pop\n      pop\n      pop\n        /* \"contracts/polygonUsdt/Usdt-proxy-all.sol\":2188:2200  delegatedFwd */\n      tag_14\n        /* \"contracts/polygonUsdt/Usdt-proxy-all.sol\":2188:2232  delegatedFwd(loadImplementation(), msg.data) */\n      jump\t// in\n    tag_11:\n        /* \"contracts/polygonUsdt/Usdt-proxy-all.sol\":4639:4777  contract UChildERC20Proxy is UpgradableProxy {... */\n      stop\n    tag_2:\n        /* \"contracts/polygonUsdt/Usdt-proxy-all.sol\":2094:2138  delegatedFwd(loadImplementation(), msg.data) */\n      tag_17\n        /* \"contracts/polygonUsdt/Usdt-proxy-all.sol\":2107:2127  loadImplementation() */\n      tag_18\n        /* \"contracts/polygonUsdt/Usdt-proxy-all.sol\":2107:2125  loadImplementation */\n      tag_13\n        /* \"contracts/polygonUsdt/Usdt-proxy-all.sol\":2107:2127  loadImplementation() */\n      jump\t// in\n    tag_18:\n        /* \"contracts/polygonUsdt/Usdt-proxy-all.sol\":2129:2137  msg.data */\n      0x00\n      calldatasize\n        /* \"contracts/polygonUsdt/Usdt-proxy-all.sol\":2094:2138  delegatedFwd(loadImplementation(), msg.data) */\n      dup1\n      dup1\n      0x1f\n      add\n      0x20\n      dup1\n      swap2\n      div\n      mul\n      0x20\n      add\n      mload(0x40)\n      swap1\n      dup2\n      add\n      0x40\n      mstore\n      dup1\n      swap4\n      swap3\n      swap2\n      swap1\n      dup2\n      dup2\n      mstore\n      0x20\n      add\n      dup4\n      dup4\n        /* \"--CODEGEN--\":30:33   */\n      dup1\n        /* \"--CODEGEN--\":22:28   */\n      dup3\n        /* \"--CODEGEN--\":14:20   */\n      dup5\n        /* \"--CODEGEN--\":1:34   */\n      calldatacopy\n        /* \"--CODEGEN--\":99:100   */\n      0x00\n        /* \"--CODEGEN--\":93:96   */\n      dup2\n        /* \"--CODEGEN--\":85:91   */\n      dup5\n        /* \"--CODEGEN--\":81:97   */\n      add\n        /* \"--CODEGEN--\":74:101   */\n      mstore\n        /* \"--CODEGEN--\":137:141   */\n      0x1f\n        /* \"--CODEGEN--\":133:142   */\n      not\n        /* \"--CODEGEN--\":126:130   */\n      0x1f\n        /* \"--CODEGEN--\":121:124   */\n      dup3\n        /* \"--CODEGEN--\":117:131   */\n      add\n        /* \"--CODEGEN--\":113:143   */\n      and\n        /* \"--CODEGEN--\":106:143   */\n      swap1\n      pop\n        /* \"--CODEGEN--\":169:172   */\n      dup1\n        /* \"--CODEGEN--\":161:167   */\n      dup4\n        /* \"--CODEGEN--\":157:173   */\n      add\n        /* \"--CODEGEN--\":147:173   */\n      swap3\n      pop\n        /* \"contracts/polygonUsdt/Usdt-proxy-all.sol\":2094:2138  delegatedFwd(loadImplementation(), msg.data) */\n      pop\n      pop\n      pop\n      pop\n      pop\n      pop\n        /* \"contracts/polygonUsdt/Usdt-proxy-all.sol\":2094:2106  delegatedFwd */\n      tag_14\n        /* \"contracts/polygonUsdt/Usdt-proxy-all.sol\":2094:2138  delegatedFwd(loadImplementation(), msg.data) */\n      jump\t// in\n    tag_17:\n        /* \"contracts/polygonUsdt/Usdt-proxy-all.sol\":4639:4777  contract UChildERC20Proxy is UpgradableProxy {... */\n      stop\n        /* \"contracts/polygonUsdt/Usdt-proxy-all.sol\":2357:2450  function proxyOwner() external view returns(address) {... */\n    tag_3:\n      callvalue\n        /* \"--CODEGEN--\":5:14   */\n      dup1\n        /* \"--CODEGEN--\":2:4   */\n      iszero\n      tag_19\n      jumpi\n        /* \"--CODEGEN--\":27:28   */\n      0x00\n        /* \"--CODEGEN--\":24:25   */\n      dup1\n        /* \"--CODEGEN--\":17:29   */\n      revert\n        /* \"--CODEGEN--\":2:4   */\n    tag_19:\n        /* \"contracts/polygonUsdt/Usdt-proxy-all.sol\":2357:2450  function proxyOwner() external view returns(address) {... */\n      pop\n      tag_20\n      tag_21\n      jump\t// in\n    tag_20:\n      mload(0x40)\n      dup1\n      dup3\n      0xffffffffffffffffffffffffffffffffffffffff\n      and\n      0xffffffffffffffffffffffffffffffffffffffff\n      and\n      dup2\n      mstore\n      0x20\n      add\n      swap2\n      pop\n      pop\n      mload(0x40)\n      dup1\n      swap2\n      sub\n      swap1\n      return\n        /* \"contracts/polygonUsdt/Usdt-proxy-all.sol\":3432:3778  function updateImplementation(address _newProxyTo) public onlyProxyOwner {... */\n    tag_4:\n      callvalue\n        /* \"--CODEGEN--\":5:14   */\n      dup1\n        /* \"--CODEGEN--\":2:4   */\n      iszero\n      tag_22\n      jumpi\n        /* \"--CODEGEN--\":27:28   */\n      0x00\n        /* \"--CODEGEN--\":24:25   */\n      dup1\n        /* \"--CODEGEN--\":17:29   */\n      revert\n        /* \"--CODEGEN--\":2:4   */\n    tag_22:\n        /* \"contracts/polygonUsdt/Usdt-proxy-all.sol\":3432:3778  function updateImplementation(address _newProxyTo) public onlyProxyOwner {... */\n      pop\n      tag_23\n      0x04\n      dup1\n      calldatasize\n      sub\n        /* \"--CODEGEN--\":15:17   */\n      0x20\n        /* \"--CODEGEN--\":10:13   */\n      dup2\n        /* \"--CODEGEN--\":7:18   */\n      lt\n        /* \"--CODEGEN--\":4:6   */\n      iszero\n      tag_24\n      jumpi\n        /* \"--CODEGEN--\":31:32   */\n      0x00\n        /* \"--CODEGEN--\":28:29   */\n      dup1\n        /* \"--CODEGEN--\":21:33   */\n      revert\n        /* \"--CODEGEN--\":4:6   */\n    tag_24:\n        /* \"contracts/polygonUsdt/Usdt-proxy-all.sol\":3432:3778  function updateImplementation(address _newProxyTo) public onlyProxyOwner {... */\n      dup2\n      add\n      swap1\n      dup1\n      dup1\n      calldataload\n      0xffffffffffffffffffffffffffffffffffffffff\n      and\n      swap1\n      0x20\n      add\n      swap1\n      swap3\n      swap2\n      swap1\n      pop\n      pop\n      pop\n      tag_25\n      jump\t// in\n    tag_23:\n      stop\n        /* \"contracts/polygonUsdt/Usdt-proxy-all.sol\":1296:1439  function proxyType() external virtual override pure returns (uint256 proxyTypeId) {... */\n    tag_5:\n      callvalue\n        /* \"--CODEGEN--\":5:14   */\n      dup1\n        /* \"--CODEGEN--\":2:4   */\n      iszero\n      tag_26\n      jumpi\n        /* \"--CODEGEN--\":27:28   */\n      0x00\n        /* \"--CODEGEN--\":24:25   */\n      dup1\n        /* \"--CODEGEN--\":17:29   */\n      revert\n        /* \"--CODEGEN--\":2:4   */\n    tag_26:\n        /* \"contracts/polygonUsdt/Usdt-proxy-all.sol\":1296:1439  function proxyType() external virtual override pure returns (uint256 proxyTypeId) {... */\n      pop\n      tag_27\n      tag_28\n      jump\t// in\n    tag_27:\n      mload(0x40)\n      dup1\n      dup3\n      dup2\n      mstore\n      0x20\n      add\n      swap2\n      pop\n      pop\n      mload(0x40)\n      dup1\n      swap2\n      sub\n      swap1\n      return\n        /* \"contracts/polygonUsdt/Usdt-proxy-all.sol\":2679:2790  function implementation() external override view returns (address) {... */\n    tag_6:\n      callvalue\n        /* \"--CODEGEN--\":5:14   */\n      dup1\n        /* \"--CODEGEN--\":2:4   */\n      iszero\n      tag_29\n      jumpi\n        /* \"--CODEGEN--\":27:28   */\n      0x00\n        /* \"--CODEGEN--\":24:25   */\n      dup1\n        /* \"--CODEGEN--\":17:29   */\n      revert\n        /* \"--CODEGEN--\":2:4   */\n    tag_29:\n        /* \"contracts/polygonUsdt/Usdt-proxy-all.sol\":2679:2790  function implementation() external override view returns (address) {... */\n      pop\n      tag_30\n      tag_31\n      jump\t// in\n    tag_30:\n      mload(0x40)\n      dup1\n      dup3\n      0xffffffffffffffffffffffffffffffffffffffff\n      and\n      0xffffffffffffffffffffffffffffffffffffffff\n      and\n      dup2\n      mstore\n      0x20\n      add\n      swap2\n      pop\n      pop\n      mload(0x40)\n      dup1\n      swap2\n      sub\n      swap1\n      return\n        /* \"contracts/polygonUsdt/Usdt-proxy-all.sol\":3784:4068  function updateAndCall(address _newProxyTo, bytes memory data) payable public onlyProxyOwner {... */\n    tag_7:\n      tag_32\n      0x04\n      dup1\n      calldatasize\n      sub\n        /* \"--CODEGEN--\":15:17   */\n      0x40\n        /* \"--CODEGEN--\":10:13   */\n      dup2\n        /* \"--CODEGEN--\":7:18   */\n      lt\n        /* \"--CODEGEN--\":4:6   */\n      iszero\n      tag_33\n      jumpi\n        /* \"--CODEGEN--\":31:32   */\n      0x00\n        /* \"--CODEGEN--\":28:29   */\n      dup1\n        /* \"--CODEGEN--\":21:33   */\n      revert\n        /* \"--CODEGEN--\":4:6   */\n    tag_33:\n        /* \"contracts/polygonUsdt/Usdt-proxy-all.sol\":3784:4068  function updateAndCall(address _newProxyTo, bytes memory data) payable public onlyProxyOwner {... */\n      dup2\n      add\n      swap1\n      dup1\n      dup1\n      calldataload\n      0xffffffffffffffffffffffffffffffffffffffff\n      and\n      swap1\n      0x20\n      add\n      swap1\n      swap3\n      swap2\n      swap1\n      dup1\n      calldataload\n      swap1\n      0x20\n      add\n      swap1\n        /* \"--CODEGEN--\":27:38   */\n      0x0100000000\n        /* \"--CODEGEN--\":14:25   */\n      dup2\n        /* \"--CODEGEN--\":11:39   */\n      gt\n        /* \"--CODEGEN--\":8:10   */\n      iszero\n      tag_34\n      jumpi\n        /* \"--CODEGEN--\":52:53   */\n      0x00\n        /* \"--CODEGEN--\":49:50   */\n      dup1\n        /* \"--CODEGEN--\":42:54   */\n      revert\n        /* \"--CODEGEN--\":8:10   */\n    tag_34:\n        /* \"contracts/polygonUsdt/Usdt-proxy-all.sol\":3784:4068  function updateAndCall(address _newProxyTo, bytes memory data) payable public onlyProxyOwner {... */\n      dup3\n      add\n        /* \"--CODEGEN--\":41:50   */\n      dup4\n        /* \"--CODEGEN--\":34:38   */\n      0x20\n        /* \"--CODEGEN--\":18:32   */\n      dup3\n        /* \"--CODEGEN--\":14:39   */\n      add\n        /* \"--CODEGEN--\":11:51   */\n      gt\n        /* \"--CODEGEN--\":8:10   */\n      iszero\n      tag_35\n      jumpi\n        /* \"--CODEGEN--\":64:65   */\n      0x00\n        /* \"--CODEGEN--\":61:62   */\n      dup1\n        /* \"--CODEGEN--\":54:66   */\n      revert\n        /* \"--CODEGEN--\":8:10   */\n    tag_35:\n        /* \"contracts/polygonUsdt/Usdt-proxy-all.sol\":3784:4068  function updateAndCall(address _newProxyTo, bytes memory data) payable public onlyProxyOwner {... */\n      dup1\n      calldataload\n      swap1\n      0x20\n      add\n      swap2\n        /* \"--CODEGEN--\":100:109   */\n      dup5\n        /* \"--CODEGEN--\":95:96   */\n      0x01\n        /* \"--CODEGEN--\":81:93   */\n      dup4\n        /* \"--CODEGEN--\":77:97   */\n      mul\n        /* \"--CODEGEN--\":67:75   */\n      dup5\n        /* \"--CODEGEN--\":63:98   */\n      add\n        /* \"--CODEGEN--\":60:110   */\n      gt\n        /* \"--CODEGEN--\":39:50   */\n      0x0100000000\n        /* \"--CODEGEN--\":25:37   */\n      dup4\n        /* \"--CODEGEN--\":22:51   */\n      gt\n        /* \"--CODEGEN--\":11:118   */\n      or\n        /* \"--CODEGEN--\":8:10   */\n      iszero\n      tag_36\n      jumpi\n        /* \"--CODEGEN--\":131:132   */\n      0x00\n        /* \"--CODEGEN--\":128:129   */\n      dup1\n        /* \"--CODEGEN--\":121:133   */\n      revert\n        /* \"--CODEGEN--\":8:10   */\n    tag_36:\n        /* \"contracts/polygonUsdt/Usdt-proxy-all.sol\":3784:4068  function updateAndCall(address _newProxyTo, bytes memory data) payable public onlyProxyOwner {... */\n      swap2\n      swap1\n      dup1\n      dup1\n      0x1f\n      add\n      0x20\n      dup1\n      swap2\n      div\n      mul\n      0x20\n      add\n      mload(0x40)\n      swap1\n      dup2\n      add\n      0x40\n      mstore\n      dup1\n      swap4\n      swap3\n      swap2\n      swap1\n      dup2\n      dup2\n      mstore\n      0x20\n      add\n      dup4\n      dup4\n        /* \"--CODEGEN--\":30:33   */\n      dup1\n        /* \"--CODEGEN--\":22:28   */\n      dup3\n        /* \"--CODEGEN--\":14:20   */\n      dup5\n        /* \"--CODEGEN--\":1:34   */\n      calldatacopy\n        /* \"--CODEGEN--\":99:100   */\n      0x00\n        /* \"--CODEGEN--\":93:96   */\n      dup2\n        /* \"--CODEGEN--\":85:91   */\n      dup5\n        /* \"--CODEGEN--\":81:97   */\n      add\n        /* \"--CODEGEN--\":74:101   */\n      mstore\n        /* \"--CODEGEN--\":137:141   */\n      0x1f\n        /* \"--CODEGEN--\":133:142   */\n      not\n        /* \"--CODEGEN--\":126:130   */\n      0x1f\n        /* \"--CODEGEN--\":121:124   */\n      dup3\n        /* \"--CODEGEN--\":117:131   */\n      add\n        /* \"--CODEGEN--\":113:143   */\n      and\n        /* \"--CODEGEN--\":106:143   */\n      swap1\n      pop\n        /* \"--CODEGEN--\":169:172   */\n      dup1\n        /* \"--CODEGEN--\":161:167   */\n      dup4\n        /* \"--CODEGEN--\":157:173   */\n      add\n        /* \"--CODEGEN--\":147:173   */\n      swap3\n      pop\n        /* \"contracts/polygonUsdt/Usdt-proxy-all.sol\":3784:4068  function updateAndCall(address _newProxyTo, bytes memory data) payable public onlyProxyOwner {... */\n      pop\n      pop\n      pop\n      pop\n      pop\n      pop\n      swap2\n      swap3\n      swap2\n      swap3\n      swap1\n      pop\n      pop\n      pop\n      tag_37\n      jump\t// in\n    tag_32:\n      stop\n        /* \"contracts/polygonUsdt/Usdt-proxy-all.sol\":3029:3257  function transferProxyOwnership(address newOwner) public onlyProxyOwner {... */\n    tag_8:\n      callvalue\n        /* \"--CODEGEN--\":5:14   */\n      dup1\n        /* \"--CODEGEN--\":2:4   */\n      iszero\n      tag_38\n      jumpi\n        /* \"--CODEGEN--\":27:28   */\n      0x00\n        /* \"--CODEGEN--\":24:25   */\n      dup1\n        /* \"--CODEGEN--\":17:29   */\n      revert\n        /* \"--CODEGEN--\":2:4   */\n    tag_38:\n        /* \"contracts/polygonUsdt/Usdt-proxy-all.sol\":3029:3257  function transferProxyOwnership(address newOwner) public onlyProxyOwner {... */\n      pop\n      tag_39\n      0x04\n      dup1\n      calldatasize\n      sub\n        /* \"--CODEGEN--\":15:17   */\n      0x20\n        /* \"--CODEGEN--\":10:13   */\n      dup2\n        /* \"--CODEGEN--\":7:18   */\n      lt\n        /* \"--CODEGEN--\":4:6   */\n      iszero\n      tag_40\n      jumpi\n        /* \"--CODEGEN--\":31:32   */\n      0x00\n        /* \"--CODEGEN--\":28:29   */\n      dup1\n        /* \"--CODEGEN--\":21:33   */\n      revert\n        /* \"--CODEGEN--\":4:6   */\n    tag_40:\n        /* \"contracts/polygonUsdt/Usdt-proxy-all.sol\":3029:3257  function transferProxyOwnership(address newOwner) public onlyProxyOwner {... */\n      dup2\n      add\n      swap1\n      dup1\n      dup1\n      calldataload\n      0xffffffffffffffffffffffffffffffffffffffff\n      and\n      swap1\n      0x20\n      add\n      swap1\n      swap3\n      swap2\n      swap1\n      pop\n      pop\n      pop\n      tag_41\n      jump\t// in\n    tag_39:\n      stop\n        /* \"contracts/polygonUsdt/Usdt-proxy-all.sol\":2796:3023  function loadImplementation() internal view returns(address) {... */\n    tag_13:\n        /* \"contracts/polygonUsdt/Usdt-proxy-all.sol\":2848:2855  address */\n      0x00\n        /* \"contracts/polygonUsdt/Usdt-proxy-all.sol\":2867:2880  address _impl */\n      dup1\n        /* \"contracts/polygonUsdt/Usdt-proxy-all.sol\":2890:2906  bytes32 position */\n      0x00\n        /* \"contracts/polygonUsdt/Usdt-proxy-all.sol\":1806:1853  keccak256(\"matic.network.proxy.implementation\") */\n      mload(0x40)\n      dup1\n      dup1\n      data_baab7dbf64751104133af04abc7d9979f0fda3b059a322a8333f533d3f32bf7f\n      0x22\n      swap2\n      codecopy\n      0x22\n      add\n      swap1\n      pop\n      mload(0x40)\n      dup1\n      swap2\n      sub\n      swap1\n      keccak256\n        /* \"contracts/polygonUsdt/Usdt-proxy-all.sol\":2890:2928  bytes32 position = IMPLEMENTATION_SLOT */\n      swap1\n      pop\n        /* \"contracts/polygonUsdt/Usdt-proxy-all.sol\":2976:2984  position */\n      dup1\n        /* \"contracts/polygonUsdt/Usdt-proxy-all.sol\":2970:2985  sload(position) */\n      sload\n        /* \"contracts/polygonUsdt/Usdt-proxy-all.sol\":2961:2985  _impl := sload(position) */\n      swap2\n      pop\n        /* \"contracts/polygonUsdt/Usdt-proxy-all.sol\":3011:3016  _impl */\n      dup2\n        /* \"contracts/polygonUsdt/Usdt-proxy-all.sol\":3004:3016  return _impl */\n      swap3\n      pop\n      pop\n      pop\n        /* \"contracts/polygonUsdt/Usdt-proxy-all.sol\":2796:3023  function loadImplementation() internal view returns(address) {... */\n      swap1\n      jump\t// out\n        /* \"contracts/polygonUsdt/Usdt-proxy-all.sol\":420:1290  function delegatedFwd(address _dst, bytes memory _calldata) internal {... */\n    tag_14:\n        /* \"contracts/polygonUsdt/Usdt-proxy-all.sol\":778:779  0 */\n      0x00\n        /* \"contracts/polygonUsdt/Usdt-proxy-all.sol\":759:760  0 */\n      dup1\n        /* \"contracts/polygonUsdt/Usdt-proxy-all.sol\":731:740  _calldata */\n      dup3\n        /* \"contracts/polygonUsdt/Usdt-proxy-all.sol\":725:741  mload(_calldata) */\n      mload\n        /* \"contracts/polygonUsdt/Usdt-proxy-all.sol\":702:706  0x20 */\n      0x20\n        /* \"contracts/polygonUsdt/Usdt-proxy-all.sol\":691:700  _calldata */\n      dup5\n        /* \"contracts/polygonUsdt/Usdt-proxy-all.sol\":687:707  add(_calldata, 0x20) */\n      add\n        /* \"contracts/polygonUsdt/Usdt-proxy-all.sol\":665:669  _dst */\n      dup6\n        /* \"contracts/polygonUsdt/Usdt-proxy-all.sol\":641:646  10000 */\n      0x2710\n        /* \"contracts/polygonUsdt/Usdt-proxy-all.sol\":634:639  gas() */\n      gas\n        /* \"contracts/polygonUsdt/Usdt-proxy-all.sol\":630:647  sub(gas(), 10000) */\n      sub\n        /* \"contracts/polygonUsdt/Usdt-proxy-all.sol\":600:793  delegatecall(... */\n      delegatecall\n        /* \"contracts/polygonUsdt/Usdt-proxy-all.sol\":818:834  returndatasize() */\n      returndatasize\n        /* \"contracts/polygonUsdt/Usdt-proxy-all.sol\":865:869  0x40 */\n      0x40\n        /* \"contracts/polygonUsdt/Usdt-proxy-all.sol\":859:870  mload(0x40) */\n      mload\n        /* \"contracts/polygonUsdt/Usdt-proxy-all.sol\":906:910  size */\n      dup2\n        /* \"contracts/polygonUsdt/Usdt-proxy-all.sol\":903:904  0 */\n      0x00\n        /* \"contracts/polygonUsdt/Usdt-proxy-all.sol\":898:901  ptr */\n      dup3\n        /* \"contracts/polygonUsdt/Usdt-proxy-all.sol\":883:911  returndatacopy(ptr, 0, size) */\n      returndatacopy\n        /* \"contracts/polygonUsdt/Usdt-proxy-all.sol\":1105:1111  result */\n      dup3\n        /* \"contracts/polygonUsdt/Usdt-proxy-all.sol\":1133:1134  0 */\n      0x00\n        /* \"contracts/polygonUsdt/Usdt-proxy-all.sol\":1128:1192  case 0 {... */\n      dup2\n      eq\n      tag_45\n      jumpi\n        /* \"contracts/polygonUsdt/Usdt-proxy-all.sol\":1251:1255  size */\n      dup3\n        /* \"contracts/polygonUsdt/Usdt-proxy-all.sol\":1246:1249  ptr */\n      dup3\n        /* \"contracts/polygonUsdt/Usdt-proxy-all.sol\":1239:1256  return(ptr, size) */\n      return\n        /* \"contracts/polygonUsdt/Usdt-proxy-all.sol\":1128:1192  case 0 {... */\n    tag_45:\n        /* \"contracts/polygonUsdt/Usdt-proxy-all.sol\":1169:1173  size */\n      dup3\n        /* \"contracts/polygonUsdt/Usdt-proxy-all.sol\":1164:1167  ptr */\n      dup3\n        /* \"contracts/polygonUsdt/Usdt-proxy-all.sol\":1157:1174  revert(ptr, size) */\n      revert\n        /* \"contracts/polygonUsdt/Usdt-proxy-all.sol\":2357:2450  function proxyOwner() external view returns(address) {... */\n    tag_21:\n        /* \"contracts/polygonUsdt/Usdt-proxy-all.sol\":2401:2408  address */\n      0x00\n        /* \"contracts/polygonUsdt/Usdt-proxy-all.sol\":2427:2443  loadProxyOwner() */\n      tag_47\n        /* \"contracts/polygonUsdt/Usdt-proxy-all.sol\":2427:2441  loadProxyOwner */\n      tag_48\n        /* \"contracts/polygonUsdt/Usdt-proxy-all.sol\":2427:2443  loadProxyOwner() */\n      jump\t// in\n    tag_47:\n        /* \"contracts/polygonUsdt/Usdt-proxy-all.sol\":2420:2443  return loadProxyOwner() */\n      swap1\n      pop\n        /* \"contracts/polygonUsdt/Usdt-proxy-all.sol\":2357:2450  function proxyOwner() external view returns(address) {... */\n      swap1\n      jump\t// out\n        /* \"contracts/polygonUsdt/Usdt-proxy-all.sol\":3432:3778  function updateImplementation(address _newProxyTo) public onlyProxyOwner {... */\n    tag_25:\n        /* \"contracts/polygonUsdt/Usdt-proxy-all.sol\":2309:2319  msg.sender */\n      caller\n        /* \"contracts/polygonUsdt/Usdt-proxy-all.sol\":2289:2319  loadProxyOwner() == msg.sender */\n      0xffffffffffffffffffffffffffffffffffffffff\n      and\n        /* \"contracts/polygonUsdt/Usdt-proxy-all.sol\":2289:2305  loadProxyOwner() */\n      tag_50\n        /* \"contracts/polygonUsdt/Usdt-proxy-all.sol\":2289:2303  loadProxyOwner */\n      tag_48\n        /* \"contracts/polygonUsdt/Usdt-proxy-all.sol\":2289:2305  loadProxyOwner() */\n      jump\t// in\n    tag_50:\n        /* \"contracts/polygonUsdt/Usdt-proxy-all.sol\":2289:2319  loadProxyOwner() == msg.sender */\n      0xffffffffffffffffffffffffffffffffffffffff\n      and\n      eq\n        /* \"contracts/polygonUsdt/Usdt-proxy-all.sol\":2281:2333  require(loadProxyOwner() == msg.sender, \"NOT_OWNER\") */\n      tag_51\n      jumpi\n      mload(0x40)\n      0x08c379a000000000000000000000000000000000000000000000000000000000\n      dup2\n      mstore\n      0x04\n      add\n      dup1\n      dup1\n      0x20\n      add\n      dup3\n      dup2\n      sub\n      dup3\n      mstore\n      0x09\n      dup2\n      mstore\n      0x20\n      add\n      dup1\n      0x4e4f545f4f574e45520000000000000000000000000000000000000000000000\n      dup2\n      mstore\n      pop\n      0x20\n      add\n      swap2\n      pop\n      pop\n      mload(0x40)\n      dup1\n      swap2\n      sub\n      swap1\n      revert\n    tag_51:\n        /* \"contracts/polygonUsdt/Usdt-proxy-all.sol\":3546:3549  0x0 */\n      0x00\n        /* \"contracts/polygonUsdt/Usdt-proxy-all.sol\":3523:3550  _newProxyTo != address(0x0) */\n      0xffffffffffffffffffffffffffffffffffffffff\n      and\n        /* \"contracts/polygonUsdt/Usdt-proxy-all.sol\":3523:3534  _newProxyTo */\n      dup2\n        /* \"contracts/polygonUsdt/Usdt-proxy-all.sol\":3523:3550  _newProxyTo != address(0x0) */\n      0xffffffffffffffffffffffffffffffffffffffff\n      and\n      eq\n      iszero\n        /* \"contracts/polygonUsdt/Usdt-proxy-all.sol\":3515:3576  require(_newProxyTo != address(0x0), \"INVALID_PROXY_ADDRESS\") */\n      tag_53\n      jumpi\n      mload(0x40)\n      0x08c379a000000000000000000000000000000000000000000000000000000000\n      dup2\n      mstore\n      0x04\n      add\n      dup1\n      dup1\n      0x20\n      add\n      dup3\n      dup2\n      sub\n      dup3\n      mstore\n      0x15\n      dup2\n      mstore\n      0x20\n      add\n      dup1\n      0x494e56414c49445f50524f58595f414444524553530000000000000000000000\n      dup2\n      mstore\n      pop\n      0x20\n      add\n      swap2\n      pop\n      pop\n      mload(0x40)\n      dup1\n      swap2\n      sub\n      swap1\n      revert\n    tag_53:\n        /* \"contracts/polygonUsdt/Usdt-proxy-all.sol\":3594:3617  isContract(_newProxyTo) */\n      tag_54\n        /* \"contracts/polygonUsdt/Usdt-proxy-all.sol\":3605:3616  _newProxyTo */\n      dup2\n        /* \"contracts/polygonUsdt/Usdt-proxy-all.sol\":3594:3604  isContract */\n      tag_55\n        /* \"contracts/polygonUsdt/Usdt-proxy-all.sol\":3594:3617  isContract(_newProxyTo) */\n      jump\t// in\n    tag_54:\n        /* \"contracts/polygonUsdt/Usdt-proxy-all.sol\":3586:3659  require(isContract(_newProxyTo), \"DESTINATION_ADDRESS_IS_NOT_A_CONTRACT\") */\n      tag_56\n      jumpi\n      mload(0x40)\n      0x08c379a000000000000000000000000000000000000000000000000000000000\n      dup2\n      mstore\n      0x04\n      add\n      dup1\n      dup1\n      0x20\n      add\n      dup3\n      dup2\n      sub\n      dup3\n      mstore\n      0x25\n      dup2\n      mstore\n      0x20\n      add\n      dup1\n      data_20aa50bd51f5bb26e7033878d86e2e1c4aaae5b4363b54bbbde49d316f97eedc\n      0x25\n      swap2\n      codecopy\n      0x40\n      add\n      swap2\n      pop\n      pop\n      mload(0x40)\n      dup1\n      swap2\n      sub\n      swap1\n      revert\n    tag_56:\n        /* \"contracts/polygonUsdt/Usdt-proxy-all.sol\":3701:3721  loadImplementation() */\n      tag_57\n        /* \"contracts/polygonUsdt/Usdt-proxy-all.sol\":3701:3719  loadImplementation */\n      tag_13\n        /* \"contracts/polygonUsdt/Usdt-proxy-all.sol\":3701:3721  loadImplementation() */\n      jump\t// in\n    tag_57:\n        /* \"contracts/polygonUsdt/Usdt-proxy-all.sol\":3675:3722  ProxyUpdated(_newProxyTo, loadImplementation()) */\n      0xffffffffffffffffffffffffffffffffffffffff\n      and\n        /* \"contracts/polygonUsdt/Usdt-proxy-all.sol\":3688:3699  _newProxyTo */\n      dup2\n        /* \"contracts/polygonUsdt/Usdt-proxy-all.sol\":3675:3722  ProxyUpdated(_newProxyTo, loadImplementation()) */\n      0xffffffffffffffffffffffffffffffffffffffff\n      and\n      0xd32d24edea94f55e932d9a008afc425a8561462d1b1f57bc6e508e9a6b9509e1\n      mload(0x40)\n      mload(0x40)\n      dup1\n      swap2\n      sub\n      swap1\n      log3\n        /* \"contracts/polygonUsdt/Usdt-proxy-all.sol\":3741:3771  setImplementation(_newProxyTo) */\n      tag_58\n        /* \"contracts/polygonUsdt/Usdt-proxy-all.sol\":3759:3770  _newProxyTo */\n      dup2\n        /* \"contracts/polygonUsdt/Usdt-proxy-all.sol\":3741:3758  setImplementation */\n      tag_59\n        /* \"contracts/polygonUsdt/Usdt-proxy-all.sol\":3741:3771  setImplementation(_newProxyTo) */\n      jump\t// in\n    tag_58:\n        /* \"contracts/polygonUsdt/Usdt-proxy-all.sol\":3432:3778  function updateImplementation(address _newProxyTo) public onlyProxyOwner {... */\n      pop\n      jump\t// out\n        /* \"contracts/polygonUsdt/Usdt-proxy-all.sol\":1296:1439  function proxyType() external virtual override pure returns (uint256 proxyTypeId) {... */\n    tag_28:\n        /* \"contracts/polygonUsdt/Usdt-proxy-all.sol\":1357:1376  uint256 proxyTypeId */\n      0x00\n        /* \"contracts/polygonUsdt/Usdt-proxy-all.sol\":1431:1432  2 */\n      0x02\n        /* \"contracts/polygonUsdt/Usdt-proxy-all.sol\":1417:1432  proxyTypeId = 2 */\n      swap1\n      pop\n        /* \"contracts/polygonUsdt/Usdt-proxy-all.sol\":1296:1439  function proxyType() external virtual override pure returns (uint256 proxyTypeId) {... */\n      swap1\n      jump\t// out\n        /* \"contracts/polygonUsdt/Usdt-proxy-all.sol\":2679:2790  function implementation() external override view returns (address) {... */\n    tag_31:\n        /* \"contracts/polygonUsdt/Usdt-proxy-all.sol\":2737:2744  address */\n      0x00\n        /* \"contracts/polygonUsdt/Usdt-proxy-all.sol\":2763:2783  loadImplementation() */\n      tag_62\n        /* \"contracts/polygonUsdt/Usdt-proxy-all.sol\":2763:2781  loadImplementation */\n      tag_13\n        /* \"contracts/polygonUsdt/Usdt-proxy-all.sol\":2763:2783  loadImplementation() */\n      jump\t// in\n    tag_62:\n        /* \"contracts/polygonUsdt/Usdt-proxy-all.sol\":2756:2783  return loadImplementation() */\n      swap1\n      pop\n        /* \"contracts/polygonUsdt/Usdt-proxy-all.sol\":2679:2790  function implementation() external override view returns (address) {... */\n      swap1\n      jump\t// out\n        /* \"contracts/polygonUsdt/Usdt-proxy-all.sol\":3784:4068  function updateAndCall(address _newProxyTo, bytes memory data) payable public onlyProxyOwner {... */\n    tag_37:\n        /* \"contracts/polygonUsdt/Usdt-proxy-all.sol\":2309:2319  msg.sender */\n      caller\n        /* \"contracts/polygonUsdt/Usdt-proxy-all.sol\":2289:2319  loadProxyOwner() == msg.sender */\n      0xffffffffffffffffffffffffffffffffffffffff\n      and\n        /* \"contracts/polygonUsdt/Usdt-proxy-all.sol\":2289:2305  loadProxyOwner() */\n      tag_64\n        /* \"contracts/polygonUsdt/Usdt-proxy-all.sol\":2289:2303  loadProxyOwner */\n      tag_48\n        /* \"contracts/polygonUsdt/Usdt-proxy-all.sol\":2289:2305  loadProxyOwner() */\n      jump\t// in\n    tag_64:\n        /* \"contracts/polygonUsdt/Usdt-proxy-all.sol\":2289:2319  loadProxyOwner() == msg.sender */\n      0xffffffffffffffffffffffffffffffffffffffff\n      and\n      eq\n        /* \"contracts/polygonUsdt/Usdt-proxy-all.sol\":2281:2333  require(loadProxyOwner() == msg.sender, \"NOT_OWNER\") */\n      tag_65\n      jumpi\n      mload(0x40)\n      0x08c379a000000000000000000000000000000000000000000000000000000000\n      dup2\n      mstore\n      0x04\n      add\n      dup1\n      dup1\n      0x20\n      add\n      dup3\n      dup2\n      sub\n      dup3\n      mstore\n      0x09\n      dup2\n      mstore\n      0x20\n      add\n      dup1\n      0x4e4f545f4f574e45520000000000000000000000000000000000000000000000\n      dup2\n      mstore\n      pop\n      0x20\n      add\n      swap2\n      pop\n      pop\n      mload(0x40)\n      dup1\n      swap2\n      sub\n      swap1\n      revert\n    tag_65:\n        /* \"contracts/polygonUsdt/Usdt-proxy-all.sol\":3887:3920  updateImplementation(_newProxyTo) */\n      tag_67\n        /* \"contracts/polygonUsdt/Usdt-proxy-all.sol\":3908:3919  _newProxyTo */\n      dup3\n        /* \"contracts/polygonUsdt/Usdt-proxy-all.sol\":3887:3907  updateImplementation */\n      tag_25\n        /* \"contracts/polygonUsdt/Usdt-proxy-all.sol\":3887:3920  updateImplementation(_newProxyTo) */\n      jump\t// in\n    tag_67:\n        /* \"contracts/polygonUsdt/Usdt-proxy-all.sol\":3932:3944  bool success */\n      0x00\n        /* \"contracts/polygonUsdt/Usdt-proxy-all.sol\":3946:3969  bytes memory returnData */\n      0x60\n        /* \"contracts/polygonUsdt/Usdt-proxy-all.sol\":3981:3985  this */\n      address\n        /* \"contracts/polygonUsdt/Usdt-proxy-all.sol\":3973:3991  address(this).call */\n      0xffffffffffffffffffffffffffffffffffffffff\n      and\n        /* \"contracts/polygonUsdt/Usdt-proxy-all.sol\":3999:4008  msg.value */\n      callvalue\n        /* \"contracts/polygonUsdt/Usdt-proxy-all.sol\":4010:4014  data */\n      dup5\n        /* \"contracts/polygonUsdt/Usdt-proxy-all.sol\":3973:4015  address(this).call{value: msg.value}(data) */\n      mload(0x40)\n      dup1\n      dup3\n      dup1\n      mload\n      swap1\n      0x20\n      add\n      swap1\n      dup1\n      dup4\n      dup4\n        /* \"--CODEGEN--\":36:189   */\n    tag_68:\n        /* \"--CODEGEN--\":66:68   */\n      0x20\n        /* \"--CODEGEN--\":61:64   */\n      dup4\n        /* \"--CODEGEN--\":58:69   */\n      lt\n        /* \"--CODEGEN--\":36:189   */\n      tag_70\n      jumpi\n        /* \"--CODEGEN--\":182:185   */\n      dup1\n        /* \"--CODEGEN--\":176:186   */\n      mload\n        /* \"--CODEGEN--\":171:174   */\n      dup3\n        /* \"--CODEGEN--\":164:187   */\n      mstore\n        /* \"--CODEGEN--\":98:100   */\n      0x20\n        /* \"--CODEGEN--\":93:96   */\n      dup3\n        /* \"--CODEGEN--\":89:101   */\n      add\n        /* \"--CODEGEN--\":82:101   */\n      swap2\n      pop\n        /* \"--CODEGEN--\":123:125   */\n      0x20\n        /* \"--CODEGEN--\":118:121   */\n      dup2\n        /* \"--CODEGEN--\":114:126   */\n      add\n        /* \"--CODEGEN--\":107:126   */\n      swap1\n      pop\n        /* \"--CODEGEN--\":148:150   */\n      0x20\n        /* \"--CODEGEN--\":143:146   */\n      dup4\n        /* \"--CODEGEN--\":139:151   */\n      sub\n        /* \"--CODEGEN--\":132:151   */\n      swap3\n      pop\n        /* \"--CODEGEN--\":36:189   */\n      jump(tag_68)\n    tag_70:\n        /* \"--CODEGEN--\":274:275   */\n      0x01\n        /* \"--CODEGEN--\":267:270   */\n      dup4\n        /* \"--CODEGEN--\":263:265   */\n      0x20\n        /* \"--CODEGEN--\":259:271   */\n      sub\n        /* \"--CODEGEN--\":254:257   */\n      0x0100\n        /* \"--CODEGEN--\":250:272   */\n      exp\n        /* \"--CODEGEN--\":246:276   */\n      sub\n        /* \"--CODEGEN--\":315:319   */\n      dup1\n        /* \"--CODEGEN--\":311:320   */\n      not\n        /* \"--CODEGEN--\":305:308   */\n      dup3\n        /* \"--CODEGEN--\":299:309   */\n      mload\n        /* \"--CODEGEN--\":295:321   */\n      and\n        /* \"--CODEGEN--\":356:360   */\n      dup2\n        /* \"--CODEGEN--\":350:353   */\n      dup5\n        /* \"--CODEGEN--\":344:354   */\n      mload\n        /* \"--CODEGEN--\":340:361   */\n      and\n        /* \"--CODEGEN--\":389:396   */\n      dup1\n        /* \"--CODEGEN--\":380:387   */\n      dup3\n        /* \"--CODEGEN--\":377:397   */\n      or\n        /* \"--CODEGEN--\":372:375   */\n      dup6\n        /* \"--CODEGEN--\":365:398   */\n      mstore\n        /* \"--CODEGEN--\":3:402   */\n      pop\n      pop\n      pop\n        /* \"contracts/polygonUsdt/Usdt-proxy-all.sol\":3973:4015  address(this).call{value: msg.value}(data) */\n      pop\n      pop\n      pop\n      swap1\n      pop\n      add\n      swap2\n      pop\n      pop\n      0x00\n      mload(0x40)\n      dup1\n      dup4\n      sub\n      dup2\n      dup6\n      dup8\n      gas\n      call\n      swap3\n      pop\n      pop\n      pop\n      returndatasize\n        /* \"--CODEGEN--\":12:13   */\n      dup1\n        /* \"--CODEGEN--\":19:20   */\n      0x00\n        /* \"--CODEGEN--\":14:41   */\n      dup2\n      eq\n      tag_73\n      jumpi\n        /* \"--CODEGEN--\":67:71   */\n      0x40\n        /* \"--CODEGEN--\":61:72   */\n      mload\n        /* \"--CODEGEN--\":56:72   */\n      swap2\n      pop\n        /* \"--CODEGEN--\":134:138   */\n      0x1f\n        /* \"--CODEGEN--\":130:139   */\n      not\n        /* \"--CODEGEN--\":123:127   */\n      0x3f\n        /* \"--CODEGEN--\":105:121   */\n      returndatasize\n        /* \"--CODEGEN--\":101:128   */\n      add\n        /* \"--CODEGEN--\":97:140   */\n      and\n        /* \"--CODEGEN--\":94:95   */\n      dup3\n        /* \"--CODEGEN--\":90:141   */\n      add\n        /* \"--CODEGEN--\":84:88   */\n      0x40\n        /* \"--CODEGEN--\":77:142   */\n      mstore\n        /* \"--CODEGEN--\":157:173   */\n      returndatasize\n        /* \"--CODEGEN--\":154:155   */\n      dup3\n        /* \"--CODEGEN--\":147:174   */\n      mstore\n        /* \"--CODEGEN--\":211:227   */\n      returndatasize\n        /* \"--CODEGEN--\":208:209   */\n      0x00\n        /* \"--CODEGEN--\":201:205   */\n      0x20\n        /* \"--CODEGEN--\":198:199   */\n      dup5\n        /* \"--CODEGEN--\":194:206   */\n      add\n        /* \"--CODEGEN--\":179:228   */\n      returndatacopy\n        /* \"--CODEGEN--\":5:233   */\n      jump(tag_72)\n        /* \"--CODEGEN--\":14:41   */\n    tag_73:\n        /* \"--CODEGEN--\":32:36   */\n      0x60\n        /* \"--CODEGEN--\":27:36   */\n      swap2\n      pop\n        /* \"--CODEGEN--\":5:233   */\n    tag_72:\n      pop\n        /* \"contracts/polygonUsdt/Usdt-proxy-all.sol\":3931:4015  (bool success, bytes memory returnData) = address(this).call{value: msg.value}(data) */\n      swap2\n      pop\n      swap2\n      pop\n        /* \"contracts/polygonUsdt/Usdt-proxy-all.sol\":4033:4040  success */\n      dup2\n        /* \"contracts/polygonUsdt/Usdt-proxy-all.sol\":4049:4059  returnData */\n      dup2\n        /* \"contracts/polygonUsdt/Usdt-proxy-all.sol\":4025:4061  require(success, string(returnData)) */\n      swap1\n      tag_74\n      jumpi\n      mload(0x40)\n      0x08c379a000000000000000000000000000000000000000000000000000000000\n      dup2\n      mstore\n      0x04\n      add\n      dup1\n      dup1\n      0x20\n      add\n      dup3\n      dup2\n      sub\n      dup3\n      mstore\n      dup4\n      dup2\n      dup2\n      mload\n      dup2\n      mstore\n      0x20\n      add\n      swap2\n      pop\n      dup1\n      mload\n      swap1\n      0x20\n      add\n      swap1\n      dup1\n      dup4\n      dup4\n        /* \"--CODEGEN--\":23:24   */\n      0x00\n        /* \"--CODEGEN--\":8:108   */\n    tag_75:\n        /* \"--CODEGEN--\":33:36   */\n      dup4\n        /* \"--CODEGEN--\":30:31   */\n      dup2\n        /* \"--CODEGEN--\":27:37   */\n      lt\n        /* \"--CODEGEN--\":8:108   */\n      iszero\n      tag_77\n      jumpi\n        /* \"--CODEGEN--\":99:100   */\n      dup1\n        /* \"--CODEGEN--\":94:97   */\n      dup3\n        /* \"--CODEGEN--\":90:101   */\n      add\n        /* \"--CODEGEN--\":84:102   */\n      mload\n        /* \"--CODEGEN--\":80:81   */\n      dup2\n        /* \"--CODEGEN--\":75:78   */\n      dup5\n        /* \"--CODEGEN--\":71:82   */\n      add\n        /* \"--CODEGEN--\":64:103   */\n      mstore\n        /* \"--CODEGEN--\":52:54   */\n      0x20\n        /* \"--CODEGEN--\":49:50   */\n      dup2\n        /* \"--CODEGEN--\":45:55   */\n      add\n        /* \"--CODEGEN--\":40:55   */\n      swap1\n      pop\n        /* \"--CODEGEN--\":8:108   */\n      jump(tag_75)\n    tag_77:\n        /* \"--CODEGEN--\":12:26   */\n      pop\n        /* \"contracts/polygonUsdt/Usdt-proxy-all.sol\":4025:4061  require(success, string(returnData)) */\n      pop\n      pop\n      pop\n      swap1\n      pop\n      swap1\n      dup2\n      add\n      swap1\n      0x1f\n      and\n      dup1\n      iszero\n      tag_78\n      jumpi\n      dup1\n      dup3\n      sub\n      dup1\n      mload\n      0x01\n      dup4\n      0x20\n      sub\n      0x0100\n      exp\n      sub\n      not\n      and\n      dup2\n      mstore\n      0x20\n      add\n      swap2\n      pop\n    tag_78:\n      pop\n      swap3\n      pop\n      pop\n      pop\n      mload(0x40)\n      dup1\n      swap2\n      sub\n      swap1\n      revert\n    tag_74:\n      pop\n        /* \"contracts/polygonUsdt/Usdt-proxy-all.sol\":2343:2344  _ */\n      pop\n      pop\n        /* \"contracts/polygonUsdt/Usdt-proxy-all.sol\":3784:4068  function updateAndCall(address _newProxyTo, bytes memory data) payable public onlyProxyOwner {... */\n      pop\n      pop\n      jump\t// out\n        /* \"contracts/polygonUsdt/Usdt-proxy-all.sol\":3029:3257  function transferProxyOwnership(address newOwner) public onlyProxyOwner {... */\n    tag_41:\n        /* \"contracts/polygonUsdt/Usdt-proxy-all.sol\":2309:2319  msg.sender */\n      caller\n        /* \"contracts/polygonUsdt/Usdt-proxy-all.sol\":2289:2319  loadProxyOwner() == msg.sender */\n      0xffffffffffffffffffffffffffffffffffffffff\n      and\n        /* \"contracts/polygonUsdt/Usdt-proxy-all.sol\":2289:2305  loadProxyOwner() */\n      tag_80\n        /* \"contracts/polygonUsdt/Usdt-proxy-all.sol\":2289:2303  loadProxyOwner */\n      tag_48\n        /* \"contracts/polygonUsdt/Usdt-proxy-all.sol\":2289:2305  loadProxyOwner() */\n      jump\t// in\n    tag_80:\n        /* \"contracts/polygonUsdt/Usdt-proxy-all.sol\":2289:2319  loadProxyOwner() == msg.sender */\n      0xffffffffffffffffffffffffffffffffffffffff\n      and\n      eq\n        /* \"contracts/polygonUsdt/Usdt-proxy-all.sol\":2281:2333  require(loadProxyOwner() == msg.sender, \"NOT_OWNER\") */\n      tag_81\n      jumpi\n      mload(0x40)\n      0x08c379a000000000000000000000000000000000000000000000000000000000\n      dup2\n      mstore\n      0x04\n      add\n      dup1\n      dup1\n      0x20\n      add\n      dup3\n      dup2\n      sub\n      dup3\n      mstore\n      0x09\n      dup2\n      mstore\n      0x20\n      add\n      dup1\n      0x4e4f545f4f574e45520000000000000000000000000000000000000000000000\n      dup2\n      mstore\n      pop\n      0x20\n      add\n      swap2\n      pop\n      pop\n      mload(0x40)\n      dup1\n      swap2\n      sub\n      swap1\n      revert\n    tag_81:\n        /* \"contracts/polygonUsdt/Usdt-proxy-all.sol\":3139:3140  0 */\n      0x00\n        /* \"contracts/polygonUsdt/Usdt-proxy-all.sol\":3119:3141  newOwner != address(0) */\n      0xffffffffffffffffffffffffffffffffffffffff\n      and\n        /* \"contracts/polygonUsdt/Usdt-proxy-all.sol\":3119:3127  newOwner */\n      dup2\n        /* \"contracts/polygonUsdt/Usdt-proxy-all.sol\":3119:3141  newOwner != address(0) */\n      0xffffffffffffffffffffffffffffffffffffffff\n      and\n      eq\n      iszero\n        /* \"contracts/polygonUsdt/Usdt-proxy-all.sol\":3111:3158  require(newOwner != address(0), \"ZERO_ADDRESS\") */\n      tag_83\n      jumpi\n      mload(0x40)\n      0x08c379a000000000000000000000000000000000000000000000000000000000\n      dup2\n      mstore\n      0x04\n      add\n      dup1\n      dup1\n      0x20\n      add\n      dup3\n      dup2\n      sub\n      dup3\n      mstore\n      0x0c\n      dup2\n      mstore\n      0x20\n      add\n      dup1\n      0x5a45524f5f414444524553530000000000000000000000000000000000000000\n      dup2\n      mstore\n      pop\n      0x20\n      add\n      swap2\n      pop\n      pop\n      mload(0x40)\n      dup1\n      swap2\n      sub\n      swap1\n      revert\n    tag_83:\n        /* \"contracts/polygonUsdt/Usdt-proxy-all.sol\":3173:3217  ProxyOwnerUpdate(newOwner, loadProxyOwner()) */\n      0xdbe5fd65bcdbae152f24ab660ea68e72b4d4705b57b16e0caae994e214680ee2\n        /* \"contracts/polygonUsdt/Usdt-proxy-all.sol\":3190:3198  newOwner */\n      dup2\n        /* \"contracts/polygonUsdt/Usdt-proxy-all.sol\":3200:3216  loadProxyOwner() */\n      tag_84\n        /* \"contracts/polygonUsdt/Usdt-proxy-all.sol\":3200:3214  loadProxyOwner */\n      tag_48\n        /* \"contracts/polygonUsdt/Usdt-proxy-all.sol\":3200:3216  loadProxyOwner() */\n      jump\t// in\n    tag_84:\n        /* \"contracts/polygonUsdt/Usdt-proxy-all.sol\":3173:3217  ProxyOwnerUpdate(newOwner, loadProxyOwner()) */\n      mload(0x40)\n      dup1\n      dup4\n      0xffffffffffffffffffffffffffffffffffffffff\n      and\n      0xffffffffffffffffffffffffffffffffffffffff\n      and\n      dup2\n      mstore\n      0x20\n      add\n      dup3\n      0xffffffffffffffffffffffffffffffffffffffff\n      and\n      0xffffffffffffffffffffffffffffffffffffffff\n      and\n      dup2\n      mstore\n      0x20\n      add\n      swap3\n      pop\n      pop\n      pop\n      mload(0x40)\n      dup1\n      swap2\n      sub\n      swap1\n      log1\n        /* \"contracts/polygonUsdt/Usdt-proxy-all.sol\":3227:3250  setProxyOwner(newOwner) */\n      tag_85\n        /* \"contracts/polygonUsdt/Usdt-proxy-all.sol\":3241:3249  newOwner */\n      dup2\n        /* \"contracts/polygonUsdt/Usdt-proxy-all.sol\":3227:3240  setProxyOwner */\n      tag_86\n        /* \"contracts/polygonUsdt/Usdt-proxy-all.sol\":3227:3250  setProxyOwner(newOwner) */\n      jump\t// in\n    tag_85:\n        /* \"contracts/polygonUsdt/Usdt-proxy-all.sol\":3029:3257  function transferProxyOwnership(address newOwner) public onlyProxyOwner {... */\n      pop\n      jump\t// out\n        /* \"contracts/polygonUsdt/Usdt-proxy-all.sol\":2456:2673  function loadProxyOwner() internal view returns(address) {... */\n    tag_48:\n        /* \"contracts/polygonUsdt/Usdt-proxy-all.sol\":2504:2511  address */\n      0x00\n        /* \"contracts/polygonUsdt/Usdt-proxy-all.sol\":2523:2537  address _owner */\n      dup1\n        /* \"contracts/polygonUsdt/Usdt-proxy-all.sol\":2547:2563  bytes32 position */\n      0x00\n        /* \"contracts/polygonUsdt/Usdt-proxy-all.sol\":1889:1927  keccak256(\"matic.network.proxy.owner\") */\n      mload(0x40)\n      dup1\n      dup1\n      0x6d617469632e6e6574776f726b2e70726f78792e6f776e657200000000000000\n      dup2\n      mstore\n      pop\n      0x19\n      add\n      swap1\n      pop\n      mload(0x40)\n      dup1\n      swap2\n      sub\n      swap1\n      keccak256\n        /* \"contracts/polygonUsdt/Usdt-proxy-all.sol\":2547:2576  bytes32 position = OWNER_SLOT */\n      swap1\n      pop\n        /* \"contracts/polygonUsdt/Usdt-proxy-all.sol\":2625:2633  position */\n      dup1\n        /* \"contracts/polygonUsdt/Usdt-proxy-all.sol\":2619:2634  sload(position) */\n      sload\n        /* \"contracts/polygonUsdt/Usdt-proxy-all.sol\":2609:2634  _owner := sload(position) */\n      swap2\n      pop\n        /* \"contracts/polygonUsdt/Usdt-proxy-all.sol\":2660:2666  _owner */\n      dup2\n        /* \"contracts/polygonUsdt/Usdt-proxy-all.sol\":2653:2666  return _owner */\n      swap3\n      pop\n      pop\n      pop\n        /* \"contracts/polygonUsdt/Usdt-proxy-all.sol\":2456:2673  function loadProxyOwner() internal view returns(address) {... */\n      swap1\n      jump\t// out\n        /* \"contracts/polygonUsdt/Usdt-proxy-all.sol\":4266:4530  function isContract(address _target) internal view returns (bool) {... */\n    tag_55:\n        /* \"contracts/polygonUsdt/Usdt-proxy-all.sol\":4326:4330  bool */\n      0x00\n        /* \"contracts/polygonUsdt/Usdt-proxy-all.sol\":4365:4366  0 */\n      dup1\n        /* \"contracts/polygonUsdt/Usdt-proxy-all.sol\":4346:4367  _target == address(0) */\n      0xffffffffffffffffffffffffffffffffffffffff\n      and\n        /* \"contracts/polygonUsdt/Usdt-proxy-all.sol\":4346:4353  _target */\n      dup3\n        /* \"contracts/polygonUsdt/Usdt-proxy-all.sol\":4346:4367  _target == address(0) */\n      0xffffffffffffffffffffffffffffffffffffffff\n      and\n      eq\n        /* \"contracts/polygonUsdt/Usdt-proxy-all.sol\":4342:4406  if (_target == address(0)) {... */\n      iszero\n      tag_89\n      jumpi\n        /* \"contracts/polygonUsdt/Usdt-proxy-all.sol\":4390:4395  false */\n      0x00\n        /* \"contracts/polygonUsdt/Usdt-proxy-all.sol\":4383:4395  return false */\n      swap1\n      pop\n      jump(tag_88)\n        /* \"contracts/polygonUsdt/Usdt-proxy-all.sol\":4342:4406  if (_target == address(0)) {... */\n    tag_89:\n        /* \"contracts/polygonUsdt/Usdt-proxy-all.sol\":4416:4428  uint256 size */\n      0x00\n        /* \"contracts/polygonUsdt/Usdt-proxy-all.sol\":4481:4488  _target */\n      dup3\n        /* \"contracts/polygonUsdt/Usdt-proxy-all.sol\":4469:4489  extcodesize(_target) */\n      extcodesize\n        /* \"contracts/polygonUsdt/Usdt-proxy-all.sol\":4461:4489  size := extcodesize(_target) */\n      swap1\n      pop\n        /* \"contracts/polygonUsdt/Usdt-proxy-all.sol\":4522:4523  0 */\n      0x00\n        /* \"contracts/polygonUsdt/Usdt-proxy-all.sol\":4515:4519  size */\n      dup2\n        /* \"contracts/polygonUsdt/Usdt-proxy-all.sol\":4515:4523  size > 0 */\n      gt\n        /* \"contracts/polygonUsdt/Usdt-proxy-all.sol\":4508:4523  return size > 0 */\n      swap2\n      pop\n      pop\n        /* \"contracts/polygonUsdt/Usdt-proxy-all.sol\":4266:4530  function isContract(address _target) internal view returns (bool) {... */\n    tag_88:\n      swap2\n      swap1\n      pop\n      jump\t// out\n        /* \"contracts/polygonUsdt/Usdt-proxy-all.sol\":4074:4256  function setImplementation(address _newProxyTo) private {... */\n    tag_59:\n        /* \"contracts/polygonUsdt/Usdt-proxy-all.sol\":4140:4156  bytes32 position */\n      0x00\n        /* \"contracts/polygonUsdt/Usdt-proxy-all.sol\":1806:1853  keccak256(\"matic.network.proxy.implementation\") */\n      mload(0x40)\n      dup1\n      dup1\n      data_baab7dbf64751104133af04abc7d9979f0fda3b059a322a8333f533d3f32bf7f\n      0x22\n      swap2\n      codecopy\n      0x22\n      add\n      swap1\n      pop\n      mload(0x40)\n      dup1\n      swap2\n      sub\n      swap1\n      keccak256\n        /* \"contracts/polygonUsdt/Usdt-proxy-all.sol\":4140:4178  bytes32 position = IMPLEMENTATION_SLOT */\n      swap1\n      pop\n        /* \"contracts/polygonUsdt/Usdt-proxy-all.sol\":4228:4239  _newProxyTo */\n      dup2\n        /* \"contracts/polygonUsdt/Usdt-proxy-all.sol\":4218:4226  position */\n      dup2\n        /* \"contracts/polygonUsdt/Usdt-proxy-all.sol\":4211:4240  sstore(position, _newProxyTo) */\n      sstore\n        /* \"contracts/polygonUsdt/Usdt-proxy-all.sol\":4197:4250  {... */\n      pop\n      pop\n      jump\t// out\n        /* \"contracts/polygonUsdt/Usdt-proxy-all.sol\":3263:3426  function setProxyOwner(address newOwner) private {... */\n    tag_86:\n        /* \"contracts/polygonUsdt/Usdt-proxy-all.sol\":3322:3338  bytes32 position */\n      0x00\n        /* \"contracts/polygonUsdt/Usdt-proxy-all.sol\":1889:1927  keccak256(\"matic.network.proxy.owner\") */\n      mload(0x40)\n      dup1\n      dup1\n      0x6d617469632e6e6574776f726b2e70726f78792e6f776e657200000000000000\n      dup2\n      mstore\n      pop\n      0x19\n      add\n      swap1\n      pop\n      mload(0x40)\n      dup1\n      swap2\n      sub\n      swap1\n      keccak256\n        /* \"contracts/polygonUsdt/Usdt-proxy-all.sol\":3322:3351  bytes32 position = OWNER_SLOT */\n      swap1\n      pop\n        /* \"contracts/polygonUsdt/Usdt-proxy-all.sol\":3401:3409  newOwner */\n      dup2\n        /* \"contracts/polygonUsdt/Usdt-proxy-all.sol\":3391:3399  position */\n      dup2\n        /* \"contracts/polygonUsdt/Usdt-proxy-all.sol\":3384:3410  sstore(position, newOwner) */\n      sstore\n        /* \"contracts/polygonUsdt/Usdt-proxy-all.sol\":3370:3420  {... */\n      pop\n      pop\n      jump\t// out\n    stop\n    data_20aa50bd51f5bb26e7033878d86e2e1c4aaae5b4363b54bbbde49d316f97eedc 44455354494e4154494f4e5f414444524553535f49535f4e4f545f415f434f4e5452414354\n    data_baab7dbf64751104133af04abc7d9979f0fda3b059a322a8333f533d3f32bf7f 6d617469632e6e6574776f726b2e70726f78792e696d706c656d656e746174696f6e\n\n    auxdata: 0xa2646970667358221220ffab5622cfd69809d9b7a5683425b6cdf58e70b7c681a32d89de8e563389144564736f6c63430006060033\n}\n",
				"bytecode": {
					"linkReferences": {},
					"object": "608060405234801561001057600080fd5b50604051610c85380380610c858339818101604052602081101561003357600080fd5b8101908080519060200190929190505050806100543361006a60201b60201c565b610063816100ab60201b60201c565b50506100cf565b600060405180807f6d617469632e6e6574776f726b2e70726f78792e6f776e6572000000000000008152506019019050604051809103902090508181555050565b60006040518080610c63602291396022019050604051809103902090508181555050565b610b85806100de6000396000f3fe6080604052600436106100595760003560e01c8063025313a21461010e578063025b22bc146101655780634555d5c9146101b65780635c60da1b146101e1578063d88ca2c814610238578063f1739cae14610313576100b6565b366100b6576100b4610069610364565b6000368080601f016020809104026020016040519081016040528093929190818152602001838380828437600081840152601f19601f82011690508083019250505050505050610390565b005b61010c6100c1610364565b6000368080601f016020809104026020016040519081016040528093929190818152602001838380828437600081840152601f19601f82011690508083019250505050505050610390565b005b34801561011a57600080fd5b506101236103ba565b604051808273ffffffffffffffffffffffffffffffffffffffff1673ffffffffffffffffffffffffffffffffffffffff16815260200191505060405180910390f35b34801561017157600080fd5b506101b46004803603602081101561018857600080fd5b81019080803573ffffffffffffffffffffffffffffffffffffffff1690602001909291905050506103c9565b005b3480156101c257600080fd5b506101cb6105df565b6040518082815260200191505060405180910390f35b3480156101ed57600080fd5b506101f66105e8565b604051808273ffffffffffffffffffffffffffffffffffffffff1673ffffffffffffffffffffffffffffffffffffffff16815260200191505060405180910390f35b6103116004803603604081101561024e57600080fd5b81019080803573ffffffffffffffffffffffffffffffffffffffff1690602001909291908035906020019064010000000081111561028b57600080fd5b82018360208201111561029d57600080fd5b803590602001918460018302840111640100000000831117156102bf57600080fd5b91908080601f016020809104026020016040519081016040528093929190818152602001838380828437600081840152601f19601f8201169050808301925050505050505091929192905050506105f7565b005b34801561031f57600080fd5b506103626004803603602081101561033657600080fd5b81019080803573ffffffffffffffffffffffffffffffffffffffff169060200190929190505050610813565b005b60008060006040518080610b2e6022913960220190506040518091039020905080549150819250505090565b600080825160208401856127105a03f43d604051816000823e82600081146103b6578282f35b8282fd5b60006103c4610a08565b905090565b3373ffffffffffffffffffffffffffffffffffffffff166103e8610a08565b73ffffffffffffffffffffffffffffffffffffffff1614610471576040517f08c379a00000000000000000000000000000000000000000000000000000000081526004018080602001828103825260098152602001807f4e4f545f4f574e4552000000000000000000000000000000000000000000000081525060200191505060405180910390fd5b600073ffffffffffffffffffffffffffffffffffffffff168173ffffffffffffffffffffffffffffffffffffffff161415610514576040517f08c379a00000000000000000000000000000000000000000000000000000000081526004018080602001828103825260158152602001807f494e56414c49445f50524f58595f41444452455353000000000000000000000081525060200191505060405180910390fd5b61051d81610a51565b610572576040517f08c379a0000000000000000000000000000000000000000000000000000000008152600401808060200182810382526025815260200180610b096025913960400191505060405180910390fd5b61057a610364565b73ffffffffffffffffffffffffffffffffffffffff168173ffffffffffffffffffffffffffffffffffffffff167fd32d24edea94f55e932d9a008afc425a8561462d1b1f57bc6e508e9a6b9509e160405160405180910390a36105dc81610aa3565b50565b60006002905090565b60006105f2610364565b905090565b3373ffffffffffffffffffffffffffffffffffffffff16610616610a08565b73ffffffffffffffffffffffffffffffffffffffff161461069f576040517f08c379a00000000000000000000000000000000000000000000000000000000081526004018080602001828103825260098152602001807f4e4f545f4f574e4552000000000000000000000000000000000000000000000081525060200191505060405180910390fd5b6106a8826103c9565b600060603073ffffffffffffffffffffffffffffffffffffffff1634846040518082805190602001908083835b602083106106f857805182526020820191506020810190506020830392506106d5565b6001836020036101000a03801982511681845116808217855250505050505090500191505060006040518083038185875af1925050503d806000811461075a576040519150601f19603f3d011682016040523d82523d6000602084013e61075f565b606091505b509150915081819061080c576040517f08c379a00000000000000000000000000000000000000000000000000000000081526004018080602001828103825283818151815260200191508051906020019080838360005b838110156107d15780820151818401526020810190506107b6565b50505050905090810190601f1680156107fe5780820380516001836020036101000a031916815260200191505b509250505060405180910390fd5b5050505050565b3373ffffffffffffffffffffffffffffffffffffffff16610832610a08565b73ffffffffffffffffffffffffffffffffffffffff16146108bb576040517f08c379a00000000000000000000000000000000000000000000000000000000081526004018080602001828103825260098152602001807f4e4f545f4f574e4552000000000000000000000000000000000000000000000081525060200191505060405180910390fd5b600073ffffffffffffffffffffffffffffffffffffffff168173ffffffffffffffffffffffffffffffffffffffff16141561095e576040517f08c379a000000000000000000000000000000000000000000000000000000000815260040180806020018281038252600c8152602001807f5a45524f5f41444452455353000000000000000000000000000000000000000081525060200191505060405180910390fd5b7fdbe5fd65bcdbae152f24ab660ea68e72b4d4705b57b16e0caae994e214680ee281610988610a08565b604051808373ffffffffffffffffffffffffffffffffffffffff1673ffffffffffffffffffffffffffffffffffffffff1681526020018273ffffffffffffffffffffffffffffffffffffffff1673ffffffffffffffffffffffffffffffffffffffff1681526020019250505060405180910390a1610a0581610ac7565b50565b600080600060405180807f6d617469632e6e6574776f726b2e70726f78792e6f776e65720000000000000081525060190190506040518091039020905080549150819250505090565b60008073ffffffffffffffffffffffffffffffffffffffff168273ffffffffffffffffffffffffffffffffffffffff161415610a905760009050610a9e565b6000823b9050600081119150505b919050565b60006040518080610b2e602291396022019050604051809103902090508181555050565b600060405180807f6d617469632e6e6574776f726b2e70726f78792e6f776e657200000000000000815250601901905060405180910390209050818155505056fe44455354494e4154494f4e5f414444524553535f49535f4e4f545f415f434f4e54524143546d617469632e6e6574776f726b2e70726f78792e696d706c656d656e746174696f6ea2646970667358221220ffab5622cfd69809d9b7a5683425b6cdf58e70b7c681a32d89de8e563389144564736f6c634300060600336d617469632e6e6574776f726b2e70726f78792e696d706c656d656e746174696f6e",
					"opcodes": "PUSH1 0x80 PUSH1 0x40 MSTORE CALLVALUE DUP1 ISZERO PUSH2 0x10 JUMPI PUSH1 0x0 DUP1 REVERT JUMPDEST POP PUSH1 0x40 MLOAD PUSH2 0xC85 CODESIZE SUB DUP1 PUSH2 0xC85 DUP4 CODECOPY DUP2 DUP2 ADD PUSH1 0x40 MSTORE PUSH1 0x20 DUP2 LT ISZERO PUSH2 0x33 JUMPI PUSH1 0x0 DUP1 REVERT JUMPDEST DUP2 ADD SWAP1 DUP1 DUP1 MLOAD SWAP1 PUSH1 0x20 ADD SWAP1 SWAP3 SWAP2 SWAP1 POP POP POP DUP1 PUSH2 0x54 CALLER PUSH2 0x6A PUSH1 0x20 SHL PUSH1 0x20 SHR JUMP JUMPDEST PUSH2 0x63 DUP2 PUSH2 0xAB PUSH1 0x20 SHL PUSH1 0x20 SHR JUMP JUMPDEST POP POP PUSH2 0xCF JUMP JUMPDEST PUSH1 0x0 PUSH1 0x40 MLOAD DUP1 DUP1 PUSH32 0x6D617469632E6E6574776F726B2E70726F78792E6F776E657200000000000000 DUP2 MSTORE POP PUSH1 0x19 ADD SWAP1 POP PUSH1 0x40 MLOAD DUP1 SWAP2 SUB SWAP1 KECCAK256 SWAP1 POP DUP2 DUP2 SSTORE POP POP JUMP JUMPDEST PUSH1 0x0 PUSH1 0x40 MLOAD DUP1 DUP1 PUSH2 0xC63 PUSH1 0x22 SWAP2 CODECOPY PUSH1 0x22 ADD SWAP1 POP PUSH1 0x40 MLOAD DUP1 SWAP2 SUB SWAP1 KECCAK256 SWAP1 POP DUP2 DUP2 SSTORE POP POP JUMP JUMPDEST PUSH2 0xB85 DUP1 PUSH2 0xDE PUSH1 0x0 CODECOPY PUSH1 0x0 RETURN INVALID PUSH1 0x80 PUSH1 0x40 MSTORE PUSH1 0x4 CALLDATASIZE LT PUSH2 0x59 JUMPI PUSH1 0x0 CALLDATALOAD PUSH1 0xE0 SHR DUP1 PUSH4 0x25313A2 EQ PUSH2 0x10E JUMPI DUP1 PUSH4 0x25B22BC EQ PUSH2 0x165 JUMPI DUP1 PUSH4 0x4555D5C9 EQ PUSH2 0x1B6 JUMPI DUP1 PUSH4 0x5C60DA1B EQ PUSH2 0x1E1 JUMPI DUP1 PUSH4 0xD88CA2C8 EQ PUSH2 0x238 JUMPI DUP1 PUSH4 0xF1739CAE EQ PUSH2 0x313 JUMPI PUSH2 0xB6 JUMP JUMPDEST CALLDATASIZE PUSH2 0xB6 JUMPI PUSH2 0xB4 PUSH2 0x69 PUSH2 0x364 JUMP JUMPDEST PUSH1 0x0 CALLDATASIZE DUP1 DUP1 PUSH1 0x1F ADD PUSH1 0x20 DUP1 SWAP2 DIV MUL PUSH1 0x20 ADD PUSH1 0x40 MLOAD SWAP1 DUP2 ADD PUSH1 0x40 MSTORE DUP1 SWAP4 SWAP3 SWAP2 SWAP1 DUP2 DUP2 MSTORE PUSH1 0x20 ADD DUP4 DUP4 DUP1 DUP3 DUP5 CALLDATACOPY PUSH1 0x0 DUP2 DUP5 ADD MSTORE PUSH1 0x1F NOT PUSH1 0x1F DUP3 ADD AND SWAP1 POP DUP1 DUP4 ADD SWAP3 POP POP POP POP POP POP POP PUSH2 0x390 JUMP JUMPDEST STOP JUMPDEST PUSH2 0x10C PUSH2 0xC1 PUSH2 0x364 JUMP JUMPDEST PUSH1 0x0 CALLDATASIZE DUP1 DUP1 PUSH1 0x1F ADD PUSH1 0x20 DUP1 SWAP2 DIV MUL PUSH1 0x20 ADD PUSH1 0x40 MLOAD SWAP1 DUP2 ADD PUSH1 0x40 MSTORE DUP1 SWAP4 SWAP3 SWAP2 SWAP1 DUP2 DUP2 MSTORE PUSH1 0x20 ADD DUP4 DUP4 DUP1 DUP3 DUP5 CALLDATACOPY PUSH1 0x0 DUP2 DUP5 ADD MSTORE PUSH1 0x1F NOT PUSH1 0x1F DUP3 ADD AND SWAP1 POP DUP1 DUP4 ADD SWAP3 POP POP POP POP POP POP POP PUSH2 0x390 JUMP JUMPDEST STOP JUMPDEST CALLVALUE DUP1 ISZERO PUSH2 0x11A JUMPI PUSH1 0x0 DUP1 REVERT JUMPDEST POP PUSH2 0x123 PUSH2 0x3BA JUMP JUMPDEST PUSH1 0x40 MLOAD DUP1 DUP3 PUSH20 0xFFFFFFFFFFFFFFFFFFFFFFFFFFFFFFFFFFFFFFFF AND PUSH20 0xFFFFFFFFFFFFFFFFFFFFFFFFFFFFFFFFFFFFFFFF AND DUP2 MSTORE PUSH1 0x20 ADD SWAP2 POP POP PUSH1 0x40 MLOAD DUP1 SWAP2 SUB SWAP1 RETURN JUMPDEST CALLVALUE DUP1 ISZERO PUSH2 0x171 JUMPI PUSH1 0x0 DUP1 REVERT JUMPDEST POP PUSH2 0x1B4 PUSH1 0x4 DUP1 CALLDATASIZE SUB PUSH1 0x20 DUP2 LT ISZERO PUSH2 0x188 JUMPI PUSH1 0x0 DUP1 REVERT JUMPDEST DUP2 ADD SWAP1 DUP1 DUP1 CALLDATALOAD PUSH20 0xFFFFFFFFFFFFFFFFFFFFFFFFFFFFFFFFFFFFFFFF AND SWAP1 PUSH1 0x20 ADD SWAP1 SWAP3 SWAP2 SWAP1 POP POP POP PUSH2 0x3C9 JUMP JUMPDEST STOP JUMPDEST CALLVALUE DUP1 ISZERO PUSH2 0x1C2 JUMPI PUSH1 0x0 DUP1 REVERT JUMPDEST POP PUSH2 0x1CB PUSH2 0x5DF JUMP JUMPDEST PUSH1 0x40 MLOAD DUP1 DUP3 DUP2 MSTORE PUSH1 0x20 ADD SWAP2 POP POP PUSH1 0x40 MLOAD DUP1 SWAP2 SUB SWAP1 RETURN JUMPDEST CALLVALUE DUP1 ISZERO PUSH2 0x1ED JUMPI PUSH1 0x0 DUP1 REVERT JUMPDEST POP PUSH2 0x1F6 PUSH2 0x5E8 JUMP JUMPDEST PUSH1 0x40 MLOAD DUP1 DUP3 PUSH20 0xFFFFFFFFFFFFFFFFFFFFFFFFFFFFFFFFFFFFFFFF AND PUSH20 0xFFFFFFFFFFFFFFFFFFFFFFFFFFFFFFFFFFFFFFFF AND DUP2 MSTORE PUSH1 0x20 ADD SWAP2 POP POP PUSH1 0x40 MLOAD DUP1 SWAP2 SUB SWAP1 RETURN JUMPDEST PUSH2 0x311 PUSH1 0x4 DUP1 CALLDATASIZE SUB PUSH1 0x40 DUP2 LT ISZERO PUSH2 0x24E JUMPI PUSH1 0x0 DUP1 REVERT JUMPDEST DUP2 ADD SWAP1 DUP1 DUP1 CALLDATALOAD PUSH20 0xFFFFFFFFFFFFFFFFFFFFFFFFFFFFFFFFFFFFFFFF AND SWAP1 PUSH1 0x20 ADD SWAP1 SWAP3 SWAP2 SWAP1 DUP1 CALLDATALOAD SWAP1 PUSH1 0x20 ADD SWAP1 PUSH5 0x100000000 DUP2 GT ISZERO PUSH2 0x28B JUMPI PUSH1 0x0 DUP1 REVERT JUMPDEST DUP3 ADD DUP4 PUSH1 0x20 DUP3 ADD GT ISZERO PUSH2 0x29D JUMPI PUSH1 0x0 DUP1 REVERT JUMPDEST DUP1 CALLDATALOAD SWAP1 PUSH1 0x20 ADD SWAP2 DUP5 PUSH1 0x1 DUP4 MUL DUP5 ADD GT PUSH5 0x100000000 DUP4 GT OR ISZERO PUSH2 0x2BF JUMPI PUSH1 0x0 DUP1 REVERT JUMPDEST SWAP2 SWAP1 DUP1 DUP1 PUSH1 0x1F ADD PUSH1 0x20 DUP1 SWAP2 DIV MUL PUSH1 0x20 ADD PUSH1 0x40 MLOAD SWAP1 DUP2 ADD PUSH1 0x40 MSTORE DUP1 SWAP4 SWAP3 SWAP2 SWAP1 DUP2 DUP2 MSTORE PUSH1 0x20 ADD DUP4 DUP4 DUP1 DUP3 DUP5 CALLDATACOPY PUSH1 0x0 DUP2 DUP5 ADD MSTORE PUSH1 0x1F NOT PUSH1 0x1F DUP3 ADD AND SWAP1 POP DUP1 DUP4 ADD SWAP3 POP POP POP POP POP POP POP SWAP2 SWAP3 SWAP2 SWAP3 SWAP1 POP POP POP PUSH2 0x5F7 JUMP JUMPDEST STOP JUMPDEST CALLVALUE DUP1 ISZERO PUSH2 0x31F JUMPI PUSH1 0x0 DUP1 REVERT JUMPDEST POP PUSH2 0x362 PUSH1 0x4 DUP1 CALLDATASIZE SUB PUSH1 0x20 DUP2 LT ISZERO PUSH2 0x336 JUMPI PUSH1 0x0 DUP1 REVERT JUMPDEST DUP2 ADD SWAP1 DUP1 DUP1 CALLDATALOAD PUSH20 0xFFFFFFFFFFFFFFFFFFFFFFFFFFFFFFFFFFFFFFFF AND SWAP1 PUSH1 0x20 ADD SWAP1 SWAP3 SWAP2 SWAP1 POP POP POP PUSH2 0x813 JUMP JUMPDEST STOP JUMPDEST PUSH1 0x0 DUP1 PUSH1 0x0 PUSH1 0x40 MLOAD DUP1 DUP1 PUSH2 0xB2E PUSH1 0x22 SWAP2 CODECOPY PUSH1 0x22 ADD SWAP1 POP PUSH1 0x40 MLOAD DUP1 SWAP2 SUB SWAP1 KECCAK256 SWAP1 POP DUP1 SLOAD SWAP2 POP DUP2 SWAP3 POP POP POP SWAP1 JUMP JUMPDEST PUSH1 0x0 DUP1 DUP3 MLOAD PUSH1 0x20 DUP5 ADD DUP6 PUSH2 0x2710 GAS SUB DELEGATECALL RETURNDATASIZE PUSH1 0x40 MLOAD DUP2 PUSH1 0x0 DUP3 RETURNDATACOPY DUP3 PUSH1 0x0 DUP2 EQ PUSH2 0x3B6 JUMPI DUP3 DUP3 RETURN JUMPDEST DUP3 DUP3 REVERT JUMPDEST PUSH1 0x0 PUSH2 0x3C4 PUSH2 0xA08 JUMP JUMPDEST SWAP1 POP SWAP1 JUMP JUMPDEST CALLER PUSH20 0xFFFFFFFFFFFFFFFFFFFFFFFFFFFFFFFFFFFFFFFF AND PUSH2 0x3E8 PUSH2 0xA08 JUMP JUMPDEST PUSH20 0xFFFFFFFFFFFFFFFFFFFFFFFFFFFFFFFFFFFFFFFF AND EQ PUSH2 0x471 JUMPI PUSH1 0x40 MLOAD PUSH32 0x8C379A000000000000000000000000000000000000000000000000000000000 DUP2 MSTORE PUSH1 0x4 ADD DUP1 DUP1 PUSH1 0x20 ADD DUP3 DUP2 SUB DUP3 MSTORE PUSH1 0x9 DUP2 MSTORE PUSH1 0x20 ADD DUP1 PUSH32 0x4E4F545F4F574E45520000000000000000000000000000000000000000000000 DUP2 MSTORE POP PUSH1 0x20 ADD SWAP2 POP POP PUSH1 0x40 MLOAD DUP1 SWAP2 SUB SWAP1 REVERT JUMPDEST PUSH1 0x0 PUSH20 0xFFFFFFFFFFFFFFFFFFFFFFFFFFFFFFFFFFFFFFFF AND DUP2 PUSH20 0xFFFFFFFFFFFFFFFFFFFFFFFFFFFFFFFFFFFFFFFF AND EQ ISZERO PUSH2 0x514 JUMPI PUSH1 0x40 MLOAD PUSH32 0x8C379A000000000000000000000000000000000000000000000000000000000 DUP2 MSTORE PUSH1 0x4 ADD DUP1 DUP1 PUSH1 0x20 ADD DUP3 DUP2 SUB DUP3 MSTORE PUSH1 0x15 DUP2 MSTORE PUSH1 0x20 ADD DUP1 PUSH32 0x494E56414C49445F50524F58595F414444524553530000000000000000000000 DUP2 MSTORE POP PUSH1 0x20 ADD SWAP2 POP POP PUSH1 0x40 MLOAD DUP1 SWAP2 SUB SWAP1 REVERT JUMPDEST PUSH2 0x51D DUP2 PUSH2 0xA51 JUMP JUMPDEST PUSH2 0x572 JUMPI PUSH1 0x40 MLOAD PUSH32 0x8C379A000000000000000000000000000000000000000000000000000000000 DUP2 MSTORE PUSH1 0x4 ADD DUP1 DUP1 PUSH1 0x20 ADD DUP3 DUP2 SUB DUP3 MSTORE PUSH1 0x25 DUP2 MSTORE PUSH1 0x20 ADD DUP1 PUSH2 0xB09 PUSH1 0x25 SWAP2 CODECOPY PUSH1 0x40 ADD SWAP2 POP POP PUSH1 0x40 MLOAD DUP1 SWAP2 SUB SWAP1 REVERT JUMPDEST PUSH2 0x57A PUSH2 0x364 JUMP JUMPDEST PUSH20 0xFFFFFFFFFFFFFFFFFFFFFFFFFFFFFFFFFFFFFFFF AND DUP2 PUSH20 0xFFFFFFFFFFFFFFFFFFFFFFFFFFFFFFFFFFFFFFFF AND PUSH32 0xD32D24EDEA94F55E932D9A008AFC425A8561462D1B1F57BC6E508E9A6B9509E1 PUSH1 0x40 MLOAD PUSH1 0x40 MLOAD DUP1 SWAP2 SUB SWAP1 LOG3 PUSH2 0x5DC DUP2 PUSH2 0xAA3 JUMP JUMPDEST POP JUMP JUMPDEST PUSH1 0x0 PUSH1 0x2 SWAP1 POP SWAP1 JUMP JUMPDEST PUSH1 0x0 PUSH2 0x5F2 PUSH2 0x364 JUMP JUMPDEST SWAP1 POP SWAP1 JUMP JUMPDEST CALLER PUSH20 0xFFFFFFFFFFFFFFFFFFFFFFFFFFFFFFFFFFFFFFFF AND PUSH2 0x616 PUSH2 0xA08 JUMP JUMPDEST PUSH20 0xFFFFFFFFFFFFFFFFFFFFFFFFFFFFFFFFFFFFFFFF AND EQ PUSH2 0x69F JUMPI PUSH1 0x40 MLOAD PUSH32 0x8C379A000000000000000000000000000000000000000000000000000000000 DUP2 MSTORE PUSH1 0x4 ADD DUP1 DUP1 PUSH1 0x20 ADD DUP3 DUP2 SUB DUP3 MSTORE PUSH1 0x9 DUP2 MSTORE PUSH1 0x20 ADD DUP1 PUSH32 0x4E4F545F4F574E45520000000000000000000000000000000000000000000000 DUP2 MSTORE POP PUSH1 0x20 ADD SWAP2 POP POP PUSH1 0x40 MLOAD DUP1 SWAP2 SUB SWAP1 REVERT JUMPDEST PUSH2 0x6A8 DUP3 PUSH2 0x3C9 JUMP JUMPDEST PUSH1 0x0 PUSH1 0x60 ADDRESS PUSH20 0xFFFFFFFFFFFFFFFFFFFFFFFFFFFFFFFFFFFFFFFF AND CALLVALUE DUP5 PUSH1 0x40 MLOAD DUP1 DUP3 DUP1 MLOAD SWAP1 PUSH1 0x20 ADD SWAP1 DUP1 DUP4 DUP4 JUMPDEST PUSH1 0x20 DUP4 LT PUSH2 0x6F8 JUMPI DUP1 MLOAD DUP3 MSTORE PUSH1 0x20 DUP3 ADD SWAP2 POP PUSH1 0x20 DUP2 ADD SWAP1 POP PUSH1 0x20 DUP4 SUB SWAP3 POP PUSH2 0x6D5 JUMP JUMPDEST PUSH1 0x1 DUP4 PUSH1 0x20 SUB PUSH2 0x100 EXP SUB DUP1 NOT DUP3 MLOAD AND DUP2 DUP5 MLOAD AND DUP1 DUP3 OR DUP6 MSTORE POP POP POP POP POP POP SWAP1 POP ADD SWAP2 POP POP PUSH1 0x0 PUSH1 0x40 MLOAD DUP1 DUP4 SUB DUP2 DUP6 DUP8 GAS CALL SWAP3 POP POP POP RETURNDATASIZE DUP1 PUSH1 0x0 DUP2 EQ PUSH2 0x75A JUMPI PUSH1 0x40 MLOAD SWAP2 POP PUSH1 0x1F NOT PUSH1 0x3F RETURNDATASIZE ADD AND DUP3 ADD PUSH1 0x40 MSTORE RETURNDATASIZE DUP3 MSTORE RETURNDATASIZE PUSH1 0x0 PUSH1 0x20 DUP5 ADD RETURNDATACOPY PUSH2 0x75F JUMP JUMPDEST PUSH1 0x60 SWAP2 POP JUMPDEST POP SWAP2 POP SWAP2 POP DUP2 DUP2 SWAP1 PUSH2 0x80C JUMPI PUSH1 0x40 MLOAD PUSH32 0x8C379A000000000000000000000000000000000000000000000000000000000 DUP2 MSTORE PUSH1 0x4 ADD DUP1 DUP1 PUSH1 0x20 ADD DUP3 DUP2 SUB DUP3 MSTORE DUP4 DUP2 DUP2 MLOAD DUP2 MSTORE PUSH1 0x20 ADD SWAP2 POP DUP1 MLOAD SWAP1 PUSH1 0x20 ADD SWAP1 DUP1 DUP4 DUP4 PUSH1 0x0 JUMPDEST DUP4 DUP2 LT ISZERO PUSH2 0x7D1 JUMPI DUP1 DUP3 ADD MLOAD DUP2 DUP5 ADD MSTORE PUSH1 0x20 DUP2 ADD SWAP1 POP PUSH2 0x7B6 JUMP JUMPDEST POP POP POP POP SWAP1 POP SWAP1 DUP2 ADD SWAP1 PUSH1 0x1F AND DUP1 ISZERO PUSH2 0x7FE JUMPI DUP1 DUP3 SUB DUP1 MLOAD PUSH1 0x1 DUP4 PUSH1 0x20 SUB PUSH2 0x100 EXP SUB NOT AND DUP2 MSTORE PUSH1 0x20 ADD SWAP2 POP JUMPDEST POP SWAP3 POP POP POP PUSH1 0x40 MLOAD DUP1 SWAP2 SUB SWAP1 REVERT JUMPDEST POP POP POP POP POP JUMP JUMPDEST CALLER PUSH20 0xFFFFFFFFFFFFFFFFFFFFFFFFFFFFFFFFFFFFFFFF AND PUSH2 0x832 PUSH2 0xA08 JUMP JUMPDEST PUSH20 0xFFFFFFFFFFFFFFFFFFFFFFFFFFFFFFFFFFFFFFFF AND EQ PUSH2 0x8BB JUMPI PUSH1 0x40 MLOAD PUSH32 0x8C379A000000000000000000000000000000000000000000000000000000000 DUP2 MSTORE PUSH1 0x4 ADD DUP1 DUP1 PUSH1 0x20 ADD DUP3 DUP2 SUB DUP3 MSTORE PUSH1 0x9 DUP2 MSTORE PUSH1 0x20 ADD DUP1 PUSH32 0x4E4F545F4F574E45520000000000000000000000000000000000000000000000 DUP2 MSTORE POP PUSH1 0x20 ADD SWAP2 POP POP PUSH1 0x40 MLOAD DUP1 SWAP2 SUB SWAP1 REVERT JUMPDEST PUSH1 0x0 PUSH20 0xFFFFFFFFFFFFFFFFFFFFFFFFFFFFFFFFFFFFFFFF AND DUP2 PUSH20 0xFFFFFFFFFFFFFFFFFFFFFFFFFFFFFFFFFFFFFFFF AND EQ ISZERO PUSH2 0x95E JUMPI PUSH1 0x40 MLOAD PUSH32 0x8C379A000000000000000000000000000000000000000000000000000000000 DUP2 MSTORE PUSH1 0x4 ADD DUP1 DUP1 PUSH1 0x20 ADD DUP3 DUP2 SUB DUP3 MSTORE PUSH1 0xC DUP2 MSTORE PUSH1 0x20 ADD DUP1 PUSH32 0x5A45524F5F414444524553530000000000000000000000000000000000000000 DUP2 MSTORE POP PUSH1 0x20 ADD SWAP2 POP POP PUSH1 0x40 MLOAD DUP1 SWAP2 SUB SWAP1 REVERT JUMPDEST PUSH32 0xDBE5FD65BCDBAE152F24AB660EA68E72B4D4705B57B16E0CAAE994E214680EE2 DUP2 PUSH2 0x988 PUSH2 0xA08 JUMP JUMPDEST PUSH1 0x40 MLOAD DUP1 DUP4 PUSH20 0xFFFFFFFFFFFFFFFFFFFFFFFFFFFFFFFFFFFFFFFF AND PUSH20 0xFFFFFFFFFFFFFFFFFFFFFFFFFFFFFFFFFFFFFFFF AND DUP2 MSTORE PUSH1 0x20 ADD DUP3 PUSH20 0xFFFFFFFFFFFFFFFFFFFFFFFFFFFFFFFFFFFFFFFF AND PUSH20 0xFFFFFFFFFFFFFFFFFFFFFFFFFFFFFFFFFFFFFFFF AND DUP2 MSTORE PUSH1 0x20 ADD SWAP3 POP POP POP PUSH1 0x40 MLOAD DUP1 SWAP2 SUB SWAP1 LOG1 PUSH2 0xA05 DUP2 PUSH2 0xAC7 JUMP JUMPDEST POP JUMP JUMPDEST PUSH1 0x0 DUP1 PUSH1 0x0 PUSH1 0x40 MLOAD DUP1 DUP1 PUSH32 0x6D617469632E6E6574776F726B2E70726F78792E6F776E657200000000000000 DUP2 MSTORE POP PUSH1 0x19 ADD SWAP1 POP PUSH1 0x40 MLOAD DUP1 SWAP2 SUB SWAP1 KECCAK256 SWAP1 POP DUP1 SLOAD SWAP2 POP DUP2 SWAP3 POP POP POP SWAP1 JUMP JUMPDEST PUSH1 0x0 DUP1 PUSH20 0xFFFFFFFFFFFFFFFFFFFFFFFFFFFFFFFFFFFFFFFF AND DUP3 PUSH20 0xFFFFFFFFFFFFFFFFFFFFFFFFFFFFFFFFFFFFFFFF AND EQ ISZERO PUSH2 0xA90 JUMPI PUSH1 0x0 SWAP1 POP PUSH2 0xA9E JUMP JUMPDEST PUSH1 0x0 DUP3 EXTCODESIZE SWAP1 POP PUSH1 0x0 DUP2 GT SWAP2 POP POP JUMPDEST SWAP2 SWAP1 POP JUMP JUMPDEST PUSH1 0x0 PUSH1 0x40 MLOAD DUP1 DUP1 PUSH2 0xB2E PUSH1 0x22 SWAP2 CODECOPY PUSH1 0x22 ADD SWAP1 POP PUSH1 0x40 MLOAD DUP1 SWAP2 SUB SWAP1 KECCAK256 SWAP1 POP DUP2 DUP2 SSTORE POP POP JUMP JUMPDEST PUSH1 0x0 PUSH1 0x40 MLOAD DUP1 DUP1 PUSH32 0x6D617469632E6E6574776F726B2E70726F78792E6F776E657200000000000000 DUP2 MSTORE POP PUSH1 0x19 ADD SWAP1 POP PUSH1 0x40 MLOAD DUP1 SWAP2 SUB SWAP1 KECCAK256 SWAP1 POP DUP2 DUP2 SSTORE POP POP JUMP INVALID DIFFICULTY GASLIMIT MSTORE8 SLOAD 0x49 0x4E COINBASE SLOAD 0x49 0x4F 0x4E 0x5F COINBASE DIFFICULTY DIFFICULTY MSTORE GASLIMIT MSTORE8 MSTORE8 0x5F 0x49 MSTORE8 0x5F 0x4E 0x4F SLOAD 0x5F COINBASE 0x5F NUMBER 0x4F 0x4E SLOAD MSTORE COINBASE NUMBER SLOAD PUSH14 0x617469632E6E6574776F726B2E70 PUSH19 0x6F78792E696D706C656D656E746174696F6EA2 PUSH5 0x6970667358 0x22 SLT KECCAK256 SELFDESTRUCT 0xAB JUMP 0x22 0xCF 0xD6 SWAP9 MULMOD 0xD9 0xB7 0xA5 PUSH9 0x3425B6CDF58E70B7C6 DUP2 LOG3 0x2D DUP10 0xDE DUP15 JUMP CALLER DUP10 EQ GASLIMIT PUSH5 0x736F6C6343 STOP MOD MOD STOP CALLER PUSH14 0x617469632E6E6574776F726B2E70 PUSH19 0x6F78792E696D706C656D656E746174696F6E00 "
				},
				"gasEstimates": {
					"creation": {
						"codeDepositCost": "589800",
						"executionCost": "infinite",
						"totalCost": "infinite"
					},
					"external": {
						"": "infinite",
						"implementation()": "infinite",
						"proxyOwner()": "1149",
						"proxyType()": "235",
						"transferProxyOwnership(address)": "infinite",
						"updateAndCall(address,bytes)": "infinite",
						"updateImplementation(address)": "infinite"
					}
				},
				"methodIdentifiers": {
					"implementation()": "5c60da1b",
					"proxyOwner()": "025313a2",
					"proxyType()": "4555d5c9",
					"transferProxyOwnership(address)": "f1739cae",
					"updateAndCall(address,bytes)": "d88ca2c8",
					"updateImplementation(address)": "025b22bc"
				}
			},
			"storageLayout": {
				"storage": [],
				"types": null
			},
			"userdoc": {
				"methods": {}
			}
		}
	}
}