{
	"contracts/polygonUsdt/UChildERC20.sol": {
		"AccessControlMixin": {
			"abi": [
				{
					"anonymous": false,
					"inputs": [
						{
							"indexed": true,
							"internalType": "bytes32",
							"name": "role",
							"type": "bytes32"
						},
						{
							"indexed": true,
							"internalType": "bytes32",
							"name": "previousAdminRole",
							"type": "bytes32"
						},
						{
							"indexed": true,
							"internalType": "bytes32",
							"name": "newAdminRole",
							"type": "bytes32"
						}
					],
					"name": "RoleAdminChanged",
					"type": "event"
				},
				{
					"anonymous": false,
					"inputs": [
						{
							"indexed": true,
							"internalType": "bytes32",
							"name": "role",
							"type": "bytes32"
						},
						{
							"indexed": true,
							"internalType": "address",
							"name": "account",
							"type": "address"
						},
						{
							"indexed": true,
							"internalType": "address",
							"name": "sender",
							"type": "address"
						}
					],
					"name": "RoleGranted",
					"type": "event"
				},
				{
					"anonymous": false,
					"inputs": [
						{
							"indexed": true,
							"internalType": "bytes32",
							"name": "role",
							"type": "bytes32"
						},
						{
							"indexed": true,
							"internalType": "address",
							"name": "account",
							"type": "address"
						},
						{
							"indexed": true,
							"internalType": "address",
							"name": "sender",
							"type": "address"
						}
					],
					"name": "RoleRevoked",
					"type": "event"
				},
				{
					"inputs": [],
					"name": "DEFAULT_ADMIN_ROLE",
					"outputs": [
						{
							"internalType": "bytes32",
							"name": "",
							"type": "bytes32"
						}
					],
					"stateMutability": "view",
					"type": "function"
				},
				{
					"inputs": [
						{
							"internalType": "bytes32",
							"name": "role",
							"type": "bytes32"
						}
					],
					"name": "getRoleAdmin",
					"outputs": [
						{
							"internalType": "bytes32",
							"name": "",
							"type": "bytes32"
						}
					],
					"stateMutability": "view",
					"type": "function"
				},
				{
					"inputs": [
						{
							"internalType": "bytes32",
							"name": "role",
							"type": "bytes32"
						},
						{
							"internalType": "uint256",
							"name": "index",
							"type": "uint256"
						}
					],
					"name": "getRoleMember",
					"outputs": [
						{
							"internalType": "address",
							"name": "",
							"type": "address"
						}
					],
					"stateMutability": "view",
					"type": "function"
				},
				{
					"inputs": [
						{
							"internalType": "bytes32",
							"name": "role",
							"type": "bytes32"
						}
					],
					"name": "getRoleMemberCount",
					"outputs": [
						{
							"internalType": "uint256",
							"name": "",
							"type": "uint256"
						}
					],
					"stateMutability": "view",
					"type": "function"
				},
				{
					"inputs": [
						{
							"internalType": "bytes32",
							"name": "role",
							"type": "bytes32"
						},
						{
							"internalType": "address",
							"name": "account",
							"type": "address"
						}
					],
					"name": "grantRole",
					"outputs": [],
					"stateMutability": "nonpayable",
					"type": "function"
				},
				{
					"inputs": [
						{
							"internalType": "bytes32",
							"name": "role",
							"type": "bytes32"
						},
						{
							"internalType": "address",
							"name": "account",
							"type": "address"
						}
					],
					"name": "hasRole",
					"outputs": [
						{
							"internalType": "bool",
							"name": "",
							"type": "bool"
						}
					],
					"stateMutability": "view",
					"type": "function"
				},
				{
					"inputs": [
						{
							"internalType": "bytes32",
							"name": "role",
							"type": "bytes32"
						},
						{
							"internalType": "address",
							"name": "account",
							"type": "address"
						}
					],
					"name": "renounceRole",
					"outputs": [],
					"stateMutability": "nonpayable",
					"type": "function"
				},
				{
					"inputs": [
						{
							"internalType": "bytes32",
							"name": "role",
							"type": "bytes32"
						},
						{
							"internalType": "address",
							"name": "account",
							"type": "address"
						}
					],
					"name": "revokeRole",
					"outputs": [],
					"stateMutability": "nonpayable",
					"type": "function"
				}
			],
			"devdoc": {
				"methods": {
					"getRoleAdmin(bytes32)": {
						"details": "Returns the admin role that controls `role`. See {grantRole} and {revokeRole}.     * To change a role's admin, use {_setRoleAdmin}."
					},
					"getRoleMember(bytes32,uint256)": {
						"details": "Returns one of the accounts that have `role`. `index` must be a value between 0 and {getRoleMemberCount}, non-inclusive.     * Role bearers are not sorted in any particular way, and their ordering may change at any point.     * WARNING: When using {getRoleMember} and {getRoleMemberCount}, make sure you perform all queries on the same block. See the following https://forum.openzeppelin.com/t/iterating-over-elements-on-enumerableset-in-openzeppelin-contracts/2296[forum post] for more information."
					},
					"getRoleMemberCount(bytes32)": {
						"details": "Returns the number of accounts that have `role`. Can be used together with {getRoleMember} to enumerate all bearers of a role."
					},
					"grantRole(bytes32,address)": {
						"details": "Grants `role` to `account`.     * If `account` had not been already granted `role`, emits a {RoleGranted} event.     * Requirements:     * - the caller must have ``role``'s admin role."
					},
					"hasRole(bytes32,address)": {
						"details": "Returns `true` if `account` has been granted `role`."
					},
					"renounceRole(bytes32,address)": {
						"details": "Revokes `role` from the calling account.     * Roles are often managed via {grantRole} and {revokeRole}: this function's purpose is to provide a mechanism for accounts to lose their privileges if they are compromised (such as when a trusted device is misplaced).     * If the calling account had been granted `role`, emits a {RoleRevoked} event.     * Requirements:     * - the caller must be `account`."
					},
					"revokeRole(bytes32,address)": {
						"details": "Revokes `role` from `account`.     * If `account` had been granted `role`, emits a {RoleRevoked} event.     * Requirements:     * - the caller must have ``role``'s admin role."
					}
				}
			},
			"evm": {
				"assembly": "    /* \"contracts/polygonUsdt/UChildERC20.sol\":41784:42169  contract AccessControlMixin is AccessControl {... */\n  mstore(0x40, 0x80)\n  callvalue\n    /* \"--CODEGEN--\":5:14   */\n  dup1\n    /* \"--CODEGEN--\":2:4   */\n  iszero\n  tag_1\n  jumpi\n    /* \"--CODEGEN--\":27:28   */\n  0x00\n    /* \"--CODEGEN--\":24:25   */\n  dup1\n    /* \"--CODEGEN--\":17:29   */\n  revert\n    /* \"--CODEGEN--\":2:4   */\ntag_1:\n    /* \"contracts/polygonUsdt/UChildERC20.sol\":41784:42169  contract AccessControlMixin is AccessControl {... */\n  pop\n  dataSize(sub_0)\n  dup1\n  dataOffset(sub_0)\n  0x00\n  codecopy\n  0x00\n  return\nstop\n\nsub_0: assembly {\n        /* \"contracts/polygonUsdt/UChildERC20.sol\":41784:42169  contract AccessControlMixin is AccessControl {... */\n      mstore(0x40, 0x80)\n      callvalue\n        /* \"--CODEGEN--\":5:14   */\n      dup1\n        /* \"--CODEGEN--\":2:4   */\n      iszero\n      tag_1\n      jumpi\n        /* \"--CODEGEN--\":27:28   */\n      0x00\n        /* \"--CODEGEN--\":24:25   */\n      dup1\n        /* \"--CODEGEN--\":17:29   */\n      revert\n        /* \"--CODEGEN--\":2:4   */\n    tag_1:\n        /* \"contracts/polygonUsdt/UChildERC20.sol\":41784:42169  contract AccessControlMixin is AccessControl {... */\n      pop\n      jumpi(tag_2, lt(calldatasize, 0x04))\n      shr(0xe0, calldataload(0x00))\n      dup1\n      0x91d14854\n      gt\n      tag_11\n      jumpi\n      dup1\n      0x91d14854\n      eq\n      tag_7\n      jumpi\n      dup1\n      0xa217fddf\n      eq\n      tag_8\n      jumpi\n      dup1\n      0xca15c873\n      eq\n      tag_9\n      jumpi\n      dup1\n      0xd547741f\n      eq\n      tag_10\n      jumpi\n      jump(tag_2)\n    tag_11:\n      dup1\n      0x248a9ca3\n      eq\n      tag_3\n      jumpi\n      dup1\n      0x2f2ff15d\n      eq\n      tag_4\n      jumpi\n      dup1\n      0x36568abe\n      eq\n      tag_5\n      jumpi\n      dup1\n      0x9010d07c\n      eq\n      tag_6\n      jumpi\n    tag_2:\n        /* \"--CODEGEN--\":12:13   */\n      0x00\n        /* \"--CODEGEN--\":9:10   */\n      dup1\n        /* \"--CODEGEN--\":2:14   */\n      revert\n        /* \"contracts/polygonUsdt/UChildERC20.sol\":38584:38696  function getRoleAdmin(bytes32 role) public view returns (bytes32) {... */\n    tag_3:\n      tag_12\n      0x04\n      dup1\n      calldatasize\n      sub\n        /* \"--CODEGEN--\":15:17   */\n      0x20\n        /* \"--CODEGEN--\":10:13   */\n      dup2\n        /* \"--CODEGEN--\":7:18   */\n      lt\n        /* \"--CODEGEN--\":4:6   */\n      iszero\n      tag_13\n      jumpi\n        /* \"--CODEGEN--\":31:32   */\n      0x00\n        /* \"--CODEGEN--\":28:29   */\n      dup1\n        /* \"--CODEGEN--\":21:33   */\n      revert\n        /* \"--CODEGEN--\":4:6   */\n    tag_13:\n        /* \"contracts/polygonUsdt/UChildERC20.sol\":38584:38696  function getRoleAdmin(bytes32 role) public view returns (bytes32) {... */\n      dup2\n      add\n      swap1\n      dup1\n      dup1\n      calldataload\n      swap1\n      0x20\n      add\n      swap1\n      swap3\n      swap2\n      swap1\n      pop\n      pop\n      pop\n      tag_14\n      jump\t// in\n    tag_12:\n      mload(0x40)\n      dup1\n      dup3\n      dup2\n      mstore\n      0x20\n      add\n      swap2\n      pop\n      pop\n      mload(0x40)\n      dup1\n      swap2\n      sub\n      swap1\n      return\n        /* \"contracts/polygonUsdt/UChildERC20.sol\":38946:39169  function grantRole(bytes32 role, address account) public virtual {... */\n    tag_4:\n      tag_15\n      0x04\n      dup1\n      calldatasize\n      sub\n        /* \"--CODEGEN--\":15:17   */\n      0x40\n        /* \"--CODEGEN--\":10:13   */\n      dup2\n        /* \"--CODEGEN--\":7:18   */\n      lt\n        /* \"--CODEGEN--\":4:6   */\n      iszero\n      tag_16\n      jumpi\n        /* \"--CODEGEN--\":31:32   */\n      0x00\n        /* \"--CODEGEN--\":28:29   */\n      dup1\n        /* \"--CODEGEN--\":21:33   */\n      revert\n        /* \"--CODEGEN--\":4:6   */\n    tag_16:\n        /* \"contracts/polygonUsdt/UChildERC20.sol\":38946:39169  function grantRole(bytes32 role, address account) public virtual {... */\n      dup2\n      add\n      swap1\n      dup1\n      dup1\n      calldataload\n      swap1\n      0x20\n      add\n      swap1\n      swap3\n      swap2\n      swap1\n      dup1\n      calldataload\n      0xffffffffffffffffffffffffffffffffffffffff\n      and\n      swap1\n      0x20\n      add\n      swap1\n      swap3\n      swap2\n      swap1\n      pop\n      pop\n      pop\n      tag_17\n      jump\t// in\n    tag_15:\n      stop\n        /* \"contracts/polygonUsdt/UChildERC20.sol\":40120:40325  function renounceRole(bytes32 role, address account) public virtual {... */\n    tag_5:\n      tag_18\n      0x04\n      dup1\n      calldatasize\n      sub\n        /* \"--CODEGEN--\":15:17   */\n      0x40\n        /* \"--CODEGEN--\":10:13   */\n      dup2\n        /* \"--CODEGEN--\":7:18   */\n      lt\n        /* \"--CODEGEN--\":4:6   */\n      iszero\n      tag_19\n      jumpi\n        /* \"--CODEGEN--\":31:32   */\n      0x00\n        /* \"--CODEGEN--\":28:29   */\n      dup1\n        /* \"--CODEGEN--\":21:33   */\n      revert\n        /* \"--CODEGEN--\":4:6   */\n    tag_19:\n        /* \"contracts/polygonUsdt/UChildERC20.sol\":40120:40325  function renounceRole(bytes32 role, address account) public virtual {... */\n      dup2\n      add\n      swap1\n      dup1\n      dup1\n      calldataload\n      swap1\n      0x20\n      add\n      swap1\n      swap3\n      swap2\n      swap1\n      dup1\n      calldataload\n      0xffffffffffffffffffffffffffffffffffffffff\n      and\n      swap1\n      0x20\n      add\n      swap1\n      swap3\n      swap2\n      swap1\n      pop\n      pop\n      pop\n      tag_20\n      jump\t// in\n    tag_18:\n      stop\n        /* \"contracts/polygonUsdt/UChildERC20.sol\":38267:38403  function getRoleMember(bytes32 role, uint256 index) public view returns (address) {... */\n    tag_6:\n      tag_21\n      0x04\n      dup1\n      calldatasize\n      sub\n        /* \"--CODEGEN--\":15:17   */\n      0x40\n        /* \"--CODEGEN--\":10:13   */\n      dup2\n        /* \"--CODEGEN--\":7:18   */\n      lt\n        /* \"--CODEGEN--\":4:6   */\n      iszero\n      tag_22\n      jumpi\n        /* \"--CODEGEN--\":31:32   */\n      0x00\n        /* \"--CODEGEN--\":28:29   */\n      dup1\n        /* \"--CODEGEN--\":21:33   */\n      revert\n        /* \"--CODEGEN--\":4:6   */\n    tag_22:\n        /* \"contracts/polygonUsdt/UChildERC20.sol\":38267:38403  function getRoleMember(bytes32 role, uint256 index) public view returns (address) {... */\n      dup2\n      add\n      swap1\n      dup1\n      dup1\n      calldataload\n      swap1\n      0x20\n      add\n      swap1\n      swap3\n      swap2\n      swap1\n      dup1\n      calldataload\n      swap1\n      0x20\n      add\n      swap1\n      swap3\n      swap2\n      swap1\n      pop\n      pop\n      pop\n      tag_23\n      jump\t// in\n    tag_21:\n      mload(0x40)\n      dup1\n      dup3\n      0xffffffffffffffffffffffffffffffffffffffff\n      and\n      0xffffffffffffffffffffffffffffffffffffffff\n      and\n      dup2\n      mstore\n      0x20\n      add\n      swap2\n      pop\n      pop\n      mload(0x40)\n      dup1\n      swap2\n      sub\n      swap1\n      return\n        /* \"contracts/polygonUsdt/UChildERC20.sol\":37252:37389  function hasRole(bytes32 role, address account) public view returns (bool) {... */\n    tag_7:\n      tag_24\n      0x04\n      dup1\n      calldatasize\n      sub\n        /* \"--CODEGEN--\":15:17   */\n      0x40\n        /* \"--CODEGEN--\":10:13   */\n      dup2\n        /* \"--CODEGEN--\":7:18   */\n      lt\n        /* \"--CODEGEN--\":4:6   */\n      iszero\n      tag_25\n      jumpi\n        /* \"--CODEGEN--\":31:32   */\n      0x00\n        /* \"--CODEGEN--\":28:29   */\n      dup1\n        /* \"--CODEGEN--\":21:33   */\n      revert\n        /* \"--CODEGEN--\":4:6   */\n    tag_25:\n        /* \"contracts/polygonUsdt/UChildERC20.sol\":37252:37389  function hasRole(bytes32 role, address account) public view returns (bool) {... */\n      dup2\n      add\n      swap1\n      dup1\n      dup1\n      calldataload\n      swap1\n      0x20\n      add\n      swap1\n      swap3\n      swap2\n      swap1\n      dup1\n      calldataload\n      0xffffffffffffffffffffffffffffffffffffffff\n      and\n      swap1\n      0x20\n      add\n      swap1\n      swap3\n      swap2\n      swap1\n      pop\n      pop\n      pop\n      tag_26\n      jump\t// in\n    tag_24:\n      mload(0x40)\n      dup1\n      dup3\n      iszero\n      iszero\n      iszero\n      iszero\n      dup2\n      mstore\n      0x20\n      add\n      swap2\n      pop\n      pop\n      mload(0x40)\n      dup1\n      swap2\n      sub\n      swap1\n      return\n        /* \"contracts/polygonUsdt/UChildERC20.sol\":36029:36078  bytes32 public constant DEFAULT_ADMIN_ROLE = 0x00 */\n    tag_8:\n      tag_27\n      tag_28\n      jump\t// in\n    tag_27:\n      mload(0x40)\n      dup1\n      dup3\n      dup2\n      mstore\n      0x20\n      add\n      swap2\n      pop\n      pop\n      mload(0x40)\n      dup1\n      swap2\n      sub\n      swap1\n      return\n        /* \"contracts/polygonUsdt/UChildERC20.sol\":37557:37682  function getRoleMemberCount(bytes32 role) public view returns (uint256) {... */\n    tag_9:\n      tag_29\n      0x04\n      dup1\n      calldatasize\n      sub\n        /* \"--CODEGEN--\":15:17   */\n      0x20\n        /* \"--CODEGEN--\":10:13   */\n      dup2\n        /* \"--CODEGEN--\":7:18   */\n      lt\n        /* \"--CODEGEN--\":4:6   */\n      iszero\n      tag_30\n      jumpi\n        /* \"--CODEGEN--\":31:32   */\n      0x00\n        /* \"--CODEGEN--\":28:29   */\n      dup1\n        /* \"--CODEGEN--\":21:33   */\n      revert\n        /* \"--CODEGEN--\":4:6   */\n    tag_30:\n        /* \"contracts/polygonUsdt/UChildERC20.sol\":37557:37682  function getRoleMemberCount(bytes32 role) public view returns (uint256) {... */\n      dup2\n      add\n      swap1\n      dup1\n      dup1\n      calldataload\n      swap1\n      0x20\n      add\n      swap1\n      swap3\n      swap2\n      swap1\n      pop\n      pop\n      pop\n      tag_31\n      jump\t// in\n    tag_29:\n      mload(0x40)\n      dup1\n      dup3\n      dup2\n      mstore\n      0x20\n      add\n      swap2\n      pop\n      pop\n      mload(0x40)\n      dup1\n      swap2\n      sub\n      swap1\n      return\n        /* \"contracts/polygonUsdt/UChildERC20.sol\":39403:39629  function revokeRole(bytes32 role, address account) public virtual {... */\n    tag_10:\n      tag_32\n      0x04\n      dup1\n      calldatasize\n      sub\n        /* \"--CODEGEN--\":15:17   */\n      0x40\n        /* \"--CODEGEN--\":10:13   */\n      dup2\n        /* \"--CODEGEN--\":7:18   */\n      lt\n        /* \"--CODEGEN--\":4:6   */\n      iszero\n      tag_33\n      jumpi\n        /* \"--CODEGEN--\":31:32   */\n      0x00\n        /* \"--CODEGEN--\":28:29   */\n      dup1\n        /* \"--CODEGEN--\":21:33   */\n      revert\n        /* \"--CODEGEN--\":4:6   */\n    tag_33:\n        /* \"contracts/polygonUsdt/UChildERC20.sol\":39403:39629  function revokeRole(bytes32 role, address account) public virtual {... */\n      dup2\n      add\n      swap1\n      dup1\n      dup1\n      calldataload\n      swap1\n      0x20\n      add\n      swap1\n      swap3\n      swap2\n      swap1\n      dup1\n      calldataload\n      0xffffffffffffffffffffffffffffffffffffffff\n      and\n      swap1\n      0x20\n      add\n      swap1\n      swap3\n      swap2\n      swap1\n      pop\n      pop\n      pop\n      tag_34\n      jump\t// in\n    tag_32:\n      stop\n        /* \"contracts/polygonUsdt/UChildERC20.sol\":38584:38696  function getRoleAdmin(bytes32 role) public view returns (bytes32) {... */\n    tag_14:\n        /* \"contracts/polygonUsdt/UChildERC20.sol\":38641:38648  bytes32 */\n      0x00\n        /* \"contracts/polygonUsdt/UChildERC20.sol\":38667:38673  _roles */\n      dup1\n        /* \"contracts/polygonUsdt/UChildERC20.sol\":38667:38679  _roles[role] */\n      0x00\n        /* \"contracts/polygonUsdt/UChildERC20.sol\":38674:38678  role */\n      dup4\n        /* \"contracts/polygonUsdt/UChildERC20.sol\":38667:38679  _roles[role] */\n      dup2\n      mstore\n      0x20\n      add\n      swap1\n      dup2\n      mstore\n      0x20\n      add\n      0x00\n      keccak256\n        /* \"contracts/polygonUsdt/UChildERC20.sol\":38667:38689  _roles[role].adminRole */\n      0x02\n      add\n      sload\n        /* \"contracts/polygonUsdt/UChildERC20.sol\":38660:38689  return _roles[role].adminRole */\n      swap1\n      pop\n        /* \"contracts/polygonUsdt/UChildERC20.sol\":38584:38696  function getRoleAdmin(bytes32 role) public view returns (bytes32) {... */\n      swap2\n      swap1\n      pop\n      jump\t// out\n        /* \"contracts/polygonUsdt/UChildERC20.sol\":38946:39169  function grantRole(bytes32 role, address account) public virtual {... */\n    tag_17:\n        /* \"contracts/polygonUsdt/UChildERC20.sol\":39029:39074  hasRole(_roles[role].adminRole, _msgSender()) */\n      tag_37\n        /* \"contracts/polygonUsdt/UChildERC20.sol\":39037:39043  _roles */\n      0x00\n        /* \"contracts/polygonUsdt/UChildERC20.sol\":39037:39049  _roles[role] */\n      dup1\n        /* \"contracts/polygonUsdt/UChildERC20.sol\":39044:39048  role */\n      dup5\n        /* \"contracts/polygonUsdt/UChildERC20.sol\":39037:39049  _roles[role] */\n      dup2\n      mstore\n      0x20\n      add\n      swap1\n      dup2\n      mstore\n      0x20\n      add\n      0x00\n      keccak256\n        /* \"contracts/polygonUsdt/UChildERC20.sol\":39037:39059  _roles[role].adminRole */\n      0x02\n      add\n      sload\n        /* \"contracts/polygonUsdt/UChildERC20.sol\":39061:39073  _msgSender() */\n      tag_38\n        /* \"contracts/polygonUsdt/UChildERC20.sol\":39061:39071  _msgSender */\n      tag_39\n        /* \"contracts/polygonUsdt/UChildERC20.sol\":39061:39073  _msgSender() */\n      jump\t// in\n    tag_38:\n        /* \"contracts/polygonUsdt/UChildERC20.sol\":39029:39036  hasRole */\n      tag_26\n        /* \"contracts/polygonUsdt/UChildERC20.sol\":39029:39074  hasRole(_roles[role].adminRole, _msgSender()) */\n      jump\t// in\n    tag_37:\n        /* \"contracts/polygonUsdt/UChildERC20.sol\":39021:39126  require(hasRole(_roles[role].adminRole, _msgSender()), \"AccessControl: sender must be an admin to grant\") */\n      tag_40\n      jumpi\n      mload(0x40)\n      0x08c379a000000000000000000000000000000000000000000000000000000000\n      dup2\n      mstore\n      0x04\n      add\n      dup1\n      dup1\n      0x20\n      add\n      dup3\n      dup2\n      sub\n      dup3\n      mstore\n      0x2f\n      dup2\n      mstore\n      0x20\n      add\n      dup1\n      data_0ba7116025f1ef6b158a2bd2238e617f30e17c9e456917d901086ca4f8ad2811\n      0x2f\n      swap2\n      codecopy\n      0x40\n      add\n      swap2\n      pop\n      pop\n      mload(0x40)\n      dup1\n      swap2\n      sub\n      swap1\n      revert\n    tag_40:\n        /* \"contracts/polygonUsdt/UChildERC20.sol\":39137:39162  _grantRole(role, account) */\n      tag_41\n        /* \"contracts/polygonUsdt/UChildERC20.sol\":39148:39152  role */\n      dup3\n        /* \"contracts/polygonUsdt/UChildERC20.sol\":39154:39161  account */\n      dup3\n        /* \"contracts/polygonUsdt/UChildERC20.sol\":39137:39147  _grantRole */\n      tag_42\n        /* \"contracts/polygonUsdt/UChildERC20.sol\":39137:39162  _grantRole(role, account) */\n      jump\t// in\n    tag_41:\n        /* \"contracts/polygonUsdt/UChildERC20.sol\":38946:39169  function grantRole(bytes32 role, address account) public virtual {... */\n      pop\n      pop\n      jump\t// out\n        /* \"contracts/polygonUsdt/UChildERC20.sol\":40120:40325  function renounceRole(bytes32 role, address account) public virtual {... */\n    tag_20:\n        /* \"contracts/polygonUsdt/UChildERC20.sol\":40217:40229  _msgSender() */\n      tag_44\n        /* \"contracts/polygonUsdt/UChildERC20.sol\":40217:40227  _msgSender */\n      tag_39\n        /* \"contracts/polygonUsdt/UChildERC20.sol\":40217:40229  _msgSender() */\n      jump\t// in\n    tag_44:\n        /* \"contracts/polygonUsdt/UChildERC20.sol\":40206:40229  account == _msgSender() */\n      0xffffffffffffffffffffffffffffffffffffffff\n      and\n        /* \"contracts/polygonUsdt/UChildERC20.sol\":40206:40213  account */\n      dup2\n        /* \"contracts/polygonUsdt/UChildERC20.sol\":40206:40229  account == _msgSender() */\n      0xffffffffffffffffffffffffffffffffffffffff\n      and\n      eq\n        /* \"contracts/polygonUsdt/UChildERC20.sol\":40198:40281  require(account == _msgSender(), \"AccessControl: can only renounce roles for self\") */\n      tag_45\n      jumpi\n      mload(0x40)\n      0x08c379a000000000000000000000000000000000000000000000000000000000\n      dup2\n      mstore\n      0x04\n      add\n      dup1\n      dup1\n      0x20\n      add\n      dup3\n      dup2\n      sub\n      dup3\n      mstore\n      0x2f\n      dup2\n      mstore\n      0x20\n      add\n      dup1\n      data_fb06fa8ff2141e8ed74502f6792273793f25f0e9d3cf15344f3f5a0d4948fd4b\n      0x2f\n      swap2\n      codecopy\n      0x40\n      add\n      swap2\n      pop\n      pop\n      mload(0x40)\n      dup1\n      swap2\n      sub\n      swap1\n      revert\n    tag_45:\n        /* \"contracts/polygonUsdt/UChildERC20.sol\":40292:40318  _revokeRole(role, account) */\n      tag_46\n        /* \"contracts/polygonUsdt/UChildERC20.sol\":40304:40308  role */\n      dup3\n        /* \"contracts/polygonUsdt/UChildERC20.sol\":40310:40317  account */\n      dup3\n        /* \"contracts/polygonUsdt/UChildERC20.sol\":40292:40303  _revokeRole */\n      tag_47\n        /* \"contracts/polygonUsdt/UChildERC20.sol\":40292:40318  _revokeRole(role, account) */\n      jump\t// in\n    tag_46:\n        /* \"contracts/polygonUsdt/UChildERC20.sol\":40120:40325  function renounceRole(bytes32 role, address account) public virtual {... */\n      pop\n      pop\n      jump\t// out\n        /* \"contracts/polygonUsdt/UChildERC20.sol\":38267:38403  function getRoleMember(bytes32 role, uint256 index) public view returns (address) {... */\n    tag_23:\n        /* \"contracts/polygonUsdt/UChildERC20.sol\":38340:38347  address */\n      0x00\n        /* \"contracts/polygonUsdt/UChildERC20.sol\":38366:38396  _roles[role].members.at(index) */\n      tag_49\n        /* \"contracts/polygonUsdt/UChildERC20.sol\":38390:38395  index */\n      dup3\n        /* \"contracts/polygonUsdt/UChildERC20.sol\":38366:38372  _roles */\n      0x00\n        /* \"contracts/polygonUsdt/UChildERC20.sol\":38366:38378  _roles[role] */\n      dup1\n        /* \"contracts/polygonUsdt/UChildERC20.sol\":38373:38377  role */\n      dup7\n        /* \"contracts/polygonUsdt/UChildERC20.sol\":38366:38378  _roles[role] */\n      dup2\n      mstore\n      0x20\n      add\n      swap1\n      dup2\n      mstore\n      0x20\n      add\n      0x00\n      keccak256\n        /* \"contracts/polygonUsdt/UChildERC20.sol\":38366:38386  _roles[role].members */\n      0x00\n      add\n        /* \"contracts/polygonUsdt/UChildERC20.sol\":38366:38389  _roles[role].members.at */\n      tag_50\n      swap1\n        /* \"contracts/polygonUsdt/UChildERC20.sol\":38366:38396  _roles[role].members.at(index) */\n      swap2\n      swap1\n      0xffffffff\n      and\n      jump\t// in\n    tag_49:\n        /* \"contracts/polygonUsdt/UChildERC20.sol\":38359:38396  return _roles[role].members.at(index) */\n      swap1\n      pop\n        /* \"contracts/polygonUsdt/UChildERC20.sol\":38267:38403  function getRoleMember(bytes32 role, uint256 index) public view returns (address) {... */\n      swap3\n      swap2\n      pop\n      pop\n      jump\t// out\n        /* \"contracts/polygonUsdt/UChildERC20.sol\":37252:37389  function hasRole(bytes32 role, address account) public view returns (bool) {... */\n    tag_26:\n        /* \"contracts/polygonUsdt/UChildERC20.sol\":37321:37325  bool */\n      0x00\n        /* \"contracts/polygonUsdt/UChildERC20.sol\":37344:37382  _roles[role].members.contains(account) */\n      tag_52\n        /* \"contracts/polygonUsdt/UChildERC20.sol\":37374:37381  account */\n      dup3\n        /* \"contracts/polygonUsdt/UChildERC20.sol\":37344:37350  _roles */\n      0x00\n        /* \"contracts/polygonUsdt/UChildERC20.sol\":37344:37356  _roles[role] */\n      dup1\n        /* \"contracts/polygonUsdt/UChildERC20.sol\":37351:37355  role */\n      dup7\n        /* \"contracts/polygonUsdt/UChildERC20.sol\":37344:37356  _roles[role] */\n      dup2\n      mstore\n      0x20\n      add\n      swap1\n      dup2\n      mstore\n      0x20\n      add\n      0x00\n      keccak256\n        /* \"contracts/polygonUsdt/UChildERC20.sol\":37344:37364  _roles[role].members */\n      0x00\n      add\n        /* \"contracts/polygonUsdt/UChildERC20.sol\":37344:37373  _roles[role].members.contains */\n      tag_53\n      swap1\n        /* \"contracts/polygonUsdt/UChildERC20.sol\":37344:37382  _roles[role].members.contains(account) */\n      swap2\n      swap1\n      0xffffffff\n      and\n      jump\t// in\n    tag_52:\n        /* \"contracts/polygonUsdt/UChildERC20.sol\":37337:37382  return _roles[role].members.contains(account) */\n      swap1\n      pop\n        /* \"contracts/polygonUsdt/UChildERC20.sol\":37252:37389  function hasRole(bytes32 role, address account) public view returns (bool) {... */\n      swap3\n      swap2\n      pop\n      pop\n      jump\t// out\n        /* \"contracts/polygonUsdt/UChildERC20.sol\":36029:36078  bytes32 public constant DEFAULT_ADMIN_ROLE = 0x00 */\n    tag_28:\n        /* \"contracts/polygonUsdt/UChildERC20.sol\":36074:36078  0x00 */\n      0x00\n        /* \"contracts/polygonUsdt/UChildERC20.sol\":36029:36078  bytes32 public constant DEFAULT_ADMIN_ROLE = 0x00 */\n      dup1\n      shl\n      dup2\n      jump\t// out\n        /* \"contracts/polygonUsdt/UChildERC20.sol\":37557:37682  function getRoleMemberCount(bytes32 role) public view returns (uint256) {... */\n    tag_31:\n        /* \"contracts/polygonUsdt/UChildERC20.sol\":37620:37627  uint256 */\n      0x00\n        /* \"contracts/polygonUsdt/UChildERC20.sol\":37646:37675  _roles[role].members.length() */\n      tag_55\n        /* \"contracts/polygonUsdt/UChildERC20.sol\":37646:37652  _roles */\n      0x00\n        /* \"contracts/polygonUsdt/UChildERC20.sol\":37646:37658  _roles[role] */\n      dup1\n        /* \"contracts/polygonUsdt/UChildERC20.sol\":37653:37657  role */\n      dup5\n        /* \"contracts/polygonUsdt/UChildERC20.sol\":37646:37658  _roles[role] */\n      dup2\n      mstore\n      0x20\n      add\n      swap1\n      dup2\n      mstore\n      0x20\n      add\n      0x00\n      keccak256\n        /* \"contracts/polygonUsdt/UChildERC20.sol\":37646:37666  _roles[role].members */\n      0x00\n      add\n        /* \"contracts/polygonUsdt/UChildERC20.sol\":37646:37673  _roles[role].members.length */\n      tag_56\n        /* \"contracts/polygonUsdt/UChildERC20.sol\":37646:37675  _roles[role].members.length() */\n      jump\t// in\n    tag_55:\n        /* \"contracts/polygonUsdt/UChildERC20.sol\":37639:37675  return _roles[role].members.length() */\n      swap1\n      pop\n        /* \"contracts/polygonUsdt/UChildERC20.sol\":37557:37682  function getRoleMemberCount(bytes32 role) public view returns (uint256) {... */\n      swap2\n      swap1\n      pop\n      jump\t// out\n        /* \"contracts/polygonUsdt/UChildERC20.sol\":39403:39629  function revokeRole(bytes32 role, address account) public virtual {... */\n    tag_34:\n        /* \"contracts/polygonUsdt/UChildERC20.sol\":39487:39532  hasRole(_roles[role].adminRole, _msgSender()) */\n      tag_58\n        /* \"contracts/polygonUsdt/UChildERC20.sol\":39495:39501  _roles */\n      0x00\n        /* \"contracts/polygonUsdt/UChildERC20.sol\":39495:39507  _roles[role] */\n      dup1\n        /* \"contracts/polygonUsdt/UChildERC20.sol\":39502:39506  role */\n      dup5\n        /* \"contracts/polygonUsdt/UChildERC20.sol\":39495:39507  _roles[role] */\n      dup2\n      mstore\n      0x20\n      add\n      swap1\n      dup2\n      mstore\n      0x20\n      add\n      0x00\n      keccak256\n        /* \"contracts/polygonUsdt/UChildERC20.sol\":39495:39517  _roles[role].adminRole */\n      0x02\n      add\n      sload\n        /* \"contracts/polygonUsdt/UChildERC20.sol\":39519:39531  _msgSender() */\n      tag_59\n        /* \"contracts/polygonUsdt/UChildERC20.sol\":39519:39529  _msgSender */\n      tag_39\n        /* \"contracts/polygonUsdt/UChildERC20.sol\":39519:39531  _msgSender() */\n      jump\t// in\n    tag_59:\n        /* \"contracts/polygonUsdt/UChildERC20.sol\":39487:39494  hasRole */\n      tag_26\n        /* \"contracts/polygonUsdt/UChildERC20.sol\":39487:39532  hasRole(_roles[role].adminRole, _msgSender()) */\n      jump\t// in\n    tag_58:\n        /* \"contracts/polygonUsdt/UChildERC20.sol\":39479:39585  require(hasRole(_roles[role].adminRole, _msgSender()), \"AccessControl: sender must be an admin to revoke\") */\n      tag_60\n      jumpi\n      mload(0x40)\n      0x08c379a000000000000000000000000000000000000000000000000000000000\n      dup2\n      mstore\n      0x04\n      add\n      dup1\n      dup1\n      0x20\n      add\n      dup3\n      dup2\n      sub\n      dup3\n      mstore\n      0x30\n      dup2\n      mstore\n      0x20\n      add\n      dup1\n      data_64344570eab7406ca49d34d38bf2b2496dfda914405390c5057c8b0aabf798a3\n      0x30\n      swap2\n      codecopy\n      0x40\n      add\n      swap2\n      pop\n      pop\n      mload(0x40)\n      dup1\n      swap2\n      sub\n      swap1\n      revert\n    tag_60:\n        /* \"contracts/polygonUsdt/UChildERC20.sol\":39596:39622  _revokeRole(role, account) */\n      tag_61\n        /* \"contracts/polygonUsdt/UChildERC20.sol\":39608:39612  role */\n      dup3\n        /* \"contracts/polygonUsdt/UChildERC20.sol\":39614:39621  account */\n      dup3\n        /* \"contracts/polygonUsdt/UChildERC20.sol\":39596:39607  _revokeRole */\n      tag_47\n        /* \"contracts/polygonUsdt/UChildERC20.sol\":39596:39622  _revokeRole(role, account) */\n      jump\t// in\n    tag_61:\n        /* \"contracts/polygonUsdt/UChildERC20.sol\":39403:39629  function revokeRole(bytes32 role, address account) public virtual {... */\n      pop\n      pop\n      jump\t// out\n        /* \"contracts/polygonUsdt/UChildERC20.sol\":710:814  function _msgSender() internal view virtual returns (address payable) {... */\n    tag_39:\n        /* \"contracts/polygonUsdt/UChildERC20.sol\":763:778  address payable */\n      0x00\n        /* \"contracts/polygonUsdt/UChildERC20.sol\":797:807  msg.sender */\n      caller\n        /* \"contracts/polygonUsdt/UChildERC20.sol\":790:807  return msg.sender */\n      swap1\n      pop\n        /* \"contracts/polygonUsdt/UChildERC20.sol\":710:814  function _msgSender() internal view virtual returns (address payable) {... */\n      swap1\n      jump\t// out\n        /* \"contracts/polygonUsdt/UChildERC20.sol\":41327:41511  function _grantRole(bytes32 role, address account) private {... */\n    tag_42:\n        /* \"contracts/polygonUsdt/UChildERC20.sol\":41400:41433  _roles[role].members.add(account) */\n      tag_64\n        /* \"contracts/polygonUsdt/UChildERC20.sol\":41425:41432  account */\n      dup2\n        /* \"contracts/polygonUsdt/UChildERC20.sol\":41400:41406  _roles */\n      0x00\n        /* \"contracts/polygonUsdt/UChildERC20.sol\":41400:41412  _roles[role] */\n      dup1\n        /* \"contracts/polygonUsdt/UChildERC20.sol\":41407:41411  role */\n      dup6\n        /* \"contracts/polygonUsdt/UChildERC20.sol\":41400:41412  _roles[role] */\n      dup2\n      mstore\n      0x20\n      add\n      swap1\n      dup2\n      mstore\n      0x20\n      add\n      0x00\n      keccak256\n        /* \"contracts/polygonUsdt/UChildERC20.sol\":41400:41420  _roles[role].members */\n      0x00\n      add\n        /* \"contracts/polygonUsdt/UChildERC20.sol\":41400:41424  _roles[role].members.add */\n      tag_65\n      swap1\n        /* \"contracts/polygonUsdt/UChildERC20.sol\":41400:41433  _roles[role].members.add(account) */\n      swap2\n      swap1\n      0xffffffff\n      and\n      jump\t// in\n    tag_64:\n        /* \"contracts/polygonUsdt/UChildERC20.sol\":41396:41505  if (_roles[role].members.add(account)) {... */\n      iszero\n      tag_66\n      jumpi\n        /* \"contracts/polygonUsdt/UChildERC20.sol\":41481:41493  _msgSender() */\n      tag_67\n        /* \"contracts/polygonUsdt/UChildERC20.sol\":41481:41491  _msgSender */\n      tag_39\n        /* \"contracts/polygonUsdt/UChildERC20.sol\":41481:41493  _msgSender() */\n      jump\t// in\n    tag_67:\n        /* \"contracts/polygonUsdt/UChildERC20.sol\":41454:41494  RoleGranted(role, account, _msgSender()) */\n      0xffffffffffffffffffffffffffffffffffffffff\n      and\n        /* \"contracts/polygonUsdt/UChildERC20.sol\":41472:41479  account */\n      dup2\n        /* \"contracts/polygonUsdt/UChildERC20.sol\":41454:41494  RoleGranted(role, account, _msgSender()) */\n      0xffffffffffffffffffffffffffffffffffffffff\n      and\n        /* \"contracts/polygonUsdt/UChildERC20.sol\":41466:41470  role */\n      dup4\n        /* \"contracts/polygonUsdt/UChildERC20.sol\":41454:41494  RoleGranted(role, account, _msgSender()) */\n      0x2f8788117e7eff1d82e926ec794901d17c78024a50270940304540a733656f0d\n      mload(0x40)\n      mload(0x40)\n      dup1\n      swap2\n      sub\n      swap1\n      log4\n        /* \"contracts/polygonUsdt/UChildERC20.sol\":41396:41505  if (_roles[role].members.add(account)) {... */\n    tag_66:\n        /* \"contracts/polygonUsdt/UChildERC20.sol\":41327:41511  function _grantRole(bytes32 role, address account) private {... */\n      pop\n      pop\n      jump\t// out\n        /* \"contracts/polygonUsdt/UChildERC20.sol\":41517:41705  function _revokeRole(bytes32 role, address account) private {... */\n    tag_47:\n        /* \"contracts/polygonUsdt/UChildERC20.sol\":41591:41627  _roles[role].members.remove(account) */\n      tag_69\n        /* \"contracts/polygonUsdt/UChildERC20.sol\":41619:41626  account */\n      dup2\n        /* \"contracts/polygonUsdt/UChildERC20.sol\":41591:41597  _roles */\n      0x00\n        /* \"contracts/polygonUsdt/UChildERC20.sol\":41591:41603  _roles[role] */\n      dup1\n        /* \"contracts/polygonUsdt/UChildERC20.sol\":41598:41602  role */\n      dup6\n        /* \"contracts/polygonUsdt/UChildERC20.sol\":41591:41603  _roles[role] */\n      dup2\n      mstore\n      0x20\n      add\n      swap1\n      dup2\n      mstore\n      0x20\n      add\n      0x00\n      keccak256\n        /* \"contracts/polygonUsdt/UChildERC20.sol\":41591:41611  _roles[role].members */\n      0x00\n      add\n        /* \"contracts/polygonUsdt/UChildERC20.sol\":41591:41618  _roles[role].members.remove */\n      tag_70\n      swap1\n        /* \"contracts/polygonUsdt/UChildERC20.sol\":41591:41627  _roles[role].members.remove(account) */\n      swap2\n      swap1\n      0xffffffff\n      and\n      jump\t// in\n    tag_69:\n        /* \"contracts/polygonUsdt/UChildERC20.sol\":41587:41699  if (_roles[role].members.remove(account)) {... */\n      iszero\n      tag_71\n      jumpi\n        /* \"contracts/polygonUsdt/UChildERC20.sol\":41675:41687  _msgSender() */\n      tag_72\n        /* \"contracts/polygonUsdt/UChildERC20.sol\":41675:41685  _msgSender */\n      tag_39\n        /* \"contracts/polygonUsdt/UChildERC20.sol\":41675:41687  _msgSender() */\n      jump\t// in\n    tag_72:\n        /* \"contracts/polygonUsdt/UChildERC20.sol\":41648:41688  RoleRevoked(role, account, _msgSender()) */\n      0xffffffffffffffffffffffffffffffffffffffff\n      and\n        /* \"contracts/polygonUsdt/UChildERC20.sol\":41666:41673  account */\n      dup2\n        /* \"contracts/polygonUsdt/UChildERC20.sol\":41648:41688  RoleRevoked(role, account, _msgSender()) */\n      0xffffffffffffffffffffffffffffffffffffffff\n      and\n        /* \"contracts/polygonUsdt/UChildERC20.sol\":41660:41664  role */\n      dup4\n        /* \"contracts/polygonUsdt/UChildERC20.sol\":41648:41688  RoleRevoked(role, account, _msgSender()) */\n      0xf6391f5c32d9c69d2a47ea670b442974b53935d1edc7fd64eb21e047a839171b\n      mload(0x40)\n      mload(0x40)\n      dup1\n      swap2\n      sub\n      swap1\n      log4\n        /* \"contracts/polygonUsdt/UChildERC20.sol\":41587:41699  if (_roles[role].members.remove(account)) {... */\n    tag_71:\n        /* \"contracts/polygonUsdt/UChildERC20.sol\":41517:41705  function _revokeRole(bytes32 role, address account) private {... */\n      pop\n      pop\n      jump\t// out\n        /* \"contracts/polygonUsdt/UChildERC20.sol\":32645:32792  function at(AddressSet storage set, uint256 index) internal view returns (address) {... */\n    tag_50:\n        /* \"contracts/polygonUsdt/UChildERC20.sol\":32719:32726  address */\n      0x00\n        /* \"contracts/polygonUsdt/UChildERC20.sol\":32761:32783  _at(set._inner, index) */\n      tag_74\n        /* \"contracts/polygonUsdt/UChildERC20.sol\":32765:32768  set */\n      dup4\n        /* \"contracts/polygonUsdt/UChildERC20.sol\":32765:32775  set._inner */\n      0x00\n      add\n        /* \"contracts/polygonUsdt/UChildERC20.sol\":32777:32782  index */\n      dup4\n        /* \"contracts/polygonUsdt/UChildERC20.sol\":32761:32764  _at */\n      tag_75\n        /* \"contracts/polygonUsdt/UChildERC20.sol\":32761:32783  _at(set._inner, index) */\n      jump\t// in\n    tag_74:\n        /* \"contracts/polygonUsdt/UChildERC20.sol\":32753:32784  uint256(_at(set._inner, index)) */\n      0x00\n      shr\n        /* \"contracts/polygonUsdt/UChildERC20.sol\":32738:32785  return address(uint256(_at(set._inner, index))) */\n      swap1\n      pop\n        /* \"contracts/polygonUsdt/UChildERC20.sol\":32645:32792  function at(AddressSet storage set, uint256 index) internal view returns (address) {... */\n      swap3\n      swap2\n      pop\n      pop\n      jump\t// out\n        /* \"contracts/polygonUsdt/UChildERC20.sol\":31961:32117  function contains(AddressSet storage set, address value) internal view returns (bool) {... */\n    tag_53:\n        /* \"contracts/polygonUsdt/UChildERC20.sol\":32041:32045  bool */\n      0x00\n        /* \"contracts/polygonUsdt/UChildERC20.sol\":32064:32110  _contains(set._inner, bytes32(uint256(value))) */\n      tag_77\n        /* \"contracts/polygonUsdt/UChildERC20.sol\":32074:32077  set */\n      dup4\n        /* \"contracts/polygonUsdt/UChildERC20.sol\":32074:32084  set._inner */\n      0x00\n      add\n        /* \"contracts/polygonUsdt/UChildERC20.sol\":32102:32107  value */\n      dup4\n        /* \"contracts/polygonUsdt/UChildERC20.sol\":32094:32108  uint256(value) */\n      0xffffffffffffffffffffffffffffffffffffffff\n      and\n        /* \"contracts/polygonUsdt/UChildERC20.sol\":32086:32109  bytes32(uint256(value)) */\n      0x00\n      shl\n        /* \"contracts/polygonUsdt/UChildERC20.sol\":32064:32073  _contains */\n      tag_78\n        /* \"contracts/polygonUsdt/UChildERC20.sol\":32064:32110  _contains(set._inner, bytes32(uint256(value))) */\n      jump\t// in\n    tag_77:\n        /* \"contracts/polygonUsdt/UChildERC20.sol\":32057:32110  return _contains(set._inner, bytes32(uint256(value))) */\n      swap1\n      pop\n        /* \"contracts/polygonUsdt/UChildERC20.sol\":31961:32117  function contains(AddressSet storage set, address value) internal view returns (bool) {... */\n      swap3\n      swap2\n      pop\n      pop\n      jump\t// out\n        /* \"contracts/polygonUsdt/UChildERC20.sol\":32198:32313  function length(AddressSet storage set) internal view returns (uint256) {... */\n    tag_56:\n        /* \"contracts/polygonUsdt/UChildERC20.sol\":32261:32268  uint256 */\n      0x00\n        /* \"contracts/polygonUsdt/UChildERC20.sol\":32287:32306  _length(set._inner) */\n      tag_80\n        /* \"contracts/polygonUsdt/UChildERC20.sol\":32295:32298  set */\n      dup3\n        /* \"contracts/polygonUsdt/UChildERC20.sol\":32295:32305  set._inner */\n      0x00\n      add\n        /* \"contracts/polygonUsdt/UChildERC20.sol\":32287:32294  _length */\n      tag_81\n        /* \"contracts/polygonUsdt/UChildERC20.sol\":32287:32306  _length(set._inner) */\n      jump\t// in\n    tag_80:\n        /* \"contracts/polygonUsdt/UChildERC20.sol\":32280:32306  return _length(set._inner) */\n      swap1\n      pop\n        /* \"contracts/polygonUsdt/UChildERC20.sol\":32198:32313  function length(AddressSet storage set) internal view returns (uint256) {... */\n      swap2\n      swap1\n      pop\n      jump\t// out\n        /* \"contracts/polygonUsdt/UChildERC20.sol\":31424:31565  function add(AddressSet storage set, address value) internal returns (bool) {... */\n    tag_65:\n        /* \"contracts/polygonUsdt/UChildERC20.sol\":31494:31498  bool */\n      0x00\n        /* \"contracts/polygonUsdt/UChildERC20.sol\":31517:31558  _add(set._inner, bytes32(uint256(value))) */\n      tag_83\n        /* \"contracts/polygonUsdt/UChildERC20.sol\":31522:31525  set */\n      dup4\n        /* \"contracts/polygonUsdt/UChildERC20.sol\":31522:31532  set._inner */\n      0x00\n      add\n        /* \"contracts/polygonUsdt/UChildERC20.sol\":31550:31555  value */\n      dup4\n        /* \"contracts/polygonUsdt/UChildERC20.sol\":31542:31556  uint256(value) */\n      0xffffffffffffffffffffffffffffffffffffffff\n      and\n        /* \"contracts/polygonUsdt/UChildERC20.sol\":31534:31557  bytes32(uint256(value)) */\n      0x00\n      shl\n        /* \"contracts/polygonUsdt/UChildERC20.sol\":31517:31521  _add */\n      tag_84\n        /* \"contracts/polygonUsdt/UChildERC20.sol\":31517:31558  _add(set._inner, bytes32(uint256(value))) */\n      jump\t// in\n    tag_83:\n        /* \"contracts/polygonUsdt/UChildERC20.sol\":31510:31558  return _add(set._inner, bytes32(uint256(value))) */\n      swap1\n      pop\n        /* \"contracts/polygonUsdt/UChildERC20.sol\":31424:31565  function add(AddressSet storage set, address value) internal returns (bool) {... */\n      swap3\n      swap2\n      pop\n      pop\n      jump\t// out\n        /* \"contracts/polygonUsdt/UChildERC20.sol\":31733:31880  function remove(AddressSet storage set, address value) internal returns (bool) {... */\n    tag_70:\n        /* \"contracts/polygonUsdt/UChildERC20.sol\":31806:31810  bool */\n      0x00\n        /* \"contracts/polygonUsdt/UChildERC20.sol\":31829:31873  _remove(set._inner, bytes32(uint256(value))) */\n      tag_86\n        /* \"contracts/polygonUsdt/UChildERC20.sol\":31837:31840  set */\n      dup4\n        /* \"contracts/polygonUsdt/UChildERC20.sol\":31837:31847  set._inner */\n      0x00\n      add\n        /* \"contracts/polygonUsdt/UChildERC20.sol\":31865:31870  value */\n      dup4\n        /* \"contracts/polygonUsdt/UChildERC20.sol\":31857:31871  uint256(value) */\n      0xffffffffffffffffffffffffffffffffffffffff\n      and\n        /* \"contracts/polygonUsdt/UChildERC20.sol\":31849:31872  bytes32(uint256(value)) */\n      0x00\n      shl\n        /* \"contracts/polygonUsdt/UChildERC20.sol\":31829:31836  _remove */\n      tag_87\n        /* \"contracts/polygonUsdt/UChildERC20.sol\":31829:31873  _remove(set._inner, bytes32(uint256(value))) */\n      jump\t// in\n    tag_86:\n        /* \"contracts/polygonUsdt/UChildERC20.sol\":31822:31873  return _remove(set._inner, bytes32(uint256(value))) */\n      swap1\n      pop\n        /* \"contracts/polygonUsdt/UChildERC20.sol\":31733:31880  function remove(AddressSet storage set, address value) internal returns (bool) {... */\n      swap3\n      swap2\n      pop\n      pop\n      jump\t// out\n        /* \"contracts/polygonUsdt/UChildERC20.sol\":30983:31184  function _at(Set storage set, uint256 index) private view returns (bytes32) {... */\n    tag_75:\n        /* \"contracts/polygonUsdt/UChildERC20.sol\":31050:31057  bytes32 */\n      0x00\n        /* \"contracts/polygonUsdt/UChildERC20.sol\":31098:31103  index */\n      dup2\n        /* \"contracts/polygonUsdt/UChildERC20.sol\":31077:31080  set */\n      dup4\n        /* \"contracts/polygonUsdt/UChildERC20.sol\":31077:31088  set._values */\n      0x00\n      add\n        /* \"contracts/polygonUsdt/UChildERC20.sol\":31077:31095  set._values.length */\n      dup1\n      sload\n      swap1\n      pop\n        /* \"contracts/polygonUsdt/UChildERC20.sol\":31077:31103  set._values.length > index */\n      gt\n        /* \"contracts/polygonUsdt/UChildERC20.sol\":31069:31142  require(set._values.length > index, \"EnumerableSet: index out of bounds\") */\n      tag_89\n      jumpi\n      mload(0x40)\n      0x08c379a000000000000000000000000000000000000000000000000000000000\n      dup2\n      mstore\n      0x04\n      add\n      dup1\n      dup1\n      0x20\n      add\n      dup3\n      dup2\n      sub\n      dup3\n      mstore\n      0x22\n      dup2\n      mstore\n      0x20\n      add\n      dup1\n      data_045d6834e6193a687012a3ad777f612279e549b6945364d9d2324f48610d3cbb\n      0x22\n      swap2\n      codecopy\n      0x40\n      add\n      swap2\n      pop\n      pop\n      mload(0x40)\n      dup1\n      swap2\n      sub\n      swap1\n      revert\n    tag_89:\n        /* \"contracts/polygonUsdt/UChildERC20.sol\":31159:31162  set */\n      dup3\n        /* \"contracts/polygonUsdt/UChildERC20.sol\":31159:31170  set._values */\n      0x00\n      add\n        /* \"contracts/polygonUsdt/UChildERC20.sol\":31171:31176  index */\n      dup3\n        /* \"contracts/polygonUsdt/UChildERC20.sol\":31159:31177  set._values[index] */\n      dup2\n      sload\n      dup2\n      lt\n      tag_90\n      jumpi\n      invalid\n    tag_90:\n      swap1\n      0x00\n      mstore\n      keccak256(0x00, 0x20)\n      add\n      sload\n        /* \"contracts/polygonUsdt/UChildERC20.sol\":31152:31177  return set._values[index] */\n      swap1\n      pop\n        /* \"contracts/polygonUsdt/UChildERC20.sol\":30983:31184  function _at(Set storage set, uint256 index) private view returns (bytes32) {... */\n      swap3\n      swap2\n      pop\n      pop\n      jump\t// out\n        /* \"contracts/polygonUsdt/UChildERC20.sol\":30336:30463  function _contains(Set storage set, bytes32 value) private view returns (bool) {... */\n    tag_78:\n        /* \"contracts/polygonUsdt/UChildERC20.sol\":30409:30413  bool */\n      0x00\n        /* \"contracts/polygonUsdt/UChildERC20.sol\":30455:30456  0 */\n      dup1\n        /* \"contracts/polygonUsdt/UChildERC20.sol\":30432:30435  set */\n      dup4\n        /* \"contracts/polygonUsdt/UChildERC20.sol\":30432:30444  set._indexes */\n      0x01\n      add\n        /* \"contracts/polygonUsdt/UChildERC20.sol\":30432:30451  set._indexes[value] */\n      0x00\n        /* \"contracts/polygonUsdt/UChildERC20.sol\":30445:30450  value */\n      dup5\n        /* \"contracts/polygonUsdt/UChildERC20.sol\":30432:30451  set._indexes[value] */\n      dup2\n      mstore\n      0x20\n      add\n      swap1\n      dup2\n      mstore\n      0x20\n      add\n      0x00\n      keccak256\n      sload\n        /* \"contracts/polygonUsdt/UChildERC20.sol\":30432:30456  set._indexes[value] != 0 */\n      eq\n      iszero\n        /* \"contracts/polygonUsdt/UChildERC20.sol\":30425:30456  return set._indexes[value] != 0 */\n      swap1\n      pop\n        /* \"contracts/polygonUsdt/UChildERC20.sol\":30336:30463  function _contains(Set storage set, bytes32 value) private view returns (bool) {... */\n      swap3\n      swap2\n      pop\n      pop\n      jump\t// out\n        /* \"contracts/polygonUsdt/UChildERC20.sol\":30544:30651  function _length(Set storage set) private view returns (uint256) {... */\n    tag_81:\n        /* \"contracts/polygonUsdt/UChildERC20.sol\":30600:30607  uint256 */\n      0x00\n        /* \"contracts/polygonUsdt/UChildERC20.sol\":30626:30629  set */\n      dup2\n        /* \"contracts/polygonUsdt/UChildERC20.sol\":30626:30637  set._values */\n      0x00\n      add\n        /* \"contracts/polygonUsdt/UChildERC20.sol\":30626:30644  set._values.length */\n      dup1\n      sload\n      swap1\n      pop\n        /* \"contracts/polygonUsdt/UChildERC20.sol\":30619:30644  return set._values.length */\n      swap1\n      pop\n        /* \"contracts/polygonUsdt/UChildERC20.sol\":30544:30651  function _length(Set storage set) private view returns (uint256) {... */\n      swap2\n      swap1\n      pop\n      jump\t// out\n        /* \"contracts/polygonUsdt/UChildERC20.sol\":28171:28575  function _add(Set storage set, bytes32 value) private returns (bool) {... */\n    tag_84:\n        /* \"contracts/polygonUsdt/UChildERC20.sol\":28234:28238  bool */\n      0x00\n        /* \"contracts/polygonUsdt/UChildERC20.sol\":28255:28276  _contains(set, value) */\n      tag_95\n        /* \"contracts/polygonUsdt/UChildERC20.sol\":28265:28268  set */\n      dup4\n        /* \"contracts/polygonUsdt/UChildERC20.sol\":28270:28275  value */\n      dup4\n        /* \"contracts/polygonUsdt/UChildERC20.sol\":28255:28264  _contains */\n      tag_78\n        /* \"contracts/polygonUsdt/UChildERC20.sol\":28255:28276  _contains(set, value) */\n      jump\t// in\n    tag_95:\n        /* \"contracts/polygonUsdt/UChildERC20.sol\":28250:28569  if (!_contains(set, value)) {... */\n      tag_96\n      jumpi\n        /* \"contracts/polygonUsdt/UChildERC20.sol\":28292:28295  set */\n      dup3\n        /* \"contracts/polygonUsdt/UChildERC20.sol\":28292:28303  set._values */\n      0x00\n      add\n        /* \"contracts/polygonUsdt/UChildERC20.sol\":28309:28314  value */\n      dup3\n        /* \"contracts/polygonUsdt/UChildERC20.sol\":28292:28315  set._values.push(value) */\n      swap1\n      dup1\n        /* \"--CODEGEN--\":39:40   */\n      0x01\n        /* \"--CODEGEN--\":33:36   */\n      dup2\n        /* \"--CODEGEN--\":27:37   */\n      sload\n        /* \"--CODEGEN--\":23:41   */\n      add\n        /* \"--CODEGEN--\":57:67   */\n      dup1\n        /* \"--CODEGEN--\":52:55   */\n      dup3\n        /* \"--CODEGEN--\":45:68   */\n      sstore\n        /* \"--CODEGEN--\":79:89   */\n      dup1\n        /* \"--CODEGEN--\":72:89   */\n      swap2\n      pop\n        /* \"--CODEGEN--\":0:93   */\n      pop\n        /* \"contracts/polygonUsdt/UChildERC20.sol\":28292:28315  set._values.push(value) */\n      0x01\n      swap1\n      sub\n      swap1\n      0x00\n      mstore\n      keccak256(0x00, 0x20)\n      add\n      0x00\n      swap1\n      swap2\n      swap1\n      swap2\n      swap1\n      swap2\n      pop\n      sstore\n        /* \"contracts/polygonUsdt/UChildERC20.sol\":28472:28475  set */\n      dup3\n        /* \"contracts/polygonUsdt/UChildERC20.sol\":28472:28483  set._values */\n      0x00\n      add\n        /* \"contracts/polygonUsdt/UChildERC20.sol\":28472:28490  set._values.length */\n      dup1\n      sload\n      swap1\n      pop\n        /* \"contracts/polygonUsdt/UChildERC20.sol\":28450:28453  set */\n      dup4\n        /* \"contracts/polygonUsdt/UChildERC20.sol\":28450:28462  set._indexes */\n      0x01\n      add\n        /* \"contracts/polygonUsdt/UChildERC20.sol\":28450:28469  set._indexes[value] */\n      0x00\n        /* \"contracts/polygonUsdt/UChildERC20.sol\":28463:28468  value */\n      dup5\n        /* \"contracts/polygonUsdt/UChildERC20.sol\":28450:28469  set._indexes[value] */\n      dup2\n      mstore\n      0x20\n      add\n      swap1\n      dup2\n      mstore\n      0x20\n      add\n      0x00\n      keccak256\n        /* \"contracts/polygonUsdt/UChildERC20.sol\":28450:28490  set._indexes[value] = set._values.length */\n      dup2\n      swap1\n      sstore\n      pop\n        /* \"contracts/polygonUsdt/UChildERC20.sol\":28511:28515  true */\n      0x01\n        /* \"contracts/polygonUsdt/UChildERC20.sol\":28504:28515  return true */\n      swap1\n      pop\n      jump(tag_94)\n        /* \"contracts/polygonUsdt/UChildERC20.sol\":28250:28569  if (!_contains(set, value)) {... */\n    tag_96:\n        /* \"contracts/polygonUsdt/UChildERC20.sol\":28553:28558  false */\n      0x00\n        /* \"contracts/polygonUsdt/UChildERC20.sol\":28546:28558  return false */\n      swap1\n      pop\n        /* \"contracts/polygonUsdt/UChildERC20.sol\":28171:28575  function _add(Set storage set, bytes32 value) private returns (bool) {... */\n    tag_94:\n      swap3\n      swap2\n      pop\n      pop\n      jump\t// out\n        /* \"contracts/polygonUsdt/UChildERC20.sol\":28743:30255  function _remove(Set storage set, bytes32 value) private returns (bool) {... */\n    tag_87:\n        /* \"contracts/polygonUsdt/UChildERC20.sol\":28809:28813  bool */\n      0x00\n        /* \"contracts/polygonUsdt/UChildERC20.sol\":28925:28943  uint256 valueIndex */\n      dup1\n        /* \"contracts/polygonUsdt/UChildERC20.sol\":28946:28949  set */\n      dup4\n        /* \"contracts/polygonUsdt/UChildERC20.sol\":28946:28958  set._indexes */\n      0x01\n      add\n        /* \"contracts/polygonUsdt/UChildERC20.sol\":28946:28965  set._indexes[value] */\n      0x00\n        /* \"contracts/polygonUsdt/UChildERC20.sol\":28959:28964  value */\n      dup5\n        /* \"contracts/polygonUsdt/UChildERC20.sol\":28946:28965  set._indexes[value] */\n      dup2\n      mstore\n      0x20\n      add\n      swap1\n      dup2\n      mstore\n      0x20\n      add\n      0x00\n      keccak256\n      sload\n        /* \"contracts/polygonUsdt/UChildERC20.sol\":28925:28965  uint256 valueIndex = set._indexes[value] */\n      swap1\n      pop\n        /* \"contracts/polygonUsdt/UChildERC20.sol\":28994:28995  0 */\n      0x00\n        /* \"contracts/polygonUsdt/UChildERC20.sol\":28980:28990  valueIndex */\n      dup2\n        /* \"contracts/polygonUsdt/UChildERC20.sol\":28980:28995  valueIndex != 0 */\n      eq\n        /* \"contracts/polygonUsdt/UChildERC20.sol\":28976:30249  if (valueIndex != 0) { // Equivalent to contains(set, value)... */\n      tag_100\n      jumpi\n        /* \"contracts/polygonUsdt/UChildERC20.sol\":29337:29358  uint256 toDeleteIndex */\n      0x00\n        /* \"contracts/polygonUsdt/UChildERC20.sol\":29374:29375  1 */\n      0x01\n        /* \"contracts/polygonUsdt/UChildERC20.sol\":29361:29371  valueIndex */\n      dup3\n        /* \"contracts/polygonUsdt/UChildERC20.sol\":29361:29375  valueIndex - 1 */\n      sub\n        /* \"contracts/polygonUsdt/UChildERC20.sol\":29337:29375  uint256 toDeleteIndex = valueIndex - 1 */\n      swap1\n      pop\n        /* \"contracts/polygonUsdt/UChildERC20.sol\":29389:29406  uint256 lastIndex */\n      0x00\n        /* \"contracts/polygonUsdt/UChildERC20.sol\":29430:29431  1 */\n      0x01\n        /* \"contracts/polygonUsdt/UChildERC20.sol\":29409:29412  set */\n      dup7\n        /* \"contracts/polygonUsdt/UChildERC20.sol\":29409:29420  set._values */\n      0x00\n      add\n        /* \"contracts/polygonUsdt/UChildERC20.sol\":29409:29427  set._values.length */\n      dup1\n      sload\n      swap1\n      pop\n        /* \"contracts/polygonUsdt/UChildERC20.sol\":29409:29431  set._values.length - 1 */\n      sub\n        /* \"contracts/polygonUsdt/UChildERC20.sol\":29389:29431  uint256 lastIndex = set._values.length - 1 */\n      swap1\n      pop\n        /* \"contracts/polygonUsdt/UChildERC20.sol\":29671:29688  bytes32 lastvalue */\n      0x00\n        /* \"contracts/polygonUsdt/UChildERC20.sol\":29691:29694  set */\n      dup7\n        /* \"contracts/polygonUsdt/UChildERC20.sol\":29691:29702  set._values */\n      0x00\n      add\n        /* \"contracts/polygonUsdt/UChildERC20.sol\":29703:29712  lastIndex */\n      dup3\n        /* \"contracts/polygonUsdt/UChildERC20.sol\":29691:29713  set._values[lastIndex] */\n      dup2\n      sload\n      dup2\n      lt\n      tag_101\n      jumpi\n      invalid\n    tag_101:\n      swap1\n      0x00\n      mstore\n      keccak256(0x00, 0x20)\n      add\n      sload\n        /* \"contracts/polygonUsdt/UChildERC20.sol\":29671:29713  bytes32 lastvalue = set._values[lastIndex] */\n      swap1\n      pop\n        /* \"contracts/polygonUsdt/UChildERC20.sol\":29834:29843  lastvalue */\n      dup1\n        /* \"contracts/polygonUsdt/UChildERC20.sol\":29805:29808  set */\n      dup8\n        /* \"contracts/polygonUsdt/UChildERC20.sol\":29805:29816  set._values */\n      0x00\n      add\n        /* \"contracts/polygonUsdt/UChildERC20.sol\":29817:29830  toDeleteIndex */\n      dup5\n        /* \"contracts/polygonUsdt/UChildERC20.sol\":29805:29831  set._values[toDeleteIndex] */\n      dup2\n      sload\n      dup2\n      lt\n      tag_103\n      jumpi\n      invalid\n    tag_103:\n      swap1\n      0x00\n      mstore\n      keccak256(0x00, 0x20)\n      add\n        /* \"contracts/polygonUsdt/UChildERC20.sol\":29805:29843  set._values[toDeleteIndex] = lastvalue */\n      dup2\n      swap1\n      sstore\n      pop\n        /* \"contracts/polygonUsdt/UChildERC20.sol\":29951:29952  1 */\n      0x01\n        /* \"contracts/polygonUsdt/UChildERC20.sol\":29935:29948  toDeleteIndex */\n      dup4\n        /* \"contracts/polygonUsdt/UChildERC20.sol\":29935:29952  toDeleteIndex + 1 */\n      add\n        /* \"contracts/polygonUsdt/UChildERC20.sol\":29909:29912  set */\n      dup8\n        /* \"contracts/polygonUsdt/UChildERC20.sol\":29909:29921  set._indexes */\n      0x01\n      add\n        /* \"contracts/polygonUsdt/UChildERC20.sol\":29909:29932  set._indexes[lastvalue] */\n      0x00\n        /* \"contracts/polygonUsdt/UChildERC20.sol\":29922:29931  lastvalue */\n      dup4\n        /* \"contracts/polygonUsdt/UChildERC20.sol\":29909:29932  set._indexes[lastvalue] */\n      dup2\n      mstore\n      0x20\n      add\n      swap1\n      dup2\n      mstore\n      0x20\n      add\n      0x00\n      keccak256\n        /* \"contracts/polygonUsdt/UChildERC20.sol\":29909:29952  set._indexes[lastvalue] = toDeleteIndex + 1 */\n      dup2\n      swap1\n      sstore\n      pop\n        /* \"contracts/polygonUsdt/UChildERC20.sol\":30058:30061  set */\n      dup7\n        /* \"contracts/polygonUsdt/UChildERC20.sol\":30058:30069  set._values */\n      0x00\n      add\n        /* \"contracts/polygonUsdt/UChildERC20.sol\":30058:30075  set._values.pop() */\n      dup1\n      sload\n      dup1\n      tag_105\n      jumpi\n      invalid\n    tag_105:\n      0x01\n      swap1\n      sub\n      dup2\n      dup2\n      swap1\n      0x00\n      mstore\n      keccak256(0x00, 0x20)\n      add\n      0x00\n      swap1\n      sstore\n      swap1\n      sstore\n        /* \"contracts/polygonUsdt/UChildERC20.sol\":30150:30153  set */\n      dup7\n        /* \"contracts/polygonUsdt/UChildERC20.sol\":30150:30162  set._indexes */\n      0x01\n      add\n        /* \"contracts/polygonUsdt/UChildERC20.sol\":30150:30169  set._indexes[value] */\n      0x00\n        /* \"contracts/polygonUsdt/UChildERC20.sol\":30163:30168  value */\n      dup8\n        /* \"contracts/polygonUsdt/UChildERC20.sol\":30150:30169  set._indexes[value] */\n      dup2\n      mstore\n      0x20\n      add\n      swap1\n      dup2\n      mstore\n      0x20\n      add\n      0x00\n      keccak256\n        /* \"contracts/polygonUsdt/UChildERC20.sol\":30143:30169  delete set._indexes[value] */\n      0x00\n      swap1\n      sstore\n        /* \"contracts/polygonUsdt/UChildERC20.sol\":30191:30195  true */\n      0x01\n        /* \"contracts/polygonUsdt/UChildERC20.sol\":30184:30195  return true */\n      swap5\n      pop\n      pop\n      pop\n      pop\n      pop\n      jump(tag_99)\n        /* \"contracts/polygonUsdt/UChildERC20.sol\":28976:30249  if (valueIndex != 0) { // Equivalent to contains(set, value)... */\n    tag_100:\n        /* \"contracts/polygonUsdt/UChildERC20.sol\":30233:30238  false */\n      0x00\n        /* \"contracts/polygonUsdt/UChildERC20.sol\":30226:30238  return false */\n      swap2\n      pop\n      pop\n        /* \"contracts/polygonUsdt/UChildERC20.sol\":28743:30255  function _remove(Set storage set, bytes32 value) private returns (bool) {... */\n    tag_99:\n      swap3\n      swap2\n      pop\n      pop\n      jump\t// out\n    stop\n    data_045d6834e6193a687012a3ad777f612279e549b6945364d9d2324f48610d3cbb 456e756d657261626c655365743a20696e646578206f7574206f6620626f756e6473\n    data_0ba7116025f1ef6b158a2bd2238e617f30e17c9e456917d901086ca4f8ad2811 416363657373436f6e74726f6c3a2073656e646572206d75737420626520616e2061646d696e20746f206772616e74\n    data_64344570eab7406ca49d34d38bf2b2496dfda914405390c5057c8b0aabf798a3 416363657373436f6e74726f6c3a2073656e646572206d75737420626520616e2061646d696e20746f207265766f6b65\n    data_fb06fa8ff2141e8ed74502f6792273793f25f0e9d3cf15344f3f5a0d4948fd4b 416363657373436f6e74726f6c3a2063616e206f6e6c792072656e6f756e636520726f6c657320666f722073656c66\n\n    auxdata: 0xa264697066735822122026ec5b4afebe2a8900e4359e64f2ec6011e0ea3a68aa6be79f36070c81fbeb1164736f6c63430006060033\n}\n",
				"bytecode": {
					"linkReferences": {},
					"object": "608060405234801561001057600080fd5b50610a32806100206000396000f3fe608060405234801561001057600080fd5b50600436106100885760003560e01c806391d148541161005b57806391d14854146101e3578063a217fddf14610249578063ca15c87314610267578063d547741f146102a957610088565b8063248a9ca31461008d5780632f2ff15d146100cf57806336568abe1461011d5780639010d07c1461016b575b600080fd5b6100b9600480360360208110156100a357600080fd5b81019080803590602001909291905050506102f7565b6040518082815260200191505060405180910390f35b61011b600480360360408110156100e557600080fd5b8101908080359060200190929190803573ffffffffffffffffffffffffffffffffffffffff169060200190929190505050610316565b005b6101696004803603604081101561013357600080fd5b8101908080359060200190929190803573ffffffffffffffffffffffffffffffffffffffff16906020019092919050505061039f565b005b6101a16004803603604081101561018157600080fd5b810190808035906020019092919080359060200190929190505050610438565b604051808273ffffffffffffffffffffffffffffffffffffffff1673ffffffffffffffffffffffffffffffffffffffff16815260200191505060405180910390f35b61022f600480360360408110156101f957600080fd5b8101908080359060200190929190803573ffffffffffffffffffffffffffffffffffffffff169060200190929190505050610469565b604051808215151515815260200191505060405180910390f35b61025161049a565b6040518082815260200191505060405180910390f35b6102936004803603602081101561027d57600080fd5b81019080803590602001909291905050506104a1565b6040518082815260200191505060405180910390f35b6102f5600480360360408110156102bf57600080fd5b8101908080359060200190929190803573ffffffffffffffffffffffffffffffffffffffff1690602001909291905050506104c7565b005b6000806000838152602001908152602001600020600201549050919050565b61033c60008084815260200190815260200160002060020154610337610550565b610469565b610391576040517f08c379a000000000000000000000000000000000000000000000000000000000815260040180806020018281038252602f81526020018061096f602f913960400191505060405180910390fd5b61039b8282610558565b5050565b6103a7610550565b73ffffffffffffffffffffffffffffffffffffffff168173ffffffffffffffffffffffffffffffffffffffff161461042a576040517f08c379a000000000000000000000000000000000000000000000000000000000815260040180806020018281038252602f8152602001806109ce602f913960400191505060405180910390fd5b61043482826105eb565b5050565b60006104618260008086815260200190815260200160002060000161067e90919063ffffffff16565b905092915050565b60006104928260008086815260200190815260200160002060000161069890919063ffffffff16565b905092915050565b6000801b81565b60006104c06000808481526020019081526020016000206000016106c8565b9050919050565b6104ed600080848152602001908152602001600020600201546104e8610550565b610469565b610542576040517f08c379a000000000000000000000000000000000000000000000000000000000815260040180806020018281038252603081526020018061099e6030913960400191505060405180910390fd5b61054c82826105eb565b5050565b600033905090565b61057f816000808581526020019081526020016000206000016106dd90919063ffffffff16565b156105e75761058c610550565b73ffffffffffffffffffffffffffffffffffffffff168173ffffffffffffffffffffffffffffffffffffffff16837f2f8788117e7eff1d82e926ec794901d17c78024a50270940304540a733656f0d60405160405180910390a45b5050565b6106128160008085815260200190815260200160002060000161070d90919063ffffffff16565b1561067a5761061f610550565b73ffffffffffffffffffffffffffffffffffffffff168173ffffffffffffffffffffffffffffffffffffffff16837ff6391f5c32d9c69d2a47ea670b442974b53935d1edc7fd64eb21e047a839171b60405160405180910390a45b5050565b600061068d836000018361073d565b60001c905092915050565b60006106c0836000018373ffffffffffffffffffffffffffffffffffffffff1660001b6107c0565b905092915050565b60006106d6826000016107e3565b9050919050565b6000610705836000018373ffffffffffffffffffffffffffffffffffffffff1660001b6107f4565b905092915050565b6000610735836000018373ffffffffffffffffffffffffffffffffffffffff1660001b610864565b905092915050565b60008183600001805490501161079e576040517f08c379a000000000000000000000000000000000000000000000000000000000815260040180806020018281038252602281526020018061094d6022913960400191505060405180910390fd5b8260000182815481106107ad57fe5b9060005260206000200154905092915050565b600080836001016000848152602001908152602001600020541415905092915050565b600081600001805490509050919050565b600061080083836107c0565b61085957826000018290806001815401808255809150506001900390600052602060002001600090919091909150558260000180549050836001016000848152602001908152602001600020819055506001905061085e565b600090505b92915050565b6000808360010160008481526020019081526020016000205490506000811461094057600060018203905060006001866000018054905003905060008660000182815481106108af57fe5b90600052602060002001549050808760000184815481106108cc57fe5b906000526020600020018190555060018301876001016000838152602001908152602001600020819055508660000180548061090457fe5b60019003818190600052602060002001600090559055866001016000878152602001908152602001600020600090556001945050505050610946565b60009150505b9291505056fe456e756d657261626c655365743a20696e646578206f7574206f6620626f756e6473416363657373436f6e74726f6c3a2073656e646572206d75737420626520616e2061646d696e20746f206772616e74416363657373436f6e74726f6c3a2073656e646572206d75737420626520616e2061646d696e20746f207265766f6b65416363657373436f6e74726f6c3a2063616e206f6e6c792072656e6f756e636520726f6c657320666f722073656c66a264697066735822122026ec5b4afebe2a8900e4359e64f2ec6011e0ea3a68aa6be79f36070c81fbeb1164736f6c63430006060033",
					"opcodes": "PUSH1 0x80 PUSH1 0x40 MSTORE CALLVALUE DUP1 ISZERO PUSH2 0x10 JUMPI PUSH1 0x0 DUP1 REVERT JUMPDEST POP PUSH2 0xA32 DUP1 PUSH2 0x20 PUSH1 0x0 CODECOPY PUSH1 0x0 RETURN INVALID PUSH1 0x80 PUSH1 0x40 MSTORE CALLVALUE DUP1 ISZERO PUSH2 0x10 JUMPI PUSH1 0x0 DUP1 REVERT JUMPDEST POP PUSH1 0x4 CALLDATASIZE LT PUSH2 0x88 JUMPI PUSH1 0x0 CALLDATALOAD PUSH1 0xE0 SHR DUP1 PUSH4 0x91D14854 GT PUSH2 0x5B JUMPI DUP1 PUSH4 0x91D14854 EQ PUSH2 0x1E3 JUMPI DUP1 PUSH4 0xA217FDDF EQ PUSH2 0x249 JUMPI DUP1 PUSH4 0xCA15C873 EQ PUSH2 0x267 JUMPI DUP1 PUSH4 0xD547741F EQ PUSH2 0x2A9 JUMPI PUSH2 0x88 JUMP JUMPDEST DUP1 PUSH4 0x248A9CA3 EQ PUSH2 0x8D JUMPI DUP1 PUSH4 0x2F2FF15D EQ PUSH2 0xCF JUMPI DUP1 PUSH4 0x36568ABE EQ PUSH2 0x11D JUMPI DUP1 PUSH4 0x9010D07C EQ PUSH2 0x16B JUMPI JUMPDEST PUSH1 0x0 DUP1 REVERT JUMPDEST PUSH2 0xB9 PUSH1 0x4 DUP1 CALLDATASIZE SUB PUSH1 0x20 DUP2 LT ISZERO PUSH2 0xA3 JUMPI PUSH1 0x0 DUP1 REVERT JUMPDEST DUP2 ADD SWAP1 DUP1 DUP1 CALLDATALOAD SWAP1 PUSH1 0x20 ADD SWAP1 SWAP3 SWAP2 SWAP1 POP POP POP PUSH2 0x2F7 JUMP JUMPDEST PUSH1 0x40 MLOAD DUP1 DUP3 DUP2 MSTORE PUSH1 0x20 ADD SWAP2 POP POP PUSH1 0x40 MLOAD DUP1 SWAP2 SUB SWAP1 RETURN JUMPDEST PUSH2 0x11B PUSH1 0x4 DUP1 CALLDATASIZE SUB PUSH1 0x40 DUP2 LT ISZERO PUSH2 0xE5 JUMPI PUSH1 0x0 DUP1 REVERT JUMPDEST DUP2 ADD SWAP1 DUP1 DUP1 CALLDATALOAD SWAP1 PUSH1 0x20 ADD SWAP1 SWAP3 SWAP2 SWAP1 DUP1 CALLDATALOAD PUSH20 0xFFFFFFFFFFFFFFFFFFFFFFFFFFFFFFFFFFFFFFFF AND SWAP1 PUSH1 0x20 ADD SWAP1 SWAP3 SWAP2 SWAP1 POP POP POP PUSH2 0x316 JUMP JUMPDEST STOP JUMPDEST PUSH2 0x169 PUSH1 0x4 DUP1 CALLDATASIZE SUB PUSH1 0x40 DUP2 LT ISZERO PUSH2 0x133 JUMPI PUSH1 0x0 DUP1 REVERT JUMPDEST DUP2 ADD SWAP1 DUP1 DUP1 CALLDATALOAD SWAP1 PUSH1 0x20 ADD SWAP1 SWAP3 SWAP2 SWAP1 DUP1 CALLDATALOAD PUSH20 0xFFFFFFFFFFFFFFFFFFFFFFFFFFFFFFFFFFFFFFFF AND SWAP1 PUSH1 0x20 ADD SWAP1 SWAP3 SWAP2 SWAP1 POP POP POP PUSH2 0x39F JUMP JUMPDEST STOP JUMPDEST PUSH2 0x1A1 PUSH1 0x4 DUP1 CALLDATASIZE SUB PUSH1 0x40 DUP2 LT ISZERO PUSH2 0x181 JUMPI PUSH1 0x0 DUP1 REVERT JUMPDEST DUP2 ADD SWAP1 DUP1 DUP1 CALLDATALOAD SWAP1 PUSH1 0x20 ADD SWAP1 SWAP3 SWAP2 SWAP1 DUP1 CALLDATALOAD SWAP1 PUSH1 0x20 ADD SWAP1 SWAP3 SWAP2 SWAP1 POP POP POP PUSH2 0x438 JUMP JUMPDEST PUSH1 0x40 MLOAD DUP1 DUP3 PUSH20 0xFFFFFFFFFFFFFFFFFFFFFFFFFFFFFFFFFFFFFFFF AND PUSH20 0xFFFFFFFFFFFFFFFFFFFFFFFFFFFFFFFFFFFFFFFF AND DUP2 MSTORE PUSH1 0x20 ADD SWAP2 POP POP PUSH1 0x40 MLOAD DUP1 SWAP2 SUB SWAP1 RETURN JUMPDEST PUSH2 0x22F PUSH1 0x4 DUP1 CALLDATASIZE SUB PUSH1 0x40 DUP2 LT ISZERO PUSH2 0x1F9 JUMPI PUSH1 0x0 DUP1 REVERT JUMPDEST DUP2 ADD SWAP1 DUP1 DUP1 CALLDATALOAD SWAP1 PUSH1 0x20 ADD SWAP1 SWAP3 SWAP2 SWAP1 DUP1 CALLDATALOAD PUSH20 0xFFFFFFFFFFFFFFFFFFFFFFFFFFFFFFFFFFFFFFFF AND SWAP1 PUSH1 0x20 ADD SWAP1 SWAP3 SWAP2 SWAP1 POP POP POP PUSH2 0x469 JUMP JUMPDEST PUSH1 0x40 MLOAD DUP1 DUP3 ISZERO ISZERO ISZERO ISZERO DUP2 MSTORE PUSH1 0x20 ADD SWAP2 POP POP PUSH1 0x40 MLOAD DUP1 SWAP2 SUB SWAP1 RETURN JUMPDEST PUSH2 0x251 PUSH2 0x49A JUMP JUMPDEST PUSH1 0x40 MLOAD DUP1 DUP3 DUP2 MSTORE PUSH1 0x20 ADD SWAP2 POP POP PUSH1 0x40 MLOAD DUP1 SWAP2 SUB SWAP1 RETURN JUMPDEST PUSH2 0x293 PUSH1 0x4 DUP1 CALLDATASIZE SUB PUSH1 0x20 DUP2 LT ISZERO PUSH2 0x27D JUMPI PUSH1 0x0 DUP1 REVERT JUMPDEST DUP2 ADD SWAP1 DUP1 DUP1 CALLDATALOAD SWAP1 PUSH1 0x20 ADD SWAP1 SWAP3 SWAP2 SWAP1 POP POP POP PUSH2 0x4A1 JUMP JUMPDEST PUSH1 0x40 MLOAD DUP1 DUP3 DUP2 MSTORE PUSH1 0x20 ADD SWAP2 POP POP PUSH1 0x40 MLOAD DUP1 SWAP2 SUB SWAP1 RETURN JUMPDEST PUSH2 0x2F5 PUSH1 0x4 DUP1 CALLDATASIZE SUB PUSH1 0x40 DUP2 LT ISZERO PUSH2 0x2BF JUMPI PUSH1 0x0 DUP1 REVERT JUMPDEST DUP2 ADD SWAP1 DUP1 DUP1 CALLDATALOAD SWAP1 PUSH1 0x20 ADD SWAP1 SWAP3 SWAP2 SWAP1 DUP1 CALLDATALOAD PUSH20 0xFFFFFFFFFFFFFFFFFFFFFFFFFFFFFFFFFFFFFFFF AND SWAP1 PUSH1 0x20 ADD SWAP1 SWAP3 SWAP2 SWAP1 POP POP POP PUSH2 0x4C7 JUMP JUMPDEST STOP JUMPDEST PUSH1 0x0 DUP1 PUSH1 0x0 DUP4 DUP2 MSTORE PUSH1 0x20 ADD SWAP1 DUP2 MSTORE PUSH1 0x20 ADD PUSH1 0x0 KECCAK256 PUSH1 0x2 ADD SLOAD SWAP1 POP SWAP2 SWAP1 POP JUMP JUMPDEST PUSH2 0x33C PUSH1 0x0 DUP1 DUP5 DUP2 MSTORE PUSH1 0x20 ADD SWAP1 DUP2 MSTORE PUSH1 0x20 ADD PUSH1 0x0 KECCAK256 PUSH1 0x2 ADD SLOAD PUSH2 0x337 PUSH2 0x550 JUMP JUMPDEST PUSH2 0x469 JUMP JUMPDEST PUSH2 0x391 JUMPI PUSH1 0x40 MLOAD PUSH32 0x8C379A000000000000000000000000000000000000000000000000000000000 DUP2 MSTORE PUSH1 0x4 ADD DUP1 DUP1 PUSH1 0x20 ADD DUP3 DUP2 SUB DUP3 MSTORE PUSH1 0x2F DUP2 MSTORE PUSH1 0x20 ADD DUP1 PUSH2 0x96F PUSH1 0x2F SWAP2 CODECOPY PUSH1 0x40 ADD SWAP2 POP POP PUSH1 0x40 MLOAD DUP1 SWAP2 SUB SWAP1 REVERT JUMPDEST PUSH2 0x39B DUP3 DUP3 PUSH2 0x558 JUMP JUMPDEST POP POP JUMP JUMPDEST PUSH2 0x3A7 PUSH2 0x550 JUMP JUMPDEST PUSH20 0xFFFFFFFFFFFFFFFFFFFFFFFFFFFFFFFFFFFFFFFF AND DUP2 PUSH20 0xFFFFFFFFFFFFFFFFFFFFFFFFFFFFFFFFFFFFFFFF AND EQ PUSH2 0x42A JUMPI PUSH1 0x40 MLOAD PUSH32 0x8C379A000000000000000000000000000000000000000000000000000000000 DUP2 MSTORE PUSH1 0x4 ADD DUP1 DUP1 PUSH1 0x20 ADD DUP3 DUP2 SUB DUP3 MSTORE PUSH1 0x2F DUP2 MSTORE PUSH1 0x20 ADD DUP1 PUSH2 0x9CE PUSH1 0x2F SWAP2 CODECOPY PUSH1 0x40 ADD SWAP2 POP POP PUSH1 0x40 MLOAD DUP1 SWAP2 SUB SWAP1 REVERT JUMPDEST PUSH2 0x434 DUP3 DUP3 PUSH2 0x5EB JUMP JUMPDEST POP POP JUMP JUMPDEST PUSH1 0x0 PUSH2 0x461 DUP3 PUSH1 0x0 DUP1 DUP7 DUP2 MSTORE PUSH1 0x20 ADD SWAP1 DUP2 MSTORE PUSH1 0x20 ADD PUSH1 0x0 KECCAK256 PUSH1 0x0 ADD PUSH2 0x67E SWAP1 SWAP2 SWAP1 PUSH4 0xFFFFFFFF AND JUMP JUMPDEST SWAP1 POP SWAP3 SWAP2 POP POP JUMP JUMPDEST PUSH1 0x0 PUSH2 0x492 DUP3 PUSH1 0x0 DUP1 DUP7 DUP2 MSTORE PUSH1 0x20 ADD SWAP1 DUP2 MSTORE PUSH1 0x20 ADD PUSH1 0x0 KECCAK256 PUSH1 0x0 ADD PUSH2 0x698 SWAP1 SWAP2 SWAP1 PUSH4 0xFFFFFFFF AND JUMP JUMPDEST SWAP1 POP SWAP3 SWAP2 POP POP JUMP JUMPDEST PUSH1 0x0 DUP1 SHL DUP2 JUMP JUMPDEST PUSH1 0x0 PUSH2 0x4C0 PUSH1 0x0 DUP1 DUP5 DUP2 MSTORE PUSH1 0x20 ADD SWAP1 DUP2 MSTORE PUSH1 0x20 ADD PUSH1 0x0 KECCAK256 PUSH1 0x0 ADD PUSH2 0x6C8 JUMP JUMPDEST SWAP1 POP SWAP2 SWAP1 POP JUMP JUMPDEST PUSH2 0x4ED PUSH1 0x0 DUP1 DUP5 DUP2 MSTORE PUSH1 0x20 ADD SWAP1 DUP2 MSTORE PUSH1 0x20 ADD PUSH1 0x0 KECCAK256 PUSH1 0x2 ADD SLOAD PUSH2 0x4E8 PUSH2 0x550 JUMP JUMPDEST PUSH2 0x469 JUMP JUMPDEST PUSH2 0x542 JUMPI PUSH1 0x40 MLOAD PUSH32 0x8C379A000000000000000000000000000000000000000000000000000000000 DUP2 MSTORE PUSH1 0x4 ADD DUP1 DUP1 PUSH1 0x20 ADD DUP3 DUP2 SUB DUP3 MSTORE PUSH1 0x30 DUP2 MSTORE PUSH1 0x20 ADD DUP1 PUSH2 0x99E PUSH1 0x30 SWAP2 CODECOPY PUSH1 0x40 ADD SWAP2 POP POP PUSH1 0x40 MLOAD DUP1 SWAP2 SUB SWAP1 REVERT JUMPDEST PUSH2 0x54C DUP3 DUP3 PUSH2 0x5EB JUMP JUMPDEST POP POP JUMP JUMPDEST PUSH1 0x0 CALLER SWAP1 POP SWAP1 JUMP JUMPDEST PUSH2 0x57F DUP2 PUSH1 0x0 DUP1 DUP6 DUP2 MSTORE PUSH1 0x20 ADD SWAP1 DUP2 MSTORE PUSH1 0x20 ADD PUSH1 0x0 KECCAK256 PUSH1 0x0 ADD PUSH2 0x6DD SWAP1 SWAP2 SWAP1 PUSH4 0xFFFFFFFF AND JUMP JUMPDEST ISZERO PUSH2 0x5E7 JUMPI PUSH2 0x58C PUSH2 0x550 JUMP JUMPDEST PUSH20 0xFFFFFFFFFFFFFFFFFFFFFFFFFFFFFFFFFFFFFFFF AND DUP2 PUSH20 0xFFFFFFFFFFFFFFFFFFFFFFFFFFFFFFFFFFFFFFFF AND DUP4 PUSH32 0x2F8788117E7EFF1D82E926EC794901D17C78024A50270940304540A733656F0D PUSH1 0x40 MLOAD PUSH1 0x40 MLOAD DUP1 SWAP2 SUB SWAP1 LOG4 JUMPDEST POP POP JUMP JUMPDEST PUSH2 0x612 DUP2 PUSH1 0x0 DUP1 DUP6 DUP2 MSTORE PUSH1 0x20 ADD SWAP1 DUP2 MSTORE PUSH1 0x20 ADD PUSH1 0x0 KECCAK256 PUSH1 0x0 ADD PUSH2 0x70D SWAP1 SWAP2 SWAP1 PUSH4 0xFFFFFFFF AND JUMP JUMPDEST ISZERO PUSH2 0x67A JUMPI PUSH2 0x61F PUSH2 0x550 JUMP JUMPDEST PUSH20 0xFFFFFFFFFFFFFFFFFFFFFFFFFFFFFFFFFFFFFFFF AND DUP2 PUSH20 0xFFFFFFFFFFFFFFFFFFFFFFFFFFFFFFFFFFFFFFFF AND DUP4 PUSH32 0xF6391F5C32D9C69D2A47EA670B442974B53935D1EDC7FD64EB21E047A839171B PUSH1 0x40 MLOAD PUSH1 0x40 MLOAD DUP1 SWAP2 SUB SWAP1 LOG4 JUMPDEST POP POP JUMP JUMPDEST PUSH1 0x0 PUSH2 0x68D DUP4 PUSH1 0x0 ADD DUP4 PUSH2 0x73D JUMP JUMPDEST PUSH1 0x0 SHR SWAP1 POP SWAP3 SWAP2 POP POP JUMP JUMPDEST PUSH1 0x0 PUSH2 0x6C0 DUP4 PUSH1 0x0 ADD DUP4 PUSH20 0xFFFFFFFFFFFFFFFFFFFFFFFFFFFFFFFFFFFFFFFF AND PUSH1 0x0 SHL PUSH2 0x7C0 JUMP JUMPDEST SWAP1 POP SWAP3 SWAP2 POP POP JUMP JUMPDEST PUSH1 0x0 PUSH2 0x6D6 DUP3 PUSH1 0x0 ADD PUSH2 0x7E3 JUMP JUMPDEST SWAP1 POP SWAP2 SWAP1 POP JUMP JUMPDEST PUSH1 0x0 PUSH2 0x705 DUP4 PUSH1 0x0 ADD DUP4 PUSH20 0xFFFFFFFFFFFFFFFFFFFFFFFFFFFFFFFFFFFFFFFF AND PUSH1 0x0 SHL PUSH2 0x7F4 JUMP JUMPDEST SWAP1 POP SWAP3 SWAP2 POP POP JUMP JUMPDEST PUSH1 0x0 PUSH2 0x735 DUP4 PUSH1 0x0 ADD DUP4 PUSH20 0xFFFFFFFFFFFFFFFFFFFFFFFFFFFFFFFFFFFFFFFF AND PUSH1 0x0 SHL PUSH2 0x864 JUMP JUMPDEST SWAP1 POP SWAP3 SWAP2 POP POP JUMP JUMPDEST PUSH1 0x0 DUP2 DUP4 PUSH1 0x0 ADD DUP1 SLOAD SWAP1 POP GT PUSH2 0x79E JUMPI PUSH1 0x40 MLOAD PUSH32 0x8C379A000000000000000000000000000000000000000000000000000000000 DUP2 MSTORE PUSH1 0x4 ADD DUP1 DUP1 PUSH1 0x20 ADD DUP3 DUP2 SUB DUP3 MSTORE PUSH1 0x22 DUP2 MSTORE PUSH1 0x20 ADD DUP1 PUSH2 0x94D PUSH1 0x22 SWAP2 CODECOPY PUSH1 0x40 ADD SWAP2 POP POP PUSH1 0x40 MLOAD DUP1 SWAP2 SUB SWAP1 REVERT JUMPDEST DUP3 PUSH1 0x0 ADD DUP3 DUP2 SLOAD DUP2 LT PUSH2 0x7AD JUMPI INVALID JUMPDEST SWAP1 PUSH1 0x0 MSTORE PUSH1 0x20 PUSH1 0x0 KECCAK256 ADD SLOAD SWAP1 POP SWAP3 SWAP2 POP POP JUMP JUMPDEST PUSH1 0x0 DUP1 DUP4 PUSH1 0x1 ADD PUSH1 0x0 DUP5 DUP2 MSTORE PUSH1 0x20 ADD SWAP1 DUP2 MSTORE PUSH1 0x20 ADD PUSH1 0x0 KECCAK256 SLOAD EQ ISZERO SWAP1 POP SWAP3 SWAP2 POP POP JUMP JUMPDEST PUSH1 0x0 DUP2 PUSH1 0x0 ADD DUP1 SLOAD SWAP1 POP SWAP1 POP SWAP2 SWAP1 POP JUMP JUMPDEST PUSH1 0x0 PUSH2 0x800 DUP4 DUP4 PUSH2 0x7C0 JUMP JUMPDEST PUSH2 0x859 JUMPI DUP3 PUSH1 0x0 ADD DUP3 SWAP1 DUP1 PUSH1 0x1 DUP2 SLOAD ADD DUP1 DUP3 SSTORE DUP1 SWAP2 POP POP PUSH1 0x1 SWAP1 SUB SWAP1 PUSH1 0x0 MSTORE PUSH1 0x20 PUSH1 0x0 KECCAK256 ADD PUSH1 0x0 SWAP1 SWAP2 SWAP1 SWAP2 SWAP1 SWAP2 POP SSTORE DUP3 PUSH1 0x0 ADD DUP1 SLOAD SWAP1 POP DUP4 PUSH1 0x1 ADD PUSH1 0x0 DUP5 DUP2 MSTORE PUSH1 0x20 ADD SWAP1 DUP2 MSTORE PUSH1 0x20 ADD PUSH1 0x0 KECCAK256 DUP2 SWAP1 SSTORE POP PUSH1 0x1 SWAP1 POP PUSH2 0x85E JUMP JUMPDEST PUSH1 0x0 SWAP1 POP JUMPDEST SWAP3 SWAP2 POP POP JUMP JUMPDEST PUSH1 0x0 DUP1 DUP4 PUSH1 0x1 ADD PUSH1 0x0 DUP5 DUP2 MSTORE PUSH1 0x20 ADD SWAP1 DUP2 MSTORE PUSH1 0x20 ADD PUSH1 0x0 KECCAK256 SLOAD SWAP1 POP PUSH1 0x0 DUP2 EQ PUSH2 0x940 JUMPI PUSH1 0x0 PUSH1 0x1 DUP3 SUB SWAP1 POP PUSH1 0x0 PUSH1 0x1 DUP7 PUSH1 0x0 ADD DUP1 SLOAD SWAP1 POP SUB SWAP1 POP PUSH1 0x0 DUP7 PUSH1 0x0 ADD DUP3 DUP2 SLOAD DUP2 LT PUSH2 0x8AF JUMPI INVALID JUMPDEST SWAP1 PUSH1 0x0 MSTORE PUSH1 0x20 PUSH1 0x0 KECCAK256 ADD SLOAD SWAP1 POP DUP1 DUP8 PUSH1 0x0 ADD DUP5 DUP2 SLOAD DUP2 LT PUSH2 0x8CC JUMPI INVALID JUMPDEST SWAP1 PUSH1 0x0 MSTORE PUSH1 0x20 PUSH1 0x0 KECCAK256 ADD DUP2 SWAP1 SSTORE POP PUSH1 0x1 DUP4 ADD DUP8 PUSH1 0x1 ADD PUSH1 0x0 DUP4 DUP2 MSTORE PUSH1 0x20 ADD SWAP1 DUP2 MSTORE PUSH1 0x20 ADD PUSH1 0x0 KECCAK256 DUP2 SWAP1 SSTORE POP DUP7 PUSH1 0x0 ADD DUP1 SLOAD DUP1 PUSH2 0x904 JUMPI INVALID JUMPDEST PUSH1 0x1 SWAP1 SUB DUP2 DUP2 SWAP1 PUSH1 0x0 MSTORE PUSH1 0x20 PUSH1 0x0 KECCAK256 ADD PUSH1 0x0 SWAP1 SSTORE SWAP1 SSTORE DUP7 PUSH1 0x1 ADD PUSH1 0x0 DUP8 DUP2 MSTORE PUSH1 0x20 ADD SWAP1 DUP2 MSTORE PUSH1 0x20 ADD PUSH1 0x0 KECCAK256 PUSH1 0x0 SWAP1 SSTORE PUSH1 0x1 SWAP5 POP POP POP POP POP PUSH2 0x946 JUMP JUMPDEST PUSH1 0x0 SWAP2 POP POP JUMPDEST SWAP3 SWAP2 POP POP JUMP INVALID GASLIMIT PUSH15 0x756D657261626C655365743A20696E PUSH5 0x6578206F75 PUSH21 0x206F6620626F756E6473416363657373436F6E7472 PUSH16 0x6C3A2073656E646572206D7573742062 PUSH6 0x20616E206164 PUSH14 0x696E20746F206772616E74416363 PUSH6 0x7373436F6E74 PUSH19 0x6F6C3A2073656E646572206D75737420626520 PUSH2 0x6E20 PUSH2 0x646D PUSH10 0x6E20746F207265766F6B PUSH6 0x416363657373 NUMBER PUSH16 0x6E74726F6C3A2063616E206F6E6C7920 PUSH19 0x656E6F756E636520726F6C657320666F722073 PUSH6 0x6C66A2646970 PUSH7 0x735822122026EC JUMPDEST 0x4A INVALID 0xBE 0x2A DUP10 STOP 0xE4 CALLDATALOAD SWAP15 PUSH5 0xF2EC6011E0 0xEA GASPRICE PUSH9 0xAA6BE79F36070C81FB 0xEB GT PUSH5 0x736F6C6343 STOP MOD MOD STOP CALLER "
				},
				"gasEstimates": {
					"creation": {
						"codeDepositCost": "522000",
						"executionCost": "556",
						"totalCost": "522556"
					},
					"external": {
						"DEFAULT_ADMIN_ROLE()": "233",
						"getRoleAdmin(bytes32)": "1185",
						"getRoleMember(bytes32,uint256)": "infinite",
						"getRoleMemberCount(bytes32)": "1334",
						"grantRole(bytes32,address)": "infinite",
						"hasRole(bytes32,address)": "infinite",
						"renounceRole(bytes32,address)": "infinite",
						"revokeRole(bytes32,address)": "infinite"
					},
					"internal": {
						"_setupContractId(string memory)": "infinite"
					}
				},
				"methodIdentifiers": {
					"DEFAULT_ADMIN_ROLE()": "a217fddf",
					"getRoleAdmin(bytes32)": "248a9ca3",
					"getRoleMember(bytes32,uint256)": "9010d07c",
					"getRoleMemberCount(bytes32)": "ca15c873",
					"grantRole(bytes32,address)": "2f2ff15d",
					"hasRole(bytes32,address)": "91d14854",
					"renounceRole(bytes32,address)": "36568abe",
					"revokeRole(bytes32,address)": "d547741f"
				}
			},
			"storageLayout": {
				"storage": [
					{
						"astId": 1442,
						"contract": "contracts/polygonUsdt/UChildERC20.sol:AccessControlMixin",
						"label": "_roles",
						"offset": 0,
						"slot": "0",
						"type": "t_mapping(t_bytes32,t_struct(RoleData)1438_storage)"
					},
					{
						"astId": 1707,
						"contract": "contracts/polygonUsdt/UChildERC20.sol:AccessControlMixin",
						"label": "_revertMsg",
						"offset": 0,
						"slot": "1",
						"type": "t_string_storage"
					}
				],
				"types": {
					"t_array(t_bytes32)dyn_storage": {
						"base": "t_bytes32",
						"encoding": "dynamic_array",
						"label": "bytes32[]",
						"numberOfBytes": "32"
					},
					"t_bytes32": {
						"encoding": "inplace",
						"label": "bytes32",
						"numberOfBytes": "32"
					},
					"t_mapping(t_bytes32,t_struct(RoleData)1438_storage)": {
						"encoding": "mapping",
						"key": "t_bytes32",
						"label": "mapping(bytes32 => struct AccessControl.RoleData)",
						"numberOfBytes": "32",
						"value": "t_struct(RoleData)1438_storage"
					},
					"t_mapping(t_bytes32,t_uint256)": {
						"encoding": "mapping",
						"key": "t_bytes32",
						"label": "mapping(bytes32 => uint256)",
						"numberOfBytes": "32",
						"value": "t_uint256"
					},
					"t_string_storage": {
						"encoding": "bytes",
						"label": "string",
						"numberOfBytes": "32"
					},
					"t_struct(AddressSet)1219_storage": {
						"encoding": "inplace",
						"label": "struct EnumerableSet.AddressSet",
						"members": [
							{
								"astId": 1218,
								"contract": "contracts/polygonUsdt/UChildERC20.sol:AccessControlMixin",
								"label": "_inner",
								"offset": 0,
								"slot": "0",
								"type": "t_struct(Set)1039_storage"
							}
						],
						"numberOfBytes": "64"
					},
					"t_struct(RoleData)1438_storage": {
						"encoding": "inplace",
						"label": "struct AccessControl.RoleData",
						"members": [
							{
								"astId": 1435,
								"contract": "contracts/polygonUsdt/UChildERC20.sol:AccessControlMixin",
								"label": "members",
								"offset": 0,
								"slot": "0",
								"type": "t_struct(AddressSet)1219_storage"
							},
							{
								"astId": 1437,
								"contract": "contracts/polygonUsdt/UChildERC20.sol:AccessControlMixin",
								"label": "adminRole",
								"offset": 0,
								"slot": "2",
								"type": "t_bytes32"
							}
						],
						"numberOfBytes": "96"
					},
					"t_struct(Set)1039_storage": {
						"encoding": "inplace",
						"label": "struct EnumerableSet.Set",
						"members": [
							{
								"astId": 1034,
								"contract": "contracts/polygonUsdt/UChildERC20.sol:AccessControlMixin",
								"label": "_values",
								"offset": 0,
								"slot": "0",
								"type": "t_array(t_bytes32)dyn_storage"
							},
							{
								"astId": 1038,
								"contract": "contracts/polygonUsdt/UChildERC20.sol:AccessControlMixin",
								"label": "_indexes",
								"offset": 0,
								"slot": "1",
								"type": "t_mapping(t_bytes32,t_uint256)"
							}
						],
						"numberOfBytes": "64"
					},
					"t_uint256": {
						"encoding": "inplace",
						"label": "uint256",
						"numberOfBytes": "32"
					}
				}
			},
			"userdoc": {
				"methods": {}
			}
		}
	}
}