{
	"contracts/polygonUsdt/UChildERC20.sol": {
		"EIP712Base": {
			"abi": [
				{
					"inputs": [],
					"name": "getChainId",
					"outputs": [
						{
							"internalType": "uint256",
							"name": "",
							"type": "uint256"
						}
					],
					"stateMutability": "pure",
					"type": "function"
				},
				{
					"inputs": [],
					"name": "getDomainSeperator",
					"outputs": [
						{
							"internalType": "bytes32",
							"name": "",
							"type": "bytes32"
						}
					],
					"stateMutability": "view",
					"type": "function"
				}
			],
			"devdoc": {
				"methods": {}
			},
			"evm": {
				"assembly": "    /* \"contracts/polygonUsdt/UChildERC20.sol\":42651:44683  contract EIP712Base is Initializable {... */\n  mstore(0x40, 0x80)\n    /* \"contracts/polygonUsdt/UChildERC20.sol\":42460:42465  false */\n  0x00\n    /* \"contracts/polygonUsdt/UChildERC20.sol\":42446:42465  bool inited = false */\n  dup1\n  exp(0x0100, 0x00)\n  dup2\n  sload\n  dup2\n  0xff\n  mul\n  not\n  and\n  swap1\n  dup4\n  iszero\n  iszero\n  mul\n  or\n  swap1\n  sstore\n  pop\n    /* \"contracts/polygonUsdt/UChildERC20.sol\":42651:44683  contract EIP712Base is Initializable {... */\n  callvalue\n    /* \"--CODEGEN--\":5:14   */\n  dup1\n    /* \"--CODEGEN--\":2:4   */\n  iszero\n  tag_1\n  jumpi\n    /* \"--CODEGEN--\":27:28   */\n  0x00\n    /* \"--CODEGEN--\":24:25   */\n  dup1\n    /* \"--CODEGEN--\":17:29   */\n  revert\n    /* \"--CODEGEN--\":2:4   */\ntag_1:\n    /* \"contracts/polygonUsdt/UChildERC20.sol\":42651:44683  contract EIP712Base is Initializable {... */\n  pop\n  dataSize(sub_0)\n  dup1\n  dataOffset(sub_0)\n  0x00\n  codecopy\n  0x00\n  return\nstop\n\nsub_0: assembly {\n        /* \"contracts/polygonUsdt/UChildERC20.sol\":42651:44683  contract EIP712Base is Initializable {... */\n      mstore(0x40, 0x80)\n      callvalue\n        /* \"--CODEGEN--\":5:14   */\n      dup1\n        /* \"--CODEGEN--\":2:4   */\n      iszero\n      tag_1\n      jumpi\n        /* \"--CODEGEN--\":27:28   */\n      0x00\n        /* \"--CODEGEN--\":24:25   */\n      dup1\n        /* \"--CODEGEN--\":17:29   */\n      revert\n        /* \"--CODEGEN--\":2:4   */\n    tag_1:\n        /* \"contracts/polygonUsdt/UChildERC20.sol\":42651:44683  contract EIP712Base is Initializable {... */\n      pop\n      jumpi(tag_2, lt(calldatasize, 0x04))\n      shr(0xe0, calldataload(0x00))\n      dup1\n      0x20379ee5\n      eq\n      tag_3\n      jumpi\n      dup1\n      0x3408e470\n      eq\n      tag_4\n      jumpi\n    tag_2:\n        /* \"--CODEGEN--\":12:13   */\n      0x00\n        /* \"--CODEGEN--\":9:10   */\n      dup1\n        /* \"--CODEGEN--\":2:14   */\n      revert\n        /* \"contracts/polygonUsdt/UChildERC20.sol\":43812:43911  function getDomainSeperator() public view returns (bytes32) {... */\n    tag_3:\n      tag_5\n      tag_6\n      jump\t// in\n    tag_5:\n      mload(0x40)\n      dup1\n      dup3\n      dup2\n      mstore\n      0x20\n      add\n      swap2\n      pop\n      pop\n      mload(0x40)\n      dup1\n      swap2\n      sub\n      swap1\n      return\n        /* \"contracts/polygonUsdt/UChildERC20.sol\":43917:44072  function getChainId() public pure returns (uint256) {... */\n    tag_4:\n      tag_7\n      tag_8\n      jump\t// in\n    tag_7:\n      mload(0x40)\n      dup1\n      dup3\n      dup2\n      mstore\n      0x20\n      add\n      swap2\n      pop\n      pop\n      mload(0x40)\n      dup1\n      swap2\n      sub\n      swap1\n      return\n        /* \"contracts/polygonUsdt/UChildERC20.sol\":43812:43911  function getDomainSeperator() public view returns (bytes32) {... */\n    tag_6:\n        /* \"contracts/polygonUsdt/UChildERC20.sol\":43863:43870  bytes32 */\n      0x00\n        /* \"contracts/polygonUsdt/UChildERC20.sol\":43889:43904  domainSeperator */\n      sload(0x01)\n        /* \"contracts/polygonUsdt/UChildERC20.sol\":43882:43904  return domainSeperator */\n      swap1\n      pop\n        /* \"contracts/polygonUsdt/UChildERC20.sol\":43812:43911  function getDomainSeperator() public view returns (bytes32) {... */\n      swap1\n      jump\t// out\n        /* \"contracts/polygonUsdt/UChildERC20.sol\":43917:44072  function getChainId() public pure returns (uint256) {... */\n    tag_8:\n        /* \"contracts/polygonUsdt/UChildERC20.sol\":43960:43967  uint256 */\n      0x00\n        /* \"contracts/polygonUsdt/UChildERC20.sol\":43979:43989  uint256 id */\n      dup1\n        /* \"contracts/polygonUsdt/UChildERC20.sol\":44028:44037  chainid() */\n      chainid\n        /* \"contracts/polygonUsdt/UChildERC20.sol\":44022:44037  id := chainid() */\n      swap1\n      pop\n        /* \"contracts/polygonUsdt/UChildERC20.sol\":44063:44065  id */\n      dup1\n        /* \"contracts/polygonUsdt/UChildERC20.sol\":44056:44065  return id */\n      swap2\n      pop\n      pop\n        /* \"contracts/polygonUsdt/UChildERC20.sol\":43917:44072  function getChainId() public pure returns (uint256) {... */\n      swap1\n      jump\t// out\n\n    auxdata: 0xa2646970667358221220d77e8aa31e748e58ca9da5f3780f2a19c3af533879423e42d29a64c34e373f9764736f6c63430006060033\n}\n",
				"bytecode": {
					"linkReferences": {},
					"object": "608060405260008060006101000a81548160ff02191690831515021790555034801561002a57600080fd5b5060bc806100396000396000f3fe6080604052348015600f57600080fd5b506004361060325760003560e01c806320379ee51460375780633408e470146053575b600080fd5b603d606f565b6040518082815260200191505060405180910390f35b60596079565b6040518082815260200191505060405180910390f35b6000600154905090565b600080469050809150509056fea2646970667358221220d77e8aa31e748e58ca9da5f3780f2a19c3af533879423e42d29a64c34e373f9764736f6c63430006060033",
					"opcodes": "PUSH1 0x80 PUSH1 0x40 MSTORE PUSH1 0x0 DUP1 PUSH1 0x0 PUSH2 0x100 EXP DUP2 SLOAD DUP2 PUSH1 0xFF MUL NOT AND SWAP1 DUP4 ISZERO ISZERO MUL OR SWAP1 SSTORE POP CALLVALUE DUP1 ISZERO PUSH2 0x2A JUMPI PUSH1 0x0 DUP1 REVERT JUMPDEST POP PUSH1 0xBC DUP1 PUSH2 0x39 PUSH1 0x0 CODECOPY PUSH1 0x0 RETURN INVALID PUSH1 0x80 PUSH1 0x40 MSTORE CALLVALUE DUP1 ISZERO PUSH1 0xF JUMPI PUSH1 0x0 DUP1 REVERT JUMPDEST POP PUSH1 0x4 CALLDATASIZE LT PUSH1 0x32 JUMPI PUSH1 0x0 CALLDATALOAD PUSH1 0xE0 SHR DUP1 PUSH4 0x20379EE5 EQ PUSH1 0x37 JUMPI DUP1 PUSH4 0x3408E470 EQ PUSH1 0x53 JUMPI JUMPDEST PUSH1 0x0 DUP1 REVERT JUMPDEST PUSH1 0x3D PUSH1 0x6F JUMP JUMPDEST PUSH1 0x40 MLOAD DUP1 DUP3 DUP2 MSTORE PUSH1 0x20 ADD SWAP2 POP POP PUSH1 0x40 MLOAD DUP1 SWAP2 SUB SWAP1 RETURN JUMPDEST PUSH1 0x59 PUSH1 0x79 JUMP JUMPDEST PUSH1 0x40 MLOAD DUP1 DUP3 DUP2 MSTORE PUSH1 0x20 ADD SWAP2 POP POP PUSH1 0x40 MLOAD DUP1 SWAP2 SUB SWAP1 RETURN JUMPDEST PUSH1 0x0 PUSH1 0x1 SLOAD SWAP1 POP SWAP1 JUMP JUMPDEST PUSH1 0x0 DUP1 CHAINID SWAP1 POP DUP1 SWAP2 POP POP SWAP1 JUMP INVALID LOG2 PUSH5 0x6970667358 0x22 SLT KECCAK256 0xD7 PUSH31 0x8AA31E748E58CA9DA5F3780F2A19C3AF533879423E42D29A64C34E373F9764 PUSH20 0x6F6C634300060600330000000000000000000000 "
				},
				"gasEstimates": {
					"creation": {
						"codeDepositCost": "37600",
						"executionCost": "20954",
						"totalCost": "58554"
					},
					"external": {
						"getChainId()": "225",
						"getDomainSeperator()": "991"
					},
					"internal": {
						"_initializeEIP712(string memory,string memory)": "infinite",
						"_setDomainSeperator(string memory,string memory)": "infinite",
						"toTypedMessageHash(bytes32)": "infinite"
					}
				},
				"methodIdentifiers": {
					"getChainId()": "3408e470",
					"getDomainSeperator()": "20379ee5"
				}
			},
			"storageLayout": {
				"storage": [
					{
						"astId": 1753,
						"contract": "contracts/polygonUsdt/UChildERC20.sol:EIP712Base",
						"label": "inited",
						"offset": 0,
						"slot": "0",
						"type": "t_bool"
					},
					{
						"astId": 1790,
						"contract": "contracts/polygonUsdt/UChildERC20.sol:EIP712Base",
						"label": "domainSeperator",
						"offset": 0,
						"slot": "1",
						"type": "t_bytes32"
					}
				],
				"types": {
					"t_bool": {
						"encoding": "inplace",
						"label": "bool",
						"numberOfBytes": "1"
					},
					"t_bytes32": {
						"encoding": "inplace",
						"label": "bytes32",
						"numberOfBytes": "32"
					}
				}
			},
			"userdoc": {
				"methods": {}
			}
		}
	}
}