{"abi":[{"type":"function","name":"DOMAIN_SEPARATOR","inputs":[],"outputs":[{"name":"","type":"bytes32","internalType":"bytes32"}],"stateMutability":"view"},{"type":"function","name":"GetInitializeData","inputs":[],"outputs":[{"name":"","type":"bytes","internalType":"bytes"}],"stateMutability":"pure"},{"type":"function","name":"MAX_UINT","inputs":[],"outputs":[{"name":"","type":"uint256","internalType":"uint256"}],"stateMutability":"view"},{"type":"function","name":"addFeeAccount","inputs":[{"name":"account","type":"address","internalType":"address"}],"outputs":[],"stateMutability":"nonpayable"},{"type":"function","name":"allowance","inputs":[{"name":"owner","type":"address","internalType":"address"},{"name":"spender","type":"address","internalType":"address"}],"outputs":[{"name":"","type":"uint256","internalType":"uint256"}],"stateMutability":"view"},{"type":"function","name":"approve","inputs":[{"name":"spender","type":"address","internalType":"address"},{"name":"amount","type":"uint256","internalType":"uint256"}],"outputs":[{"name":"","type":"bool","internalType":"bool"}],"stateMutability":"nonpayable"},{"type":"function","name":"approveAndCall","inputs":[{"name":"spender","type":"address","internalType":"address"},{"name":"amount","type":"uint256","internalType":"uint256"},{"name":"data","type":"bytes","internalType":"bytes"}],"outputs":[{"name":"","type":"bool","internalType":"bool"}],"stateMutability":"nonpayable"},{"type":"function","name":"balanceOf","inputs":[{"name":"account","type":"address","internalType":"address"}],"outputs":[{"name":"","type":"uint256","internalType":"uint256"}],"stateMutability":"view"},{"type":"function","name":"basisPointsRate","inputs":[],"outputs":[{"name":"","type":"uint256","internalType":"uint256"}],"stateMutability":"view"},{"type":"function","name":"batchTransfer","inputs":[{"name":"recipients","type":"address[]","internalType":"address[]"},{"name":"amounts","type":"uint256[]","internalType":"uint256[]"}],"outputs":[],"stateMutability":"nonpayable"},{"type":"function","name":"blacklist","inputs":[{"name":"_account","type":"address","internalType":"address"}],"outputs":[],"stateMutability":"nonpayable"},{"type":"function","name":"blacklister","inputs":[],"outputs":[{"name":"","type":"address","internalType":"address"}],"stateMutability":"view"},{"type":"function","name":"calcCommonFee","inputs":[{"name":"_value","type":"uint256","internalType":"uint256"}],"outputs":[{"name":"","type":"uint256","internalType":"uint256"}],"stateMutability":"view"},{"type":"function","name":"calcFee","inputs":[{"name":"account","type":"address","internalType":"address"},{"name":"_value","type":"uint256","internalType":"uint256"}],"outputs":[{"name":"_fee","type":"uint256","internalType":"uint256"}],"stateMutability":"view"},{"type":"function","name":"currency","inputs":[],"outputs":[{"name":"","type":"string","internalType":"string"}],"stateMutability":"view"},{"type":"function","name":"decimals","inputs":[],"outputs":[{"name":"","type":"uint8","internalType":"uint8"}],"stateMutability":"view"},{"type":"function","name":"decreaseAllowance","inputs":[{"name":"spender","type":"address","internalType":"address"},{"name":"decrement","type":"uint256","internalType":"uint256"}],"outputs":[{"name":"","type":"bool","internalType":"bool"}],"stateMutability":"nonpayable"},{"type":"function","name":"eip712Domain","inputs":[],"outputs":[{"name":"fields","type":"bytes1","internalType":"bytes1"},{"name":"name","type":"string","internalType":"string"},{"name":"version","type":"string","internalType":"string"},{"name":"chainId","type":"uint256","internalType":"uint256"},{"name":"verifyingContract","type":"address","internalType":"address"},{"name":"salt","type":"bytes32","internalType":"bytes32"},{"name":"extensions","type":"uint256[]","internalType":"uint256[]"}],"stateMutability":"view"},{"type":"function","name":"feeAccountKeys","inputs":[{"name":"","type":"uint256","internalType":"uint256"}],"outputs":[{"name":"","type":"address","internalType":"address"}],"stateMutability":"view"},{"type":"function","name":"feeAccounts","inputs":[{"name":"","type":"address","internalType":"address"}],"outputs":[{"name":"","type":"uint256","internalType":"uint256"}],"stateMutability":"view"},{"type":"function","name":"feeRateAccounts","inputs":[{"name":"","type":"address","internalType":"address"}],"outputs":[{"name":"","type":"uint256","internalType":"uint256"}],"stateMutability":"view"},{"type":"function","name":"getFeeAccounts","inputs":[],"outputs":[{"name":"","type":"address[]","internalType":"address[]"}],"stateMutability":"view"},{"type":"function","name":"increaseAllowance","inputs":[{"name":"spender","type":"address","internalType":"address"},{"name":"increment","type":"uint256","internalType":"uint256"}],"outputs":[{"name":"","type":"bool","internalType":"bool"}],"stateMutability":"nonpayable"},{"type":"function","name":"initialize","inputs":[{"name":"name_","type":"string","internalType":"string"},{"name":"symbol_","type":"string","internalType":"string"}],"outputs":[],"stateMutability":"nonpayable"},{"type":"function","name":"isBlacklisted","inputs":[{"name":"_account","type":"address","internalType":"address"}],"outputs":[{"name":"","type":"bool","internalType":"bool"}],"stateMutability":"view"},{"type":"function","name":"maximumFee","inputs":[],"outputs":[{"name":"","type":"uint256","internalType":"uint256"}],"stateMutability":"view"},{"type":"function","name":"mint","inputs":[{"name":"to","type":"address","internalType":"address"},{"name":"amount","type":"uint256","internalType":"uint256"}],"outputs":[],"stateMutability":"nonpayable"},{"type":"function","name":"name","inputs":[],"outputs":[{"name":"","type":"string","internalType":"string"}],"stateMutability":"view"},{"type":"function","name":"nonces","inputs":[{"name":"owner","type":"address","internalType":"address"}],"outputs":[{"name":"","type":"uint256","internalType":"uint256"}],"stateMutability":"view"},{"type":"function","name":"owner","inputs":[],"outputs":[{"name":"","type":"address","internalType":"address"}],"stateMutability":"view"},{"type":"function","name":"paused","inputs":[],"outputs":[{"name":"","type":"bool","internalType":"bool"}],"stateMutability":"view"},{"type":"function","name":"permit","inputs":[{"name":"owner","type":"address","internalType":"address"},{"name":"spender","type":"address","internalType":"address"},{"name":"value","type":"uint256","internalType":"uint256"},{"name":"deadline","type":"uint256","internalType":"uint256"},{"name":"v","type":"uint8","internalType":"uint8"},{"name":"r","type":"bytes32","internalType":"bytes32"},{"name":"s","type":"bytes32","internalType":"bytes32"}],"outputs":[],"stateMutability":"nonpayable"},{"type":"function","name":"removeFeeAccount","inputs":[{"name":"account","type":"address","internalType":"address"}],"outputs":[],"stateMutability":"nonpayable"},{"type":"function","name":"renounceOwnership","inputs":[],"outputs":[],"stateMutability":"nonpayable"},{"type":"function","name":"setAccountBasisPointsRate","inputs":[{"name":"account","type":"address","internalType":"address"},{"name":"newBasisPoints","type":"uint256","internalType":"uint256"}],"outputs":[{"name":"","type":"bool","internalType":"bool"}],"stateMutability":"nonpayable"},{"type":"function","name":"setParams","inputs":[{"name":"newBasisPoints","type":"uint256","internalType":"uint256"},{"name":"newMaxFee","type":"uint256","internalType":"uint256"}],"outputs":[{"name":"","type":"bool","internalType":"bool"}],"stateMutability":"nonpayable"},{"type":"function","name":"symbol","inputs":[],"outputs":[{"name":"","type":"string","internalType":"string"}],"stateMutability":"view"},{"type":"function","name":"totalFee","inputs":[{"name":"_account","type":"address","internalType":"address"}],"outputs":[{"name":"","type":"uint256","internalType":"uint256"}],"stateMutability":"view"},{"type":"function","name":"totalSupply","inputs":[],"outputs":[{"name":"","type":"uint256","internalType":"uint256"}],"stateMutability":"view"},{"type":"function","name":"transfer","inputs":[{"name":"to","type":"address","internalType":"address"},{"name":"amount","type":"uint256","internalType":"uint256"}],"outputs":[{"name":"","type":"bool","internalType":"bool"}],"stateMutability":"nonpayable"},{"type":"function","name":"transferFee","inputs":[{"name":"feeAccount","type":"address","internalType":"address"},{"name":"to","type":"address","internalType":"address"},{"name":"value","type":"uint256","internalType":"uint256"},{"name":"orderId","type":"bytes","internalType":"bytes"}],"outputs":[{"name":"","type":"bool","internalType":"bool"}],"stateMutability":"nonpayable"},{"type":"function","name":"transferFrom","inputs":[{"name":"from","type":"address","internalType":"address"},{"name":"to","type":"address","internalType":"address"},{"name":"amount","type":"uint256","internalType":"uint256"}],"outputs":[{"name":"","type":"bool","internalType":"bool"}],"stateMutability":"nonpayable"},{"type":"function","name":"transferOwnership","inputs":[{"name":"newOwner","type":"address","internalType":"address"}],"outputs":[],"stateMutability":"nonpayable"},{"type":"function","name":"transferWithAuthorizationFee","inputs":[{"name":"feeAccount","type":"address","internalType":"address"},{"name":"from","type":"address","internalType":"address"},{"name":"to","type":"address","internalType":"address"},{"name":"value","type":"uint256","internalType":"uint256"},{"name":"validAfter","type":"uint256","internalType":"uint256"},{"name":"validBefore","type":"uint256","internalType":"uint256"},{"name":"nonce","type":"bytes32","internalType":"bytes32"},{"name":"v","type":"uint8","internalType":"uint8"},{"name":"r","type":"bytes32","internalType":"bytes32"},{"name":"s","type":"bytes32","internalType":"bytes32"},{"name":"orderId","type":"bytes","internalType":"bytes"}],"outputs":[],"stateMutability":"nonpayable"},{"type":"function","name":"transferWithAuthorizationFee","inputs":[{"name":"feeAccount","type":"address","internalType":"address"},{"name":"from","type":"address","internalType":"address"},{"name":"to","type":"address","internalType":"address"},{"name":"value","type":"uint256","internalType":"uint256"},{"name":"validAfter","type":"uint256","internalType":"uint256"},{"name":"validBefore","type":"uint256","internalType":"uint256"},{"name":"nonce","type":"bytes32","internalType":"bytes32"},{"name":"signature","type":"bytes","internalType":"bytes"},{"name":"orderId","type":"bytes","internalType":"bytes"}],"outputs":[],"stateMutability":"nonpayable"},{"type":"function","name":"unBlacklist","inputs":[{"name":"_account","type":"address","internalType":"address"}],"outputs":[],"stateMutability":"nonpayable"},{"type":"function","name":"updateBlacklister","inputs":[{"name":"_newBlacklister","type":"address","internalType":"address"}],"outputs":[],"stateMutability":"nonpayable"},{"type":"function","name":"updateCurrency","inputs":[{"name":"_currency","type":"string","internalType":"string"}],"outputs":[],"stateMutability":"nonpayable"},{"type":"function","name":"updateDecimals","inputs":[{"name":"upDecimals","type":"uint8","internalType":"uint8"}],"outputs":[{"name":"","type":"bool","internalType":"bool"}],"stateMutability":"nonpayable"},{"type":"function","name":"updateFeeAccountAmount","inputs":[{"name":"account","type":"address","internalType":"address"},{"name":"amount","type":"uint256","internalType":"uint256"}],"outputs":[],"stateMutability":"nonpayable"},{"type":"function","name":"updateRole","inputs":[{"name":"initBasisPointsRate","type":"uint256","internalType":"uint256"},{"name":"initMaximumFee","type":"uint256","internalType":"uint256"},{"name":"newMasterMinter","type":"address","internalType":"address"},{"name":"newBlacklister","type":"address","internalType":"address"},{"name":"newPauser","type":"address","internalType":"address"},{"name":"newOwner","type":"address","internalType":"address"},{"name":"lostAndFound","type":"address","internalType":"address"}],"outputs":[],"stateMutability":"nonpayable"},{"type":"event","name":"Approval","inputs":[{"name":"owner","type":"address","indexed":true,"internalType":"address"},{"name":"spender","type":"address","indexed":true,"internalType":"address"},{"name":"value","type":"uint256","indexed":false,"internalType":"uint256"}],"anonymous":false},{"type":"event","name":"Blacklisted","inputs":[{"name":"_account","type":"address","indexed":true,"internalType":"address"}],"anonymous":false},{"type":"event","name":"BlacklisterChanged","inputs":[{"name":"newBlacklister","type":"address","indexed":true,"internalType":"address"}],"anonymous":false},{"type":"event","name":"Burn","inputs":[{"name":"burner","type":"address","indexed":true,"internalType":"address"},{"name":"amount","type":"uint256","indexed":false,"internalType":"uint256"}],"anonymous":false},{"type":"event","name":"EIP712DomainChanged","inputs":[],"anonymous":false},{"type":"event","name":"Initialized","inputs":[{"name":"version","type":"uint8","indexed":false,"internalType":"uint8"}],"anonymous":false},{"type":"event","name":"Mint","inputs":[{"name":"minter","type":"address","indexed":true,"internalType":"address"},{"name":"to","type":"address","indexed":true,"internalType":"address"},{"name":"amount","type":"uint256","indexed":false,"internalType":"uint256"}],"anonymous":false},{"type":"event","name":"OwnershipTransferred","inputs":[{"name":"previousOwner","type":"address","indexed":true,"internalType":"address"},{"name":"newOwner","type":"address","indexed":true,"internalType":"address"}],"anonymous":false},{"type":"event","name":"Params","inputs":[{"name":"feeBasisPoints","type":"uint256","indexed":false,"internalType":"uint256"},{"name":"maxFee","type":"uint256","indexed":false,"internalType":"uint256"}],"anonymous":false},{"type":"event","name":"Paused","inputs":[{"name":"account","type":"address","indexed":false,"internalType":"address"}],"anonymous":false},{"type":"event","name":"Transfer","inputs":[{"name":"from","type":"address","indexed":true,"internalType":"address"},{"name":"to","type":"address","indexed":true,"internalType":"address"},{"name":"value","type":"uint256","indexed":false,"internalType":"uint256"}],"anonymous":false},{"type":"event","name":"TransferFee","inputs":[{"name":"from","type":"address","indexed":true,"internalType":"address"},{"name":"to","type":"address","indexed":true,"internalType":"address"},{"name":"value","type":"uint256","indexed":false,"internalType":"uint256"},{"name":"orderId","type":"bytes","indexed":false,"internalType":"bytes"}],"anonymous":false},{"type":"event","name":"TransferWithRSV","inputs":[{"name":"from","type":"address","indexed":true,"internalType":"address"},{"name":"to","type":"address","indexed":true,"internalType":"address"},{"name":"nonce","type":"bytes32","indexed":true,"internalType":"bytes32"},{"name":"orderId","type":"bytes","indexed":false,"internalType":"bytes"},{"name":"value","type":"uint256","indexed":false,"internalType":"uint256"},{"name":"validAfter","type":"uint256","indexed":false,"internalType":"uint256"},{"name":"validBefore","type":"uint256","indexed":false,"internalType":"uint256"}],"anonymous":false},{"type":"event","name":"TransferWithSign","inputs":[{"name":"from","type":"address","indexed":true,"internalType":"address"},{"name":"to","type":"address","indexed":true,"internalType":"address"},{"name":"nonce","type":"bytes32","indexed":true,"internalType":"bytes32"},{"name":"orderId","type":"bytes","indexed":false,"internalType":"bytes"},{"name":"value","type":"uint256","indexed":false,"internalType":"uint256"},{"name":"validAfter","type":"uint256","indexed":false,"internalType":"uint256"},{"name":"validBefore","type":"uint256","indexed":false,"internalType":"uint256"}],"anonymous":false},{"type":"event","name":"UnBlacklisted","inputs":[{"name":"_account","type":"address","indexed":true,"internalType":"address"}],"anonymous":false},{"type":"event","name":"Unpaused","inputs":[{"name":"account","type":"address","indexed":false,"internalType":"address"}],"anonymous":false}],"bytecode":{"object":"0x6080604052348015600f57600080fd5b50614c2f8061001f6000396000f3fe608060405234801561001057600080fd5b50600436106103415760003560e01c806384b0196e116101bd578063d3d655f8116100f9578063e2e71f93116100a2578063efb07c411161007c578063efb07c411461086e578063f2fde38b1461088f578063f9f92be4146108a2578063fe575a87146108b557600080fd5b8063e2e71f931461081e578063e5a6b10f1461083f578063e5b5019a1461084757600080fd5b8063dd62ed3e116100d3578063dd62ed3e146107bb578063dd644f7214610801578063e28533b41461080b57600080fd5b8063d3d655f8146106a4578063d505accf14610795578063d6a7e169146107a857600080fd5b8063a457c2d711610166578063adbd6c9911610140578063adbd6c991461064a578063bd1024301461065d578063c0324c771461067e578063cae9ca511461069157600080fd5b8063a457c2d714610611578063a9059cbb14610624578063ad38bf221461063757600080fd5b806395d89b411161019757806395d89b41146105e3578063a0cf7edf146105eb578063a33a696b146105fe57600080fd5b806384b0196e1461059657806388d695b2146105b15780638da5cb5b146105c457600080fd5b80633644e5151161028c5780635c975abb1161023557806370a082311161020f57806370a0823114610532578063715018a6146105685780637a4fda3d146105705780637ecebe001461058357600080fd5b80635c975abb146104ff57806361d8b9fe1461050a57806361f3b7b01461051f57600080fd5b806340c10f191161026657806340c10f19146104c65780634cd88b76146104d9578063592851df146104ec57600080fd5b80633644e5151461049857806339509351146104a05780633c5f0583146104b357600080fd5b806323b872dd116102ee578063313ce567116102c8578063313ce5671461046557806332786e761461047b578063353907141461048e57600080fd5b806323b872dd1461040757806323da31671461041a5780632f9aa3f71461042d57600080fd5b806318160ddd1161031f57806318160ddd146103cd5780631a895266146103df5780631d16c3ee146103f457600080fd5b806306fdde0314610346578063095ea7b3146103645780630ce83a6114610387575b600080fd5b61034e6108c8565b60405161035b9190613f07565b60405180910390f35b610377610372366004613f43565b61095a565b604051901515815260200161035b565b610377610395366004613f7e565b61016280547fffffffffffffffffffffffffffffffffffffffffffffffffffffffffffffff001660ff92909216919091179055600190565b6035545b60405190815260200161035b565b6103f26103ed366004613f99565b610974565b005b6103d1610402366004613f43565b610a6e565b610377610415366004613fb4565b610b92565b6103f2610428366004613f43565b610bb6565b61044061043b366004613ff1565b610c18565b60405173ffffffffffffffffffffffffffffffffffffffff909116815260200161035b565b6101625460405160ff909116815260200161035b565b6103f261048936600461411d565b610c50565b6103d16101655481565b6103d1610fee565b6103776104ae366004613f43565b610ffd565b6103776104c1366004613f43565b61117b565b6103f26104d4366004613f43565b61123b565b6103f26104e73660046141da565b611251565b6103f26104fa366004613f99565b611400565b60cc5460ff16610377565b6105126114d8565b60405161035b9190614243565b6103d161052d366004613ff1565b611547565b6103d1610540366004613f99565b73ffffffffffffffffffffffffffffffffffffffff1660009081526033602052604090205490565b6103f261157e565b6103d161057e366004613f99565b611592565b6103d1610591366004613f99565b611661565b61059e61168c565b60405161035b979695949392919061429c565b6103f26105bf3660046143e4565b611768565b6101305473ffffffffffffffffffffffffffffffffffffffff16610440565b61034e61184a565b6103776105f93660046144a3565b611859565b6103f261060c36600461450b565b611ad5565b61037761061f366004613f43565b611b27565b610377610632366004613f43565b611c99565b6103f2610645366004613f99565b611ca7565b6103f2610658366004614583565b611dc2565b610169546104409073ffffffffffffffffffffffffffffffffffffffff1681565b61037761068c366004614645565b6120e8565b61037761069f366004614667565b612182565b61034e604080516024810191909152600960648201527f6a647363544f6b656e0000000000000000000000000000000000000000000000608482015260806044820152600460a48201527f6a6473630000000000000000000000000000000000000000000000000000000060c482015260609060e401604080517fffffffffffffffffffffffffffffffffffffffffffffffffffffffffffffffe08184030181529190526020810180517bffffffffffffffffffffffffffffffffffffffffffffffffffffffff167f4cd88b7600000000000000000000000000000000000000000000000000000000179052919050565b6103f26107a33660046146be565b612263565b6103f26107b6366004614729565b612422565b6103d16107c936600461475e565b73ffffffffffffffffffffffffffffffffffffffff918216600090815260346020908152604080832093909416825291909152205490565b6103d16101645481565b6103f2610819366004613f99565b61242f565b6103d161082c366004613f99565b6101666020526000908152604090205481565b61034e6124ec565b6103d17fffffffffffffffffffffffffffffffffffffffffffffffffffffffffffffffff81565b6103d161087c366004613f99565b6101676020526000908152604090205481565b6103f261089d366004613f99565b61257b565b6103f26108b0366004613f99565b612632565b6103776108c3366004613f99565b612727565b6060603680546108d790614791565b80601f016020809104026020016040519081016040528092919081815260200182805461090390614791565b80156109505780601f1061092557610100808354040283529160200191610950565b820191906000526020600020905b81548152906001019060200180831161093357829003601f168201915b5050505050905090565b600033610968818585612759565b60019150505b92915050565b6101695473ffffffffffffffffffffffffffffffffffffffff163314610a21576040517f08c379a000000000000000000000000000000000000000000000000000000000815260206004820152602c60248201527f426c61636b6c69737461626c653a2063616c6c6572206973206e6f742074686560448201527f20626c61636b6c6973746572000000000000000000000000000000000000000060648201526084015b60405180910390fd5b610a2a8161290c565b60405173ffffffffffffffffffffffffffffffffffffffff8216907f117e3210bb9aa7d9baff172026820255c6f6c30ba8999d1c2fd88e2848137c4e90600090a250565b73ffffffffffffffffffffffffffffffffffffffff82166000908152610167602052604081205480610aa457600091505061096e565b6000610abc6103e8610ab68685612917565b9061292a565b905083610aeb8673ffffffffffffffffffffffffffffffffffffffff1660009081526033602052604090205490565b1015610b79576040517f08c379a000000000000000000000000000000000000000000000000000000000815260206004820152602760248201527f496e73756666696369656e742062616c616e63652c206c696d6974207472616e60448201527f73616374696f6e000000000000000000000000000000000000000000000000006064820152608401610a18565b61016554811115610b8a5750610165545b949350505050565b600033610ba0858285612936565b610bab858585612a0d565b506001949350505050565b73ffffffffffffffffffffffffffffffffffffffff82166000908152610166602052604081205490610be8838361480d565b73ffffffffffffffffffffffffffffffffffffffff90941660009081526101666020526040902093909355505050565b6101688181548110610c2957600080fd5b60009182526020909120015473ffffffffffffffffffffffffffffffffffffffff16905081565b610c58612c8e565b610c60612cfb565b60006040518061016001604052808d73ffffffffffffffffffffffffffffffffffffffff1681526020018c73ffffffffffffffffffffffffffffffffffffffff1681526020018b73ffffffffffffffffffffffffffffffffffffffff1681526020018781526020018a81526020018981526020018881526020018660ff1681526020018581526020018481526020018381525090506000610d058d8360800151610a6e565b9050600080610d3a846020015173ffffffffffffffffffffffffffffffffffffffff1660009081526033602052604090205490565b90506000838560800151610d4e919061480d565b9050808210610d5f57846080015192505b846080015182118015610d7157508082105b15610d9a5760008411610d88578460800151610d97565b6080850151610d979085612d7d565b92505b610ea585602001518660200151876040015188608001518960a001518a60c001518b60600151604051602001610e229695949392919060e080825260009082015273ffffffffffffffffffffffffffffffffffffffff96871660208201529490951660408501526060840192909252608083015260a082015260c08101919091526101000190565b604051602081830303815290604052805190602001208761010001518861012001518960e00151604051602001610e9193929190928352602083019190915260f81b7fff0000000000000000000000000000000000000000000000000000000000000016604082015260410190565b604051602081830303815290604052612d89565b8315610f4457610ebe8560200151866000015186612a0d565b8460600151856000015173ffffffffffffffffffffffffffffffffffffffff16866020015173ffffffffffffffffffffffffffffffffffffffff167f5690fa527ba3033a8de5d65ce33d526393783b9f5f2172e072abbc8b849d5f30886101400151888a60a001518b60c00151604051610f3b9493929190614820565b60405180910390a45b610f578560200151866040015185612a0d565b8460600151856040015173ffffffffffffffffffffffffffffffffffffffff16866020015173ffffffffffffffffffffffffffffffffffffffff167f5690fa527ba3033a8de5d65ce33d526393783b9f5f2172e072abbc8b849d5f30886101400151878a60a001518b60c00151604051610fd49493929190614820565b60405180910390a450505050505050505050505050505050565b6000610ff8612e28565b905090565b6000611007612c8e565b33600081815261016a602052604090205460ff1c6001036110aa576040517f08c379a000000000000000000000000000000000000000000000000000000000815260206004820152602560248201527f426c61636b6c69737461626c653a206163636f756e7420697320626c61636b6c60448201527f69737465640000000000000000000000000000000000000000000000000000006064820152608401610a18565b73ffffffffffffffffffffffffffffffffffffffff8416600090815261016a6020526040902054849060ff1c600103611165576040517f08c379a000000000000000000000000000000000000000000000000000000000815260206004820152602560248201527f426c61636b6c69737461626c653a206163636f756e7420697320626c61636b6c60448201527f69737465640000000000000000000000000000000000000000000000000000006064820152608401610a18565b61116f8585612e32565b50600195945050505050565b600080821161120c576040517f08c379a000000000000000000000000000000000000000000000000000000000815260206004820152602960248201527f546865206e65774261736973506f696e7473206d75737420626520677265617460448201527f6572207468616e203000000000000000000000000000000000000000000000006064820152608401610a18565b5073ffffffffffffffffffffffffffffffffffffffff9190911660009081526101676020526040902055600190565b611243612cfb565b61124d8282612e7e565b5050565b600054610100900460ff16158080156112715750600054600160ff909116105b8061128b5750303b15801561128b575060005460ff166001145b611317576040517f08c379a000000000000000000000000000000000000000000000000000000000815260206004820152602e60248201527f496e697469616c697a61626c653a20636f6e747261637420697320616c72656160448201527f647920696e697469616c697a65640000000000000000000000000000000000006064820152608401610a18565b600080547fffffffffffffffffffffffffffffffffffffffffffffffffffffffffffffff00166001179055801561137557600080547fffffffffffffffffffffffffffffffffffffffffffffffffffffffffffff00ff166101001790555b61137f8383612f7f565b61138883613020565b6113906130f6565b611398613195565b80156113fb57600080547fffffffffffffffffffffffffffffffffffffffffffffffffffffffffffff00ff169055604051600181527f7f26b83ff96e1f2b6a682f133852f6798a09c465da95921460cefb38474024989060200160405180910390a15b505050565b73ffffffffffffffffffffffffffffffffffffffff81166000908152610166602052604081208190555b6101685481101561124d578173ffffffffffffffffffffffffffffffffffffffff1661016882815481106114605761146061484f565b60009182526020909120015473ffffffffffffffffffffffffffffffffffffffff16036114d057610168818154811061149b5761149b61484f565b600091825260209091200180547fffffffffffffffffffffffff00000000000000000000000000000000000000001690555050565b60010161142a565b606061016880548060200260200160405190810160405280929190818152602001828054801561095057602002820191906000526020600020905b815473ffffffffffffffffffffffffffffffffffffffff168152600190910190602001808311611513575050505050905090565b6000806115666103e8610ab6610164548661291790919063ffffffff16565b90506101655481111561096e57506101655492915050565b611586612cfb565b6115906000613234565b565b600073ffffffffffffffffffffffffffffffffffffffff8216611637576040517f08c379a000000000000000000000000000000000000000000000000000000000815260206004820152602e60248201527f546f6b656e5570677261646561626c653a205f6163636f756e7420697320746860448201527f65207a65726f20616464726573730000000000000000000000000000000000006064820152608401610a18565b5073ffffffffffffffffffffffffffffffffffffffff166000908152610166602052604090205490565b73ffffffffffffffffffffffffffffffffffffffff811660009081526099602052604081205461096e565b6000606080600080600060606065546000801b1480156116ac5750606654155b611712576040517f08c379a000000000000000000000000000000000000000000000000000000000815260206004820152601560248201527f4549503731323a20556e696e697469616c697a656400000000000000000000006044820152606401610a18565b61171a6132ac565b6117226132bb565b604080516000808252602082019092527f0f000000000000000000000000000000000000000000000000000000000000009b939a50919850469750309650945092509050565b80518251146117f9576040517f08c379a000000000000000000000000000000000000000000000000000000000815260206004820152602660248201527f526563697069656e747320616e6420616d6f756e7473206c656e677468206d6960448201527f736d6174636800000000000000000000000000000000000000000000000000006064820152608401610a18565b60005b82518110156113fb5761184183828151811061181a5761181a61484f565b60200260200101518383815181106118345761183461484f565b6020026020010151611c99565b506001016117fc565b6060603780546108d790614791565b6000611863612c8e565b61186b612cfb565b73ffffffffffffffffffffffffffffffffffffffff851661190e576040517f08c379a000000000000000000000000000000000000000000000000000000000815260206004820152603160248201527f546f6b656e5570677261646561626c653a205f6665654163636f756e7420697360448201527f20746865207a65726f20616464726573730000000000000000000000000000006064820152608401610a18565b8373ffffffffffffffffffffffffffffffffffffffff168573ffffffffffffffffffffffffffffffffffffffff16036119bb5761194c338585612a0d565b8373ffffffffffffffffffffffffffffffffffffffff163373ffffffffffffffffffffffffffffffffffffffff167fe5f5a77bcbc6fb8b30a58910ee555f15bc383654b86d839c21901e0b42c474f585856040516119ab92919061487e565b60405180910390a3506001610b8a565b84848460006119ca8483610a6e565b905060006119d88383612d7d565b90506119e5338583612a0d565b8373ffffffffffffffffffffffffffffffffffffffff163373ffffffffffffffffffffffffffffffffffffffff167fe5f5a77bcbc6fb8b30a58910ee555f15bc383654b86d839c21901e0b42c474f5838a604051611a4492919061487e565b60405180910390a38115611ac557611a5d338684612a0d565b8473ffffffffffffffffffffffffffffffffffffffff163373ffffffffffffffffffffffffffffffffffffffff167fe5f5a77bcbc6fb8b30a58910ee555f15bc383654b86d839c21901e0b42c474f5848a604051611abc92919061487e565b60405180910390a35b5060019998505050505050505050565b610164879055610165869055611aea84611ca7565b611af38261257b565b306000908152603360205260409020548015611b1457611b14308383612a0d565b611b1d306132ca565b5050505050505050565b6000611b31612c8e565b33600081815261016a602052604090205460ff1c600103611bd4576040517f08c379a000000000000000000000000000000000000000000000000000000000815260206004820152602560248201527f426c61636b6c69737461626c653a206163636f756e7420697320626c61636b6c60448201527f69737465640000000000000000000000000000000000000000000000000000006064820152608401610a18565b73ffffffffffffffffffffffffffffffffffffffff8416600090815261016a6020526040902054849060ff1c600103611c8f576040517f08c379a000000000000000000000000000000000000000000000000000000000815260206004820152602560248201527f426c61636b6c69737461626c653a206163636f756e7420697320626c61636b6c60448201527f69737465640000000000000000000000000000000000000000000000000000006064820152608401610a18565b61116f85856132d5565b600033610968818585612a0d565b611caf612cfb565b73ffffffffffffffffffffffffffffffffffffffff8116611d52576040517f08c379a000000000000000000000000000000000000000000000000000000000815260206004820152603560248201527f546f6b656e5570677261646561626c653a206e657720626c61636b6c6973746560448201527f7220697320746865207a65726f206164647265737300000000000000000000006064820152608401610a18565b61016980547fffffffffffffffffffffffff00000000000000000000000000000000000000001673ffffffffffffffffffffffffffffffffffffffff83169081179091556040517fc67398012c111ce95ecb7429b933096c977380ee6c421175a71a4a4c6c88c06e90600090a250565b611dca612c8e565b611dd2612cfb565b60006040518061012001604052808b73ffffffffffffffffffffffffffffffffffffffff1681526020018a73ffffffffffffffffffffffffffffffffffffffff1681526020018973ffffffffffffffffffffffffffffffffffffffff1681526020018581526020018881526020018781526020018681526020018481526020018381525090506000611e688b8360800151610a6e565b9050600080611e998c73ffffffffffffffffffffffffffffffffffffffff1660009081526033602052604090205490565b90506000838560800151611ead919061480d565b9050808210611ebe57846080015192505b846080015182118015611ed057508082105b15611ef95760008411611ee7578460800151611ef6565b6080850151611ef69085612d7d565b92505b611fa185602001518660200151876040015188608001518960a001518a60c001518b60600151604051602001611f819695949392919060e080825260009082015273ffffffffffffffffffffffffffffffffffffffff96871660208201529490951660408501526060840192909252608083015260a082015260c08101919091526101000190565b604051602081830303815290604052805190602001208760e00151612d89565b831561204057611fba8560200151866000015186612a0d565b8460600151856000015173ffffffffffffffffffffffffffffffffffffffff16866020015173ffffffffffffffffffffffffffffffffffffffff167fce1a28344f56852d38b3a01342749d7f81e6382864ff947178bc0eef2242dc24886101000151888a60a001518b60c001516040516120379493929190614820565b60405180910390a45b6120538560200151866040015185612a0d565b8460600151856040015173ffffffffffffffffffffffffffffffffffffffff16866020015173ffffffffffffffffffffffffffffffffffffffff167fce1a28344f56852d38b3a01342749d7f81e6382864ff947178bc0eef2242dc24886101000151878a60a001518b60c001516040516120d09493929190614820565b60405180910390a45050505050505050505050505050565b60006120f2612cfb565b601483106120ff57600080fd5b6207a120821061210e57600080fd5b610164839055610162546121319061212a9060ff16600a6149ba565b8390612917565b610165819055610164546040517fb044a1e409eac5c48e5af22d4af52670dd1a99059537a78b31b48c6500a6354e92612171928252602082015260400190565b60405180910390a150600192915050565b600061218f338585612759565b60008473ffffffffffffffffffffffffffffffffffffffff16836040516121b691906149c9565b6000604051808303816000865af19150503d80600081146121f3576040519150601f19603f3d011682016040523d82523d6000602084013e6121f8565b606091505b5050905080610bab576040517f08c379a000000000000000000000000000000000000000000000000000000000815260206004820152601660248201527f43616c6c20746f207370656e646572206661696c6564000000000000000000006044820152606401610a18565b834211156122cd576040517f08c379a000000000000000000000000000000000000000000000000000000000815260206004820152601d60248201527f45524332305065726d69743a206578706972656420646561646c696e650000006044820152606401610a18565b60007f6e71edae12b1b97f4d1f60370fef10105fa2faae0126114a169c64845d6126c98888886122fc8c6133a6565b60408051602081019690965273ffffffffffffffffffffffffffffffffffffffff94851690860152929091166060840152608083015260a082015260c0810186905260e0016040516020818303038152906040528051906020012090506000612364826133db565b9050600061237482878787613423565b90508973ffffffffffffffffffffffffffffffffffffffff168173ffffffffffffffffffffffffffffffffffffffff161461240b576040517f08c379a000000000000000000000000000000000000000000000000000000000815260206004820152601e60248201527f45524332305065726d69743a20696e76616c6964207369676e617475726500006044820152606401610a18565b6124168a8a8a612759565b50505050505050505050565b61016361124d8282614a33565b73ffffffffffffffffffffffffffffffffffffffff81166000908152610166602090815260408083208390556101679091528120819055806124708361344b565b6113fb5761016880546001810182556000919091527f8077777ae4769de06cbfd1c0b8b1f653b51ec156d91a9aca16a4102f19e03d9e01805473ffffffffffffffffffffffffffffffffffffffff85167fffffffffffffffffffffffff0000000000000000000000000000000000000000909116179055505050565b61016380546124fa90614791565b80601f016020809104026020016040519081016040528092919081815260200182805461252690614791565b80156125735780601f1061254857610100808354040283529160200191612573565b820191906000526020600020905b81548152906001019060200180831161255657829003601f168201915b505050505081565b612583612cfb565b73ffffffffffffffffffffffffffffffffffffffff8116612626576040517f08c379a000000000000000000000000000000000000000000000000000000000815260206004820152602660248201527f4f776e61626c653a206e6577206f776e657220697320746865207a65726f206160448201527f64647265737300000000000000000000000000000000000000000000000000006064820152608401610a18565b61262f81613234565b50565b6101695473ffffffffffffffffffffffffffffffffffffffff1633146126da576040517f08c379a000000000000000000000000000000000000000000000000000000000815260206004820152602c60248201527f426c61636b6c69737461626c653a2063616c6c6572206973206e6f742074686560448201527f20626c61636b6c697374657200000000000000000000000000000000000000006064820152608401610a18565b6126e3816132ca565b60405173ffffffffffffffffffffffffffffffffffffffff8216907fffa4e6181777692565cf28528fc88fd1516ea86b56da075235fa575af6a4b85590600090a250565b73ffffffffffffffffffffffffffffffffffffffff8116600090815261016a602052604081205460ff1c60011461096e565b73ffffffffffffffffffffffffffffffffffffffff83166127fb576040517f08c379a0000000000000000000000000000000000000000000000000000000008152602060048201526024808201527f45524332303a20617070726f76652066726f6d20746865207a65726f2061646460448201527f72657373000000000000000000000000000000000000000000000000000000006064820152608401610a18565b73ffffffffffffffffffffffffffffffffffffffff821661289e576040517f08c379a000000000000000000000000000000000000000000000000000000000815260206004820152602260248201527f45524332303a20617070726f766520746f20746865207a65726f20616464726560448201527f73730000000000000000000000000000000000000000000000000000000000006064820152608401610a18565b73ffffffffffffffffffffffffffffffffffffffff83811660008181526034602090815260408083209487168084529482529182902085905590518481527f8c5be1e5ebec7d5bd14f71427d1e84f3dd0314c0f7b2291e5b200ac8c7c3b925910160405180910390a3505050565b61262f8160006134c6565b60006129238284614b4c565b9392505050565b60006129238284614b63565b73ffffffffffffffffffffffffffffffffffffffff8381166000908152603460209081526040808320938616835292905220547fffffffffffffffffffffffffffffffffffffffffffffffffffffffffffffffff8114612a0757818110156129fa576040517f08c379a000000000000000000000000000000000000000000000000000000000815260206004820152601d60248201527f45524332303a20696e73756666696369656e7420616c6c6f77616e63650000006044820152606401610a18565b612a078484848403612759565b50505050565b73ffffffffffffffffffffffffffffffffffffffff8316612ab0576040517f08c379a000000000000000000000000000000000000000000000000000000000815260206004820152602560248201527f45524332303a207472616e736665722066726f6d20746865207a65726f20616460448201527f64726573730000000000000000000000000000000000000000000000000000006064820152608401610a18565b73ffffffffffffffffffffffffffffffffffffffff8216612b53576040517f08c379a000000000000000000000000000000000000000000000000000000000815260206004820152602360248201527f45524332303a207472616e7366657220746f20746865207a65726f206164647260448201527f65737300000000000000000000000000000000000000000000000000000000006064820152608401610a18565b612b5e83838361356e565b73ffffffffffffffffffffffffffffffffffffffff831660009081526033602052604090205481811015612c14576040517f08c379a000000000000000000000000000000000000000000000000000000000815260206004820152602660248201527f45524332303a207472616e7366657220616d6f756e742065786365656473206260448201527f616c616e636500000000000000000000000000000000000000000000000000006064820152608401610a18565b73ffffffffffffffffffffffffffffffffffffffff80851660008181526033602052604080822086860390559286168082529083902080548601905591517fddf252ad1be2c89b69c2b068fc378daa952ba7f163c4a11628f55a4df523b3ef90612c819086815260200190565b60405180910390a3612a07565b60cc5460ff1615611590576040517f08c379a000000000000000000000000000000000000000000000000000000000815260206004820152601060248201527f5061757361626c653a20706175736564000000000000000000000000000000006044820152606401610a18565b6101305473ffffffffffffffffffffffffffffffffffffffff163314611590576040517f08c379a000000000000000000000000000000000000000000000000000000000815260206004820181905260248201527f4f776e61626c653a2063616c6c6572206973206e6f7420746865206f776e65726044820152606401610a18565b60006129238284614b9e565b612d9c83612d96846133db565b83613579565b6113fb576040517f08c379a000000000000000000000000000000000000000000000000000000000815260206004820152602360248201527f546f6b656e5570677261646561626c653a20696e76616c6964207369676e617460448201527f75726500000000000000000000000000000000000000000000000000000000006064820152608401610a18565b6000610ff86135f4565b33600081815260346020908152604080832073ffffffffffffffffffffffffffffffffffffffff871684529091528120549091906109689082908690612e7990879061480d565b612759565b73ffffffffffffffffffffffffffffffffffffffff8216612efb576040517f08c379a000000000000000000000000000000000000000000000000000000000815260206004820152601f60248201527f45524332303a206d696e7420746f20746865207a65726f2061646472657373006044820152606401610a18565b612f076000838361356e565b8060356000828254612f19919061480d565b909155505073ffffffffffffffffffffffffffffffffffffffff82166000818152603360209081526040808320805486019055518481527fddf252ad1be2c89b69c2b068fc378daa952ba7f163c4a11628f55a4df523b3ef910160405180910390a35050565b600054610100900460ff16613016576040517f08c379a000000000000000000000000000000000000000000000000000000000815260206004820152602b60248201527f496e697469616c697a61626c653a20636f6e7472616374206973206e6f74206960448201527f6e697469616c697a696e670000000000000000000000000000000000000000006064820152608401610a18565b61124d8282613668565b600054610100900460ff166130b7576040517f08c379a000000000000000000000000000000000000000000000000000000000815260206004820152602b60248201527f496e697469616c697a61626c653a20636f6e7472616374206973206e6f74206960448201527f6e697469616c697a696e670000000000000000000000000000000000000000006064820152608401610a18565b61262f816040518060400160405280600181526020017f3100000000000000000000000000000000000000000000000000000000000000815250613718565b600054610100900460ff1661318d576040517f08c379a000000000000000000000000000000000000000000000000000000000815260206004820152602b60248201527f496e697469616c697a61626c653a20636f6e7472616374206973206e6f74206960448201527f6e697469616c697a696e670000000000000000000000000000000000000000006064820152608401610a18565b6115906137d7565b600054610100900460ff1661322c576040517f08c379a000000000000000000000000000000000000000000000000000000000815260206004820152602b60248201527f496e697469616c697a61626c653a20636f6e7472616374206973206e6f74206960448201527f6e697469616c697a696e670000000000000000000000000000000000000000006064820152608401610a18565b611590613898565b610130805473ffffffffffffffffffffffffffffffffffffffff8381167fffffffffffffffffffffffff0000000000000000000000000000000000000000831681179093556040519116919082907f8be0079c531659141344cd1fd0a4f28419497f9722a3daafe3b4186f6b6457e090600090a35050565b6060606780546108d790614791565b6060606880546108d790614791565b61262f8160016134c6565b33600081815260346020908152604080832073ffffffffffffffffffffffffffffffffffffffff8716845290915281205490919083811015613399576040517f08c379a000000000000000000000000000000000000000000000000000000000815260206004820152602560248201527f45524332303a2064656372656173656420616c6c6f77616e63652062656c6f7760448201527f207a65726f0000000000000000000000000000000000000000000000000000006064820152608401610a18565b610bab8286868403612759565b73ffffffffffffffffffffffffffffffffffffffff811660009081526099602052604090208054600181018255905b50919050565b600061096e6133e8612e28565b836040517f19010000000000000000000000000000000000000000000000000000000000008152600281019290925260228201526042902090565b600080600061343487878787613938565b9150915061344181613a27565b5095945050505050565b6000805b610168548110156134bd578273ffffffffffffffffffffffffffffffffffffffff1661016882815481106134855761348561484f565b60009182526020909120015473ffffffffffffffffffffffffffffffffffffffff16036134b55750600192915050565b60010161344f565b50600092915050565b806134f65773ffffffffffffffffffffffffffffffffffffffff8216600090815260336020526040902054613540565b73ffffffffffffffffffffffffffffffffffffffff8216600090815261016a60205260409020547f8000000000000000000000000000000000000000000000000000000000000000175b73ffffffffffffffffffffffffffffffffffffffff909216600090815261016a602052604090209190915550565b6113fb838383613bda565b60008060006135888585613c6d565b909250905060008160048111156135a1576135a1614bb1565b1480156135d957508573ffffffffffffffffffffffffffffffffffffffff168273ffffffffffffffffffffffffffffffffffffffff16145b806135ea57506135ea868686613cb2565b9695505050505050565b60007f8b73c3c69bb8fe3d512ecc4cf759cc79239f7b179b0ffacaa9a75d522b39400f61361f613e0f565b613627613e68565b60408051602081019490945283019190915260608201524660808201523060a082015260c00160405160208183030381529060405280519060200120905090565b600054610100900460ff166136ff576040517f08c379a000000000000000000000000000000000000000000000000000000000815260206004820152602b60248201527f496e697469616c697a61626c653a20636f6e7472616374206973206e6f74206960448201527f6e697469616c697a696e670000000000000000000000000000000000000000006064820152608401610a18565b603661370b8382614a33565b5060376113fb8282614a33565b600054610100900460ff166137af576040517f08c379a000000000000000000000000000000000000000000000000000000000815260206004820152602b60248201527f496e697469616c697a61626c653a20636f6e7472616374206973206e6f74206960448201527f6e697469616c697a696e670000000000000000000000000000000000000000006064820152608401610a18565b60676137bb8382614a33565b5060686137c88282614a33565b50506000606581905560665550565b600054610100900460ff1661386e576040517f08c379a000000000000000000000000000000000000000000000000000000000815260206004820152602b60248201527f496e697469616c697a61626c653a20636f6e7472616374206973206e6f74206960448201527f6e697469616c697a696e670000000000000000000000000000000000000000006064820152608401610a18565b60cc80547fffffffffffffffffffffffffffffffffffffffffffffffffffffffffffffff00169055565b600054610100900460ff1661392f576040517f08c379a000000000000000000000000000000000000000000000000000000000815260206004820152602b60248201527f496e697469616c697a61626c653a20636f6e7472616374206973206e6f74206960448201527f6e697469616c697a696e670000000000000000000000000000000000000000006064820152608401610a18565b61159033613234565b6000807f7fffffffffffffffffffffffffffffff5d576e7357a4501ddfe92f46681b20a083111561396f5750600090506003613a1e565b6040805160008082526020820180845289905260ff881692820192909252606081018690526080810185905260019060a0016020604051602081039080840390855afa1580156139c3573d6000803e3d6000fd5b50506040517fffffffffffffffffffffffffffffffffffffffffffffffffffffffffffffffe0015191505073ffffffffffffffffffffffffffffffffffffffff8116613a1757600060019250925050613a1e565b9150600090505b94509492505050565b6000816004811115613a3b57613a3b614bb1565b03613a435750565b6001816004811115613a5757613a57614bb1565b03613abe576040517f08c379a000000000000000000000000000000000000000000000000000000000815260206004820152601860248201527f45434453413a20696e76616c6964207369676e617475726500000000000000006044820152606401610a18565b6002816004811115613ad257613ad2614bb1565b03613b39576040517f08c379a000000000000000000000000000000000000000000000000000000000815260206004820152601f60248201527f45434453413a20696e76616c6964207369676e6174757265206c656e677468006044820152606401610a18565b6003816004811115613b4d57613b4d614bb1565b0361262f576040517f08c379a000000000000000000000000000000000000000000000000000000000815260206004820152602260248201527f45434453413a20696e76616c6964207369676e6174757265202773272076616c60448201527f75650000000000000000000000000000000000000000000000000000000000006064820152608401610a18565b60cc5460ff16156113fb576040517f08c379a000000000000000000000000000000000000000000000000000000000815260206004820152602a60248201527f45524332305061757361626c653a20746f6b656e207472616e7366657220776860448201527f696c6520706175736564000000000000000000000000000000000000000000006064820152608401610a18565b6000808251604103613ca35760208301516040840151606085015160001a613c9787828585613938565b94509450505050613cab565b506000905060025b9250929050565b60008060008573ffffffffffffffffffffffffffffffffffffffff16631626ba7e60e01b8686604051602401613ce992919061487e565b604080517fffffffffffffffffffffffffffffffffffffffffffffffffffffffffffffffe08184030181529181526020820180517bffffffffffffffffffffffffffffffffffffffffffffffffffffffff167fffffffff00000000000000000000000000000000000000000000000000000000909416939093179092529051613d7291906149c9565b600060405180830381855afa9150503d8060008114613dad576040519150601f19603f3d011682016040523d82523d6000602084013e613db2565b606091505b5091509150818015613dc657506020815110155b80156135ea575080517f1626ba7e0000000000000000000000000000000000000000000000000000000090613e049083016020908101908401614be0565b149695505050505050565b600080613e1a6132ac565b805190915015613e31578051602090910120919050565b6065548015613e405792915050565b7fc5d2460186f7233c927e7db2dcc703c0e500b653ca82273b7bfad8045d85a4709250505090565b600080613e736132bb565b805190915015613e8a578051602090910120919050565b6066548015613e405792915050565b60005b83811015613eb4578181015183820152602001613e9c565b50506000910152565b60008151808452613ed5816020860160208601613e99565b601f017fffffffffffffffffffffffffffffffffffffffffffffffffffffffffffffffe0169290920160200192915050565b6020815260006129236020830184613ebd565b803573ffffffffffffffffffffffffffffffffffffffff81168114613f3e57600080fd5b919050565b60008060408385031215613f5657600080fd5b613f5f83613f1a565b946020939093013593505050565b803560ff81168114613f3e57600080fd5b600060208284031215613f9057600080fd5b61292382613f6d565b600060208284031215613fab57600080fd5b61292382613f1a565b600080600060608486031215613fc957600080fd5b613fd284613f1a565b9250613fe060208501613f1a565b929592945050506040919091013590565b60006020828403121561400357600080fd5b5035919050565b7f4e487b7100000000000000000000000000000000000000000000000000000000600052604160045260246000fd5b604051601f82017fffffffffffffffffffffffffffffffffffffffffffffffffffffffffffffffe016810167ffffffffffffffff811182821017156140805761408061400a565b604052919050565b600082601f83011261409957600080fd5b81356020830160008067ffffffffffffffff8411156140ba576140ba61400a565b50601f83017fffffffffffffffffffffffffffffffffffffffffffffffffffffffffffffffe0166020016140ed81614039565b91505082815285838301111561410257600080fd5b82826020830137600092810160200192909252509392505050565b60008060008060008060008060008060006101608c8e03121561413f57600080fd5b6141488c613f1a565b9a5061415660208d01613f1a565b995061416460408d01613f1a565b985060608c0135975060808c0135965060a08c0135955060c08c0135945061418e60e08d01613f6d565b93506101008c013592506101208c013591506101408c013567ffffffffffffffff8111156141bb57600080fd5b6141c78e828f01614088565b9150509295989b509295989b9093969950565b600080604083850312156141ed57600080fd5b823567ffffffffffffffff81111561420457600080fd5b61421085828601614088565b925050602083013567ffffffffffffffff81111561422d57600080fd5b61423985828601614088565b9150509250929050565b602080825282518282018190526000918401906040840190835b8181101561429157835173ffffffffffffffffffffffffffffffffffffffff1683526020938401939092019160010161425d565b509095945050505050565b7fff000000000000000000000000000000000000000000000000000000000000008816815260e0602082015260006142d760e0830189613ebd565b82810360408401526142e98189613ebd565b6060840188905273ffffffffffffffffffffffffffffffffffffffff8716608085015260a0840186905283810360c08501528451808252602080870193509091019060005b8181101561434c57835183526020938401939092019160010161432e565b50909b9a5050505050505050505050565b600067ffffffffffffffff8211156143775761437761400a565b5060051b60200190565b600082601f83011261439257600080fd5b81356143a56143a08261435d565b614039565b8082825260208201915060208360051b8601019250858311156143c757600080fd5b602085015b838110156134415780358352602092830192016143cc565b600080604083850312156143f757600080fd5b823567ffffffffffffffff81111561440e57600080fd5b8301601f8101851361441f57600080fd5b803561442d6143a08261435d565b8082825260208201915060208360051b85010192508783111561444f57600080fd5b6020840193505b828410156144785761446784613f1a565b825260209384019390910190614456565b9450505050602083013567ffffffffffffffff81111561449757600080fd5b61423985828601614381565b600080600080608085870312156144b957600080fd5b6144c285613f1a565b93506144d060208601613f1a565b925060408501359150606085013567ffffffffffffffff8111156144f357600080fd5b6144ff87828801614088565b91505092959194509250565b600080600080600080600060e0888a03121561452657600080fd5b873596506020880135955061453d60408901613f1a565b945061454b60608901613f1a565b935061455960808901613f1a565b925061456760a08901613f1a565b915061457560c08901613f1a565b905092959891949750929550565b60008060008060008060008060006101208a8c0312156145a257600080fd5b6145ab8a613f1a565b98506145b960208b01613f1a565b97506145c760408b01613f1a565b965060608a0135955060808a0135945060a08a0135935060c08a0135925060e08a013567ffffffffffffffff8111156145ff57600080fd5b61460b8c828d01614088565b9250506101008a013567ffffffffffffffff81111561462957600080fd5b6146358c828d01614088565b9150509295985092959850929598565b6000806040838503121561465857600080fd5b50508035926020909101359150565b60008060006060848603121561467c57600080fd5b61468584613f1a565b925060208401359150604084013567ffffffffffffffff8111156146a857600080fd5b6146b486828701614088565b9150509250925092565b600080600080600080600060e0888a0312156146d957600080fd5b6146e288613f1a565b96506146f060208901613f1a565b9550604088013594506060880135935061470c60808901613f6d565b9699959850939692959460a0840135945060c09093013592915050565b60006020828403121561473b57600080fd5b813567ffffffffffffffff81111561475257600080fd5b610b8a84828501614088565b6000806040838503121561477157600080fd5b61477a83613f1a565b915061478860208401613f1a565b90509250929050565b600181811c908216806147a557607f821691505b6020821081036133d5577f4e487b7100000000000000000000000000000000000000000000000000000000600052602260045260246000fd5b7f4e487b7100000000000000000000000000000000000000000000000000000000600052601160045260246000fd5b8082018082111561096e5761096e6147de565b6080815260006148336080830187613ebd565b6020830195909552506040810192909252606090910152919050565b7f4e487b7100000000000000000000000000000000000000000000000000000000600052603260045260246000fd5b828152604060208201526000610b8a6040830184613ebd565b6001815b60018411156148d2578085048111156148b6576148b66147de565b60018416156148c457908102905b60019390931c92800261489b565b935093915050565b6000826148e95750600161096e565b816148f65750600061096e565b816001811461490c576002811461491657614932565b600191505061096e565b60ff841115614927576149276147de565b50506001821b61096e565b5060208310610133831016604e8410600b8410161715614955575081810a61096e565b6149807fffffffffffffffffffffffffffffffffffffffffffffffffffffffffffffffff8484614897565b807fffffffffffffffffffffffffffffffffffffffffffffffffffffffffffffffff048211156149b2576149b26147de565b029392505050565b600061292360ff8416836148da565b600082516149db818460208701613e99565b9190910192915050565b601f8211156113fb57806000526020600020601f840160051c81016020851015614a0c5750805b601f840160051c820191505b81811015614a2c5760008155600101614a18565b5050505050565b815167ffffffffffffffff811115614a4d57614a4d61400a565b614a6181614a5b8454614791565b846149e5565b6020601f821160018114614ab35760008315614a7d5750848201515b7fffffffffffffffffffffffffffffffffffffffffffffffffffffffffffffffff600385901b1c1916600184901b178455614a2c565b6000848152602081207fffffffffffffffffffffffffffffffffffffffffffffffffffffffffffffffe08516915b82811015614b015787850151825560209485019460019092019101614ae1565b5084821015614b3d57868401517fffffffffffffffffffffffffffffffffffffffffffffffffffffffffffffffff600387901b60f8161c191681555b50505050600190811b01905550565b808202811582820484141761096e5761096e6147de565b600082614b99577f4e487b7100000000000000000000000000000000000000000000000000000000600052601260045260246000fd5b500490565b8181038181111561096e5761096e6147de565b7f4e487b7100000000000000000000000000000000000000000000000000000000600052602160045260246000fd5b600060208284031215614bf257600080fd5b505191905056fea2646970667358221220a598041b4d37e25c6c69edc9914ee3c868eb8daf29bd12d5f40d97ccf0d4b8f464736f6c634300081a0033","linkReferences":{}},"methodIdentifiers":{"DOMAIN_SEPARATOR()":"3644e515","GetInitializeData()":"d3d655f8","MAX_UINT()":"e5b5019a","addFeeAccount(address)":"e28533b4","allowance(address,address)":"dd62ed3e","approve(address,uint256)":"095ea7b3","approveAndCall(address,uint256,bytes)":"cae9ca51","balanceOf(address)":"70a08231","basisPointsRate()":"dd644f72","batchTransfer(address[],uint256[])":"88d695b2","blacklist(address)":"f9f92be4","blacklister()":"bd102430","calcCommonFee(uint256)":"61f3b7b0","calcFee(address,uint256)":"1d16c3ee","currency()":"e5a6b10f","decimals()":"313ce567","decreaseAllowance(address,uint256)":"a457c2d7","eip712Domain()":"84b0196e","feeAccountKeys(uint256)":"2f9aa3f7","feeAccounts(address)":"e2e71f93","feeRateAccounts(address)":"efb07c41","getFeeAccounts()":"61d8b9fe","increaseAllowance(address,uint256)":"39509351","initialize(string,string)":"4cd88b76","isBlacklisted(address)":"fe575a87","maximumFee()":"35390714","mint(address,uint256)":"40c10f19","name()":"06fdde03","nonces(address)":"7ecebe00","owner()":"8da5cb5b","paused()":"5c975abb","permit(address,address,uint256,uint256,uint8,bytes32,bytes32)":"d505accf","removeFeeAccount(address)":"592851df","renounceOwnership()":"715018a6","setAccountBasisPointsRate(address,uint256)":"3c5f0583","setParams(uint256,uint256)":"c0324c77","symbol()":"95d89b41","totalFee(address)":"7a4fda3d","totalSupply()":"18160ddd","transfer(address,uint256)":"a9059cbb","transferFee(address,address,uint256,bytes)":"a0cf7edf","transferFrom(address,address,uint256)":"23b872dd","transferOwnership(address)":"f2fde38b","transferWithAuthorizationFee(address,address,address,uint256,uint256,uint256,bytes32,bytes,bytes)":"adbd6c99","transferWithAuthorizationFee(address,address,address,uint256,uint256,uint256,bytes32,uint8,bytes32,bytes32,bytes)":"32786e76","unBlacklist(address)":"1a895266","updateBlacklister(address)":"ad38bf22","updateCurrency(string)":"d6a7e169","updateDecimals(uint8)":"0ce83a61","updateFeeAccountAmount(address,uint256)":"23da3167","updateRole(uint256,uint256,address,address,address,address,address)":"a33a696b"},"id":7}