{
	"upgradeability/AdminUpgradeabilityProxy.sol": {
		"AdminUpgradeabilityProxy": {
			"abi": [
				{
					"inputs": [
						{
							"internalType": "address",
							"name": "implementationContract",
							"type": "address"
						}
					],
					"stateMutability": "nonpayable",
					"type": "constructor"
				},
				{
					"anonymous": false,
					"inputs": [
						{
							"indexed": false,
							"internalType": "address",
							"name": "previousAdmin",
							"type": "address"
						},
						{
							"indexed": false,
							"internalType": "address",
							"name": "newAdmin",
							"type": "address"
						}
					],
					"name": "AdminChanged",
					"type": "event"
				},
				{
					"anonymous": false,
					"inputs": [
						{
							"indexed": false,
							"internalType": "address",
							"name": "implementation",
							"type": "address"
						}
					],
					"name": "Upgraded",
					"type": "event"
				},
				{
					"stateMutability": "payable",
					"type": "fallback"
				},
				{
					"inputs": [],
					"name": "admin",
					"outputs": [
						{
							"internalType": "address",
							"name": "",
							"type": "address"
						}
					],
					"stateMutability": "view",
					"type": "function"
				},
				{
					"inputs": [
						{
							"internalType": "address",
							"name": "newAdmin",
							"type": "address"
						}
					],
					"name": "changeAdmin",
					"outputs": [],
					"stateMutability": "nonpayable",
					"type": "function"
				},
				{
					"inputs": [
						{
							"internalType": "bytes",
							"name": "data",
							"type": "bytes"
						}
					],
					"name": "funcCall",
					"outputs": [],
					"stateMutability": "payable",
					"type": "function"
				},
				{
					"inputs": [],
					"name": "implementation",
					"outputs": [
						{
							"internalType": "address",
							"name": "",
							"type": "address"
						}
					],
					"stateMutability": "view",
					"type": "function"
				},
				{
					"inputs": [
						{
							"internalType": "address",
							"name": "newImplementation",
							"type": "address"
						}
					],
					"name": "upgradeTo",
					"outputs": [],
					"stateMutability": "nonpayable",
					"type": "function"
				},
				{
					"inputs": [
						{
							"internalType": "address",
							"name": "newImplementation",
							"type": "address"
						},
						{
							"internalType": "bytes",
							"name": "data",
							"type": "bytes"
						}
					],
					"name": "upgradeToAndCall",
					"outputs": [],
					"stateMutability": "payable",
					"type": "function"
				},
				{
					"stateMutability": "payable",
					"type": "receive"
				}
			],
			"devdoc": {
				"details": "Forked from https://github.com/zeppelinos/zos-lib/blob/8a16ef3ad17ec7430e3a9d2b5e3f39b8204f8c8d/contracts/upgradeability/AdminUpgradeabilityProxy.sol Modifications: 1. Reformat, conform to Solidity 0.6 syntax, and add error messages (5/13/20) 2. Remove ifAdmin modifier from admin() and implementation() (5/13/20)",
				"events": {
					"AdminChanged(address,address)": {
						"details": "Emitted when the administration has been transferred.",
						"params": {
							"newAdmin": "Address of the new admin.",
							"previousAdmin": "Address of the previous admin."
						}
					},
					"Upgraded(address)": {
						"details": "Emitted when the implementation is upgraded.",
						"params": {
							"implementation": "Address of the new implementation."
						}
					}
				},
				"kind": "dev",
				"methods": {
					"admin()": {
						"returns": {
							"_0": "The address of the proxy admin."
						}
					},
					"changeAdmin(address)": {
						"details": "Changes the admin of the proxy. Only the current admin can call this function.",
						"params": {
							"newAdmin": "Address to transfer proxy administration to."
						}
					},
					"constructor": {
						"details": "Contract constructor. It sets the `msg.sender` as the proxy administrator.",
						"params": {
							"implementationContract": "address of the initial implementation."
						}
					},
					"funcCall(bytes)": {
						"details": "Upgrade the backing implementation of the proxy and delegate call a function on the new implementation. This is useful to initialize the proxied contract.",
						"params": {
							"data": "Data to send as msg.data in the low level call. It should include the signature and the parameters of the function to be called, as described in https://solidity.readthedocs.io/en/develop/abi-spec.html#function-selector-and-argument-encoding."
						}
					},
					"implementation()": {
						"returns": {
							"_0": "The address of the implementation."
						}
					},
					"upgradeTo(address)": {
						"details": "Upgrade the backing implementation of the proxy. Only the admin can call this function.",
						"params": {
							"newImplementation": "Address of the new implementation."
						}
					},
					"upgradeToAndCall(address,bytes)": {
						"details": "Upgrade the backing implementation of the proxy and call a function on the new implementation. This is useful to initialize the proxied contract.",
						"params": {
							"data": "Data to send as msg.data in the low level call. It should include the signature and the parameters of the function to be called, as described in https://solidity.readthedocs.io/en/develop/abi-spec.html#function-selector-and-argument-encoding.",
							"newImplementation": "Address of the new implementation."
						}
					}
				},
				"stateVariables": {
					"ADMIN_SLOT": {
						"details": "Storage slot with the admin of the contract. This is the keccak-256 hash of \"org.zeppelinos.proxy.admin\", and is validated in the constructor."
					}
				},
				"version": 1
			},
			"evm": {
				"assembly": "    /* \"upgradeability/AdminUpgradeabilityProxy.sol\":1209:5937  contract AdminUpgradeabilityProxy is UpgradeabilityProxy {... */\n  mstore(0x40, 0x80)\n    /* \"upgradeability/AdminUpgradeabilityProxy.sol\":2350:2578  constructor(address implementationContract)... */\n  callvalue\n  dup1\n  iszero\n  tag_1\n  jumpi\n  0x00\n  dup1\n  revert\ntag_1:\n  pop\n  mload(0x40)\n  sub(codesize, bytecodeSize)\n  dup1\n  bytecodeSize\n  dup4\n  codecopy\n  dup2\n  add\n  0x40\n  dup2\n  swap1\n  mstore\n  tag_2\n  swap2\n  tag_3\n  jump\t// in\ntag_2:\n    /* \"upgradeability/AdminUpgradeabilityProxy.sol\":2440:2462  implementationContract */\n  dup1\n    /* \"upgradeability/UpgradeabilityProxy.sol\":2508:2550  _setImplementation(implementationContract) */\n  tag_10\n    /* \"upgradeability/UpgradeabilityProxy.sol\":2527:2549  implementationContract */\n  dup2\n    /* \"upgradeability/UpgradeabilityProxy.sol\":2508:2526  _setImplementation */\n  tag_11\n    /* \"upgradeability/UpgradeabilityProxy.sol\":2508:2550  _setImplementation(implementationContract) */\n  jump\t// in\ntag_10:\n  pop\n    /* \"upgradeability/AdminUpgradeabilityProxy.sol\":2550:2571  _setAdmin(msg.sender) */\n  tag_15\n    /* \"upgradeability/AdminUpgradeabilityProxy.sol\":2560:2570  msg.sender */\n  caller\n    /* \"upgradeability/AdminUpgradeabilityProxy.sol\":1759:1825  0x10d6a54a4754c8869d6886b5f5d7fbfa5b4522237ea5c60d11bc4e7a1ff9390b */\n  0x10d6a54a4754c8869d6886b5f5d7fbfa5b4522237ea5c60d11bc4e7a1ff9390b\n    /* \"upgradeability/AdminUpgradeabilityProxy.sol\":5600:5622  sstore(slot, newAdmin) */\n  sstore\n    /* \"upgradeability/AdminUpgradeabilityProxy.sol\":5485:5638  function _setAdmin(address newAdmin) internal {... */\n  jump\n    /* \"upgradeability/AdminUpgradeabilityProxy.sol\":2550:2571  _setAdmin(msg.sender) */\ntag_15:\n    /* \"upgradeability/AdminUpgradeabilityProxy.sol\":2350:2578  constructor(address implementationContract)... */\n  pop\n    /* \"upgradeability/AdminUpgradeabilityProxy.sol\":1209:5937  contract AdminUpgradeabilityProxy is UpgradeabilityProxy {... */\n  jump(tag_26)\n    /* \"upgradeability/UpgradeabilityProxy.sol\":3314:3710  function _setImplementation(address newImplementation) private {... */\ntag_11:\n  sub(shl(0xa0, 0x01), 0x01)\n    /* \"https://github.com/OpenZeppelin/openzeppelin-contracts/blob/v4.8.3/contracts/utils/Address.sol\":1465:1484  account.code.length */\n  dup2\n  and\n  extcodesize\n    /* \"upgradeability/UpgradeabilityProxy.sol\":3387:3584  require(... */\n  tag_21\n  jumpi\n  mload(0x40)\n  shl(0xe5, 0x461bcd)\n  dup2\n  mstore\n    /* \"#utility.yul\":643:645   */\n  0x20\n    /* \"upgradeability/UpgradeabilityProxy.sol\":3387:3584  require(... */\n  0x04\n  dup3\n  add\n    /* \"#utility.yul\":625:646   */\n  mstore\n    /* \"#utility.yul\":682:684   */\n  0x3b\n    /* \"#utility.yul\":662:680   */\n  0x24\n  dup3\n  add\n    /* \"#utility.yul\":655:685   */\n  mstore\n    /* \"#utility.yul\":721:755   */\n  0x43616e6e6f742073657420612070726f787920696d706c656d656e746174696f\n    /* \"#utility.yul\":701:719   */\n  0x44\n  dup3\n  add\n    /* \"#utility.yul\":694:756   */\n  mstore\n    /* \"#utility.yul\":792:821   */\n  0x6e20746f2061206e6f6e2d636f6e747261637420616464726573730000000000\n    /* \"#utility.yul\":772:790   */\n  0x64\n  dup3\n  add\n    /* \"#utility.yul\":765:822   */\n  mstore\n    /* \"#utility.yul\":839:858   */\n  0x84\n  add\n    /* \"upgradeability/UpgradeabilityProxy.sol\":3387:3584  require(... */\n  mload(0x40)\n  dup1\n  swap2\n  sub\n  swap1\n  revert\ntag_21:\n    /* \"upgradeability/UpgradeabilityProxy.sol\":2067:2133  0x7050c9e0f4ca769c69bd3a8ef740bc37934f8e2c036e5a723fd8ee048ed3f8c3 */\n  0x7050c9e0f4ca769c69bd3a8ef740bc37934f8e2c036e5a723fd8ee048ed3f8c3\n    /* \"upgradeability/UpgradeabilityProxy.sol\":3663:3694  sstore(slot, newImplementation) */\n  sstore\n    /* \"upgradeability/UpgradeabilityProxy.sol\":3314:3710  function _setImplementation(address newImplementation) private {... */\n  jump\t// out\n    /* \"#utility.yul\":14:304   */\ntag_3:\n    /* \"#utility.yul\":84:90   */\n  0x00\n    /* \"#utility.yul\":137:139   */\n  0x20\n    /* \"#utility.yul\":125:134   */\n  dup3\n    /* \"#utility.yul\":116:123   */\n  dup5\n    /* \"#utility.yul\":112:135   */\n  sub\n    /* \"#utility.yul\":108:140   */\n  slt\n    /* \"#utility.yul\":105:157   */\n  iszero\n  tag_28\n  jumpi\n    /* \"#utility.yul\":153:154   */\n  0x00\n    /* \"#utility.yul\":150:151   */\n  dup1\n    /* \"#utility.yul\":143:155   */\n  revert\n    /* \"#utility.yul\":105:157   */\ntag_28:\n    /* \"#utility.yul\":179:195   */\n  dup2\n  mload\n  sub(shl(0xa0, 0x01), 0x01)\n    /* \"#utility.yul\":224:255   */\n  dup2\n  and\n    /* \"#utility.yul\":214:256   */\n  dup2\n  eq\n    /* \"#utility.yul\":204:274   */\n  tag_29\n  jumpi\n    /* \"#utility.yul\":270:271   */\n  0x00\n    /* \"#utility.yul\":267:268   */\n  dup1\n    /* \"#utility.yul\":260:272   */\n  revert\n    /* \"#utility.yul\":204:274   */\ntag_29:\n    /* \"#utility.yul\":293:298   */\n  swap4\n    /* \"#utility.yul\":14:304   */\n  swap3\n  pop\n  pop\n  pop\n  jump\t// out\n    /* \"#utility.yul\":441:864   */\ntag_26:\n    /* \"upgradeability/AdminUpgradeabilityProxy.sol\":1209:5937  contract AdminUpgradeabilityProxy is UpgradeabilityProxy {... */\n  dataSize(sub_0)\n  dup1\n  dataOffset(sub_0)\n  0x00\n  codecopy\n  0x00\n  return\nstop\n\nsub_0: assembly {\n        /* \"upgradeability/AdminUpgradeabilityProxy.sol\":1209:5937  contract AdminUpgradeabilityProxy is UpgradeabilityProxy {... */\n      mstore(0x40, 0x80)\n      jumpi(tag_1, lt(calldatasize, 0x04))\n      shr(0xe0, calldataload(0x00))\n      dup1\n      0x6c9ad7db\n      gt\n      tag_9\n      jumpi\n      dup1\n      0x6c9ad7db\n      eq\n      tag_6\n      jumpi\n      dup1\n      0x8f283970\n      eq\n      tag_7\n      jumpi\n      dup1\n      0xf851a440\n      eq\n      tag_8\n      jumpi\n      jump(tag_2)\n    tag_9:\n      dup1\n      0x3659cfe6\n      eq\n      tag_3\n      jumpi\n      dup1\n      0x4f1ef286\n      eq\n      tag_4\n      jumpi\n      dup1\n      0x5c60da1b\n      eq\n      tag_5\n      jumpi\n      jump(tag_2)\n    tag_1:\n      jumpi(tag_2, calldatasize)\n        /* \"https://github.com/OpenZeppelin/openzeppelin-contracts/blob/v4.8.3/contracts/proxy/Proxy.sol\":2898:2909  _fallback() */\n      tag_12\n        /* \"https://github.com/OpenZeppelin/openzeppelin-contracts/blob/v4.8.3/contracts/proxy/Proxy.sol\":2898:2907  _fallback */\n      tag_13\n        /* \"https://github.com/OpenZeppelin/openzeppelin-contracts/blob/v4.8.3/contracts/proxy/Proxy.sol\":2898:2909  _fallback() */\n      jump\t// in\n    tag_12:\n        /* \"upgradeability/AdminUpgradeabilityProxy.sol\":1209:5937  contract AdminUpgradeabilityProxy is UpgradeabilityProxy {... */\n      stop\n    tag_2:\n        /* \"https://github.com/OpenZeppelin/openzeppelin-contracts/blob/v4.8.3/contracts/proxy/Proxy.sol\":2675:2686  _fallback() */\n      tag_12\n        /* \"https://github.com/OpenZeppelin/openzeppelin-contracts/blob/v4.8.3/contracts/proxy/Proxy.sol\":2675:2684  _fallback */\n      tag_13\n        /* \"https://github.com/OpenZeppelin/openzeppelin-contracts/blob/v4.8.3/contracts/proxy/Proxy.sol\":2675:2686  _fallback() */\n      jump\t// in\n        /* \"upgradeability/AdminUpgradeabilityProxy.sol\":3555:3664  function upgradeTo(address newImplementation) external ifAdmin {... */\n    tag_3:\n      callvalue\n      dup1\n      iszero\n      tag_17\n      jumpi\n      0x00\n      dup1\n      revert\n    tag_17:\n      pop\n      tag_12\n      tag_19\n      calldatasize\n      0x04\n      tag_20\n      jump\t// in\n    tag_19:\n      tag_21\n      jump\t// in\n        /* \"upgradeability/AdminUpgradeabilityProxy.sol\":4208:4486  function upgradeToAndCall(address newImplementation, bytes calldata data)... */\n    tag_4:\n      tag_12\n      tag_23\n      calldatasize\n      0x04\n      tag_24\n      jump\t// in\n    tag_23:\n      tag_25\n      jump\t// in\n        /* \"upgradeability/AdminUpgradeabilityProxy.sol\":2800:2899  function implementation() external view returns (address) {... */\n    tag_5:\n      callvalue\n      dup1\n      iszero\n      tag_26\n      jumpi\n      0x00\n      dup1\n      revert\n    tag_26:\n      pop\n      tag_27\n      tag_28\n      jump\t// in\n    tag_27:\n      mload(0x40)\n        /* \"#utility.yul\":1422:1464   */\n      0xffffffffffffffffffffffffffffffffffffffff\n        /* \"#utility.yul\":1410:1465   */\n      swap1\n      swap2\n      and\n        /* \"#utility.yul\":1392:1466   */\n      dup2\n      mstore\n        /* \"#utility.yul\":1380:1382   */\n      0x20\n        /* \"#utility.yul\":1365:1383   */\n      add\n        /* \"upgradeability/AdminUpgradeabilityProxy.sol\":2800:2899  function implementation() external view returns (address) {... */\n      mload(0x40)\n      dup1\n      swap2\n      sub\n      swap1\n      return\n        /* \"upgradeability/AdminUpgradeabilityProxy.sol\":4972:5145  function funcCall(bytes calldata data)... */\n    tag_6:\n      tag_12\n      tag_32\n      calldatasize\n      0x04\n      tag_33\n      jump\t// in\n    tag_32:\n      tag_34\n      jump\t// in\n        /* \"upgradeability/AdminUpgradeabilityProxy.sol\":3087:3359  function changeAdmin(address newAdmin) external ifAdmin {... */\n    tag_7:\n      callvalue\n      dup1\n      iszero\n      tag_35\n      jumpi\n      0x00\n      dup1\n      revert\n    tag_35:\n      pop\n      tag_12\n      tag_37\n      calldatasize\n      0x04\n      tag_20\n      jump\t// in\n    tag_37:\n      tag_38\n      jump\t// in\n        /* \"upgradeability/AdminUpgradeabilityProxy.sol\":2647:2728  function admin() external view returns (address) {... */\n    tag_8:\n      callvalue\n      dup1\n      iszero\n      tag_39\n      jumpi\n      0x00\n      dup1\n      revert\n    tag_39:\n      pop\n      tag_27\n      tag_41\n      jump\t// in\n        /* \"https://github.com/OpenZeppelin/openzeppelin-contracts/blob/v4.8.3/contracts/proxy/Proxy.sol\":2322:2432  function _fallback() internal virtual {... */\n    tag_13:\n        /* \"https://github.com/OpenZeppelin/openzeppelin-contracts/blob/v4.8.3/contracts/proxy/Proxy.sol\":2370:2387  _beforeFallback() */\n      tag_44\n        /* \"https://github.com/OpenZeppelin/openzeppelin-contracts/blob/v4.8.3/contracts/proxy/Proxy.sol\":2370:2385  _beforeFallback */\n      tag_45\n        /* \"https://github.com/OpenZeppelin/openzeppelin-contracts/blob/v4.8.3/contracts/proxy/Proxy.sol\":2370:2387  _beforeFallback() */\n      jump\t// in\n    tag_44:\n        /* \"https://github.com/OpenZeppelin/openzeppelin-contracts/blob/v4.8.3/contracts/proxy/Proxy.sol\":2397:2425  _delegate(_implementation()) */\n      tag_46\n        /* \"https://github.com/OpenZeppelin/openzeppelin-contracts/blob/v4.8.3/contracts/proxy/Proxy.sol\":2407:2424  _implementation() */\n      tag_47\n        /* \"upgradeability/UpgradeabilityProxy.sol\":2067:2133  0x7050c9e0f4ca769c69bd3a8ef740bc37934f8e2c036e5a723fd8ee048ed3f8c3 */\n      0x7050c9e0f4ca769c69bd3a8ef740bc37934f8e2c036e5a723fd8ee048ed3f8c3\n        /* \"upgradeability/UpgradeabilityProxy.sol\":2843:2854  sload(slot) */\n      sload\n      swap1\n        /* \"upgradeability/UpgradeabilityProxy.sol\":2685:2870  function _implementation() internal override view returns (address impl) {... */\n      jump\n        /* \"https://github.com/OpenZeppelin/openzeppelin-contracts/blob/v4.8.3/contracts/proxy/Proxy.sol\":2407:2424  _implementation() */\n    tag_47:\n        /* \"https://github.com/OpenZeppelin/openzeppelin-contracts/blob/v4.8.3/contracts/proxy/Proxy.sol\":2397:2406  _delegate */\n      tag_49\n        /* \"https://github.com/OpenZeppelin/openzeppelin-contracts/blob/v4.8.3/contracts/proxy/Proxy.sol\":2397:2425  _delegate(_implementation()) */\n      jump\t// in\n    tag_46:\n        /* \"https://github.com/OpenZeppelin/openzeppelin-contracts/blob/v4.8.3/contracts/proxy/Proxy.sol\":2322:2432  function _fallback() internal virtual {... */\n      jump\t// out\n        /* \"upgradeability/AdminUpgradeabilityProxy.sol\":3555:3664  function upgradeTo(address newImplementation) external ifAdmin {... */\n    tag_21:\n        /* \"upgradeability/AdminUpgradeabilityProxy.sol\":1759:1825  0x10d6a54a4754c8869d6886b5f5d7fbfa5b4522237ea5c60d11bc4e7a1ff9390b */\n      0x10d6a54a4754c8869d6886b5f5d7fbfa5b4522237ea5c60d11bc4e7a1ff9390b\n        /* \"upgradeability/AdminUpgradeabilityProxy.sol\":5332:5343  sload(slot) */\n      sload\n        /* \"upgradeability/AdminUpgradeabilityProxy.sol\":2060:2082  msg.sender == _admin() */\n      0xffffffffffffffffffffffffffffffffffffffff\n      and\n        /* \"upgradeability/AdminUpgradeabilityProxy.sol\":2060:2070  msg.sender */\n      caller\n        /* \"upgradeability/AdminUpgradeabilityProxy.sol\":2060:2082  msg.sender == _admin() */\n      sub\n        /* \"upgradeability/AdminUpgradeabilityProxy.sol\":2056:2152  if (msg.sender == _admin()) {... */\n      tag_53\n      jumpi\n        /* \"upgradeability/AdminUpgradeabilityProxy.sol\":3628:3657  _upgradeTo(newImplementation) */\n      tag_55\n        /* \"upgradeability/AdminUpgradeabilityProxy.sol\":3639:3656  newImplementation */\n      dup2\n        /* \"upgradeability/AdminUpgradeabilityProxy.sol\":3628:3638  _upgradeTo */\n      tag_56\n        /* \"upgradeability/AdminUpgradeabilityProxy.sol\":3628:3657  _upgradeTo(newImplementation) */\n      jump\t// in\n    tag_55:\n        /* \"upgradeability/AdminUpgradeabilityProxy.sol\":3555:3664  function upgradeTo(address newImplementation) external ifAdmin {... */\n      pop\n      jump\t// out\n        /* \"upgradeability/AdminUpgradeabilityProxy.sol\":2056:2152  if (msg.sender == _admin()) {... */\n    tag_53:\n        /* \"upgradeability/AdminUpgradeabilityProxy.sol\":2130:2141  _fallback() */\n      tag_55\n        /* \"upgradeability/AdminUpgradeabilityProxy.sol\":2130:2139  _fallback */\n      tag_13\n        /* \"upgradeability/AdminUpgradeabilityProxy.sol\":2130:2141  _fallback() */\n      jump\t// in\n        /* \"upgradeability/AdminUpgradeabilityProxy.sol\":4208:4486  function upgradeToAndCall(address newImplementation, bytes calldata data)... */\n    tag_25:\n        /* \"upgradeability/AdminUpgradeabilityProxy.sol\":1759:1825  0x10d6a54a4754c8869d6886b5f5d7fbfa5b4522237ea5c60d11bc4e7a1ff9390b */\n      0x10d6a54a4754c8869d6886b5f5d7fbfa5b4522237ea5c60d11bc4e7a1ff9390b\n        /* \"upgradeability/AdminUpgradeabilityProxy.sol\":5332:5343  sload(slot) */\n      sload\n        /* \"upgradeability/AdminUpgradeabilityProxy.sol\":2060:2082  msg.sender == _admin() */\n      0xffffffffffffffffffffffffffffffffffffffff\n      and\n        /* \"upgradeability/AdminUpgradeabilityProxy.sol\":2060:2070  msg.sender */\n      caller\n        /* \"upgradeability/AdminUpgradeabilityProxy.sol\":2060:2082  msg.sender == _admin() */\n      sub\n        /* \"upgradeability/AdminUpgradeabilityProxy.sol\":2056:2152  if (msg.sender == _admin()) {... */\n      tag_61\n      jumpi\n        /* \"upgradeability/AdminUpgradeabilityProxy.sol\":4345:4374  _upgradeTo(newImplementation) */\n      tag_63\n        /* \"upgradeability/AdminUpgradeabilityProxy.sol\":4356:4373  newImplementation */\n      dup4\n        /* \"upgradeability/AdminUpgradeabilityProxy.sol\":4345:4355  _upgradeTo */\n      tag_56\n        /* \"upgradeability/AdminUpgradeabilityProxy.sol\":4345:4374  _upgradeTo(newImplementation) */\n      jump\t// in\n    tag_63:\n        /* \"upgradeability/AdminUpgradeabilityProxy.sol\":4394:4406  bool success */\n      0x00\n        /* \"upgradeability/AdminUpgradeabilityProxy.sol\":4419:4423  this */\n      address\n        /* \"upgradeability/AdminUpgradeabilityProxy.sol\":4411:4429  address(this).call */\n      0xffffffffffffffffffffffffffffffffffffffff\n      and\n        /* \"upgradeability/AdminUpgradeabilityProxy.sol\":4437:4446  msg.value */\n      callvalue\n        /* \"upgradeability/AdminUpgradeabilityProxy.sol\":4448:4452  data */\n      dup5\n      dup5\n        /* \"upgradeability/AdminUpgradeabilityProxy.sol\":4411:4453  address(this).call{value: msg.value}(data) */\n      mload(0x40)\n      tag_64\n      swap3\n      swap2\n      swap1\n      tag_65\n      jump\t// in\n    tag_64:\n      0x00\n      mload(0x40)\n      dup1\n      dup4\n      sub\n      dup2\n      dup6\n      dup8\n      gas\n      call\n      swap3\n      pop\n      pop\n      pop\n      returndatasize\n      dup1\n      0x00\n      dup2\n      eq\n      tag_68\n      jumpi\n      mload(0x40)\n      swap2\n      pop\n      and(add(returndatasize, 0x3f), not(0x1f))\n      dup3\n      add\n      0x40\n      mstore\n      returndatasize\n      dup3\n      mstore\n      returndatasize\n      0x00\n      0x20\n      dup5\n      add\n      returndatacopy\n      jump(tag_67)\n    tag_68:\n      0x60\n      swap2\n      pop\n    tag_67:\n      pop\n        /* \"upgradeability/AdminUpgradeabilityProxy.sol\":4393:4453  (bool success,) = address(this).call{value: msg.value}(data) */\n      pop\n      swap1\n      pop\n        /* \"upgradeability/AdminUpgradeabilityProxy.sol\":4471:4478  success */\n      dup1\n        /* \"upgradeability/AdminUpgradeabilityProxy.sol\":4463:4479  require(success) */\n      tag_69\n      jumpi\n      0x00\n      dup1\n      revert\n    tag_69:\n        /* \"upgradeability/AdminUpgradeabilityProxy.sol\":4335:4486  {... */\n      pop\n        /* \"upgradeability/AdminUpgradeabilityProxy.sol\":4208:4486  function upgradeToAndCall(address newImplementation, bytes calldata data)... */\n      pop\n      pop\n      pop\n      jump\t// out\n        /* \"upgradeability/AdminUpgradeabilityProxy.sol\":2056:2152  if (msg.sender == _admin()) {... */\n    tag_61:\n        /* \"upgradeability/AdminUpgradeabilityProxy.sol\":2130:2141  _fallback() */\n      tag_71\n        /* \"upgradeability/AdminUpgradeabilityProxy.sol\":2130:2139  _fallback */\n      tag_13\n        /* \"upgradeability/AdminUpgradeabilityProxy.sol\":2130:2141  _fallback() */\n      jump\t// in\n    tag_71:\n        /* \"upgradeability/AdminUpgradeabilityProxy.sol\":4208:4486  function upgradeToAndCall(address newImplementation, bytes calldata data)... */\n      pop\n      pop\n      pop\n      jump\t// out\n        /* \"upgradeability/AdminUpgradeabilityProxy.sol\":2800:2899  function implementation() external view returns (address) {... */\n    tag_28:\n        /* \"upgradeability/AdminUpgradeabilityProxy.sol\":2849:2856  address */\n      0x00\n        /* \"upgradeability/AdminUpgradeabilityProxy.sol\":2875:2892  _implementation() */\n      tag_73\n        /* \"upgradeability/UpgradeabilityProxy.sol\":2067:2133  0x7050c9e0f4ca769c69bd3a8ef740bc37934f8e2c036e5a723fd8ee048ed3f8c3 */\n      0x7050c9e0f4ca769c69bd3a8ef740bc37934f8e2c036e5a723fd8ee048ed3f8c3\n        /* \"upgradeability/UpgradeabilityProxy.sol\":2843:2854  sload(slot) */\n      sload\n      swap1\n        /* \"upgradeability/UpgradeabilityProxy.sol\":2685:2870  function _implementation() internal override view returns (address impl) {... */\n      jump\n        /* \"upgradeability/AdminUpgradeabilityProxy.sol\":2875:2892  _implementation() */\n    tag_73:\n        /* \"upgradeability/AdminUpgradeabilityProxy.sol\":2868:2892  return _implementation() */\n      swap1\n      pop\n        /* \"upgradeability/AdminUpgradeabilityProxy.sol\":2800:2899  function implementation() external view returns (address) {... */\n      swap1\n      jump\t// out\n        /* \"upgradeability/AdminUpgradeabilityProxy.sol\":4972:5145  function funcCall(bytes calldata data)... */\n    tag_34:\n        /* \"upgradeability/AdminUpgradeabilityProxy.sol\":5059:5071  bool success */\n      0x00\n        /* \"upgradeability/AdminUpgradeabilityProxy.sol\":5076:5093  _implementation() */\n      tag_75\n        /* \"upgradeability/UpgradeabilityProxy.sol\":2067:2133  0x7050c9e0f4ca769c69bd3a8ef740bc37934f8e2c036e5a723fd8ee048ed3f8c3 */\n      0x7050c9e0f4ca769c69bd3a8ef740bc37934f8e2c036e5a723fd8ee048ed3f8c3\n        /* \"upgradeability/UpgradeabilityProxy.sol\":2843:2854  sload(slot) */\n      sload\n      swap1\n        /* \"upgradeability/UpgradeabilityProxy.sol\":2685:2870  function _implementation() internal override view returns (address impl) {... */\n      jump\n        /* \"upgradeability/AdminUpgradeabilityProxy.sol\":5076:5093  _implementation() */\n    tag_75:\n        /* \"upgradeability/AdminUpgradeabilityProxy.sol\":5076:5106  _implementation().delegatecall */\n      0xffffffffffffffffffffffffffffffffffffffff\n      and\n        /* \"upgradeability/AdminUpgradeabilityProxy.sol\":5107:5111  data */\n      dup4\n      dup4\n        /* \"upgradeability/AdminUpgradeabilityProxy.sol\":5076:5112  _implementation().delegatecall(data) */\n      mload(0x40)\n      tag_76\n      swap3\n      swap2\n      swap1\n      tag_65\n      jump\t// in\n    tag_76:\n      0x00\n      mload(0x40)\n      dup1\n      dup4\n      sub\n      dup2\n      dup6\n      gas\n      delegatecall\n      swap2\n      pop\n      pop\n      returndatasize\n      dup1\n      0x00\n      dup2\n      eq\n      tag_79\n      jumpi\n      mload(0x40)\n      swap2\n      pop\n      and(add(returndatasize, 0x3f), not(0x1f))\n      dup3\n      add\n      0x40\n      mstore\n      returndatasize\n      dup3\n      mstore\n      returndatasize\n      0x00\n      0x20\n      dup5\n      add\n      returndatacopy\n      jump(tag_78)\n    tag_79:\n      0x60\n      swap2\n      pop\n    tag_78:\n      pop\n        /* \"upgradeability/AdminUpgradeabilityProxy.sol\":5058:5112  (bool success,) = _implementation().delegatecall(data) */\n      pop\n      swap1\n      pop\n        /* \"upgradeability/AdminUpgradeabilityProxy.sol\":5130:5137  success */\n      dup1\n        /* \"upgradeability/AdminUpgradeabilityProxy.sol\":5122:5138  require(success) */\n      tag_71\n      jumpi\n      0x00\n      dup1\n      revert\n        /* \"upgradeability/AdminUpgradeabilityProxy.sol\":3087:3359  function changeAdmin(address newAdmin) external ifAdmin {... */\n    tag_38:\n        /* \"upgradeability/AdminUpgradeabilityProxy.sol\":1759:1825  0x10d6a54a4754c8869d6886b5f5d7fbfa5b4522237ea5c60d11bc4e7a1ff9390b */\n      0x10d6a54a4754c8869d6886b5f5d7fbfa5b4522237ea5c60d11bc4e7a1ff9390b\n        /* \"upgradeability/AdminUpgradeabilityProxy.sol\":5332:5343  sload(slot) */\n      sload\n        /* \"upgradeability/AdminUpgradeabilityProxy.sol\":2060:2082  msg.sender == _admin() */\n      0xffffffffffffffffffffffffffffffffffffffff\n      and\n        /* \"upgradeability/AdminUpgradeabilityProxy.sol\":2060:2070  msg.sender */\n      caller\n        /* \"upgradeability/AdminUpgradeabilityProxy.sol\":2060:2082  msg.sender == _admin() */\n      sub\n        /* \"upgradeability/AdminUpgradeabilityProxy.sol\":2056:2152  if (msg.sender == _admin()) {... */\n      tag_53\n      jumpi\n        /* \"upgradeability/AdminUpgradeabilityProxy.sol\":3174:3196  newAdmin != address(0) */\n      0xffffffffffffffffffffffffffffffffffffffff\n      dup2\n      and\n        /* \"upgradeability/AdminUpgradeabilityProxy.sol\":3153:3276  require(... */\n      tag_85\n      jumpi\n      mload(0x40)\n      0x08c379a000000000000000000000000000000000000000000000000000000000\n      dup2\n      mstore\n        /* \"#utility.yul\":2369:2371   */\n      0x20\n        /* \"upgradeability/AdminUpgradeabilityProxy.sol\":3153:3276  require(... */\n      0x04\n      dup3\n      add\n        /* \"#utility.yul\":2351:2372   */\n      mstore\n        /* \"#utility.yul\":2408:2410   */\n      0x36\n        /* \"#utility.yul\":2388:2406   */\n      0x24\n      dup3\n      add\n        /* \"#utility.yul\":2381:2411   */\n      mstore\n        /* \"#utility.yul\":2447:2481   */\n      0x43616e6e6f74206368616e6765207468652061646d696e206f6620612070726f\n        /* \"#utility.yul\":2427:2445   */\n      0x44\n      dup3\n      add\n        /* \"#utility.yul\":2420:2482   */\n      mstore\n        /* \"#utility.yul\":2518:2542   */\n      0x787920746f20746865207a65726f206164647265737300000000000000000000\n        /* \"#utility.yul\":2498:2516   */\n      0x64\n      dup3\n      add\n        /* \"#utility.yul\":2491:2543   */\n      mstore\n        /* \"#utility.yul\":2560:2579   */\n      0x84\n      add\n        /* \"upgradeability/AdminUpgradeabilityProxy.sol\":3153:3276  require(... */\n    tag_86:\n      mload(0x40)\n      dup1\n      swap2\n      sub\n      swap1\n      revert\n    tag_85:\n        /* \"upgradeability/AdminUpgradeabilityProxy.sol\":3291:3323  AdminChanged(_admin(), newAdmin) */\n      0x7e644d79422f17c01e4894b5f4f588d331ebfa28653d42ae832dc59e38c9798f\n        /* \"upgradeability/AdminUpgradeabilityProxy.sol\":3304:3312  _admin() */\n      tag_88\n        /* \"upgradeability/AdminUpgradeabilityProxy.sol\":1759:1825  0x10d6a54a4754c8869d6886b5f5d7fbfa5b4522237ea5c60d11bc4e7a1ff9390b */\n      0x10d6a54a4754c8869d6886b5f5d7fbfa5b4522237ea5c60d11bc4e7a1ff9390b\n        /* \"upgradeability/AdminUpgradeabilityProxy.sol\":5332:5343  sload(slot) */\n      sload\n      swap1\n        /* \"upgradeability/AdminUpgradeabilityProxy.sol\":5202:5359  function _admin() internal view returns (address adm) {... */\n      jump\n        /* \"upgradeability/AdminUpgradeabilityProxy.sol\":3304:3312  _admin() */\n    tag_88:\n        /* \"upgradeability/AdminUpgradeabilityProxy.sol\":3291:3323  AdminChanged(_admin(), newAdmin) */\n      0x40\n      dup1\n      mload\n        /* \"#utility.yul\":2774:2816   */\n      0xffffffffffffffffffffffffffffffffffffffff\n        /* \"#utility.yul\":2843:2858   */\n      swap3\n      dup4\n      and\n        /* \"#utility.yul\":2825:2859   */\n      dup2\n      mstore\n        /* \"#utility.yul\":2895:2910   */\n      swap2\n      dup5\n      and\n        /* \"#utility.yul\":2890:2892   */\n      0x20\n        /* \"#utility.yul\":2875:2893   */\n      dup4\n      add\n        /* \"#utility.yul\":2868:2911   */\n      mstore\n        /* \"#utility.yul\":2737:2755   */\n      add\n        /* \"upgradeability/AdminUpgradeabilityProxy.sol\":3291:3323  AdminChanged(_admin(), newAdmin) */\n      mload(0x40)\n      dup1\n      swap2\n      sub\n      swap1\n      log1\n        /* \"upgradeability/AdminUpgradeabilityProxy.sol\":3333:3352  _setAdmin(newAdmin) */\n      tag_55\n        /* \"upgradeability/AdminUpgradeabilityProxy.sol\":3343:3351  newAdmin */\n      dup2\n        /* \"upgradeability/AdminUpgradeabilityProxy.sol\":1759:1825  0x10d6a54a4754c8869d6886b5f5d7fbfa5b4522237ea5c60d11bc4e7a1ff9390b */\n      0x10d6a54a4754c8869d6886b5f5d7fbfa5b4522237ea5c60d11bc4e7a1ff9390b\n        /* \"upgradeability/AdminUpgradeabilityProxy.sol\":5600:5622  sstore(slot, newAdmin) */\n      sstore\n        /* \"upgradeability/AdminUpgradeabilityProxy.sol\":5485:5638  function _setAdmin(address newAdmin) internal {... */\n      jump\n        /* \"upgradeability/AdminUpgradeabilityProxy.sol\":2647:2728  function admin() external view returns (address) {... */\n    tag_41:\n        /* \"upgradeability/AdminUpgradeabilityProxy.sol\":2687:2694  address */\n      0x00\n        /* \"upgradeability/AdminUpgradeabilityProxy.sol\":2713:2721  _admin() */\n      tag_73\n        /* \"upgradeability/AdminUpgradeabilityProxy.sol\":1759:1825  0x10d6a54a4754c8869d6886b5f5d7fbfa5b4522237ea5c60d11bc4e7a1ff9390b */\n      0x10d6a54a4754c8869d6886b5f5d7fbfa5b4522237ea5c60d11bc4e7a1ff9390b\n        /* \"upgradeability/AdminUpgradeabilityProxy.sol\":5332:5343  sload(slot) */\n      sload\n      swap1\n        /* \"upgradeability/AdminUpgradeabilityProxy.sol\":5202:5359  function _admin() internal view returns (address adm) {... */\n      jump\n        /* \"upgradeability/AdminUpgradeabilityProxy.sol\":5721:5935  function _beforeFallback() internal override {... */\n    tag_45:\n        /* \"upgradeability/AdminUpgradeabilityProxy.sol\":1759:1825  0x10d6a54a4754c8869d6886b5f5d7fbfa5b4522237ea5c60d11bc4e7a1ff9390b */\n      0x10d6a54a4754c8869d6886b5f5d7fbfa5b4522237ea5c60d11bc4e7a1ff9390b\n        /* \"upgradeability/AdminUpgradeabilityProxy.sol\":5332:5343  sload(slot) */\n      sload\n        /* \"upgradeability/AdminUpgradeabilityProxy.sol\":5797:5819  msg.sender != _admin() */\n      0xffffffffffffffffffffffffffffffffffffffff\n      and\n        /* \"upgradeability/AdminUpgradeabilityProxy.sol\":5797:5807  msg.sender */\n      caller\n        /* \"upgradeability/AdminUpgradeabilityProxy.sol\":5797:5819  msg.sender != _admin() */\n      sub\n        /* \"upgradeability/AdminUpgradeabilityProxy.sol\":5776:5895  require(... */\n      tag_46\n      jumpi\n      mload(0x40)\n      0x08c379a000000000000000000000000000000000000000000000000000000000\n      dup2\n      mstore\n        /* \"#utility.yul\":3124:3126   */\n      0x20\n        /* \"upgradeability/AdminUpgradeabilityProxy.sol\":5776:5895  require(... */\n      0x04\n      dup3\n      add\n        /* \"#utility.yul\":3106:3127   */\n      mstore\n        /* \"#utility.yul\":3163:3165   */\n      0x32\n        /* \"#utility.yul\":3143:3161   */\n      0x24\n      dup3\n      add\n        /* \"#utility.yul\":3136:3166   */\n      mstore\n        /* \"#utility.yul\":3202:3236   */\n      0x43616e6e6f742063616c6c2066616c6c6261636b2066756e6374696f6e206672\n        /* \"#utility.yul\":3182:3200   */\n      0x44\n      dup3\n      add\n        /* \"#utility.yul\":3175:3237   */\n      mstore\n        /* \"#utility.yul\":3273:3293   */\n      0x6f6d207468652070726f78792061646d696e0000000000000000000000000000\n        /* \"#utility.yul\":3253:3271   */\n      0x64\n      dup3\n      add\n        /* \"#utility.yul\":3246:3294   */\n      mstore\n        /* \"#utility.yul\":3311:3330   */\n      0x84\n      add\n        /* \"upgradeability/AdminUpgradeabilityProxy.sol\":5776:5895  require(... */\n      tag_86\n        /* \"#utility.yul\":2922:3336   */\n      jump\n        /* \"https://github.com/OpenZeppelin/openzeppelin-contracts/blob/v4.8.3/contracts/proxy/Proxy.sol\":948:1843  function _delegate(address implementation) internal virtual {... */\n    tag_49:\n        /* \"https://github.com/OpenZeppelin/openzeppelin-contracts/blob/v4.8.3/contracts/proxy/Proxy.sol\":1286:1300  calldatasize() */\n      calldatasize\n        /* \"https://github.com/OpenZeppelin/openzeppelin-contracts/blob/v4.8.3/contracts/proxy/Proxy.sol\":1283:1284  0 */\n      0x00\n        /* \"https://github.com/OpenZeppelin/openzeppelin-contracts/blob/v4.8.3/contracts/proxy/Proxy.sol\":1280:1281  0 */\n      dup1\n        /* \"https://github.com/OpenZeppelin/openzeppelin-contracts/blob/v4.8.3/contracts/proxy/Proxy.sol\":1267:1301  calldatacopy(0, 0, calldatasize()) */\n      calldatacopy\n        /* \"https://github.com/OpenZeppelin/openzeppelin-contracts/blob/v4.8.3/contracts/proxy/Proxy.sol\":1500:1501  0 */\n      0x00\n        /* \"https://github.com/OpenZeppelin/openzeppelin-contracts/blob/v4.8.3/contracts/proxy/Proxy.sol\":1497:1498  0 */\n      dup1\n        /* \"https://github.com/OpenZeppelin/openzeppelin-contracts/blob/v4.8.3/contracts/proxy/Proxy.sol\":1481:1495  calldatasize() */\n      calldatasize\n        /* \"https://github.com/OpenZeppelin/openzeppelin-contracts/blob/v4.8.3/contracts/proxy/Proxy.sol\":1478:1479  0 */\n      0x00\n        /* \"https://github.com/OpenZeppelin/openzeppelin-contracts/blob/v4.8.3/contracts/proxy/Proxy.sol\":1462:1476  implementation */\n      dup5\n        /* \"https://github.com/OpenZeppelin/openzeppelin-contracts/blob/v4.8.3/contracts/proxy/Proxy.sol\":1455:1460  gas() */\n      gas\n        /* \"https://github.com/OpenZeppelin/openzeppelin-contracts/blob/v4.8.3/contracts/proxy/Proxy.sol\":1442:1502  delegatecall(gas(), implementation, 0, calldatasize(), 0, 0) */\n      delegatecall\n        /* \"https://github.com/OpenZeppelin/openzeppelin-contracts/blob/v4.8.3/contracts/proxy/Proxy.sol\":1576:1592  returndatasize() */\n      returndatasize\n        /* \"https://github.com/OpenZeppelin/openzeppelin-contracts/blob/v4.8.3/contracts/proxy/Proxy.sol\":1573:1574  0 */\n      0x00\n        /* \"https://github.com/OpenZeppelin/openzeppelin-contracts/blob/v4.8.3/contracts/proxy/Proxy.sol\":1570:1571  0 */\n      dup1\n        /* \"https://github.com/OpenZeppelin/openzeppelin-contracts/blob/v4.8.3/contracts/proxy/Proxy.sol\":1555:1593  returndatacopy(0, 0, returndatasize()) */\n      returndatacopy\n        /* \"https://github.com/OpenZeppelin/openzeppelin-contracts/blob/v4.8.3/contracts/proxy/Proxy.sol\":1614:1620  result */\n      dup1\n        /* \"https://github.com/OpenZeppelin/openzeppelin-contracts/blob/v4.8.3/contracts/proxy/Proxy.sol\":1681:1747  case 0 {... */\n      dup1\n      iszero\n      tag_107\n      jumpi\n        /* \"https://github.com/OpenZeppelin/openzeppelin-contracts/blob/v4.8.3/contracts/proxy/Proxy.sol\":1796:1812  returndatasize() */\n      returndatasize\n        /* \"https://github.com/OpenZeppelin/openzeppelin-contracts/blob/v4.8.3/contracts/proxy/Proxy.sol\":1793:1794  0 */\n      0x00\n        /* \"https://github.com/OpenZeppelin/openzeppelin-contracts/blob/v4.8.3/contracts/proxy/Proxy.sol\":1786:1813  return(0, returndatasize()) */\n      return\n        /* \"https://github.com/OpenZeppelin/openzeppelin-contracts/blob/v4.8.3/contracts/proxy/Proxy.sol\":1681:1747  case 0 {... */\n    tag_107:\n        /* \"https://github.com/OpenZeppelin/openzeppelin-contracts/blob/v4.8.3/contracts/proxy/Proxy.sol\":1716:1732  returndatasize() */\n      returndatasize\n        /* \"https://github.com/OpenZeppelin/openzeppelin-contracts/blob/v4.8.3/contracts/proxy/Proxy.sol\":1713:1714  0 */\n      0x00\n        /* \"https://github.com/OpenZeppelin/openzeppelin-contracts/blob/v4.8.3/contracts/proxy/Proxy.sol\":1706:1733  revert(0, returndatasize()) */\n      revert\n        /* \"upgradeability/UpgradeabilityProxy.sol\":3015:3167  function _upgradeTo(address newImplementation) internal {... */\n    tag_56:\n        /* \"upgradeability/UpgradeabilityProxy.sol\":3081:3118  _setImplementation(newImplementation) */\n      tag_110\n        /* \"upgradeability/UpgradeabilityProxy.sol\":3100:3117  newImplementation */\n      dup2\n        /* \"upgradeability/UpgradeabilityProxy.sol\":3081:3099  _setImplementation */\n      tag_111\n        /* \"upgradeability/UpgradeabilityProxy.sol\":3081:3118  _setImplementation(newImplementation) */\n      jump\t// in\n    tag_110:\n        /* \"upgradeability/UpgradeabilityProxy.sol\":3133:3160  Upgraded(newImplementation) */\n      mload(0x40)\n        /* \"#utility.yul\":1422:1464   */\n      0xffffffffffffffffffffffffffffffffffffffff\n        /* \"#utility.yul\":1410:1465   */\n      dup3\n      and\n        /* \"#utility.yul\":1392:1466   */\n      dup2\n      mstore\n        /* \"upgradeability/UpgradeabilityProxy.sol\":3133:3160  Upgraded(newImplementation) */\n      0xbc7cd75a20ee27fd9adebab32041f755214dbc6bffa90cc0225b39da2e5c2d3b\n      swap1\n        /* \"#utility.yul\":1380:1382   */\n      0x20\n        /* \"#utility.yul\":1365:1383   */\n      add\n        /* \"upgradeability/UpgradeabilityProxy.sol\":3133:3160  Upgraded(newImplementation) */\n      mload(0x40)\n      dup1\n      swap2\n      sub\n      swap1\n      log1\n        /* \"upgradeability/UpgradeabilityProxy.sol\":3015:3167  function _upgradeTo(address newImplementation) internal {... */\n      pop\n      jump\t// out\n        /* \"upgradeability/UpgradeabilityProxy.sol\":3314:3710  function _setImplementation(address newImplementation) private {... */\n    tag_111:\n        /* \"https://github.com/OpenZeppelin/openzeppelin-contracts/blob/v4.8.3/contracts/utils/Address.sol\":1465:1484  account.code.length */\n      0xffffffffffffffffffffffffffffffffffffffff\n      dup2\n      and\n      extcodesize\n        /* \"upgradeability/UpgradeabilityProxy.sol\":3387:3584  require(... */\n      tag_118\n      jumpi\n      mload(0x40)\n      0x08c379a000000000000000000000000000000000000000000000000000000000\n      dup2\n      mstore\n        /* \"#utility.yul\":3543:3545   */\n      0x20\n        /* \"upgradeability/UpgradeabilityProxy.sol\":3387:3584  require(... */\n      0x04\n      dup3\n      add\n        /* \"#utility.yul\":3525:3546   */\n      mstore\n        /* \"#utility.yul\":3582:3584   */\n      0x3b\n        /* \"#utility.yul\":3562:3580   */\n      0x24\n      dup3\n      add\n        /* \"#utility.yul\":3555:3585   */\n      mstore\n        /* \"#utility.yul\":3621:3655   */\n      0x43616e6e6f742073657420612070726f787920696d706c656d656e746174696f\n        /* \"#utility.yul\":3601:3619   */\n      0x44\n      dup3\n      add\n        /* \"#utility.yul\":3594:3656   */\n      mstore\n        /* \"#utility.yul\":3692:3721   */\n      0x6e20746f2061206e6f6e2d636f6e747261637420616464726573730000000000\n        /* \"#utility.yul\":3672:3690   */\n      0x64\n      dup3\n      add\n        /* \"#utility.yul\":3665:3722   */\n      mstore\n        /* \"#utility.yul\":3739:3758   */\n      0x84\n      add\n        /* \"upgradeability/UpgradeabilityProxy.sol\":3387:3584  require(... */\n      tag_86\n        /* \"#utility.yul\":3341:3764   */\n      jump\n        /* \"upgradeability/UpgradeabilityProxy.sol\":3387:3584  require(... */\n    tag_118:\n        /* \"upgradeability/UpgradeabilityProxy.sol\":2067:2133  0x7050c9e0f4ca769c69bd3a8ef740bc37934f8e2c036e5a723fd8ee048ed3f8c3 */\n      0x7050c9e0f4ca769c69bd3a8ef740bc37934f8e2c036e5a723fd8ee048ed3f8c3\n        /* \"upgradeability/UpgradeabilityProxy.sol\":3663:3694  sstore(slot, newImplementation) */\n      sstore\n        /* \"upgradeability/UpgradeabilityProxy.sol\":3314:3710  function _setImplementation(address newImplementation) private {... */\n      jump\t// out\n        /* \"#utility.yul\":14:210   */\n    tag_122:\n        /* \"#utility.yul\":82:102   */\n      dup1\n      calldataload\n        /* \"#utility.yul\":142:184   */\n      0xffffffffffffffffffffffffffffffffffffffff\n        /* \"#utility.yul\":131:185   */\n      dup2\n      and\n        /* \"#utility.yul\":121:186   */\n      dup2\n      eq\n        /* \"#utility.yul\":111:204   */\n      tag_126\n      jumpi\n        /* \"#utility.yul\":200:201   */\n      0x00\n        /* \"#utility.yul\":197:198   */\n      dup1\n        /* \"#utility.yul\":190:202   */\n      revert\n        /* \"#utility.yul\":111:204   */\n    tag_126:\n        /* \"#utility.yul\":14:210   */\n      swap2\n      swap1\n      pop\n      jump\t// out\n        /* \"#utility.yul\":215:401   */\n    tag_20:\n        /* \"#utility.yul\":274:280   */\n      0x00\n        /* \"#utility.yul\":327:329   */\n      0x20\n        /* \"#utility.yul\":315:324   */\n      dup3\n        /* \"#utility.yul\":306:313   */\n      dup5\n        /* \"#utility.yul\":302:325   */\n      sub\n        /* \"#utility.yul\":298:330   */\n      slt\n        /* \"#utility.yul\":295:347   */\n      iszero\n      tag_128\n      jumpi\n        /* \"#utility.yul\":343:344   */\n      0x00\n        /* \"#utility.yul\":340:341   */\n      dup1\n        /* \"#utility.yul\":333:345   */\n      revert\n        /* \"#utility.yul\":295:347   */\n    tag_128:\n        /* \"#utility.yul\":366:395   */\n      tag_129\n        /* \"#utility.yul\":385:394   */\n      dup3\n        /* \"#utility.yul\":366:395   */\n      tag_122\n      jump\t// in\n    tag_129:\n        /* \"#utility.yul\":356:395   */\n      swap4\n        /* \"#utility.yul\":215:401   */\n      swap3\n      pop\n      pop\n      pop\n      jump\t// out\n        /* \"#utility.yul\":406:753   */\n    tag_123:\n        /* \"#utility.yul\":457:465   */\n      0x00\n        /* \"#utility.yul\":467:473   */\n      dup1\n        /* \"#utility.yul\":521:524   */\n      dup4\n        /* \"#utility.yul\":514:518   */\n      0x1f\n        /* \"#utility.yul\":506:512   */\n      dup5\n        /* \"#utility.yul\":502:519   */\n      add\n        /* \"#utility.yul\":498:525   */\n      slt\n        /* \"#utility.yul\":488:543   */\n      tag_131\n      jumpi\n        /* \"#utility.yul\":539:540   */\n      0x00\n        /* \"#utility.yul\":536:537   */\n      dup1\n        /* \"#utility.yul\":529:541   */\n      revert\n        /* \"#utility.yul\":488:543   */\n    tag_131:\n      pop\n        /* \"#utility.yul\":562:582   */\n      dup2\n      calldataload\n        /* \"#utility.yul\":605:623   */\n      0xffffffffffffffff\n        /* \"#utility.yul\":594:624   */\n      dup2\n      gt\n        /* \"#utility.yul\":591:641   */\n      iszero\n      tag_132\n      jumpi\n        /* \"#utility.yul\":637:638   */\n      0x00\n        /* \"#utility.yul\":634:635   */\n      dup1\n        /* \"#utility.yul\":627:639   */\n      revert\n        /* \"#utility.yul\":591:641   */\n    tag_132:\n        /* \"#utility.yul\":674:678   */\n      0x20\n        /* \"#utility.yul\":666:672   */\n      dup4\n        /* \"#utility.yul\":662:679   */\n      add\n        /* \"#utility.yul\":650:679   */\n      swap2\n      pop\n        /* \"#utility.yul\":726:729   */\n      dup4\n        /* \"#utility.yul\":719:723   */\n      0x20\n        /* \"#utility.yul\":710:716   */\n      dup3\n        /* \"#utility.yul\":702:708   */\n      dup6\n        /* \"#utility.yul\":698:717   */\n      add\n        /* \"#utility.yul\":694:724   */\n      add\n        /* \"#utility.yul\":691:730   */\n      gt\n        /* \"#utility.yul\":688:747   */\n      iszero\n      tag_133\n      jumpi\n        /* \"#utility.yul\":743:744   */\n      0x00\n        /* \"#utility.yul\":740:741   */\n      dup1\n        /* \"#utility.yul\":733:745   */\n      revert\n        /* \"#utility.yul\":688:747   */\n    tag_133:\n        /* \"#utility.yul\":406:753   */\n      swap3\n      pop\n      swap3\n      swap1\n      pop\n      jump\t// out\n        /* \"#utility.yul\":758:1241   */\n    tag_24:\n        /* \"#utility.yul\":837:843   */\n      0x00\n        /* \"#utility.yul\":845:851   */\n      dup1\n        /* \"#utility.yul\":853:859   */\n      0x00\n        /* \"#utility.yul\":906:908   */\n      0x40\n        /* \"#utility.yul\":894:903   */\n      dup5\n        /* \"#utility.yul\":885:892   */\n      dup7\n        /* \"#utility.yul\":881:904   */\n      sub\n        /* \"#utility.yul\":877:909   */\n      slt\n        /* \"#utility.yul\":874:926   */\n      iszero\n      tag_135\n      jumpi\n        /* \"#utility.yul\":922:923   */\n      0x00\n        /* \"#utility.yul\":919:920   */\n      dup1\n        /* \"#utility.yul\":912:924   */\n      revert\n        /* \"#utility.yul\":874:926   */\n    tag_135:\n        /* \"#utility.yul\":945:974   */\n      tag_136\n        /* \"#utility.yul\":964:973   */\n      dup5\n        /* \"#utility.yul\":945:974   */\n      tag_122\n      jump\t// in\n    tag_136:\n        /* \"#utility.yul\":935:974   */\n      swap3\n      pop\n        /* \"#utility.yul\":1025:1027   */\n      0x20\n        /* \"#utility.yul\":1014:1023   */\n      dup5\n        /* \"#utility.yul\":1010:1028   */\n      add\n        /* \"#utility.yul\":997:1029   */\n      calldataload\n        /* \"#utility.yul\":1052:1070   */\n      0xffffffffffffffff\n        /* \"#utility.yul\":1044:1050   */\n      dup2\n        /* \"#utility.yul\":1041:1071   */\n      gt\n        /* \"#utility.yul\":1038:1088   */\n      iszero\n      tag_137\n      jumpi\n        /* \"#utility.yul\":1084:1085   */\n      0x00\n        /* \"#utility.yul\":1081:1082   */\n      dup1\n        /* \"#utility.yul\":1074:1086   */\n      revert\n        /* \"#utility.yul\":1038:1088   */\n    tag_137:\n        /* \"#utility.yul\":1123:1181   */\n      tag_138\n        /* \"#utility.yul\":1173:1180   */\n      dup7\n        /* \"#utility.yul\":1164:1170   */\n      dup3\n        /* \"#utility.yul\":1153:1162   */\n      dup8\n        /* \"#utility.yul\":1149:1171   */\n      add\n        /* \"#utility.yul\":1123:1181   */\n      tag_123\n      jump\t// in\n    tag_138:\n        /* \"#utility.yul\":758:1241   */\n      swap5\n      swap8\n        /* \"#utility.yul\":1200:1208   */\n      swap1\n      swap7\n      pop\n        /* \"#utility.yul\":1097:1181   */\n      swap4\n      swap5\n      pop\n      pop\n      pop\n      pop\n        /* \"#utility.yul\":758:1241   */\n      jump\t// out\n        /* \"#utility.yul\":1477:1886   */\n    tag_33:\n        /* \"#utility.yul\":1547:1553   */\n      0x00\n        /* \"#utility.yul\":1555:1561   */\n      dup1\n        /* \"#utility.yul\":1608:1610   */\n      0x20\n        /* \"#utility.yul\":1596:1605   */\n      dup4\n        /* \"#utility.yul\":1587:1594   */\n      dup6\n        /* \"#utility.yul\":1583:1606   */\n      sub\n        /* \"#utility.yul\":1579:1611   */\n      slt\n        /* \"#utility.yul\":1576:1628   */\n      iszero\n      tag_141\n      jumpi\n        /* \"#utility.yul\":1624:1625   */\n      0x00\n        /* \"#utility.yul\":1621:1622   */\n      dup1\n        /* \"#utility.yul\":1614:1626   */\n      revert\n        /* \"#utility.yul\":1576:1628   */\n    tag_141:\n        /* \"#utility.yul\":1664:1673   */\n      dup3\n        /* \"#utility.yul\":1651:1674   */\n      calldataload\n        /* \"#utility.yul\":1697:1715   */\n      0xffffffffffffffff\n        /* \"#utility.yul\":1689:1695   */\n      dup2\n        /* \"#utility.yul\":1686:1716   */\n      gt\n        /* \"#utility.yul\":1683:1733   */\n      iszero\n      tag_142\n      jumpi\n        /* \"#utility.yul\":1729:1730   */\n      0x00\n        /* \"#utility.yul\":1726:1727   */\n      dup1\n        /* \"#utility.yul\":1719:1731   */\n      revert\n        /* \"#utility.yul\":1683:1733   */\n    tag_142:\n        /* \"#utility.yul\":1768:1826   */\n      tag_143\n        /* \"#utility.yul\":1818:1825   */\n      dup6\n        /* \"#utility.yul\":1809:1815   */\n      dup3\n        /* \"#utility.yul\":1798:1807   */\n      dup7\n        /* \"#utility.yul\":1794:1816   */\n      add\n        /* \"#utility.yul\":1768:1826   */\n      tag_123\n      jump\t// in\n    tag_143:\n        /* \"#utility.yul\":1845:1853   */\n      swap1\n      swap7\n        /* \"#utility.yul\":1742:1826   */\n      swap1\n      swap6\n      pop\n        /* \"#utility.yul\":1477:1886   */\n      swap4\n      pop\n      pop\n      pop\n      pop\n      jump\t// out\n        /* \"#utility.yul\":1891:2162   */\n    tag_65:\n        /* \"#utility.yul\":2074:2080   */\n      dup2\n        /* \"#utility.yul\":2066:2072   */\n      dup4\n        /* \"#utility.yul\":2061:2064   */\n      dup3\n        /* \"#utility.yul\":2048:2081   */\n      calldatacopy\n        /* \"#utility.yul\":2030:2033   */\n      0x00\n        /* \"#utility.yul\":2100:2116   */\n      swap2\n      add\n        /* \"#utility.yul\":2125:2138   */\n      swap1\n      dup2\n      mstore\n        /* \"#utility.yul\":2100:2116   */\n      swap2\n        /* \"#utility.yul\":1891:2162   */\n      swap1\n      pop\n      jump\t// out\n\n    auxdata: 0xa2646970667358221220a28169e68168942a5878686260b809d2bbfd7c7716882f9a0a1f284e4f1cee8a64736f6c63430008190033\n}\n",
				"bytecode": {
					"linkReferences": {},
					"object": "608060405234801561001057600080fd5b506040516109d83803806109d883398101604081905261002f9161010d565b8061003981610068565b50610062337f10d6a54a4754c8869d6886b5f5d7fbfa5b4522237ea5c60d11bc4e7a1ff9390b55565b5061013d565b6001600160a01b0381163b6100e95760405162461bcd60e51b815260206004820152603b60248201527f43616e6e6f742073657420612070726f787920696d706c656d656e746174696f60448201527f6e20746f2061206e6f6e2d636f6e747261637420616464726573730000000000606482015260840160405180910390fd5b7f7050c9e0f4ca769c69bd3a8ef740bc37934f8e2c036e5a723fd8ee048ed3f8c355565b60006020828403121561011f57600080fd5b81516001600160a01b038116811461013657600080fd5b9392505050565b61088c8061014c6000396000f3fe6080604052600436106100695760003560e01c80636c9ad7db116100435780636c9ad7db146100f15780638f28397014610104578063f851a4401461012457610078565b80633659cfe6146100805780634f1ef286146100a05780635c60da1b146100b357610078565b3661007857610076610139565b005b610076610139565b34801561008c57600080fd5b5061007661009b366004610746565b610173565b6100766100ae3660046107b1565b6101c5565b3480156100bf57600080fd5b506100c8610299565b60405173ffffffffffffffffffffffffffffffffffffffff909116815260200160405180910390f35b6100766100ff366004610804565b6102c8565b34801561011057600080fd5b5061007661011f366004610746565b610366565b34801561013057600080fd5b506100c86104ec565b610141610516565b61017161016c7f7050c9e0f4ca769c69bd3a8ef740bc37934f8e2c036e5a723fd8ee048ed3f8c35490565b6105dc565b565b7f10d6a54a4754c8869d6886b5f5d7fbfa5b4522237ea5c60d11bc4e7a1ff9390b5473ffffffffffffffffffffffffffffffffffffffff1633036101bd576101ba81610600565b50565b6101ba610139565b7f10d6a54a4754c8869d6886b5f5d7fbfa5b4522237ea5c60d11bc4e7a1ff9390b5473ffffffffffffffffffffffffffffffffffffffff16330361028c5761020c83610600565b60003073ffffffffffffffffffffffffffffffffffffffff16348484604051610236929190610846565b60006040518083038185875af1925050503d8060008114610273576040519150601f19603f3d011682016040523d82523d6000602084013e610278565b606091505b505090508061028657600080fd5b50505050565b610294610139565b505050565b60006102c37f7050c9e0f4ca769c69bd3a8ef740bc37934f8e2c036e5a723fd8ee048ed3f8c35490565b905090565b60006102f27f7050c9e0f4ca769c69bd3a8ef740bc37934f8e2c036e5a723fd8ee048ed3f8c35490565b73ffffffffffffffffffffffffffffffffffffffff168383604051610318929190610846565b600060405180830381855af49150503d8060008114610353576040519150601f19603f3d011682016040523d82523d6000602084013e610358565b606091505b505090508061029457600080fd5b7f10d6a54a4754c8869d6886b5f5d7fbfa5b4522237ea5c60d11bc4e7a1ff9390b5473ffffffffffffffffffffffffffffffffffffffff1633036101bd5773ffffffffffffffffffffffffffffffffffffffff811661044c576040517f08c379a000000000000000000000000000000000000000000000000000000000815260206004820152603660248201527f43616e6e6f74206368616e6765207468652061646d696e206f6620612070726f60448201527f787920746f20746865207a65726f20616464726573730000000000000000000060648201526084015b60405180910390fd5b7f7e644d79422f17c01e4894b5f4f588d331ebfa28653d42ae832dc59e38c9798f6104957f10d6a54a4754c8869d6886b5f5d7fbfa5b4522237ea5c60d11bc4e7a1ff9390b5490565b6040805173ffffffffffffffffffffffffffffffffffffffff928316815291841660208301520160405180910390a16101ba817f10d6a54a4754c8869d6886b5f5d7fbfa5b4522237ea5c60d11bc4e7a1ff9390b55565b60006102c37f10d6a54a4754c8869d6886b5f5d7fbfa5b4522237ea5c60d11bc4e7a1ff9390b5490565b7f10d6a54a4754c8869d6886b5f5d7fbfa5b4522237ea5c60d11bc4e7a1ff9390b5473ffffffffffffffffffffffffffffffffffffffff163303610171576040517f08c379a000000000000000000000000000000000000000000000000000000000815260206004820152603260248201527f43616e6e6f742063616c6c2066616c6c6261636b2066756e6374696f6e20667260448201527f6f6d207468652070726f78792061646d696e00000000000000000000000000006064820152608401610443565b3660008037600080366000845af43d6000803e8080156105fb573d6000f35b3d6000fd5b61060981610655565b60405173ffffffffffffffffffffffffffffffffffffffff821681527fbc7cd75a20ee27fd9adebab32041f755214dbc6bffa90cc0225b39da2e5c2d3b9060200160405180910390a150565b73ffffffffffffffffffffffffffffffffffffffff81163b6106f9576040517f08c379a000000000000000000000000000000000000000000000000000000000815260206004820152603b60248201527f43616e6e6f742073657420612070726f787920696d706c656d656e746174696f60448201527f6e20746f2061206e6f6e2d636f6e7472616374206164647265737300000000006064820152608401610443565b7f7050c9e0f4ca769c69bd3a8ef740bc37934f8e2c036e5a723fd8ee048ed3f8c355565b803573ffffffffffffffffffffffffffffffffffffffff8116811461074157600080fd5b919050565b60006020828403121561075857600080fd5b6107618261071d565b9392505050565b60008083601f84011261077a57600080fd5b50813567ffffffffffffffff81111561079257600080fd5b6020830191508360208285010111156107aa57600080fd5b9250929050565b6000806000604084860312156107c657600080fd5b6107cf8461071d565b9250602084013567ffffffffffffffff8111156107eb57600080fd5b6107f786828701610768565b9497909650939450505050565b6000806020838503121561081757600080fd5b823567ffffffffffffffff81111561082e57600080fd5b61083a85828601610768565b90969095509350505050565b818382376000910190815291905056fea2646970667358221220a28169e68168942a5878686260b809d2bbfd7c7716882f9a0a1f284e4f1cee8a64736f6c63430008190033",
					"opcodes": "PUSH1 0x80 PUSH1 0x40 MSTORE CALLVALUE DUP1 ISZERO PUSH2 0x10 JUMPI PUSH1 0x0 DUP1 REVERT JUMPDEST POP PUSH1 0x40 MLOAD PUSH2 0x9D8 CODESIZE SUB DUP1 PUSH2 0x9D8 DUP4 CODECOPY DUP2 ADD PUSH1 0x40 DUP2 SWAP1 MSTORE PUSH2 0x2F SWAP2 PUSH2 0x10D JUMP JUMPDEST DUP1 PUSH2 0x39 DUP2 PUSH2 0x68 JUMP JUMPDEST POP PUSH2 0x62 CALLER PUSH32 0x10D6A54A4754C8869D6886B5F5D7FBFA5B4522237EA5C60D11BC4E7A1FF9390B SSTORE JUMP JUMPDEST POP PUSH2 0x13D JUMP JUMPDEST PUSH1 0x1 PUSH1 0x1 PUSH1 0xA0 SHL SUB DUP2 AND EXTCODESIZE PUSH2 0xE9 JUMPI PUSH1 0x40 MLOAD PUSH3 0x461BCD PUSH1 0xE5 SHL DUP2 MSTORE PUSH1 0x20 PUSH1 0x4 DUP3 ADD MSTORE PUSH1 0x3B PUSH1 0x24 DUP3 ADD MSTORE PUSH32 0x43616E6E6F742073657420612070726F787920696D706C656D656E746174696F PUSH1 0x44 DUP3 ADD MSTORE PUSH32 0x6E20746F2061206E6F6E2D636F6E747261637420616464726573730000000000 PUSH1 0x64 DUP3 ADD MSTORE PUSH1 0x84 ADD PUSH1 0x40 MLOAD DUP1 SWAP2 SUB SWAP1 REVERT JUMPDEST PUSH32 0x7050C9E0F4CA769C69BD3A8EF740BC37934F8E2C036E5A723FD8EE048ED3F8C3 SSTORE JUMP JUMPDEST PUSH1 0x0 PUSH1 0x20 DUP3 DUP5 SUB SLT ISZERO PUSH2 0x11F JUMPI PUSH1 0x0 DUP1 REVERT JUMPDEST DUP2 MLOAD PUSH1 0x1 PUSH1 0x1 PUSH1 0xA0 SHL SUB DUP2 AND DUP2 EQ PUSH2 0x136 JUMPI PUSH1 0x0 DUP1 REVERT JUMPDEST SWAP4 SWAP3 POP POP POP JUMP JUMPDEST PUSH2 0x88C DUP1 PUSH2 0x14C PUSH1 0x0 CODECOPY PUSH1 0x0 RETURN INVALID PUSH1 0x80 PUSH1 0x40 MSTORE PUSH1 0x4 CALLDATASIZE LT PUSH2 0x69 JUMPI PUSH1 0x0 CALLDATALOAD PUSH1 0xE0 SHR DUP1 PUSH4 0x6C9AD7DB GT PUSH2 0x43 JUMPI DUP1 PUSH4 0x6C9AD7DB EQ PUSH2 0xF1 JUMPI DUP1 PUSH4 0x8F283970 EQ PUSH2 0x104 JUMPI DUP1 PUSH4 0xF851A440 EQ PUSH2 0x124 JUMPI PUSH2 0x78 JUMP JUMPDEST DUP1 PUSH4 0x3659CFE6 EQ PUSH2 0x80 JUMPI DUP1 PUSH4 0x4F1EF286 EQ PUSH2 0xA0 JUMPI DUP1 PUSH4 0x5C60DA1B EQ PUSH2 0xB3 JUMPI PUSH2 0x78 JUMP JUMPDEST CALLDATASIZE PUSH2 0x78 JUMPI PUSH2 0x76 PUSH2 0x139 JUMP JUMPDEST STOP JUMPDEST PUSH2 0x76 PUSH2 0x139 JUMP JUMPDEST CALLVALUE DUP1 ISZERO PUSH2 0x8C JUMPI PUSH1 0x0 DUP1 REVERT JUMPDEST POP PUSH2 0x76 PUSH2 0x9B CALLDATASIZE PUSH1 0x4 PUSH2 0x746 JUMP JUMPDEST PUSH2 0x173 JUMP JUMPDEST PUSH2 0x76 PUSH2 0xAE CALLDATASIZE PUSH1 0x4 PUSH2 0x7B1 JUMP JUMPDEST PUSH2 0x1C5 JUMP JUMPDEST CALLVALUE DUP1 ISZERO PUSH2 0xBF JUMPI PUSH1 0x0 DUP1 REVERT JUMPDEST POP PUSH2 0xC8 PUSH2 0x299 JUMP JUMPDEST PUSH1 0x40 MLOAD PUSH20 0xFFFFFFFFFFFFFFFFFFFFFFFFFFFFFFFFFFFFFFFF SWAP1 SWAP2 AND DUP2 MSTORE PUSH1 0x20 ADD PUSH1 0x40 MLOAD DUP1 SWAP2 SUB SWAP1 RETURN JUMPDEST PUSH2 0x76 PUSH2 0xFF CALLDATASIZE PUSH1 0x4 PUSH2 0x804 JUMP JUMPDEST PUSH2 0x2C8 JUMP JUMPDEST CALLVALUE DUP1 ISZERO PUSH2 0x110 JUMPI PUSH1 0x0 DUP1 REVERT JUMPDEST POP PUSH2 0x76 PUSH2 0x11F CALLDATASIZE PUSH1 0x4 PUSH2 0x746 JUMP JUMPDEST PUSH2 0x366 JUMP JUMPDEST CALLVALUE DUP1 ISZERO PUSH2 0x130 JUMPI PUSH1 0x0 DUP1 REVERT JUMPDEST POP PUSH2 0xC8 PUSH2 0x4EC JUMP JUMPDEST PUSH2 0x141 PUSH2 0x516 JUMP JUMPDEST PUSH2 0x171 PUSH2 0x16C PUSH32 0x7050C9E0F4CA769C69BD3A8EF740BC37934F8E2C036E5A723FD8EE048ED3F8C3 SLOAD SWAP1 JUMP JUMPDEST PUSH2 0x5DC JUMP JUMPDEST JUMP JUMPDEST PUSH32 0x10D6A54A4754C8869D6886B5F5D7FBFA5B4522237EA5C60D11BC4E7A1FF9390B SLOAD PUSH20 0xFFFFFFFFFFFFFFFFFFFFFFFFFFFFFFFFFFFFFFFF AND CALLER SUB PUSH2 0x1BD JUMPI PUSH2 0x1BA DUP2 PUSH2 0x600 JUMP JUMPDEST POP JUMP JUMPDEST PUSH2 0x1BA PUSH2 0x139 JUMP JUMPDEST PUSH32 0x10D6A54A4754C8869D6886B5F5D7FBFA5B4522237EA5C60D11BC4E7A1FF9390B SLOAD PUSH20 0xFFFFFFFFFFFFFFFFFFFFFFFFFFFFFFFFFFFFFFFF AND CALLER SUB PUSH2 0x28C JUMPI PUSH2 0x20C DUP4 PUSH2 0x600 JUMP JUMPDEST PUSH1 0x0 ADDRESS PUSH20 0xFFFFFFFFFFFFFFFFFFFFFFFFFFFFFFFFFFFFFFFF AND CALLVALUE DUP5 DUP5 PUSH1 0x40 MLOAD PUSH2 0x236 SWAP3 SWAP2 SWAP1 PUSH2 0x846 JUMP JUMPDEST PUSH1 0x0 PUSH1 0x40 MLOAD DUP1 DUP4 SUB DUP2 DUP6 DUP8 GAS CALL SWAP3 POP POP POP RETURNDATASIZE DUP1 PUSH1 0x0 DUP2 EQ PUSH2 0x273 JUMPI PUSH1 0x40 MLOAD SWAP2 POP PUSH1 0x1F NOT PUSH1 0x3F RETURNDATASIZE ADD AND DUP3 ADD PUSH1 0x40 MSTORE RETURNDATASIZE DUP3 MSTORE RETURNDATASIZE PUSH1 0x0 PUSH1 0x20 DUP5 ADD RETURNDATACOPY PUSH2 0x278 JUMP JUMPDEST PUSH1 0x60 SWAP2 POP JUMPDEST POP POP SWAP1 POP DUP1 PUSH2 0x286 JUMPI PUSH1 0x0 DUP1 REVERT JUMPDEST POP POP POP POP JUMP JUMPDEST PUSH2 0x294 PUSH2 0x139 JUMP JUMPDEST POP POP POP JUMP JUMPDEST PUSH1 0x0 PUSH2 0x2C3 PUSH32 0x7050C9E0F4CA769C69BD3A8EF740BC37934F8E2C036E5A723FD8EE048ED3F8C3 SLOAD SWAP1 JUMP JUMPDEST SWAP1 POP SWAP1 JUMP JUMPDEST PUSH1 0x0 PUSH2 0x2F2 PUSH32 0x7050C9E0F4CA769C69BD3A8EF740BC37934F8E2C036E5A723FD8EE048ED3F8C3 SLOAD SWAP1 JUMP JUMPDEST PUSH20 0xFFFFFFFFFFFFFFFFFFFFFFFFFFFFFFFFFFFFFFFF AND DUP4 DUP4 PUSH1 0x40 MLOAD PUSH2 0x318 SWAP3 SWAP2 SWAP1 PUSH2 0x846 JUMP JUMPDEST PUSH1 0x0 PUSH1 0x40 MLOAD DUP1 DUP4 SUB DUP2 DUP6 GAS DELEGATECALL SWAP2 POP POP RETURNDATASIZE DUP1 PUSH1 0x0 DUP2 EQ PUSH2 0x353 JUMPI PUSH1 0x40 MLOAD SWAP2 POP PUSH1 0x1F NOT PUSH1 0x3F RETURNDATASIZE ADD AND DUP3 ADD PUSH1 0x40 MSTORE RETURNDATASIZE DUP3 MSTORE RETURNDATASIZE PUSH1 0x0 PUSH1 0x20 DUP5 ADD RETURNDATACOPY PUSH2 0x358 JUMP JUMPDEST PUSH1 0x60 SWAP2 POP JUMPDEST POP POP SWAP1 POP DUP1 PUSH2 0x294 JUMPI PUSH1 0x0 DUP1 REVERT JUMPDEST PUSH32 0x10D6A54A4754C8869D6886B5F5D7FBFA5B4522237EA5C60D11BC4E7A1FF9390B SLOAD PUSH20 0xFFFFFFFFFFFFFFFFFFFFFFFFFFFFFFFFFFFFFFFF AND CALLER SUB PUSH2 0x1BD JUMPI PUSH20 0xFFFFFFFFFFFFFFFFFFFFFFFFFFFFFFFFFFFFFFFF DUP2 AND PUSH2 0x44C JUMPI PUSH1 0x40 MLOAD PUSH32 0x8C379A000000000000000000000000000000000000000000000000000000000 DUP2 MSTORE PUSH1 0x20 PUSH1 0x4 DUP3 ADD MSTORE PUSH1 0x36 PUSH1 0x24 DUP3 ADD MSTORE PUSH32 0x43616E6E6F74206368616E6765207468652061646D696E206F6620612070726F PUSH1 0x44 DUP3 ADD MSTORE PUSH32 0x787920746F20746865207A65726F206164647265737300000000000000000000 PUSH1 0x64 DUP3 ADD MSTORE PUSH1 0x84 ADD JUMPDEST PUSH1 0x40 MLOAD DUP1 SWAP2 SUB SWAP1 REVERT JUMPDEST PUSH32 0x7E644D79422F17C01E4894B5F4F588D331EBFA28653D42AE832DC59E38C9798F PUSH2 0x495 PUSH32 0x10D6A54A4754C8869D6886B5F5D7FBFA5B4522237EA5C60D11BC4E7A1FF9390B SLOAD SWAP1 JUMP JUMPDEST PUSH1 0x40 DUP1 MLOAD PUSH20 0xFFFFFFFFFFFFFFFFFFFFFFFFFFFFFFFFFFFFFFFF SWAP3 DUP4 AND DUP2 MSTORE SWAP2 DUP5 AND PUSH1 0x20 DUP4 ADD MSTORE ADD PUSH1 0x40 MLOAD DUP1 SWAP2 SUB SWAP1 LOG1 PUSH2 0x1BA DUP2 PUSH32 0x10D6A54A4754C8869D6886B5F5D7FBFA5B4522237EA5C60D11BC4E7A1FF9390B SSTORE JUMP JUMPDEST PUSH1 0x0 PUSH2 0x2C3 PUSH32 0x10D6A54A4754C8869D6886B5F5D7FBFA5B4522237EA5C60D11BC4E7A1FF9390B SLOAD SWAP1 JUMP JUMPDEST PUSH32 0x10D6A54A4754C8869D6886B5F5D7FBFA5B4522237EA5C60D11BC4E7A1FF9390B SLOAD PUSH20 0xFFFFFFFFFFFFFFFFFFFFFFFFFFFFFFFFFFFFFFFF AND CALLER SUB PUSH2 0x171 JUMPI PUSH1 0x40 MLOAD PUSH32 0x8C379A000000000000000000000000000000000000000000000000000000000 DUP2 MSTORE PUSH1 0x20 PUSH1 0x4 DUP3 ADD MSTORE PUSH1 0x32 PUSH1 0x24 DUP3 ADD MSTORE PUSH32 0x43616E6E6F742063616C6C2066616C6C6261636B2066756E6374696F6E206672 PUSH1 0x44 DUP3 ADD MSTORE PUSH32 0x6F6D207468652070726F78792061646D696E0000000000000000000000000000 PUSH1 0x64 DUP3 ADD MSTORE PUSH1 0x84 ADD PUSH2 0x443 JUMP JUMPDEST CALLDATASIZE PUSH1 0x0 DUP1 CALLDATACOPY PUSH1 0x0 DUP1 CALLDATASIZE PUSH1 0x0 DUP5 GAS DELEGATECALL RETURNDATASIZE PUSH1 0x0 DUP1 RETURNDATACOPY DUP1 DUP1 ISZERO PUSH2 0x5FB JUMPI RETURNDATASIZE PUSH1 0x0 RETURN JUMPDEST RETURNDATASIZE PUSH1 0x0 REVERT JUMPDEST PUSH2 0x609 DUP2 PUSH2 0x655 JUMP JUMPDEST PUSH1 0x40 MLOAD PUSH20 0xFFFFFFFFFFFFFFFFFFFFFFFFFFFFFFFFFFFFFFFF DUP3 AND DUP2 MSTORE PUSH32 0xBC7CD75A20EE27FD9ADEBAB32041F755214DBC6BFFA90CC0225B39DA2E5C2D3B SWAP1 PUSH1 0x20 ADD PUSH1 0x40 MLOAD DUP1 SWAP2 SUB SWAP1 LOG1 POP JUMP JUMPDEST PUSH20 0xFFFFFFFFFFFFFFFFFFFFFFFFFFFFFFFFFFFFFFFF DUP2 AND EXTCODESIZE PUSH2 0x6F9 JUMPI PUSH1 0x40 MLOAD PUSH32 0x8C379A000000000000000000000000000000000000000000000000000000000 DUP2 MSTORE PUSH1 0x20 PUSH1 0x4 DUP3 ADD MSTORE PUSH1 0x3B PUSH1 0x24 DUP3 ADD MSTORE PUSH32 0x43616E6E6F742073657420612070726F787920696D706C656D656E746174696F PUSH1 0x44 DUP3 ADD MSTORE PUSH32 0x6E20746F2061206E6F6E2D636F6E747261637420616464726573730000000000 PUSH1 0x64 DUP3 ADD MSTORE PUSH1 0x84 ADD PUSH2 0x443 JUMP JUMPDEST PUSH32 0x7050C9E0F4CA769C69BD3A8EF740BC37934F8E2C036E5A723FD8EE048ED3F8C3 SSTORE JUMP JUMPDEST DUP1 CALLDATALOAD PUSH20 0xFFFFFFFFFFFFFFFFFFFFFFFFFFFFFFFFFFFFFFFF DUP2 AND DUP2 EQ PUSH2 0x741 JUMPI PUSH1 0x0 DUP1 REVERT JUMPDEST SWAP2 SWAP1 POP JUMP JUMPDEST PUSH1 0x0 PUSH1 0x20 DUP3 DUP5 SUB SLT ISZERO PUSH2 0x758 JUMPI PUSH1 0x0 DUP1 REVERT JUMPDEST PUSH2 0x761 DUP3 PUSH2 0x71D JUMP JUMPDEST SWAP4 SWAP3 POP POP POP JUMP JUMPDEST PUSH1 0x0 DUP1 DUP4 PUSH1 0x1F DUP5 ADD SLT PUSH2 0x77A JUMPI PUSH1 0x0 DUP1 REVERT JUMPDEST POP DUP2 CALLDATALOAD PUSH8 0xFFFFFFFFFFFFFFFF DUP2 GT ISZERO PUSH2 0x792 JUMPI PUSH1 0x0 DUP1 REVERT JUMPDEST PUSH1 0x20 DUP4 ADD SWAP2 POP DUP4 PUSH1 0x20 DUP3 DUP6 ADD ADD GT ISZERO PUSH2 0x7AA JUMPI PUSH1 0x0 DUP1 REVERT JUMPDEST SWAP3 POP SWAP3 SWAP1 POP JUMP JUMPDEST PUSH1 0x0 DUP1 PUSH1 0x0 PUSH1 0x40 DUP5 DUP7 SUB SLT ISZERO PUSH2 0x7C6 JUMPI PUSH1 0x0 DUP1 REVERT JUMPDEST PUSH2 0x7CF DUP5 PUSH2 0x71D JUMP JUMPDEST SWAP3 POP PUSH1 0x20 DUP5 ADD CALLDATALOAD PUSH8 0xFFFFFFFFFFFFFFFF DUP2 GT ISZERO PUSH2 0x7EB JUMPI PUSH1 0x0 DUP1 REVERT JUMPDEST PUSH2 0x7F7 DUP7 DUP3 DUP8 ADD PUSH2 0x768 JUMP JUMPDEST SWAP5 SWAP8 SWAP1 SWAP7 POP SWAP4 SWAP5 POP POP POP POP JUMP JUMPDEST PUSH1 0x0 DUP1 PUSH1 0x20 DUP4 DUP6 SUB SLT ISZERO PUSH2 0x817 JUMPI PUSH1 0x0 DUP1 REVERT JUMPDEST DUP3 CALLDATALOAD PUSH8 0xFFFFFFFFFFFFFFFF DUP2 GT ISZERO PUSH2 0x82E JUMPI PUSH1 0x0 DUP1 REVERT JUMPDEST PUSH2 0x83A DUP6 DUP3 DUP7 ADD PUSH2 0x768 JUMP JUMPDEST SWAP1 SWAP7 SWAP1 SWAP6 POP SWAP4 POP POP POP POP JUMP JUMPDEST DUP2 DUP4 DUP3 CALLDATACOPY PUSH1 0x0 SWAP2 ADD SWAP1 DUP2 MSTORE SWAP2 SWAP1 POP JUMP INVALID LOG2 PUSH5 0x6970667358 0x22 SLT KECCAK256 LOG2 DUP2 PUSH10 0xE68168942A5878686260 0xB8 MULMOD 0xD2 0xBB REVERT PUSH29 0x7716882F9A0A1F284E4F1CEE8A64736F6C634300081900330000000000 "
				},
				"gasEstimates": {
					"creation": {
						"codeDepositCost": "437600",
						"executionCost": "infinite",
						"totalCost": "infinite"
					},
					"external": {
						"": "infinite",
						"admin()": "1071",
						"changeAdmin(address)": "infinite",
						"funcCall(bytes)": "infinite",
						"implementation()": "1072",
						"upgradeTo(address)": "infinite",
						"upgradeToAndCall(address,bytes)": "infinite"
					},
					"internal": {
						"_admin()": "infinite",
						"_beforeFallback()": "infinite",
						"_setAdmin(address)": "infinite"
					}
				},
				"methodIdentifiers": {
					"admin()": "f851a440",
					"changeAdmin(address)": "8f283970",
					"funcCall(bytes)": "6c9ad7db",
					"implementation()": "5c60da1b",
					"upgradeTo(address)": "3659cfe6",
					"upgradeToAndCall(address,bytes)": "4f1ef286"
				}
			},
			"storageLayout": {
				"storage": [],
				"types": null
			},
			"userdoc": {
				"kind": "user",
				"methods": {},
				"notice": "This contract combines an upgradeability proxy with an authorization mechanism for administrative tasks.",
				"version": 1
			}
		}
	}
}