{"abi":[{"type":"function","name":"DEFAULT_ADMIN_ROLE","inputs":[],"outputs":[{"name":"","type":"bytes32","internalType":"bytes32"}],"stateMutability":"view"},{"type":"function","name":"DOMAIN_SEPARATOR","inputs":[],"outputs":[{"name":"","type":"bytes32","internalType":"bytes32"}],"stateMutability":"view"},{"type":"function","name":"GetInitializeData","inputs":[],"outputs":[{"name":"","type":"bytes","internalType":"bytes"}],"stateMutability":"pure"},{"type":"function","name":"MINTER_ROLE","inputs":[],"outputs":[{"name":"","type":"bytes32","internalType":"bytes32"}],"stateMutability":"view"},{"type":"function","name":"PAUSER_ROLE","inputs":[],"outputs":[{"name":"","type":"bytes32","internalType":"bytes32"}],"stateMutability":"view"},{"type":"function","name":"allowance","inputs":[{"name":"owner","type":"address","internalType":"address"},{"name":"spender","type":"address","internalType":"address"}],"outputs":[{"name":"","type":"uint256","internalType":"uint256"}],"stateMutability":"view"},{"type":"function","name":"approve","inputs":[{"name":"spender","type":"address","internalType":"address"},{"name":"amount","type":"uint256","internalType":"uint256"}],"outputs":[{"name":"","type":"bool","internalType":"bool"}],"stateMutability":"nonpayable"},{"type":"function","name":"approveAndCall","inputs":[{"name":"spender","type":"address","internalType":"address"},{"name":"amount","type":"uint256","internalType":"uint256"},{"name":"data","type":"bytes","internalType":"bytes"}],"outputs":[{"name":"","type":"bool","internalType":"bool"}],"stateMutability":"nonpayable"},{"type":"function","name":"balanceOf","inputs":[{"name":"account","type":"address","internalType":"address"}],"outputs":[{"name":"","type":"uint256","internalType":"uint256"}],"stateMutability":"view"},{"type":"function","name":"batchTransfer","inputs":[{"name":"recipients","type":"address[]","internalType":"address[]"},{"name":"amounts","type":"uint256[]","internalType":"uint256[]"}],"outputs":[],"stateMutability":"nonpayable"},{"type":"function","name":"blacklist","inputs":[{"name":"_account","type":"address","internalType":"address"}],"outputs":[],"stateMutability":"nonpayable"},{"type":"function","name":"blacklister","inputs":[],"outputs":[{"name":"","type":"address","internalType":"address"}],"stateMutability":"view"},{"type":"function","name":"burn","inputs":[{"name":"amount","type":"uint256","internalType":"uint256"}],"outputs":[],"stateMutability":"nonpayable"},{"type":"function","name":"burn","inputs":[{"name":"account","type":"address","internalType":"address"},{"name":"amount","type":"uint256","internalType":"uint256"}],"outputs":[],"stateMutability":"nonpayable"},{"type":"function","name":"burnFrom","inputs":[{"name":"account","type":"address","internalType":"address"},{"name":"amount","type":"uint256","internalType":"uint256"}],"outputs":[],"stateMutability":"nonpayable"},{"type":"function","name":"calcCommonFee","inputs":[{"name":"_value","type":"uint256","internalType":"uint256"}],"outputs":[{"name":"","type":"uint256","internalType":"uint256"}],"stateMutability":"view"},{"type":"function","name":"calcFee","inputs":[{"name":"account","type":"address","internalType":"address"},{"name":"_value","type":"uint256","internalType":"uint256"}],"outputs":[{"name":"_fee","type":"uint256","internalType":"uint256"}],"stateMutability":"view"},{"type":"function","name":"configureMinter","inputs":[{"name":"minter","type":"address","internalType":"address"},{"name":"minterAllowedAmount","type":"uint256","internalType":"uint256"}],"outputs":[{"name":"","type":"bool","internalType":"bool"}],"stateMutability":"nonpayable"},{"type":"function","name":"currency","inputs":[],"outputs":[{"name":"","type":"string","internalType":"string"}],"stateMutability":"view"},{"type":"function","name":"decimals","inputs":[],"outputs":[{"name":"","type":"uint8","internalType":"uint8"}],"stateMutability":"view"},{"type":"function","name":"decreaseAllowance","inputs":[{"name":"spender","type":"address","internalType":"address"},{"name":"subtractedValue","type":"uint256","internalType":"uint256"}],"outputs":[{"name":"","type":"bool","internalType":"bool"}],"stateMutability":"nonpayable"},{"type":"function","name":"eip712Domain","inputs":[],"outputs":[{"name":"fields","type":"bytes1","internalType":"bytes1"},{"name":"name","type":"string","internalType":"string"},{"name":"version","type":"string","internalType":"string"},{"name":"chainId","type":"uint256","internalType":"uint256"},{"name":"verifyingContract","type":"address","internalType":"address"},{"name":"salt","type":"bytes32","internalType":"bytes32"},{"name":"extensions","type":"uint256[]","internalType":"uint256[]"}],"stateMutability":"view"},{"type":"function","name":"getRoleAdmin","inputs":[{"name":"role","type":"bytes32","internalType":"bytes32"}],"outputs":[{"name":"","type":"bytes32","internalType":"bytes32"}],"stateMutability":"view"},{"type":"function","name":"grantRole","inputs":[{"name":"role","type":"bytes32","internalType":"bytes32"},{"name":"account","type":"address","internalType":"address"}],"outputs":[],"stateMutability":"nonpayable"},{"type":"function","name":"hasRole","inputs":[{"name":"role","type":"bytes32","internalType":"bytes32"},{"name":"account","type":"address","internalType":"address"}],"outputs":[{"name":"","type":"bool","internalType":"bool"}],"stateMutability":"view"},{"type":"function","name":"increaseAllowance","inputs":[{"name":"spender","type":"address","internalType":"address"},{"name":"addedValue","type":"uint256","internalType":"uint256"}],"outputs":[{"name":"","type":"bool","internalType":"bool"}],"stateMutability":"nonpayable"},{"type":"function","name":"initialize","inputs":[{"name":"name_","type":"string","internalType":"string"},{"name":"symbol_","type":"string","internalType":"string"}],"outputs":[],"stateMutability":"nonpayable"},{"type":"function","name":"isBlacklisted","inputs":[{"name":"_account","type":"address","internalType":"address"}],"outputs":[{"name":"","type":"bool","internalType":"bool"}],"stateMutability":"view"},{"type":"function","name":"isMinter","inputs":[{"name":"account","type":"address","internalType":"address"}],"outputs":[{"name":"","type":"bool","internalType":"bool"}],"stateMutability":"view"},{"type":"function","name":"masterMinter","inputs":[],"outputs":[{"name":"","type":"address","internalType":"address"}],"stateMutability":"view"},{"type":"function","name":"mint","inputs":[{"name":"to","type":"address","internalType":"address"},{"name":"amount","type":"uint256","internalType":"uint256"}],"outputs":[],"stateMutability":"nonpayable"},{"type":"function","name":"minterAllowance","inputs":[{"name":"minter","type":"address","internalType":"address"}],"outputs":[{"name":"","type":"uint256","internalType":"uint256"}],"stateMutability":"view"},{"type":"function","name":"name","inputs":[],"outputs":[{"name":"","type":"string","internalType":"string"}],"stateMutability":"view"},{"type":"function","name":"nonces","inputs":[{"name":"owner","type":"address","internalType":"address"}],"outputs":[{"name":"","type":"uint256","internalType":"uint256"}],"stateMutability":"view"},{"type":"function","name":"owner","inputs":[],"outputs":[{"name":"","type":"address","internalType":"address"}],"stateMutability":"view"},{"type":"function","name":"pause","inputs":[],"outputs":[],"stateMutability":"nonpayable"},{"type":"function","name":"paused","inputs":[],"outputs":[{"name":"","type":"bool","internalType":"bool"}],"stateMutability":"view"},{"type":"function","name":"permit","inputs":[{"name":"owner","type":"address","internalType":"address"},{"name":"spender","type":"address","internalType":"address"},{"name":"value","type":"uint256","internalType":"uint256"},{"name":"deadline","type":"uint256","internalType":"uint256"},{"name":"v","type":"uint8","internalType":"uint8"},{"name":"r","type":"bytes32","internalType":"bytes32"},{"name":"s","type":"bytes32","internalType":"bytes32"}],"outputs":[],"stateMutability":"nonpayable"},{"type":"function","name":"redeem","inputs":[{"name":"account","type":"address","internalType":"address"},{"name":"amount","type":"uint256","internalType":"uint256"}],"outputs":[],"stateMutability":"nonpayable"},{"type":"function","name":"removeMinter","inputs":[{"name":"minter","type":"address","internalType":"address"}],"outputs":[{"name":"","type":"bool","internalType":"bool"}],"stateMutability":"nonpayable"},{"type":"function","name":"renounceOwnership","inputs":[],"outputs":[],"stateMutability":"nonpayable"},{"type":"function","name":"renounceRole","inputs":[{"name":"role","type":"bytes32","internalType":"bytes32"},{"name":"account","type":"address","internalType":"address"}],"outputs":[],"stateMutability":"nonpayable"},{"type":"function","name":"revokeRole","inputs":[{"name":"role","type":"bytes32","internalType":"bytes32"},{"name":"account","type":"address","internalType":"address"}],"outputs":[],"stateMutability":"nonpayable"},{"type":"function","name":"supportsInterface","inputs":[{"name":"interfaceId","type":"bytes4","internalType":"bytes4"}],"outputs":[{"name":"","type":"bool","internalType":"bool"}],"stateMutability":"view"},{"type":"function","name":"symbol","inputs":[],"outputs":[{"name":"","type":"string","internalType":"string"}],"stateMutability":"view"},{"type":"function","name":"totalFee","inputs":[{"name":"_account","type":"address","internalType":"address"}],"outputs":[{"name":"","type":"uint256","internalType":"uint256"}],"stateMutability":"view"},{"type":"function","name":"totalSupply","inputs":[],"outputs":[{"name":"","type":"uint256","internalType":"uint256"}],"stateMutability":"view"},{"type":"function","name":"transfer","inputs":[{"name":"to","type":"address","internalType":"address"},{"name":"amount","type":"uint256","internalType":"uint256"}],"outputs":[{"name":"","type":"bool","internalType":"bool"}],"stateMutability":"nonpayable"},{"type":"function","name":"transferFee","inputs":[{"name":"feeAccount","type":"address","internalType":"address"},{"name":"to","type":"address","internalType":"address"},{"name":"value","type":"uint256","internalType":"uint256"},{"name":"orderId","type":"bytes","internalType":"bytes"}],"outputs":[{"name":"","type":"bool","internalType":"bool"}],"stateMutability":"nonpayable"},{"type":"function","name":"transferFrom","inputs":[{"name":"from","type":"address","internalType":"address"},{"name":"to","type":"address","internalType":"address"},{"name":"amount","type":"uint256","internalType":"uint256"}],"outputs":[{"name":"","type":"bool","internalType":"bool"}],"stateMutability":"nonpayable"},{"type":"function","name":"transferOwnership","inputs":[{"name":"newOwner","type":"address","internalType":"address"}],"outputs":[],"stateMutability":"nonpayable"},{"type":"function","name":"transferWithAuthorizationFee","inputs":[{"name":"feeAccount","type":"address","internalType":"address"},{"name":"from","type":"address","internalType":"address"},{"name":"to","type":"address","internalType":"address"},{"name":"value","type":"uint256","internalType":"uint256"},{"name":"validAfter","type":"uint256","internalType":"uint256"},{"name":"validBefore","type":"uint256","internalType":"uint256"},{"name":"nonce","type":"bytes32","internalType":"bytes32"},{"name":"v","type":"uint8","internalType":"uint8"},{"name":"r","type":"bytes32","internalType":"bytes32"},{"name":"s","type":"bytes32","internalType":"bytes32"},{"name":"orderId","type":"bytes","internalType":"bytes"}],"outputs":[],"stateMutability":"nonpayable"},{"type":"function","name":"transferWithAuthorizationFee","inputs":[{"name":"feeAccount","type":"address","internalType":"address"},{"name":"from","type":"address","internalType":"address"},{"name":"to","type":"address","internalType":"address"},{"name":"value","type":"uint256","internalType":"uint256"},{"name":"validAfter","type":"uint256","internalType":"uint256"},{"name":"validBefore","type":"uint256","internalType":"uint256"},{"name":"nonce","type":"bytes32","internalType":"bytes32"},{"name":"signature","type":"bytes","internalType":"bytes"},{"name":"orderId","type":"bytes","internalType":"bytes"}],"outputs":[],"stateMutability":"nonpayable"},{"type":"function","name":"unBlacklist","inputs":[{"name":"_account","type":"address","internalType":"address"}],"outputs":[],"stateMutability":"nonpayable"},{"type":"function","name":"unpause","inputs":[],"outputs":[],"stateMutability":"nonpayable"},{"type":"function","name":"updateBlacklister","inputs":[{"name":"_newBlacklister","type":"address","internalType":"address"}],"outputs":[],"stateMutability":"nonpayable"},{"type":"function","name":"updateCurrency","inputs":[{"name":"_currency","type":"string","internalType":"string"}],"outputs":[],"stateMutability":"nonpayable"},{"type":"function","name":"updateDecimals","inputs":[{"name":"upDecimals","type":"uint8","internalType":"uint8"}],"outputs":[{"name":"","type":"bool","internalType":"bool"}],"stateMutability":"nonpayable"},{"type":"function","name":"updateMasterMinter","inputs":[{"name":"_newMasterMinter","type":"address","internalType":"address"}],"outputs":[],"stateMutability":"nonpayable"},{"type":"event","name":"AdminChanged","inputs":[{"name":"previousAdmin","type":"address","indexed":false,"internalType":"address"},{"name":"newAdmin","type":"address","indexed":false,"internalType":"address"}],"anonymous":false},{"type":"event","name":"Approval","inputs":[{"name":"owner","type":"address","indexed":true,"internalType":"address"},{"name":"spender","type":"address","indexed":true,"internalType":"address"},{"name":"value","type":"uint256","indexed":false,"internalType":"uint256"}],"anonymous":false},{"type":"event","name":"BeaconUpgraded","inputs":[{"name":"beacon","type":"address","indexed":true,"internalType":"address"}],"anonymous":false},{"type":"event","name":"Blacklisted","inputs":[{"name":"_account","type":"address","indexed":true,"internalType":"address"}],"anonymous":false},{"type":"event","name":"BlacklisterChanged","inputs":[{"name":"newBlacklister","type":"address","indexed":true,"internalType":"address"}],"anonymous":false},{"type":"event","name":"Burn","inputs":[{"name":"burner","type":"address","indexed":true,"internalType":"address"},{"name":"amount","type":"uint256","indexed":false,"internalType":"uint256"}],"anonymous":false},{"type":"event","name":"EIP712DomainChanged","inputs":[],"anonymous":false},{"type":"event","name":"Initialized","inputs":[{"name":"version","type":"uint8","indexed":false,"internalType":"uint8"}],"anonymous":false},{"type":"event","name":"MasterMinterChanged","inputs":[{"name":"newMasterMinter","type":"address","indexed":true,"internalType":"address"}],"anonymous":false},{"type":"event","name":"Mint","inputs":[{"name":"minter","type":"address","indexed":true,"internalType":"address"},{"name":"to","type":"address","indexed":true,"internalType":"address"},{"name":"amount","type":"uint256","indexed":false,"internalType":"uint256"}],"anonymous":false},{"type":"event","name":"MinterConfigured","inputs":[{"name":"minter","type":"address","indexed":true,"internalType":"address"},{"name":"minterAllowedAmount","type":"uint256","indexed":false,"internalType":"uint256"}],"anonymous":false},{"type":"event","name":"MinterRemoved","inputs":[{"name":"oldMinter","type":"address","indexed":true,"internalType":"address"}],"anonymous":false},{"type":"event","name":"OwnershipTransferred","inputs":[{"name":"previousOwner","type":"address","indexed":true,"internalType":"address"},{"name":"newOwner","type":"address","indexed":true,"internalType":"address"}],"anonymous":false},{"type":"event","name":"Paused","inputs":[{"name":"account","type":"address","indexed":false,"internalType":"address"}],"anonymous":false},{"type":"event","name":"RoleAdminChanged","inputs":[{"name":"role","type":"bytes32","indexed":true,"internalType":"bytes32"},{"name":"previousAdminRole","type":"bytes32","indexed":true,"internalType":"bytes32"},{"name":"newAdminRole","type":"bytes32","indexed":true,"internalType":"bytes32"}],"anonymous":false},{"type":"event","name":"RoleGranted","inputs":[{"name":"role","type":"bytes32","indexed":true,"internalType":"bytes32"},{"name":"account","type":"address","indexed":true,"internalType":"address"},{"name":"sender","type":"address","indexed":true,"internalType":"address"}],"anonymous":false},{"type":"event","name":"RoleRevoked","inputs":[{"name":"role","type":"bytes32","indexed":true,"internalType":"bytes32"},{"name":"account","type":"address","indexed":true,"internalType":"address"},{"name":"sender","type":"address","indexed":true,"internalType":"address"}],"anonymous":false},{"type":"event","name":"Transfer","inputs":[{"name":"from","type":"address","indexed":true,"internalType":"address"},{"name":"to","type":"address","indexed":true,"internalType":"address"},{"name":"value","type":"uint256","indexed":false,"internalType":"uint256"}],"anonymous":false},{"type":"event","name":"UnBlacklisted","inputs":[{"name":"_account","type":"address","indexed":true,"internalType":"address"}],"anonymous":false},{"type":"event","name":"Unpaused","inputs":[{"name":"account","type":"address","indexed":false,"internalType":"address"}],"anonymous":false},{"type":"event","name":"Upgraded","inputs":[{"name":"implementation","type":"address","indexed":true,"internalType":"address"}],"anonymous":false}],"bytecode":{"object":"0x6080604052348015600f57600080fd5b50614d3e8061001f6000396000f3fe608060405234801561001057600080fd5b50600436106103995760003560e01c80637ecebe00116101e9578063ad38bf221161010f578063d547741f116100ad578063e63ab1e91161007c578063e63ab1e9146109d7578063f2fde38b146109fe578063f9f92be414610a11578063fe575a8714610a2457600080fd5b8063d547741f14610963578063d6a7e16914610976578063dd62ed3e14610989578063e5a6b10f146109cf57600080fd5b8063cae9ca51116100e9578063cae9ca5114610825578063d3d655f814610838578063d505accf14610929578063d53913931461093c57600080fd5b8063ad38bf22146107de578063adbd6c99146107f1578063bd1024301461080457600080fd5b806395d89b4111610187578063a457c2d711610156578063a457c2d71461076b578063a9059cbb1461077e578063aa20e1e414610791578063aa271e1a146107a457600080fd5b806395d89b41146107355780639dc29fac1461073d578063a0cf7edf14610750578063a217fddf1461076357600080fd5b806388d695b2116101c357806388d695b2146106865780638a6db9c3146106995780638da5cb5b146106d057806391d14854146106ee57600080fd5b80637ecebe00146106505780638456cb591461066357806384b0196e1461066b57600080fd5b806335d99f35116102ce5780634cd88b761161026c57806370a082311161023b57806370a08231146105f1578063715018a61461062757806379cc67901461062f5780637a4fda3d1461064257600080fd5b80634cd88b76146105ac5780634e44d956146105bf5780635c975abb146105d257806361f3b7b0146105dd57600080fd5b806339509351116102a8578063395093511461056b5780633f4ba83a1461057e57806340c10f191461058657806342966c681461059957600080fd5b806335d99f351461050a5780633644e5151461055057806336568abe1461055857600080fd5b80631e9a69501161033b5780632f2ff15d116103155780632f2ff15d146104bb5780633092afd5146104ce578063313ce567146104e157806332786e76146104f757600080fd5b80631e9a69501461047157806323b872dd14610484578063248a9ca31461049757600080fd5b80630ce83a61116103775780630ce83a61146103ee57806318160ddd146104345780631a895266146104465780631d16c3ee1461045b57600080fd5b806301ffc9a71461039e57806306fdde03146103c6578063095ea7b3146103db575b600080fd5b6103b16103ac366004614153565b610a37565b60405190151581526020015b60405180910390f35b6103ce610ad0565b6040516103bd9190614203565b6103b16103e936600461423a565b610b62565b6103b16103fc366004614275565b6101fb80547fffffffffffffffffffffffffffffffffffffffffffffffffffffffffffffff001660ff92909216919091179055600190565b6035545b6040519081526020016103bd565b610459610454366004614290565b610b7a565b005b61043861046936600461423a565b600092915050565b61045961047f36600461423a565b610c74565b6103b16104923660046142ab565b610c82565b6104386104a53660046142e8565b60009081526101c6602052604090206001015490565b6104596104c9366004614301565b610e22565b6103b16104dc366004614290565b610e4d565b6101fb5460405160ff90911681526020016103bd565b610459610505366004614440565b610f81565b6101f95461052b9073ffffffffffffffffffffffffffffffffffffffff1681565b60405173ffffffffffffffffffffffffffffffffffffffff90911681526020016103bd565b610438610f9e565b610459610566366004614301565b610fad565b6103b161057936600461423a565b61105c565b6104596110a8565b61045961059436600461423a565b611178565b6104596105a73660046142e8565b61122a565b6104596105ba3660046144fd565b6112de565b6103b16105cd36600461423a565b6114f3565b60975460ff166103b1565b6104386105eb3660046142e8565b50600090565b6104386105ff366004614290565b73ffffffffffffffffffffffffffffffffffffffff1660009081526033602052604090205490565b610459611635565b61045961063d36600461423a565b611647565b6104386105eb366004614290565b61043861065e366004614290565b6116f9565b610459611725565b6106736117f3565b6040516103bd9796959493929190614566565b6104596106943660046146ae565b6118d1565b6104386106a7366004614290565b73ffffffffffffffffffffffffffffffffffffffff1660009081526101fa602052604090205490565b60fb5473ffffffffffffffffffffffffffffffffffffffff1661052b565b6103b16106fc366004614301565b60009182526101c66020908152604080842073ffffffffffffffffffffffffffffffffffffffff93909316845291905290205460ff1690565b6103ce6119b3565b61045961074b36600461423a565b6119c2565b6103b161075e36600461476d565b611a74565b610438600081565b6103b161077936600461423a565b611b92565b6103b161078c36600461423a565b611c6e565b61045961079f366004614290565b611df4565b6103b16107b2366004614290565b73ffffffffffffffffffffffffffffffffffffffff1660009081526101f8602052604090205460ff1690565b6104596107ec366004614290565b611f07565b6104596107ff3660046147d5565b612022565b6101fd5461052b9073ffffffffffffffffffffffffffffffffffffffff1681565b6103b1610833366004614897565b61203d565b6103ce604080516024810191909152600960648201527f6a647363546f6b656e0000000000000000000000000000000000000000000000608482015260806044820152600460a48201527f6a6473630000000000000000000000000000000000000000000000000000000060c482015260609060e401604080517fffffffffffffffffffffffffffffffffffffffffffffffffffffffffffffffe08184030181529190526020810180517bffffffffffffffffffffffffffffffffffffffffffffffffffffffff167f4cd88b7600000000000000000000000000000000000000000000000000000000179052919050565b6104596109373660046148ee565b61211e565b6104387f9f2df0fed2c77648de5860a4cc508cd0818c85b8b8a1ab4ceeef8d981c8956a681565b610459610971366004614301565b6122dd565b610459610984366004614959565b612303565b61043861099736600461498e565b73ffffffffffffffffffffffffffffffffffffffff918216600090815260346020908152604080832093909416825291909152205490565b6103ce612310565b6104387f65d7a28e3265b37a6474929f336521b332c1681b933f6cb9f3376673440d862a81565b610459610a0c366004614290565b61239f565b610459610a1f366004614290565b612453565b6103b1610a32366004614290565b612548565b60007fffffffff0000000000000000000000000000000000000000000000000000000082167f7965db0b000000000000000000000000000000000000000000000000000000001480610aca57507f01ffc9a7000000000000000000000000000000000000000000000000000000007fffffffff000000000000000000000000000000000000000000000000000000008316145b92915050565b606060368054610adf906149b8565b80601f0160208091040260200160405190810160405280929190818152602001828054610b0b906149b8565b8015610b585780601f10610b2d57610100808354040283529160200191610b58565b820191906000526020600020905b815481529060010190602001808311610b3b57829003601f168201915b5050505050905090565b600033610b7081858561257a565b5060019392505050565b6101fd5473ffffffffffffffffffffffffffffffffffffffff163314610c27576040517f08c379a000000000000000000000000000000000000000000000000000000000815260206004820152602c60248201527f426c61636b6c69737461626c653a2063616c6c6572206973206e6f742074686560448201527f20626c61636b6c6973746572000000000000000000000000000000000000000060648201526084015b60405180910390fd5b610c308161272d565b60405173ffffffffffffffffffffffffffffffffffffffff8216907f117e3210bb9aa7d9baff172026820255c6f6c30ba8999d1c2fd88e2848137c4e90600090a250565b610c7e82826119c2565b5050565b6000610c8c612738565b73ffffffffffffffffffffffffffffffffffffffff841660009081526101fe6020526040902054849060ff1c600103610d47576040517f08c379a000000000000000000000000000000000000000000000000000000000815260206004820152602560248201527f426c61636b6c69737461626c653a206163636f756e7420697320626c61636b6c60448201527f69737465640000000000000000000000000000000000000000000000000000006064820152608401610c1e565b73ffffffffffffffffffffffffffffffffffffffff841660009081526101fe6020526040902054849060ff1c600103610e02576040517f08c379a000000000000000000000000000000000000000000000000000000000815260206004820152602560248201527f426c61636b6c69737461626c653a206163636f756e7420697320626c61636b6c60448201527f69737465640000000000000000000000000000000000000000000000000000006064820152608401610c1e565b610e0a6127a5565b610e15868686612826565b5060019695505050505050565b60008281526101c66020526040902060010154610e3e81612843565b610e48838361284d565b505050565b6101f95460009073ffffffffffffffffffffffffffffffffffffffff163314610ef8576040517f08c379a000000000000000000000000000000000000000000000000000000000815260206004820152602a60248201527f4d696e74657261626c653a2063616c6c6572206973206e6f7420746865206d6160448201527f737465724d696e746572000000000000000000000000000000000000000000006064820152608401610c1e565b73ffffffffffffffffffffffffffffffffffffffff821660008181526101f86020908152604080832080547fffffffffffffffffffffffffffffffffffffffffffffffffffffffffffffff001690556101fa909152808220829055517fe94479a9f7e1952cc78f2d6baab678adc1b772d936c6583def489e524cb666929190a25060015b919050565b610f89612738565b610f916127a5565b5050505050505050505050565b6000610fa8612943565b905090565b73ffffffffffffffffffffffffffffffffffffffff81163314611052576040517f08c379a000000000000000000000000000000000000000000000000000000000815260206004820152602f60248201527f416363657373436f6e74726f6c3a2063616e206f6e6c792072656e6f756e636560448201527f20726f6c657320666f722073656c6600000000000000000000000000000000006064820152608401610c1e565b610c7e828261294d565b33600081815260346020908152604080832073ffffffffffffffffffffffffffffffffffffffff87168452909152812054909190610b7090829086906110a3908790614a34565b61257a565b6110b0612a0a565b6110b86127a5565b6110e27f65d7a28e3265b37a6474929f336521b332c1681b933f6cb9f3376673440d862a336106fc565b61116e576040517f08c379a000000000000000000000000000000000000000000000000000000000815260206004820152603a60248201527f546f6b656e426173655570677261646561626c6554656d703a206d757374206860448201527f6176652070617573657220726f6c6520746f20756e70617573650000000000006064820152608401610c1e565b611176612a76565b565b611180612738565b3360009081526101f8602052604090205460ff16611220576040517f08c379a000000000000000000000000000000000000000000000000000000000815260206004820152602260248201527f4d696e74657261626c653a2063616c6c6572206973206e6f742061206d696e7460448201527f65720000000000000000000000000000000000000000000000000000000000006064820152608401610c1e565b610c7e8282612af3565b611232612738565b3360009081526101f8602052604090205460ff166112d2576040517f08c379a000000000000000000000000000000000000000000000000000000000815260206004820152602260248201527f4d696e74657261626c653a2063616c6c6572206973206e6f742061206d696e7460448201527f65720000000000000000000000000000000000000000000000000000000000006064820152608401610c1e565b6112db81612bf4565b50565b600054610100900460ff16158080156112fe5750600054600160ff909116105b806113185750303b158015611318575060005460ff166001145b6113a4576040517f08c379a000000000000000000000000000000000000000000000000000000000815260206004820152602e60248201527f496e697469616c697a61626c653a20636f6e747261637420697320616c72656160448201527f647920696e697469616c697a65640000000000000000000000000000000000006064820152608401610c1e565b600080547fffffffffffffffffffffffffffffffffffffffffffffffffffffffffffffff00166001179055801561140257600080547fffffffffffffffffffffffffffffffffffffffffffffffffffffffffffff00ff166101001790555b61140c8383612bfe565b61141583612c9f565b61141d612d75565b611425612e0c565b61142d612eab565b611438600033612f4a565b6114627f65d7a28e3265b37a6474929f336521b332c1681b933f6cb9f3376673440d862a33612f4a565b61148c7f9f2df0fed2c77648de5860a4cc508cd0818c85b8b8a1ab4ceeef8d981c8956a633612f4a565b8015610e4857600080547fffffffffffffffffffffffffffffffffffffffffffffffffffffffffffff00ff169055604051600181527f7f26b83ff96e1f2b6a682f133852f6798a09c465da95921460cefb38474024989060200160405180910390a1505050565b6101f95460009073ffffffffffffffffffffffffffffffffffffffff16331461159e576040517f08c379a000000000000000000000000000000000000000000000000000000000815260206004820152602a60248201527f4d696e74657261626c653a2063616c6c6572206973206e6f7420746865206d6160448201527f737465724d696e746572000000000000000000000000000000000000000000006064820152608401610c1e565b73ffffffffffffffffffffffffffffffffffffffff831660008181526101f86020908152604080832080547fffffffffffffffffffffffffffffffffffffffffffffffffffffffffffffff001660011790556101fa82529182902085905590518481527f46980fca912ef9bcdbd36877427b6b90e860769f604e89c0e67720cece530d20910160405180910390a250600192915050565b61163d6127a5565b6111766000612f54565b61164f612738565b3360009081526101f8602052604090205460ff166116ef576040517f08c379a000000000000000000000000000000000000000000000000000000000815260206004820152602260248201527f4d696e74657261626c653a2063616c6c6572206973206e6f742061206d696e7460448201527f65720000000000000000000000000000000000000000000000000000000000006064820152608401610c1e565b610c7e8282612fcb565b73ffffffffffffffffffffffffffffffffffffffff811660009081526101616020526040812054610aca565b61172d612738565b6117356127a5565b61175f7f65d7a28e3265b37a6474929f336521b332c1681b933f6cb9f3376673440d862a336106fc565b6117eb576040517f08c379a000000000000000000000000000000000000000000000000000000000815260206004820152603860248201527f546f6b656e426173655570677261646561626c6554656d703a206d757374206860448201527f6176652070617573657220726f6c6520746f20706175736500000000000000006064820152608401610c1e565b611176612fd6565b60006060806000806000606061012d546000801b148015611815575061012e54155b61187b576040517f08c379a000000000000000000000000000000000000000000000000000000000815260206004820152601560248201527f4549503731323a20556e696e697469616c697a656400000000000000000000006044820152606401610c1e565b611883613031565b61188b613041565b604080516000808252602082019092527f0f000000000000000000000000000000000000000000000000000000000000009b939a50919850469750309650945092509050565b8051825114611962576040517f08c379a000000000000000000000000000000000000000000000000000000000815260206004820152602660248201527f526563697069656e747320616e6420616d6f756e7473206c656e677468206d6960448201527f736d6174636800000000000000000000000000000000000000000000000000006064820152608401610c1e565b60005b8251811015610e48576119aa83828151811061198357611983614a47565b602002602001015183838151811061199d5761199d614a47565b6020026020010151611c6e565b50600101611965565b606060378054610adf906149b8565b6119ca612738565b3360009081526101f8602052604090205460ff16611a6a576040517f08c379a000000000000000000000000000000000000000000000000000000000815260206004820152602260248201527f4d696e74657261626c653a2063616c6c6572206973206e6f742061206d696e7460448201527f65720000000000000000000000000000000000000000000000000000000000006064820152608401610c1e565b610c7e8282613051565b6000611a7e612738565b611a866127a5565b73ffffffffffffffffffffffffffffffffffffffff8516611b29576040517f08c379a000000000000000000000000000000000000000000000000000000000815260206004820152603160248201527f546f6b656e5570677261646561626c653a205f6665654163636f756e7420697360448201527f20746865207a65726f20616464726573730000000000000000000000000000006064820152608401610c1e565b8373ffffffffffffffffffffffffffffffffffffffff168573ffffffffffffffffffffffffffffffffffffffff1603611b6f57611b67338585613223565b506001611b8a565b848484600080611b7f83836134a6565b506001955050505050505b949350505050565b33600081815260346020908152604080832073ffffffffffffffffffffffffffffffffffffffff8716845290915281205490919083811015611c56576040517f08c379a000000000000000000000000000000000000000000000000000000000815260206004820152602560248201527f45524332303a2064656372656173656420616c6c6f77616e63652062656c6f7760448201527f207a65726f0000000000000000000000000000000000000000000000000000006064820152608401610c1e565b611c63828686840361257a565b506001949350505050565b6000611c78612738565b3360008181526101fe602052604090205460ff1c600103611d1b576040517f08c379a000000000000000000000000000000000000000000000000000000000815260206004820152602560248201527f426c61636b6c69737461626c653a206163636f756e7420697320626c61636b6c60448201527f69737465640000000000000000000000000000000000000000000000000000006064820152608401610c1e565b73ffffffffffffffffffffffffffffffffffffffff841660009081526101fe6020526040902054849060ff1c600103611dd6576040517f08c379a000000000000000000000000000000000000000000000000000000000815260206004820152602560248201527f426c61636b6c69737461626c653a206163636f756e7420697320626c61636b6c60448201527f69737465640000000000000000000000000000000000000000000000000000006064820152608401610c1e565b611dde6127a5565b611de885856134b9565b50600195945050505050565b73ffffffffffffffffffffffffffffffffffffffff8116611e97576040517f08c379a000000000000000000000000000000000000000000000000000000000815260206004820152603060248201527f4d696e74657261626c653a206e6577206d61737465724d696e7465722069732060448201527f746865207a65726f2061646472657373000000000000000000000000000000006064820152608401610c1e565b6101f980547fffffffffffffffffffffffff00000000000000000000000000000000000000001673ffffffffffffffffffffffffffffffffffffffff83169081179091556040517fdb66dfa9c6b8f5226fe9aac7e51897ae8ee94ac31dc70bb6c9900b2574b707e690600090a250565b611f0f6127a5565b73ffffffffffffffffffffffffffffffffffffffff8116611fb2576040517f08c379a000000000000000000000000000000000000000000000000000000000815260206004820152603560248201527f546f6b656e5570677261646561626c653a206e657720626c61636b6c6973746560448201527f7220697320746865207a65726f206164647265737300000000000000000000006064820152608401610c1e565b6101fd80547fffffffffffffffffffffffff00000000000000000000000000000000000000001673ffffffffffffffffffffffffffffffffffffffff83169081179091556040517fc67398012c111ce95ecb7429b933096c977380ee6c421175a71a4a4c6c88c06e90600090a250565b61202a612738565b6120326127a5565b505050505050505050565b600061204a33858561257a565b60008473ffffffffffffffffffffffffffffffffffffffff16836040516120719190614a76565b6000604051808303816000865af19150503d80600081146120ae576040519150601f19603f3d011682016040523d82523d6000602084013e6120b3565b606091505b5050905080611c63576040517f08c379a000000000000000000000000000000000000000000000000000000000815260206004820152601660248201527f43616c6c20746f207370656e646572206661696c6564000000000000000000006044820152606401610c1e565b83421115612188576040517f08c379a000000000000000000000000000000000000000000000000000000000815260206004820152601d60248201527f45524332305065726d69743a206578706972656420646561646c696e650000006044820152606401610c1e565b60007f6e71edae12b1b97f4d1f60370fef10105fa2faae0126114a169c64845d6126c98888886121b78c6134d5565b60408051602081019690965273ffffffffffffffffffffffffffffffffffffffff94851690860152929091166060840152608083015260a082015260c0810186905260e001604051602081830303815290604052805190602001209050600061221f8261350b565b9050600061222f82878787613553565b90508973ffffffffffffffffffffffffffffffffffffffff168173ffffffffffffffffffffffffffffffffffffffff16146122c6576040517f08c379a000000000000000000000000000000000000000000000000000000000815260206004820152601e60248201527f45524332305065726d69743a20696e76616c6964207369676e617475726500006044820152606401610c1e565b6122d18a8a8a61257a565b50505050505050505050565b60008281526101c660205260409020600101546122f981612843565b610e48838361294d565b6101fc610c7e8282614ae0565b6101fc805461231e906149b8565b80601f016020809104026020016040519081016040528092919081815260200182805461234a906149b8565b80156123975780601f1061236c57610100808354040283529160200191612397565b820191906000526020600020905b81548152906001019060200180831161237a57829003601f168201915b505050505081565b6123a76127a5565b73ffffffffffffffffffffffffffffffffffffffff811661244a576040517f08c379a000000000000000000000000000000000000000000000000000000000815260206004820152602660248201527f4f776e61626c653a206e6577206f776e657220697320746865207a65726f206160448201527f64647265737300000000000000000000000000000000000000000000000000006064820152608401610c1e565b6112db81612f54565b6101fd5473ffffffffffffffffffffffffffffffffffffffff1633146124fb576040517f08c379a000000000000000000000000000000000000000000000000000000000815260206004820152602c60248201527f426c61636b6c69737461626c653a2063616c6c6572206973206e6f742074686560448201527f20626c61636b6c697374657200000000000000000000000000000000000000006064820152608401610c1e565b6125048161357b565b60405173ffffffffffffffffffffffffffffffffffffffff8216907fffa4e6181777692565cf28528fc88fd1516ea86b56da075235fa575af6a4b85590600090a250565b73ffffffffffffffffffffffffffffffffffffffff811660009081526101fe602052604081205460ff1c600114610aca565b73ffffffffffffffffffffffffffffffffffffffff831661261c576040517f08c379a0000000000000000000000000000000000000000000000000000000008152602060048201526024808201527f45524332303a20617070726f76652066726f6d20746865207a65726f2061646460448201527f72657373000000000000000000000000000000000000000000000000000000006064820152608401610c1e565b73ffffffffffffffffffffffffffffffffffffffff82166126bf576040517f08c379a000000000000000000000000000000000000000000000000000000000815260206004820152602260248201527f45524332303a20617070726f766520746f20746865207a65726f20616464726560448201527f73730000000000000000000000000000000000000000000000000000000000006064820152608401610c1e565b73ffffffffffffffffffffffffffffffffffffffff83811660008181526034602090815260408083209487168084529482529182902085905590518481527f8c5be1e5ebec7d5bd14f71427d1e84f3dd0314c0f7b2291e5b200ac8c7c3b925910160405180910390a3505050565b6112db816000613582565b60975460ff1615611176576040517f08c379a000000000000000000000000000000000000000000000000000000000815260206004820152601060248201527f5061757361626c653a20706175736564000000000000000000000000000000006044820152606401610c1e565b60fb5473ffffffffffffffffffffffffffffffffffffffff163314611176576040517f08c379a000000000000000000000000000000000000000000000000000000000815260206004820181905260248201527f4f776e61626c653a2063616c6c6572206973206e6f7420746865206f776e65726044820152606401610c1e565b6000612830612738565b6128386127a5565b611c6384848461362a565b6112db8133613643565b60008281526101c66020908152604080832073ffffffffffffffffffffffffffffffffffffffff8516845290915290205460ff16610c7e5760008281526101c66020908152604080832073ffffffffffffffffffffffffffffffffffffffff85168452909152902080547fffffffffffffffffffffffffffffffffffffffffffffffffffffffffffffff001660011790556128e53390565b73ffffffffffffffffffffffffffffffffffffffff168173ffffffffffffffffffffffffffffffffffffffff16837f2f8788117e7eff1d82e926ec794901d17c78024a50270940304540a733656f0d60405160405180910390a45050565b6000610fa86136fe565b60008281526101c66020908152604080832073ffffffffffffffffffffffffffffffffffffffff8516845290915290205460ff1615610c7e5760008281526101c66020908152604080832073ffffffffffffffffffffffffffffffffffffffff8516808552925280832080547fffffffffffffffffffffffffffffffffffffffffffffffffffffffffffffff0016905551339285917ff6391f5c32d9c69d2a47ea670b442974b53935d1edc7fd64eb21e047a839171b9190a45050565b60975460ff16611176576040517f08c379a000000000000000000000000000000000000000000000000000000000815260206004820152601460248201527f5061757361626c653a206e6f74207061757365640000000000000000000000006044820152606401610c1e565b612a7e612a0a565b609780547fffffffffffffffffffffffffffffffffffffffffffffffffffffffffffffff001690557f5db9ee0a495bf2e6ff9c91a7834c1ba4fdd244a5e8aa4e537bd38aeae4b073aa335b60405173ffffffffffffffffffffffffffffffffffffffff909116815260200160405180910390a1565b73ffffffffffffffffffffffffffffffffffffffff8216612b70576040517f08c379a000000000000000000000000000000000000000000000000000000000815260206004820152601f60248201527f45524332303a206d696e7420746f20746865207a65726f2061646472657373006044820152606401610c1e565b612b7c60008383613772565b8060356000828254612b8e9190614a34565b909155505073ffffffffffffffffffffffffffffffffffffffff82166000818152603360209081526040808320805486019055518481527fddf252ad1be2c89b69c2b068fc378daa952ba7f163c4a11628f55a4df523b3ef910160405180910390a35050565b6112db3382613051565b600054610100900460ff16612c95576040517f08c379a000000000000000000000000000000000000000000000000000000000815260206004820152602b60248201527f496e697469616c697a61626c653a20636f6e7472616374206973206e6f74206960448201527f6e697469616c697a696e670000000000000000000000000000000000000000006064820152608401610c1e565b610c7e828261377d565b600054610100900460ff16612d36576040517f08c379a000000000000000000000000000000000000000000000000000000000815260206004820152602b60248201527f496e697469616c697a61626c653a20636f6e7472616374206973206e6f74206960448201527f6e697469616c697a696e670000000000000000000000000000000000000000006064820152608401610c1e565b6112db816040518060400160405280600181526020017f310000000000000000000000000000000000000000000000000000000000000081525061382d565b600054610100900460ff16611176576040517f08c379a000000000000000000000000000000000000000000000000000000000815260206004820152602b60248201527f496e697469616c697a61626c653a20636f6e7472616374206973206e6f74206960448201527f6e697469616c697a696e670000000000000000000000000000000000000000006064820152608401610c1e565b600054610100900460ff16612ea3576040517f08c379a000000000000000000000000000000000000000000000000000000000815260206004820152602b60248201527f496e697469616c697a61626c653a20636f6e7472616374206973206e6f74206960448201527f6e697469616c697a696e670000000000000000000000000000000000000000006064820152608401610c1e565b6111766138f0565b600054610100900460ff16612f42576040517f08c379a000000000000000000000000000000000000000000000000000000000815260206004820152602b60248201527f496e697469616c697a61626c653a20636f6e7472616374206973206e6f74206960448201527f6e697469616c697a696e670000000000000000000000000000000000000000006064820152608401610c1e565b6111766139b1565b610c7e828261284d565b60fb805473ffffffffffffffffffffffffffffffffffffffff8381167fffffffffffffffffffffffff0000000000000000000000000000000000000000831681179093556040519116919082907f8be0079c531659141344cd1fd0a4f28419497f9722a3daafe3b4186f6b6457e090600090a35050565b611a6a823383613a51565b612fde612738565b609780547fffffffffffffffffffffffffffffffffffffffffffffffffffffffffffffff001660011790557f62e78cea01bee320cd4e420270b5ea74000d11b0c9f74754ebdbfc544b05a258612ac93390565b606061012f8054610adf906149b8565b60606101308054610adf906149b8565b73ffffffffffffffffffffffffffffffffffffffff82166130f4576040517f08c379a000000000000000000000000000000000000000000000000000000000815260206004820152602160248201527f45524332303a206275726e2066726f6d20746865207a65726f2061646472657360448201527f73000000000000000000000000000000000000000000000000000000000000006064820152608401610c1e565b61310082600083613772565b73ffffffffffffffffffffffffffffffffffffffff8216600090815260336020526040902054818110156131b6576040517f08c379a000000000000000000000000000000000000000000000000000000000815260206004820152602260248201527f45524332303a206275726e20616d6f756e7420657863656564732062616c616e60448201527f63650000000000000000000000000000000000000000000000000000000000006064820152608401610c1e565b73ffffffffffffffffffffffffffffffffffffffff831660008181526033602090815260408083208686039055603580548790039055518581529192917fddf252ad1be2c89b69c2b068fc378daa952ba7f163c4a11628f55a4df523b3ef910160405180910390a3505050565b73ffffffffffffffffffffffffffffffffffffffff83166132c6576040517f08c379a000000000000000000000000000000000000000000000000000000000815260206004820152602560248201527f45524332303a207472616e736665722066726f6d20746865207a65726f20616460448201527f64726573730000000000000000000000000000000000000000000000000000006064820152608401610c1e565b73ffffffffffffffffffffffffffffffffffffffff8216613369576040517f08c379a000000000000000000000000000000000000000000000000000000000815260206004820152602360248201527f45524332303a207472616e7366657220746f20746865207a65726f206164647260448201527f65737300000000000000000000000000000000000000000000000000000000006064820152608401610c1e565b613374838383613772565b73ffffffffffffffffffffffffffffffffffffffff83166000908152603360205260409020548181101561342a576040517f08c379a000000000000000000000000000000000000000000000000000000000815260206004820152602660248201527f45524332303a207472616e7366657220616d6f756e742065786365656473206260448201527f616c616e636500000000000000000000000000000000000000000000000000006064820152608401610c1e565b73ffffffffffffffffffffffffffffffffffffffff80851660008181526033602052604080822086860390559286168082529083902080548601905591517fddf252ad1be2c89b69c2b068fc378daa952ba7f163c4a11628f55a4df523b3ef906134979086815260200190565b60405180910390a35b50505050565b60006134b28284614bf9565b9392505050565b60006134c3612738565b6134cb6127a5565b610b708383613b22565b73ffffffffffffffffffffffffffffffffffffffff81166000908152610161602052604090208054600181018255905b50919050565b6000610aca613518612943565b836040517f19010000000000000000000000000000000000000000000000000000000000008152600281019290925260228201526042902090565b600080600061356487878787613b30565b9150915061357181613c1f565b5095945050505050565b6112db8160015b806135b25773ffffffffffffffffffffffffffffffffffffffff82166000908152603360205260409020546135fc565b73ffffffffffffffffffffffffffffffffffffffff821660009081526101fe60205260409020547f8000000000000000000000000000000000000000000000000000000000000000175b73ffffffffffffffffffffffffffffffffffffffff90921660009081526101fe602052604090209190915550565b600033613638858285613a51565b611c63858585613223565b60008281526101c66020908152604080832073ffffffffffffffffffffffffffffffffffffffff8516845290915290205460ff16610c7e5761368481613dd2565b61368f836020613df1565b6040516020016136a0929190614c0c565b604080517fffffffffffffffffffffffffffffffffffffffffffffffffffffffffffffffe0818403018152908290527f08c379a0000000000000000000000000000000000000000000000000000000008252610c1e91600401614203565b60007f8b73c3c69bb8fe3d512ecc4cf759cc79239f7b179b0ffacaa9a75d522b39400f613729614034565b61373161408e565b60408051602081019490945283019190915260608201524660808201523060a082015260c00160405160208183030381529060405280519060200120905090565b610e488383836140c0565b600054610100900460ff16613814576040517f08c379a000000000000000000000000000000000000000000000000000000000815260206004820152602b60248201527f496e697469616c697a61626c653a20636f6e7472616374206973206e6f74206960448201527f6e697469616c697a696e670000000000000000000000000000000000000000006064820152608401610c1e565b60366138208382614ae0565b506037610e488282614ae0565b600054610100900460ff166138c4576040517f08c379a000000000000000000000000000000000000000000000000000000000815260206004820152602b60248201527f496e697469616c697a61626c653a20636f6e7472616374206973206e6f74206960448201527f6e697469616c697a696e670000000000000000000000000000000000000000006064820152608401610c1e565b61012f6138d18382614ae0565b506101306138df8282614ae0565b5050600061012d81905561012e5550565b600054610100900460ff16613987576040517f08c379a000000000000000000000000000000000000000000000000000000000815260206004820152602b60248201527f496e697469616c697a61626c653a20636f6e7472616374206973206e6f74206960448201527f6e697469616c697a696e670000000000000000000000000000000000000000006064820152608401610c1e565b609780547fffffffffffffffffffffffffffffffffffffffffffffffffffffffffffffff00169055565b600054610100900460ff16613a48576040517f08c379a000000000000000000000000000000000000000000000000000000000815260206004820152602b60248201527f496e697469616c697a61626c653a20636f6e7472616374206973206e6f74206960448201527f6e697469616c697a696e670000000000000000000000000000000000000000006064820152608401610c1e565b61117633612f54565b73ffffffffffffffffffffffffffffffffffffffff8381166000908152603460209081526040808320938616835292905220547fffffffffffffffffffffffffffffffffffffffffffffffffffffffffffffffff81146134a05781811015613b15576040517f08c379a000000000000000000000000000000000000000000000000000000000815260206004820152601d60248201527f45524332303a20696e73756666696369656e7420616c6c6f77616e63650000006044820152606401610c1e565b6134a0848484840361257a565b600033610b70818585613223565b6000807f7fffffffffffffffffffffffffffffff5d576e7357a4501ddfe92f46681b20a0831115613b675750600090506003613c16565b6040805160008082526020820180845289905260ff881692820192909252606081018690526080810185905260019060a0016020604051602081039080840390855afa158015613bbb573d6000803e3d6000fd5b50506040517fffffffffffffffffffffffffffffffffffffffffffffffffffffffffffffffe0015191505073ffffffffffffffffffffffffffffffffffffffff8116613c0f57600060019250925050613c16565b9150600090505b94509492505050565b6000816004811115613c3357613c33614c8d565b03613c3b5750565b6001816004811115613c4f57613c4f614c8d565b03613cb6576040517f08c379a000000000000000000000000000000000000000000000000000000000815260206004820152601860248201527f45434453413a20696e76616c6964207369676e617475726500000000000000006044820152606401610c1e565b6002816004811115613cca57613cca614c8d565b03613d31576040517f08c379a000000000000000000000000000000000000000000000000000000000815260206004820152601f60248201527f45434453413a20696e76616c6964207369676e6174757265206c656e677468006044820152606401610c1e565b6003816004811115613d4557613d45614c8d565b036112db576040517f08c379a000000000000000000000000000000000000000000000000000000000815260206004820152602260248201527f45434453413a20696e76616c6964207369676e6174757265202773272076616c60448201527f75650000000000000000000000000000000000000000000000000000000000006064820152608401610c1e565b6060610aca73ffffffffffffffffffffffffffffffffffffffff831660145b60606000613e00836002614cbc565b613e0b906002614a34565b67ffffffffffffffff811115613e2357613e2361432d565b6040519080825280601f01601f191660200182016040528015613e4d576020820181803683370190505b5090507f300000000000000000000000000000000000000000000000000000000000000081600081518110613e8457613e84614a47565b60200101907effffffffffffffffffffffffffffffffffffffffffffffffffffffffffffff1916908160001a9053507f780000000000000000000000000000000000000000000000000000000000000081600181518110613ee757613ee7614a47565b60200101907effffffffffffffffffffffffffffffffffffffffffffffffffffffffffffff1916908160001a9053506000613f23846002614cbc565b613f2e906001614a34565b90505b6001811115613fcb577f303132333435363738396162636465660000000000000000000000000000000085600f1660108110613f6f57613f6f614a47565b1a60f81b828281518110613f8557613f85614a47565b60200101907effffffffffffffffffffffffffffffffffffffffffffffffffffffffffffff1916908160001a90535060049490941c93613fc481614cd3565b9050613f31565b5083156134b2576040517f08c379a000000000000000000000000000000000000000000000000000000000815260206004820181905260248201527f537472696e67733a20686578206c656e67746820696e73756666696369656e746044820152606401610c1e565b60008061403f613031565b805190915015614056578051602090910120919050565b61012d5480156140665792915050565b7fc5d2460186f7233c927e7db2dcc703c0e500b653ca82273b7bfad8045d85a4709250505090565b600080614099613041565b8051909150156140b0578051602090910120919050565b61012e5480156140665792915050565b60975460ff1615610e48576040517f08c379a000000000000000000000000000000000000000000000000000000000815260206004820152602a60248201527f45524332305061757361626c653a20746f6b656e207472616e7366657220776860448201527f696c6520706175736564000000000000000000000000000000000000000000006064820152608401610c1e565b60006020828403121561416557600080fd5b81357fffffffff00000000000000000000000000000000000000000000000000000000811681146134b257600080fd5b60005b838110156141b0578181015183820152602001614198565b50506000910152565b600081518084526141d1816020860160208601614195565b601f017fffffffffffffffffffffffffffffffffffffffffffffffffffffffffffffffe0169290920160200192915050565b6020815260006134b260208301846141b9565b803573ffffffffffffffffffffffffffffffffffffffff81168114610f7c57600080fd5b6000806040838503121561424d57600080fd5b61425683614216565b946020939093013593505050565b803560ff81168114610f7c57600080fd5b60006020828403121561428757600080fd5b6134b282614264565b6000602082840312156142a257600080fd5b6134b282614216565b6000806000606084860312156142c057600080fd5b6142c984614216565b92506142d760208501614216565b929592945050506040919091013590565b6000602082840312156142fa57600080fd5b5035919050565b6000806040838503121561431457600080fd5b8235915061432460208401614216565b90509250929050565b7f4e487b7100000000000000000000000000000000000000000000000000000000600052604160045260246000fd5b604051601f82017fffffffffffffffffffffffffffffffffffffffffffffffffffffffffffffffe016810167ffffffffffffffff811182821017156143a3576143a361432d565b604052919050565b600082601f8301126143bc57600080fd5b81356020830160008067ffffffffffffffff8411156143dd576143dd61432d565b50601f83017fffffffffffffffffffffffffffffffffffffffffffffffffffffffffffffffe0166020016144108161435c565b91505082815285838301111561442557600080fd5b82826020830137600092810160200192909252509392505050565b60008060008060008060008060008060006101608c8e03121561446257600080fd5b61446b8c614216565b9a5061447960208d01614216565b995061448760408d01614216565b985060608c0135975060808c0135965060a08c0135955060c08c013594506144b160e08d01614264565b93506101008c013592506101208c013591506101408c013567ffffffffffffffff8111156144de57600080fd5b6144ea8e828f016143ab565b9150509295989b509295989b9093969950565b6000806040838503121561451057600080fd5b823567ffffffffffffffff81111561452757600080fd5b614533858286016143ab565b925050602083013567ffffffffffffffff81111561455057600080fd5b61455c858286016143ab565b9150509250929050565b7fff000000000000000000000000000000000000000000000000000000000000008816815260e0602082015260006145a160e08301896141b9565b82810360408401526145b381896141b9565b6060840188905273ffffffffffffffffffffffffffffffffffffffff8716608085015260a0840186905283810360c08501528451808252602080870193509091019060005b818110156146165783518352602093840193909201916001016145f8565b50909b9a5050505050505050505050565b600067ffffffffffffffff8211156146415761464161432d565b5060051b60200190565b600082601f83011261465c57600080fd5b813561466f61466a82614627565b61435c565b8082825260208201915060208360051b86010192508583111561469157600080fd5b602085015b83811015613571578035835260209283019201614696565b600080604083850312156146c157600080fd5b823567ffffffffffffffff8111156146d857600080fd5b8301601f810185136146e957600080fd5b80356146f761466a82614627565b8082825260208201915060208360051b85010192508783111561471957600080fd5b6020840193505b828410156147425761473184614216565b825260209384019390910190614720565b9450505050602083013567ffffffffffffffff81111561476157600080fd5b61455c8582860161464b565b6000806000806080858703121561478357600080fd5b61478c85614216565b935061479a60208601614216565b925060408501359150606085013567ffffffffffffffff8111156147bd57600080fd5b6147c9878288016143ab565b91505092959194509250565b60008060008060008060008060006101208a8c0312156147f457600080fd5b6147fd8a614216565b985061480b60208b01614216565b975061481960408b01614216565b965060608a0135955060808a0135945060a08a0135935060c08a0135925060e08a013567ffffffffffffffff81111561485157600080fd5b61485d8c828d016143ab565b9250506101008a013567ffffffffffffffff81111561487b57600080fd5b6148878c828d016143ab565b9150509295985092959850929598565b6000806000606084860312156148ac57600080fd5b6148b584614216565b925060208401359150604084013567ffffffffffffffff8111156148d857600080fd5b6148e4868287016143ab565b9150509250925092565b600080600080600080600060e0888a03121561490957600080fd5b61491288614216565b965061492060208901614216565b9550604088013594506060880135935061493c60808901614264565b9699959850939692959460a0840135945060c09093013592915050565b60006020828403121561496b57600080fd5b813567ffffffffffffffff81111561498257600080fd5b611b8a848285016143ab565b600080604083850312156149a157600080fd5b6149aa83614216565b915061432460208401614216565b600181811c908216806149cc57607f821691505b602082108103613505577f4e487b7100000000000000000000000000000000000000000000000000000000600052602260045260246000fd5b7f4e487b7100000000000000000000000000000000000000000000000000000000600052601160045260246000fd5b80820180821115610aca57610aca614a05565b7f4e487b7100000000000000000000000000000000000000000000000000000000600052603260045260246000fd5b60008251614a88818460208701614195565b9190910192915050565b601f821115610e4857806000526020600020601f840160051c81016020851015614ab95750805b601f840160051c820191505b81811015614ad95760008155600101614ac5565b5050505050565b815167ffffffffffffffff811115614afa57614afa61432d565b614b0e81614b0884546149b8565b84614a92565b6020601f821160018114614b605760008315614b2a5750848201515b7fffffffffffffffffffffffffffffffffffffffffffffffffffffffffffffffff600385901b1c1916600184901b178455614ad9565b6000848152602081207fffffffffffffffffffffffffffffffffffffffffffffffffffffffffffffffe08516915b82811015614bae5787850151825560209485019460019092019101614b8e565b5084821015614bea57868401517fffffffffffffffffffffffffffffffffffffffffffffffffffffffffffffffff600387901b60f8161c191681555b50505050600190811b01905550565b81810381811115610aca57610aca614a05565b7f416363657373436f6e74726f6c3a206163636f756e7420000000000000000000815260008351614c44816017850160208801614195565b7f206973206d697373696e6720726f6c65200000000000000000000000000000006017918401918201528351614c81816028840160208801614195565b01602801949350505050565b7f4e487b7100000000000000000000000000000000000000000000000000000000600052602160045260246000fd5b8082028115828204841417610aca57610aca614a05565b600081614ce257614ce2614a05565b507fffffffffffffffffffffffffffffffffffffffffffffffffffffffffffffffff019056fea2646970667358221220b5214d2141fbe6fb45602478a55f7620276371460f5acb482c44358959df801864736f6c634300081a0033","linkReferences":{}},"methodIdentifiers":{"DEFAULT_ADMIN_ROLE()":"a217fddf","DOMAIN_SEPARATOR()":"3644e515","GetInitializeData()":"d3d655f8","MINTER_ROLE()":"d5391393","PAUSER_ROLE()":"e63ab1e9","allowance(address,address)":"dd62ed3e","approve(address,uint256)":"095ea7b3","approveAndCall(address,uint256,bytes)":"cae9ca51","balanceOf(address)":"70a08231","batchTransfer(address[],uint256[])":"88d695b2","blacklist(address)":"f9f92be4","blacklister()":"bd102430","burn(address,uint256)":"9dc29fac","burn(uint256)":"42966c68","burnFrom(address,uint256)":"79cc6790","calcCommonFee(uint256)":"61f3b7b0","calcFee(address,uint256)":"1d16c3ee","configureMinter(address,uint256)":"4e44d956","currency()":"e5a6b10f","decimals()":"313ce567","decreaseAllowance(address,uint256)":"a457c2d7","eip712Domain()":"84b0196e","getRoleAdmin(bytes32)":"248a9ca3","grantRole(bytes32,address)":"2f2ff15d","hasRole(bytes32,address)":"91d14854","increaseAllowance(address,uint256)":"39509351","initialize(string,string)":"4cd88b76","isBlacklisted(address)":"fe575a87","isMinter(address)":"aa271e1a","masterMinter()":"35d99f35","mint(address,uint256)":"40c10f19","minterAllowance(address)":"8a6db9c3","name()":"06fdde03","nonces(address)":"7ecebe00","owner()":"8da5cb5b","pause()":"8456cb59","paused()":"5c975abb","permit(address,address,uint256,uint256,uint8,bytes32,bytes32)":"d505accf","redeem(address,uint256)":"1e9a6950","removeMinter(address)":"3092afd5","renounceOwnership()":"715018a6","renounceRole(bytes32,address)":"36568abe","revokeRole(bytes32,address)":"d547741f","supportsInterface(bytes4)":"01ffc9a7","symbol()":"95d89b41","totalFee(address)":"7a4fda3d","totalSupply()":"18160ddd","transfer(address,uint256)":"a9059cbb","transferFee(address,address,uint256,bytes)":"a0cf7edf","transferFrom(address,address,uint256)":"23b872dd","transferOwnership(address)":"f2fde38b","transferWithAuthorizationFee(address,address,address,uint256,uint256,uint256,bytes32,bytes,bytes)":"adbd6c99","transferWithAuthorizationFee(address,address,address,uint256,uint256,uint256,bytes32,uint8,bytes32,bytes32,bytes)":"32786e76","unBlacklist(address)":"1a895266","unpause()":"3f4ba83a","updateBlacklister(address)":"ad38bf22","updateCurrency(string)":"d6a7e169","updateDecimals(uint8)":"0ce83a61","updateMasterMinter(address)":"aa20e1e4"},"id":9}