{"abi":[{"type":"function","name":"feeMannger","inputs":[],"outputs":[{"name":"","type":"address","internalType":"address"}],"stateMutability":"view"},{"type":"event","name":"FeeManagerChanged","inputs":[{"name":"newFeeMannger","type":"address","indexed":true,"internalType":"address"}],"anonymous":false},{"type":"event","name":"FeeManagerConfigured","inputs":[{"name":"feeMannger","type":"address","indexed":true,"internalType":"address"},{"name":"basisPointsRate","type":"uint256","indexed":false,"internalType":"uint256"}],"anonymous":false},{"type":"event","name":"FeeManagerRemoved","inputs":[{"name":"oldMinter","type":"address","indexed":true,"internalType":"address"}],"anonymous":false}],"bytecode":{"object":"0x6080604052348015600f57600080fd5b5060ab80601d6000396000f3fe6080604052348015600f57600080fd5b506004361060285760003560e01c8063daf50dd514602d575b600080fd5b600154604c9073ffffffffffffffffffffffffffffffffffffffff1681565b60405173ffffffffffffffffffffffffffffffffffffffff909116815260200160405180910390f3fea2646970667358221220f84f55fc1a31a1d3d9ae8819d1d6ba3c26ffebee2ea7041e0c3f014ac975737b64736f6c634300081a0033","linkReferences":{}},"methodIdentifiers":{"feeMannger()":"daf50dd5"},"id":1}