{
	"data": {
		"bytecode": {
			"linkReferences": {
				"util/SignatureChecker.sol": {
					"SignatureChecker": [
						{
							"length": 20,
							"start": 10515
						},
						{
							"length": 20,
							"start": 11654
						}
					]
				}
			},
			"object": "60806040525f600f555f6013555f601455348015601a575f80fd5b506003805460ff191690553380604957604051631e4fbdf760e01b81525f600482015260240160405180910390fd5b6050816055565b5060ae565b600380546001600160a01b03838116610100818102610100600160a81b031985161790945560405193909204169182907f8be0079c531659141344cd1fd0a4f28419497f9722a3daafe3b4186f6b6457e0905f90a35050565b613ceb806100bb5f395ff3fe608060405234801561000f575f80fd5b50600436106103ca575f3560e01c806388b7ab6311610200578063bd1024301161011f578063e3ee160e116100b4578063ef55bec611610084578063ef55bec61461090e578063f21af00714610921578063f2fde38b14610934578063f9f92be414610947578063fe575a871461095a575f80fd5b8063e3ee160e146108b3578063e5a6b10f146108c6578063e5b5019a146108ce578063e94a0102146108d6575f80fd5b8063d9169487116100ef578063d91694871461082c578063dd62ed3e14610853578063dd644f721461088b578063e2e71f9314610894575f80fd5b8063bd102430146107e0578063c0324c77146107f3578063cf09299514610806578063d505accf14610819575f80fd5b80639fd5a6cf11610195578063aa20e1e411610165578063aa20e1e41461077c578063aa271e1a1461078f578063ad38bf22146107ba578063b7b72899146107cd575f80fd5b80639fd5a6cf1461071c578063a0cc6a681461072f578063a457c2d714610756578063a9059cbb14610769575f80fd5b806395d89b41116101d057806395d89b41146106db5780639801ac50146106e35780639b19251a146106f65780639fd0506d14610709575f80fd5b806388b7ab63146106775780638a6db9c31461068a5780638da5cb5b146106b257806394d81d8d146106c8575f80fd5b80633af32abf116102ec5780635c975abb116102815780637a4fda3d116102515780637a4fda3d1461060d5780637ecebe00146106205780637f2eecc3146106485780638456cb591461066f575f80fd5b80635c975abb146105d457806370a08231146105df578063715018a6146105f257806375dc7d8c146105fa575f80fd5b80634e44d956116102bc5780634e44d9561461057e57806354fd4d5014610591578063554bab3c146105ae5780635a049a70146105c1575f80fd5b80633af32abf1461053d5780633f4ba83a1461055057806342966c6814610558578063458b35ee1461056b575f80fd5b80633092afd5116103625780633539071411610332578063353907141461050657806335d99f351461050f5780633644e51514610522578063395093511461052a575f80fd5b80633092afd51461049a57806330adf81f146104ad578063313ce567146104d4578063315f2746146104f3575f80fd5b80631a8952661161039d5780631a8952661461043657806322758a4a1461044957806323b872dd146104745780632c04eb4214610487575f80fd5b806306fdde03146103ce578063095ea7b3146103ec57806313af40351461040f57806318160ddd14610424575b5f80fd5b6103d661096d565b6040516103e39190612f60565b60405180910390f35b6103ff6103fa366004612f88565b6109f9565b60405190151581526020016103e3565b61042261041d366004612fb0565b610a6f565b005b600f545b6040519081526020016103e3565b610422610444366004612fb0565b610aec565b60065461045c906001600160a01b031681565b6040516001600160a01b0390911681526020016103e3565b6103ff610482366004612fc9565b610b55565b610422610495366004613047565b610cbf565b6103ff6104a8366004612fb0565b610d5b565b6104287f6e71edae12b1b97f4d1f60370fef10105fa2faae0126114a169c64845d6126c981565b6009546104e19060ff1681565b60405160ff90911681526020016103e3565b6104226105013660046130fd565b610de2565b61042860145481565b600b5461045c906001600160a01b031681565b610428610e87565b6103ff610538366004612f88565b610e95565b6103ff61054b366004612fb0565b610ef7565b610422610f07565b610422610566366004613187565b610f3b565b610422610579366004612fb0565b611133565b6103ff61058c366004612f88565b6111f5565b6040805180820190915260018152603160f81b60208201526103d6565b6104226105bc366004612fb0565b611291565b6104226105cf36600461319e565b61134d565b60035460ff166103ff565b6104286105ed366004612fb0565b611369565b610422611373565b610428610608366004613187565b611384565b61042861061b366004612fb0565b6113bd565b61042861062e366004612fb0565b6001600160a01b03165f9081526002602052604090205490565b6104287fd099cc98ef71107a616c4f0f941f04c322d8e254fe26b3c6668db87aae413de881565b61042261143f565b610422610685366004613285565b611471565b610428610698366004612fb0565b6001600160a01b03165f9081526011602052604090205490565b60035461010090046001600160a01b031661045c565b6104226106d6366004613304565b6114e1565b6103d661175f565b6104226106f13660046133e1565b61176c565b610422610704366004612fb0565b61180b565b60045461045c906001600160a01b031681565b61042261072a366004613471565b611874565b6104287f7c7c6cdb67a18743f49ec6fa9b35f50d52ed05cbed4cc592e13b44501c1a226781565b6103ff610764366004612f88565b6118e0565b6103ff610777366004612f88565b611942565b61042261078a366004612fb0565b6119a4565b6103ff61079d366004612fb0565b6001600160a01b03165f9081526010602052604090205460ff1690565b6104226107c8366004612fb0565b611a1b565b6104226107db3660046134de565b611add565b60055461045c906001600160a01b031681565b610422610801366004613531565b611af5565b610422610814366004613285565b611b81565b610422610827366004613551565b611be6565b6104287f158b0a9edf7a828aad02f63cd515c68ef2f50ba807396f6d12842833a159742981565b6104286108613660046135b6565b6001600160a01b039182165f908152600e6020908152604080832093909416825291909152205490565b61042860135481565b6104286108a2366004612fb0565b60156020525f908152604090205481565b6104226108c13660046135e7565b611c4b565b6103d6611cbf565b6104285f1981565b6103ff6108e4366004612f88565b6001600160a01b03919091165f908152600160209081526040808320938352929052205460ff1690565b61042261091c3660046135e7565b611ccc565b61042261092f366004612fb0565b611d33565b610422610942366004612fb0565b611d9c565b610422610955366004612fb0565b611dcd565b6103ff610968366004612fb0565b611e36565b6007805461097a9061365f565b80601f01602080910402602001604051908101604052809291908181526020018280546109a69061365f565b80156109f15780601f106109c8576101008083540402835291602001916109f1565b820191905f5260205f20905b8154815290600101906020018083116109d457829003601f168201915b505050505081565b5f610a02611e40565b33610a0c81611e86565b15610a325760405162461bcd60e51b8152600401610a2990613697565b60405180910390fd5b83610a3c81611e86565b15610a595760405162461bcd60e51b8152600401610a2990613697565b610a64338686611ea6565b506001949350505050565b610a77611fc1565b6001600160a01b038116610ae05760405162461bcd60e51b815260206004820152602a60248201527f4a4453434f776e61626c653a206e6577206f776e657220697320746865207a65604482015269726f206164647265737360b01b6064820152608401610a29565b610ae981611ff4565b50565b6005546001600160a01b03163314610b165760405162461bcd60e51b8152600401610a29906136dc565b610b1f8161204d565b6040516001600160a01b038216907f117e3210bb9aa7d9baff172026820255c6f6c30ba8999d1c2fd88e2848137c4e905f90a250565b5f610b5e611e40565b33610b6881611e86565b15610b855760405162461bcd60e51b8152600401610a2990613697565b84610b8f81611e86565b15610bac5760405162461bcd60e51b8152600401610a2990613697565b84610bb681611e86565b15610bd35760405162461bcd60e51b8152600401610a2990613697565b6001600160a01b0387165f908152600e60209081526040808320338452909152902054851115610c565760405162461bcd60e51b815260206004820152602860248201527f45524332303a207472616e7366657220616d6f756e74206578636565647320616044820152676c6c6f77616e636560c01b6064820152608401610a29565b610c61878787612057565b6001600160a01b0387165f908152600e60209081526040808320338452909152902054610c8e90866121f7565b6001600160a01b0388165f908152600e60209081526040808320338452909152902055600193505050509392505050565b60125460ff16600114610cd0575f80fd5b6008610cdd83858361376c565b505f610ce830612209565b90508015610cfb57610cfb308383612057565b5f5b85811015610d3c57610d34878783818110610d1a57610d1a613826565b9050602002016020810190610d2f9190612fb0565b61222c565b600101610cfd565b50610d463061222c565b50506012805460ff1916600217905550505050565b600b545f906001600160a01b03163314610d875760405162461bcd60e51b8152600401610a299061383a565b6001600160a01b0382165f818152601060209081526040808320805460ff191690556011909152808220829055517fe94479a9f7e1952cc78f2d6baab678adc1b772d936c6583def489e524cb666929190a25060015b919050565b610dea611e40565b89610df481612237565b610e105760405162461bcd60e51b8152600401610a2990613883565b89610e1a81612237565b610e365760405162461bcd60e51b8152600401610a2990613883565b5f610e408a611384565b90505f610e4d8b836121f7565b9050610e608d8d838d8d8d8d8d8d611c4b565b8115610e7757610e778d8f848d8d8d8d8d8d612257565b5050505050505050505050505050565b5f610e90612289565b905090565b5f610e9e611e40565b33610ea881611e86565b15610ec55760405162461bcd60e51b8152600401610a2990613697565b83610ecf81611e86565b15610eec5760405162461bcd60e51b8152600401610a2990613697565b610a6433868661233c565b5f610f0182612237565b92915050565b6004546001600160a01b03163314610f315760405162461bcd60e51b8152600401610a29906138d0565b610f39612378565b565b610f43611e40565b335f9081526010602052604090205460ff16610fab5760405162461bcd60e51b815260206004820152602160248201527f4a445343546f6b656e3a2063616c6c6572206973206e6f742061206d696e74656044820152603960f91b6064820152608401610a29565b33610fb581611e86565b15610fd25760405162461bcd60e51b8152600401610a2990613697565b5f610fdc33612209565b90505f831161103f5760405162461bcd60e51b815260206004820152602960248201527f4a445343546f6b656e3a206275726e20616d6f756e74206e6f7420677265617460448201526806572207468616e20360bc1b6064820152608401610a29565b8281101561109e5760405162461bcd60e51b815260206004820152602660248201527f4a445343546f6b656e3a206275726e20616d6f756e7420657863656564732062604482015265616c616e636560d01b6064820152608401610a29565b600f546110ab90846121f7565b600f556110c1336110bc83866121f7565b6123ca565b60405183815233907fcc16f5dbb4873280815c1ee09dbd06736cffcc184412cf7a71a0fdb75d397ca59060200160405180910390a26040518381525f9033907fddf252ad1be2c89b69c2b068fc378daa952ba7f163c4a11628f55a4df523b3ef906020015b60405180910390a3505050565b61113b611fc1565b6001600160a01b0381166111ac5760405162461bcd60e51b815260206004820152603260248201527f57686974656c69737461626c653a206e65772077686974656c697374657220696044820152717320746865207a65726f206164647265737360701b6064820152608401610a29565b600680546001600160a01b0319166001600160a01b0383169081179091556040517f800d1de693142e2c37ef233754d1d9e7edc8ae28d34204ddf3e180c02d0b009e905f90a250565b5f6111fe611e40565b600b546001600160a01b031633146112285760405162461bcd60e51b8152600401610a299061383a565b6001600160a01b0383165f818152601060209081526040808320805460ff19166001179055601182529182902085905590518481527f46980fca912ef9bcdbd36877427b6b90e860769f604e89c0e67720cece530d20910160405180910390a250600192915050565b611299611fc1565b6001600160a01b0381166113045760405162461bcd60e51b815260206004820152602c60248201527f4a4453435061757361626c653a206e657720706175736572206973207468652060448201526b7a65726f206164647265737360a01b6064820152608401610a29565b600480546001600160a01b0319166001600160a01b0383169081179091556040517fb80482a293ca2e013eda8683c9bd7fc8347cfdaeea5ede58cba46df502c2a604905f90a250565b611355611e40565b61136285858585856124ae565b5050505050565b5f610f0182612209565b61137b611fc1565b610f395f611ff4565b5f806113a76127106113a1601354866124dc90919063ffffffff16565b906124e7565b9050601454811115610f01575060145492915050565b5f6001600160a01b0382166114245760405162461bcd60e51b815260206004820152602760248201527f4a445343546f6b656e3a205f6163636f756e7420697320746865207a65726f206044820152666164647265737360c81b6064820152608401610a29565b506001600160a01b03165f9081526015602052604090205490565b6004546001600160a01b031633146114695760405162461bcd60e51b8152600401610a29906138d0565b610f396124f2565b611479611e40565b8661148381611e86565b156114a05760405162461bcd60e51b8152600401610a2990613697565b866114aa81611e86565b156114c75760405162461bcd60e51b8152600401610a2990613697565b6114d68989898989898961252f565b505050505050505050565b600b54600160a01b900460ff161561154e5760405162461bcd60e51b815260206004820152602a60248201527f4a445343546f6b656e3a20636f6e747261637420697320616c726561647920696044820152691b9a5d1a585b1a5e995960b21b6064820152608401610a29565b6001600160a01b0384166115745760405162461bcd60e51b8152600401610a2990613916565b6001600160a01b0383166115dc5760405162461bcd60e51b815260206004820152602960248201527f4a445343546f6b656e3a206e65772070617573657220697320746865207a65726044820152686f206164647265737360b81b6064820152608401610a29565b6001600160a01b0382166116495760405162461bcd60e51b815260206004820152602e60248201527f4a445343546f6b656e3a206e657720626c61636b6c697374657220697320746860448201526d65207a65726f206164647265737360901b6064820152608401610a29565b6001600160a01b0381166116b05760405162461bcd60e51b815260206004820152602860248201527f4a445343546f6b656e3a206e6577206f776e657220697320746865207a65726f604482015267206164647265737360c01b6064820152608401610a29565b60076116bc8a82613965565b5060086116c98982613965565b50600a6116d68882613965565b506009805460ff191660ff8816179055600b80546001600160a01b03199081166001600160a01b03878116919091179092556004805482168684161790556005805490911691841691909117905561172d81610a6f565b600b805460ff60a01b1916600160a01b17905561174989612611565b611753818661266a565b50505050505050505050565b6008805461097a9061365f565b611774611e40565b8761177e81612237565b61179a5760405162461bcd60e51b8152600401610a2990613883565b876117a481612237565b6117c05760405162461bcd60e51b8152600401610a2990613883565b5f6117ca88611384565b90505f6117d789836121f7565b90506117e88b8b838b8b8b8b611b81565b81156117fd576117fd8b8d848b8b8b8b611b81565b505050505050505050505050565b6006546001600160a01b031633146118355760405162461bcd60e51b8152600401610a2990613a21565b61183e81612716565b6040516001600160a01b038216907faab7954e9d246b167ef88aeddad35209ca2489d95a8aeb59e288d9b19fae5a54905f90a250565b61187c611e40565b8461188681611e86565b156118a35760405162461bcd60e51b8152600401610a2990613697565b846118ad81611e86565b156118ca5760405162461bcd60e51b8152600401610a2990613697565b6118d78787878787612721565b50505050505050565b5f6118e9611e40565b336118f381611e86565b156119105760405162461bcd60e51b8152600401610a2990613697565b8361191a81611e86565b156119375760405162461bcd60e51b8152600401610a2990613697565b610a64338686612922565b5f61194b611e40565b3361195581611e86565b156119725760405162461bcd60e51b8152600401610a2990613697565b8361197c81611e86565b156119995760405162461bcd60e51b8152600401610a2990613697565b610a64338686612057565b6119ac611fc1565b6001600160a01b0381166119d25760405162461bcd60e51b8152600401610a2990613916565b600b80546001600160a01b0319166001600160a01b0383169081179091556040517fdb66dfa9c6b8f5226fe9aac7e51897ae8ee94ac31dc70bb6c9900b2574b707e6905f90a250565b611a23611fc1565b6001600160a01b038116611a945760405162461bcd60e51b815260206004820152603260248201527f426c61636b6c69737461626c653a206e657720626c61636b6c697374657220696044820152717320746865207a65726f206164647265737360701b6064820152608401610a29565b600580546001600160a01b0319166001600160a01b0383169081179091556040517fc67398012c111ce95ecb7429b933096c977380ee6c421175a71a4a4c6c88c06e905f90a250565b611ae5611e40565b611af0838383612970565b505050565b611afd611fc1565b60148210611b09575f80fd5b6113888110611b16575f80fd5b6013829055600954611b3790611b309060ff16600a613b61565b82906124dc565b60148190556013546040517fb044a1e409eac5c48e5af22d4af52670dd1a99059537a78b31b48c6500a6354e92611b75928252602082015260400190565b60405180910390a15050565b611b89611e40565b86611b9381611e86565b15611bb05760405162461bcd60e51b8152600401610a2990613697565b86611bba81611e86565b15611bd75760405162461bcd60e51b8152600401610a2990613697565b6114d689898989898989612a25565b611bee611e40565b86611bf881611e86565b15611c155760405162461bcd60e51b8152600401610a2990613697565b86611c1f81611e86565b15611c3c5760405162461bcd60e51b8152600401610a2990613697565b6114d689898989898989612a74565b611c53611e40565b88611c5d81611e86565b15611c7a5760405162461bcd60e51b8152600401610a2990613697565b88611c8481611e86565b15611ca15760405162461bcd60e51b8152600401610a2990613697565b611cb28b8b8b8b8b8b8b8b8b612257565b5050505050505050505050565b600a805461097a9061365f565b611cd4611e40565b88611cde81611e86565b15611cfb5760405162461bcd60e51b8152600401610a2990613697565b88611d0581611e86565b15611d225760405162461bcd60e51b8152600401610a2990613697565b611cb28b8b8b8b8b8b8b8b8b612aa4565b6006546001600160a01b03163314611d5d5760405162461bcd60e51b8152600401610a2990613a21565b611d6681612ad6565b6040516001600160a01b038216907f7cdb51b0cc2e541ad7e9471c358de415f5dbaff6cca78e3393d445346c610c1b905f90a250565b611da4611fc1565b6001600160a01b038116610ae057604051631e4fbdf760e01b81525f6004820152602401610a29565b6005546001600160a01b03163314611df75760405162461bcd60e51b8152600401610a29906136dc565b611e008161222c565b6040516001600160a01b038216907fffa4e6181777692565cf28528fc88fd1516ea86b56da075235fa575af6a4b855905f90a250565b5f610f0182611e86565b60035460ff1615610f395760405162461bcd60e51b815260206004820152601060248201526f14185d5cd8589b194e881c185d5cd95960821b6044820152606401610a29565b6001600160a01b03165f908152600c602052604090205460ff1c60011490565b6001600160a01b038316611f085760405162461bcd60e51b8152602060048201526024808201527f45524332303a20617070726f76652066726f6d20746865207a65726f206164646044820152637265737360e01b6064820152608401610a29565b6001600160a01b038216611f695760405162461bcd60e51b815260206004820152602260248201527f45524332303a20617070726f766520746f20746865207a65726f206164647265604482015261737360f01b6064820152608401610a29565b6001600160a01b038381165f818152600e602090815260408083209487168084529482529182902085905590518481527f8c5be1e5ebec7d5bd14f71427d1e84f3dd0314c0f7b2291e5b200ac8c7c3b9259101611126565b6003546001600160a01b03610100909104163314610f395760405163118cdaa760e01b8152336004820152602401610a29565b600380546001600160a01b03838116610100818102610100600160a81b031985161790945560405193909204169182907f8be0079c531659141344cd1fd0a4f28419497f9722a3daafe3b4186f6b6457e0905f90a35050565b610ae9815f612ae0565b6001600160a01b0383166120bb5760405162461bcd60e51b815260206004820152602560248201527f45524332303a207472616e736665722066726f6d20746865207a65726f206164604482015264647265737360d81b6064820152608401610a29565b6001600160a01b03821661211d5760405162461bcd60e51b815260206004820152602360248201527f45524332303a207472616e7366657220746f20746865207a65726f206164647260448201526265737360e81b6064820152608401610a29565b61212683612209565b8111156121845760405162461bcd60e51b815260206004820152602660248201527f45524332303a207472616e7366657220616d6f756e7420657863656564732062604482015265616c616e636560d01b6064820152608401610a29565b61219b836110bc8361219587612209565b906121f7565b6121b2826110bc836121ac86612209565b90612b31565b816001600160a01b0316836001600160a01b03167fddf252ad1be2c89b69c2b068fc378daa952ba7f163c4a11628f55a4df523b3ef8360405161112691815260200190565b5f6122028284613b6f565b9392505050565b6001600160a01b03165f908152600c60205260409020546001600160ff1b031690565b610ae9816001612ae0565b6001600160a01b03165f908152600d602052604090205460ff1c60011490565b6114d689898989898988888b60405160200161227593929190613b82565b604051602081830303815290604052612a25565b5f610e906007805461229a9061365f565b80601f01602080910402602001604051908101604052809291908181526020018280546122c69061365f565b80156123115780601f106122e857610100808354040283529160200191612311565b820191905f5260205f20905b8154815290600101906020018083116122f457829003601f168201915b5050505050604051806040016040528060018152602001601960f91b8152506123374690565b612b3c565b6001600160a01b038084165f908152600e6020908152604080832093861683529290522054611af090849084906123739085612b31565b611ea6565b612380612bb0565b6003805460ff191690557f5db9ee0a495bf2e6ff9c91a7834c1ba4fdd244a5e8aa4e537bd38aeae4b073aa335b6040516001600160a01b03909116815260200160405180910390a1565b6001600160ff1b038111156124325760405162461bcd60e51b815260206004820152602860248201527f4a445343546f6b656e56313a2042616c616e636520657863656564732028325e604482015267323535202d20312960c01b6064820152608401610a29565b61243b82611e86565b156124935760405162461bcd60e51b815260206004820152602260248201527f4a445343546f6b656e313a204163636f756e7420697320626c61636b6c697374604482015261195960f21b6064820152608401610a29565b6001600160a01b039091165f908152600c6020526040902055565b61136285858484876040516020016124c893929190613b82565b604051602081830303815290604052612970565b5f6122028284613ba5565b5f6122028284613bbc565b6124fa611e40565b6003805460ff191660011790557f62e78cea01bee320cd4e420270b5ea74000d11b0c9f74754ebdbfc544b05a2586123ad3390565b6001600160a01b03861633146125915760405162461bcd60e51b815260206004820152602160248201527f546f6b656e56323a2063616c6c6572206d7573742062652074686520706179656044820152606560f81b6064820152608401610a29565b61259d87838686612bf9565b6125fc877fd099cc98ef71107a616c4f0f941f04c322d8e254fe26b3c6668db87aae413de85f1b8989898989896040516020016125e09796959493929190613bdb565b6040516020818303038152906040528051906020012083612cc9565b6126068783612db9565b6118d7878787612057565b600b54600160a01b900460ff16801561262d575060125460ff16155b612635575f80fd5b61265881604051806040016040528060018152602001603160f81b815250612e13565b5f55506012805460ff19166001179055565b600f545f906126799083612b31565b600f5561268d836110bc846121ac83612209565b6040518281526001600160a01b0384169033907fab8530f87dc9b59234c4623bf917212bb2536d647574c8e7e5da92c2ede0c9f89060200160405180910390a36040518281526001600160a01b038416905f907fddf252ad1be2c89b69c2b068fc378daa952ba7f163c4a11628f55a4df523b3ef9060200160405180910390a350600192915050565b610ae9816001612e28565b5f198214806127305750428210155b61277c5760405162461bcd60e51b815260206004820152601e60248201527f4a445343546f6b656e56323a207065726d6974206973206578706972656400006044820152606401610a29565b5f612846612788612289565b6001600160a01b0388165f90815260026020526040812080547f6e71edae12b1b97f4d1f60370fef10105fa2faae0126114a169c64845d6126c9928b928b928b929091906127d583613c17565b909155506040805160208101969096526001600160a01b0394851690860152929091166060840152608083015260a082015260c0810186905260e0016040516020818303038152906040528051906020012060405161190160f01b8152600281019290925260228201526042902090565b604051633667532960e11b815290915073__$46e831647c012f9574d6ce4eda1ae58ec3$__90636ccea6529061288490899085908790600401613c2f565b602060405180830381865af415801561289f573d5f803e3d5ffd5b505050506040513d601f19601f820116820180604052508101906128c39190613c5e565b61290f5760405162461bcd60e51b815260206004820152601a60248201527f454950323631323a20696e76616c6964207369676e61747572650000000000006044820152606401610a29565b61291a868686611ea6565b505050505050565b611af0838361237384604051806060016040528060258152602001613c91602591396001600160a01b03808a165f908152600e60209081526040808320938c16835292905220549190612e79565b61297a8383612ea4565b604080517f158b0a9edf7a828aad02f63cd515c68ef2f50ba807396f6d12842833a159742960208201526001600160a01b03851691810191909152606081018390526129ca9084906080016125e0565b6001600160a01b0383165f818152600160208181526040808420878552909152808320805460ff1916909217909155518492917f1cdd46ff242716cdaa72d159d339a485b3438398348d68f09d7c8c0a59353d8191a3505050565b612a3187838686612bf9565b6125fc877f7c7c6cdb67a18743f49ec6fa9b35f50d52ed05cbed4cc592e13b44501c1a22675f1b8989898989896040516020016125e09796959493929190613bdb565b6118d787878787868689604051602001612a9093929190613b82565b604051602081830303815290604052612721565b6114d689898989898988888b604051602001612ac293929190613b82565b60405160208183030381529060405261252f565b610ae9815f612e28565b80612af357612aee82612209565b612b12565b6001600160a01b0382165f908152600c6020526040902054600160ff1b175b6001600160a01b039092165f908152600c602052604090209190915550565b5f6122028284613c7d565b8251602093840120825192840192909220604080517f8b73c3c69bb8fe3d512ecc4cf759cc79239f7b179b0ffacaa9a75d522b39400f8187015280820194909452606084019190915260808301919091523060a0808401919091528151808403909101815260c09092019052805191012090565b60035460ff16610f395760405162461bcd60e51b815260206004820152601460248201527314185d5cd8589b194e881b9bdd081c185d5cd95960621b6044820152606401610a29565b814211612c5c5760405162461bcd60e51b815260206004820152602b60248201527f4a445343546f6b656e56323a20617574686f72697a6174696f6e206973206e6f60448201526a1d081e595d081d985b1a5960aa1b6064820152608401610a29565b804210612cb95760405162461bcd60e51b815260206004820152602560248201527f4a445343546f6b656e56323a20617574686f72697a6174696f6e2069732065786044820152641c1a5c995960da1b6064820152608401610a29565b612cc38484612ea4565b50505050565b73__$46e831647c012f9574d6ce4eda1ae58ec3$__636ccea65284612d0f612cef612289565b8660405161190160f01b8152600281019290925260228201526042902090565b846040518463ffffffff1660e01b8152600401612d2e93929190613c2f565b602060405180830381865af4158015612d49573d5f803e3d5ffd5b505050506040513d601f19601f82011682018060405250810190612d6d9190613c5e565b611af05760405162461bcd60e51b815260206004820152601e60248201527f4a445343546f6b656e56323a20696e76616c6964207369676e617475726500006044820152606401610a29565b6001600160a01b0382165f818152600160208181526040808420868552909152808320805460ff1916909217909155518392917f98de503528ee59b575ef0c0a2576a82497bfc029a5685b209e9ec333479b10a591a35050565b5f46612e20848483612b3c565b949350505050565b80612e3b57612e3682612209565b612e5a565b6001600160a01b0382165f908152600d6020526040902054600160ff1b175b6001600160a01b039092165f908152600d602052604090209190915550565b5f8184841115612e9c5760405162461bcd60e51b8152600401610a299190612f60565b505050900390565b6001600160a01b0382165f90815260016020908152604080832084845290915290205460ff1615612f2e5760405162461bcd60e51b815260206004820152602e60248201527f4a445343546f6b656e56323a20617574686f72697a6174696f6e20697320757360448201526d1959081bdc8818d85b98d95b195960921b6064820152608401610a29565b5050565b5f81518084528060208401602086015e5f602082860101526020601f19601f83011685010191505092915050565b602081525f6122026020830184612f32565b80356001600160a01b0381168114610ddd575f80fd5b5f8060408385031215612f99575f80fd5b612fa283612f72565b946020939093013593505050565b5f60208284031215612fc0575f80fd5b61220282612f72565b5f805f60608486031215612fdb575f80fd5b612fe484612f72565b9250612ff260208501612f72565b9150604084013590509250925092565b5f8083601f840112613012575f80fd5b50813567ffffffffffffffff811115613029575f80fd5b602083019150836020828501011115613040575f80fd5b9250929050565b5f805f805f6060868803121561305b575f80fd5b853567ffffffffffffffff80821115613072575f80fd5b818801915088601f830112613085575f80fd5b813581811115613093575f80fd5b8960208260051b85010111156130a7575f80fd5b6020928301975095509087013590808211156130c1575f80fd5b506130ce88828901613002565b90945092506130e1905060408701612f72565b90509295509295909350565b803560ff81168114610ddd575f80fd5b5f805f805f805f805f806101408b8d031215613117575f80fd5b6131208b612f72565b995061312e60208c01612f72565b985061313c60408c01612f72565b975060608b0135965060808b0135955060a08b0135945060c08b0135935061316660e08c016130ed565b92506101008b013591506101208b013590509295989b9194979a5092959850565b5f60208284031215613197575f80fd5b5035919050565b5f805f805f60a086880312156131b2575f80fd5b6131bb86612f72565b9450602086013593506131d0604087016130ed565b94979396509394606081013594506080013592915050565b634e487b7160e01b5f52604160045260245ffd5b5f82601f83011261320b575f80fd5b813567ffffffffffffffff80821115613226576132266131e8565b604051601f8301601f19908116603f0116810190828211818310171561324e5761324e6131e8565b81604052838152866020858801011115613266575f80fd5b836020870160208301375f602085830101528094505050505092915050565b5f805f805f805f60e0888a03121561329b575f80fd5b6132a488612f72565b96506132b260208901612f72565b955060408801359450606088013593506080880135925060a0880135915060c088013567ffffffffffffffff8111156132e9575f80fd5b6132f58a828b016131fc565b91505092959891949750929550565b5f805f805f805f805f6101208a8c03121561331d575f80fd5b893567ffffffffffffffff80821115613334575f80fd5b6133408d838e016131fc565b9a5060208c0135915080821115613355575f80fd5b6133618d838e016131fc565b995060408c0135915080821115613376575f80fd5b506133838c828d016131fc565b97505061339260608b016130ed565b955060808a013594506133a760a08b01612f72565b93506133b560c08b01612f72565b92506133c360e08b01612f72565b91506133d26101008b01612f72565b90509295985092959850929598565b5f805f805f805f80610100898b0312156133f9575f80fd5b61340289612f72565b975061341060208a01612f72565b965061341e60408a01612f72565b9550606089013594506080890135935060a0890135925060c0890135915060e089013567ffffffffffffffff811115613455575f80fd5b6134618b828c016131fc565b9150509295985092959890939650565b5f805f805f60a08688031215613485575f80fd5b61348e86612f72565b945061349c60208701612f72565b93506040860135925060608601359150608086013567ffffffffffffffff8111156134c5575f80fd5b6134d1888289016131fc565b9150509295509295909350565b5f805f606084860312156134f0575f80fd5b6134f984612f72565b925060208401359150604084013567ffffffffffffffff81111561351b575f80fd5b613527868287016131fc565b9150509250925092565b5f8060408385031215613542575f80fd5b50508035926020909101359150565b5f805f805f805f60e0888a031215613567575f80fd5b61357088612f72565b965061357e60208901612f72565b9550604088013594506060880135935061359a608089016130ed565b925060a0880135915060c0880135905092959891949750929550565b5f80604083850312156135c7575f80fd5b6135d083612f72565b91506135de60208401612f72565b90509250929050565b5f805f805f805f805f6101208a8c031215613600575f80fd5b6136098a612f72565b985061361760208b01612f72565b975060408a0135965060608a0135955060808a0135945060a08a0135935061364160c08b016130ed565b925060e08a013591506101008a013590509295985092959850929598565b600181811c9082168061367357607f821691505b60208210810361369157634e487b7160e01b5f52602260045260245ffd5b50919050565b60208082526025908201527f426c61636b6c69737461626c653a206163636f756e7420697320626c61636b6c6040820152641a5cdd195960da1b606082015260800190565b6020808252602c908201527f426c61636b6c69737461626c653a2063616c6c6572206973206e6f742074686560408201526b10313630b1b5b634b9ba32b960a11b606082015260800190565b601f821115611af057805f5260205f20601f840160051c8101602085101561374d5750805b601f840160051c820191505b81811015611362575f8155600101613759565b67ffffffffffffffff831115613784576137846131e8565b61379883613792835461365f565b83613728565b5f601f8411600181146137c9575f85156137b25750838201355b5f19600387901b1c1916600186901b178355611362565b5f83815260208120601f198716915b828110156137f857868501358255602094850194600190920191016137d8565b5086821015613814575f1960f88860031b161c19848701351681555b505060018560011b0183555050505050565b634e487b7160e01b5f52603260045260245ffd5b60208082526029908201527f4a445343546f6b656e3a2063616c6c6572206973206e6f7420746865206d61736040820152683a32b926b4b73a32b960b91b606082015260800190565b6020808252602d908201527f57686974656c69737461626c653a206163636f756e74206973206e6f7420746860408201526c19481dda1a5d195b1a5cdd1959609a1b606082015260800190565b60208082526026908201527f4a4453435061757361626c653a2063616c6c6572206973206e6f7420746865206040820152653830bab9b2b960d11b606082015260800190565b6020808252602f908201527f4a445343546f6b656e3a206e6577206d61737465724d696e746572206973207460408201526e6865207a65726f206164647265737360881b606082015260800190565b815167ffffffffffffffff81111561397f5761397f6131e8565b6139938161398d845461365f565b84613728565b602080601f8311600181146139c6575f84156139af5750858301515b5f19600386901b1c1916600185901b17855561291a565b5f85815260208120601f198616915b828110156139f4578886015182559484019460019091019084016139d5565b5085821015613a1157878501515f19600388901b60f8161c191681555b5050505050600190811b01905550565b6020808252602c908201527f57686974656c69737461626c653a2063616c6c6572206973206e6f742074686560408201526b103bb434ba32b634b9ba32b960a11b606082015260800190565b634e487b7160e01b5f52601160045260245ffd5b600181815b80851115613abb57815f1904821115613aa157613aa1613a6d565b80851615613aae57918102915b93841c9390800290613a86565b509250929050565b5f82613ad157506001610f01565b81613add57505f610f01565b8160018114613af35760028114613afd57613b19565b6001915050610f01565b60ff841115613b0e57613b0e613a6d565b50506001821b610f01565b5060208310610133831016604e8410600b8410161715613b3c575081810a610f01565b613b468383613a81565b805f1904821115613b5957613b59613a6d565b029392505050565b5f61220260ff841683613ac3565b81810381811115610f0157610f01613a6d565b928352602083019190915260f81b6001600160f81b031916604082015260410190565b8082028115828204841417610f0157610f01613a6d565b5f82613bd657634e487b7160e01b5f52601260045260245ffd5b500490565b9687526001600160a01b0395861660208801529390941660408601526060850191909152608084015260a083019190915260c082015260e00190565b5f60018201613c2857613c28613a6d565b5060010190565b60018060a01b0384168152826020820152606060408201525f613c556060830184612f32565b95945050505050565b5f60208284031215613c6e575f80fd5b81518015158114612202575f80fd5b80820180821115610f0157610f01613a6d56fe45524332303a2064656372656173656420616c6c6f77616e63652062656c6f77207a65726fa2646970667358221220d2434434208f32d13abee853a6a77058d776cf91a1736215b864b70992fa904964736f6c63430008190033",
			"opcodes": "PUSH1 0x80 PUSH1 0x40 MSTORE PUSH0 PUSH1 0xF SSTORE PUSH0 PUSH1 0x13 SSTORE PUSH0 PUSH1 0x14 SSTORE CALLVALUE DUP1 ISZERO PUSH1 0x1A JUMPI PUSH0 DUP1 REVERT JUMPDEST POP PUSH1 0x3 DUP1 SLOAD PUSH1 0xFF NOT AND SWAP1 SSTORE CALLER DUP1 PUSH1 0x49 JUMPI PUSH1 0x40 MLOAD PUSH4 0x1E4FBDF7 PUSH1 0xE0 SHL DUP2 MSTORE PUSH0 PUSH1 0x4 DUP3 ADD MSTORE PUSH1 0x24 ADD PUSH1 0x40 MLOAD DUP1 SWAP2 SUB SWAP1 REVERT JUMPDEST PUSH1 0x50 DUP2 PUSH1 0x55 JUMP JUMPDEST POP PUSH1 0xAE JUMP JUMPDEST PUSH1 0x3 DUP1 SLOAD PUSH1 0x1 PUSH1 0x1 PUSH1 0xA0 SHL SUB DUP4 DUP2 AND PUSH2 0x100 DUP2 DUP2 MUL PUSH2 0x100 PUSH1 0x1 PUSH1 0xA8 SHL SUB NOT DUP6 AND OR SWAP1 SWAP5 SSTORE PUSH1 0x40 MLOAD SWAP4 SWAP1 SWAP3 DIV AND SWAP2 DUP3 SWAP1 PUSH32 0x8BE0079C531659141344CD1FD0A4F28419497F9722A3DAAFE3B4186F6B6457E0 SWAP1 PUSH0 SWAP1 LOG3 POP POP JUMP JUMPDEST PUSH2 0x3CEB DUP1 PUSH2 0xBB PUSH0 CODECOPY PUSH0 RETURN INVALID PUSH1 0x80 PUSH1 0x40 MSTORE CALLVALUE DUP1 ISZERO PUSH2 0xF JUMPI PUSH0 DUP1 REVERT JUMPDEST POP PUSH1 0x4 CALLDATASIZE LT PUSH2 0x3CA JUMPI PUSH0 CALLDATALOAD PUSH1 0xE0 SHR DUP1 PUSH4 0x88B7AB63 GT PUSH2 0x200 JUMPI DUP1 PUSH4 0xBD102430 GT PUSH2 0x11F JUMPI DUP1 PUSH4 0xE3EE160E GT PUSH2 0xB4 JUMPI DUP1 PUSH4 0xEF55BEC6 GT PUSH2 0x84 JUMPI DUP1 PUSH4 0xEF55BEC6 EQ PUSH2 0x90E JUMPI DUP1 PUSH4 0xF21AF007 EQ PUSH2 0x921 JUMPI DUP1 PUSH4 0xF2FDE38B EQ PUSH2 0x934 JUMPI DUP1 PUSH4 0xF9F92BE4 EQ PUSH2 0x947 JUMPI DUP1 PUSH4 0xFE575A87 EQ PUSH2 0x95A JUMPI PUSH0 DUP1 REVERT JUMPDEST DUP1 PUSH4 0xE3EE160E EQ PUSH2 0x8B3 JUMPI DUP1 PUSH4 0xE5A6B10F EQ PUSH2 0x8C6 JUMPI DUP1 PUSH4 0xE5B5019A EQ PUSH2 0x8CE JUMPI DUP1 PUSH4 0xE94A0102 EQ PUSH2 0x8D6 JUMPI PUSH0 DUP1 REVERT JUMPDEST DUP1 PUSH4 0xD9169487 GT PUSH2 0xEF JUMPI DUP1 PUSH4 0xD9169487 EQ PUSH2 0x82C JUMPI DUP1 PUSH4 0xDD62ED3E EQ PUSH2 0x853 JUMPI DUP1 PUSH4 0xDD644F72 EQ PUSH2 0x88B JUMPI DUP1 PUSH4 0xE2E71F93 EQ PUSH2 0x894 JUMPI PUSH0 DUP1 REVERT JUMPDEST DUP1 PUSH4 0xBD102430 EQ PUSH2 0x7E0 JUMPI DUP1 PUSH4 0xC0324C77 EQ PUSH2 0x7F3 JUMPI DUP1 PUSH4 0xCF092995 EQ PUSH2 0x806 JUMPI DUP1 PUSH4 0xD505ACCF EQ PUSH2 0x819 JUMPI PUSH0 DUP1 REVERT JUMPDEST DUP1 PUSH4 0x9FD5A6CF GT PUSH2 0x195 JUMPI DUP1 PUSH4 0xAA20E1E4 GT PUSH2 0x165 JUMPI DUP1 PUSH4 0xAA20E1E4 EQ PUSH2 0x77C JUMPI DUP1 PUSH4 0xAA271E1A EQ PUSH2 0x78F JUMPI DUP1 PUSH4 0xAD38BF22 EQ PUSH2 0x7BA JUMPI DUP1 PUSH4 0xB7B72899 EQ PUSH2 0x7CD JUMPI PUSH0 DUP1 REVERT JUMPDEST DUP1 PUSH4 0x9FD5A6CF EQ PUSH2 0x71C JUMPI DUP1 PUSH4 0xA0CC6A68 EQ PUSH2 0x72F JUMPI DUP1 PUSH4 0xA457C2D7 EQ PUSH2 0x756 JUMPI DUP1 PUSH4 0xA9059CBB EQ PUSH2 0x769 JUMPI PUSH0 DUP1 REVERT JUMPDEST DUP1 PUSH4 0x95D89B41 GT PUSH2 0x1D0 JUMPI DUP1 PUSH4 0x95D89B41 EQ PUSH2 0x6DB JUMPI DUP1 PUSH4 0x9801AC50 EQ PUSH2 0x6E3 JUMPI DUP1 PUSH4 0x9B19251A EQ PUSH2 0x6F6 JUMPI DUP1 PUSH4 0x9FD0506D EQ PUSH2 0x709 JUMPI PUSH0 DUP1 REVERT JUMPDEST DUP1 PUSH4 0x88B7AB63 EQ PUSH2 0x677 JUMPI DUP1 PUSH4 0x8A6DB9C3 EQ PUSH2 0x68A JUMPI DUP1 PUSH4 0x8DA5CB5B EQ PUSH2 0x6B2 JUMPI DUP1 PUSH4 0x94D81D8D EQ PUSH2 0x6C8 JUMPI PUSH0 DUP1 REVERT JUMPDEST DUP1 PUSH4 0x3AF32ABF GT PUSH2 0x2EC JUMPI DUP1 PUSH4 0x5C975ABB GT PUSH2 0x281 JUMPI DUP1 PUSH4 0x7A4FDA3D GT PUSH2 0x251 JUMPI DUP1 PUSH4 0x7A4FDA3D EQ PUSH2 0x60D JUMPI DUP1 PUSH4 0x7ECEBE00 EQ PUSH2 0x620 JUMPI DUP1 PUSH4 0x7F2EECC3 EQ PUSH2 0x648 JUMPI DUP1 PUSH4 0x8456CB59 EQ PUSH2 0x66F JUMPI PUSH0 DUP1 REVERT JUMPDEST DUP1 PUSH4 0x5C975ABB EQ PUSH2 0x5D4 JUMPI DUP1 PUSH4 0x70A08231 EQ PUSH2 0x5DF JUMPI DUP1 PUSH4 0x715018A6 EQ PUSH2 0x5F2 JUMPI DUP1 PUSH4 0x75DC7D8C EQ PUSH2 0x5FA JUMPI PUSH0 DUP1 REVERT JUMPDEST DUP1 PUSH4 0x4E44D956 GT PUSH2 0x2BC JUMPI DUP1 PUSH4 0x4E44D956 EQ PUSH2 0x57E JUMPI DUP1 PUSH4 0x54FD4D50 EQ PUSH2 0x591 JUMPI DUP1 PUSH4 0x554BAB3C EQ PUSH2 0x5AE JUMPI DUP1 PUSH4 0x5A049A70 EQ PUSH2 0x5C1 JUMPI PUSH0 DUP1 REVERT JUMPDEST DUP1 PUSH4 0x3AF32ABF EQ PUSH2 0x53D JUMPI DUP1 PUSH4 0x3F4BA83A EQ PUSH2 0x550 JUMPI DUP1 PUSH4 0x42966C68 EQ PUSH2 0x558 JUMPI DUP1 PUSH4 0x458B35EE EQ PUSH2 0x56B JUMPI PUSH0 DUP1 REVERT JUMPDEST DUP1 PUSH4 0x3092AFD5 GT PUSH2 0x362 JUMPI DUP1 PUSH4 0x35390714 GT PUSH2 0x332 JUMPI DUP1 PUSH4 0x35390714 EQ PUSH2 0x506 JUMPI DUP1 PUSH4 0x35D99F35 EQ PUSH2 0x50F JUMPI DUP1 PUSH4 0x3644E515 EQ PUSH2 0x522 JUMPI DUP1 PUSH4 0x39509351 EQ PUSH2 0x52A JUMPI PUSH0 DUP1 REVERT JUMPDEST DUP1 PUSH4 0x3092AFD5 EQ PUSH2 0x49A JUMPI DUP1 PUSH4 0x30ADF81F EQ PUSH2 0x4AD JUMPI DUP1 PUSH4 0x313CE567 EQ PUSH2 0x4D4 JUMPI DUP1 PUSH4 0x315F2746 EQ PUSH2 0x4F3 JUMPI PUSH0 DUP1 REVERT JUMPDEST DUP1 PUSH4 0x1A895266 GT PUSH2 0x39D JUMPI DUP1 PUSH4 0x1A895266 EQ PUSH2 0x436 JUMPI DUP1 PUSH4 0x22758A4A EQ PUSH2 0x449 JUMPI DUP1 PUSH4 0x23B872DD EQ PUSH2 0x474 JUMPI DUP1 PUSH4 0x2C04EB42 EQ PUSH2 0x487 JUMPI PUSH0 DUP1 REVERT JUMPDEST DUP1 PUSH4 0x6FDDE03 EQ PUSH2 0x3CE JUMPI DUP1 PUSH4 0x95EA7B3 EQ PUSH2 0x3EC JUMPI DUP1 PUSH4 0x13AF4035 EQ PUSH2 0x40F JUMPI DUP1 PUSH4 0x18160DDD EQ PUSH2 0x424 JUMPI JUMPDEST PUSH0 DUP1 REVERT JUMPDEST PUSH2 0x3D6 PUSH2 0x96D JUMP JUMPDEST PUSH1 0x40 MLOAD PUSH2 0x3E3 SWAP2 SWAP1 PUSH2 0x2F60 JUMP JUMPDEST PUSH1 0x40 MLOAD DUP1 SWAP2 SUB SWAP1 RETURN JUMPDEST PUSH2 0x3FF PUSH2 0x3FA CALLDATASIZE PUSH1 0x4 PUSH2 0x2F88 JUMP JUMPDEST PUSH2 0x9F9 JUMP JUMPDEST PUSH1 0x40 MLOAD SWAP1 ISZERO ISZERO DUP2 MSTORE PUSH1 0x20 ADD PUSH2 0x3E3 JUMP JUMPDEST PUSH2 0x422 PUSH2 0x41D CALLDATASIZE PUSH1 0x4 PUSH2 0x2FB0 JUMP JUMPDEST PUSH2 0xA6F JUMP JUMPDEST STOP JUMPDEST PUSH1 0xF SLOAD JUMPDEST PUSH1 0x40 MLOAD SWAP1 DUP2 MSTORE PUSH1 0x20 ADD PUSH2 0x3E3 JUMP JUMPDEST PUSH2 0x422 PUSH2 0x444 CALLDATASIZE PUSH1 0x4 PUSH2 0x2FB0 JUMP JUMPDEST PUSH2 0xAEC JUMP JUMPDEST PUSH1 0x6 SLOAD PUSH2 0x45C SWAP1 PUSH1 0x1 PUSH1 0x1 PUSH1 0xA0 SHL SUB AND DUP2 JUMP JUMPDEST PUSH1 0x40 MLOAD PUSH1 0x1 PUSH1 0x1 PUSH1 0xA0 SHL SUB SWAP1 SWAP2 AND DUP2 MSTORE PUSH1 0x20 ADD PUSH2 0x3E3 JUMP JUMPDEST PUSH2 0x3FF PUSH2 0x482 CALLDATASIZE PUSH1 0x4 PUSH2 0x2FC9 JUMP JUMPDEST PUSH2 0xB55 JUMP JUMPDEST PUSH2 0x422 PUSH2 0x495 CALLDATASIZE PUSH1 0x4 PUSH2 0x3047 JUMP JUMPDEST PUSH2 0xCBF JUMP JUMPDEST PUSH2 0x3FF PUSH2 0x4A8 CALLDATASIZE PUSH1 0x4 PUSH2 0x2FB0 JUMP JUMPDEST PUSH2 0xD5B JUMP JUMPDEST PUSH2 0x428 PUSH32 0x6E71EDAE12B1B97F4D1F60370FEF10105FA2FAAE0126114A169C64845D6126C9 DUP2 JUMP JUMPDEST PUSH1 0x9 SLOAD PUSH2 0x4E1 SWAP1 PUSH1 0xFF AND DUP2 JUMP JUMPDEST PUSH1 0x40 MLOAD PUSH1 0xFF SWAP1 SWAP2 AND DUP2 MSTORE PUSH1 0x20 ADD PUSH2 0x3E3 JUMP JUMPDEST PUSH2 0x422 PUSH2 0x501 CALLDATASIZE PUSH1 0x4 PUSH2 0x30FD JUMP JUMPDEST PUSH2 0xDE2 JUMP JUMPDEST PUSH2 0x428 PUSH1 0x14 SLOAD DUP2 JUMP JUMPDEST PUSH1 0xB SLOAD PUSH2 0x45C SWAP1 PUSH1 0x1 PUSH1 0x1 PUSH1 0xA0 SHL SUB AND DUP2 JUMP JUMPDEST PUSH2 0x428 PUSH2 0xE87 JUMP JUMPDEST PUSH2 0x3FF PUSH2 0x538 CALLDATASIZE PUSH1 0x4 PUSH2 0x2F88 JUMP JUMPDEST PUSH2 0xE95 JUMP JUMPDEST PUSH2 0x3FF PUSH2 0x54B CALLDATASIZE PUSH1 0x4 PUSH2 0x2FB0 JUMP JUMPDEST PUSH2 0xEF7 JUMP JUMPDEST PUSH2 0x422 PUSH2 0xF07 JUMP JUMPDEST PUSH2 0x422 PUSH2 0x566 CALLDATASIZE PUSH1 0x4 PUSH2 0x3187 JUMP JUMPDEST PUSH2 0xF3B JUMP JUMPDEST PUSH2 0x422 PUSH2 0x579 CALLDATASIZE PUSH1 0x4 PUSH2 0x2FB0 JUMP JUMPDEST PUSH2 0x1133 JUMP JUMPDEST PUSH2 0x3FF PUSH2 0x58C CALLDATASIZE PUSH1 0x4 PUSH2 0x2F88 JUMP JUMPDEST PUSH2 0x11F5 JUMP JUMPDEST PUSH1 0x40 DUP1 MLOAD DUP1 DUP3 ADD SWAP1 SWAP2 MSTORE PUSH1 0x1 DUP2 MSTORE PUSH1 0x31 PUSH1 0xF8 SHL PUSH1 0x20 DUP3 ADD MSTORE PUSH2 0x3D6 JUMP JUMPDEST PUSH2 0x422 PUSH2 0x5BC CALLDATASIZE PUSH1 0x4 PUSH2 0x2FB0 JUMP JUMPDEST PUSH2 0x1291 JUMP JUMPDEST PUSH2 0x422 PUSH2 0x5CF CALLDATASIZE PUSH1 0x4 PUSH2 0x319E JUMP JUMPDEST PUSH2 0x134D JUMP JUMPDEST PUSH1 0x3 SLOAD PUSH1 0xFF AND PUSH2 0x3FF JUMP JUMPDEST PUSH2 0x428 PUSH2 0x5ED CALLDATASIZE PUSH1 0x4 PUSH2 0x2FB0 JUMP JUMPDEST PUSH2 0x1369 JUMP JUMPDEST PUSH2 0x422 PUSH2 0x1373 JUMP JUMPDEST PUSH2 0x428 PUSH2 0x608 CALLDATASIZE PUSH1 0x4 PUSH2 0x3187 JUMP JUMPDEST PUSH2 0x1384 JUMP JUMPDEST PUSH2 0x428 PUSH2 0x61B CALLDATASIZE PUSH1 0x4 PUSH2 0x2FB0 JUMP JUMPDEST PUSH2 0x13BD JUMP JUMPDEST PUSH2 0x428 PUSH2 0x62E CALLDATASIZE PUSH1 0x4 PUSH2 0x2FB0 JUMP JUMPDEST PUSH1 0x1 PUSH1 0x1 PUSH1 0xA0 SHL SUB AND PUSH0 SWAP1 DUP2 MSTORE PUSH1 0x2 PUSH1 0x20 MSTORE PUSH1 0x40 SWAP1 KECCAK256 SLOAD SWAP1 JUMP JUMPDEST PUSH2 0x428 PUSH32 0xD099CC98EF71107A616C4F0F941F04C322D8E254FE26B3C6668DB87AAE413DE8 DUP2 JUMP JUMPDEST PUSH2 0x422 PUSH2 0x143F JUMP JUMPDEST PUSH2 0x422 PUSH2 0x685 CALLDATASIZE PUSH1 0x4 PUSH2 0x3285 JUMP JUMPDEST PUSH2 0x1471 JUMP JUMPDEST PUSH2 0x428 PUSH2 0x698 CALLDATASIZE PUSH1 0x4 PUSH2 0x2FB0 JUMP JUMPDEST PUSH1 0x1 PUSH1 0x1 PUSH1 0xA0 SHL SUB AND PUSH0 SWAP1 DUP2 MSTORE PUSH1 0x11 PUSH1 0x20 MSTORE PUSH1 0x40 SWAP1 KECCAK256 SLOAD SWAP1 JUMP JUMPDEST PUSH1 0x3 SLOAD PUSH2 0x100 SWAP1 DIV PUSH1 0x1 PUSH1 0x1 PUSH1 0xA0 SHL SUB AND PUSH2 0x45C JUMP JUMPDEST PUSH2 0x422 PUSH2 0x6D6 CALLDATASIZE PUSH1 0x4 PUSH2 0x3304 JUMP JUMPDEST PUSH2 0x14E1 JUMP JUMPDEST PUSH2 0x3D6 PUSH2 0x175F JUMP JUMPDEST PUSH2 0x422 PUSH2 0x6F1 CALLDATASIZE PUSH1 0x4 PUSH2 0x33E1 JUMP JUMPDEST PUSH2 0x176C JUMP JUMPDEST PUSH2 0x422 PUSH2 0x704 CALLDATASIZE PUSH1 0x4 PUSH2 0x2FB0 JUMP JUMPDEST PUSH2 0x180B JUMP JUMPDEST PUSH1 0x4 SLOAD PUSH2 0x45C SWAP1 PUSH1 0x1 PUSH1 0x1 PUSH1 0xA0 SHL SUB AND DUP2 JUMP JUMPDEST PUSH2 0x422 PUSH2 0x72A CALLDATASIZE PUSH1 0x4 PUSH2 0x3471 JUMP JUMPDEST PUSH2 0x1874 JUMP JUMPDEST PUSH2 0x428 PUSH32 0x7C7C6CDB67A18743F49EC6FA9B35F50D52ED05CBED4CC592E13B44501C1A2267 DUP2 JUMP JUMPDEST PUSH2 0x3FF PUSH2 0x764 CALLDATASIZE PUSH1 0x4 PUSH2 0x2F88 JUMP JUMPDEST PUSH2 0x18E0 JUMP JUMPDEST PUSH2 0x3FF PUSH2 0x777 CALLDATASIZE PUSH1 0x4 PUSH2 0x2F88 JUMP JUMPDEST PUSH2 0x1942 JUMP JUMPDEST PUSH2 0x422 PUSH2 0x78A CALLDATASIZE PUSH1 0x4 PUSH2 0x2FB0 JUMP JUMPDEST PUSH2 0x19A4 JUMP JUMPDEST PUSH2 0x3FF PUSH2 0x79D CALLDATASIZE PUSH1 0x4 PUSH2 0x2FB0 JUMP JUMPDEST PUSH1 0x1 PUSH1 0x1 PUSH1 0xA0 SHL SUB AND PUSH0 SWAP1 DUP2 MSTORE PUSH1 0x10 PUSH1 0x20 MSTORE PUSH1 0x40 SWAP1 KECCAK256 SLOAD PUSH1 0xFF AND SWAP1 JUMP JUMPDEST PUSH2 0x422 PUSH2 0x7C8 CALLDATASIZE PUSH1 0x4 PUSH2 0x2FB0 JUMP JUMPDEST PUSH2 0x1A1B JUMP JUMPDEST PUSH2 0x422 PUSH2 0x7DB CALLDATASIZE PUSH1 0x4 PUSH2 0x34DE JUMP JUMPDEST PUSH2 0x1ADD JUMP JUMPDEST PUSH1 0x5 SLOAD PUSH2 0x45C SWAP1 PUSH1 0x1 PUSH1 0x1 PUSH1 0xA0 SHL SUB AND DUP2 JUMP JUMPDEST PUSH2 0x422 PUSH2 0x801 CALLDATASIZE PUSH1 0x4 PUSH2 0x3531 JUMP JUMPDEST PUSH2 0x1AF5 JUMP JUMPDEST PUSH2 0x422 PUSH2 0x814 CALLDATASIZE PUSH1 0x4 PUSH2 0x3285 JUMP JUMPDEST PUSH2 0x1B81 JUMP JUMPDEST PUSH2 0x422 PUSH2 0x827 CALLDATASIZE PUSH1 0x4 PUSH2 0x3551 JUMP JUMPDEST PUSH2 0x1BE6 JUMP JUMPDEST PUSH2 0x428 PUSH32 0x158B0A9EDF7A828AAD02F63CD515C68EF2F50BA807396F6D12842833A1597429 DUP2 JUMP JUMPDEST PUSH2 0x428 PUSH2 0x861 CALLDATASIZE PUSH1 0x4 PUSH2 0x35B6 JUMP JUMPDEST PUSH1 0x1 PUSH1 0x1 PUSH1 0xA0 SHL SUB SWAP2 DUP3 AND PUSH0 SWAP1 DUP2 MSTORE PUSH1 0xE PUSH1 0x20 SWAP1 DUP2 MSTORE PUSH1 0x40 DUP1 DUP4 KECCAK256 SWAP4 SWAP1 SWAP5 AND DUP3 MSTORE SWAP2 SWAP1 SWAP2 MSTORE KECCAK256 SLOAD SWAP1 JUMP JUMPDEST PUSH2 0x428 PUSH1 0x13 SLOAD DUP2 JUMP JUMPDEST PUSH2 0x428 PUSH2 0x8A2 CALLDATASIZE PUSH1 0x4 PUSH2 0x2FB0 JUMP JUMPDEST PUSH1 0x15 PUSH1 0x20 MSTORE PUSH0 SWAP1 DUP2 MSTORE PUSH1 0x40 SWAP1 KECCAK256 SLOAD DUP2 JUMP JUMPDEST PUSH2 0x422 PUSH2 0x8C1 CALLDATASIZE PUSH1 0x4 PUSH2 0x35E7 JUMP JUMPDEST PUSH2 0x1C4B JUMP JUMPDEST PUSH2 0x3D6 PUSH2 0x1CBF JUMP JUMPDEST PUSH2 0x428 PUSH0 NOT DUP2 JUMP JUMPDEST PUSH2 0x3FF PUSH2 0x8E4 CALLDATASIZE PUSH1 0x4 PUSH2 0x2F88 JUMP JUMPDEST PUSH1 0x1 PUSH1 0x1 PUSH1 0xA0 SHL SUB SWAP2 SWAP1 SWAP2 AND PUSH0 SWAP1 DUP2 MSTORE PUSH1 0x1 PUSH1 0x20 SWAP1 DUP2 MSTORE PUSH1 0x40 DUP1 DUP4 KECCAK256 SWAP4 DUP4 MSTORE SWAP3 SWAP1 MSTORE KECCAK256 SLOAD PUSH1 0xFF AND SWAP1 JUMP JUMPDEST PUSH2 0x422 PUSH2 0x91C CALLDATASIZE PUSH1 0x4 PUSH2 0x35E7 JUMP JUMPDEST PUSH2 0x1CCC JUMP JUMPDEST PUSH2 0x422 PUSH2 0x92F CALLDATASIZE PUSH1 0x4 PUSH2 0x2FB0 JUMP JUMPDEST PUSH2 0x1D33 JUMP JUMPDEST PUSH2 0x422 PUSH2 0x942 CALLDATASIZE PUSH1 0x4 PUSH2 0x2FB0 JUMP JUMPDEST PUSH2 0x1D9C JUMP JUMPDEST PUSH2 0x422 PUSH2 0x955 CALLDATASIZE PUSH1 0x4 PUSH2 0x2FB0 JUMP JUMPDEST PUSH2 0x1DCD JUMP JUMPDEST PUSH2 0x3FF PUSH2 0x968 CALLDATASIZE PUSH1 0x4 PUSH2 0x2FB0 JUMP JUMPDEST PUSH2 0x1E36 JUMP JUMPDEST PUSH1 0x7 DUP1 SLOAD PUSH2 0x97A SWAP1 PUSH2 0x365F JUMP JUMPDEST DUP1 PUSH1 0x1F ADD PUSH1 0x20 DUP1 SWAP2 DIV MUL PUSH1 0x20 ADD PUSH1 0x40 MLOAD SWAP1 DUP2 ADD PUSH1 0x40 MSTORE DUP1 SWAP3 SWAP2 SWAP1 DUP2 DUP2 MSTORE PUSH1 0x20 ADD DUP3 DUP1 SLOAD PUSH2 0x9A6 SWAP1 PUSH2 0x365F JUMP JUMPDEST DUP1 ISZERO PUSH2 0x9F1 JUMPI DUP1 PUSH1 0x1F LT PUSH2 0x9C8 JUMPI PUSH2 0x100 DUP1 DUP4 SLOAD DIV MUL DUP4 MSTORE SWAP2 PUSH1 0x20 ADD SWAP2 PUSH2 0x9F1 JUMP JUMPDEST DUP3 ADD SWAP2 SWAP1 PUSH0 MSTORE PUSH1 0x20 PUSH0 KECCAK256 SWAP1 JUMPDEST DUP2 SLOAD DUP2 MSTORE SWAP1 PUSH1 0x1 ADD SWAP1 PUSH1 0x20 ADD DUP1 DUP4 GT PUSH2 0x9D4 JUMPI DUP3 SWAP1 SUB PUSH1 0x1F AND DUP3 ADD SWAP2 JUMPDEST POP POP POP POP POP DUP2 JUMP JUMPDEST PUSH0 PUSH2 0xA02 PUSH2 0x1E40 JUMP JUMPDEST CALLER PUSH2 0xA0C DUP2 PUSH2 0x1E86 JUMP JUMPDEST ISZERO PUSH2 0xA32 JUMPI PUSH1 0x40 MLOAD PUSH3 0x461BCD PUSH1 0xE5 SHL DUP2 MSTORE PUSH1 0x4 ADD PUSH2 0xA29 SWAP1 PUSH2 0x3697 JUMP JUMPDEST PUSH1 0x40 MLOAD DUP1 SWAP2 SUB SWAP1 REVERT JUMPDEST DUP4 PUSH2 0xA3C DUP2 PUSH2 0x1E86 JUMP JUMPDEST ISZERO PUSH2 0xA59 JUMPI PUSH1 0x40 MLOAD PUSH3 0x461BCD PUSH1 0xE5 SHL DUP2 MSTORE PUSH1 0x4 ADD PUSH2 0xA29 SWAP1 PUSH2 0x3697 JUMP JUMPDEST PUSH2 0xA64 CALLER DUP7 DUP7 PUSH2 0x1EA6 JUMP JUMPDEST POP PUSH1 0x1 SWAP5 SWAP4 POP POP POP POP JUMP JUMPDEST PUSH2 0xA77 PUSH2 0x1FC1 JUMP JUMPDEST PUSH1 0x1 PUSH1 0x1 PUSH1 0xA0 SHL SUB DUP2 AND PUSH2 0xAE0 JUMPI PUSH1 0x40 MLOAD PUSH3 0x461BCD PUSH1 0xE5 SHL DUP2 MSTORE PUSH1 0x20 PUSH1 0x4 DUP3 ADD MSTORE PUSH1 0x2A PUSH1 0x24 DUP3 ADD MSTORE PUSH32 0x4A4453434F776E61626C653A206E6577206F776E657220697320746865207A65 PUSH1 0x44 DUP3 ADD MSTORE PUSH10 0x726F2061646472657373 PUSH1 0xB0 SHL PUSH1 0x64 DUP3 ADD MSTORE PUSH1 0x84 ADD PUSH2 0xA29 JUMP JUMPDEST PUSH2 0xAE9 DUP2 PUSH2 0x1FF4 JUMP JUMPDEST POP JUMP JUMPDEST PUSH1 0x5 SLOAD PUSH1 0x1 PUSH1 0x1 PUSH1 0xA0 SHL SUB AND CALLER EQ PUSH2 0xB16 JUMPI PUSH1 0x40 MLOAD PUSH3 0x461BCD PUSH1 0xE5 SHL DUP2 MSTORE PUSH1 0x4 ADD PUSH2 0xA29 SWAP1 PUSH2 0x36DC JUMP JUMPDEST PUSH2 0xB1F DUP2 PUSH2 0x204D JUMP JUMPDEST PUSH1 0x40 MLOAD PUSH1 0x1 PUSH1 0x1 PUSH1 0xA0 SHL SUB DUP3 AND SWAP1 PUSH32 0x117E3210BB9AA7D9BAFF172026820255C6F6C30BA8999D1C2FD88E2848137C4E SWAP1 PUSH0 SWAP1 LOG2 POP JUMP JUMPDEST PUSH0 PUSH2 0xB5E PUSH2 0x1E40 JUMP JUMPDEST CALLER PUSH2 0xB68 DUP2 PUSH2 0x1E86 JUMP JUMPDEST ISZERO PUSH2 0xB85 JUMPI PUSH1 0x40 MLOAD PUSH3 0x461BCD PUSH1 0xE5 SHL DUP2 MSTORE PUSH1 0x4 ADD PUSH2 0xA29 SWAP1 PUSH2 0x3697 JUMP JUMPDEST DUP5 PUSH2 0xB8F DUP2 PUSH2 0x1E86 JUMP JUMPDEST ISZERO PUSH2 0xBAC JUMPI PUSH1 0x40 MLOAD PUSH3 0x461BCD PUSH1 0xE5 SHL DUP2 MSTORE PUSH1 0x4 ADD PUSH2 0xA29 SWAP1 PUSH2 0x3697 JUMP JUMPDEST DUP5 PUSH2 0xBB6 DUP2 PUSH2 0x1E86 JUMP JUMPDEST ISZERO PUSH2 0xBD3 JUMPI PUSH1 0x40 MLOAD PUSH3 0x461BCD PUSH1 0xE5 SHL DUP2 MSTORE PUSH1 0x4 ADD PUSH2 0xA29 SWAP1 PUSH2 0x3697 JUMP JUMPDEST PUSH1 0x1 PUSH1 0x1 PUSH1 0xA0 SHL SUB DUP8 AND PUSH0 SWAP1 DUP2 MSTORE PUSH1 0xE PUSH1 0x20 SWAP1 DUP2 MSTORE PUSH1 0x40 DUP1 DUP4 KECCAK256 CALLER DUP5 MSTORE SWAP1 SWAP2 MSTORE SWAP1 KECCAK256 SLOAD DUP6 GT ISZERO PUSH2 0xC56 JUMPI PUSH1 0x40 MLOAD PUSH3 0x461BCD PUSH1 0xE5 SHL DUP2 MSTORE PUSH1 0x20 PUSH1 0x4 DUP3 ADD MSTORE PUSH1 0x28 PUSH1 0x24 DUP3 ADD MSTORE PUSH32 0x45524332303A207472616E7366657220616D6F756E7420657863656564732061 PUSH1 0x44 DUP3 ADD MSTORE PUSH8 0x6C6C6F77616E6365 PUSH1 0xC0 SHL PUSH1 0x64 DUP3 ADD MSTORE PUSH1 0x84 ADD PUSH2 0xA29 JUMP JUMPDEST PUSH2 0xC61 DUP8 DUP8 DUP8 PUSH2 0x2057 JUMP JUMPDEST PUSH1 0x1 PUSH1 0x1 PUSH1 0xA0 SHL SUB DUP8 AND PUSH0 SWAP1 DUP2 MSTORE PUSH1 0xE PUSH1 0x20 SWAP1 DUP2 MSTORE PUSH1 0x40 DUP1 DUP4 KECCAK256 CALLER DUP5 MSTORE SWAP1 SWAP2 MSTORE SWAP1 KECCAK256 SLOAD PUSH2 0xC8E SWAP1 DUP7 PUSH2 0x21F7 JUMP JUMPDEST PUSH1 0x1 PUSH1 0x1 PUSH1 0xA0 SHL SUB DUP9 AND PUSH0 SWAP1 DUP2 MSTORE PUSH1 0xE PUSH1 0x20 SWAP1 DUP2 MSTORE PUSH1 0x40 DUP1 DUP4 KECCAK256 CALLER DUP5 MSTORE SWAP1 SWAP2 MSTORE SWAP1 KECCAK256 SSTORE PUSH1 0x1 SWAP4 POP POP POP POP SWAP4 SWAP3 POP POP POP JUMP JUMPDEST PUSH1 0x12 SLOAD PUSH1 0xFF AND PUSH1 0x1 EQ PUSH2 0xCD0 JUMPI PUSH0 DUP1 REVERT JUMPDEST PUSH1 0x8 PUSH2 0xCDD DUP4 DUP6 DUP4 PUSH2 0x376C JUMP JUMPDEST POP PUSH0 PUSH2 0xCE8 ADDRESS PUSH2 0x2209 JUMP JUMPDEST SWAP1 POP DUP1 ISZERO PUSH2 0xCFB JUMPI PUSH2 0xCFB ADDRESS DUP4 DUP4 PUSH2 0x2057 JUMP JUMPDEST PUSH0 JUMPDEST DUP6 DUP2 LT ISZERO PUSH2 0xD3C JUMPI PUSH2 0xD34 DUP8 DUP8 DUP4 DUP2 DUP2 LT PUSH2 0xD1A JUMPI PUSH2 0xD1A PUSH2 0x3826 JUMP JUMPDEST SWAP1 POP PUSH1 0x20 MUL ADD PUSH1 0x20 DUP2 ADD SWAP1 PUSH2 0xD2F SWAP2 SWAP1 PUSH2 0x2FB0 JUMP JUMPDEST PUSH2 0x222C JUMP JUMPDEST PUSH1 0x1 ADD PUSH2 0xCFD JUMP JUMPDEST POP PUSH2 0xD46 ADDRESS PUSH2 0x222C JUMP JUMPDEST POP POP PUSH1 0x12 DUP1 SLOAD PUSH1 0xFF NOT AND PUSH1 0x2 OR SWAP1 SSTORE POP POP POP POP JUMP JUMPDEST PUSH1 0xB SLOAD PUSH0 SWAP1 PUSH1 0x1 PUSH1 0x1 PUSH1 0xA0 SHL SUB AND CALLER EQ PUSH2 0xD87 JUMPI PUSH1 0x40 MLOAD PUSH3 0x461BCD PUSH1 0xE5 SHL DUP2 MSTORE PUSH1 0x4 ADD PUSH2 0xA29 SWAP1 PUSH2 0x383A JUMP JUMPDEST PUSH1 0x1 PUSH1 0x1 PUSH1 0xA0 SHL SUB DUP3 AND PUSH0 DUP2 DUP2 MSTORE PUSH1 0x10 PUSH1 0x20 SWAP1 DUP2 MSTORE PUSH1 0x40 DUP1 DUP4 KECCAK256 DUP1 SLOAD PUSH1 0xFF NOT AND SWAP1 SSTORE PUSH1 0x11 SWAP1 SWAP2 MSTORE DUP1 DUP3 KECCAK256 DUP3 SWAP1 SSTORE MLOAD PUSH32 0xE94479A9F7E1952CC78F2D6BAAB678ADC1B772D936C6583DEF489E524CB66692 SWAP2 SWAP1 LOG2 POP PUSH1 0x1 JUMPDEST SWAP2 SWAP1 POP JUMP JUMPDEST PUSH2 0xDEA PUSH2 0x1E40 JUMP JUMPDEST DUP10 PUSH2 0xDF4 DUP2 PUSH2 0x2237 JUMP JUMPDEST PUSH2 0xE10 JUMPI PUSH1 0x40 MLOAD PUSH3 0x461BCD PUSH1 0xE5 SHL DUP2 MSTORE PUSH1 0x4 ADD PUSH2 0xA29 SWAP1 PUSH2 0x3883 JUMP JUMPDEST DUP10 PUSH2 0xE1A DUP2 PUSH2 0x2237 JUMP JUMPDEST PUSH2 0xE36 JUMPI PUSH1 0x40 MLOAD PUSH3 0x461BCD PUSH1 0xE5 SHL DUP2 MSTORE PUSH1 0x4 ADD PUSH2 0xA29 SWAP1 PUSH2 0x3883 JUMP JUMPDEST PUSH0 PUSH2 0xE40 DUP11 PUSH2 0x1384 JUMP JUMPDEST SWAP1 POP PUSH0 PUSH2 0xE4D DUP12 DUP4 PUSH2 0x21F7 JUMP JUMPDEST SWAP1 POP PUSH2 0xE60 DUP14 DUP14 DUP4 DUP14 DUP14 DUP14 DUP14 DUP14 DUP14 PUSH2 0x1C4B JUMP JUMPDEST DUP2 ISZERO PUSH2 0xE77 JUMPI PUSH2 0xE77 DUP14 DUP16 DUP5 DUP14 DUP14 DUP14 DUP14 DUP14 DUP14 PUSH2 0x2257 JUMP JUMPDEST POP POP POP POP POP POP POP POP POP POP POP POP POP POP JUMP JUMPDEST PUSH0 PUSH2 0xE90 PUSH2 0x2289 JUMP JUMPDEST SWAP1 POP SWAP1 JUMP JUMPDEST PUSH0 PUSH2 0xE9E PUSH2 0x1E40 JUMP JUMPDEST CALLER PUSH2 0xEA8 DUP2 PUSH2 0x1E86 JUMP JUMPDEST ISZERO PUSH2 0xEC5 JUMPI PUSH1 0x40 MLOAD PUSH3 0x461BCD PUSH1 0xE5 SHL DUP2 MSTORE PUSH1 0x4 ADD PUSH2 0xA29 SWAP1 PUSH2 0x3697 JUMP JUMPDEST DUP4 PUSH2 0xECF DUP2 PUSH2 0x1E86 JUMP JUMPDEST ISZERO PUSH2 0xEEC JUMPI PUSH1 0x40 MLOAD PUSH3 0x461BCD PUSH1 0xE5 SHL DUP2 MSTORE PUSH1 0x4 ADD PUSH2 0xA29 SWAP1 PUSH2 0x3697 JUMP JUMPDEST PUSH2 0xA64 CALLER DUP7 DUP7 PUSH2 0x233C JUMP JUMPDEST PUSH0 PUSH2 0xF01 DUP3 PUSH2 0x2237 JUMP JUMPDEST SWAP3 SWAP2 POP POP JUMP JUMPDEST PUSH1 0x4 SLOAD PUSH1 0x1 PUSH1 0x1 PUSH1 0xA0 SHL SUB AND CALLER EQ PUSH2 0xF31 JUMPI PUSH1 0x40 MLOAD PUSH3 0x461BCD PUSH1 0xE5 SHL DUP2 MSTORE PUSH1 0x4 ADD PUSH2 0xA29 SWAP1 PUSH2 0x38D0 JUMP JUMPDEST PUSH2 0xF39 PUSH2 0x2378 JUMP JUMPDEST JUMP JUMPDEST PUSH2 0xF43 PUSH2 0x1E40 JUMP JUMPDEST CALLER PUSH0 SWAP1 DUP2 MSTORE PUSH1 0x10 PUSH1 0x20 MSTORE PUSH1 0x40 SWAP1 KECCAK256 SLOAD PUSH1 0xFF AND PUSH2 0xFAB JUMPI PUSH1 0x40 MLOAD PUSH3 0x461BCD PUSH1 0xE5 SHL DUP2 MSTORE PUSH1 0x20 PUSH1 0x4 DUP3 ADD MSTORE PUSH1 0x21 PUSH1 0x24 DUP3 ADD MSTORE PUSH32 0x4A445343546F6B656E3A2063616C6C6572206973206E6F742061206D696E7465 PUSH1 0x44 DUP3 ADD MSTORE PUSH1 0x39 PUSH1 0xF9 SHL PUSH1 0x64 DUP3 ADD MSTORE PUSH1 0x84 ADD PUSH2 0xA29 JUMP JUMPDEST CALLER PUSH2 0xFB5 DUP2 PUSH2 0x1E86 JUMP JUMPDEST ISZERO PUSH2 0xFD2 JUMPI PUSH1 0x40 MLOAD PUSH3 0x461BCD PUSH1 0xE5 SHL DUP2 MSTORE PUSH1 0x4 ADD PUSH2 0xA29 SWAP1 PUSH2 0x3697 JUMP JUMPDEST PUSH0 PUSH2 0xFDC CALLER PUSH2 0x2209 JUMP JUMPDEST SWAP1 POP PUSH0 DUP4 GT PUSH2 0x103F JUMPI PUSH1 0x40 MLOAD PUSH3 0x461BCD PUSH1 0xE5 SHL DUP2 MSTORE PUSH1 0x20 PUSH1 0x4 DUP3 ADD MSTORE PUSH1 0x29 PUSH1 0x24 DUP3 ADD MSTORE PUSH32 0x4A445343546F6B656E3A206275726E20616D6F756E74206E6F74206772656174 PUSH1 0x44 DUP3 ADD MSTORE PUSH9 0x6572207468616E203 PUSH1 0xBC SHL PUSH1 0x64 DUP3 ADD MSTORE PUSH1 0x84 ADD PUSH2 0xA29 JUMP JUMPDEST DUP3 DUP2 LT ISZERO PUSH2 0x109E JUMPI PUSH1 0x40 MLOAD PUSH3 0x461BCD PUSH1 0xE5 SHL DUP2 MSTORE PUSH1 0x20 PUSH1 0x4 DUP3 ADD MSTORE PUSH1 0x26 PUSH1 0x24 DUP3 ADD MSTORE PUSH32 0x4A445343546F6B656E3A206275726E20616D6F756E7420657863656564732062 PUSH1 0x44 DUP3 ADD MSTORE PUSH6 0x616C616E6365 PUSH1 0xD0 SHL PUSH1 0x64 DUP3 ADD MSTORE PUSH1 0x84 ADD PUSH2 0xA29 JUMP JUMPDEST PUSH1 0xF SLOAD PUSH2 0x10AB SWAP1 DUP5 PUSH2 0x21F7 JUMP JUMPDEST PUSH1 0xF SSTORE PUSH2 0x10C1 CALLER PUSH2 0x10BC DUP4 DUP7 PUSH2 0x21F7 JUMP JUMPDEST PUSH2 0x23CA JUMP JUMPDEST PUSH1 0x40 MLOAD DUP4 DUP2 MSTORE CALLER SWAP1 PUSH32 0xCC16F5DBB4873280815C1EE09DBD06736CFFCC184412CF7A71A0FDB75D397CA5 SWAP1 PUSH1 0x20 ADD PUSH1 0x40 MLOAD DUP1 SWAP2 SUB SWAP1 LOG2 PUSH1 0x40 MLOAD DUP4 DUP2 MSTORE PUSH0 SWAP1 CALLER SWAP1 PUSH32 0xDDF252AD1BE2C89B69C2B068FC378DAA952BA7F163C4A11628F55A4DF523B3EF SWAP1 PUSH1 0x20 ADD JUMPDEST PUSH1 0x40 MLOAD DUP1 SWAP2 SUB SWAP1 LOG3 POP POP POP JUMP JUMPDEST PUSH2 0x113B PUSH2 0x1FC1 JUMP JUMPDEST PUSH1 0x1 PUSH1 0x1 PUSH1 0xA0 SHL SUB DUP2 AND PUSH2 0x11AC JUMPI PUSH1 0x40 MLOAD PUSH3 0x461BCD PUSH1 0xE5 SHL DUP2 MSTORE PUSH1 0x20 PUSH1 0x4 DUP3 ADD MSTORE PUSH1 0x32 PUSH1 0x24 DUP3 ADD MSTORE PUSH32 0x57686974656C69737461626C653A206E65772077686974656C69737465722069 PUSH1 0x44 DUP3 ADD MSTORE PUSH18 0x7320746865207A65726F2061646472657373 PUSH1 0x70 SHL PUSH1 0x64 DUP3 ADD MSTORE PUSH1 0x84 ADD PUSH2 0xA29 JUMP JUMPDEST PUSH1 0x6 DUP1 SLOAD PUSH1 0x1 PUSH1 0x1 PUSH1 0xA0 SHL SUB NOT AND PUSH1 0x1 PUSH1 0x1 PUSH1 0xA0 SHL SUB DUP4 AND SWAP1 DUP2 OR SWAP1 SWAP2 SSTORE PUSH1 0x40 MLOAD PUSH32 0x800D1DE693142E2C37EF233754D1D9E7EDC8AE28D34204DDF3E180C02D0B009E SWAP1 PUSH0 SWAP1 LOG2 POP JUMP JUMPDEST PUSH0 PUSH2 0x11FE PUSH2 0x1E40 JUMP JUMPDEST PUSH1 0xB SLOAD PUSH1 0x1 PUSH1 0x1 PUSH1 0xA0 SHL SUB AND CALLER EQ PUSH2 0x1228 JUMPI PUSH1 0x40 MLOAD PUSH3 0x461BCD PUSH1 0xE5 SHL DUP2 MSTORE PUSH1 0x4 ADD PUSH2 0xA29 SWAP1 PUSH2 0x383A JUMP JUMPDEST PUSH1 0x1 PUSH1 0x1 PUSH1 0xA0 SHL SUB DUP4 AND PUSH0 DUP2 DUP2 MSTORE PUSH1 0x10 PUSH1 0x20 SWAP1 DUP2 MSTORE PUSH1 0x40 DUP1 DUP4 KECCAK256 DUP1 SLOAD PUSH1 0xFF NOT AND PUSH1 0x1 OR SWAP1 SSTORE PUSH1 0x11 DUP3 MSTORE SWAP2 DUP3 SWAP1 KECCAK256 DUP6 SWAP1 SSTORE SWAP1 MLOAD DUP5 DUP2 MSTORE PUSH32 0x46980FCA912EF9BCDBD36877427B6B90E860769F604E89C0E67720CECE530D20 SWAP2 ADD PUSH1 0x40 MLOAD DUP1 SWAP2 SUB SWAP1 LOG2 POP PUSH1 0x1 SWAP3 SWAP2 POP POP JUMP JUMPDEST PUSH2 0x1299 PUSH2 0x1FC1 JUMP JUMPDEST PUSH1 0x1 PUSH1 0x1 PUSH1 0xA0 SHL SUB DUP2 AND PUSH2 0x1304 JUMPI PUSH1 0x40 MLOAD PUSH3 0x461BCD PUSH1 0xE5 SHL DUP2 MSTORE PUSH1 0x20 PUSH1 0x4 DUP3 ADD MSTORE PUSH1 0x2C PUSH1 0x24 DUP3 ADD MSTORE PUSH32 0x4A4453435061757361626C653A206E6577207061757365722069732074686520 PUSH1 0x44 DUP3 ADD MSTORE PUSH12 0x7A65726F2061646472657373 PUSH1 0xA0 SHL PUSH1 0x64 DUP3 ADD MSTORE PUSH1 0x84 ADD PUSH2 0xA29 JUMP JUMPDEST PUSH1 0x4 DUP1 SLOAD PUSH1 0x1 PUSH1 0x1 PUSH1 0xA0 SHL SUB NOT AND PUSH1 0x1 PUSH1 0x1 PUSH1 0xA0 SHL SUB DUP4 AND SWAP1 DUP2 OR SWAP1 SWAP2 SSTORE PUSH1 0x40 MLOAD PUSH32 0xB80482A293CA2E013EDA8683C9BD7FC8347CFDAEEA5EDE58CBA46DF502C2A604 SWAP1 PUSH0 SWAP1 LOG2 POP JUMP JUMPDEST PUSH2 0x1355 PUSH2 0x1E40 JUMP JUMPDEST PUSH2 0x1362 DUP6 DUP6 DUP6 DUP6 DUP6 PUSH2 0x24AE JUMP JUMPDEST POP POP POP POP POP JUMP JUMPDEST PUSH0 PUSH2 0xF01 DUP3 PUSH2 0x2209 JUMP JUMPDEST PUSH2 0x137B PUSH2 0x1FC1 JUMP JUMPDEST PUSH2 0xF39 PUSH0 PUSH2 0x1FF4 JUMP JUMPDEST PUSH0 DUP1 PUSH2 0x13A7 PUSH2 0x2710 PUSH2 0x13A1 PUSH1 0x13 SLOAD DUP7 PUSH2 0x24DC SWAP1 SWAP2 SWAP1 PUSH4 0xFFFFFFFF AND JUMP JUMPDEST SWAP1 PUSH2 0x24E7 JUMP JUMPDEST SWAP1 POP PUSH1 0x14 SLOAD DUP2 GT ISZERO PUSH2 0xF01 JUMPI POP PUSH1 0x14 SLOAD SWAP3 SWAP2 POP POP JUMP JUMPDEST PUSH0 PUSH1 0x1 PUSH1 0x1 PUSH1 0xA0 SHL SUB DUP3 AND PUSH2 0x1424 JUMPI PUSH1 0x40 MLOAD PUSH3 0x461BCD PUSH1 0xE5 SHL DUP2 MSTORE PUSH1 0x20 PUSH1 0x4 DUP3 ADD MSTORE PUSH1 0x27 PUSH1 0x24 DUP3 ADD MSTORE PUSH32 0x4A445343546F6B656E3A205F6163636F756E7420697320746865207A65726F20 PUSH1 0x44 DUP3 ADD MSTORE PUSH7 0x61646472657373 PUSH1 0xC8 SHL PUSH1 0x64 DUP3 ADD MSTORE PUSH1 0x84 ADD PUSH2 0xA29 JUMP JUMPDEST POP PUSH1 0x1 PUSH1 0x1 PUSH1 0xA0 SHL SUB AND PUSH0 SWAP1 DUP2 MSTORE PUSH1 0x15 PUSH1 0x20 MSTORE PUSH1 0x40 SWAP1 KECCAK256 SLOAD SWAP1 JUMP JUMPDEST PUSH1 0x4 SLOAD PUSH1 0x1 PUSH1 0x1 PUSH1 0xA0 SHL SUB AND CALLER EQ PUSH2 0x1469 JUMPI PUSH1 0x40 MLOAD PUSH3 0x461BCD PUSH1 0xE5 SHL DUP2 MSTORE PUSH1 0x4 ADD PUSH2 0xA29 SWAP1 PUSH2 0x38D0 JUMP JUMPDEST PUSH2 0xF39 PUSH2 0x24F2 JUMP JUMPDEST PUSH2 0x1479 PUSH2 0x1E40 JUMP JUMPDEST DUP7 PUSH2 0x1483 DUP2 PUSH2 0x1E86 JUMP JUMPDEST ISZERO PUSH2 0x14A0 JUMPI PUSH1 0x40 MLOAD PUSH3 0x461BCD PUSH1 0xE5 SHL DUP2 MSTORE PUSH1 0x4 ADD PUSH2 0xA29 SWAP1 PUSH2 0x3697 JUMP JUMPDEST DUP7 PUSH2 0x14AA DUP2 PUSH2 0x1E86 JUMP JUMPDEST ISZERO PUSH2 0x14C7 JUMPI PUSH1 0x40 MLOAD PUSH3 0x461BCD PUSH1 0xE5 SHL DUP2 MSTORE PUSH1 0x4 ADD PUSH2 0xA29 SWAP1 PUSH2 0x3697 JUMP JUMPDEST PUSH2 0x14D6 DUP10 DUP10 DUP10 DUP10 DUP10 DUP10 DUP10 PUSH2 0x252F JUMP JUMPDEST POP POP POP POP POP POP POP POP POP JUMP JUMPDEST PUSH1 0xB SLOAD PUSH1 0x1 PUSH1 0xA0 SHL SWAP1 DIV PUSH1 0xFF AND ISZERO PUSH2 0x154E JUMPI PUSH1 0x40 MLOAD PUSH3 0x461BCD PUSH1 0xE5 SHL DUP2 MSTORE PUSH1 0x20 PUSH1 0x4 DUP3 ADD MSTORE PUSH1 0x2A PUSH1 0x24 DUP3 ADD MSTORE PUSH32 0x4A445343546F6B656E3A20636F6E747261637420697320616C72656164792069 PUSH1 0x44 DUP3 ADD MSTORE PUSH10 0x1B9A5D1A585B1A5E9959 PUSH1 0xB2 SHL PUSH1 0x64 DUP3 ADD MSTORE PUSH1 0x84 ADD PUSH2 0xA29 JUMP JUMPDEST PUSH1 0x1 PUSH1 0x1 PUSH1 0xA0 SHL SUB DUP5 AND PUSH2 0x1574 JUMPI PUSH1 0x40 MLOAD PUSH3 0x461BCD PUSH1 0xE5 SHL DUP2 MSTORE PUSH1 0x4 ADD PUSH2 0xA29 SWAP1 PUSH2 0x3916 JUMP JUMPDEST PUSH1 0x1 PUSH1 0x1 PUSH1 0xA0 SHL SUB DUP4 AND PUSH2 0x15DC JUMPI PUSH1 0x40 MLOAD PUSH3 0x461BCD PUSH1 0xE5 SHL DUP2 MSTORE PUSH1 0x20 PUSH1 0x4 DUP3 ADD MSTORE PUSH1 0x29 PUSH1 0x24 DUP3 ADD MSTORE PUSH32 0x4A445343546F6B656E3A206E65772070617573657220697320746865207A6572 PUSH1 0x44 DUP3 ADD MSTORE PUSH9 0x6F2061646472657373 PUSH1 0xB8 SHL PUSH1 0x64 DUP3 ADD MSTORE PUSH1 0x84 ADD PUSH2 0xA29 JUMP JUMPDEST PUSH1 0x1 PUSH1 0x1 PUSH1 0xA0 SHL SUB DUP3 AND PUSH2 0x1649 JUMPI PUSH1 0x40 MLOAD PUSH3 0x461BCD PUSH1 0xE5 SHL DUP2 MSTORE PUSH1 0x20 PUSH1 0x4 DUP3 ADD MSTORE PUSH1 0x2E PUSH1 0x24 DUP3 ADD MSTORE PUSH32 0x4A445343546F6B656E3A206E657720626C61636B6C6973746572206973207468 PUSH1 0x44 DUP3 ADD MSTORE PUSH14 0x65207A65726F2061646472657373 PUSH1 0x90 SHL PUSH1 0x64 DUP3 ADD MSTORE PUSH1 0x84 ADD PUSH2 0xA29 JUMP JUMPDEST PUSH1 0x1 PUSH1 0x1 PUSH1 0xA0 SHL SUB DUP2 AND PUSH2 0x16B0 JUMPI PUSH1 0x40 MLOAD PUSH3 0x461BCD PUSH1 0xE5 SHL DUP2 MSTORE PUSH1 0x20 PUSH1 0x4 DUP3 ADD MSTORE PUSH1 0x28 PUSH1 0x24 DUP3 ADD MSTORE PUSH32 0x4A445343546F6B656E3A206E6577206F776E657220697320746865207A65726F PUSH1 0x44 DUP3 ADD MSTORE PUSH8 0x2061646472657373 PUSH1 0xC0 SHL PUSH1 0x64 DUP3 ADD MSTORE PUSH1 0x84 ADD PUSH2 0xA29 JUMP JUMPDEST PUSH1 0x7 PUSH2 0x16BC DUP11 DUP3 PUSH2 0x3965 JUMP JUMPDEST POP PUSH1 0x8 PUSH2 0x16C9 DUP10 DUP3 PUSH2 0x3965 JUMP JUMPDEST POP PUSH1 0xA PUSH2 0x16D6 DUP9 DUP3 PUSH2 0x3965 JUMP JUMPDEST POP PUSH1 0x9 DUP1 SLOAD PUSH1 0xFF NOT AND PUSH1 0xFF DUP9 AND OR SWAP1 SSTORE PUSH1 0xB DUP1 SLOAD PUSH1 0x1 PUSH1 0x1 PUSH1 0xA0 SHL SUB NOT SWAP1 DUP2 AND PUSH1 0x1 PUSH1 0x1 PUSH1 0xA0 SHL SUB DUP8 DUP2 AND SWAP2 SWAP1 SWAP2 OR SWAP1 SWAP3 SSTORE PUSH1 0x4 DUP1 SLOAD DUP3 AND DUP7 DUP5 AND OR SWAP1 SSTORE PUSH1 0x5 DUP1 SLOAD SWAP1 SWAP2 AND SWAP2 DUP5 AND SWAP2 SWAP1 SWAP2 OR SWAP1 SSTORE PUSH2 0x172D DUP2 PUSH2 0xA6F JUMP JUMPDEST PUSH1 0xB DUP1 SLOAD PUSH1 0xFF PUSH1 0xA0 SHL NOT AND PUSH1 0x1 PUSH1 0xA0 SHL OR SWAP1 SSTORE PUSH2 0x1749 DUP10 PUSH2 0x2611 JUMP JUMPDEST PUSH2 0x1753 DUP2 DUP7 PUSH2 0x266A JUMP JUMPDEST POP POP POP POP POP POP POP POP POP POP JUMP JUMPDEST PUSH1 0x8 DUP1 SLOAD PUSH2 0x97A SWAP1 PUSH2 0x365F JUMP JUMPDEST PUSH2 0x1774 PUSH2 0x1E40 JUMP JUMPDEST DUP8 PUSH2 0x177E DUP2 PUSH2 0x2237 JUMP JUMPDEST PUSH2 0x179A JUMPI PUSH1 0x40 MLOAD PUSH3 0x461BCD PUSH1 0xE5 SHL DUP2 MSTORE PUSH1 0x4 ADD PUSH2 0xA29 SWAP1 PUSH2 0x3883 JUMP JUMPDEST DUP8 PUSH2 0x17A4 DUP2 PUSH2 0x2237 JUMP JUMPDEST PUSH2 0x17C0 JUMPI PUSH1 0x40 MLOAD PUSH3 0x461BCD PUSH1 0xE5 SHL DUP2 MSTORE PUSH1 0x4 ADD PUSH2 0xA29 SWAP1 PUSH2 0x3883 JUMP JUMPDEST PUSH0 PUSH2 0x17CA DUP9 PUSH2 0x1384 JUMP JUMPDEST SWAP1 POP PUSH0 PUSH2 0x17D7 DUP10 DUP4 PUSH2 0x21F7 JUMP JUMPDEST SWAP1 POP PUSH2 0x17E8 DUP12 DUP12 DUP4 DUP12 DUP12 DUP12 DUP12 PUSH2 0x1B81 JUMP JUMPDEST DUP2 ISZERO PUSH2 0x17FD JUMPI PUSH2 0x17FD DUP12 DUP14 DUP5 DUP12 DUP12 DUP12 DUP12 PUSH2 0x1B81 JUMP JUMPDEST POP POP POP POP POP POP POP POP POP POP POP POP JUMP JUMPDEST PUSH1 0x6 SLOAD PUSH1 0x1 PUSH1 0x1 PUSH1 0xA0 SHL SUB AND CALLER EQ PUSH2 0x1835 JUMPI PUSH1 0x40 MLOAD PUSH3 0x461BCD PUSH1 0xE5 SHL DUP2 MSTORE PUSH1 0x4 ADD PUSH2 0xA29 SWAP1 PUSH2 0x3A21 JUMP JUMPDEST PUSH2 0x183E DUP2 PUSH2 0x2716 JUMP JUMPDEST PUSH1 0x40 MLOAD PUSH1 0x1 PUSH1 0x1 PUSH1 0xA0 SHL SUB DUP3 AND SWAP1 PUSH32 0xAAB7954E9D246B167EF88AEDDAD35209CA2489D95A8AEB59E288D9B19FAE5A54 SWAP1 PUSH0 SWAP1 LOG2 POP JUMP JUMPDEST PUSH2 0x187C PUSH2 0x1E40 JUMP JUMPDEST DUP5 PUSH2 0x1886 DUP2 PUSH2 0x1E86 JUMP JUMPDEST ISZERO PUSH2 0x18A3 JUMPI PUSH1 0x40 MLOAD PUSH3 0x461BCD PUSH1 0xE5 SHL DUP2 MSTORE PUSH1 0x4 ADD PUSH2 0xA29 SWAP1 PUSH2 0x3697 JUMP JUMPDEST DUP5 PUSH2 0x18AD DUP2 PUSH2 0x1E86 JUMP JUMPDEST ISZERO PUSH2 0x18CA JUMPI PUSH1 0x40 MLOAD PUSH3 0x461BCD PUSH1 0xE5 SHL DUP2 MSTORE PUSH1 0x4 ADD PUSH2 0xA29 SWAP1 PUSH2 0x3697 JUMP JUMPDEST PUSH2 0x18D7 DUP8 DUP8 DUP8 DUP8 DUP8 PUSH2 0x2721 JUMP JUMPDEST POP POP POP POP POP POP POP JUMP JUMPDEST PUSH0 PUSH2 0x18E9 PUSH2 0x1E40 JUMP JUMPDEST CALLER PUSH2 0x18F3 DUP2 PUSH2 0x1E86 JUMP JUMPDEST ISZERO PUSH2 0x1910 JUMPI PUSH1 0x40 MLOAD PUSH3 0x461BCD PUSH1 0xE5 SHL DUP2 MSTORE PUSH1 0x4 ADD PUSH2 0xA29 SWAP1 PUSH2 0x3697 JUMP JUMPDEST DUP4 PUSH2 0x191A DUP2 PUSH2 0x1E86 JUMP JUMPDEST ISZERO PUSH2 0x1937 JUMPI PUSH1 0x40 MLOAD PUSH3 0x461BCD PUSH1 0xE5 SHL DUP2 MSTORE PUSH1 0x4 ADD PUSH2 0xA29 SWAP1 PUSH2 0x3697 JUMP JUMPDEST PUSH2 0xA64 CALLER DUP7 DUP7 PUSH2 0x2922 JUMP JUMPDEST PUSH0 PUSH2 0x194B PUSH2 0x1E40 JUMP JUMPDEST CALLER PUSH2 0x1955 DUP2 PUSH2 0x1E86 JUMP JUMPDEST ISZERO PUSH2 0x1972 JUMPI PUSH1 0x40 MLOAD PUSH3 0x461BCD PUSH1 0xE5 SHL DUP2 MSTORE PUSH1 0x4 ADD PUSH2 0xA29 SWAP1 PUSH2 0x3697 JUMP JUMPDEST DUP4 PUSH2 0x197C DUP2 PUSH2 0x1E86 JUMP JUMPDEST ISZERO PUSH2 0x1999 JUMPI PUSH1 0x40 MLOAD PUSH3 0x461BCD PUSH1 0xE5 SHL DUP2 MSTORE PUSH1 0x4 ADD PUSH2 0xA29 SWAP1 PUSH2 0x3697 JUMP JUMPDEST PUSH2 0xA64 CALLER DUP7 DUP7 PUSH2 0x2057 JUMP JUMPDEST PUSH2 0x19AC PUSH2 0x1FC1 JUMP JUMPDEST PUSH1 0x1 PUSH1 0x1 PUSH1 0xA0 SHL SUB DUP2 AND PUSH2 0x19D2 JUMPI PUSH1 0x40 MLOAD PUSH3 0x461BCD PUSH1 0xE5 SHL DUP2 MSTORE PUSH1 0x4 ADD PUSH2 0xA29 SWAP1 PUSH2 0x3916 JUMP JUMPDEST PUSH1 0xB DUP1 SLOAD PUSH1 0x1 PUSH1 0x1 PUSH1 0xA0 SHL SUB NOT AND PUSH1 0x1 PUSH1 0x1 PUSH1 0xA0 SHL SUB DUP4 AND SWAP1 DUP2 OR SWAP1 SWAP2 SSTORE PUSH1 0x40 MLOAD PUSH32 0xDB66DFA9C6B8F5226FE9AAC7E51897AE8EE94AC31DC70BB6C9900B2574B707E6 SWAP1 PUSH0 SWAP1 LOG2 POP JUMP JUMPDEST PUSH2 0x1A23 PUSH2 0x1FC1 JUMP JUMPDEST PUSH1 0x1 PUSH1 0x1 PUSH1 0xA0 SHL SUB DUP2 AND PUSH2 0x1A94 JUMPI PUSH1 0x40 MLOAD PUSH3 0x461BCD PUSH1 0xE5 SHL DUP2 MSTORE PUSH1 0x20 PUSH1 0x4 DUP3 ADD MSTORE PUSH1 0x32 PUSH1 0x24 DUP3 ADD MSTORE PUSH32 0x426C61636B6C69737461626C653A206E657720626C61636B6C69737465722069 PUSH1 0x44 DUP3 ADD MSTORE PUSH18 0x7320746865207A65726F2061646472657373 PUSH1 0x70 SHL PUSH1 0x64 DUP3 ADD MSTORE PUSH1 0x84 ADD PUSH2 0xA29 JUMP JUMPDEST PUSH1 0x5 DUP1 SLOAD PUSH1 0x1 PUSH1 0x1 PUSH1 0xA0 SHL SUB NOT AND PUSH1 0x1 PUSH1 0x1 PUSH1 0xA0 SHL SUB DUP4 AND SWAP1 DUP2 OR SWAP1 SWAP2 SSTORE PUSH1 0x40 MLOAD PUSH32 0xC67398012C111CE95ECB7429B933096C977380EE6C421175A71A4A4C6C88C06E SWAP1 PUSH0 SWAP1 LOG2 POP JUMP JUMPDEST PUSH2 0x1AE5 PUSH2 0x1E40 JUMP JUMPDEST PUSH2 0x1AF0 DUP4 DUP4 DUP4 PUSH2 0x2970 JUMP JUMPDEST POP POP POP JUMP JUMPDEST PUSH2 0x1AFD PUSH2 0x1FC1 JUMP JUMPDEST PUSH1 0x14 DUP3 LT PUSH2 0x1B09 JUMPI PUSH0 DUP1 REVERT JUMPDEST PUSH2 0x1388 DUP2 LT PUSH2 0x1B16 JUMPI PUSH0 DUP1 REVERT JUMPDEST PUSH1 0x13 DUP3 SWAP1 SSTORE PUSH1 0x9 SLOAD PUSH2 0x1B37 SWAP1 PUSH2 0x1B30 SWAP1 PUSH1 0xFF AND PUSH1 0xA PUSH2 0x3B61 JUMP JUMPDEST DUP3 SWAP1 PUSH2 0x24DC JUMP JUMPDEST PUSH1 0x14 DUP2 SWAP1 SSTORE PUSH1 0x13 SLOAD PUSH1 0x40 MLOAD PUSH32 0xB044A1E409EAC5C48E5AF22D4AF52670DD1A99059537A78B31B48C6500A6354E SWAP3 PUSH2 0x1B75 SWAP3 DUP3 MSTORE PUSH1 0x20 DUP3 ADD MSTORE PUSH1 0x40 ADD SWAP1 JUMP JUMPDEST PUSH1 0x40 MLOAD DUP1 SWAP2 SUB SWAP1 LOG1 POP POP JUMP JUMPDEST PUSH2 0x1B89 PUSH2 0x1E40 JUMP JUMPDEST DUP7 PUSH2 0x1B93 DUP2 PUSH2 0x1E86 JUMP JUMPDEST ISZERO PUSH2 0x1BB0 JUMPI PUSH1 0x40 MLOAD PUSH3 0x461BCD PUSH1 0xE5 SHL DUP2 MSTORE PUSH1 0x4 ADD PUSH2 0xA29 SWAP1 PUSH2 0x3697 JUMP JUMPDEST DUP7 PUSH2 0x1BBA DUP2 PUSH2 0x1E86 JUMP JUMPDEST ISZERO PUSH2 0x1BD7 JUMPI PUSH1 0x40 MLOAD PUSH3 0x461BCD PUSH1 0xE5 SHL DUP2 MSTORE PUSH1 0x4 ADD PUSH2 0xA29 SWAP1 PUSH2 0x3697 JUMP JUMPDEST PUSH2 0x14D6 DUP10 DUP10 DUP10 DUP10 DUP10 DUP10 DUP10 PUSH2 0x2A25 JUMP JUMPDEST PUSH2 0x1BEE PUSH2 0x1E40 JUMP JUMPDEST DUP7 PUSH2 0x1BF8 DUP2 PUSH2 0x1E86 JUMP JUMPDEST ISZERO PUSH2 0x1C15 JUMPI PUSH1 0x40 MLOAD PUSH3 0x461BCD PUSH1 0xE5 SHL DUP2 MSTORE PUSH1 0x4 ADD PUSH2 0xA29 SWAP1 PUSH2 0x3697 JUMP JUMPDEST DUP7 PUSH2 0x1C1F DUP2 PUSH2 0x1E86 JUMP JUMPDEST ISZERO PUSH2 0x1C3C JUMPI PUSH1 0x40 MLOAD PUSH3 0x461BCD PUSH1 0xE5 SHL DUP2 MSTORE PUSH1 0x4 ADD PUSH2 0xA29 SWAP1 PUSH2 0x3697 JUMP JUMPDEST PUSH2 0x14D6 DUP10 DUP10 DUP10 DUP10 DUP10 DUP10 DUP10 PUSH2 0x2A74 JUMP JUMPDEST PUSH2 0x1C53 PUSH2 0x1E40 JUMP JUMPDEST DUP9 PUSH2 0x1C5D DUP2 PUSH2 0x1E86 JUMP JUMPDEST ISZERO PUSH2 0x1C7A JUMPI PUSH1 0x40 MLOAD PUSH3 0x461BCD PUSH1 0xE5 SHL DUP2 MSTORE PUSH1 0x4 ADD PUSH2 0xA29 SWAP1 PUSH2 0x3697 JUMP JUMPDEST DUP9 PUSH2 0x1C84 DUP2 PUSH2 0x1E86 JUMP JUMPDEST ISZERO PUSH2 0x1CA1 JUMPI PUSH1 0x40 MLOAD PUSH3 0x461BCD PUSH1 0xE5 SHL DUP2 MSTORE PUSH1 0x4 ADD PUSH2 0xA29 SWAP1 PUSH2 0x3697 JUMP JUMPDEST PUSH2 0x1CB2 DUP12 DUP12 DUP12 DUP12 DUP12 DUP12 DUP12 DUP12 DUP12 PUSH2 0x2257 JUMP JUMPDEST POP POP POP POP POP POP POP POP POP POP POP JUMP JUMPDEST PUSH1 0xA DUP1 SLOAD PUSH2 0x97A SWAP1 PUSH2 0x365F JUMP JUMPDEST PUSH2 0x1CD4 PUSH2 0x1E40 JUMP JUMPDEST DUP9 PUSH2 0x1CDE DUP2 PUSH2 0x1E86 JUMP JUMPDEST ISZERO PUSH2 0x1CFB JUMPI PUSH1 0x40 MLOAD PUSH3 0x461BCD PUSH1 0xE5 SHL DUP2 MSTORE PUSH1 0x4 ADD PUSH2 0xA29 SWAP1 PUSH2 0x3697 JUMP JUMPDEST DUP9 PUSH2 0x1D05 DUP2 PUSH2 0x1E86 JUMP JUMPDEST ISZERO PUSH2 0x1D22 JUMPI PUSH1 0x40 MLOAD PUSH3 0x461BCD PUSH1 0xE5 SHL DUP2 MSTORE PUSH1 0x4 ADD PUSH2 0xA29 SWAP1 PUSH2 0x3697 JUMP JUMPDEST PUSH2 0x1CB2 DUP12 DUP12 DUP12 DUP12 DUP12 DUP12 DUP12 DUP12 DUP12 PUSH2 0x2AA4 JUMP JUMPDEST PUSH1 0x6 SLOAD PUSH1 0x1 PUSH1 0x1 PUSH1 0xA0 SHL SUB AND CALLER EQ PUSH2 0x1D5D JUMPI PUSH1 0x40 MLOAD PUSH3 0x461BCD PUSH1 0xE5 SHL DUP2 MSTORE PUSH1 0x4 ADD PUSH2 0xA29 SWAP1 PUSH2 0x3A21 JUMP JUMPDEST PUSH2 0x1D66 DUP2 PUSH2 0x2AD6 JUMP JUMPDEST PUSH1 0x40 MLOAD PUSH1 0x1 PUSH1 0x1 PUSH1 0xA0 SHL SUB DUP3 AND SWAP1 PUSH32 0x7CDB51B0CC2E541AD7E9471C358DE415F5DBAFF6CCA78E3393D445346C610C1B SWAP1 PUSH0 SWAP1 LOG2 POP JUMP JUMPDEST PUSH2 0x1DA4 PUSH2 0x1FC1 JUMP JUMPDEST PUSH1 0x1 PUSH1 0x1 PUSH1 0xA0 SHL SUB DUP2 AND PUSH2 0xAE0 JUMPI PUSH1 0x40 MLOAD PUSH4 0x1E4FBDF7 PUSH1 0xE0 SHL DUP2 MSTORE PUSH0 PUSH1 0x4 DUP3 ADD MSTORE PUSH1 0x24 ADD PUSH2 0xA29 JUMP JUMPDEST PUSH1 0x5 SLOAD PUSH1 0x1 PUSH1 0x1 PUSH1 0xA0 SHL SUB AND CALLER EQ PUSH2 0x1DF7 JUMPI PUSH1 0x40 MLOAD PUSH3 0x461BCD PUSH1 0xE5 SHL DUP2 MSTORE PUSH1 0x4 ADD PUSH2 0xA29 SWAP1 PUSH2 0x36DC JUMP JUMPDEST PUSH2 0x1E00 DUP2 PUSH2 0x222C JUMP JUMPDEST PUSH1 0x40 MLOAD PUSH1 0x1 PUSH1 0x1 PUSH1 0xA0 SHL SUB DUP3 AND SWAP1 PUSH32 0xFFA4E6181777692565CF28528FC88FD1516EA86B56DA075235FA575AF6A4B855 SWAP1 PUSH0 SWAP1 LOG2 POP JUMP JUMPDEST PUSH0 PUSH2 0xF01 DUP3 PUSH2 0x1E86 JUMP JUMPDEST PUSH1 0x3 SLOAD PUSH1 0xFF AND ISZERO PUSH2 0xF39 JUMPI PUSH1 0x40 MLOAD PUSH3 0x461BCD PUSH1 0xE5 SHL DUP2 MSTORE PUSH1 0x20 PUSH1 0x4 DUP3 ADD MSTORE PUSH1 0x10 PUSH1 0x24 DUP3 ADD MSTORE PUSH16 0x14185D5CD8589B194E881C185D5CD959 PUSH1 0x82 SHL PUSH1 0x44 DUP3 ADD MSTORE PUSH1 0x64 ADD PUSH2 0xA29 JUMP JUMPDEST PUSH1 0x1 PUSH1 0x1 PUSH1 0xA0 SHL SUB AND PUSH0 SWAP1 DUP2 MSTORE PUSH1 0xC PUSH1 0x20 MSTORE PUSH1 0x40 SWAP1 KECCAK256 SLOAD PUSH1 0xFF SHR PUSH1 0x1 EQ SWAP1 JUMP JUMPDEST PUSH1 0x1 PUSH1 0x1 PUSH1 0xA0 SHL SUB DUP4 AND PUSH2 0x1F08 JUMPI PUSH1 0x40 MLOAD PUSH3 0x461BCD PUSH1 0xE5 SHL DUP2 MSTORE PUSH1 0x20 PUSH1 0x4 DUP3 ADD MSTORE PUSH1 0x24 DUP1 DUP3 ADD MSTORE PUSH32 0x45524332303A20617070726F76652066726F6D20746865207A65726F20616464 PUSH1 0x44 DUP3 ADD MSTORE PUSH4 0x72657373 PUSH1 0xE0 SHL PUSH1 0x64 DUP3 ADD MSTORE PUSH1 0x84 ADD PUSH2 0xA29 JUMP JUMPDEST PUSH1 0x1 PUSH1 0x1 PUSH1 0xA0 SHL SUB DUP3 AND PUSH2 0x1F69 JUMPI PUSH1 0x40 MLOAD PUSH3 0x461BCD PUSH1 0xE5 SHL DUP2 MSTORE PUSH1 0x20 PUSH1 0x4 DUP3 ADD MSTORE PUSH1 0x22 PUSH1 0x24 DUP3 ADD MSTORE PUSH32 0x45524332303A20617070726F766520746F20746865207A65726F206164647265 PUSH1 0x44 DUP3 ADD MSTORE PUSH2 0x7373 PUSH1 0xF0 SHL PUSH1 0x64 DUP3 ADD MSTORE PUSH1 0x84 ADD PUSH2 0xA29 JUMP JUMPDEST PUSH1 0x1 PUSH1 0x1 PUSH1 0xA0 SHL SUB DUP4 DUP2 AND PUSH0 DUP2 DUP2 MSTORE PUSH1 0xE PUSH1 0x20 SWAP1 DUP2 MSTORE PUSH1 0x40 DUP1 DUP4 KECCAK256 SWAP5 DUP8 AND DUP1 DUP5 MSTORE SWAP5 DUP3 MSTORE SWAP2 DUP3 SWAP1 KECCAK256 DUP6 SWAP1 SSTORE SWAP1 MLOAD DUP5 DUP2 MSTORE PUSH32 0x8C5BE1E5EBEC7D5BD14F71427D1E84F3DD0314C0F7B2291E5B200AC8C7C3B925 SWAP2 ADD PUSH2 0x1126 JUMP JUMPDEST PUSH1 0x3 SLOAD PUSH1 0x1 PUSH1 0x1 PUSH1 0xA0 SHL SUB PUSH2 0x100 SWAP1 SWAP2 DIV AND CALLER EQ PUSH2 0xF39 JUMPI PUSH1 0x40 MLOAD PUSH4 0x118CDAA7 PUSH1 0xE0 SHL DUP2 MSTORE CALLER PUSH1 0x4 DUP3 ADD MSTORE PUSH1 0x24 ADD PUSH2 0xA29 JUMP JUMPDEST PUSH1 0x3 DUP1 SLOAD PUSH1 0x1 PUSH1 0x1 PUSH1 0xA0 SHL SUB DUP4 DUP2 AND PUSH2 0x100 DUP2 DUP2 MUL PUSH2 0x100 PUSH1 0x1 PUSH1 0xA8 SHL SUB NOT DUP6 AND OR SWAP1 SWAP5 SSTORE PUSH1 0x40 MLOAD SWAP4 SWAP1 SWAP3 DIV AND SWAP2 DUP3 SWAP1 PUSH32 0x8BE0079C531659141344CD1FD0A4F28419497F9722A3DAAFE3B4186F6B6457E0 SWAP1 PUSH0 SWAP1 LOG3 POP POP JUMP JUMPDEST PUSH2 0xAE9 DUP2 PUSH0 PUSH2 0x2AE0 JUMP JUMPDEST PUSH1 0x1 PUSH1 0x1 PUSH1 0xA0 SHL SUB DUP4 AND PUSH2 0x20BB JUMPI PUSH1 0x40 MLOAD PUSH3 0x461BCD PUSH1 0xE5 SHL DUP2 MSTORE PUSH1 0x20 PUSH1 0x4 DUP3 ADD MSTORE PUSH1 0x25 PUSH1 0x24 DUP3 ADD MSTORE PUSH32 0x45524332303A207472616E736665722066726F6D20746865207A65726F206164 PUSH1 0x44 DUP3 ADD MSTORE PUSH5 0x6472657373 PUSH1 0xD8 SHL PUSH1 0x64 DUP3 ADD MSTORE PUSH1 0x84 ADD PUSH2 0xA29 JUMP JUMPDEST PUSH1 0x1 PUSH1 0x1 PUSH1 0xA0 SHL SUB DUP3 AND PUSH2 0x211D JUMPI PUSH1 0x40 MLOAD PUSH3 0x461BCD PUSH1 0xE5 SHL DUP2 MSTORE PUSH1 0x20 PUSH1 0x4 DUP3 ADD MSTORE PUSH1 0x23 PUSH1 0x24 DUP3 ADD MSTORE PUSH32 0x45524332303A207472616E7366657220746F20746865207A65726F2061646472 PUSH1 0x44 DUP3 ADD MSTORE PUSH3 0x657373 PUSH1 0xE8 SHL PUSH1 0x64 DUP3 ADD MSTORE PUSH1 0x84 ADD PUSH2 0xA29 JUMP JUMPDEST PUSH2 0x2126 DUP4 PUSH2 0x2209 JUMP JUMPDEST DUP2 GT ISZERO PUSH2 0x2184 JUMPI PUSH1 0x40 MLOAD PUSH3 0x461BCD PUSH1 0xE5 SHL DUP2 MSTORE PUSH1 0x20 PUSH1 0x4 DUP3 ADD MSTORE PUSH1 0x26 PUSH1 0x24 DUP3 ADD MSTORE PUSH32 0x45524332303A207472616E7366657220616D6F756E7420657863656564732062 PUSH1 0x44 DUP3 ADD MSTORE PUSH6 0x616C616E6365 PUSH1 0xD0 SHL PUSH1 0x64 DUP3 ADD MSTORE PUSH1 0x84 ADD PUSH2 0xA29 JUMP JUMPDEST PUSH2 0x219B DUP4 PUSH2 0x10BC DUP4 PUSH2 0x2195 DUP8 PUSH2 0x2209 JUMP JUMPDEST SWAP1 PUSH2 0x21F7 JUMP JUMPDEST PUSH2 0x21B2 DUP3 PUSH2 0x10BC DUP4 PUSH2 0x21AC DUP7 PUSH2 0x2209 JUMP JUMPDEST SWAP1 PUSH2 0x2B31 JUMP JUMPDEST DUP2 PUSH1 0x1 PUSH1 0x1 PUSH1 0xA0 SHL SUB AND DUP4 PUSH1 0x1 PUSH1 0x1 PUSH1 0xA0 SHL SUB AND PUSH32 0xDDF252AD1BE2C89B69C2B068FC378DAA952BA7F163C4A11628F55A4DF523B3EF DUP4 PUSH1 0x40 MLOAD PUSH2 0x1126 SWAP2 DUP2 MSTORE PUSH1 0x20 ADD SWAP1 JUMP JUMPDEST PUSH0 PUSH2 0x2202 DUP3 DUP5 PUSH2 0x3B6F JUMP JUMPDEST SWAP4 SWAP3 POP POP POP JUMP JUMPDEST PUSH1 0x1 PUSH1 0x1 PUSH1 0xA0 SHL SUB AND PUSH0 SWAP1 DUP2 MSTORE PUSH1 0xC PUSH1 0x20 MSTORE PUSH1 0x40 SWAP1 KECCAK256 SLOAD PUSH1 0x1 PUSH1 0x1 PUSH1 0xFF SHL SUB AND SWAP1 JUMP JUMPDEST PUSH2 0xAE9 DUP2 PUSH1 0x1 PUSH2 0x2AE0 JUMP JUMPDEST PUSH1 0x1 PUSH1 0x1 PUSH1 0xA0 SHL SUB AND PUSH0 SWAP1 DUP2 MSTORE PUSH1 0xD PUSH1 0x20 MSTORE PUSH1 0x40 SWAP1 KECCAK256 SLOAD PUSH1 0xFF SHR PUSH1 0x1 EQ SWAP1 JUMP JUMPDEST PUSH2 0x14D6 DUP10 DUP10 DUP10 DUP10 DUP10 DUP10 DUP9 DUP9 DUP12 PUSH1 0x40 MLOAD PUSH1 0x20 ADD PUSH2 0x2275 SWAP4 SWAP3 SWAP2 SWAP1 PUSH2 0x3B82 JUMP JUMPDEST PUSH1 0x40 MLOAD PUSH1 0x20 DUP2 DUP4 SUB SUB DUP2 MSTORE SWAP1 PUSH1 0x40 MSTORE PUSH2 0x2A25 JUMP JUMPDEST PUSH0 PUSH2 0xE90 PUSH1 0x7 DUP1 SLOAD PUSH2 0x229A SWAP1 PUSH2 0x365F JUMP JUMPDEST DUP1 PUSH1 0x1F ADD PUSH1 0x20 DUP1 SWAP2 DIV MUL PUSH1 0x20 ADD PUSH1 0x40 MLOAD SWAP1 DUP2 ADD PUSH1 0x40 MSTORE DUP1 SWAP3 SWAP2 SWAP1 DUP2 DUP2 MSTORE PUSH1 0x20 ADD DUP3 DUP1 SLOAD PUSH2 0x22C6 SWAP1 PUSH2 0x365F JUMP JUMPDEST DUP1 ISZERO PUSH2 0x2311 JUMPI DUP1 PUSH1 0x1F LT PUSH2 0x22E8 JUMPI PUSH2 0x100 DUP1 DUP4 SLOAD DIV MUL DUP4 MSTORE SWAP2 PUSH1 0x20 ADD SWAP2 PUSH2 0x2311 JUMP JUMPDEST DUP3 ADD SWAP2 SWAP1 PUSH0 MSTORE PUSH1 0x20 PUSH0 KECCAK256 SWAP1 JUMPDEST DUP2 SLOAD DUP2 MSTORE SWAP1 PUSH1 0x1 ADD SWAP1 PUSH1 0x20 ADD DUP1 DUP4 GT PUSH2 0x22F4 JUMPI DUP3 SWAP1 SUB PUSH1 0x1F AND DUP3 ADD SWAP2 JUMPDEST POP POP POP POP POP PUSH1 0x40 MLOAD DUP1 PUSH1 0x40 ADD PUSH1 0x40 MSTORE DUP1 PUSH1 0x1 DUP2 MSTORE PUSH1 0x20 ADD PUSH1 0x19 PUSH1 0xF9 SHL DUP2 MSTORE POP PUSH2 0x2337 CHAINID SWAP1 JUMP JUMPDEST PUSH2 0x2B3C JUMP JUMPDEST PUSH1 0x1 PUSH1 0x1 PUSH1 0xA0 SHL SUB DUP1 DUP5 AND PUSH0 SWAP1 DUP2 MSTORE PUSH1 0xE PUSH1 0x20 SWAP1 DUP2 MSTORE PUSH1 0x40 DUP1 DUP4 KECCAK256 SWAP4 DUP7 AND DUP4 MSTORE SWAP3 SWAP1 MSTORE KECCAK256 SLOAD PUSH2 0x1AF0 SWAP1 DUP5 SWAP1 DUP5 SWAP1 PUSH2 0x2373 SWAP1 DUP6 PUSH2 0x2B31 JUMP JUMPDEST PUSH2 0x1EA6 JUMP JUMPDEST PUSH2 0x2380 PUSH2 0x2BB0 JUMP JUMPDEST PUSH1 0x3 DUP1 SLOAD PUSH1 0xFF NOT AND SWAP1 SSTORE PUSH32 0x5DB9EE0A495BF2E6FF9C91A7834C1BA4FDD244A5E8AA4E537BD38AEAE4B073AA CALLER JUMPDEST PUSH1 0x40 MLOAD PUSH1 0x1 PUSH1 0x1 PUSH1 0xA0 SHL SUB SWAP1 SWAP2 AND DUP2 MSTORE PUSH1 0x20 ADD PUSH1 0x40 MLOAD DUP1 SWAP2 SUB SWAP1 LOG1 JUMP JUMPDEST PUSH1 0x1 PUSH1 0x1 PUSH1 0xFF SHL SUB DUP2 GT ISZERO PUSH2 0x2432 JUMPI PUSH1 0x40 MLOAD PUSH3 0x461BCD PUSH1 0xE5 SHL DUP2 MSTORE PUSH1 0x20 PUSH1 0x4 DUP3 ADD MSTORE PUSH1 0x28 PUSH1 0x24 DUP3 ADD MSTORE PUSH32 0x4A445343546F6B656E56313A2042616C616E636520657863656564732028325E PUSH1 0x44 DUP3 ADD MSTORE PUSH8 0x323535202D203129 PUSH1 0xC0 SHL PUSH1 0x64 DUP3 ADD MSTORE PUSH1 0x84 ADD PUSH2 0xA29 JUMP JUMPDEST PUSH2 0x243B DUP3 PUSH2 0x1E86 JUMP JUMPDEST ISZERO PUSH2 0x2493 JUMPI PUSH1 0x40 MLOAD PUSH3 0x461BCD PUSH1 0xE5 SHL DUP2 MSTORE PUSH1 0x20 PUSH1 0x4 DUP3 ADD MSTORE PUSH1 0x22 PUSH1 0x24 DUP3 ADD MSTORE PUSH32 0x4A445343546F6B656E313A204163636F756E7420697320626C61636B6C697374 PUSH1 0x44 DUP3 ADD MSTORE PUSH2 0x1959 PUSH1 0xF2 SHL PUSH1 0x64 DUP3 ADD MSTORE PUSH1 0x84 ADD PUSH2 0xA29 JUMP JUMPDEST PUSH1 0x1 PUSH1 0x1 PUSH1 0xA0 SHL SUB SWAP1 SWAP2 AND PUSH0 SWAP1 DUP2 MSTORE PUSH1 0xC PUSH1 0x20 MSTORE PUSH1 0x40 SWAP1 KECCAK256 SSTORE JUMP JUMPDEST PUSH2 0x1362 DUP6 DUP6 DUP5 DUP5 DUP8 PUSH1 0x40 MLOAD PUSH1 0x20 ADD PUSH2 0x24C8 SWAP4 SWAP3 SWAP2 SWAP1 PUSH2 0x3B82 JUMP JUMPDEST PUSH1 0x40 MLOAD PUSH1 0x20 DUP2 DUP4 SUB SUB DUP2 MSTORE SWAP1 PUSH1 0x40 MSTORE PUSH2 0x2970 JUMP JUMPDEST PUSH0 PUSH2 0x2202 DUP3 DUP5 PUSH2 0x3BA5 JUMP JUMPDEST PUSH0 PUSH2 0x2202 DUP3 DUP5 PUSH2 0x3BBC JUMP JUMPDEST PUSH2 0x24FA PUSH2 0x1E40 JUMP JUMPDEST PUSH1 0x3 DUP1 SLOAD PUSH1 0xFF NOT AND PUSH1 0x1 OR SWAP1 SSTORE PUSH32 0x62E78CEA01BEE320CD4E420270B5EA74000D11B0C9F74754EBDBFC544B05A258 PUSH2 0x23AD CALLER SWAP1 JUMP JUMPDEST PUSH1 0x1 PUSH1 0x1 PUSH1 0xA0 SHL SUB DUP7 AND CALLER EQ PUSH2 0x2591 JUMPI PUSH1 0x40 MLOAD PUSH3 0x461BCD PUSH1 0xE5 SHL DUP2 MSTORE PUSH1 0x20 PUSH1 0x4 DUP3 ADD MSTORE PUSH1 0x21 PUSH1 0x24 DUP3 ADD MSTORE PUSH32 0x546F6B656E56323A2063616C6C6572206D757374206265207468652070617965 PUSH1 0x44 DUP3 ADD MSTORE PUSH1 0x65 PUSH1 0xF8 SHL PUSH1 0x64 DUP3 ADD MSTORE PUSH1 0x84 ADD PUSH2 0xA29 JUMP JUMPDEST PUSH2 0x259D DUP8 DUP4 DUP7 DUP7 PUSH2 0x2BF9 JUMP JUMPDEST PUSH2 0x25FC DUP8 PUSH32 0xD099CC98EF71107A616C4F0F941F04C322D8E254FE26B3C6668DB87AAE413DE8 PUSH0 SHL DUP10 DUP10 DUP10 DUP10 DUP10 DUP10 PUSH1 0x40 MLOAD PUSH1 0x20 ADD PUSH2 0x25E0 SWAP8 SWAP7 SWAP6 SWAP5 SWAP4 SWAP3 SWAP2 SWAP1 PUSH2 0x3BDB JUMP JUMPDEST PUSH1 0x40 MLOAD PUSH1 0x20 DUP2 DUP4 SUB SUB DUP2 MSTORE SWAP1 PUSH1 0x40 MSTORE DUP1 MLOAD SWAP1 PUSH1 0x20 ADD KECCAK256 DUP4 PUSH2 0x2CC9 JUMP JUMPDEST PUSH2 0x2606 DUP8 DUP4 PUSH2 0x2DB9 JUMP JUMPDEST PUSH2 0x18D7 DUP8 DUP8 DUP8 PUSH2 0x2057 JUMP JUMPDEST PUSH1 0xB SLOAD PUSH1 0x1 PUSH1 0xA0 SHL SWAP1 DIV PUSH1 0xFF AND DUP1 ISZERO PUSH2 0x262D JUMPI POP PUSH1 0x12 SLOAD PUSH1 0xFF AND ISZERO JUMPDEST PUSH2 0x2635 JUMPI PUSH0 DUP1 REVERT JUMPDEST PUSH2 0x2658 DUP2 PUSH1 0x40 MLOAD DUP1 PUSH1 0x40 ADD PUSH1 0x40 MSTORE DUP1 PUSH1 0x1 DUP2 MSTORE PUSH1 0x20 ADD PUSH1 0x31 PUSH1 0xF8 SHL DUP2 MSTORE POP PUSH2 0x2E13 JUMP JUMPDEST PUSH0 SSTORE POP PUSH1 0x12 DUP1 SLOAD PUSH1 0xFF NOT AND PUSH1 0x1 OR SWAP1 SSTORE JUMP JUMPDEST PUSH1 0xF SLOAD PUSH0 SWAP1 PUSH2 0x2679 SWAP1 DUP4 PUSH2 0x2B31 JUMP JUMPDEST PUSH1 0xF SSTORE PUSH2 0x268D DUP4 PUSH2 0x10BC DUP5 PUSH2 0x21AC DUP4 PUSH2 0x2209 JUMP JUMPDEST PUSH1 0x40 MLOAD DUP3 DUP2 MSTORE PUSH1 0x1 PUSH1 0x1 PUSH1 0xA0 SHL SUB DUP5 AND SWAP1 CALLER SWAP1 PUSH32 0xAB8530F87DC9B59234C4623BF917212BB2536D647574C8E7E5DA92C2EDE0C9F8 SWAP1 PUSH1 0x20 ADD PUSH1 0x40 MLOAD DUP1 SWAP2 SUB SWAP1 LOG3 PUSH1 0x40 MLOAD DUP3 DUP2 MSTORE PUSH1 0x1 PUSH1 0x1 PUSH1 0xA0 SHL SUB DUP5 AND SWAP1 PUSH0 SWAP1 PUSH32 0xDDF252AD1BE2C89B69C2B068FC378DAA952BA7F163C4A11628F55A4DF523B3EF SWAP1 PUSH1 0x20 ADD PUSH1 0x40 MLOAD DUP1 SWAP2 SUB SWAP1 LOG3 POP PUSH1 0x1 SWAP3 SWAP2 POP POP JUMP JUMPDEST PUSH2 0xAE9 DUP2 PUSH1 0x1 PUSH2 0x2E28 JUMP JUMPDEST PUSH0 NOT DUP3 EQ DUP1 PUSH2 0x2730 JUMPI POP TIMESTAMP DUP3 LT ISZERO JUMPDEST PUSH2 0x277C JUMPI PUSH1 0x40 MLOAD PUSH3 0x461BCD PUSH1 0xE5 SHL DUP2 MSTORE PUSH1 0x20 PUSH1 0x4 DUP3 ADD MSTORE PUSH1 0x1E PUSH1 0x24 DUP3 ADD MSTORE PUSH32 0x4A445343546F6B656E56323A207065726D697420697320657870697265640000 PUSH1 0x44 DUP3 ADD MSTORE PUSH1 0x64 ADD PUSH2 0xA29 JUMP JUMPDEST PUSH0 PUSH2 0x2846 PUSH2 0x2788 PUSH2 0x2289 JUMP JUMPDEST PUSH1 0x1 PUSH1 0x1 PUSH1 0xA0 SHL SUB DUP9 AND PUSH0 SWAP1 DUP2 MSTORE PUSH1 0x2 PUSH1 0x20 MSTORE PUSH1 0x40 DUP2 KECCAK256 DUP1 SLOAD PUSH32 0x6E71EDAE12B1B97F4D1F60370FEF10105FA2FAAE0126114A169C64845D6126C9 SWAP3 DUP12 SWAP3 DUP12 SWAP3 DUP12 SWAP3 SWAP1 SWAP2 SWAP1 PUSH2 0x27D5 DUP4 PUSH2 0x3C17 JUMP JUMPDEST SWAP1 SWAP2 SSTORE POP PUSH1 0x40 DUP1 MLOAD PUSH1 0x20 DUP2 ADD SWAP7 SWAP1 SWAP7 MSTORE PUSH1 0x1 PUSH1 0x1 PUSH1 0xA0 SHL SUB SWAP5 DUP6 AND SWAP1 DUP7 ADD MSTORE SWAP3 SWAP1 SWAP2 AND PUSH1 0x60 DUP5 ADD MSTORE PUSH1 0x80 DUP4 ADD MSTORE PUSH1 0xA0 DUP3 ADD MSTORE PUSH1 0xC0 DUP2 ADD DUP7 SWAP1 MSTORE PUSH1 0xE0 ADD PUSH1 0x40 MLOAD PUSH1 0x20 DUP2 DUP4 SUB SUB DUP2 MSTORE SWAP1 PUSH1 0x40 MSTORE DUP1 MLOAD SWAP1 PUSH1 0x20 ADD KECCAK256 PUSH1 0x40 MLOAD PUSH2 0x1901 PUSH1 0xF0 SHL DUP2 MSTORE PUSH1 0x2 DUP2 ADD SWAP3 SWAP1 SWAP3 MSTORE PUSH1 0x22 DUP3 ADD MSTORE PUSH1 0x42 SWAP1 KECCAK256 SWAP1 JUMP JUMPDEST PUSH1 0x40 MLOAD PUSH4 0x36675329 PUSH1 0xE1 SHL DUP2 MSTORE SWAP1 SWAP2 POP PUSH20 0x0 SWAP1 PUSH4 0x6CCEA652 SWAP1 PUSH2 0x2884 SWAP1 DUP10 SWAP1 DUP6 SWAP1 DUP8 SWAP1 PUSH1 0x4 ADD PUSH2 0x3C2F JUMP JUMPDEST PUSH1 0x20 PUSH1 0x40 MLOAD DUP1 DUP4 SUB DUP2 DUP7 GAS DELEGATECALL ISZERO DUP1 ISZERO PUSH2 0x289F JUMPI RETURNDATASIZE PUSH0 DUP1 RETURNDATACOPY RETURNDATASIZE PUSH0 REVERT JUMPDEST POP POP POP POP PUSH1 0x40 MLOAD RETURNDATASIZE PUSH1 0x1F NOT PUSH1 0x1F DUP3 ADD AND DUP3 ADD DUP1 PUSH1 0x40 MSTORE POP DUP2 ADD SWAP1 PUSH2 0x28C3 SWAP2 SWAP1 PUSH2 0x3C5E JUMP JUMPDEST PUSH2 0x290F JUMPI PUSH1 0x40 MLOAD PUSH3 0x461BCD PUSH1 0xE5 SHL DUP2 MSTORE PUSH1 0x20 PUSH1 0x4 DUP3 ADD MSTORE PUSH1 0x1A PUSH1 0x24 DUP3 ADD MSTORE PUSH32 0x454950323631323A20696E76616C6964207369676E6174757265000000000000 PUSH1 0x44 DUP3 ADD MSTORE PUSH1 0x64 ADD PUSH2 0xA29 JUMP JUMPDEST PUSH2 0x291A DUP7 DUP7 DUP7 PUSH2 0x1EA6 JUMP JUMPDEST POP POP POP POP POP POP JUMP JUMPDEST PUSH2 0x1AF0 DUP4 DUP4 PUSH2 0x2373 DUP5 PUSH1 0x40 MLOAD DUP1 PUSH1 0x60 ADD PUSH1 0x40 MSTORE DUP1 PUSH1 0x25 DUP2 MSTORE PUSH1 0x20 ADD PUSH2 0x3C91 PUSH1 0x25 SWAP2 CODECOPY PUSH1 0x1 PUSH1 0x1 PUSH1 0xA0 SHL SUB DUP1 DUP11 AND PUSH0 SWAP1 DUP2 MSTORE PUSH1 0xE PUSH1 0x20 SWAP1 DUP2 MSTORE PUSH1 0x40 DUP1 DUP4 KECCAK256 SWAP4 DUP13 AND DUP4 MSTORE SWAP3 SWAP1 MSTORE KECCAK256 SLOAD SWAP2 SWAP1 PUSH2 0x2E79 JUMP JUMPDEST PUSH2 0x297A DUP4 DUP4 PUSH2 0x2EA4 JUMP JUMPDEST PUSH1 0x40 DUP1 MLOAD PUSH32 0x158B0A9EDF7A828AAD02F63CD515C68EF2F50BA807396F6D12842833A1597429 PUSH1 0x20 DUP3 ADD MSTORE PUSH1 0x1 PUSH1 0x1 PUSH1 0xA0 SHL SUB DUP6 AND SWAP2 DUP2 ADD SWAP2 SWAP1 SWAP2 MSTORE PUSH1 0x60 DUP2 ADD DUP4 SWAP1 MSTORE PUSH2 0x29CA SWAP1 DUP5 SWAP1 PUSH1 0x80 ADD PUSH2 0x25E0 JUMP JUMPDEST PUSH1 0x1 PUSH1 0x1 PUSH1 0xA0 SHL SUB DUP4 AND PUSH0 DUP2 DUP2 MSTORE PUSH1 0x1 PUSH1 0x20 DUP2 DUP2 MSTORE PUSH1 0x40 DUP1 DUP5 KECCAK256 DUP8 DUP6 MSTORE SWAP1 SWAP2 MSTORE DUP1 DUP4 KECCAK256 DUP1 SLOAD PUSH1 0xFF NOT AND SWAP1 SWAP3 OR SWAP1 SWAP2 SSTORE MLOAD DUP5 SWAP3 SWAP2 PUSH32 0x1CDD46FF242716CDAA72D159D339A485B3438398348D68F09D7C8C0A59353D81 SWAP2 LOG3 POP POP POP JUMP JUMPDEST PUSH2 0x2A31 DUP8 DUP4 DUP7 DUP7 PUSH2 0x2BF9 JUMP JUMPDEST PUSH2 0x25FC DUP8 PUSH32 0x7C7C6CDB67A18743F49EC6FA9B35F50D52ED05CBED4CC592E13B44501C1A2267 PUSH0 SHL DUP10 DUP10 DUP10 DUP10 DUP10 DUP10 PUSH1 0x40 MLOAD PUSH1 0x20 ADD PUSH2 0x25E0 SWAP8 SWAP7 SWAP6 SWAP5 SWAP4 SWAP3 SWAP2 SWAP1 PUSH2 0x3BDB JUMP JUMPDEST PUSH2 0x18D7 DUP8 DUP8 DUP8 DUP8 DUP7 DUP7 DUP10 PUSH1 0x40 MLOAD PUSH1 0x20 ADD PUSH2 0x2A90 SWAP4 SWAP3 SWAP2 SWAP1 PUSH2 0x3B82 JUMP JUMPDEST PUSH1 0x40 MLOAD PUSH1 0x20 DUP2 DUP4 SUB SUB DUP2 MSTORE SWAP1 PUSH1 0x40 MSTORE PUSH2 0x2721 JUMP JUMPDEST PUSH2 0x14D6 DUP10 DUP10 DUP10 DUP10 DUP10 DUP10 DUP9 DUP9 DUP12 PUSH1 0x40 MLOAD PUSH1 0x20 ADD PUSH2 0x2AC2 SWAP4 SWAP3 SWAP2 SWAP1 PUSH2 0x3B82 JUMP JUMPDEST PUSH1 0x40 MLOAD PUSH1 0x20 DUP2 DUP4 SUB SUB DUP2 MSTORE SWAP1 PUSH1 0x40 MSTORE PUSH2 0x252F JUMP JUMPDEST PUSH2 0xAE9 DUP2 PUSH0 PUSH2 0x2E28 JUMP JUMPDEST DUP1 PUSH2 0x2AF3 JUMPI PUSH2 0x2AEE DUP3 PUSH2 0x2209 JUMP JUMPDEST PUSH2 0x2B12 JUMP JUMPDEST PUSH1 0x1 PUSH1 0x1 PUSH1 0xA0 SHL SUB DUP3 AND PUSH0 SWAP1 DUP2 MSTORE PUSH1 0xC PUSH1 0x20 MSTORE PUSH1 0x40 SWAP1 KECCAK256 SLOAD PUSH1 0x1 PUSH1 0xFF SHL OR JUMPDEST PUSH1 0x1 PUSH1 0x1 PUSH1 0xA0 SHL SUB SWAP1 SWAP3 AND PUSH0 SWAP1 DUP2 MSTORE PUSH1 0xC PUSH1 0x20 MSTORE PUSH1 0x40 SWAP1 KECCAK256 SWAP2 SWAP1 SWAP2 SSTORE POP JUMP JUMPDEST PUSH0 PUSH2 0x2202 DUP3 DUP5 PUSH2 0x3C7D JUMP JUMPDEST DUP3 MLOAD PUSH1 0x20 SWAP4 DUP5 ADD KECCAK256 DUP3 MLOAD SWAP3 DUP5 ADD SWAP3 SWAP1 SWAP3 KECCAK256 PUSH1 0x40 DUP1 MLOAD PUSH32 0x8B73C3C69BB8FE3D512ECC4CF759CC79239F7B179B0FFACAA9A75D522B39400F DUP2 DUP8 ADD MSTORE DUP1 DUP3 ADD SWAP5 SWAP1 SWAP5 MSTORE PUSH1 0x60 DUP5 ADD SWAP2 SWAP1 SWAP2 MSTORE PUSH1 0x80 DUP4 ADD SWAP2 SWAP1 SWAP2 MSTORE ADDRESS PUSH1 0xA0 DUP1 DUP5 ADD SWAP2 SWAP1 SWAP2 MSTORE DUP2 MLOAD DUP1 DUP5 SUB SWAP1 SWAP2 ADD DUP2 MSTORE PUSH1 0xC0 SWAP1 SWAP3 ADD SWAP1 MSTORE DUP1 MLOAD SWAP2 ADD KECCAK256 SWAP1 JUMP JUMPDEST PUSH1 0x3 SLOAD PUSH1 0xFF AND PUSH2 0xF39 JUMPI PUSH1 0x40 MLOAD PUSH3 0x461BCD PUSH1 0xE5 SHL DUP2 MSTORE PUSH1 0x20 PUSH1 0x4 DUP3 ADD MSTORE PUSH1 0x14 PUSH1 0x24 DUP3 ADD MSTORE PUSH20 0x14185D5CD8589B194E881B9BDD081C185D5CD959 PUSH1 0x62 SHL PUSH1 0x44 DUP3 ADD MSTORE PUSH1 0x64 ADD PUSH2 0xA29 JUMP JUMPDEST DUP2 TIMESTAMP GT PUSH2 0x2C5C JUMPI PUSH1 0x40 MLOAD PUSH3 0x461BCD PUSH1 0xE5 SHL DUP2 MSTORE PUSH1 0x20 PUSH1 0x4 DUP3 ADD MSTORE PUSH1 0x2B PUSH1 0x24 DUP3 ADD MSTORE PUSH32 0x4A445343546F6B656E56323A20617574686F72697A6174696F6E206973206E6F PUSH1 0x44 DUP3 ADD MSTORE PUSH11 0x1D081E595D081D985B1A59 PUSH1 0xAA SHL PUSH1 0x64 DUP3 ADD MSTORE PUSH1 0x84 ADD PUSH2 0xA29 JUMP JUMPDEST DUP1 TIMESTAMP LT PUSH2 0x2CB9 JUMPI PUSH1 0x40 MLOAD PUSH3 0x461BCD PUSH1 0xE5 SHL DUP2 MSTORE PUSH1 0x20 PUSH1 0x4 DUP3 ADD MSTORE PUSH1 0x25 PUSH1 0x24 DUP3 ADD MSTORE PUSH32 0x4A445343546F6B656E56323A20617574686F72697A6174696F6E206973206578 PUSH1 0x44 DUP3 ADD MSTORE PUSH5 0x1C1A5C9959 PUSH1 0xDA SHL PUSH1 0x64 DUP3 ADD MSTORE PUSH1 0x84 ADD PUSH2 0xA29 JUMP JUMPDEST PUSH2 0x2CC3 DUP5 DUP5 PUSH2 0x2EA4 JUMP JUMPDEST POP POP POP POP JUMP JUMPDEST PUSH20 0x0 PUSH4 0x6CCEA652 DUP5 PUSH2 0x2D0F PUSH2 0x2CEF PUSH2 0x2289 JUMP JUMPDEST DUP7 PUSH1 0x40 MLOAD PUSH2 0x1901 PUSH1 0xF0 SHL DUP2 MSTORE PUSH1 0x2 DUP2 ADD SWAP3 SWAP1 SWAP3 MSTORE PUSH1 0x22 DUP3 ADD MSTORE PUSH1 0x42 SWAP1 KECCAK256 SWAP1 JUMP JUMPDEST DUP5 PUSH1 0x40 MLOAD DUP5 PUSH4 0xFFFFFFFF AND PUSH1 0xE0 SHL DUP2 MSTORE PUSH1 0x4 ADD PUSH2 0x2D2E SWAP4 SWAP3 SWAP2 SWAP1 PUSH2 0x3C2F JUMP JUMPDEST PUSH1 0x20 PUSH1 0x40 MLOAD DUP1 DUP4 SUB DUP2 DUP7 GAS DELEGATECALL ISZERO DUP1 ISZERO PUSH2 0x2D49 JUMPI RETURNDATASIZE PUSH0 DUP1 RETURNDATACOPY RETURNDATASIZE PUSH0 REVERT JUMPDEST POP POP POP POP PUSH1 0x40 MLOAD RETURNDATASIZE PUSH1 0x1F NOT PUSH1 0x1F DUP3 ADD AND DUP3 ADD DUP1 PUSH1 0x40 MSTORE POP DUP2 ADD SWAP1 PUSH2 0x2D6D SWAP2 SWAP1 PUSH2 0x3C5E JUMP JUMPDEST PUSH2 0x1AF0 JUMPI PUSH1 0x40 MLOAD PUSH3 0x461BCD PUSH1 0xE5 SHL DUP2 MSTORE PUSH1 0x20 PUSH1 0x4 DUP3 ADD MSTORE PUSH1 0x1E PUSH1 0x24 DUP3 ADD MSTORE PUSH32 0x4A445343546F6B656E56323A20696E76616C6964207369676E61747572650000 PUSH1 0x44 DUP3 ADD MSTORE PUSH1 0x64 ADD PUSH2 0xA29 JUMP JUMPDEST PUSH1 0x1 PUSH1 0x1 PUSH1 0xA0 SHL SUB DUP3 AND PUSH0 DUP2 DUP2 MSTORE PUSH1 0x1 PUSH1 0x20 DUP2 DUP2 MSTORE PUSH1 0x40 DUP1 DUP5 KECCAK256 DUP7 DUP6 MSTORE SWAP1 SWAP2 MSTORE DUP1 DUP4 KECCAK256 DUP1 SLOAD PUSH1 0xFF NOT AND SWAP1 SWAP3 OR SWAP1 SWAP2 SSTORE MLOAD DUP4 SWAP3 SWAP2 PUSH32 0x98DE503528EE59B575EF0C0A2576A82497BFC029A5685B209E9EC333479B10A5 SWAP2 LOG3 POP POP JUMP JUMPDEST PUSH0 CHAINID PUSH2 0x2E20 DUP5 DUP5 DUP4 PUSH2 0x2B3C JUMP JUMPDEST SWAP5 SWAP4 POP POP POP POP JUMP JUMPDEST DUP1 PUSH2 0x2E3B JUMPI PUSH2 0x2E36 DUP3 PUSH2 0x2209 JUMP JUMPDEST PUSH2 0x2E5A JUMP JUMPDEST PUSH1 0x1 PUSH1 0x1 PUSH1 0xA0 SHL SUB DUP3 AND PUSH0 SWAP1 DUP2 MSTORE PUSH1 0xD PUSH1 0x20 MSTORE PUSH1 0x40 SWAP1 KECCAK256 SLOAD PUSH1 0x1 PUSH1 0xFF SHL OR JUMPDEST PUSH1 0x1 PUSH1 0x1 PUSH1 0xA0 SHL SUB SWAP1 SWAP3 AND PUSH0 SWAP1 DUP2 MSTORE PUSH1 0xD PUSH1 0x20 MSTORE PUSH1 0x40 SWAP1 KECCAK256 SWAP2 SWAP1 SWAP2 SSTORE POP JUMP JUMPDEST PUSH0 DUP2 DUP5 DUP5 GT ISZERO PUSH2 0x2E9C JUMPI PUSH1 0x40 MLOAD PUSH3 0x461BCD PUSH1 0xE5 SHL DUP2 MSTORE PUSH1 0x4 ADD PUSH2 0xA29 SWAP2 SWAP1 PUSH2 0x2F60 JUMP JUMPDEST POP POP POP SWAP1 SUB SWAP1 JUMP JUMPDEST PUSH1 0x1 PUSH1 0x1 PUSH1 0xA0 SHL SUB DUP3 AND PUSH0 SWAP1 DUP2 MSTORE PUSH1 0x1 PUSH1 0x20 SWAP1 DUP2 MSTORE PUSH1 0x40 DUP1 DUP4 KECCAK256 DUP5 DUP5 MSTORE SWAP1 SWAP2 MSTORE SWAP1 KECCAK256 SLOAD PUSH1 0xFF AND ISZERO PUSH2 0x2F2E JUMPI PUSH1 0x40 MLOAD PUSH3 0x461BCD PUSH1 0xE5 SHL DUP2 MSTORE PUSH1 0x20 PUSH1 0x4 DUP3 ADD MSTORE PUSH1 0x2E PUSH1 0x24 DUP3 ADD MSTORE PUSH32 0x4A445343546F6B656E56323A20617574686F72697A6174696F6E206973207573 PUSH1 0x44 DUP3 ADD MSTORE PUSH14 0x1959081BDC8818D85B98D95B1959 PUSH1 0x92 SHL PUSH1 0x64 DUP3 ADD MSTORE PUSH1 0x84 ADD PUSH2 0xA29 JUMP JUMPDEST POP POP JUMP JUMPDEST PUSH0 DUP2 MLOAD DUP1 DUP5 MSTORE DUP1 PUSH1 0x20 DUP5 ADD PUSH1 0x20 DUP7 ADD MCOPY PUSH0 PUSH1 0x20 DUP3 DUP7 ADD ADD MSTORE PUSH1 0x20 PUSH1 0x1F NOT PUSH1 0x1F DUP4 ADD AND DUP6 ADD ADD SWAP2 POP POP SWAP3 SWAP2 POP POP JUMP JUMPDEST PUSH1 0x20 DUP2 MSTORE PUSH0 PUSH2 0x2202 PUSH1 0x20 DUP4 ADD DUP5 PUSH2 0x2F32 JUMP JUMPDEST DUP1 CALLDATALOAD PUSH1 0x1 PUSH1 0x1 PUSH1 0xA0 SHL SUB DUP2 AND DUP2 EQ PUSH2 0xDDD JUMPI PUSH0 DUP1 REVERT JUMPDEST PUSH0 DUP1 PUSH1 0x40 DUP4 DUP6 SUB SLT ISZERO PUSH2 0x2F99 JUMPI PUSH0 DUP1 REVERT JUMPDEST PUSH2 0x2FA2 DUP4 PUSH2 0x2F72 JUMP JUMPDEST SWAP5 PUSH1 0x20 SWAP4 SWAP1 SWAP4 ADD CALLDATALOAD SWAP4 POP POP POP JUMP JUMPDEST PUSH0 PUSH1 0x20 DUP3 DUP5 SUB SLT ISZERO PUSH2 0x2FC0 JUMPI PUSH0 DUP1 REVERT JUMPDEST PUSH2 0x2202 DUP3 PUSH2 0x2F72 JUMP JUMPDEST PUSH0 DUP1 PUSH0 PUSH1 0x60 DUP5 DUP7 SUB SLT ISZERO PUSH2 0x2FDB JUMPI PUSH0 DUP1 REVERT JUMPDEST PUSH2 0x2FE4 DUP5 PUSH2 0x2F72 JUMP JUMPDEST SWAP3 POP PUSH2 0x2FF2 PUSH1 0x20 DUP6 ADD PUSH2 0x2F72 JUMP JUMPDEST SWAP2 POP PUSH1 0x40 DUP5 ADD CALLDATALOAD SWAP1 POP SWAP3 POP SWAP3 POP SWAP3 JUMP JUMPDEST PUSH0 DUP1 DUP4 PUSH1 0x1F DUP5 ADD SLT PUSH2 0x3012 JUMPI PUSH0 DUP1 REVERT JUMPDEST POP DUP2 CALLDATALOAD PUSH8 0xFFFFFFFFFFFFFFFF DUP2 GT ISZERO PUSH2 0x3029 JUMPI PUSH0 DUP1 REVERT JUMPDEST PUSH1 0x20 DUP4 ADD SWAP2 POP DUP4 PUSH1 0x20 DUP3 DUP6 ADD ADD GT ISZERO PUSH2 0x3040 JUMPI PUSH0 DUP1 REVERT JUMPDEST SWAP3 POP SWAP3 SWAP1 POP JUMP JUMPDEST PUSH0 DUP1 PUSH0 DUP1 PUSH0 PUSH1 0x60 DUP7 DUP9 SUB SLT ISZERO PUSH2 0x305B JUMPI PUSH0 DUP1 REVERT JUMPDEST DUP6 CALLDATALOAD PUSH8 0xFFFFFFFFFFFFFFFF DUP1 DUP3 GT ISZERO PUSH2 0x3072 JUMPI PUSH0 DUP1 REVERT JUMPDEST DUP2 DUP9 ADD SWAP2 POP DUP9 PUSH1 0x1F DUP4 ADD SLT PUSH2 0x3085 JUMPI PUSH0 DUP1 REVERT JUMPDEST DUP2 CALLDATALOAD DUP2 DUP2 GT ISZERO PUSH2 0x3093 JUMPI PUSH0 DUP1 REVERT JUMPDEST DUP10 PUSH1 0x20 DUP3 PUSH1 0x5 SHL DUP6 ADD ADD GT ISZERO PUSH2 0x30A7 JUMPI PUSH0 DUP1 REVERT JUMPDEST PUSH1 0x20 SWAP3 DUP4 ADD SWAP8 POP SWAP6 POP SWAP1 DUP8 ADD CALLDATALOAD SWAP1 DUP1 DUP3 GT ISZERO PUSH2 0x30C1 JUMPI PUSH0 DUP1 REVERT JUMPDEST POP PUSH2 0x30CE DUP9 DUP3 DUP10 ADD PUSH2 0x3002 JUMP JUMPDEST SWAP1 SWAP5 POP SWAP3 POP PUSH2 0x30E1 SWAP1 POP PUSH1 0x40 DUP8 ADD PUSH2 0x2F72 JUMP JUMPDEST SWAP1 POP SWAP3 SWAP6 POP SWAP3 SWAP6 SWAP1 SWAP4 POP JUMP JUMPDEST DUP1 CALLDATALOAD PUSH1 0xFF DUP2 AND DUP2 EQ PUSH2 0xDDD JUMPI PUSH0 DUP1 REVERT JUMPDEST PUSH0 DUP1 PUSH0 DUP1 PUSH0 DUP1 PUSH0 DUP1 PUSH0 DUP1 PUSH2 0x140 DUP12 DUP14 SUB SLT ISZERO PUSH2 0x3117 JUMPI PUSH0 DUP1 REVERT JUMPDEST PUSH2 0x3120 DUP12 PUSH2 0x2F72 JUMP JUMPDEST SWAP10 POP PUSH2 0x312E PUSH1 0x20 DUP13 ADD PUSH2 0x2F72 JUMP JUMPDEST SWAP9 POP PUSH2 0x313C PUSH1 0x40 DUP13 ADD PUSH2 0x2F72 JUMP JUMPDEST SWAP8 POP PUSH1 0x60 DUP12 ADD CALLDATALOAD SWAP7 POP PUSH1 0x80 DUP12 ADD CALLDATALOAD SWAP6 POP PUSH1 0xA0 DUP12 ADD CALLDATALOAD SWAP5 POP PUSH1 0xC0 DUP12 ADD CALLDATALOAD SWAP4 POP PUSH2 0x3166 PUSH1 0xE0 DUP13 ADD PUSH2 0x30ED JUMP JUMPDEST SWAP3 POP PUSH2 0x100 DUP12 ADD CALLDATALOAD SWAP2 POP PUSH2 0x120 DUP12 ADD CALLDATALOAD SWAP1 POP SWAP3 SWAP6 SWAP9 SWAP12 SWAP2 SWAP5 SWAP8 SWAP11 POP SWAP3 SWAP6 SWAP9 POP JUMP JUMPDEST PUSH0 PUSH1 0x20 DUP3 DUP5 SUB SLT ISZERO PUSH2 0x3197 JUMPI PUSH0 DUP1 REVERT JUMPDEST POP CALLDATALOAD SWAP2 SWAP1 POP JUMP JUMPDEST PUSH0 DUP1 PUSH0 DUP1 PUSH0 PUSH1 0xA0 DUP7 DUP9 SUB SLT ISZERO PUSH2 0x31B2 JUMPI PUSH0 DUP1 REVERT JUMPDEST PUSH2 0x31BB DUP7 PUSH2 0x2F72 JUMP JUMPDEST SWAP5 POP PUSH1 0x20 DUP7 ADD CALLDATALOAD SWAP4 POP PUSH2 0x31D0 PUSH1 0x40 DUP8 ADD PUSH2 0x30ED JUMP JUMPDEST SWAP5 SWAP8 SWAP4 SWAP7 POP SWAP4 SWAP5 PUSH1 0x60 DUP2 ADD CALLDATALOAD SWAP5 POP PUSH1 0x80 ADD CALLDATALOAD SWAP3 SWAP2 POP POP JUMP JUMPDEST PUSH4 0x4E487B71 PUSH1 0xE0 SHL PUSH0 MSTORE PUSH1 0x41 PUSH1 0x4 MSTORE PUSH1 0x24 PUSH0 REVERT JUMPDEST PUSH0 DUP3 PUSH1 0x1F DUP4 ADD SLT PUSH2 0x320B JUMPI PUSH0 DUP1 REVERT JUMPDEST DUP2 CALLDATALOAD PUSH8 0xFFFFFFFFFFFFFFFF DUP1 DUP3 GT ISZERO PUSH2 0x3226 JUMPI PUSH2 0x3226 PUSH2 0x31E8 JUMP JUMPDEST PUSH1 0x40 MLOAD PUSH1 0x1F DUP4 ADD PUSH1 0x1F NOT SWAP1 DUP2 AND PUSH1 0x3F ADD AND DUP2 ADD SWAP1 DUP3 DUP3 GT DUP2 DUP4 LT OR ISZERO PUSH2 0x324E JUMPI PUSH2 0x324E PUSH2 0x31E8 JUMP JUMPDEST DUP2 PUSH1 0x40 MSTORE DUP4 DUP2 MSTORE DUP7 PUSH1 0x20 DUP6 DUP9 ADD ADD GT ISZERO PUSH2 0x3266 JUMPI PUSH0 DUP1 REVERT JUMPDEST DUP4 PUSH1 0x20 DUP8 ADD PUSH1 0x20 DUP4 ADD CALLDATACOPY PUSH0 PUSH1 0x20 DUP6 DUP4 ADD ADD MSTORE DUP1 SWAP5 POP POP POP POP POP SWAP3 SWAP2 POP POP JUMP JUMPDEST PUSH0 DUP1 PUSH0 DUP1 PUSH0 DUP1 PUSH0 PUSH1 0xE0 DUP9 DUP11 SUB SLT ISZERO PUSH2 0x329B JUMPI PUSH0 DUP1 REVERT JUMPDEST PUSH2 0x32A4 DUP9 PUSH2 0x2F72 JUMP JUMPDEST SWAP7 POP PUSH2 0x32B2 PUSH1 0x20 DUP10 ADD PUSH2 0x2F72 JUMP JUMPDEST SWAP6 POP PUSH1 0x40 DUP9 ADD CALLDATALOAD SWAP5 POP PUSH1 0x60 DUP9 ADD CALLDATALOAD SWAP4 POP PUSH1 0x80 DUP9 ADD CALLDATALOAD SWAP3 POP PUSH1 0xA0 DUP9 ADD CALLDATALOAD SWAP2 POP PUSH1 0xC0 DUP9 ADD CALLDATALOAD PUSH8 0xFFFFFFFFFFFFFFFF DUP2 GT ISZERO PUSH2 0x32E9 JUMPI PUSH0 DUP1 REVERT JUMPDEST PUSH2 0x32F5 DUP11 DUP3 DUP12 ADD PUSH2 0x31FC JUMP JUMPDEST SWAP2 POP POP SWAP3 SWAP6 SWAP9 SWAP2 SWAP5 SWAP8 POP SWAP3 SWAP6 POP JUMP JUMPDEST PUSH0 DUP1 PUSH0 DUP1 PUSH0 DUP1 PUSH0 DUP1 PUSH0 PUSH2 0x120 DUP11 DUP13 SUB SLT ISZERO PUSH2 0x331D JUMPI PUSH0 DUP1 REVERT JUMPDEST DUP10 CALLDATALOAD PUSH8 0xFFFFFFFFFFFFFFFF DUP1 DUP3 GT ISZERO PUSH2 0x3334 JUMPI PUSH0 DUP1 REVERT JUMPDEST PUSH2 0x3340 DUP14 DUP4 DUP15 ADD PUSH2 0x31FC JUMP JUMPDEST SWAP11 POP PUSH1 0x20 DUP13 ADD CALLDATALOAD SWAP2 POP DUP1 DUP3 GT ISZERO PUSH2 0x3355 JUMPI PUSH0 DUP1 REVERT JUMPDEST PUSH2 0x3361 DUP14 DUP4 DUP15 ADD PUSH2 0x31FC JUMP JUMPDEST SWAP10 POP PUSH1 0x40 DUP13 ADD CALLDATALOAD SWAP2 POP DUP1 DUP3 GT ISZERO PUSH2 0x3376 JUMPI PUSH0 DUP1 REVERT JUMPDEST POP PUSH2 0x3383 DUP13 DUP3 DUP14 ADD PUSH2 0x31FC JUMP JUMPDEST SWAP8 POP POP PUSH2 0x3392 PUSH1 0x60 DUP12 ADD PUSH2 0x30ED JUMP JUMPDEST SWAP6 POP PUSH1 0x80 DUP11 ADD CALLDATALOAD SWAP5 POP PUSH2 0x33A7 PUSH1 0xA0 DUP12 ADD PUSH2 0x2F72 JUMP JUMPDEST SWAP4 POP PUSH2 0x33B5 PUSH1 0xC0 DUP12 ADD PUSH2 0x2F72 JUMP JUMPDEST SWAP3 POP PUSH2 0x33C3 PUSH1 0xE0 DUP12 ADD PUSH2 0x2F72 JUMP JUMPDEST SWAP2 POP PUSH2 0x33D2 PUSH2 0x100 DUP12 ADD PUSH2 0x2F72 JUMP JUMPDEST SWAP1 POP SWAP3 SWAP6 SWAP9 POP SWAP3 SWAP6 SWAP9 POP SWAP3 SWAP6 SWAP9 JUMP JUMPDEST PUSH0 DUP1 PUSH0 DUP1 PUSH0 DUP1 PUSH0 DUP1 PUSH2 0x100 DUP10 DUP12 SUB SLT ISZERO PUSH2 0x33F9 JUMPI PUSH0 DUP1 REVERT JUMPDEST PUSH2 0x3402 DUP10 PUSH2 0x2F72 JUMP JUMPDEST SWAP8 POP PUSH2 0x3410 PUSH1 0x20 DUP11 ADD PUSH2 0x2F72 JUMP JUMPDEST SWAP7 POP PUSH2 0x341E PUSH1 0x40 DUP11 ADD PUSH2 0x2F72 JUMP JUMPDEST SWAP6 POP PUSH1 0x60 DUP10 ADD CALLDATALOAD SWAP5 POP PUSH1 0x80 DUP10 ADD CALLDATALOAD SWAP4 POP PUSH1 0xA0 DUP10 ADD CALLDATALOAD SWAP3 POP PUSH1 0xC0 DUP10 ADD CALLDATALOAD SWAP2 POP PUSH1 0xE0 DUP10 ADD CALLDATALOAD PUSH8 0xFFFFFFFFFFFFFFFF DUP2 GT ISZERO PUSH2 0x3455 JUMPI PUSH0 DUP1 REVERT JUMPDEST PUSH2 0x3461 DUP12 DUP3 DUP13 ADD PUSH2 0x31FC JUMP JUMPDEST SWAP2 POP POP SWAP3 SWAP6 SWAP9 POP SWAP3 SWAP6 SWAP9 SWAP1 SWAP4 SWAP7 POP JUMP JUMPDEST PUSH0 DUP1 PUSH0 DUP1 PUSH0 PUSH1 0xA0 DUP7 DUP9 SUB SLT ISZERO PUSH2 0x3485 JUMPI PUSH0 DUP1 REVERT JUMPDEST PUSH2 0x348E DUP7 PUSH2 0x2F72 JUMP JUMPDEST SWAP5 POP PUSH2 0x349C PUSH1 0x20 DUP8 ADD PUSH2 0x2F72 JUMP JUMPDEST SWAP4 POP PUSH1 0x40 DUP7 ADD CALLDATALOAD SWAP3 POP PUSH1 0x60 DUP7 ADD CALLDATALOAD SWAP2 POP PUSH1 0x80 DUP7 ADD CALLDATALOAD PUSH8 0xFFFFFFFFFFFFFFFF DUP2 GT ISZERO PUSH2 0x34C5 JUMPI PUSH0 DUP1 REVERT JUMPDEST PUSH2 0x34D1 DUP9 DUP3 DUP10 ADD PUSH2 0x31FC JUMP JUMPDEST SWAP2 POP POP SWAP3 SWAP6 POP SWAP3 SWAP6 SWAP1 SWAP4 POP JUMP JUMPDEST PUSH0 DUP1 PUSH0 PUSH1 0x60 DUP5 DUP7 SUB SLT ISZERO PUSH2 0x34F0 JUMPI PUSH0 DUP1 REVERT JUMPDEST PUSH2 0x34F9 DUP5 PUSH2 0x2F72 JUMP JUMPDEST SWAP3 POP PUSH1 0x20 DUP5 ADD CALLDATALOAD SWAP2 POP PUSH1 0x40 DUP5 ADD CALLDATALOAD PUSH8 0xFFFFFFFFFFFFFFFF DUP2 GT ISZERO PUSH2 0x351B JUMPI PUSH0 DUP1 REVERT JUMPDEST PUSH2 0x3527 DUP7 DUP3 DUP8 ADD PUSH2 0x31FC JUMP JUMPDEST SWAP2 POP POP SWAP3 POP SWAP3 POP SWAP3 JUMP JUMPDEST PUSH0 DUP1 PUSH1 0x40 DUP4 DUP6 SUB SLT ISZERO PUSH2 0x3542 JUMPI PUSH0 DUP1 REVERT JUMPDEST POP POP DUP1 CALLDATALOAD SWAP3 PUSH1 0x20 SWAP1 SWAP2 ADD CALLDATALOAD SWAP2 POP JUMP JUMPDEST PUSH0 DUP1 PUSH0 DUP1 PUSH0 DUP1 PUSH0 PUSH1 0xE0 DUP9 DUP11 SUB SLT ISZERO PUSH2 0x3567 JUMPI PUSH0 DUP1 REVERT JUMPDEST PUSH2 0x3570 DUP9 PUSH2 0x2F72 JUMP JUMPDEST SWAP7 POP PUSH2 0x357E PUSH1 0x20 DUP10 ADD PUSH2 0x2F72 JUMP JUMPDEST SWAP6 POP PUSH1 0x40 DUP9 ADD CALLDATALOAD SWAP5 POP PUSH1 0x60 DUP9 ADD CALLDATALOAD SWAP4 POP PUSH2 0x359A PUSH1 0x80 DUP10 ADD PUSH2 0x30ED JUMP JUMPDEST SWAP3 POP PUSH1 0xA0 DUP9 ADD CALLDATALOAD SWAP2 POP PUSH1 0xC0 DUP9 ADD CALLDATALOAD SWAP1 POP SWAP3 SWAP6 SWAP9 SWAP2 SWAP5 SWAP8 POP SWAP3 SWAP6 POP JUMP JUMPDEST PUSH0 DUP1 PUSH1 0x40 DUP4 DUP6 SUB SLT ISZERO PUSH2 0x35C7 JUMPI PUSH0 DUP1 REVERT JUMPDEST PUSH2 0x35D0 DUP4 PUSH2 0x2F72 JUMP JUMPDEST SWAP2 POP PUSH2 0x35DE PUSH1 0x20 DUP5 ADD PUSH2 0x2F72 JUMP JUMPDEST SWAP1 POP SWAP3 POP SWAP3 SWAP1 POP JUMP JUMPDEST PUSH0 DUP1 PUSH0 DUP1 PUSH0 DUP1 PUSH0 DUP1 PUSH0 PUSH2 0x120 DUP11 DUP13 SUB SLT ISZERO PUSH2 0x3600 JUMPI PUSH0 DUP1 REVERT JUMPDEST PUSH2 0x3609 DUP11 PUSH2 0x2F72 JUMP JUMPDEST SWAP9 POP PUSH2 0x3617 PUSH1 0x20 DUP12 ADD PUSH2 0x2F72 JUMP JUMPDEST SWAP8 POP PUSH1 0x40 DUP11 ADD CALLDATALOAD SWAP7 POP PUSH1 0x60 DUP11 ADD CALLDATALOAD SWAP6 POP PUSH1 0x80 DUP11 ADD CALLDATALOAD SWAP5 POP PUSH1 0xA0 DUP11 ADD CALLDATALOAD SWAP4 POP PUSH2 0x3641 PUSH1 0xC0 DUP12 ADD PUSH2 0x30ED JUMP JUMPDEST SWAP3 POP PUSH1 0xE0 DUP11 ADD CALLDATALOAD SWAP2 POP PUSH2 0x100 DUP11 ADD CALLDATALOAD SWAP1 POP SWAP3 SWAP6 SWAP9 POP SWAP3 SWAP6 SWAP9 POP SWAP3 SWAP6 SWAP9 JUMP JUMPDEST PUSH1 0x1 DUP2 DUP2 SHR SWAP1 DUP3 AND DUP1 PUSH2 0x3673 JUMPI PUSH1 0x7F DUP3 AND SWAP2 POP JUMPDEST PUSH1 0x20 DUP3 LT DUP2 SUB PUSH2 0x3691 JUMPI PUSH4 0x4E487B71 PUSH1 0xE0 SHL PUSH0 MSTORE PUSH1 0x22 PUSH1 0x4 MSTORE PUSH1 0x24 PUSH0 REVERT JUMPDEST POP SWAP2 SWAP1 POP JUMP JUMPDEST PUSH1 0x20 DUP1 DUP3 MSTORE PUSH1 0x25 SWAP1 DUP3 ADD MSTORE PUSH32 0x426C61636B6C69737461626C653A206163636F756E7420697320626C61636B6C PUSH1 0x40 DUP3 ADD MSTORE PUSH5 0x1A5CDD1959 PUSH1 0xDA SHL PUSH1 0x60 DUP3 ADD MSTORE PUSH1 0x80 ADD SWAP1 JUMP JUMPDEST PUSH1 0x20 DUP1 DUP3 MSTORE PUSH1 0x2C SWAP1 DUP3 ADD MSTORE PUSH32 0x426C61636B6C69737461626C653A2063616C6C6572206973206E6F7420746865 PUSH1 0x40 DUP3 ADD MSTORE PUSH12 0x10313630B1B5B634B9BA32B9 PUSH1 0xA1 SHL PUSH1 0x60 DUP3 ADD MSTORE PUSH1 0x80 ADD SWAP1 JUMP JUMPDEST PUSH1 0x1F DUP3 GT ISZERO PUSH2 0x1AF0 JUMPI DUP1 PUSH0 MSTORE PUSH1 0x20 PUSH0 KECCAK256 PUSH1 0x1F DUP5 ADD PUSH1 0x5 SHR DUP2 ADD PUSH1 0x20 DUP6 LT ISZERO PUSH2 0x374D JUMPI POP DUP1 JUMPDEST PUSH1 0x1F DUP5 ADD PUSH1 0x5 SHR DUP3 ADD SWAP2 POP JUMPDEST DUP2 DUP2 LT ISZERO PUSH2 0x1362 JUMPI PUSH0 DUP2 SSTORE PUSH1 0x1 ADD PUSH2 0x3759 JUMP JUMPDEST PUSH8 0xFFFFFFFFFFFFFFFF DUP4 GT ISZERO PUSH2 0x3784 JUMPI PUSH2 0x3784 PUSH2 0x31E8 JUMP JUMPDEST PUSH2 0x3798 DUP4 PUSH2 0x3792 DUP4 SLOAD PUSH2 0x365F JUMP JUMPDEST DUP4 PUSH2 0x3728 JUMP JUMPDEST PUSH0 PUSH1 0x1F DUP5 GT PUSH1 0x1 DUP2 EQ PUSH2 0x37C9 JUMPI PUSH0 DUP6 ISZERO PUSH2 0x37B2 JUMPI POP DUP4 DUP3 ADD CALLDATALOAD JUMPDEST PUSH0 NOT PUSH1 0x3 DUP8 SWAP1 SHL SHR NOT AND PUSH1 0x1 DUP7 SWAP1 SHL OR DUP4 SSTORE PUSH2 0x1362 JUMP JUMPDEST PUSH0 DUP4 DUP2 MSTORE PUSH1 0x20 DUP2 KECCAK256 PUSH1 0x1F NOT DUP8 AND SWAP2 JUMPDEST DUP3 DUP2 LT ISZERO PUSH2 0x37F8 JUMPI DUP7 DUP6 ADD CALLDATALOAD DUP3 SSTORE PUSH1 0x20 SWAP5 DUP6 ADD SWAP5 PUSH1 0x1 SWAP1 SWAP3 ADD SWAP2 ADD PUSH2 0x37D8 JUMP JUMPDEST POP DUP7 DUP3 LT ISZERO PUSH2 0x3814 JUMPI PUSH0 NOT PUSH1 0xF8 DUP9 PUSH1 0x3 SHL AND SHR NOT DUP5 DUP8 ADD CALLDATALOAD AND DUP2 SSTORE JUMPDEST POP POP PUSH1 0x1 DUP6 PUSH1 0x1 SHL ADD DUP4 SSTORE POP POP POP POP POP JUMP JUMPDEST PUSH4 0x4E487B71 PUSH1 0xE0 SHL PUSH0 MSTORE PUSH1 0x32 PUSH1 0x4 MSTORE PUSH1 0x24 PUSH0 REVERT JUMPDEST PUSH1 0x20 DUP1 DUP3 MSTORE PUSH1 0x29 SWAP1 DUP3 ADD MSTORE PUSH32 0x4A445343546F6B656E3A2063616C6C6572206973206E6F7420746865206D6173 PUSH1 0x40 DUP3 ADD MSTORE PUSH9 0x3A32B926B4B73A32B9 PUSH1 0xB9 SHL PUSH1 0x60 DUP3 ADD MSTORE PUSH1 0x80 ADD SWAP1 JUMP JUMPDEST PUSH1 0x20 DUP1 DUP3 MSTORE PUSH1 0x2D SWAP1 DUP3 ADD MSTORE PUSH32 0x57686974656C69737461626C653A206163636F756E74206973206E6F74207468 PUSH1 0x40 DUP3 ADD MSTORE PUSH13 0x19481DDA1A5D195B1A5CDD1959 PUSH1 0x9A SHL PUSH1 0x60 DUP3 ADD MSTORE PUSH1 0x80 ADD SWAP1 JUMP JUMPDEST PUSH1 0x20 DUP1 DUP3 MSTORE PUSH1 0x26 SWAP1 DUP3 ADD MSTORE PUSH32 0x4A4453435061757361626C653A2063616C6C6572206973206E6F742074686520 PUSH1 0x40 DUP3 ADD MSTORE PUSH6 0x3830BAB9B2B9 PUSH1 0xD1 SHL PUSH1 0x60 DUP3 ADD MSTORE PUSH1 0x80 ADD SWAP1 JUMP JUMPDEST PUSH1 0x20 DUP1 DUP3 MSTORE PUSH1 0x2F SWAP1 DUP3 ADD MSTORE PUSH32 0x4A445343546F6B656E3A206E6577206D61737465724D696E7465722069732074 PUSH1 0x40 DUP3 ADD MSTORE PUSH15 0x6865207A65726F2061646472657373 PUSH1 0x88 SHL PUSH1 0x60 DUP3 ADD MSTORE PUSH1 0x80 ADD SWAP1 JUMP JUMPDEST DUP2 MLOAD PUSH8 0xFFFFFFFFFFFFFFFF DUP2 GT ISZERO PUSH2 0x397F JUMPI PUSH2 0x397F PUSH2 0x31E8 JUMP JUMPDEST PUSH2 0x3993 DUP2 PUSH2 0x398D DUP5 SLOAD PUSH2 0x365F JUMP JUMPDEST DUP5 PUSH2 0x3728 JUMP JUMPDEST PUSH1 0x20 DUP1 PUSH1 0x1F DUP4 GT PUSH1 0x1 DUP2 EQ PUSH2 0x39C6 JUMPI PUSH0 DUP5 ISZERO PUSH2 0x39AF JUMPI POP DUP6 DUP4 ADD MLOAD JUMPDEST PUSH0 NOT PUSH1 0x3 DUP7 SWAP1 SHL SHR NOT AND PUSH1 0x1 DUP6 SWAP1 SHL OR DUP6 SSTORE PUSH2 0x291A JUMP JUMPDEST PUSH0 DUP6 DUP2 MSTORE PUSH1 0x20 DUP2 KECCAK256 PUSH1 0x1F NOT DUP7 AND SWAP2 JUMPDEST DUP3 DUP2 LT ISZERO PUSH2 0x39F4 JUMPI DUP9 DUP7 ADD MLOAD DUP3 SSTORE SWAP5 DUP5 ADD SWAP5 PUSH1 0x1 SWAP1 SWAP2 ADD SWAP1 DUP5 ADD PUSH2 0x39D5 JUMP JUMPDEST POP DUP6 DUP3 LT ISZERO PUSH2 0x3A11 JUMPI DUP8 DUP6 ADD MLOAD PUSH0 NOT PUSH1 0x3 DUP9 SWAP1 SHL PUSH1 0xF8 AND SHR NOT AND DUP2 SSTORE JUMPDEST POP POP POP POP POP PUSH1 0x1 SWAP1 DUP2 SHL ADD SWAP1 SSTORE POP JUMP JUMPDEST PUSH1 0x20 DUP1 DUP3 MSTORE PUSH1 0x2C SWAP1 DUP3 ADD MSTORE PUSH32 0x57686974656C69737461626C653A2063616C6C6572206973206E6F7420746865 PUSH1 0x40 DUP3 ADD MSTORE PUSH12 0x103BB434BA32B634B9BA32B9 PUSH1 0xA1 SHL PUSH1 0x60 DUP3 ADD MSTORE PUSH1 0x80 ADD SWAP1 JUMP JUMPDEST PUSH4 0x4E487B71 PUSH1 0xE0 SHL PUSH0 MSTORE PUSH1 0x11 PUSH1 0x4 MSTORE PUSH1 0x24 PUSH0 REVERT JUMPDEST PUSH1 0x1 DUP2 DUP2 JUMPDEST DUP1 DUP6 GT ISZERO PUSH2 0x3ABB JUMPI DUP2 PUSH0 NOT DIV DUP3 GT ISZERO PUSH2 0x3AA1 JUMPI PUSH2 0x3AA1 PUSH2 0x3A6D JUMP JUMPDEST DUP1 DUP6 AND ISZERO PUSH2 0x3AAE JUMPI SWAP2 DUP2 MUL SWAP2 JUMPDEST SWAP4 DUP5 SHR SWAP4 SWAP1 DUP1 MUL SWAP1 PUSH2 0x3A86 JUMP JUMPDEST POP SWAP3 POP SWAP3 SWAP1 POP JUMP JUMPDEST PUSH0 DUP3 PUSH2 0x3AD1 JUMPI POP PUSH1 0x1 PUSH2 0xF01 JUMP JUMPDEST DUP2 PUSH2 0x3ADD JUMPI POP PUSH0 PUSH2 0xF01 JUMP JUMPDEST DUP2 PUSH1 0x1 DUP2 EQ PUSH2 0x3AF3 JUMPI PUSH1 0x2 DUP2 EQ PUSH2 0x3AFD JUMPI PUSH2 0x3B19 JUMP JUMPDEST PUSH1 0x1 SWAP2 POP POP PUSH2 0xF01 JUMP JUMPDEST PUSH1 0xFF DUP5 GT ISZERO PUSH2 0x3B0E JUMPI PUSH2 0x3B0E PUSH2 0x3A6D JUMP JUMPDEST POP POP PUSH1 0x1 DUP3 SHL PUSH2 0xF01 JUMP JUMPDEST POP PUSH1 0x20 DUP4 LT PUSH2 0x133 DUP4 LT AND PUSH1 0x4E DUP5 LT PUSH1 0xB DUP5 LT AND OR ISZERO PUSH2 0x3B3C JUMPI POP DUP2 DUP2 EXP PUSH2 0xF01 JUMP JUMPDEST PUSH2 0x3B46 DUP4 DUP4 PUSH2 0x3A81 JUMP JUMPDEST DUP1 PUSH0 NOT DIV DUP3 GT ISZERO PUSH2 0x3B59 JUMPI PUSH2 0x3B59 PUSH2 0x3A6D JUMP JUMPDEST MUL SWAP4 SWAP3 POP POP POP JUMP JUMPDEST PUSH0 PUSH2 0x2202 PUSH1 0xFF DUP5 AND DUP4 PUSH2 0x3AC3 JUMP JUMPDEST DUP2 DUP2 SUB DUP2 DUP2 GT ISZERO PUSH2 0xF01 JUMPI PUSH2 0xF01 PUSH2 0x3A6D JUMP JUMPDEST SWAP3 DUP4 MSTORE PUSH1 0x20 DUP4 ADD SWAP2 SWAP1 SWAP2 MSTORE PUSH1 0xF8 SHL PUSH1 0x1 PUSH1 0x1 PUSH1 0xF8 SHL SUB NOT AND PUSH1 0x40 DUP3 ADD MSTORE PUSH1 0x41 ADD SWAP1 JUMP JUMPDEST DUP1 DUP3 MUL DUP2 ISZERO DUP3 DUP3 DIV DUP5 EQ OR PUSH2 0xF01 JUMPI PUSH2 0xF01 PUSH2 0x3A6D JUMP JUMPDEST PUSH0 DUP3 PUSH2 0x3BD6 JUMPI PUSH4 0x4E487B71 PUSH1 0xE0 SHL PUSH0 MSTORE PUSH1 0x12 PUSH1 0x4 MSTORE PUSH1 0x24 PUSH0 REVERT JUMPDEST POP DIV SWAP1 JUMP JUMPDEST SWAP7 DUP8 MSTORE PUSH1 0x1 PUSH1 0x1 PUSH1 0xA0 SHL SUB SWAP6 DUP7 AND PUSH1 0x20 DUP9 ADD MSTORE SWAP4 SWAP1 SWAP5 AND PUSH1 0x40 DUP7 ADD MSTORE PUSH1 0x60 DUP6 ADD SWAP2 SWAP1 SWAP2 MSTORE PUSH1 0x80 DUP5 ADD MSTORE PUSH1 0xA0 DUP4 ADD SWAP2 SWAP1 SWAP2 MSTORE PUSH1 0xC0 DUP3 ADD MSTORE PUSH1 0xE0 ADD SWAP1 JUMP JUMPDEST PUSH0 PUSH1 0x1 DUP3 ADD PUSH2 0x3C28 JUMPI PUSH2 0x3C28 PUSH2 0x3A6D JUMP JUMPDEST POP PUSH1 0x1 ADD SWAP1 JUMP JUMPDEST PUSH1 0x1 DUP1 PUSH1 0xA0 SHL SUB DUP5 AND DUP2 MSTORE DUP3 PUSH1 0x20 DUP3 ADD MSTORE PUSH1 0x60 PUSH1 0x40 DUP3 ADD MSTORE PUSH0 PUSH2 0x3C55 PUSH1 0x60 DUP4 ADD DUP5 PUSH2 0x2F32 JUMP JUMPDEST SWAP6 SWAP5 POP POP POP POP POP JUMP JUMPDEST PUSH0 PUSH1 0x20 DUP3 DUP5 SUB SLT ISZERO PUSH2 0x3C6E JUMPI PUSH0 DUP1 REVERT JUMPDEST DUP2 MLOAD DUP1 ISZERO ISZERO DUP2 EQ PUSH2 0x2202 JUMPI PUSH0 DUP1 REVERT JUMPDEST DUP1 DUP3 ADD DUP1 DUP3 GT ISZERO PUSH2 0xF01 JUMPI PUSH2 0xF01 PUSH2 0x3A6D JUMP INVALID GASLIMIT MSTORE NUMBER ORIGIN ADDRESS GASPRICE KECCAK256 PUSH5 0x6563726561 PUSH20 0x656420616C6C6F77616E63652062656C6F77207A PUSH6 0x726FA2646970 PUSH7 0x7358221220D243 PREVRANDAO CALLVALUE KECCAK256 DUP16 ORIGIN 0xD1 GASPRICE 0xBE 0xE8 MSTORE8 0xA6 0xA7 PUSH17 0x58D776CF91A1736215B864B70992FA9049 PUSH5 0x736F6C6343 STOP ADDMOD NOT STOP CALLER "
		},
		"gasEstimates": {
			"creation": {
				"codeDepositCost": "3119000",
				"executionCost": "68559",
				"totalCost": "3187559"
			},
			"external": {
				"CANCEL_AUTHORIZATION_TYPEHASH()": "261",
				"DOMAIN_SEPARATOR()": "infinite",
				"MAX_UINT()": "307",
				"PERMIT_TYPEHASH()": "285",
				"RECEIVE_WITH_AUTHORIZATION_TYPEHASH()": "305",
				"TRANSFER_WITH_AUTHORIZATION_TYPEHASH()": "284",
				"allowance(address,address)": "infinite",
				"approve(address,uint256)": "infinite",
				"authorizationState(address,bytes32)": "2778",
				"balanceOf(address)": "2693",
				"basisPointsRate()": "2405",
				"blacklist(address)": "28221",
				"blacklister()": "2404",
				"burn(uint256)": "infinite",
				"calcFee(uint256)": "infinite",
				"cancelAuthorization(address,bytes32,bytes)": "infinite",
				"cancelAuthorization(address,bytes32,uint8,bytes32,bytes32)": "infinite",
				"configureMinter(address,uint256)": "52667",
				"currency()": "infinite",
				"decimals()": "2425",
				"decreaseAllowance(address,uint256)": "infinite",
				"feeAccounts(address)": "2649",
				"increaseAllowance(address,uint256)": "infinite",
				"initialize(string,string,string,uint8,uint256,address,address,address,address)": "infinite",
				"initializeV1WithFee(address[],string,address)": "infinite",
				"isBlacklisted(address)": "2757",
				"isMinter(address)": "2635",
				"isWhitelisted(address)": "2672",
				"masterMinter()": "2426",
				"maximumFee()": "2362",
				"minterAllowance(address)": "2625",
				"name()": "infinite",
				"nonces(address)": "2623",
				"owner()": "2454",
				"pause()": "infinite",
				"paused()": "2371",
				"pauser()": "2470",
				"permit(address,address,uint256,uint256,bytes)": "infinite",
				"permit(address,address,uint256,uint256,uint8,bytes32,bytes32)": "infinite",
				"receiveWithAuthorization(address,address,uint256,uint256,uint256,bytes32,bytes)": "infinite",
				"receiveWithAuthorization(address,address,uint256,uint256,uint256,bytes32,uint8,bytes32,bytes32)": "infinite",
				"removeMinter(address)": "infinite",
				"renounceOwnership()": "infinite",
				"setOwner(address)": "28480",
				"setParams(uint256,uint256)": "infinite",
				"symbol()": "infinite",
				"totalFee(address)": "2652",
				"totalSupply()": "2416",
				"transfer(address,uint256)": "infinite",
				"transferFrom(address,address,uint256)": "infinite",
				"transferOwnership(address)": "28476",
				"transferWithAuthorization(address,address,uint256,uint256,uint256,bytes32,bytes)": "infinite",
				"transferWithAuthorization(address,address,uint256,uint256,uint256,bytes32,uint8,bytes32,bytes32)": "infinite",
				"transferWithAuthorizationFee(address,address,address,uint256,uint256,uint256,bytes32,bytes)": "infinite",
				"transferWithAuthorizationFee(address,address,address,uint256,uint256,uint256,bytes32,uint8,bytes32,bytes32)": "infinite",
				"unBlacklist(address)": "28200",
				"unWhitelist(address)": "28219",
				"unpause()": "infinite",
				"updateBlacklister(address)": "28031",
				"updateMasterMinter(address)": "27987",
				"updatePauser(address)": "28032",
				"updateWhitelister(address)": "28055",
				"version()": "infinite",
				"whitelist(address)": "28201",
				"whitelister()": "2427"
			}
		},
		"methodIdentifiers": {
			"CANCEL_AUTHORIZATION_TYPEHASH()": "d9169487",
			"DOMAIN_SEPARATOR()": "3644e515",
			"MAX_UINT()": "e5b5019a",
			"PERMIT_TYPEHASH()": "30adf81f",
			"RECEIVE_WITH_AUTHORIZATION_TYPEHASH()": "7f2eecc3",
			"TRANSFER_WITH_AUTHORIZATION_TYPEHASH()": "a0cc6a68",
			"allowance(address,address)": "dd62ed3e",
			"approve(address,uint256)": "095ea7b3",
			"authorizationState(address,bytes32)": "e94a0102",
			"balanceOf(address)": "70a08231",
			"basisPointsRate()": "dd644f72",
			"blacklist(address)": "f9f92be4",
			"blacklister()": "bd102430",
			"burn(uint256)": "42966c68",
			"calcFee(uint256)": "75dc7d8c",
			"cancelAuthorization(address,bytes32,bytes)": "b7b72899",
			"cancelAuthorization(address,bytes32,uint8,bytes32,bytes32)": "5a049a70",
			"configureMinter(address,uint256)": "4e44d956",
			"currency()": "e5a6b10f",
			"decimals()": "313ce567",
			"decreaseAllowance(address,uint256)": "a457c2d7",
			"feeAccounts(address)": "e2e71f93",
			"increaseAllowance(address,uint256)": "39509351",
			"initialize(string,string,string,uint8,uint256,address,address,address,address)": "94d81d8d",
			"initializeV1WithFee(address[],string,address)": "2c04eb42",
			"isBlacklisted(address)": "fe575a87",
			"isMinter(address)": "aa271e1a",
			"isWhitelisted(address)": "3af32abf",
			"masterMinter()": "35d99f35",
			"maximumFee()": "35390714",
			"minterAllowance(address)": "8a6db9c3",
			"name()": "06fdde03",
			"nonces(address)": "7ecebe00",
			"owner()": "8da5cb5b",
			"pause()": "8456cb59",
			"paused()": "5c975abb",
			"pauser()": "9fd0506d",
			"permit(address,address,uint256,uint256,bytes)": "9fd5a6cf",
			"permit(address,address,uint256,uint256,uint8,bytes32,bytes32)": "d505accf",
			"receiveWithAuthorization(address,address,uint256,uint256,uint256,bytes32,bytes)": "88b7ab63",
			"receiveWithAuthorization(address,address,uint256,uint256,uint256,bytes32,uint8,bytes32,bytes32)": "ef55bec6",
			"removeMinter(address)": "3092afd5",
			"renounceOwnership()": "715018a6",
			"setOwner(address)": "13af4035",
			"setParams(uint256,uint256)": "c0324c77",
			"symbol()": "95d89b41",
			"totalFee(address)": "7a4fda3d",
			"totalSupply()": "18160ddd",
			"transfer(address,uint256)": "a9059cbb",
			"transferFrom(address,address,uint256)": "23b872dd",
			"transferOwnership(address)": "f2fde38b",
			"transferWithAuthorization(address,address,uint256,uint256,uint256,bytes32,bytes)": "cf092995",
			"transferWithAuthorization(address,address,uint256,uint256,uint256,bytes32,uint8,bytes32,bytes32)": "e3ee160e",
			"transferWithAuthorizationFee(address,address,address,uint256,uint256,uint256,bytes32,bytes)": "9801ac50",
			"transferWithAuthorizationFee(address,address,address,uint256,uint256,uint256,bytes32,uint8,bytes32,bytes32)": "315f2746",
			"unBlacklist(address)": "1a895266",
			"unWhitelist(address)": "f21af007",
			"unpause()": "3f4ba83a",
			"updateBlacklister(address)": "ad38bf22",
			"updateMasterMinter(address)": "aa20e1e4",
			"updatePauser(address)": "554bab3c",
			"updateWhitelister(address)": "458b35ee",
			"version()": "54fd4d50",
			"whitelist(address)": "9b19251a",
			"whitelister()": "22758a4a"
		}
	},
	"abi": [
		{
			"inputs": [
				{
					"internalType": "address",
					"name": "owner",
					"type": "address"
				}
			],
			"name": "OwnableInvalidOwner",
			"type": "error"
		},
		{
			"inputs": [
				{
					"internalType": "address",
					"name": "account",
					"type": "address"
				}
			],
			"name": "OwnableUnauthorizedAccount",
			"type": "error"
		},
		{
			"anonymous": false,
			"inputs": [
				{
					"indexed": true,
					"internalType": "address",
					"name": "owner",
					"type": "address"
				},
				{
					"indexed": true,
					"internalType": "address",
					"name": "spender",
					"type": "address"
				},
				{
					"indexed": false,
					"internalType": "uint256",
					"name": "value",
					"type": "uint256"
				}
			],
			"name": "Approval",
			"type": "event"
		},
		{
			"anonymous": false,
			"inputs": [
				{
					"indexed": true,
					"internalType": "address",
					"name": "authorizer",
					"type": "address"
				},
				{
					"indexed": true,
					"internalType": "bytes32",
					"name": "nonce",
					"type": "bytes32"
				}
			],
			"name": "AuthorizationCanceled",
			"type": "event"
		},
		{
			"anonymous": false,
			"inputs": [
				{
					"indexed": true,
					"internalType": "address",
					"name": "authorizer",
					"type": "address"
				},
				{
					"indexed": true,
					"internalType": "bytes32",
					"name": "nonce",
					"type": "bytes32"
				}
			],
			"name": "AuthorizationUsed",
			"type": "event"
		},
		{
			"anonymous": false,
			"inputs": [
				{
					"indexed": true,
					"internalType": "address",
					"name": "_account",
					"type": "address"
				}
			],
			"name": "Blacklisted",
			"type": "event"
		},
		{
			"anonymous": false,
			"inputs": [
				{
					"indexed": true,
					"internalType": "address",
					"name": "newBlacklister",
					"type": "address"
				}
			],
			"name": "BlacklisterChanged",
			"type": "event"
		},
		{
			"anonymous": false,
			"inputs": [
				{
					"indexed": true,
					"internalType": "address",
					"name": "burner",
					"type": "address"
				},
				{
					"indexed": false,
					"internalType": "uint256",
					"name": "amount",
					"type": "uint256"
				}
			],
			"name": "Burn",
			"type": "event"
		},
		{
			"anonymous": false,
			"inputs": [
				{
					"indexed": true,
					"internalType": "address",
					"name": "newMasterMinter",
					"type": "address"
				}
			],
			"name": "MasterMinterChanged",
			"type": "event"
		},
		{
			"anonymous": false,
			"inputs": [
				{
					"indexed": true,
					"internalType": "address",
					"name": "minter",
					"type": "address"
				},
				{
					"indexed": true,
					"internalType": "address",
					"name": "to",
					"type": "address"
				},
				{
					"indexed": false,
					"internalType": "uint256",
					"name": "amount",
					"type": "uint256"
				}
			],
			"name": "Mint",
			"type": "event"
		},
		{
			"anonymous": false,
			"inputs": [
				{
					"indexed": true,
					"internalType": "address",
					"name": "minter",
					"type": "address"
				},
				{
					"indexed": false,
					"internalType": "uint256",
					"name": "minterAllowedAmount",
					"type": "uint256"
				}
			],
			"name": "MinterConfigured",
			"type": "event"
		},
		{
			"anonymous": false,
			"inputs": [
				{
					"indexed": true,
					"internalType": "address",
					"name": "oldMinter",
					"type": "address"
				}
			],
			"name": "MinterRemoved",
			"type": "event"
		},
		{
			"anonymous": false,
			"inputs": [
				{
					"indexed": true,
					"internalType": "address",
					"name": "previousOwner",
					"type": "address"
				},
				{
					"indexed": true,
					"internalType": "address",
					"name": "newOwner",
					"type": "address"
				}
			],
			"name": "OwnershipTransferred",
			"type": "event"
		},
		{
			"anonymous": false,
			"inputs": [
				{
					"indexed": false,
					"internalType": "uint256",
					"name": "feeBasisPoints",
					"type": "uint256"
				},
				{
					"indexed": false,
					"internalType": "uint256",
					"name": "maxFee",
					"type": "uint256"
				}
			],
			"name": "Params",
			"type": "event"
		},
		{
			"anonymous": false,
			"inputs": [],
			"name": "Pause",
			"type": "event"
		},
		{
			"anonymous": false,
			"inputs": [
				{
					"indexed": false,
					"internalType": "address",
					"name": "account",
					"type": "address"
				}
			],
			"name": "Paused",
			"type": "event"
		},
		{
			"anonymous": false,
			"inputs": [
				{
					"indexed": true,
					"internalType": "address",
					"name": "newAddress",
					"type": "address"
				}
			],
			"name": "PauserChanged",
			"type": "event"
		},
		{
			"anonymous": false,
			"inputs": [
				{
					"indexed": true,
					"internalType": "address",
					"name": "from",
					"type": "address"
				},
				{
					"indexed": true,
					"internalType": "address",
					"name": "to",
					"type": "address"
				},
				{
					"indexed": false,
					"internalType": "uint256",
					"name": "value",
					"type": "uint256"
				}
			],
			"name": "Transfer",
			"type": "event"
		},
		{
			"anonymous": false,
			"inputs": [
				{
					"indexed": true,
					"internalType": "address",
					"name": "_account",
					"type": "address"
				}
			],
			"name": "UnBlacklisted",
			"type": "event"
		},
		{
			"anonymous": false,
			"inputs": [
				{
					"indexed": true,
					"internalType": "address",
					"name": "_account",
					"type": "address"
				}
			],
			"name": "UnWhitelisted",
			"type": "event"
		},
		{
			"anonymous": false,
			"inputs": [],
			"name": "Unpause",
			"type": "event"
		},
		{
			"anonymous": false,
			"inputs": [
				{
					"indexed": false,
					"internalType": "address",
					"name": "account",
					"type": "address"
				}
			],
			"name": "Unpaused",
			"type": "event"
		},
		{
			"anonymous": false,
			"inputs": [
				{
					"indexed": true,
					"internalType": "address",
					"name": "_account",
					"type": "address"
				}
			],
			"name": "Whitelisted",
			"type": "event"
		},
		{
			"anonymous": false,
			"inputs": [
				{
					"indexed": true,
					"internalType": "address",
					"name": "newWhitelister",
					"type": "address"
				}
			],
			"name": "WhitelisterChanged",
			"type": "event"
		},
		{
			"inputs": [],
			"name": "CANCEL_AUTHORIZATION_TYPEHASH",
			"outputs": [
				{
					"internalType": "bytes32",
					"name": "",
					"type": "bytes32"
				}
			],
			"stateMutability": "view",
			"type": "function"
		},
		{
			"inputs": [],
			"name": "DOMAIN_SEPARATOR",
			"outputs": [
				{
					"internalType": "bytes32",
					"name": "",
					"type": "bytes32"
				}
			],
			"stateMutability": "view",
			"type": "function"
		},
		{
			"inputs": [],
			"name": "MAX_UINT",
			"outputs": [
				{
					"internalType": "uint256",
					"name": "",
					"type": "uint256"
				}
			],
			"stateMutability": "view",
			"type": "function"
		},
		{
			"inputs": [],
			"name": "PERMIT_TYPEHASH",
			"outputs": [
				{
					"internalType": "bytes32",
					"name": "",
					"type": "bytes32"
				}
			],
			"stateMutability": "view",
			"type": "function"
		},
		{
			"inputs": [],
			"name": "RECEIVE_WITH_AUTHORIZATION_TYPEHASH",
			"outputs": [
				{
					"internalType": "bytes32",
					"name": "",
					"type": "bytes32"
				}
			],
			"stateMutability": "view",
			"type": "function"
		},
		{
			"inputs": [],
			"name": "TRANSFER_WITH_AUTHORIZATION_TYPEHASH",
			"outputs": [
				{
					"internalType": "bytes32",
					"name": "",
					"type": "bytes32"
				}
			],
			"stateMutability": "view",
			"type": "function"
		},
		{
			"inputs": [
				{
					"internalType": "address",
					"name": "owner",
					"type": "address"
				},
				{
					"internalType": "address",
					"name": "spender",
					"type": "address"
				}
			],
			"name": "allowance",
			"outputs": [
				{
					"internalType": "uint256",
					"name": "",
					"type": "uint256"
				}
			],
			"stateMutability": "view",
			"type": "function"
		},
		{
			"inputs": [
				{
					"internalType": "address",
					"name": "spender",
					"type": "address"
				},
				{
					"internalType": "uint256",
					"name": "value",
					"type": "uint256"
				}
			],
			"name": "approve",
			"outputs": [
				{
					"internalType": "bool",
					"name": "",
					"type": "bool"
				}
			],
			"stateMutability": "nonpayable",
			"type": "function"
		},
		{
			"inputs": [
				{
					"internalType": "address",
					"name": "authorizer",
					"type": "address"
				},
				{
					"internalType": "bytes32",
					"name": "nonce",
					"type": "bytes32"
				}
			],
			"name": "authorizationState",
			"outputs": [
				{
					"internalType": "bool",
					"name": "",
					"type": "bool"
				}
			],
			"stateMutability": "view",
			"type": "function"
		},
		{
			"inputs": [
				{
					"internalType": "address",
					"name": "account",
					"type": "address"
				}
			],
			"name": "balanceOf",
			"outputs": [
				{
					"internalType": "uint256",
					"name": "",
					"type": "uint256"
				}
			],
			"stateMutability": "view",
			"type": "function"
		},
		{
			"inputs": [],
			"name": "basisPointsRate",
			"outputs": [
				{
					"internalType": "uint256",
					"name": "",
					"type": "uint256"
				}
			],
			"stateMutability": "view",
			"type": "function"
		},
		{
			"inputs": [
				{
					"internalType": "address",
					"name": "_account",
					"type": "address"
				}
			],
			"name": "blacklist",
			"outputs": [],
			"stateMutability": "nonpayable",
			"type": "function"
		},
		{
			"inputs": [],
			"name": "blacklister",
			"outputs": [
				{
					"internalType": "address",
					"name": "",
					"type": "address"
				}
			],
			"stateMutability": "view",
			"type": "function"
		},
		{
			"inputs": [
				{
					"internalType": "uint256",
					"name": "_amount",
					"type": "uint256"
				}
			],
			"name": "burn",
			"outputs": [],
			"stateMutability": "nonpayable",
			"type": "function"
		},
		{
			"inputs": [
				{
					"internalType": "uint256",
					"name": "_value",
					"type": "uint256"
				}
			],
			"name": "calcFee",
			"outputs": [
				{
					"internalType": "uint256",
					"name": "",
					"type": "uint256"
				}
			],
			"stateMutability": "view",
			"type": "function"
		},
		{
			"inputs": [
				{
					"internalType": "address",
					"name": "authorizer",
					"type": "address"
				},
				{
					"internalType": "bytes32",
					"name": "nonce",
					"type": "bytes32"
				},
				{
					"internalType": "uint8",
					"name": "v",
					"type": "uint8"
				},
				{
					"internalType": "bytes32",
					"name": "r",
					"type": "bytes32"
				},
				{
					"internalType": "bytes32",
					"name": "s",
					"type": "bytes32"
				}
			],
			"name": "cancelAuthorization",
			"outputs": [],
			"stateMutability": "nonpayable",
			"type": "function"
		},
		{
			"inputs": [
				{
					"internalType": "address",
					"name": "authorizer",
					"type": "address"
				},
				{
					"internalType": "bytes32",
					"name": "nonce",
					"type": "bytes32"
				},
				{
					"internalType": "bytes",
					"name": "signature",
					"type": "bytes"
				}
			],
			"name": "cancelAuthorization",
			"outputs": [],
			"stateMutability": "nonpayable",
			"type": "function"
		},
		{
			"inputs": [
				{
					"internalType": "address",
					"name": "minter",
					"type": "address"
				},
				{
					"internalType": "uint256",
					"name": "minterAllowedAmount",
					"type": "uint256"
				}
			],
			"name": "configureMinter",
			"outputs": [
				{
					"internalType": "bool",
					"name": "",
					"type": "bool"
				}
			],
			"stateMutability": "nonpayable",
			"type": "function"
		},
		{
			"inputs": [],
			"name": "currency",
			"outputs": [
				{
					"internalType": "string",
					"name": "",
					"type": "string"
				}
			],
			"stateMutability": "view",
			"type": "function"
		},
		{
			"inputs": [],
			"name": "decimals",
			"outputs": [
				{
					"internalType": "uint8",
					"name": "",
					"type": "uint8"
				}
			],
			"stateMutability": "view",
			"type": "function"
		},
		{
			"inputs": [
				{
					"internalType": "address",
					"name": "spender",
					"type": "address"
				},
				{
					"internalType": "uint256",
					"name": "decrement",
					"type": "uint256"
				}
			],
			"name": "decreaseAllowance",
			"outputs": [
				{
					"internalType": "bool",
					"name": "",
					"type": "bool"
				}
			],
			"stateMutability": "nonpayable",
			"type": "function"
		},
		{
			"inputs": [
				{
					"internalType": "address",
					"name": "",
					"type": "address"
				}
			],
			"name": "feeAccounts",
			"outputs": [
				{
					"internalType": "uint256",
					"name": "",
					"type": "uint256"
				}
			],
			"stateMutability": "view",
			"type": "function"
		},
		{
			"inputs": [
				{
					"internalType": "address",
					"name": "spender",
					"type": "address"
				},
				{
					"internalType": "uint256",
					"name": "increment",
					"type": "uint256"
				}
			],
			"name": "increaseAllowance",
			"outputs": [
				{
					"internalType": "bool",
					"name": "",
					"type": "bool"
				}
			],
			"stateMutability": "nonpayable",
			"type": "function"
		},
		{
			"inputs": [
				{
					"internalType": "string",
					"name": "tokenName",
					"type": "string"
				},
				{
					"internalType": "string",
					"name": "tokenSymbol",
					"type": "string"
				},
				{
					"internalType": "string",
					"name": "tokenCurrency",
					"type": "string"
				},
				{
					"internalType": "uint8",
					"name": "tokenDecimals",
					"type": "uint8"
				},
				{
					"internalType": "uint256",
					"name": "tokenSupply",
					"type": "uint256"
				},
				{
					"internalType": "address",
					"name": "newMasterMinter",
					"type": "address"
				},
				{
					"internalType": "address",
					"name": "newPauser",
					"type": "address"
				},
				{
					"internalType": "address",
					"name": "newBlacklister",
					"type": "address"
				},
				{
					"internalType": "address",
					"name": "newOwner",
					"type": "address"
				}
			],
			"name": "initialize",
			"outputs": [],
			"stateMutability": "nonpayable",
			"type": "function"
		},
		{
			"inputs": [
				{
					"internalType": "address[]",
					"name": "accountsToBlacklist",
					"type": "address[]"
				},
				{
					"internalType": "string",
					"name": "newSymbol",
					"type": "string"
				},
				{
					"internalType": "address",
					"name": "lostAndFound",
					"type": "address"
				}
			],
			"name": "initializeV1WithFee",
			"outputs": [],
			"stateMutability": "nonpayable",
			"type": "function"
		},
		{
			"inputs": [
				{
					"internalType": "address",
					"name": "_account",
					"type": "address"
				}
			],
			"name": "isBlacklisted",
			"outputs": [
				{
					"internalType": "bool",
					"name": "",
					"type": "bool"
				}
			],
			"stateMutability": "view",
			"type": "function"
		},
		{
			"inputs": [
				{
					"internalType": "address",
					"name": "account",
					"type": "address"
				}
			],
			"name": "isMinter",
			"outputs": [
				{
					"internalType": "bool",
					"name": "",
					"type": "bool"
				}
			],
			"stateMutability": "view",
			"type": "function"
		},
		{
			"inputs": [
				{
					"internalType": "address",
					"name": "_account",
					"type": "address"
				}
			],
			"name": "isWhitelisted",
			"outputs": [
				{
					"internalType": "bool",
					"name": "",
					"type": "bool"
				}
			],
			"stateMutability": "view",
			"type": "function"
		},
		{
			"inputs": [],
			"name": "masterMinter",
			"outputs": [
				{
					"internalType": "address",
					"name": "",
					"type": "address"
				}
			],
			"stateMutability": "view",
			"type": "function"
		},
		{
			"inputs": [],
			"name": "maximumFee",
			"outputs": [
				{
					"internalType": "uint256",
					"name": "",
					"type": "uint256"
				}
			],
			"stateMutability": "view",
			"type": "function"
		},
		{
			"inputs": [
				{
					"internalType": "address",
					"name": "minter",
					"type": "address"
				}
			],
			"name": "minterAllowance",
			"outputs": [
				{
					"internalType": "uint256",
					"name": "",
					"type": "uint256"
				}
			],
			"stateMutability": "view",
			"type": "function"
		},
		{
			"inputs": [],
			"name": "name",
			"outputs": [
				{
					"internalType": "string",
					"name": "",
					"type": "string"
				}
			],
			"stateMutability": "view",
			"type": "function"
		},
		{
			"inputs": [
				{
					"internalType": "address",
					"name": "owner",
					"type": "address"
				}
			],
			"name": "nonces",
			"outputs": [
				{
					"internalType": "uint256",
					"name": "",
					"type": "uint256"
				}
			],
			"stateMutability": "view",
			"type": "function"
		},
		{
			"inputs": [],
			"name": "owner",
			"outputs": [
				{
					"internalType": "address",
					"name": "",
					"type": "address"
				}
			],
			"stateMutability": "view",
			"type": "function"
		},
		{
			"inputs": [],
			"name": "pause",
			"outputs": [],
			"stateMutability": "nonpayable",
			"type": "function"
		},
		{
			"inputs": [],
			"name": "paused",
			"outputs": [
				{
					"internalType": "bool",
					"name": "",
					"type": "bool"
				}
			],
			"stateMutability": "view",
			"type": "function"
		},
		{
			"inputs": [],
			"name": "pauser",
			"outputs": [
				{
					"internalType": "address",
					"name": "",
					"type": "address"
				}
			],
			"stateMutability": "view",
			"type": "function"
		},
		{
			"inputs": [
				{
					"internalType": "address",
					"name": "owner",
					"type": "address"
				},
				{
					"internalType": "address",
					"name": "spender",
					"type": "address"
				},
				{
					"internalType": "uint256",
					"name": "value",
					"type": "uint256"
				},
				{
					"internalType": "uint256",
					"name": "deadline",
					"type": "uint256"
				},
				{
					"internalType": "bytes",
					"name": "signature",
					"type": "bytes"
				}
			],
			"name": "permit",
			"outputs": [],
			"stateMutability": "nonpayable",
			"type": "function"
		},
		{
			"inputs": [
				{
					"internalType": "address",
					"name": "owner",
					"type": "address"
				},
				{
					"internalType": "address",
					"name": "spender",
					"type": "address"
				},
				{
					"internalType": "uint256",
					"name": "value",
					"type": "uint256"
				},
				{
					"internalType": "uint256",
					"name": "deadline",
					"type": "uint256"
				},
				{
					"internalType": "uint8",
					"name": "v",
					"type": "uint8"
				},
				{
					"internalType": "bytes32",
					"name": "r",
					"type": "bytes32"
				},
				{
					"internalType": "bytes32",
					"name": "s",
					"type": "bytes32"
				}
			],
			"name": "permit",
			"outputs": [],
			"stateMutability": "nonpayable",
			"type": "function"
		},
		{
			"inputs": [
				{
					"internalType": "address",
					"name": "from",
					"type": "address"
				},
				{
					"internalType": "address",
					"name": "to",
					"type": "address"
				},
				{
					"internalType": "uint256",
					"name": "value",
					"type": "uint256"
				},
				{
					"internalType": "uint256",
					"name": "validAfter",
					"type": "uint256"
				},
				{
					"internalType": "uint256",
					"name": "validBefore",
					"type": "uint256"
				},
				{
					"internalType": "bytes32",
					"name": "nonce",
					"type": "bytes32"
				},
				{
					"internalType": "bytes",
					"name": "signature",
					"type": "bytes"
				}
			],
			"name": "receiveWithAuthorization",
			"outputs": [],
			"stateMutability": "nonpayable",
			"type": "function"
		},
		{
			"inputs": [
				{
					"internalType": "address",
					"name": "from",
					"type": "address"
				},
				{
					"internalType": "address",
					"name": "to",
					"type": "address"
				},
				{
					"internalType": "uint256",
					"name": "value",
					"type": "uint256"
				},
				{
					"internalType": "uint256",
					"name": "validAfter",
					"type": "uint256"
				},
				{
					"internalType": "uint256",
					"name": "validBefore",
					"type": "uint256"
				},
				{
					"internalType": "bytes32",
					"name": "nonce",
					"type": "bytes32"
				},
				{
					"internalType": "uint8",
					"name": "v",
					"type": "uint8"
				},
				{
					"internalType": "bytes32",
					"name": "r",
					"type": "bytes32"
				},
				{
					"internalType": "bytes32",
					"name": "s",
					"type": "bytes32"
				}
			],
			"name": "receiveWithAuthorization",
			"outputs": [],
			"stateMutability": "nonpayable",
			"type": "function"
		},
		{
			"inputs": [
				{
					"internalType": "address",
					"name": "minter",
					"type": "address"
				}
			],
			"name": "removeMinter",
			"outputs": [
				{
					"internalType": "bool",
					"name": "",
					"type": "bool"
				}
			],
			"stateMutability": "nonpayable",
			"type": "function"
		},
		{
			"inputs": [],
			"name": "renounceOwnership",
			"outputs": [],
			"stateMutability": "nonpayable",
			"type": "function"
		},
		{
			"inputs": [
				{
					"internalType": "address",
					"name": "newOwner",
					"type": "address"
				}
			],
			"name": "setOwner",
			"outputs": [],
			"stateMutability": "nonpayable",
			"type": "function"
		},
		{
			"inputs": [
				{
					"internalType": "uint256",
					"name": "newBasisPoints",
					"type": "uint256"
				},
				{
					"internalType": "uint256",
					"name": "newMaxFee",
					"type": "uint256"
				}
			],
			"name": "setParams",
			"outputs": [],
			"stateMutability": "nonpayable",
			"type": "function"
		},
		{
			"inputs": [],
			"name": "symbol",
			"outputs": [
				{
					"internalType": "string",
					"name": "",
					"type": "string"
				}
			],
			"stateMutability": "view",
			"type": "function"
		},
		{
			"inputs": [
				{
					"internalType": "address",
					"name": "_account",
					"type": "address"
				}
			],
			"name": "totalFee",
			"outputs": [
				{
					"internalType": "uint256",
					"name": "",
					"type": "uint256"
				}
			],
			"stateMutability": "view",
			"type": "function"
		},
		{
			"inputs": [],
			"name": "totalSupply",
			"outputs": [
				{
					"internalType": "uint256",
					"name": "",
					"type": "uint256"
				}
			],
			"stateMutability": "view",
			"type": "function"
		},
		{
			"inputs": [
				{
					"internalType": "address",
					"name": "to",
					"type": "address"
				},
				{
					"internalType": "uint256",
					"name": "value",
					"type": "uint256"
				}
			],
			"name": "transfer",
			"outputs": [
				{
					"internalType": "bool",
					"name": "",
					"type": "bool"
				}
			],
			"stateMutability": "nonpayable",
			"type": "function"
		},
		{
			"inputs": [
				{
					"internalType": "address",
					"name": "from",
					"type": "address"
				},
				{
					"internalType": "address",
					"name": "to",
					"type": "address"
				},
				{
					"internalType": "uint256",
					"name": "value",
					"type": "uint256"
				}
			],
			"name": "transferFrom",
			"outputs": [
				{
					"internalType": "bool",
					"name": "",
					"type": "bool"
				}
			],
			"stateMutability": "nonpayable",
			"type": "function"
		},
		{
			"inputs": [
				{
					"internalType": "address",
					"name": "newOwner",
					"type": "address"
				}
			],
			"name": "transferOwnership",
			"outputs": [],
			"stateMutability": "nonpayable",
			"type": "function"
		},
		{
			"inputs": [
				{
					"internalType": "address",
					"name": "from",
					"type": "address"
				},
				{
					"internalType": "address",
					"name": "to",
					"type": "address"
				},
				{
					"internalType": "uint256",
					"name": "value",
					"type": "uint256"
				},
				{
					"internalType": "uint256",
					"name": "validAfter",
					"type": "uint256"
				},
				{
					"internalType": "uint256",
					"name": "validBefore",
					"type": "uint256"
				},
				{
					"internalType": "bytes32",
					"name": "nonce",
					"type": "bytes32"
				},
				{
					"internalType": "bytes",
					"name": "signature",
					"type": "bytes"
				}
			],
			"name": "transferWithAuthorization",
			"outputs": [],
			"stateMutability": "nonpayable",
			"type": "function"
		},
		{
			"inputs": [
				{
					"internalType": "address",
					"name": "from",
					"type": "address"
				},
				{
					"internalType": "address",
					"name": "to",
					"type": "address"
				},
				{
					"internalType": "uint256",
					"name": "value",
					"type": "uint256"
				},
				{
					"internalType": "uint256",
					"name": "validAfter",
					"type": "uint256"
				},
				{
					"internalType": "uint256",
					"name": "validBefore",
					"type": "uint256"
				},
				{
					"internalType": "bytes32",
					"name": "nonce",
					"type": "bytes32"
				},
				{
					"internalType": "uint8",
					"name": "v",
					"type": "uint8"
				},
				{
					"internalType": "bytes32",
					"name": "r",
					"type": "bytes32"
				},
				{
					"internalType": "bytes32",
					"name": "s",
					"type": "bytes32"
				}
			],
			"name": "transferWithAuthorization",
			"outputs": [],
			"stateMutability": "nonpayable",
			"type": "function"
		},
		{
			"inputs": [
				{
					"internalType": "address",
					"name": "feeAccount",
					"type": "address"
				},
				{
					"internalType": "address",
					"name": "from",
					"type": "address"
				},
				{
					"internalType": "address",
					"name": "to",
					"type": "address"
				},
				{
					"internalType": "uint256",
					"name": "value",
					"type": "uint256"
				},
				{
					"internalType": "uint256",
					"name": "validAfter",
					"type": "uint256"
				},
				{
					"internalType": "uint256",
					"name": "validBefore",
					"type": "uint256"
				},
				{
					"internalType": "bytes32",
					"name": "nonce",
					"type": "bytes32"
				},
				{
					"internalType": "uint8",
					"name": "v",
					"type": "uint8"
				},
				{
					"internalType": "bytes32",
					"name": "r",
					"type": "bytes32"
				},
				{
					"internalType": "bytes32",
					"name": "s",
					"type": "bytes32"
				}
			],
			"name": "transferWithAuthorizationFee",
			"outputs": [],
			"stateMutability": "nonpayable",
			"type": "function"
		},
		{
			"inputs": [
				{
					"internalType": "address",
					"name": "feeAccount",
					"type": "address"
				},
				{
					"internalType": "address",
					"name": "from",
					"type": "address"
				},
				{
					"internalType": "address",
					"name": "to",
					"type": "address"
				},
				{
					"internalType": "uint256",
					"name": "value",
					"type": "uint256"
				},
				{
					"internalType": "uint256",
					"name": "validAfter",
					"type": "uint256"
				},
				{
					"internalType": "uint256",
					"name": "validBefore",
					"type": "uint256"
				},
				{
					"internalType": "bytes32",
					"name": "nonce",
					"type": "bytes32"
				},
				{
					"internalType": "bytes",
					"name": "signature",
					"type": "bytes"
				}
			],
			"name": "transferWithAuthorizationFee",
			"outputs": [],
			"stateMutability": "nonpayable",
			"type": "function"
		},
		{
			"inputs": [
				{
					"internalType": "address",
					"name": "_account",
					"type": "address"
				}
			],
			"name": "unBlacklist",
			"outputs": [],
			"stateMutability": "nonpayable",
			"type": "function"
		},
		{
			"inputs": [
				{
					"internalType": "address",
					"name": "_account",
					"type": "address"
				}
			],
			"name": "unWhitelist",
			"outputs": [],
			"stateMutability": "nonpayable",
			"type": "function"
		},
		{
			"inputs": [],
			"name": "unpause",
			"outputs": [],
			"stateMutability": "nonpayable",
			"type": "function"
		},
		{
			"inputs": [
				{
					"internalType": "address",
					"name": "_newBlacklister",
					"type": "address"
				}
			],
			"name": "updateBlacklister",
			"outputs": [],
			"stateMutability": "nonpayable",
			"type": "function"
		},
		{
			"inputs": [
				{
					"internalType": "address",
					"name": "_newMasterMinter",
					"type": "address"
				}
			],
			"name": "updateMasterMinter",
			"outputs": [],
			"stateMutability": "nonpayable",
			"type": "function"
		},
		{
			"inputs": [
				{
					"internalType": "address",
					"name": "_newPauser",
					"type": "address"
				}
			],
			"name": "updatePauser",
			"outputs": [],
			"stateMutability": "nonpayable",
			"type": "function"
		},
		{
			"inputs": [
				{
					"internalType": "address",
					"name": "_newWhitelister",
					"type": "address"
				}
			],
			"name": "updateWhitelister",
			"outputs": [],
			"stateMutability": "nonpayable",
			"type": "function"
		},
		{
			"inputs": [],
			"name": "version",
			"outputs": [
				{
					"internalType": "string",
					"name": "",
					"type": "string"
				}
			],
			"stateMutability": "pure",
			"type": "function"
		},
		{
			"inputs": [
				{
					"internalType": "address",
					"name": "_account",
					"type": "address"
				}
			],
			"name": "whitelist",
			"outputs": [],
			"stateMutability": "nonpayable",
			"type": "function"
		},
		{
			"inputs": [],
			"name": "whitelister",
			"outputs": [
				{
					"internalType": "address",
					"name": "",
					"type": "address"
				}
			],
			"stateMutability": "view",
			"type": "function"
		}
	]
}