{"abi":[{"type":"function","name":"DEFAULT_ADMIN_ROLE","inputs":[],"outputs":[{"name":"","type":"bytes32","internalType":"bytes32"}],"stateMutability":"view"},{"type":"function","name":"DOMAIN_SEPARATOR","inputs":[],"outputs":[{"name":"","type":"bytes32","internalType":"bytes32"}],"stateMutability":"view"},{"type":"function","name":"MINTER_ROLE","inputs":[],"outputs":[{"name":"","type":"bytes32","internalType":"bytes32"}],"stateMutability":"view"},{"type":"function","name":"PAUSER_ROLE","inputs":[],"outputs":[{"name":"","type":"bytes32","internalType":"bytes32"}],"stateMutability":"view"},{"type":"function","name":"allowance","inputs":[{"name":"owner","type":"address","internalType":"address"},{"name":"spender","type":"address","internalType":"address"}],"outputs":[{"name":"","type":"uint256","internalType":"uint256"}],"stateMutability":"view"},{"type":"function","name":"approve","inputs":[{"name":"spender","type":"address","internalType":"address"},{"name":"amount","type":"uint256","internalType":"uint256"}],"outputs":[{"name":"","type":"bool","internalType":"bool"}],"stateMutability":"nonpayable"},{"type":"function","name":"approveAndCall","inputs":[{"name":"spender","type":"address","internalType":"address"},{"name":"amount","type":"uint256","internalType":"uint256"},{"name":"data","type":"bytes","internalType":"bytes"}],"outputs":[{"name":"","type":"bool","internalType":"bool"}],"stateMutability":"nonpayable"},{"type":"function","name":"balanceOf","inputs":[{"name":"account","type":"address","internalType":"address"}],"outputs":[{"name":"","type":"uint256","internalType":"uint256"}],"stateMutability":"view"},{"type":"function","name":"batchTransfer","inputs":[{"name":"recipients","type":"address[]","internalType":"address[]"},{"name":"amounts","type":"uint256[]","internalType":"uint256[]"}],"outputs":[],"stateMutability":"nonpayable"},{"type":"function","name":"burn","inputs":[{"name":"amount","type":"uint256","internalType":"uint256"}],"outputs":[],"stateMutability":"nonpayable"},{"type":"function","name":"burn","inputs":[{"name":"account","type":"address","internalType":"address"},{"name":"amount","type":"uint256","internalType":"uint256"}],"outputs":[],"stateMutability":"nonpayable"},{"type":"function","name":"burnFrom","inputs":[{"name":"account","type":"address","internalType":"address"},{"name":"amount","type":"uint256","internalType":"uint256"}],"outputs":[],"stateMutability":"nonpayable"},{"type":"function","name":"configureMinter","inputs":[{"name":"minter","type":"address","internalType":"address"},{"name":"minterAllowedAmount","type":"uint256","internalType":"uint256"}],"outputs":[{"name":"","type":"bool","internalType":"bool"}],"stateMutability":"nonpayable"},{"type":"function","name":"currency","inputs":[],"outputs":[{"name":"","type":"string","internalType":"string"}],"stateMutability":"view"},{"type":"function","name":"decimals","inputs":[],"outputs":[{"name":"","type":"uint8","internalType":"uint8"}],"stateMutability":"view"},{"type":"function","name":"decreaseAllowance","inputs":[{"name":"spender","type":"address","internalType":"address"},{"name":"subtractedValue","type":"uint256","internalType":"uint256"}],"outputs":[{"name":"","type":"bool","internalType":"bool"}],"stateMutability":"nonpayable"},{"type":"function","name":"eip712Domain","inputs":[],"outputs":[{"name":"fields","type":"bytes1","internalType":"bytes1"},{"name":"name","type":"string","internalType":"string"},{"name":"version","type":"string","internalType":"string"},{"name":"chainId","type":"uint256","internalType":"uint256"},{"name":"verifyingContract","type":"address","internalType":"address"},{"name":"salt","type":"bytes32","internalType":"bytes32"},{"name":"extensions","type":"uint256[]","internalType":"uint256[]"}],"stateMutability":"view"},{"type":"function","name":"getRoleAdmin","inputs":[{"name":"role","type":"bytes32","internalType":"bytes32"}],"outputs":[{"name":"","type":"bytes32","internalType":"bytes32"}],"stateMutability":"view"},{"type":"function","name":"grantRole","inputs":[{"name":"role","type":"bytes32","internalType":"bytes32"},{"name":"account","type":"address","internalType":"address"}],"outputs":[],"stateMutability":"nonpayable"},{"type":"function","name":"hasRole","inputs":[{"name":"role","type":"bytes32","internalType":"bytes32"},{"name":"account","type":"address","internalType":"address"}],"outputs":[{"name":"","type":"bool","internalType":"bool"}],"stateMutability":"view"},{"type":"function","name":"increaseAllowance","inputs":[{"name":"spender","type":"address","internalType":"address"},{"name":"addedValue","type":"uint256","internalType":"uint256"}],"outputs":[{"name":"","type":"bool","internalType":"bool"}],"stateMutability":"nonpayable"},{"type":"function","name":"initialize","inputs":[{"name":"name_","type":"string","internalType":"string"},{"name":"symbol_","type":"string","internalType":"string"}],"outputs":[],"stateMutability":"nonpayable"},{"type":"function","name":"isMinter","inputs":[{"name":"account","type":"address","internalType":"address"}],"outputs":[{"name":"","type":"bool","internalType":"bool"}],"stateMutability":"view"},{"type":"function","name":"masterMinter","inputs":[],"outputs":[{"name":"","type":"address","internalType":"address"}],"stateMutability":"view"},{"type":"function","name":"mint","inputs":[{"name":"to","type":"address","internalType":"address"},{"name":"amount","type":"uint256","internalType":"uint256"}],"outputs":[],"stateMutability":"nonpayable"},{"type":"function","name":"minterAllowance","inputs":[{"name":"minter","type":"address","internalType":"address"}],"outputs":[{"name":"","type":"uint256","internalType":"uint256"}],"stateMutability":"view"},{"type":"function","name":"name","inputs":[],"outputs":[{"name":"","type":"string","internalType":"string"}],"stateMutability":"view"},{"type":"function","name":"nonces","inputs":[{"name":"owner","type":"address","internalType":"address"}],"outputs":[{"name":"","type":"uint256","internalType":"uint256"}],"stateMutability":"view"},{"type":"function","name":"owner","inputs":[],"outputs":[{"name":"","type":"address","internalType":"address"}],"stateMutability":"view"},{"type":"function","name":"pause","inputs":[],"outputs":[],"stateMutability":"nonpayable"},{"type":"function","name":"paused","inputs":[],"outputs":[{"name":"","type":"bool","internalType":"bool"}],"stateMutability":"view"},{"type":"function","name":"permit","inputs":[{"name":"owner","type":"address","internalType":"address"},{"name":"spender","type":"address","internalType":"address"},{"name":"value","type":"uint256","internalType":"uint256"},{"name":"deadline","type":"uint256","internalType":"uint256"},{"name":"v","type":"uint8","internalType":"uint8"},{"name":"r","type":"bytes32","internalType":"bytes32"},{"name":"s","type":"bytes32","internalType":"bytes32"}],"outputs":[],"stateMutability":"nonpayable"},{"type":"function","name":"removeMinter","inputs":[{"name":"minter","type":"address","internalType":"address"}],"outputs":[{"name":"","type":"bool","internalType":"bool"}],"stateMutability":"nonpayable"},{"type":"function","name":"renounceOwnership","inputs":[],"outputs":[],"stateMutability":"nonpayable"},{"type":"function","name":"renounceRole","inputs":[{"name":"role","type":"bytes32","internalType":"bytes32"},{"name":"account","type":"address","internalType":"address"}],"outputs":[],"stateMutability":"nonpayable"},{"type":"function","name":"revokeRole","inputs":[{"name":"role","type":"bytes32","internalType":"bytes32"},{"name":"account","type":"address","internalType":"address"}],"outputs":[],"stateMutability":"nonpayable"},{"type":"function","name":"supportsInterface","inputs":[{"name":"interfaceId","type":"bytes4","internalType":"bytes4"}],"outputs":[{"name":"","type":"bool","internalType":"bool"}],"stateMutability":"view"},{"type":"function","name":"symbol","inputs":[],"outputs":[{"name":"","type":"string","internalType":"string"}],"stateMutability":"view"},{"type":"function","name":"totalSupply","inputs":[],"outputs":[{"name":"","type":"uint256","internalType":"uint256"}],"stateMutability":"view"},{"type":"function","name":"transfer","inputs":[{"name":"to","type":"address","internalType":"address"},{"name":"amount","type":"uint256","internalType":"uint256"}],"outputs":[{"name":"","type":"bool","internalType":"bool"}],"stateMutability":"nonpayable"},{"type":"function","name":"transferFrom","inputs":[{"name":"from","type":"address","internalType":"address"},{"name":"to","type":"address","internalType":"address"},{"name":"amount","type":"uint256","internalType":"uint256"}],"outputs":[{"name":"","type":"bool","internalType":"bool"}],"stateMutability":"nonpayable"},{"type":"function","name":"transferOwnership","inputs":[{"name":"newOwner","type":"address","internalType":"address"}],"outputs":[],"stateMutability":"nonpayable"},{"type":"function","name":"unpause","inputs":[],"outputs":[],"stateMutability":"nonpayable"},{"type":"function","name":"updateCurrency","inputs":[{"name":"_currency","type":"string","internalType":"string"}],"outputs":[],"stateMutability":"nonpayable"},{"type":"function","name":"updateDecimals","inputs":[{"name":"upDecimals","type":"uint8","internalType":"uint8"}],"outputs":[{"name":"","type":"bool","internalType":"bool"}],"stateMutability":"nonpayable"},{"type":"function","name":"updateMasterMinter","inputs":[{"name":"_newMasterMinter","type":"address","internalType":"address"}],"outputs":[],"stateMutability":"nonpayable"},{"type":"event","name":"Approval","inputs":[{"name":"owner","type":"address","indexed":true,"internalType":"address"},{"name":"spender","type":"address","indexed":true,"internalType":"address"},{"name":"value","type":"uint256","indexed":false,"internalType":"uint256"}],"anonymous":false},{"type":"event","name":"EIP712DomainChanged","inputs":[],"anonymous":false},{"type":"event","name":"Initialized","inputs":[{"name":"version","type":"uint8","indexed":false,"internalType":"uint8"}],"anonymous":false},{"type":"event","name":"MasterMinterChanged","inputs":[{"name":"newMasterMinter","type":"address","indexed":true,"internalType":"address"}],"anonymous":false},{"type":"event","name":"MinterConfigured","inputs":[{"name":"minter","type":"address","indexed":true,"internalType":"address"},{"name":"minterAllowedAmount","type":"uint256","indexed":false,"internalType":"uint256"}],"anonymous":false},{"type":"event","name":"MinterRemoved","inputs":[{"name":"oldMinter","type":"address","indexed":true,"internalType":"address"}],"anonymous":false},{"type":"event","name":"OwnershipTransferred","inputs":[{"name":"previousOwner","type":"address","indexed":true,"internalType":"address"},{"name":"newOwner","type":"address","indexed":true,"internalType":"address"}],"anonymous":false},{"type":"event","name":"Paused","inputs":[{"name":"account","type":"address","indexed":false,"internalType":"address"}],"anonymous":false},{"type":"event","name":"RoleAdminChanged","inputs":[{"name":"role","type":"bytes32","indexed":true,"internalType":"bytes32"},{"name":"previousAdminRole","type":"bytes32","indexed":true,"internalType":"bytes32"},{"name":"newAdminRole","type":"bytes32","indexed":true,"internalType":"bytes32"}],"anonymous":false},{"type":"event","name":"RoleGranted","inputs":[{"name":"role","type":"bytes32","indexed":true,"internalType":"bytes32"},{"name":"account","type":"address","indexed":true,"internalType":"address"},{"name":"sender","type":"address","indexed":true,"internalType":"address"}],"anonymous":false},{"type":"event","name":"RoleRevoked","inputs":[{"name":"role","type":"bytes32","indexed":true,"internalType":"bytes32"},{"name":"account","type":"address","indexed":true,"internalType":"address"},{"name":"sender","type":"address","indexed":true,"internalType":"address"}],"anonymous":false},{"type":"event","name":"Transfer","inputs":[{"name":"from","type":"address","indexed":true,"internalType":"address"},{"name":"to","type":"address","indexed":true,"internalType":"address"},{"name":"value","type":"uint256","indexed":false,"internalType":"uint256"}],"anonymous":false},{"type":"event","name":"Unpaused","inputs":[{"name":"account","type":"address","indexed":false,"internalType":"address"}],"anonymous":false}],"bytecode":{"object":"0x6080604052348015600f57600080fd5b506140758061001f6000396000f3fe608060405234801561001057600080fd5b506004361061030a5760003560e01c80637ecebe001161019c578063a9059cbb116100ee578063d547741f11610097578063e5a6b10f11610071578063e5a6b10f14610784578063e63ab1e91461078c578063f2fde38b146107b357600080fd5b8063d547741f14610718578063d6a7e1691461072b578063dd62ed3e1461073e57600080fd5b8063cae9ca51116100c8578063cae9ca51146106cb578063d505accf146106de578063d5391393146106f157600080fd5b8063a9059cbb1461066b578063aa20e1e41461067e578063aa271e1a1461069157600080fd5b80638da5cb5b116101505780639dc29fac1161012a5780639dc29fac1461063d578063a217fddf14610650578063a457c2d71461065857600080fd5b80638da5cb5b146105d057806391d14854146105ee57806395d89b411461063557600080fd5b806384b0196e1161018157806384b0196e1461056b57806388d695b2146105865780638a6db9c31461059957600080fd5b80637ecebe00146105505780638456cb591461056357600080fd5b80633644e515116102605780634cd88b761161020957806370a08231116101e357806370a08231146104ff578063715018a61461053557806379cc67901461053d57600080fd5b80634cd88b76146104ce5780634e44d956146104e15780635c975abb146104f457600080fd5b80633f4ba83a1161023a5780633f4ba83a146104a057806340c10f19146104a857806342966c68146104bb57600080fd5b80633644e5151461047257806336568abe1461047a578063395093511461048d57600080fd5b806323b872dd116102c25780633092afd51161029c5780633092afd514610403578063313ce5671461041657806335d99f351461042c57600080fd5b806323b872dd146103b7578063248a9ca3146103ca5780632f2ff15d146103ee57600080fd5b8063095ea7b3116102f3578063095ea7b31461034c5780630ce83a611461035f57806318160ddd146103a557600080fd5b806301ffc9a71461030f57806306fdde0314610337575b600080fd5b61032261031d366004613663565b6107c6565b60405190151581526020015b60405180910390f35b61033f61085f565b60405161032e9190613713565b61032261035a36600461374a565b6108f1565b61032261036d366004613785565b6101fb80547fffffffffffffffffffffffffffffffffffffffffffffffffffffffffffffff001660ff92909216919091179055600190565b6035545b60405190815260200161032e565b6103226103c53660046137a0565b610909565b6103a96103d83660046137dd565b60009081526101c6602052604090206001015490565b6104016103fc3660046137f6565b610931565b005b610322610411366004613822565b61095c565b6101fb5460405160ff909116815260200161032e565b6101f95461044d9073ffffffffffffffffffffffffffffffffffffffff1681565b60405173ffffffffffffffffffffffffffffffffffffffff909116815260200161032e565b6103a9610a95565b6104016104883660046137f6565b610aa4565b61032261049b36600461374a565b610b57565b610401610ba3565b6104016104b636600461374a565b610c73565b6104016104c93660046137dd565b610d25565b6104016104dc366004613955565b610dd9565b6103226104ef36600461374a565b610fee565b60975460ff16610322565b6103a961050d366004613822565b73ffffffffffffffffffffffffffffffffffffffff1660009081526033602052604090205490565b610401611130565b61040161054b36600461374a565b611142565b6103a961055e366004613822565b6111f4565b610401611220565b6105736112ee565b60405161032e97969594939291906139be565b610401610594366004613b06565b6113cc565b6103a96105a7366004613822565b73ffffffffffffffffffffffffffffffffffffffff1660009081526101fa602052604090205490565b60fb5473ffffffffffffffffffffffffffffffffffffffff1661044d565b6103226105fc3660046137f6565b60009182526101c66020908152604080842073ffffffffffffffffffffffffffffffffffffffff93909316845291905290205460ff1690565b61033f6114ae565b61040161064b36600461374a565b6114bd565b6103a9600081565b61032261066636600461374a565b61156f565b61032261067936600461374a565b611640565b61040161068c366004613822565b61165c565b61032261069f366004613822565b73ffffffffffffffffffffffffffffffffffffffff1660009081526101f8602052604090205460ff1690565b6103226106d9366004613bc5565b61176f565b6104016106ec366004613c30565b611850565b6103a97f9f2df0fed2c77648de5860a4cc508cd0818c85b8b8a1ab4ceeef8d981c8956a681565b6104016107263660046137f6565b611a0f565b610401610739366004613c9b565b611a35565b6103a961074c366004613cd8565b73ffffffffffffffffffffffffffffffffffffffff918216600090815260346020908152604080832093909416825291909152205490565b61033f611a42565b6103a97f65d7a28e3265b37a6474929f336521b332c1681b933f6cb9f3376673440d862a81565b6104016107c1366004613822565b611ad1565b60007fffffffff0000000000000000000000000000000000000000000000000000000082167f7965db0b00000000000000000000000000000000000000000000000000000000148061085957507f01ffc9a7000000000000000000000000000000000000000000000000000000007fffffffff000000000000000000000000000000000000000000000000000000008316145b92915050565b60606036805461086e90613d02565b80601f016020809104026020016040519081016040528092919081815260200182805461089a90613d02565b80156108e75780601f106108bc576101008083540402835291602001916108e7565b820191906000526020600020905b8154815290600101906020018083116108ca57829003601f168201915b5050505050905090565b6000336108ff818585611b85565b5060019392505050565b6000610913611d38565b61091b611da5565b610926848484611e26565b506001949350505050565b60008281526101c6602052604090206001015461094d81611e3f565b6109578383611e49565b505050565b6101f95460009073ffffffffffffffffffffffffffffffffffffffff163314610a0c576040517f08c379a000000000000000000000000000000000000000000000000000000000815260206004820152602a60248201527f4d696e74657261626c653a2063616c6c6572206973206e6f7420746865206d6160448201527f737465724d696e7465720000000000000000000000000000000000000000000060648201526084015b60405180910390fd5b73ffffffffffffffffffffffffffffffffffffffff821660008181526101f86020908152604080832080547fffffffffffffffffffffffffffffffffffffffffffffffffffffffffffffff001690556101fa909152808220829055517fe94479a9f7e1952cc78f2d6baab678adc1b772d936c6583def489e524cb666929190a25060015b919050565b6000610a9f611f3f565b905090565b73ffffffffffffffffffffffffffffffffffffffff81163314610b49576040517f08c379a000000000000000000000000000000000000000000000000000000000815260206004820152602f60248201527f416363657373436f6e74726f6c3a2063616e206f6e6c792072656e6f756e636560448201527f20726f6c657320666f722073656c6600000000000000000000000000000000006064820152608401610a03565b610b538282611f49565b5050565b33600081815260346020908152604080832073ffffffffffffffffffffffffffffffffffffffff871684529091528120549091906108ff9082908690610b9e908790613d7e565b611b85565b610bab612006565b610bb3611da5565b610bdd7f65d7a28e3265b37a6474929f336521b332c1681b933f6cb9f3376673440d862a336105fc565b610c69576040517f08c379a000000000000000000000000000000000000000000000000000000000815260206004820152603a60248201527f546f6b656e426173655570677261646561626c6554656d703a206d757374206860448201527f6176652070617573657220726f6c6520746f20756e70617573650000000000006064820152608401610a03565b610c71612072565b565b610c7b611d38565b3360009081526101f8602052604090205460ff16610d1b576040517f08c379a000000000000000000000000000000000000000000000000000000000815260206004820152602260248201527f4d696e74657261626c653a2063616c6c6572206973206e6f742061206d696e7460448201527f65720000000000000000000000000000000000000000000000000000000000006064820152608401610a03565b610b5382826120ef565b610d2d611d38565b3360009081526101f8602052604090205460ff16610dcd576040517f08c379a000000000000000000000000000000000000000000000000000000000815260206004820152602260248201527f4d696e74657261626c653a2063616c6c6572206973206e6f742061206d696e7460448201527f65720000000000000000000000000000000000000000000000000000000000006064820152608401610a03565b610dd6816121f0565b50565b600054610100900460ff1615808015610df95750600054600160ff909116105b80610e135750303b158015610e13575060005460ff166001145b610e9f576040517f08c379a000000000000000000000000000000000000000000000000000000000815260206004820152602e60248201527f496e697469616c697a61626c653a20636f6e747261637420697320616c72656160448201527f647920696e697469616c697a65640000000000000000000000000000000000006064820152608401610a03565b600080547fffffffffffffffffffffffffffffffffffffffffffffffffffffffffffffff001660011790558015610efd57600080547fffffffffffffffffffffffffffffffffffffffffffffffffffffffffffff00ff166101001790555b610f0783836121fa565b610f108361229b565b610f18612371565b610f20612408565b610f286124a7565b610f33600033612546565b610f5d7f65d7a28e3265b37a6474929f336521b332c1681b933f6cb9f3376673440d862a33612546565b610f877f9f2df0fed2c77648de5860a4cc508cd0818c85b8b8a1ab4ceeef8d981c8956a633612546565b801561095757600080547fffffffffffffffffffffffffffffffffffffffffffffffffffffffffffff00ff169055604051600181527f7f26b83ff96e1f2b6a682f133852f6798a09c465da95921460cefb38474024989060200160405180910390a1505050565b6101f95460009073ffffffffffffffffffffffffffffffffffffffff163314611099576040517f08c379a000000000000000000000000000000000000000000000000000000000815260206004820152602a60248201527f4d696e74657261626c653a2063616c6c6572206973206e6f7420746865206d6160448201527f737465724d696e746572000000000000000000000000000000000000000000006064820152608401610a03565b73ffffffffffffffffffffffffffffffffffffffff831660008181526101f86020908152604080832080547fffffffffffffffffffffffffffffffffffffffffffffffffffffffffffffff001660011790556101fa82529182902085905590518481527f46980fca912ef9bcdbd36877427b6b90e860769f604e89c0e67720cece530d20910160405180910390a250600192915050565b611138611da5565b610c716000612550565b61114a611d38565b3360009081526101f8602052604090205460ff166111ea576040517f08c379a000000000000000000000000000000000000000000000000000000000815260206004820152602260248201527f4d696e74657261626c653a2063616c6c6572206973206e6f742061206d696e7460448201527f65720000000000000000000000000000000000000000000000000000000000006064820152608401610a03565b610b5382826125c7565b73ffffffffffffffffffffffffffffffffffffffff811660009081526101616020526040812054610859565b611228611d38565b611230611da5565b61125a7f65d7a28e3265b37a6474929f336521b332c1681b933f6cb9f3376673440d862a336105fc565b6112e6576040517f08c379a000000000000000000000000000000000000000000000000000000000815260206004820152603860248201527f546f6b656e426173655570677261646561626c6554656d703a206d757374206860448201527f6176652070617573657220726f6c6520746f20706175736500000000000000006064820152608401610a03565b610c716125d2565b60006060806000806000606061012d546000801b148015611310575061012e54155b611376576040517f08c379a000000000000000000000000000000000000000000000000000000000815260206004820152601560248201527f4549503731323a20556e696e697469616c697a656400000000000000000000006044820152606401610a03565b61137e61262d565b61138661263d565b604080516000808252602082019092527f0f000000000000000000000000000000000000000000000000000000000000009b939a50919850469750309650945092509050565b805182511461145d576040517f08c379a000000000000000000000000000000000000000000000000000000000815260206004820152602660248201527f526563697069656e747320616e6420616d6f756e7473206c656e677468206d6960448201527f736d6174636800000000000000000000000000000000000000000000000000006064820152608401610a03565b60005b8251811015610957576114a583828151811061147e5761147e613d91565b602002602001015183838151811061149857611498613d91565b6020026020010151611640565b50600101611460565b60606037805461086e90613d02565b6114c5611d38565b3360009081526101f8602052604090205460ff16611565576040517f08c379a000000000000000000000000000000000000000000000000000000000815260206004820152602260248201527f4d696e74657261626c653a2063616c6c6572206973206e6f742061206d696e7460448201527f65720000000000000000000000000000000000000000000000000000000000006064820152608401610a03565b610b53828261264d565b33600081815260346020908152604080832073ffffffffffffffffffffffffffffffffffffffff8716845290915281205490919083811015611633576040517f08c379a000000000000000000000000000000000000000000000000000000000815260206004820152602560248201527f45524332303a2064656372656173656420616c6c6f77616e63652062656c6f7760448201527f207a65726f0000000000000000000000000000000000000000000000000000006064820152608401610a03565b6109268286868403611b85565b600061164a611d38565b611652611da5565b6108ff838361281f565b73ffffffffffffffffffffffffffffffffffffffff81166116ff576040517f08c379a000000000000000000000000000000000000000000000000000000000815260206004820152603060248201527f4d696e74657261626c653a206e6577206d61737465724d696e7465722069732060448201527f746865207a65726f2061646472657373000000000000000000000000000000006064820152608401610a03565b6101f980547fffffffffffffffffffffffff00000000000000000000000000000000000000001673ffffffffffffffffffffffffffffffffffffffff83169081179091556040517fdb66dfa9c6b8f5226fe9aac7e51897ae8ee94ac31dc70bb6c9900b2574b707e690600090a250565b600061177c338585611b85565b60008473ffffffffffffffffffffffffffffffffffffffff16836040516117a39190613dc0565b6000604051808303816000865af19150503d80600081146117e0576040519150601f19603f3d011682016040523d82523d6000602084013e6117e5565b606091505b5050905080610926576040517f08c379a000000000000000000000000000000000000000000000000000000000815260206004820152601660248201527f43616c6c20746f207370656e646572206661696c6564000000000000000000006044820152606401610a03565b834211156118ba576040517f08c379a000000000000000000000000000000000000000000000000000000000815260206004820152601d60248201527f45524332305065726d69743a206578706972656420646561646c696e650000006044820152606401610a03565b60007f6e71edae12b1b97f4d1f60370fef10105fa2faae0126114a169c64845d6126c98888886118e98c61282d565b60408051602081019690965273ffffffffffffffffffffffffffffffffffffffff94851690860152929091166060840152608083015260a082015260c0810186905260e001604051602081830303815290604052805190602001209050600061195182612863565b90506000611961828787876128ab565b90508973ffffffffffffffffffffffffffffffffffffffff168173ffffffffffffffffffffffffffffffffffffffff16146119f8576040517f08c379a000000000000000000000000000000000000000000000000000000000815260206004820152601e60248201527f45524332305065726d69743a20696e76616c6964207369676e617475726500006044820152606401610a03565b611a038a8a8a611b85565b50505050505050505050565b60008281526101c66020526040902060010154611a2b81611e3f565b6109578383611f49565b6101fc610b538282613e2a565b6101fc8054611a5090613d02565b80601f0160208091040260200160405190810160405280929190818152602001828054611a7c90613d02565b8015611ac95780601f10611a9e57610100808354040283529160200191611ac9565b820191906000526020600020905b815481529060010190602001808311611aac57829003601f168201915b505050505081565b611ad9611da5565b73ffffffffffffffffffffffffffffffffffffffff8116611b7c576040517f08c379a000000000000000000000000000000000000000000000000000000000815260206004820152602660248201527f4f776e61626c653a206e6577206f776e657220697320746865207a65726f206160448201527f64647265737300000000000000000000000000000000000000000000000000006064820152608401610a03565b610dd681612550565b73ffffffffffffffffffffffffffffffffffffffff8316611c27576040517f08c379a0000000000000000000000000000000000000000000000000000000008152602060048201526024808201527f45524332303a20617070726f76652066726f6d20746865207a65726f2061646460448201527f72657373000000000000000000000000000000000000000000000000000000006064820152608401610a03565b73ffffffffffffffffffffffffffffffffffffffff8216611cca576040517f08c379a000000000000000000000000000000000000000000000000000000000815260206004820152602260248201527f45524332303a20617070726f766520746f20746865207a65726f20616464726560448201527f73730000000000000000000000000000000000000000000000000000000000006064820152608401610a03565b73ffffffffffffffffffffffffffffffffffffffff83811660008181526034602090815260408083209487168084529482529182902085905590518481527f8c5be1e5ebec7d5bd14f71427d1e84f3dd0314c0f7b2291e5b200ac8c7c3b925910160405180910390a3505050565b60975460ff1615610c71576040517f08c379a000000000000000000000000000000000000000000000000000000000815260206004820152601060248201527f5061757361626c653a20706175736564000000000000000000000000000000006044820152606401610a03565b60fb5473ffffffffffffffffffffffffffffffffffffffff163314610c71576040517f08c379a000000000000000000000000000000000000000000000000000000000815260206004820181905260248201527f4f776e61626c653a2063616c6c6572206973206e6f7420746865206f776e65726044820152606401610a03565b600033611e348582856128d3565b6109268585856129aa565b610dd68133612c2b565b60008281526101c66020908152604080832073ffffffffffffffffffffffffffffffffffffffff8516845290915290205460ff16610b535760008281526101c66020908152604080832073ffffffffffffffffffffffffffffffffffffffff85168452909152902080547fffffffffffffffffffffffffffffffffffffffffffffffffffffffffffffff00166001179055611ee13390565b73ffffffffffffffffffffffffffffffffffffffff168173ffffffffffffffffffffffffffffffffffffffff16837f2f8788117e7eff1d82e926ec794901d17c78024a50270940304540a733656f0d60405160405180910390a45050565b6000610a9f612ce6565b60008281526101c66020908152604080832073ffffffffffffffffffffffffffffffffffffffff8516845290915290205460ff1615610b535760008281526101c66020908152604080832073ffffffffffffffffffffffffffffffffffffffff8516808552925280832080547fffffffffffffffffffffffffffffffffffffffffffffffffffffffffffffff0016905551339285917ff6391f5c32d9c69d2a47ea670b442974b53935d1edc7fd64eb21e047a839171b9190a45050565b60975460ff16610c71576040517f08c379a000000000000000000000000000000000000000000000000000000000815260206004820152601460248201527f5061757361626c653a206e6f74207061757365640000000000000000000000006044820152606401610a03565b61207a612006565b609780547fffffffffffffffffffffffffffffffffffffffffffffffffffffffffffffff001690557f5db9ee0a495bf2e6ff9c91a7834c1ba4fdd244a5e8aa4e537bd38aeae4b073aa335b60405173ffffffffffffffffffffffffffffffffffffffff909116815260200160405180910390a1565b73ffffffffffffffffffffffffffffffffffffffff821661216c576040517f08c379a000000000000000000000000000000000000000000000000000000000815260206004820152601f60248201527f45524332303a206d696e7420746f20746865207a65726f2061646472657373006044820152606401610a03565b61217860008383612d5a565b806035600082825461218a9190613d7e565b909155505073ffffffffffffffffffffffffffffffffffffffff82166000818152603360209081526040808320805486019055518481527fddf252ad1be2c89b69c2b068fc378daa952ba7f163c4a11628f55a4df523b3ef910160405180910390a35050565b610dd6338261264d565b600054610100900460ff16612291576040517f08c379a000000000000000000000000000000000000000000000000000000000815260206004820152602b60248201527f496e697469616c697a61626c653a20636f6e7472616374206973206e6f74206960448201527f6e697469616c697a696e670000000000000000000000000000000000000000006064820152608401610a03565b610b538282612d65565b600054610100900460ff16612332576040517f08c379a000000000000000000000000000000000000000000000000000000000815260206004820152602b60248201527f496e697469616c697a61626c653a20636f6e7472616374206973206e6f74206960448201527f6e697469616c697a696e670000000000000000000000000000000000000000006064820152608401610a03565b610dd6816040518060400160405280600181526020017f3100000000000000000000000000000000000000000000000000000000000000815250612e15565b600054610100900460ff16610c71576040517f08c379a000000000000000000000000000000000000000000000000000000000815260206004820152602b60248201527f496e697469616c697a61626c653a20636f6e7472616374206973206e6f74206960448201527f6e697469616c697a696e670000000000000000000000000000000000000000006064820152608401610a03565b600054610100900460ff1661249f576040517f08c379a000000000000000000000000000000000000000000000000000000000815260206004820152602b60248201527f496e697469616c697a61626c653a20636f6e7472616374206973206e6f74206960448201527f6e697469616c697a696e670000000000000000000000000000000000000000006064820152608401610a03565b610c71612ed8565b600054610100900460ff1661253e576040517f08c379a000000000000000000000000000000000000000000000000000000000815260206004820152602b60248201527f496e697469616c697a61626c653a20636f6e7472616374206973206e6f74206960448201527f6e697469616c697a696e670000000000000000000000000000000000000000006064820152608401610a03565b610c71612f99565b610b538282611e49565b60fb805473ffffffffffffffffffffffffffffffffffffffff8381167fffffffffffffffffffffffff0000000000000000000000000000000000000000831681179093556040519116919082907f8be0079c531659141344cd1fd0a4f28419497f9722a3daafe3b4186f6b6457e090600090a35050565b6115658233836128d3565b6125da611d38565b609780547fffffffffffffffffffffffffffffffffffffffffffffffffffffffffffffff001660011790557f62e78cea01bee320cd4e420270b5ea74000d11b0c9f74754ebdbfc544b05a2586120c53390565b606061012f805461086e90613d02565b6060610130805461086e90613d02565b73ffffffffffffffffffffffffffffffffffffffff82166126f0576040517f08c379a000000000000000000000000000000000000000000000000000000000815260206004820152602160248201527f45524332303a206275726e2066726f6d20746865207a65726f2061646472657360448201527f73000000000000000000000000000000000000000000000000000000000000006064820152608401610a03565b6126fc82600083612d5a565b73ffffffffffffffffffffffffffffffffffffffff8216600090815260336020526040902054818110156127b2576040517f08c379a000000000000000000000000000000000000000000000000000000000815260206004820152602260248201527f45524332303a206275726e20616d6f756e7420657863656564732062616c616e60448201527f63650000000000000000000000000000000000000000000000000000000000006064820152608401610a03565b73ffffffffffffffffffffffffffffffffffffffff831660008181526033602090815260408083208686039055603580548790039055518581529192917fddf252ad1be2c89b69c2b068fc378daa952ba7f163c4a11628f55a4df523b3ef910160405180910390a3505050565b6000336108ff8185856129aa565b73ffffffffffffffffffffffffffffffffffffffff81166000908152610161602052604090208054600181018255905b50919050565b6000610859612870611f3f565b836040517f19010000000000000000000000000000000000000000000000000000000000008152600281019290925260228201526042902090565b60008060006128bc87878787613039565b915091506128c981613128565b5095945050505050565b73ffffffffffffffffffffffffffffffffffffffff8381166000908152603460209081526040808320938616835292905220547fffffffffffffffffffffffffffffffffffffffffffffffffffffffffffffffff81146129a45781811015612997576040517f08c379a000000000000000000000000000000000000000000000000000000000815260206004820152601d60248201527f45524332303a20696e73756666696369656e7420616c6c6f77616e63650000006044820152606401610a03565b6129a48484848403611b85565b50505050565b73ffffffffffffffffffffffffffffffffffffffff8316612a4d576040517f08c379a000000000000000000000000000000000000000000000000000000000815260206004820152602560248201527f45524332303a207472616e736665722066726f6d20746865207a65726f20616460448201527f64726573730000000000000000000000000000000000000000000000000000006064820152608401610a03565b73ffffffffffffffffffffffffffffffffffffffff8216612af0576040517f08c379a000000000000000000000000000000000000000000000000000000000815260206004820152602360248201527f45524332303a207472616e7366657220746f20746865207a65726f206164647260448201527f65737300000000000000000000000000000000000000000000000000000000006064820152608401610a03565b612afb838383612d5a565b73ffffffffffffffffffffffffffffffffffffffff831660009081526033602052604090205481811015612bb1576040517f08c379a000000000000000000000000000000000000000000000000000000000815260206004820152602660248201527f45524332303a207472616e7366657220616d6f756e742065786365656473206260448201527f616c616e636500000000000000000000000000000000000000000000000000006064820152608401610a03565b73ffffffffffffffffffffffffffffffffffffffff80851660008181526033602052604080822086860390559286168082529083902080548601905591517fddf252ad1be2c89b69c2b068fc378daa952ba7f163c4a11628f55a4df523b3ef90612c1e9086815260200190565b60405180910390a36129a4565b60008281526101c66020908152604080832073ffffffffffffffffffffffffffffffffffffffff8516845290915290205460ff16610b5357612c6c816132db565b612c778360206132fa565b604051602001612c88929190613f43565b604080517fffffffffffffffffffffffffffffffffffffffffffffffffffffffffffffffe0818403018152908290527f08c379a0000000000000000000000000000000000000000000000000000000008252610a0391600401613713565b60007f8b73c3c69bb8fe3d512ecc4cf759cc79239f7b179b0ffacaa9a75d522b39400f612d11613544565b612d1961359e565b60408051602081019490945283019190915260608201524660808201523060a082015260c00160405160208183030381529060405280519060200120905090565b6109578383836135d0565b600054610100900460ff16612dfc576040517f08c379a000000000000000000000000000000000000000000000000000000000815260206004820152602b60248201527f496e697469616c697a61626c653a20636f6e7472616374206973206e6f74206960448201527f6e697469616c697a696e670000000000000000000000000000000000000000006064820152608401610a03565b6036612e088382613e2a565b5060376109578282613e2a565b600054610100900460ff16612eac576040517f08c379a000000000000000000000000000000000000000000000000000000000815260206004820152602b60248201527f496e697469616c697a61626c653a20636f6e7472616374206973206e6f74206960448201527f6e697469616c697a696e670000000000000000000000000000000000000000006064820152608401610a03565b61012f612eb98382613e2a565b50610130612ec78282613e2a565b5050600061012d81905561012e5550565b600054610100900460ff16612f6f576040517f08c379a000000000000000000000000000000000000000000000000000000000815260206004820152602b60248201527f496e697469616c697a61626c653a20636f6e7472616374206973206e6f74206960448201527f6e697469616c697a696e670000000000000000000000000000000000000000006064820152608401610a03565b609780547fffffffffffffffffffffffffffffffffffffffffffffffffffffffffffffff00169055565b600054610100900460ff16613030576040517f08c379a000000000000000000000000000000000000000000000000000000000815260206004820152602b60248201527f496e697469616c697a61626c653a20636f6e7472616374206973206e6f74206960448201527f6e697469616c697a696e670000000000000000000000000000000000000000006064820152608401610a03565b610c7133612550565b6000807f7fffffffffffffffffffffffffffffff5d576e7357a4501ddfe92f46681b20a0831115613070575060009050600361311f565b6040805160008082526020820180845289905260ff881692820192909252606081018690526080810185905260019060a0016020604051602081039080840390855afa1580156130c4573d6000803e3d6000fd5b50506040517fffffffffffffffffffffffffffffffffffffffffffffffffffffffffffffffe0015191505073ffffffffffffffffffffffffffffffffffffffff81166131185760006001925092505061311f565b9150600090505b94509492505050565b600081600481111561313c5761313c613fc4565b036131445750565b600181600481111561315857613158613fc4565b036131bf576040517f08c379a000000000000000000000000000000000000000000000000000000000815260206004820152601860248201527f45434453413a20696e76616c6964207369676e617475726500000000000000006044820152606401610a03565b60028160048111156131d3576131d3613fc4565b0361323a576040517f08c379a000000000000000000000000000000000000000000000000000000000815260206004820152601f60248201527f45434453413a20696e76616c6964207369676e6174757265206c656e677468006044820152606401610a03565b600381600481111561324e5761324e613fc4565b03610dd6576040517f08c379a000000000000000000000000000000000000000000000000000000000815260206004820152602260248201527f45434453413a20696e76616c6964207369676e6174757265202773272076616c60448201527f75650000000000000000000000000000000000000000000000000000000000006064820152608401610a03565b606061085973ffffffffffffffffffffffffffffffffffffffff831660145b60606000613309836002613ff3565b613314906002613d7e565b67ffffffffffffffff81111561332c5761332c61383d565b6040519080825280601f01601f191660200182016040528015613356576020820181803683370190505b5090507f30000000000000000000000000000000000000000000000000000000000000008160008151811061338d5761338d613d91565b60200101907effffffffffffffffffffffffffffffffffffffffffffffffffffffffffffff1916908160001a9053507f7800000000000000000000000000000000000000000000000000000000000000816001815181106133f0576133f0613d91565b60200101907effffffffffffffffffffffffffffffffffffffffffffffffffffffffffffff1916908160001a905350600061342c846002613ff3565b613437906001613d7e565b90505b60018111156134d4577f303132333435363738396162636465660000000000000000000000000000000085600f166010811061347857613478613d91565b1a60f81b82828151811061348e5761348e613d91565b60200101907effffffffffffffffffffffffffffffffffffffffffffffffffffffffffffff1916908160001a90535060049490941c936134cd8161400a565b905061343a565b50831561353d576040517f08c379a000000000000000000000000000000000000000000000000000000000815260206004820181905260248201527f537472696e67733a20686578206c656e67746820696e73756666696369656e746044820152606401610a03565b9392505050565b60008061354f61262d565b805190915015613566578051602090910120919050565b61012d5480156135765792915050565b7fc5d2460186f7233c927e7db2dcc703c0e500b653ca82273b7bfad8045d85a4709250505090565b6000806135a961263d565b8051909150156135c0578051602090910120919050565b61012e5480156135765792915050565b60975460ff1615610957576040517f08c379a000000000000000000000000000000000000000000000000000000000815260206004820152602a60248201527f45524332305061757361626c653a20746f6b656e207472616e7366657220776860448201527f696c6520706175736564000000000000000000000000000000000000000000006064820152608401610a03565b60006020828403121561367557600080fd5b81357fffffffff000000000000000000000000000000000000000000000000000000008116811461353d57600080fd5b60005b838110156136c05781810151838201526020016136a8565b50506000910152565b600081518084526136e18160208601602086016136a5565b601f017fffffffffffffffffffffffffffffffffffffffffffffffffffffffffffffffe0169290920160200192915050565b60208152600061353d60208301846136c9565b803573ffffffffffffffffffffffffffffffffffffffff81168114610a9057600080fd5b6000806040838503121561375d57600080fd5b61376683613726565b946020939093013593505050565b803560ff81168114610a9057600080fd5b60006020828403121561379757600080fd5b61353d82613774565b6000806000606084860312156137b557600080fd5b6137be84613726565b92506137cc60208501613726565b929592945050506040919091013590565b6000602082840312156137ef57600080fd5b5035919050565b6000806040838503121561380957600080fd5b8235915061381960208401613726565b90509250929050565b60006020828403121561383457600080fd5b61353d82613726565b7f4e487b7100000000000000000000000000000000000000000000000000000000600052604160045260246000fd5b604051601f82017fffffffffffffffffffffffffffffffffffffffffffffffffffffffffffffffe016810167ffffffffffffffff811182821017156138b3576138b361383d565b604052919050565b60008067ffffffffffffffff8411156138d6576138d661383d565b50601f83017fffffffffffffffffffffffffffffffffffffffffffffffffffffffffffffffe0166020016139098161386c565b91505082815283838301111561391e57600080fd5b828260208301376000602084830101529392505050565b600082601f83011261394657600080fd5b61353d838335602085016138bb565b6000806040838503121561396857600080fd5b823567ffffffffffffffff81111561397f57600080fd5b61398b85828601613935565b925050602083013567ffffffffffffffff8111156139a857600080fd5b6139b485828601613935565b9150509250929050565b7fff000000000000000000000000000000000000000000000000000000000000008816815260e0602082015260006139f960e08301896136c9565b8281036040840152613a0b81896136c9565b6060840188905273ffffffffffffffffffffffffffffffffffffffff8716608085015260a0840186905283810360c08501528451808252602080870193509091019060005b81811015613a6e578351835260209384019390920191600101613a50565b50909b9a5050505050505050505050565b600067ffffffffffffffff821115613a9957613a9961383d565b5060051b60200190565b600082601f830112613ab457600080fd5b8135613ac7613ac282613a7f565b61386c565b8082825260208201915060208360051b860101925085831115613ae957600080fd5b602085015b838110156128c9578035835260209283019201613aee565b60008060408385031215613b1957600080fd5b823567ffffffffffffffff811115613b3057600080fd5b8301601f81018513613b4157600080fd5b8035613b4f613ac282613a7f565b8082825260208201915060208360051b850101925087831115613b7157600080fd5b6020840193505b82841015613b9a57613b8984613726565b825260209384019390910190613b78565b9450505050602083013567ffffffffffffffff811115613bb957600080fd5b6139b485828601613aa3565b600080600060608486031215613bda57600080fd5b613be384613726565b925060208401359150604084013567ffffffffffffffff811115613c0657600080fd5b8401601f81018613613c1757600080fd5b613c26868235602084016138bb565b9150509250925092565b600080600080600080600060e0888a031215613c4b57600080fd5b613c5488613726565b9650613c6260208901613726565b95506040880135945060608801359350613c7e60808901613774565b9699959850939692959460a0840135945060c09093013592915050565b600060208284031215613cad57600080fd5b813567ffffffffffffffff811115613cc457600080fd5b613cd084828501613935565b949350505050565b60008060408385031215613ceb57600080fd5b613cf483613726565b915061381960208401613726565b600181811c90821680613d1657607f821691505b60208210810361285d577f4e487b7100000000000000000000000000000000000000000000000000000000600052602260045260246000fd5b7f4e487b7100000000000000000000000000000000000000000000000000000000600052601160045260246000fd5b8082018082111561085957610859613d4f565b7f4e487b7100000000000000000000000000000000000000000000000000000000600052603260045260246000fd5b60008251613dd28184602087016136a5565b9190910192915050565b601f82111561095757806000526020600020601f840160051c81016020851015613e035750805b601f840160051c820191505b81811015613e235760008155600101613e0f565b5050505050565b815167ffffffffffffffff811115613e4457613e4461383d565b613e5881613e528454613d02565b84613ddc565b6020601f821160018114613eaa5760008315613e745750848201515b7fffffffffffffffffffffffffffffffffffffffffffffffffffffffffffffffff600385901b1c1916600184901b178455613e23565b6000848152602081207fffffffffffffffffffffffffffffffffffffffffffffffffffffffffffffffe08516915b82811015613ef85787850151825560209485019460019092019101613ed8565b5084821015613f3457868401517fffffffffffffffffffffffffffffffffffffffffffffffffffffffffffffffff600387901b60f8161c191681555b50505050600190811b01905550565b7f416363657373436f6e74726f6c3a206163636f756e7420000000000000000000815260008351613f7b8160178501602088016136a5565b7f206973206d697373696e6720726f6c65200000000000000000000000000000006017918401918201528351613fb88160288401602088016136a5565b01602801949350505050565b7f4e487b7100000000000000000000000000000000000000000000000000000000600052602160045260246000fd5b808202811582820484141761085957610859613d4f565b60008161401957614019613d4f565b507fffffffffffffffffffffffffffffffffffffffffffffffffffffffffffffffff019056fea264697066735822122014ec6b18a2d2fa46059f1471e4bcfe79d3c2d2ab0a9c32685410b59caafee3b364736f6c634300081a0033","linkReferences":{}},"methodIdentifiers":{"DEFAULT_ADMIN_ROLE()":"a217fddf","DOMAIN_SEPARATOR()":"3644e515","MINTER_ROLE()":"d5391393","PAUSER_ROLE()":"e63ab1e9","allowance(address,address)":"dd62ed3e","approve(address,uint256)":"095ea7b3","approveAndCall(address,uint256,bytes)":"cae9ca51","balanceOf(address)":"70a08231","batchTransfer(address[],uint256[])":"88d695b2","burn(address,uint256)":"9dc29fac","burn(uint256)":"42966c68","burnFrom(address,uint256)":"79cc6790","configureMinter(address,uint256)":"4e44d956","currency()":"e5a6b10f","decimals()":"313ce567","decreaseAllowance(address,uint256)":"a457c2d7","eip712Domain()":"84b0196e","getRoleAdmin(bytes32)":"248a9ca3","grantRole(bytes32,address)":"2f2ff15d","hasRole(bytes32,address)":"91d14854","increaseAllowance(address,uint256)":"39509351","initialize(string,string)":"4cd88b76","isMinter(address)":"aa271e1a","masterMinter()":"35d99f35","mint(address,uint256)":"40c10f19","minterAllowance(address)":"8a6db9c3","name()":"06fdde03","nonces(address)":"7ecebe00","owner()":"8da5cb5b","pause()":"8456cb59","paused()":"5c975abb","permit(address,address,uint256,uint256,uint8,bytes32,bytes32)":"d505accf","removeMinter(address)":"3092afd5","renounceOwnership()":"715018a6","renounceRole(bytes32,address)":"36568abe","revokeRole(bytes32,address)":"d547741f","supportsInterface(bytes4)":"01ffc9a7","symbol()":"95d89b41","totalSupply()":"18160ddd","transfer(address,uint256)":"a9059cbb","transferFrom(address,address,uint256)":"23b872dd","transferOwnership(address)":"f2fde38b","unpause()":"3f4ba83a","updateCurrency(string)":"d6a7e169","updateDecimals(uint8)":"0ce83a61","updateMasterMinter(address)":"aa20e1e4"},"id":4}