{"abi":[{"type":"constructor","inputs":[{"name":"_aggregator","type":"address","internalType":"address"},{"name":"_logic","type":"address","internalType":"address"},{"name":"admin_","type":"address","internalType":"address"},{"name":"_data","type":"bytes","internalType":"bytes"}],"stateMutability":"nonpayable"},{"type":"fallback","stateMutability":"payable"},{"type":"receive","stateMutability":"payable"},{"type":"function","name":"owner","inputs":[],"outputs":[{"name":"","type":"address","internalType":"address"}],"stateMutability":"view"},{"type":"function","name":"phaseAggregators","inputs":[{"name":"","type":"uint16","internalType":"uint16"}],"outputs":[{"name":"","type":"address","internalType":"contract FeeV1Interface"}],"stateMutability":"view"},{"type":"function","name":"proposedAggregator","inputs":[],"outputs":[{"name":"","type":"address","internalType":"contract FeeV1Interface"}],"stateMutability":"view"},{"type":"function","name":"renounceOwnership","inputs":[],"outputs":[],"stateMutability":"nonpayable"},{"type":"function","name":"transferOwnership","inputs":[{"name":"newOwner","type":"address","internalType":"address"}],"outputs":[],"stateMutability":"nonpayable"},{"type":"event","name":"AdminChanged","inputs":[{"name":"previousAdmin","type":"address","indexed":false,"internalType":"address"},{"name":"newAdmin","type":"address","indexed":false,"internalType":"address"}],"anonymous":false},{"type":"event","name":"BeaconUpgraded","inputs":[{"name":"beacon","type":"address","indexed":true,"internalType":"address"}],"anonymous":false},{"type":"event","name":"Initialized","inputs":[{"name":"version","type":"uint8","indexed":false,"internalType":"uint8"}],"anonymous":false},{"type":"event","name":"OwnershipTransferred","inputs":[{"name":"previousOwner","type":"address","indexed":true,"internalType":"address"},{"name":"newOwner","type":"address","indexed":true,"internalType":"address"}],"anonymous":false},{"type":"event","name":"Upgraded","inputs":[{"name":"implementation","type":"address","indexed":true,"internalType":"address"}],"anonymous":false}],"bytecode":{"object":"0x608060405234801561001057600080fd5b506040516114dd3803806114dd83398101604081905261002f91610490565b828282828161004082826000610067565b5061004c905082610093565b50505061005e8461010160201b60201c565b505050506105ec565b61007083610178565b60008251118061007d5750805b1561008e5761008c83836101b8565b505b505050565b7f7e644d79422f17c01e4894b5f4f588d331ebfa28653d42ae832dc59e38c9798f6100d3600080516020611496833981519152546001600160a01b031690565b604080516001600160a01b03928316815291841660208301520160405180910390a16100fe816101e6565b50565b6065546000906101169061ffff166001610575565b60408051808201825261ffff9092168083526001600160a01b039094166020928301819052606580546201000083026001600160b01b031990911687171790556000948552606790925290922080546001600160a01b03191690921790915550565b61018181610282565b6040516001600160a01b038216907fbc7cd75a20ee27fd9adebab32041f755214dbc6bffa90cc0225b39da2e5c2d3b90600090a250565b60606101dd83836040518060600160405280602781526020016114b660279139610316565b90505b92915050565b6001600160a01b0381166102505760405162461bcd60e51b815260206004820152602660248201527f455243313936373a206e65772061646d696e20697320746865207a65726f206160448201526564647265737360d01b60648201526084015b60405180910390fd5b806000805160206114968339815191525b80546001600160a01b0319166001600160a01b039290921691909117905550565b6001600160a01b0381163b6102ef5760405162461bcd60e51b815260206004820152602d60248201527f455243313936373a206e657720696d706c656d656e746174696f6e206973206e60448201526c1bdd08184818dbdb9d1c9858dd609a1b6064820152608401610247565b807f360894a13ba1a3210667c828492db98dca3e2076cc3735a920a3ca505d382bbc610261565b6060600080856001600160a01b031685604051610333919061059d565b600060405180830381855af49150503d806000811461036e576040519150601f19603f3d011682016040523d82523d6000602084013e610373565b606091505b5090925090506103858683838761038f565b9695505050505050565b606083156103fe5782516000036103f7576001600160a01b0385163b6103f75760405162461bcd60e51b815260206004820152601d60248201527f416464726573733a2063616c6c20746f206e6f6e2d636f6e74726163740000006044820152606401610247565b5081610408565b6104088383610410565b949350505050565b8151156104205781518083602001fd5b8060405162461bcd60e51b815260040161024791906105b9565b80516001600160a01b038116811461045157600080fd5b919050565b634e487b7160e01b600052604160045260246000fd5b60005b8381101561048757818101518382015260200161046f565b50506000910152565b600080600080608085870312156104a657600080fd5b6104af8561043a565b93506104bd6020860161043a565b92506104cb6040860161043a565b60608601519092506001600160401b038111156104e757600080fd5b8501601f810187136104f857600080fd5b80516001600160401b0381111561051157610511610456565b604051601f8201601f19908116603f011681016001600160401b038111828210171561053f5761053f610456565b60405281815282820160200189101561055757600080fd5b61056882602083016020860161046c565b9598949750929550505050565b61ffff81811683821601908111156101e057634e487b7160e01b600052601160045260246000fd5b600082516105af81846020870161046c565b9190910192915050565b60208152600082518060208401526105d881604085016020870161046c565b601f01601f19169190910160400192915050565b610e9b806105fb6000396000f3fe60806040526004361061005e5760003560e01c8063c159730411610043578063c1597304146100da578063e8c4be301461011d578063f2fde38b1461014a5761006d565b8063715018a6146100755780638da5cb5b1461008a5761006d565b3661006d5761006b61016a565b005b61006b61016a565b34801561008157600080fd5b5061006b6103f4565b34801561009657600080fd5b5060335473ffffffffffffffffffffffffffffffffffffffff165b60405173ffffffffffffffffffffffffffffffffffffffff909116815260200160405180910390f35b3480156100e657600080fd5b506100b16100f5366004610be8565b60676020526000908152604090205473ffffffffffffffffffffffffffffffffffffffff1681565b34801561012957600080fd5b506066546100b19073ffffffffffffffffffffffffffffffffffffffff1681565b34801561015657600080fd5b5061006b610165366004610c2e565b610406565b6101726104bd565b73ffffffffffffffffffffffffffffffffffffffff1633036103ea5760607fffffffff00000000000000000000000000000000000000000000000000000000600035167fc9a6301a0000000000000000000000000000000000000000000000000000000081016101eb576101e46104fd565b91506103e2565b7fb0e10d7a000000000000000000000000000000000000000000000000000000007fffffffff0000000000000000000000000000000000000000000000000000000082160161023c576101e4610554565b7f70d7c690000000000000000000000000000000000000000000000000000000007fffffffff0000000000000000000000000000000000000000000000000000000082160161028d576101e461059a565b7f07ae5bc0000000000000000000000000000000000000000000000000000000007fffffffff000000000000000000000000000000000000000000000000000000008216016102de576101e46105cb565b7fa39f25e5000000000000000000000000000000000000000000000000000000007fffffffff0000000000000000000000000000000000000000000000000000000082160161032f576101e4610618565b6040517f08c379a000000000000000000000000000000000000000000000000000000000815260206004820152604260248201527f5472616e73706172656e745570677261646561626c6550726f78793a2061646d60448201527f696e2063616e6e6f742066616c6c6261636b20746f2070726f7879207461726760648201527f6574000000000000000000000000000000000000000000000000000000000000608482015260a4015b60405180910390fd5b815160208301f35b6103f261062c565b565b6103fc61063c565b6103f260006106bd565b61040e61063c565b73ffffffffffffffffffffffffffffffffffffffff81166104b1576040517f08c379a000000000000000000000000000000000000000000000000000000000815260206004820152602660248201527f4f776e61626c653a206e6577206f776e657220697320746865207a65726f206160448201527f646472657373000000000000000000000000000000000000000000000000000060648201526084016103d9565b6104ba816106bd565b50565b60007fb53127684a568b3173ae13b9f8a6016e243e63b6e8ee1178d6a717850b5d61035b5473ffffffffffffffffffffffffffffffffffffffff16919050565b6060610507610734565b60006105163660048184610c4b565b8101906105239190610c2e565b90506105408160405180602001604052806000815250600061073f565b505060408051602081019091526000815290565b60606000806105663660048184610c4b565b8101906105739190610ca4565b915091506105838282600161073f565b604051806020016040528060008152509250505090565b60606105a4610734565b60006105b33660048184610c4b565b8101906105c09190610c2e565b90506105408161076b565b60606105d5610734565b60006105df6104bd565b6040805173ffffffffffffffffffffffffffffffffffffffff831660208201529192500160405160208183030381529060405291505090565b6060610622610734565b60006105df6107cc565b6103f26106376107cc565b6107db565b60335473ffffffffffffffffffffffffffffffffffffffff1633146103f2576040517f08c379a000000000000000000000000000000000000000000000000000000000815260206004820181905260248201527f4f776e61626c653a2063616c6c6572206973206e6f7420746865206f776e657260448201526064016103d9565b6033805473ffffffffffffffffffffffffffffffffffffffff8381167fffffffffffffffffffffffff0000000000000000000000000000000000000000831681179093556040519116919082907f8be0079c531659141344cd1fd0a4f28419497f9722a3daafe3b4186f6b6457e090600090a35050565b34156103f257600080fd5b610748836107ff565b6000825111806107555750805b1561076657610764838361084c565b505b505050565b7f7e644d79422f17c01e4894b5f4f588d331ebfa28653d42ae832dc59e38c9798f6107946104bd565b6040805173ffffffffffffffffffffffffffffffffffffffff928316815291841660208301520160405180910390a16104ba81610878565b60006107d6610984565b905090565b3660008037600080366000845af43d6000803e8080156107fa573d6000f35b3d6000fd5b610808816109ac565b60405173ffffffffffffffffffffffffffffffffffffffff8216907fbc7cd75a20ee27fd9adebab32041f755214dbc6bffa90cc0225b39da2e5c2d3b90600090a250565b60606108718383604051806060016040528060278152602001610e3f60279139610a77565b9392505050565b73ffffffffffffffffffffffffffffffffffffffff811661091b576040517f08c379a000000000000000000000000000000000000000000000000000000000815260206004820152602660248201527f455243313936373a206e65772061646d696e20697320746865207a65726f206160448201527f646472657373000000000000000000000000000000000000000000000000000060648201526084016103d9565b807fb53127684a568b3173ae13b9f8a6016e243e63b6e8ee1178d6a717850b5d61035b80547fffffffffffffffffffffffff00000000000000000000000000000000000000001673ffffffffffffffffffffffffffffffffffffffff9290921691909117905550565b60007f360894a13ba1a3210667c828492db98dca3e2076cc3735a920a3ca505d382bbc6104e1565b73ffffffffffffffffffffffffffffffffffffffff81163b610a50576040517f08c379a000000000000000000000000000000000000000000000000000000000815260206004820152602d60248201527f455243313936373a206e657720696d706c656d656e746174696f6e206973206e60448201527f6f74206120636f6e74726163740000000000000000000000000000000000000060648201526084016103d9565b807f360894a13ba1a3210667c828492db98dca3e2076cc3735a920a3ca505d382bbc61093e565b60606000808573ffffffffffffffffffffffffffffffffffffffff1685604051610aa19190610dd1565b600060405180830381855af49150503d8060008114610adc576040519150601f19603f3d011682016040523d82523d6000602084013e610ae1565b606091505b5091509150610af286838387610afc565b9695505050505050565b60608315610b92578251600003610b8b5773ffffffffffffffffffffffffffffffffffffffff85163b610b8b576040517f08c379a000000000000000000000000000000000000000000000000000000000815260206004820152601d60248201527f416464726573733a2063616c6c20746f206e6f6e2d636f6e747261637400000060448201526064016103d9565b5081610b9c565b610b9c8383610ba4565b949350505050565b815115610bb45781518083602001fd5b806040517f08c379a00000000000000000000000000000000000000000000000000000000081526004016103d99190610ded565b600060208284031215610bfa57600080fd5b813561ffff8116811461087157600080fd5b73ffffffffffffffffffffffffffffffffffffffff811681146104ba57600080fd5b600060208284031215610c4057600080fd5b813561087181610c0c565b60008085851115610c5b57600080fd5b83861115610c6857600080fd5b5050820193919092039150565b7f4e487b7100000000000000000000000000000000000000000000000000000000600052604160045260246000fd5b60008060408385031215610cb757600080fd5b8235610cc281610c0c565b9150602083013567ffffffffffffffff811115610cde57600080fd5b8301601f81018513610cef57600080fd5b803567ffffffffffffffff811115610d0957610d09610c75565b6040517fffffffffffffffffffffffffffffffffffffffffffffffffffffffffffffffe0603f7fffffffffffffffffffffffffffffffffffffffffffffffffffffffffffffffe0601f8501160116810181811067ffffffffffffffff82111715610d7557610d75610c75565b604052818152828201602001871015610d8d57600080fd5b816020840160208301376000602083830101528093505050509250929050565b60005b83811015610dc8578181015183820152602001610db0565b50506000910152565b60008251610de3818460208701610dad565b9190910192915050565b6020815260008251806020840152610e0c816040850160208701610dad565b601f017fffffffffffffffffffffffffffffffffffffffffffffffffffffffffffffffe016919091016040019291505056fe416464726573733a206c6f772d6c6576656c2064656c65676174652063616c6c206661696c6564a2646970667358221220742c254e0cda6065a86f4db1911c377b03a5075eb5d418f31d9707080813796b64736f6c634300081a0033b53127684a568b3173ae13b9f8a6016e243e63b6e8ee1178d6a717850b5d6103416464726573733a206c6f772d6c6576656c2064656c65676174652063616c6c206661696c6564","linkReferences":{}},"methodIdentifiers":{"owner()":"8da5cb5b","phaseAggregators(uint16)":"c1597304","proposedAggregator()":"e8c4be30","renounceOwnership()":"715018a6","transferOwnership(address)":"f2fde38b"},"id":12}