{"abi":[{"type":"constructor","inputs":[{"name":"_owners","type":"address[]","internalType":"address[]"},{"name":"_threshold","type":"uint256","internalType":"uint256"}],"stateMutability":"nonpayable"},{"type":"receive","stateMutability":"payable"},{"type":"function","name":"checkSignatures","inputs":[{"name":"dataHash","type":"bytes32","internalType":"bytes32"},{"name":"signatures","type":"bytes","internalType":"bytes"}],"outputs":[],"stateMutability":"view"},{"type":"function","name":"encodeTransactionData","inputs":[{"name":"to","type":"address","internalType":"address"},{"name":"value","type":"uint256","internalType":"uint256"},{"name":"data","type":"bytes","internalType":"bytes"},{"name":"_nonce","type":"uint256","internalType":"uint256"},{"name":"chainid","type":"uint256","internalType":"uint256"}],"outputs":[{"name":"","type":"bytes32","internalType":"bytes32"}],"stateMutability":"pure"},{"type":"function","name":"execTransaction","inputs":[{"name":"to","type":"address","internalType":"address"},{"name":"value","type":"uint256","internalType":"uint256"},{"name":"data","type":"bytes","internalType":"bytes"},{"name":"signatures","type":"bytes","internalType":"bytes"}],"outputs":[{"name":"success","type":"bool","internalType":"bool"}],"stateMutability":"payable"},{"type":"function","name":"isOwner","inputs":[{"name":"","type":"address","internalType":"address"}],"outputs":[{"name":"","type":"bool","internalType":"bool"}],"stateMutability":"view"},{"type":"function","name":"nonce","inputs":[],"outputs":[{"name":"","type":"uint256","internalType":"uint256"}],"stateMutability":"view"},{"type":"function","name":"ownerCount","inputs":[],"outputs":[{"name":"","type":"uint256","internalType":"uint256"}],"stateMutability":"view"},{"type":"function","name":"owners","inputs":[{"name":"","type":"uint256","internalType":"uint256"}],"outputs":[{"name":"","type":"address","internalType":"address"}],"stateMutability":"view"},{"type":"function","name":"threshold","inputs":[],"outputs":[{"name":"","type":"uint256","internalType":"uint256"}],"stateMutability":"view"},{"type":"event","name":"ExecutionFailure","inputs":[{"name":"txHash","type":"bytes32","indexed":false,"internalType":"bytes32"}],"anonymous":false},{"type":"event","name":"ExecutionSuccess","inputs":[{"name":"txHash","type":"bytes32","indexed":false,"internalType":"bytes32"}],"anonymous":false}],"bytecode":{"object":"0x608060405234801561001057600080fd5b50604051610d93380380610d9383398101604081905261002f9161023b565b6100398282610040565b505061032a565b6003541561007b5760405162461bcd60e51b815260206004820152600360248201526230303160e81b60448201526064015b60405180910390fd5b81518111156100b25760405162461bcd60e51b815260206004820152600360248201526218181960e91b6044820152606401610072565b60018110156100e95760405162461bcd60e51b815260206004820152600360248201526230303360e81b6044820152606401610072565b60005b82518110156101fe57600083828151811061010957610109610314565b6020026020010151905060006001600160a01b0316816001600160a01b03161415801561013f57506001600160a01b0381163014155b801561016457506001600160a01b03811660009081526001602052604090205460ff16155b6101965760405162461bcd60e51b81526020600482015260036024820152620c0c0d60ea1b6044820152606401610072565b60008054600181810183557f290decd9548b62a8d60345a988386fc84ba6bc95484008f6362f93160ef3e56390910180546001600160a01b039094166001600160a01b031990941684179055918152602082905260409020805460ff191682179055016100ec565b509051600255600355565b634e487b7160e01b600052604160045260246000fd5b80516001600160a01b038116811461023657600080fd5b919050565b6000806040838503121561024e57600080fd5b82516001600160401b0381111561026457600080fd5b8301601f8101851361027557600080fd5b80516001600160401b0381111561028e5761028e610209565b604051600582901b90603f8201601f191681016001600160401b03811182821017156102bc576102bc610209565b6040529182526020818401810192908101888411156102da57600080fd5b6020850194505b83851015610300576102f28561021f565b8152602094850194016102e1565b506020969096015195979596505050505050565b634e487b7160e01b600052603260045260246000fd5b610a5a806103396000396000f3fe60806040526004361061007f5760003560e01c8063a67dd5091161004e578063a67dd5091461014f578063affed0e0146101ca578063d01aa318146101e0578063ed516d51146101f357600080fd5b8063025e7c271461008b5780630db02622146100d55780632f54bf6e146100f957806342cde4e81461013957600080fd5b3661008657005b600080fd5b34801561009757600080fd5b506100ab6100a63660046106df565b610215565b60405173ffffffffffffffffffffffffffffffffffffffff90911681526020015b60405180910390f35b3480156100e157600080fd5b506100eb60025481565b6040519081526020016100cc565b34801561010557600080fd5b50610129610114366004610721565b60016020526000908152604090205460ff1681565b60405190151581526020016100cc565b34801561014557600080fd5b506100eb60035481565b34801561015b57600080fd5b506100eb61016a36600461083e565b82516020938401206040805173ffffffffffffffffffffffffffffffffffffffff9790971687860152868101959095526060860152608085019190915260a0808501919091528251808503909101815260c0909301909152815191012090565b3480156101d657600080fd5b506100eb60045481565b6101296101ee3660046108a7565b61024c565b3480156101ff57600080fd5b5061021361020e36600461092a565b61042f565b005b6000818154811061022557600080fd5b60009182526020909120015473ffffffffffffffffffffffffffffffffffffffff16905081565b6000806102b98686866004544682516020938401206040805173ffffffffffffffffffffffffffffffffffffffff9790971687860152868101959095526060860152608085019190915260a0808501919091528251808503909101815260c0909301909152815191012090565b6004805491925060006102cb836109a0565b91905055506102da818461042f565b8573ffffffffffffffffffffffffffffffffffffffff16858560405161030091906109d8565b60006040518083038185875af1925050503d806000811461033d576040519150601f19603f3d011682016040523d82523d6000602084013e610342565b606091505b505080925050816103b4576040517f08c379a000000000000000000000000000000000000000000000000000000000815260206004820152600360248201527f303035000000000000000000000000000000000000000000000000000000000060448201526064015b60405180910390fd5b81156103f2576040518181527fdc29884a71d2bb98d3c53dc09718be05c7bfd142b7773a5c5cf2517629290ac09060200160405180910390a1610426565b6040518181527fdbe42d02a4e07d7eeff2874efe172540c93b297d206f6d691c9782a257323e329060200160405180910390a15b50949350505050565b60035480610499576040517f08c379a000000000000000000000000000000000000000000000000000000000815260206004820152600360248201527f303036000000000000000000000000000000000000000000000000000000000060448201526064016103ab565b6104a4816041610a07565b8251101561050e576040517f08c379a000000000000000000000000000000000000000000000000000000000815260206004820152600360248201527f303037000000000000000000000000000000000000000000000000000000000060448201526064016103ab565b6000808060008060005b868110156106d457602060418083028a01918201516040830151929091015160ff16916040517f19457468657265756d205369676e6564204d6573736167653a0a3332000000006020820152603c81018d90529296509094509250600190605c01604080517fffffffffffffffffffffffffffffffffffffffffffffffffffffffffffffffe08184030181528282528051602091820120600084529083018083525260ff871690820152606081018590526080810184905260a0016020604051602081039080840390855afa1580156105f5573d6000803e3d6000fd5b5050506020604051035194508573ffffffffffffffffffffffffffffffffffffffff168573ffffffffffffffffffffffffffffffffffffffff16118015610661575073ffffffffffffffffffffffffffffffffffffffff851660009081526001602052604090205460ff165b6106c7576040517f08c379a000000000000000000000000000000000000000000000000000000000815260206004820152600360248201527f303038000000000000000000000000000000000000000000000000000000000060448201526064016103ab565b9394508493600101610518565b505050505050505050565b6000602082840312156106f157600080fd5b5035919050565b803573ffffffffffffffffffffffffffffffffffffffff8116811461071c57600080fd5b919050565b60006020828403121561073357600080fd5b61073c826106f8565b9392505050565b7f4e487b7100000000000000000000000000000000000000000000000000000000600052604160045260246000fd5b600082601f83011261078357600080fd5b813567ffffffffffffffff81111561079d5761079d610743565b6040517fffffffffffffffffffffffffffffffffffffffffffffffffffffffffffffffe0603f7fffffffffffffffffffffffffffffffffffffffffffffffffffffffffffffffe0601f8501160116810181811067ffffffffffffffff8211171561080957610809610743565b60405281815283820160200185101561082157600080fd5b816020850160208301376000918101602001919091529392505050565b600080600080600060a0868803121561085657600080fd5b61085f866106f8565b945060208601359350604086013567ffffffffffffffff81111561088257600080fd5b61088e88828901610772565b9598949750949560608101359550608001359392505050565b600080600080608085870312156108bd57600080fd5b6108c6856106f8565b935060208501359250604085013567ffffffffffffffff8111156108e957600080fd5b6108f587828801610772565b925050606085013567ffffffffffffffff81111561091257600080fd5b61091e87828801610772565b91505092959194509250565b6000806040838503121561093d57600080fd5b82359150602083013567ffffffffffffffff81111561095b57600080fd5b61096785828601610772565b9150509250929050565b7f4e487b7100000000000000000000000000000000000000000000000000000000600052601160045260246000fd5b60007fffffffffffffffffffffffffffffffffffffffffffffffffffffffffffffffff82036109d1576109d1610971565b5060010190565b6000825160005b818110156109f957602081860181015185830152016109df565b506000920191825250919050565b8082028115828204841417610a1e57610a1e610971565b9291505056fea26469706673582212208d90b5ef815489f6eb86ed6fbbb42166a75915916a9b736f62f87f8d829a238c64736f6c634300081a0033","linkReferences":{}},"methodIdentifiers":{"checkSignatures(bytes32,bytes)":"ed516d51","encodeTransactionData(address,uint256,bytes,uint256,uint256)":"a67dd509","execTransaction(address,uint256,bytes,bytes)":"d01aa318","isOwner(address)":"2f54bf6e","nonce()":"affed0e0","ownerCount()":"0db02622","owners(uint256)":"025e7c27","threshold()":"42cde4e8"},"id":2}