{
	"data": {
		"bytecode": {
			"linkReferences": {},
			"object": "60806040526000600f5560006013556000601455348015601e57600080fd5b506003805460ff191690553380604e57604051631e4fbdf760e01b81526000600482015260240160405180910390fd5b605581605a565b5060b4565b600380546001600160a01b03838116610100818102610100600160a81b031985161790945560405193909204169182907f8be0079c531659141344cd1fd0a4f28419497f9722a3daafe3b4186f6b6457e090600090a35050565b615e51806100c36000396000f3fe608060405234801561001057600080fd5b50600436106103c55760003560e01c80638456cb59116101ff578063b7b728991161011a578063e5a6b10f116100ad578063f21af0071161007c578063f21af007146109c7578063f2fde38b146109da578063f9f92be4146109ed578063fe575a8714610a0057600080fd5b8063e5a6b10f1461093f578063e5b5019a14610947578063e94a01021461096e578063ef55bec6146109b457600080fd5b8063d9169487116100e9578063d9169487146108a9578063dd62ed3e146108d0578063dd644f7214610916578063e2e71f931461091f57600080fd5b8063b7b7289914610850578063bd10243014610863578063c0324c7714610883578063d505accf1461089657600080fd5b80639fd0506d11610192578063a9059cbb11610161578063a9059cbb146107de578063aa20e1e4146107f1578063aa271e1a14610804578063ad38bf221461083d57600080fd5b80639fd0506d146107715780639fd5a6cf14610791578063a0cc6a68146107a4578063a457c2d7146107cb57600080fd5b806394d81d8d116101ce57806394d81d8d1461073057806395d89b41146107435780639801ac501461074b5780639b19251a1461075e57600080fd5b80638456cb59146106bc57806388b7ab63146106c45780638a6db9c3146106d75780638da5cb5b1461070d57600080fd5b80633af32abf116102ef5780635a049a701161028257806375dc7d8c1161025157806375dc7d8c146106395780637a4fda3d1461064c5780637ecebe001461065f5780637f2eecc31461069557600080fd5b80635a049a70146106005780635c975abb1461061357806370a082311461061e578063715018a61461063157600080fd5b80634a6cc18f116102be5780634a6cc18f1461058e5780634e44d956146105a157806354fd4d50146105b4578063554bab3c146105ed57600080fd5b80633af32abf1461054d5780633f4ba83a1461056057806342966c6814610568578063458b35ee1461057b57600080fd5b80633092afd5116103675780633539071411610336578063353907141461050957806335d99f35146105125780633644e51514610532578063395093511461053a57600080fd5b80633092afd51461049d57806330adf81f146104b0578063313ce567146104d7578063315f2746146104f657600080fd5b806318160ddd116103a357806318160ddd146104205780631a8952661461043257806322758a4a1461044557806323b872dd1461048a57600080fd5b806306fdde03146103ca578063095ea7b3146103e857806313af40351461040b575b600080fd5b6103d2610a13565b6040516103df9190615262565b60405180910390f35b6103fb6103f6366004615299565b610aa1565b60405190151581526020016103df565b61041e6104193660046152c3565b610c22565b005b600f545b6040519081526020016103df565b61041e6104403660046152c3565b610cd9565b6006546104659073ffffffffffffffffffffffffffffffffffffffff1681565b60405173ffffffffffffffffffffffffffffffffffffffff90911681526020016103df565b6103fb6104983660046152de565b610dcd565b6103fb6104ab3660046152c3565b611132565b6104247f6e71edae12b1b97f4d1f60370fef10105fa2faae0126114a169c64845d6126c981565b6009546104e49060ff1681565b60405160ff90911681526020016103df565b61041e61050436600461532b565b611263565b61042460145481565b600b546104659073ffffffffffffffffffffffffffffffffffffffff1681565b610424611432565b6103fb610548366004615299565b611441565b6103fb61055b3660046152c3565b6115b2565b61041e6115e5565b61041e6105763660046153bb565b611696565b61041e6105893660046152c3565b6119c4565b61041e61059c3660046153d4565b611ade565b6103fb6105af366004615299565b611bb0565b60408051808201909152600181527f310000000000000000000000000000000000000000000000000000000000000060208201526103d2565b61041e6105fb3660046152c3565b611cf6565b61041e61060e366004615458565b611e10565b60035460ff166103fb565b61042461062c3660046152c3565b611e2c565b61041e611e79565b6104246106473660046153bb565b611e8b565b61042461065a3660046152c3565b611ec5565b61042461066d3660046152c3565b73ffffffffffffffffffffffffffffffffffffffff1660009081526002602052604090205490565b6104247fd099cc98ef71107a616c4f0f941f04c322d8e254fe26b3c6668db87aae413de881565b61041e611f93565b61041e6106d2366004615580565b612042565b6104246106e53660046152c3565b73ffffffffffffffffffffffffffffffffffffffff1660009081526011602052604090205490565b600354610100900473ffffffffffffffffffffffffffffffffffffffff16610465565b61041e61073e366004615605565b6121d8565b6103d261262d565b61041e6107593660046156eb565b61263a565b61041e61076c3660046152c3565b612803565b6004546104659073ffffffffffffffffffffffffffffffffffffffff1681565b61041e61079f366004615781565b6128f7565b6104247f7c7c6cdb67a18743f49ec6fa9b35f50d52ed05cbed4cc592e13b44501c1a226781565b6103fb6107d9366004615299565b612a89565b6103fb6107ec366004615299565b612bfa565b61041e6107ff3660046152c3565b612d6b565b6103fb6108123660046152c3565b73ffffffffffffffffffffffffffffffffffffffff1660009081526010602052604090205460ff1690565b61041e61084b3660046152c3565b612e85565b61041e61085e3660046157f3565b612f9f565b6005546104659073ffffffffffffffffffffffffffffffffffffffff1681565b61041e61089136600461584a565b612fb7565b61041e6108a436600461586c565b613045565b6104247f158b0a9edf7a828aad02f63cd515c68ef2f50ba807396f6d12842833a159742981565b6104246108de3660046158d6565b73ffffffffffffffffffffffffffffffffffffffff9182166000908152600e6020908152604080832093909416825291909152205490565b61042460135481565b61042461092d3660046152c3565b60156020526000908152604090205481565b6103d26131d0565b6104247fffffffffffffffffffffffffffffffffffffffffffffffffffffffffffffffff81565b6103fb61097c366004615299565b73ffffffffffffffffffffffffffffffffffffffff919091166000908152600160209081526040808320938352929052205460ff1690565b61041e6109c2366004615909565b6131dd565b61041e6109d53660046152c3565b613377565b61041e6109e83660046152c3565b61346b565b61041e6109fb3660046152c3565b6134c3565b6103fb610a0e3660046152c3565b6135b7565b60078054610a2090615987565b80601f0160208091040260200160405190810160405280929190818152602001828054610a4c90615987565b8015610a995780601f10610a6e57610100808354040283529160200191610a99565b820191906000526020600020905b815481529060010190602001808311610a7c57829003601f168201915b505050505081565b6000610aab6135e8565b336000818152600c602052604090205460ff1c600103610b52576040517f08c379a000000000000000000000000000000000000000000000000000000000815260206004820152602560248201527f426c61636b6c69737461626c653a206163636f756e7420697320626c61636b6c60448201527f697374656400000000000000000000000000000000000000000000000000000060648201526084015b60405180910390fd5b73ffffffffffffffffffffffffffffffffffffffff84166000908152600c6020526040902054849060ff1c600103610c0c576040517f08c379a000000000000000000000000000000000000000000000000000000000815260206004820152602560248201527f426c61636b6c69737461626c653a206163636f756e7420697320626c61636b6c60448201527f69737465640000000000000000000000000000000000000000000000000000006064820152608401610b49565b610c17338686613655565b506001949350505050565b610c2a613800565b73ffffffffffffffffffffffffffffffffffffffff8116610ccd576040517f08c379a000000000000000000000000000000000000000000000000000000000815260206004820152602a60248201527f4a4453434f776e61626c653a206e6577206f776e657220697320746865207a6560448201527f726f2061646472657373000000000000000000000000000000000000000000006064820152608401610b49565b610cd681613859565b50565b60055473ffffffffffffffffffffffffffffffffffffffff163314610d80576040517f08c379a000000000000000000000000000000000000000000000000000000000815260206004820152602c60248201527f426c61636b6c69737461626c653a2063616c6c6572206973206e6f742074686560448201527f20626c61636b6c697374657200000000000000000000000000000000000000006064820152608401610b49565b610d89816138d7565b60405173ffffffffffffffffffffffffffffffffffffffff8216907f117e3210bb9aa7d9baff172026820255c6f6c30ba8999d1c2fd88e2848137c4e90600090a250565b6000610dd76135e8565b336000818152600c602052604090205460ff1c600103610e79576040517f08c379a000000000000000000000000000000000000000000000000000000000815260206004820152602560248201527f426c61636b6c69737461626c653a206163636f756e7420697320626c61636b6c60448201527f69737465640000000000000000000000000000000000000000000000000000006064820152608401610b49565b73ffffffffffffffffffffffffffffffffffffffff85166000908152600c6020526040902054859060ff1c600103610f33576040517f08c379a000000000000000000000000000000000000000000000000000000000815260206004820152602560248201527f426c61636b6c69737461626c653a206163636f756e7420697320626c61636b6c60448201527f69737465640000000000000000000000000000000000000000000000000000006064820152608401610b49565b73ffffffffffffffffffffffffffffffffffffffff85166000908152600c6020526040902054859060ff1c600103610fed576040517f08c379a000000000000000000000000000000000000000000000000000000000815260206004820152602560248201527f426c61636b6c69737461626c653a206163636f756e7420697320626c61636b6c60448201527f69737465640000000000000000000000000000000000000000000000000000006064820152608401610b49565b73ffffffffffffffffffffffffffffffffffffffff87166000908152600e602090815260408083203384529091529020548511156110ad576040517f08c379a000000000000000000000000000000000000000000000000000000000815260206004820152602860248201527f45524332303a207472616e7366657220616d6f756e742065786365656473206160448201527f6c6c6f77616e63650000000000000000000000000000000000000000000000006064820152608401610b49565b6110b88787876138e2565b73ffffffffffffffffffffffffffffffffffffffff87166000908152600e602090815260408083203384529091529020546110f39086613c16565b73ffffffffffffffffffffffffffffffffffffffff88166000908152600e60209081526040808320338452909152902055600193505050509392505050565b600b5460009073ffffffffffffffffffffffffffffffffffffffff1633146111dc576040517f08c379a000000000000000000000000000000000000000000000000000000000815260206004820152602960248201527f4a445343546f6b656e3a2063616c6c6572206973206e6f7420746865206d617360448201527f7465724d696e74657200000000000000000000000000000000000000000000006064820152608401610b49565b73ffffffffffffffffffffffffffffffffffffffff8216600081815260106020908152604080832080547fffffffffffffffffffffffffffffffffffffffffffffffffffffffffffffff001690556011909152808220829055517fe94479a9f7e1952cc78f2d6baab678adc1b772d936c6583def489e524cb666929190a25060015b919050565b61126b6135e8565b73ffffffffffffffffffffffffffffffffffffffff8a166000908152600d60205260409020548a9060ff1c600114611325576040517f08c379a000000000000000000000000000000000000000000000000000000000815260206004820152602d60248201527f57686974656c69737461626c653a206163636f756e74206973206e6f7420746860448201527f652077686974656c6973746564000000000000000000000000000000000000006064820152608401610b49565b73ffffffffffffffffffffffffffffffffffffffff8a166000908152600d60205260409020548a9060ff1c6001146113df576040517f08c379a000000000000000000000000000000000000000000000000000000000815260206004820152602d60248201527f57686974656c69737461626c653a206163636f756e74206973206e6f7420746860448201527f652077686974656c6973746564000000000000000000000000000000000000006064820152608401610b49565b60006113ea8a611e8b565b905060006113f88b83613c16565b905061140b8d8d838d8d8d8d8d8d613c29565b8115611422576114228d8f848d8d8d8d8d8d613c29565b5050505050505050505050505050565b600061143c613c91565b905090565b600061144b6135e8565b336000818152600c602052604090205460ff1c6001036114ed576040517f08c379a000000000000000000000000000000000000000000000000000000000815260206004820152602560248201527f426c61636b6c69737461626c653a206163636f756e7420697320626c61636b6c60448201527f69737465640000000000000000000000000000000000000000000000000000006064820152608401610b49565b73ffffffffffffffffffffffffffffffffffffffff84166000908152600c6020526040902054849060ff1c6001036115a7576040517f08c379a000000000000000000000000000000000000000000000000000000000815260206004820152602560248201527f426c61636b6c69737461626c653a206163636f756e7420697320626c61636b6c60448201527f69737465640000000000000000000000000000000000000000000000000000006064820152608401610b49565b610c17338686613dd2565b73ffffffffffffffffffffffffffffffffffffffff81166000908152600d602052604081205460ff1c6001145b92915050565b60045473ffffffffffffffffffffffffffffffffffffffff16331461168c576040517f08c379a000000000000000000000000000000000000000000000000000000000815260206004820152602660248201527f4a4453435061757361626c653a2063616c6c6572206973206e6f74207468652060448201527f70617573657200000000000000000000000000000000000000000000000000006064820152608401610b49565b611694613e1c565b565b61169e6135e8565b3360009081526010602052604090205460ff1661173d576040517f08c379a000000000000000000000000000000000000000000000000000000000815260206004820152602160248201527f4a445343546f6b656e3a2063616c6c6572206973206e6f742061206d696e746560448201527f72000000000000000000000000000000000000000000000000000000000000006064820152608401610b49565b336000818152600c602052604090205460ff1c6001036117df576040517f08c379a000000000000000000000000000000000000000000000000000000000815260206004820152602560248201527f426c61636b6c69737461626c653a206163636f756e7420697320626c61636b6c60448201527f69737465640000000000000000000000000000000000000000000000000000006064820152608401610b49565b336000908152600c60205260409020547f7fffffffffffffffffffffffffffffffffffffffffffffffffffffffffffffff168261189e576040517f08c379a000000000000000000000000000000000000000000000000000000000815260206004820152602960248201527f4a445343546f6b656e3a206275726e20616d6f756e74206e6f7420677265617460448201527f6572207468616e203000000000000000000000000000000000000000000000006064820152608401610b49565b8281101561192e576040517f08c379a000000000000000000000000000000000000000000000000000000000815260206004820152602660248201527f4a445343546f6b656e3a206275726e20616d6f756e742065786365656473206260448201527f616c616e636500000000000000000000000000000000000000000000000000006064820152608401610b49565b600f5461193b9084613c16565b600f556119513361194c8386613c16565b613e99565b60405183815233907fcc16f5dbb4873280815c1ee09dbd06736cffcc184412cf7a71a0fdb75d397ca59060200160405180910390a260405183815260009033907fddf252ad1be2c89b69c2b068fc378daa952ba7f163c4a11628f55a4df523b3ef906020015b60405180910390a3505050565b6119cc613800565b73ffffffffffffffffffffffffffffffffffffffff8116611a6f576040517f08c379a000000000000000000000000000000000000000000000000000000000815260206004820152603260248201527f57686974656c69737461626c653a206e65772077686974656c6973746572206960448201527f7320746865207a65726f206164647265737300000000000000000000000000006064820152608401610b49565b600680547fffffffffffffffffffffffff00000000000000000000000000000000000000001673ffffffffffffffffffffffffffffffffffffffff83169081179091556040517f800d1de693142e2c37ef233754d1d9e7edc8ae28d34204ddf3e180c02d0b009e90600090a250565b60125460ff16600114611af057600080fd5b306000908152600c60205260409020547f7fffffffffffffffffffffffffffffffffffffffffffffffffffffffffffffff168015611b3357611b333083836138e2565b60005b83811015611b7557611b6d858583818110611b5357611b536159da565b9050602002016020810190611b6891906152c3565b61402a565b600101611b36565b50611b7f3061402a565b5050601280547fffffffffffffffffffffffffffffffffffffffffffffffffffffffffffffff001660021790555050565b6000611bba6135e8565b600b5473ffffffffffffffffffffffffffffffffffffffff163314611c61576040517f08c379a000000000000000000000000000000000000000000000000000000000815260206004820152602960248201527f4a445343546f6b656e3a2063616c6c6572206973206e6f7420746865206d617360448201527f7465724d696e74657200000000000000000000000000000000000000000000006064820152608401610b49565b73ffffffffffffffffffffffffffffffffffffffff8316600081815260106020908152604080832080547fffffffffffffffffffffffffffffffffffffffffffffffffffffffffffffff00166001179055601182529182902085905590518481527f46980fca912ef9bcdbd36877427b6b90e860769f604e89c0e67720cece530d20910160405180910390a250600192915050565b611cfe613800565b73ffffffffffffffffffffffffffffffffffffffff8116611da1576040517f08c379a000000000000000000000000000000000000000000000000000000000815260206004820152602c60248201527f4a4453435061757361626c653a206e657720706175736572206973207468652060448201527f7a65726f206164647265737300000000000000000000000000000000000000006064820152608401610b49565b600480547fffffffffffffffffffffffff00000000000000000000000000000000000000001673ffffffffffffffffffffffffffffffffffffffff83169081179091556040517fb80482a293ca2e013eda8683c9bd7fc8347cfdaeea5ede58cba46df502c2a60490600090a250565b611e186135e8565b611e258585858585614035565b5050505050565b73ffffffffffffffffffffffffffffffffffffffff81166000908152600c60205260408120547f7fffffffffffffffffffffffffffffffffffffffffffffffffffffffffffffff166115df565b611e81613800565b6116946000613859565b600080611eaf612710611ea96013548661409190919063ffffffff16565b9061409d565b90506014548111156115df575060145492915050565b600073ffffffffffffffffffffffffffffffffffffffff8216611f6a576040517f08c379a000000000000000000000000000000000000000000000000000000000815260206004820152602760248201527f4a445343546f6b656e3a205f6163636f756e7420697320746865207a65726f2060448201527f61646472657373000000000000000000000000000000000000000000000000006064820152608401610b49565b5073ffffffffffffffffffffffffffffffffffffffff1660009081526015602052604090205490565b60045473ffffffffffffffffffffffffffffffffffffffff16331461203a576040517f08c379a000000000000000000000000000000000000000000000000000000000815260206004820152602660248201527f4a4453435061757361626c653a2063616c6c6572206973206e6f74207468652060448201527f70617573657200000000000000000000000000000000000000000000000000006064820152608401610b49565b6116946140a9565b61204a6135e8565b73ffffffffffffffffffffffffffffffffffffffff87166000908152600c6020526040902054879060ff1c600103612104576040517f08c379a000000000000000000000000000000000000000000000000000000000815260206004820152602560248201527f426c61636b6c69737461626c653a206163636f756e7420697320626c61636b6c60448201527f69737465640000000000000000000000000000000000000000000000000000006064820152608401610b49565b73ffffffffffffffffffffffffffffffffffffffff87166000908152600c6020526040902054879060ff1c6001036121be576040517f08c379a000000000000000000000000000000000000000000000000000000000815260206004820152602560248201527f426c61636b6c69737461626c653a206163636f756e7420697320626c61636b6c60448201527f69737465640000000000000000000000000000000000000000000000000000006064820152608401610b49565b6121cd89898989898989614104565b505050505050505050565b600b5474010000000000000000000000000000000000000000900460ff1615612283576040517f08c379a000000000000000000000000000000000000000000000000000000000815260206004820152602a60248201527f4a445343546f6b656e3a20636f6e747261637420697320616c7265616479206960448201527f6e697469616c697a6564000000000000000000000000000000000000000000006064820152608401610b49565b73ffffffffffffffffffffffffffffffffffffffff8416612326576040517f08c379a000000000000000000000000000000000000000000000000000000000815260206004820152602f60248201527f4a445343546f6b656e3a206e6577206d61737465724d696e746572206973207460448201527f6865207a65726f206164647265737300000000000000000000000000000000006064820152608401610b49565b73ffffffffffffffffffffffffffffffffffffffff83166123c9576040517f08c379a000000000000000000000000000000000000000000000000000000000815260206004820152602960248201527f4a445343546f6b656e3a206e65772070617573657220697320746865207a657260448201527f6f206164647265737300000000000000000000000000000000000000000000006064820152608401610b49565b73ffffffffffffffffffffffffffffffffffffffff821661246c576040517f08c379a000000000000000000000000000000000000000000000000000000000815260206004820152602e60248201527f4a445343546f6b656e3a206e657720626c61636b6c697374657220697320746860448201527f65207a65726f20616464726573730000000000000000000000000000000000006064820152608401610b49565b73ffffffffffffffffffffffffffffffffffffffff811661250f576040517f08c379a000000000000000000000000000000000000000000000000000000000815260206004820152602860248201527f4a445343546f6b656e3a206e6577206f776e657220697320746865207a65726f60448201527f20616464726573730000000000000000000000000000000000000000000000006064820152608401610b49565b600761251b8a82615a51565b5060086125288982615a51565b50600a6125358882615a51565b50600980547fffffffffffffffffffffffffffffffffffffffffffffffffffffffffffffff001660ff8816179055600b80547fffffffffffffffffffffffff000000000000000000000000000000000000000090811673ffffffffffffffffffffffffffffffffffffffff87811691909117909255600480548216868416179055600580549091169184169190911790556125cf81610c22565b600b80547fffffffffffffffffffffff00ffffffffffffffffffffffffffffffffffffffff16740100000000000000000000000000000000000000001790556126178961425e565b6126218186614304565b50505050505050505050565b60088054610a2090615987565b6126426135e8565b73ffffffffffffffffffffffffffffffffffffffff88166000908152600d6020526040902054889060ff1c6001146126fc576040517f08c379a000000000000000000000000000000000000000000000000000000000815260206004820152602d60248201527f57686974656c69737461626c653a206163636f756e74206973206e6f7420746860448201527f652077686974656c6973746564000000000000000000000000000000000000006064820152608401610b49565b73ffffffffffffffffffffffffffffffffffffffff88166000908152600d6020526040902054889060ff1c6001146127b6576040517f08c379a000000000000000000000000000000000000000000000000000000000815260206004820152602d60248201527f57686974656c69737461626c653a206163636f756e74206973206e6f7420746860448201527f652077686974656c6973746564000000000000000000000000000000000000006064820152608401610b49565b60006127c188611e8b565b905060006127cf8983613c16565b90506127e08b8b838b8b8b8b614411565b81156127f5576127f58b8d848b8b8b8b614411565b505050505050505050505050565b60065473ffffffffffffffffffffffffffffffffffffffff1633146128aa576040517f08c379a000000000000000000000000000000000000000000000000000000000815260206004820152602c60248201527f57686974656c69737461626c653a2063616c6c6572206973206e6f742074686560448201527f2077686974656c697374657200000000000000000000000000000000000000006064820152608401610b49565b6128b381614499565b60405173ffffffffffffffffffffffffffffffffffffffff8216907faab7954e9d246b167ef88aeddad35209ca2489d95a8aeb59e288d9b19fae5a5490600090a250565b6128ff6135e8565b73ffffffffffffffffffffffffffffffffffffffff85166000908152600c6020526040902054859060ff1c6001036129b9576040517f08c379a000000000000000000000000000000000000000000000000000000000815260206004820152602560248201527f426c61636b6c69737461626c653a206163636f756e7420697320626c61636b6c60448201527f69737465640000000000000000000000000000000000000000000000000000006064820152608401610b49565b73ffffffffffffffffffffffffffffffffffffffff85166000908152600c6020526040902054859060ff1c600103612a73576040517f08c379a000000000000000000000000000000000000000000000000000000000815260206004820152602560248201527f426c61636b6c69737461626c653a206163636f756e7420697320626c61636b6c60448201527f69737465640000000000000000000000000000000000000000000000000000006064820152608401610b49565b612a8087878787876144a4565b50505050505050565b6000612a936135e8565b336000818152600c602052604090205460ff1c600103612b35576040517f08c379a000000000000000000000000000000000000000000000000000000000815260206004820152602560248201527f426c61636b6c69737461626c653a206163636f756e7420697320626c61636b6c60448201527f69737465640000000000000000000000000000000000000000000000000000006064820152608401610b49565b73ffffffffffffffffffffffffffffffffffffffff84166000908152600c6020526040902054849060ff1c600103612bef576040517f08c379a000000000000000000000000000000000000000000000000000000000815260206004820152602560248201527f426c61636b6c69737461626c653a206163636f756e7420697320626c61636b6c60448201527f69737465640000000000000000000000000000000000000000000000000000006064820152608401610b49565b610c173386866146bf565b6000612c046135e8565b336000818152600c602052604090205460ff1c600103612ca6576040517f08c379a000000000000000000000000000000000000000000000000000000000815260206004820152602560248201527f426c61636b6c69737461626c653a206163636f756e7420697320626c61636b6c60448201527f69737465640000000000000000000000000000000000000000000000000000006064820152608401610b49565b73ffffffffffffffffffffffffffffffffffffffff84166000908152600c6020526040902054849060ff1c600103612d60576040517f08c379a000000000000000000000000000000000000000000000000000000000815260206004820152602560248201527f426c61636b6c69737461626c653a206163636f756e7420697320626c61636b6c60448201527f69737465640000000000000000000000000000000000000000000000000000006064820152608401610b49565b610c173386866138e2565b612d73613800565b73ffffffffffffffffffffffffffffffffffffffff8116612e16576040517f08c379a000000000000000000000000000000000000000000000000000000000815260206004820152602f60248201527f4a445343546f6b656e3a206e6577206d61737465724d696e746572206973207460448201527f6865207a65726f206164647265737300000000000000000000000000000000006064820152608401610b49565b600b80547fffffffffffffffffffffffff00000000000000000000000000000000000000001673ffffffffffffffffffffffffffffffffffffffff83169081179091556040517fdb66dfa9c6b8f5226fe9aac7e51897ae8ee94ac31dc70bb6c9900b2574b707e690600090a250565b612e8d613800565b73ffffffffffffffffffffffffffffffffffffffff8116612f30576040517f08c379a000000000000000000000000000000000000000000000000000000000815260206004820152603260248201527f426c61636b6c69737461626c653a206e657720626c61636b6c6973746572206960448201527f7320746865207a65726f206164647265737300000000000000000000000000006064820152608401610b49565b600580547fffffffffffffffffffffffff00000000000000000000000000000000000000001673ffffffffffffffffffffffffffffffffffffffff83169081179091556040517fc67398012c111ce95ecb7429b933096c977380ee6c421175a71a4a4c6c88c06e90600090a250565b612fa76135e8565b612fb283838361471b565b505050565b612fbf613800565b60148210612fcc57600080fd5b6113888110612fda57600080fd5b6013829055600954612ffb90612ff49060ff16600a615cba565b8290614091565b60148190556013546040517fb044a1e409eac5c48e5af22d4af52670dd1a99059537a78b31b48c6500a6354e92613039928252602082015260400190565b60405180910390a15050565b61304d6135e8565b73ffffffffffffffffffffffffffffffffffffffff87166000908152600c6020526040902054879060ff1c600103613107576040517f08c379a000000000000000000000000000000000000000000000000000000000815260206004820152602560248201527f426c61636b6c69737461626c653a206163636f756e7420697320626c61636b6c60448201527f69737465640000000000000000000000000000000000000000000000000000006064820152608401610b49565b73ffffffffffffffffffffffffffffffffffffffff87166000908152600c6020526040902054879060ff1c6001036131c1576040517f08c379a000000000000000000000000000000000000000000000000000000000815260206004820152602560248201527f426c61636b6c69737461626c653a206163636f756e7420697320626c61636b6c60448201527f69737465640000000000000000000000000000000000000000000000000000006064820152608401610b49565b6121cd89898989898989614809565b600a8054610a2090615987565b6131e56135e8565b73ffffffffffffffffffffffffffffffffffffffff89166000908152600c6020526040902054899060ff1c60010361329f576040517f08c379a000000000000000000000000000000000000000000000000000000000815260206004820152602560248201527f426c61636b6c69737461626c653a206163636f756e7420697320626c61636b6c60448201527f69737465640000000000000000000000000000000000000000000000000000006064820152608401610b49565b73ffffffffffffffffffffffffffffffffffffffff89166000908152600c6020526040902054899060ff1c600103613359576040517f08c379a000000000000000000000000000000000000000000000000000000000815260206004820152602560248201527f426c61636b6c69737461626c653a206163636f756e7420697320626c61636b6c60448201527f69737465640000000000000000000000000000000000000000000000000000006064820152608401610b49565b61336a8b8b8b8b8b8b8b8b8b61486f565b5050505050505050505050565b60065473ffffffffffffffffffffffffffffffffffffffff16331461341e576040517f08c379a000000000000000000000000000000000000000000000000000000000815260206004820152602c60248201527f57686974656c69737461626c653a2063616c6c6572206973206e6f742074686560448201527f2077686974656c697374657200000000000000000000000000000000000000006064820152608401610b49565b613427816148d7565b60405173ffffffffffffffffffffffffffffffffffffffff8216907f7cdb51b0cc2e541ad7e9471c358de415f5dbaff6cca78e3393d445346c610c1b90600090a250565b613473613800565b73ffffffffffffffffffffffffffffffffffffffff8116610ccd576040517f1e4fbdf700000000000000000000000000000000000000000000000000000000815260006004820152602401610b49565b60055473ffffffffffffffffffffffffffffffffffffffff16331461356a576040517f08c379a000000000000000000000000000000000000000000000000000000000815260206004820152602c60248201527f426c61636b6c69737461626c653a2063616c6c6572206973206e6f742074686560448201527f20626c61636b6c697374657200000000000000000000000000000000000000006064820152608401610b49565b6135738161402a565b60405173ffffffffffffffffffffffffffffffffffffffff8216907fffa4e6181777692565cf28528fc88fd1516ea86b56da075235fa575af6a4b85590600090a250565b73ffffffffffffffffffffffffffffffffffffffff81166000908152600c602052604081205460ff1c6001146115df565b60035460ff1615611694576040517f08c379a000000000000000000000000000000000000000000000000000000000815260206004820152601060248201527f5061757361626c653a20706175736564000000000000000000000000000000006044820152606401610b49565b73ffffffffffffffffffffffffffffffffffffffff83166136f7576040517f08c379a0000000000000000000000000000000000000000000000000000000008152602060048201526024808201527f45524332303a20617070726f76652066726f6d20746865207a65726f2061646460448201527f72657373000000000000000000000000000000000000000000000000000000006064820152608401610b49565b73ffffffffffffffffffffffffffffffffffffffff821661379a576040517f08c379a000000000000000000000000000000000000000000000000000000000815260206004820152602260248201527f45524332303a20617070726f766520746f20746865207a65726f20616464726560448201527f73730000000000000000000000000000000000000000000000000000000000006064820152608401610b49565b73ffffffffffffffffffffffffffffffffffffffff8381166000818152600e602090815260408083209487168084529482529182902085905590518481527f8c5be1e5ebec7d5bd14f71427d1e84f3dd0314c0f7b2291e5b200ac8c7c3b92591016119b7565b60035473ffffffffffffffffffffffffffffffffffffffff610100909104163314611694576040517f118cdaa7000000000000000000000000000000000000000000000000000000008152336004820152602401610b49565b6003805473ffffffffffffffffffffffffffffffffffffffff8381166101008181027fffffffffffffffffffffff0000000000000000000000000000000000000000ff85161790945560405193909204169182907f8be0079c531659141344cd1fd0a4f28419497f9722a3daafe3b4186f6b6457e090600090a35050565b610cd68160006148e2565b73ffffffffffffffffffffffffffffffffffffffff8316613985576040517f08c379a000000000000000000000000000000000000000000000000000000000815260206004820152602560248201527f45524332303a207472616e736665722066726f6d20746865207a65726f20616460448201527f64726573730000000000000000000000000000000000000000000000000000006064820152608401610b49565b73ffffffffffffffffffffffffffffffffffffffff8216613a28576040517f08c379a000000000000000000000000000000000000000000000000000000000815260206004820152602360248201527f45524332303a207472616e7366657220746f20746865207a65726f206164647260448201527f65737300000000000000000000000000000000000000000000000000000000006064820152608401610b49565b73ffffffffffffffffffffffffffffffffffffffff83166000908152600c60205260409020547f7fffffffffffffffffffffffffffffffffffffffffffffffffffffffffffffff16811115613aff576040517f08c379a000000000000000000000000000000000000000000000000000000000815260206004820152602660248201527f45524332303a207472616e7366657220616d6f756e742065786365656473206260448201527f616c616e636500000000000000000000000000000000000000000000000000006064820152608401610b49565b613b5b8361194c83613b558773ffffffffffffffffffffffffffffffffffffffff166000908152600c60205260409020547f7fffffffffffffffffffffffffffffffffffffffffffffffffffffffffffffff1690565b90613c16565b613bb78261194c83613bb18673ffffffffffffffffffffffffffffffffffffffff166000908152600c60205260409020547f7fffffffffffffffffffffffffffffffffffffffffffffffffffffffffffffff1690565b906149aa565b8173ffffffffffffffffffffffffffffffffffffffff168373ffffffffffffffffffffffffffffffffffffffff167fddf252ad1be2c89b69c2b068fc378daa952ba7f163c4a11628f55a4df523b3ef836040516119b791815260200190565b6000613c228284615cc9565b9392505050565b6121cd89898989898988888b604051602001613c7d93929190928352602083019190915260f81b7fff0000000000000000000000000000000000000000000000000000000000000016604082015260410190565b604051602081830303815290604052614411565b600061143c60078054613ca390615987565b80601f0160208091040260200160405190810160405280929190818152602001828054613ccf90615987565b8015613d1c5780601f10613cf157610100808354040283529160200191613d1c565b820191906000526020600020905b815481529060010190602001808311613cff57829003601f168201915b50505050506040518060400160405280600181526020017f3200000000000000000000000000000000000000000000000000000000000000815250613d5e4690565b8251602093840120825192840192909220604080517f8b73c3c69bb8fe3d512ecc4cf759cc79239f7b179b0ffacaa9a75d522b39400f8187015280820194909452606084019190915260808301919091523060a0808401919091528151808403909101815260c09092019052805191012090565b73ffffffffffffffffffffffffffffffffffffffff8084166000908152600e6020908152604080832093861683529290522054612fb29084908490613e1790856149aa565b613655565b613e246149b6565b600380547fffffffffffffffffffffffffffffffffffffffffffffffffffffffffffffff001690557f5db9ee0a495bf2e6ff9c91a7834c1ba4fdd244a5e8aa4e537bd38aeae4b073aa335b60405173ffffffffffffffffffffffffffffffffffffffff909116815260200160405180910390a1565b7f7fffffffffffffffffffffffffffffffffffffffffffffffffffffffffffffff811115613f49576040517f08c379a000000000000000000000000000000000000000000000000000000000815260206004820152602860248201527f4a445343546f6b656e56313a2042616c616e636520657863656564732028325e60448201527f323535202d2031290000000000000000000000000000000000000000000000006064820152608401610b49565b73ffffffffffffffffffffffffffffffffffffffff82166000908152600c602052604090205460ff1c600103614001576040517f08c379a000000000000000000000000000000000000000000000000000000000815260206004820152602260248201527f4a445343546f6b656e313a204163636f756e7420697320626c61636b6c69737460448201527f65640000000000000000000000000000000000000000000000000000000000006064820152608401610b49565b73ffffffffffffffffffffffffffffffffffffffff9091166000908152600c6020526040902055565b610cd68160016148e2565b60408051602081018490529081018290527fff0000000000000000000000000000000000000000000000000000000000000060f885901b166060820152611e25908690869060610160405160208183030381529060405261471b565b6000613c228284615cdc565b6000613c228284615cf3565b6140b16135e8565b600380547fffffffffffffffffffffffffffffffffffffffffffffffffffffffffffffff001660011790557f62e78cea01bee320cd4e420270b5ea74000d11b0c9f74754ebdbfc544b05a258613e6f3390565b73ffffffffffffffffffffffffffffffffffffffff861633146141a9576040517f08c379a000000000000000000000000000000000000000000000000000000000815260206004820152602160248201527f546f6b656e56323a2063616c6c6572206d75737420626520746865207061796560448201527f65000000000000000000000000000000000000000000000000000000000000006064820152608401610b49565b6141b587838686614a22565b604080517fd099cc98ef71107a616c4f0f941f04c322d8e254fe26b3c6668db87aae413de8602082015273ffffffffffffffffffffffffffffffffffffffff808a169282019290925290871660608201526080810186905260a0810185905260c0810184905260e08101839052614249908890610100015b6040516020818303038152906040528051906020012083614b50565b6142538783614c06565b612a808787876138e2565b600b5474010000000000000000000000000000000000000000900460ff16801561428b575060125460ff16155b61429457600080fd5b6142d3816040518060400160405280600181526020017f3100000000000000000000000000000000000000000000000000000000000000815250614c8c565b60005550601280547fffffffffffffffffffffffffffffffffffffffffffffffffffffffffffffff00166001179055565b600f5460009061431490836149aa565b600f5561436d8361194c84613bb18373ffffffffffffffffffffffffffffffffffffffff166000908152600c60205260409020547f7fffffffffffffffffffffffffffffffffffffffffffffffffffffffffffffff1690565b60405182815273ffffffffffffffffffffffffffffffffffffffff84169033907fab8530f87dc9b59234c4623bf917212bb2536d647574c8e7e5da92c2ede0c9f89060200160405180910390a360405182815273ffffffffffffffffffffffffffffffffffffffff8416906000907fddf252ad1be2c89b69c2b068fc378daa952ba7f163c4a11628f55a4df523b3ef9060200160405180910390a350600192915050565b61441d87838686614a22565b604080517f7c7c6cdb67a18743f49ec6fa9b35f50d52ed05cbed4cc592e13b44501c1a2267602082015273ffffffffffffffffffffffffffffffffffffffff808a169282019290925290871660608201526080810186905260a0810185905260c0810184905260e081018390526142499088906101000161422d565b610cd6816001614d11565b7fffffffffffffffffffffffffffffffffffffffffffffffffffffffffffffffff8214806144d25750428210155b614538576040517f08c379a000000000000000000000000000000000000000000000000000000000815260206004820152601e60248201527f4a445343546f6b656e56323a207065726d6974206973206578706972656400006044820152606401610b49565b6000614639614545613c91565b73ffffffffffffffffffffffffffffffffffffffff8816600090815260026020526040812080547f6e71edae12b1b97f4d1f60370fef10105fa2faae0126114a169c64845d6126c9928b928b928b929091906145a083615d2e565b9091555060408051602081019690965273ffffffffffffffffffffffffffffffffffffffff94851690860152929091166060840152608083015260a082015260c0810186905260e001604051602081830303815290604052805190602001206040517f19010000000000000000000000000000000000000000000000000000000000008152600281019290925260228201526042902090565b9050614646868284614dd9565b6146ac576040517f08c379a000000000000000000000000000000000000000000000000000000000815260206004820152601a60248201527f454950323631323a20696e76616c6964207369676e61747572650000000000006044820152606401610b49565b6146b7868686613655565b505050505050565b612fb28383613e1784604051806060016040528060258152602001615df76025913973ffffffffffffffffffffffffffffffffffffffff808a166000908152600e60209081526040808320938c16835292905220549190614e55565b6147258383614e9b565b604080517f158b0a9edf7a828aad02f63cd515c68ef2f50ba807396f6d12842833a1597429602082015273ffffffffffffffffffffffffffffffffffffffff8516918101919091526060810183905261478290849060800161422d565b73ffffffffffffffffffffffffffffffffffffffff8316600081815260016020818152604080842087855290915280832080547fffffffffffffffffffffffffffffffffffffffffffffffffffffffffffffff0016909217909155518492917f1cdd46ff242716cdaa72d159d339a485b3438398348d68f09d7c8c0a59353d8191a3505050565b612a808787878786868960405160200161485b93929190928352602083019190915260f81b7fff0000000000000000000000000000000000000000000000000000000000000016604082015260410190565b6040516020818303038152906040526144a4565b6121cd89898989898988888b6040516020016148c393929190928352602083019190915260f81b7fff0000000000000000000000000000000000000000000000000000000000000016604082015260410190565b604051602081830303815290604052614104565b610cd6816000614d11565b806149345773ffffffffffffffffffffffffffffffffffffffff82166000908152600c60205260409020547f7fffffffffffffffffffffffffffffffffffffffffffffffffffffffffffffff1661497d565b73ffffffffffffffffffffffffffffffffffffffff82166000908152600c60205260409020547f8000000000000000000000000000000000000000000000000000000000000000175b73ffffffffffffffffffffffffffffffffffffffff9092166000908152600c602052604090209190915550565b6000613c228284615d66565b60035460ff16611694576040517f08c379a000000000000000000000000000000000000000000000000000000000815260206004820152601460248201527f5061757361626c653a206e6f74207061757365640000000000000000000000006044820152606401610b49565b814211614ab1576040517f08c379a000000000000000000000000000000000000000000000000000000000815260206004820152602b60248201527f4a445343546f6b656e56323a20617574686f72697a6174696f6e206973206e6f60448201527f74207965742076616c69640000000000000000000000000000000000000000006064820152608401610b49565b804210614b40576040517f08c379a000000000000000000000000000000000000000000000000000000000815260206004820152602560248201527f4a445343546f6b656e56323a20617574686f72697a6174696f6e20697320657860448201527f70697265640000000000000000000000000000000000000000000000000000006064820152608401610b49565b614b4a8484614e9b565b50505050565b614ba083614b9a614b5f613c91565b856040517f19010000000000000000000000000000000000000000000000000000000000008152600281019290925260228201526042902090565b83614dd9565b612fb2576040517f08c379a000000000000000000000000000000000000000000000000000000000815260206004820152601e60248201527f4a445343546f6b656e56323a20696e76616c6964207369676e617475726500006044820152606401610b49565b73ffffffffffffffffffffffffffffffffffffffff8216600081815260016020818152604080842086855290915280832080547fffffffffffffffffffffffffffffffffffffffffffffffffffffffffffffff0016909217909155518392917f98de503528ee59b575ef0c0a2576a82497bfc029a5685b209e9ec333479b10a591a35050565b600046614d098484838251602093840120825192840192909220604080517f8b73c3c69bb8fe3d512ecc4cf759cc79239f7b179b0ffacaa9a75d522b39400f8187015280820194909452606084019190915260808301919091523060a0808401919091528151808403909101815260c09092019052805191012090565b949350505050565b80614d635773ffffffffffffffffffffffffffffffffffffffff82166000908152600c60205260409020547f7fffffffffffffffffffffffffffffffffffffffffffffffffffffffffffffff16614dac565b73ffffffffffffffffffffffffffffffffffffffff82166000908152600d60205260409020547f8000000000000000000000000000000000000000000000000000000000000000175b73ffffffffffffffffffffffffffffffffffffffff9092166000908152600d602052604090209190915550565b6000806000614de88585614f60565b5090925090506000816003811115614e0257614e02615d79565b148015614e3a57508573ffffffffffffffffffffffffffffffffffffffff168273ffffffffffffffffffffffffffffffffffffffff16145b80614e4b5750614e4b868686614fad565b9695505050505050565b60008184841115614e93576040517f08c379a0000000000000000000000000000000000000000000000000000000008152600401610b499190615262565b505050900390565b73ffffffffffffffffffffffffffffffffffffffff8216600090815260016020908152604080832084845290915290205460ff1615614f5c576040517f08c379a000000000000000000000000000000000000000000000000000000000815260206004820152602e60248201527f4a445343546f6b656e56323a20617574686f72697a6174696f6e20697320757360448201527f6564206f722063616e63656c65640000000000000000000000000000000000006064820152608401610b49565b5050565b60008060008351604103614f9a5760208401516040850151606086015160001a614f8c888285856150fa565b955095509550505050614fa6565b50508151600091506002905b9250925092565b60008060008573ffffffffffffffffffffffffffffffffffffffff168585604051602401614fdc929190615da8565b604080517fffffffffffffffffffffffffffffffffffffffffffffffffffffffffffffffe08184030181529181526020820180517bffffffffffffffffffffffffffffffffffffffffffffffffffffffff167f1626ba7e000000000000000000000000000000000000000000000000000000001790525161505d9190615dc1565b600060405180830381855afa9150503d8060008114615098576040519150601f19603f3d011682016040523d82523d6000602084013e61509d565b606091505b50915091508180156150b157506020815110155b8015614e4b575080517f1626ba7e00000000000000000000000000000000000000000000000000000000906150ef9083016020908101908401615ddd565b149695505050505050565b600080807f7fffffffffffffffffffffffffffffff5d576e7357a4501ddfe92f46681b20a084111561513557506000915060039050826151ea565b604080516000808252602082018084528a905260ff891692820192909252606081018790526080810186905260019060a0016020604051602081039080840390855afa158015615189573d6000803e3d6000fd5b50506040517fffffffffffffffffffffffffffffffffffffffffffffffffffffffffffffffe0015191505073ffffffffffffffffffffffffffffffffffffffff81166151e0575060009250600191508290506151ea565b9250600091508190505b9450945094915050565b60005b8381101561520f5781810151838201526020016151f7565b50506000910152565b600081518084526152308160208601602086016151f4565b601f017fffffffffffffffffffffffffffffffffffffffffffffffffffffffffffffffe0169290920160200192915050565b602081526000613c226020830184615218565b803573ffffffffffffffffffffffffffffffffffffffff8116811461125e57600080fd5b600080604083850312156152ac57600080fd5b6152b583615275565b946020939093013593505050565b6000602082840312156152d557600080fd5b613c2282615275565b6000806000606084860312156152f357600080fd5b6152fc84615275565b925061530a60208501615275565b9150604084013590509250925092565b803560ff8116811461125e57600080fd5b6000806000806000806000806000806101408b8d03121561534b57600080fd5b6153548b615275565b995061536260208c01615275565b985061537060408c01615275565b975060608b0135965060808b0135955060a08b0135945060c08b0135935061539a60e08c0161531a565b92506101008b013591506101208b013590509295989b9194979a5092959850565b6000602082840312156153cd57600080fd5b5035919050565b6000806000604084860312156153e957600080fd5b833567ffffffffffffffff8082111561540157600080fd5b818601915086601f83011261541557600080fd5b81358181111561542457600080fd5b8760208260051b850101111561543957600080fd5b60209283019550935061544f9186019050615275565b90509250925092565b600080600080600060a0868803121561547057600080fd5b61547986615275565b94506020860135935061548e6040870161531a565b94979396509394606081013594506080013592915050565b7f4e487b7100000000000000000000000000000000000000000000000000000000600052604160045260246000fd5b600082601f8301126154e657600080fd5b813567ffffffffffffffff80821115615501576155016154a6565b604051601f83017fffffffffffffffffffffffffffffffffffffffffffffffffffffffffffffffe0908116603f01168101908282118183101715615547576155476154a6565b8160405283815286602085880101111561556057600080fd5b836020870160208301376000602085830101528094505050505092915050565b600080600080600080600060e0888a03121561559b57600080fd5b6155a488615275565b96506155b260208901615275565b955060408801359450606088013593506080880135925060a0880135915060c088013567ffffffffffffffff8111156155ea57600080fd5b6155f68a828b016154d5565b91505092959891949750929550565b60008060008060008060008060006101208a8c03121561562457600080fd5b893567ffffffffffffffff8082111561563c57600080fd5b6156488d838e016154d5565b9a5060208c013591508082111561565e57600080fd5b61566a8d838e016154d5565b995060408c013591508082111561568057600080fd5b5061568d8c828d016154d5565b97505061569c60608b0161531a565b955060808a013594506156b160a08b01615275565b93506156bf60c08b01615275565b92506156cd60e08b01615275565b91506156dc6101008b01615275565b90509295985092959850929598565b600080600080600080600080610100898b03121561570857600080fd5b61571189615275565b975061571f60208a01615275565b965061572d60408a01615275565b9550606089013594506080890135935060a0890135925060c0890135915060e089013567ffffffffffffffff81111561576557600080fd5b6157718b828c016154d5565b9150509295985092959890939650565b600080600080600060a0868803121561579957600080fd5b6157a286615275565b94506157b060208701615275565b93506040860135925060608601359150608086013567ffffffffffffffff8111156157da57600080fd5b6157e6888289016154d5565b9150509295509295909350565b60008060006060848603121561580857600080fd5b61581184615275565b925060208401359150604084013567ffffffffffffffff81111561583457600080fd5b615840868287016154d5565b9150509250925092565b6000806040838503121561585d57600080fd5b50508035926020909101359150565b600080600080600080600060e0888a03121561588757600080fd5b61589088615275565b965061589e60208901615275565b955060408801359450606088013593506158ba6080890161531a565b925060a0880135915060c0880135905092959891949750929550565b600080604083850312156158e957600080fd5b6158f283615275565b915061590060208401615275565b90509250929050565b60008060008060008060008060006101208a8c03121561592857600080fd5b6159318a615275565b985061593f60208b01615275565b975060408a0135965060608a0135955060808a0135945060a08a0135935061596960c08b0161531a565b925060e08a013591506101008a013590509295985092959850929598565b600181811c9082168061599b57607f821691505b6020821081036159d4577f4e487b7100000000000000000000000000000000000000000000000000000000600052602260045260246000fd5b50919050565b7f4e487b7100000000000000000000000000000000000000000000000000000000600052603260045260246000fd5b601f821115612fb2576000816000526020600020601f850160051c81016020861015615a325750805b601f850160051c820191505b818110156146b757828155600101615a3e565b815167ffffffffffffffff811115615a6b57615a6b6154a6565b615a7f81615a798454615987565b84615a09565b602080601f831160018114615ad25760008415615a9c5750858301515b7fffffffffffffffffffffffffffffffffffffffffffffffffffffffffffffffff600386901b1c1916600185901b1785556146b7565b6000858152602081207fffffffffffffffffffffffffffffffffffffffffffffffffffffffffffffffe08616915b82811015615b1f57888601518255948401946001909101908401615b00565b5085821015615b5b57878501517fffffffffffffffffffffffffffffffffffffffffffffffffffffffffffffffff600388901b60f8161c191681555b5050505050600190811b01905550565b7f4e487b7100000000000000000000000000000000000000000000000000000000600052601160045260246000fd5b600181815b80851115615bf357817fffffffffffffffffffffffffffffffffffffffffffffffffffffffffffffffff04821115615bd957615bd9615b6b565b80851615615be657918102915b93841c9390800290615b9f565b509250929050565b600082615c0a575060016115df565b81615c17575060006115df565b8160018114615c2d5760028114615c3757615c53565b60019150506115df565b60ff841115615c4857615c48615b6b565b50506001821b6115df565b5060208310610133831016604e8410600b8410161715615c76575081810a6115df565b615c808383615b9a565b807fffffffffffffffffffffffffffffffffffffffffffffffffffffffffffffffff04821115615cb257615cb2615b6b565b029392505050565b6000613c2260ff841683615bfb565b818103818111156115df576115df615b6b565b80820281158282048414176115df576115df615b6b565b600082615d29577f4e487b7100000000000000000000000000000000000000000000000000000000600052601260045260246000fd5b500490565b60007fffffffffffffffffffffffffffffffffffffffffffffffffffffffffffffffff8203615d5f57615d5f615b6b565b5060010190565b808201808211156115df576115df615b6b565b7f4e487b7100000000000000000000000000000000000000000000000000000000600052602160045260246000fd5b828152604060208201526000614d096040830184615218565b60008251615dd38184602087016151f4565b9190910192915050565b600060208284031215615def57600080fd5b505191905056fe45524332303a2064656372656173656420616c6c6f77616e63652062656c6f77207a65726fa2646970667358221220fe57de96b42e2bb261c96a5c3e4054a512f6741451e880e5ef9fd13e8f84cc7464736f6c63430008190033",
			"opcodes": "PUSH1 0x80 PUSH1 0x40 MSTORE PUSH1 0x0 PUSH1 0xF SSTORE PUSH1 0x0 PUSH1 0x13 SSTORE PUSH1 0x0 PUSH1 0x14 SSTORE CALLVALUE DUP1 ISZERO PUSH1 0x1E JUMPI PUSH1 0x0 DUP1 REVERT JUMPDEST POP PUSH1 0x3 DUP1 SLOAD PUSH1 0xFF NOT AND SWAP1 SSTORE CALLER DUP1 PUSH1 0x4E JUMPI PUSH1 0x40 MLOAD PUSH4 0x1E4FBDF7 PUSH1 0xE0 SHL DUP2 MSTORE PUSH1 0x0 PUSH1 0x4 DUP3 ADD MSTORE PUSH1 0x24 ADD PUSH1 0x40 MLOAD DUP1 SWAP2 SUB SWAP1 REVERT JUMPDEST PUSH1 0x55 DUP2 PUSH1 0x5A JUMP JUMPDEST POP PUSH1 0xB4 JUMP JUMPDEST PUSH1 0x3 DUP1 SLOAD PUSH1 0x1 PUSH1 0x1 PUSH1 0xA0 SHL SUB DUP4 DUP2 AND PUSH2 0x100 DUP2 DUP2 MUL PUSH2 0x100 PUSH1 0x1 PUSH1 0xA8 SHL SUB NOT DUP6 AND OR SWAP1 SWAP5 SSTORE PUSH1 0x40 MLOAD SWAP4 SWAP1 SWAP3 DIV AND SWAP2 DUP3 SWAP1 PUSH32 0x8BE0079C531659141344CD1FD0A4F28419497F9722A3DAAFE3B4186F6B6457E0 SWAP1 PUSH1 0x0 SWAP1 LOG3 POP POP JUMP JUMPDEST PUSH2 0x5E51 DUP1 PUSH2 0xC3 PUSH1 0x0 CODECOPY PUSH1 0x0 RETURN INVALID PUSH1 0x80 PUSH1 0x40 MSTORE CALLVALUE DUP1 ISZERO PUSH2 0x10 JUMPI PUSH1 0x0 DUP1 REVERT JUMPDEST POP PUSH1 0x4 CALLDATASIZE LT PUSH2 0x3C5 JUMPI PUSH1 0x0 CALLDATALOAD PUSH1 0xE0 SHR DUP1 PUSH4 0x8456CB59 GT PUSH2 0x1FF JUMPI DUP1 PUSH4 0xB7B72899 GT PUSH2 0x11A JUMPI DUP1 PUSH4 0xE5A6B10F GT PUSH2 0xAD JUMPI DUP1 PUSH4 0xF21AF007 GT PUSH2 0x7C JUMPI DUP1 PUSH4 0xF21AF007 EQ PUSH2 0x9C7 JUMPI DUP1 PUSH4 0xF2FDE38B EQ PUSH2 0x9DA JUMPI DUP1 PUSH4 0xF9F92BE4 EQ PUSH2 0x9ED JUMPI DUP1 PUSH4 0xFE575A87 EQ PUSH2 0xA00 JUMPI PUSH1 0x0 DUP1 REVERT JUMPDEST DUP1 PUSH4 0xE5A6B10F EQ PUSH2 0x93F JUMPI DUP1 PUSH4 0xE5B5019A EQ PUSH2 0x947 JUMPI DUP1 PUSH4 0xE94A0102 EQ PUSH2 0x96E JUMPI DUP1 PUSH4 0xEF55BEC6 EQ PUSH2 0x9B4 JUMPI PUSH1 0x0 DUP1 REVERT JUMPDEST DUP1 PUSH4 0xD9169487 GT PUSH2 0xE9 JUMPI DUP1 PUSH4 0xD9169487 EQ PUSH2 0x8A9 JUMPI DUP1 PUSH4 0xDD62ED3E EQ PUSH2 0x8D0 JUMPI DUP1 PUSH4 0xDD644F72 EQ PUSH2 0x916 JUMPI DUP1 PUSH4 0xE2E71F93 EQ PUSH2 0x91F JUMPI PUSH1 0x0 DUP1 REVERT JUMPDEST DUP1 PUSH4 0xB7B72899 EQ PUSH2 0x850 JUMPI DUP1 PUSH4 0xBD102430 EQ PUSH2 0x863 JUMPI DUP1 PUSH4 0xC0324C77 EQ PUSH2 0x883 JUMPI DUP1 PUSH4 0xD505ACCF EQ PUSH2 0x896 JUMPI PUSH1 0x0 DUP1 REVERT JUMPDEST DUP1 PUSH4 0x9FD0506D GT PUSH2 0x192 JUMPI DUP1 PUSH4 0xA9059CBB GT PUSH2 0x161 JUMPI DUP1 PUSH4 0xA9059CBB EQ PUSH2 0x7DE JUMPI DUP1 PUSH4 0xAA20E1E4 EQ PUSH2 0x7F1 JUMPI DUP1 PUSH4 0xAA271E1A EQ PUSH2 0x804 JUMPI DUP1 PUSH4 0xAD38BF22 EQ PUSH2 0x83D JUMPI PUSH1 0x0 DUP1 REVERT JUMPDEST DUP1 PUSH4 0x9FD0506D EQ PUSH2 0x771 JUMPI DUP1 PUSH4 0x9FD5A6CF EQ PUSH2 0x791 JUMPI DUP1 PUSH4 0xA0CC6A68 EQ PUSH2 0x7A4 JUMPI DUP1 PUSH4 0xA457C2D7 EQ PUSH2 0x7CB JUMPI PUSH1 0x0 DUP1 REVERT JUMPDEST DUP1 PUSH4 0x94D81D8D GT PUSH2 0x1CE JUMPI DUP1 PUSH4 0x94D81D8D EQ PUSH2 0x730 JUMPI DUP1 PUSH4 0x95D89B41 EQ PUSH2 0x743 JUMPI DUP1 PUSH4 0x9801AC50 EQ PUSH2 0x74B JUMPI DUP1 PUSH4 0x9B19251A EQ PUSH2 0x75E JUMPI PUSH1 0x0 DUP1 REVERT JUMPDEST DUP1 PUSH4 0x8456CB59 EQ PUSH2 0x6BC JUMPI DUP1 PUSH4 0x88B7AB63 EQ PUSH2 0x6C4 JUMPI DUP1 PUSH4 0x8A6DB9C3 EQ PUSH2 0x6D7 JUMPI DUP1 PUSH4 0x8DA5CB5B EQ PUSH2 0x70D JUMPI PUSH1 0x0 DUP1 REVERT JUMPDEST DUP1 PUSH4 0x3AF32ABF GT PUSH2 0x2EF JUMPI DUP1 PUSH4 0x5A049A70 GT PUSH2 0x282 JUMPI DUP1 PUSH4 0x75DC7D8C GT PUSH2 0x251 JUMPI DUP1 PUSH4 0x75DC7D8C EQ PUSH2 0x639 JUMPI DUP1 PUSH4 0x7A4FDA3D EQ PUSH2 0x64C JUMPI DUP1 PUSH4 0x7ECEBE00 EQ PUSH2 0x65F JUMPI DUP1 PUSH4 0x7F2EECC3 EQ PUSH2 0x695 JUMPI PUSH1 0x0 DUP1 REVERT JUMPDEST DUP1 PUSH4 0x5A049A70 EQ PUSH2 0x600 JUMPI DUP1 PUSH4 0x5C975ABB EQ PUSH2 0x613 JUMPI DUP1 PUSH4 0x70A08231 EQ PUSH2 0x61E JUMPI DUP1 PUSH4 0x715018A6 EQ PUSH2 0x631 JUMPI PUSH1 0x0 DUP1 REVERT JUMPDEST DUP1 PUSH4 0x4A6CC18F GT PUSH2 0x2BE JUMPI DUP1 PUSH4 0x4A6CC18F EQ PUSH2 0x58E JUMPI DUP1 PUSH4 0x4E44D956 EQ PUSH2 0x5A1 JUMPI DUP1 PUSH4 0x54FD4D50 EQ PUSH2 0x5B4 JUMPI DUP1 PUSH4 0x554BAB3C EQ PUSH2 0x5ED JUMPI PUSH1 0x0 DUP1 REVERT JUMPDEST DUP1 PUSH4 0x3AF32ABF EQ PUSH2 0x54D JUMPI DUP1 PUSH4 0x3F4BA83A EQ PUSH2 0x560 JUMPI DUP1 PUSH4 0x42966C68 EQ PUSH2 0x568 JUMPI DUP1 PUSH4 0x458B35EE EQ PUSH2 0x57B JUMPI PUSH1 0x0 DUP1 REVERT JUMPDEST DUP1 PUSH4 0x3092AFD5 GT PUSH2 0x367 JUMPI DUP1 PUSH4 0x35390714 GT PUSH2 0x336 JUMPI DUP1 PUSH4 0x35390714 EQ PUSH2 0x509 JUMPI DUP1 PUSH4 0x35D99F35 EQ PUSH2 0x512 JUMPI DUP1 PUSH4 0x3644E515 EQ PUSH2 0x532 JUMPI DUP1 PUSH4 0x39509351 EQ PUSH2 0x53A JUMPI PUSH1 0x0 DUP1 REVERT JUMPDEST DUP1 PUSH4 0x3092AFD5 EQ PUSH2 0x49D JUMPI DUP1 PUSH4 0x30ADF81F EQ PUSH2 0x4B0 JUMPI DUP1 PUSH4 0x313CE567 EQ PUSH2 0x4D7 JUMPI DUP1 PUSH4 0x315F2746 EQ PUSH2 0x4F6 JUMPI PUSH1 0x0 DUP1 REVERT JUMPDEST DUP1 PUSH4 0x18160DDD GT PUSH2 0x3A3 JUMPI DUP1 PUSH4 0x18160DDD EQ PUSH2 0x420 JUMPI DUP1 PUSH4 0x1A895266 EQ PUSH2 0x432 JUMPI DUP1 PUSH4 0x22758A4A EQ PUSH2 0x445 JUMPI DUP1 PUSH4 0x23B872DD EQ PUSH2 0x48A JUMPI PUSH1 0x0 DUP1 REVERT JUMPDEST DUP1 PUSH4 0x6FDDE03 EQ PUSH2 0x3CA JUMPI DUP1 PUSH4 0x95EA7B3 EQ PUSH2 0x3E8 JUMPI DUP1 PUSH4 0x13AF4035 EQ PUSH2 0x40B JUMPI JUMPDEST PUSH1 0x0 DUP1 REVERT JUMPDEST PUSH2 0x3D2 PUSH2 0xA13 JUMP JUMPDEST PUSH1 0x40 MLOAD PUSH2 0x3DF SWAP2 SWAP1 PUSH2 0x5262 JUMP JUMPDEST PUSH1 0x40 MLOAD DUP1 SWAP2 SUB SWAP1 RETURN JUMPDEST PUSH2 0x3FB PUSH2 0x3F6 CALLDATASIZE PUSH1 0x4 PUSH2 0x5299 JUMP JUMPDEST PUSH2 0xAA1 JUMP JUMPDEST PUSH1 0x40 MLOAD SWAP1 ISZERO ISZERO DUP2 MSTORE PUSH1 0x20 ADD PUSH2 0x3DF JUMP JUMPDEST PUSH2 0x41E PUSH2 0x419 CALLDATASIZE PUSH1 0x4 PUSH2 0x52C3 JUMP JUMPDEST PUSH2 0xC22 JUMP JUMPDEST STOP JUMPDEST PUSH1 0xF SLOAD JUMPDEST PUSH1 0x40 MLOAD SWAP1 DUP2 MSTORE PUSH1 0x20 ADD PUSH2 0x3DF JUMP JUMPDEST PUSH2 0x41E PUSH2 0x440 CALLDATASIZE PUSH1 0x4 PUSH2 0x52C3 JUMP JUMPDEST PUSH2 0xCD9 JUMP JUMPDEST PUSH1 0x6 SLOAD PUSH2 0x465 SWAP1 PUSH20 0xFFFFFFFFFFFFFFFFFFFFFFFFFFFFFFFFFFFFFFFF AND DUP2 JUMP JUMPDEST PUSH1 0x40 MLOAD PUSH20 0xFFFFFFFFFFFFFFFFFFFFFFFFFFFFFFFFFFFFFFFF SWAP1 SWAP2 AND DUP2 MSTORE PUSH1 0x20 ADD PUSH2 0x3DF JUMP JUMPDEST PUSH2 0x3FB PUSH2 0x498 CALLDATASIZE PUSH1 0x4 PUSH2 0x52DE JUMP JUMPDEST PUSH2 0xDCD JUMP JUMPDEST PUSH2 0x3FB PUSH2 0x4AB CALLDATASIZE PUSH1 0x4 PUSH2 0x52C3 JUMP JUMPDEST PUSH2 0x1132 JUMP JUMPDEST PUSH2 0x424 PUSH32 0x6E71EDAE12B1B97F4D1F60370FEF10105FA2FAAE0126114A169C64845D6126C9 DUP2 JUMP JUMPDEST PUSH1 0x9 SLOAD PUSH2 0x4E4 SWAP1 PUSH1 0xFF AND DUP2 JUMP JUMPDEST PUSH1 0x40 MLOAD PUSH1 0xFF SWAP1 SWAP2 AND DUP2 MSTORE PUSH1 0x20 ADD PUSH2 0x3DF JUMP JUMPDEST PUSH2 0x41E PUSH2 0x504 CALLDATASIZE PUSH1 0x4 PUSH2 0x532B JUMP JUMPDEST PUSH2 0x1263 JUMP JUMPDEST PUSH2 0x424 PUSH1 0x14 SLOAD DUP2 JUMP JUMPDEST PUSH1 0xB SLOAD PUSH2 0x465 SWAP1 PUSH20 0xFFFFFFFFFFFFFFFFFFFFFFFFFFFFFFFFFFFFFFFF AND DUP2 JUMP JUMPDEST PUSH2 0x424 PUSH2 0x1432 JUMP JUMPDEST PUSH2 0x3FB PUSH2 0x548 CALLDATASIZE PUSH1 0x4 PUSH2 0x5299 JUMP JUMPDEST PUSH2 0x1441 JUMP JUMPDEST PUSH2 0x3FB PUSH2 0x55B CALLDATASIZE PUSH1 0x4 PUSH2 0x52C3 JUMP JUMPDEST PUSH2 0x15B2 JUMP JUMPDEST PUSH2 0x41E PUSH2 0x15E5 JUMP JUMPDEST PUSH2 0x41E PUSH2 0x576 CALLDATASIZE PUSH1 0x4 PUSH2 0x53BB JUMP JUMPDEST PUSH2 0x1696 JUMP JUMPDEST PUSH2 0x41E PUSH2 0x589 CALLDATASIZE PUSH1 0x4 PUSH2 0x52C3 JUMP JUMPDEST PUSH2 0x19C4 JUMP JUMPDEST PUSH2 0x41E PUSH2 0x59C CALLDATASIZE PUSH1 0x4 PUSH2 0x53D4 JUMP JUMPDEST PUSH2 0x1ADE JUMP JUMPDEST PUSH2 0x3FB PUSH2 0x5AF CALLDATASIZE PUSH1 0x4 PUSH2 0x5299 JUMP JUMPDEST PUSH2 0x1BB0 JUMP JUMPDEST PUSH1 0x40 DUP1 MLOAD DUP1 DUP3 ADD SWAP1 SWAP2 MSTORE PUSH1 0x1 DUP2 MSTORE PUSH32 0x3100000000000000000000000000000000000000000000000000000000000000 PUSH1 0x20 DUP3 ADD MSTORE PUSH2 0x3D2 JUMP JUMPDEST PUSH2 0x41E PUSH2 0x5FB CALLDATASIZE PUSH1 0x4 PUSH2 0x52C3 JUMP JUMPDEST PUSH2 0x1CF6 JUMP JUMPDEST PUSH2 0x41E PUSH2 0x60E CALLDATASIZE PUSH1 0x4 PUSH2 0x5458 JUMP JUMPDEST PUSH2 0x1E10 JUMP JUMPDEST PUSH1 0x3 SLOAD PUSH1 0xFF AND PUSH2 0x3FB JUMP JUMPDEST PUSH2 0x424 PUSH2 0x62C CALLDATASIZE PUSH1 0x4 PUSH2 0x52C3 JUMP JUMPDEST PUSH2 0x1E2C JUMP JUMPDEST PUSH2 0x41E PUSH2 0x1E79 JUMP JUMPDEST PUSH2 0x424 PUSH2 0x647 CALLDATASIZE PUSH1 0x4 PUSH2 0x53BB JUMP JUMPDEST PUSH2 0x1E8B JUMP JUMPDEST PUSH2 0x424 PUSH2 0x65A CALLDATASIZE PUSH1 0x4 PUSH2 0x52C3 JUMP JUMPDEST PUSH2 0x1EC5 JUMP JUMPDEST PUSH2 0x424 PUSH2 0x66D CALLDATASIZE PUSH1 0x4 PUSH2 0x52C3 JUMP JUMPDEST PUSH20 0xFFFFFFFFFFFFFFFFFFFFFFFFFFFFFFFFFFFFFFFF AND PUSH1 0x0 SWAP1 DUP2 MSTORE PUSH1 0x2 PUSH1 0x20 MSTORE PUSH1 0x40 SWAP1 KECCAK256 SLOAD SWAP1 JUMP JUMPDEST PUSH2 0x424 PUSH32 0xD099CC98EF71107A616C4F0F941F04C322D8E254FE26B3C6668DB87AAE413DE8 DUP2 JUMP JUMPDEST PUSH2 0x41E PUSH2 0x1F93 JUMP JUMPDEST PUSH2 0x41E PUSH2 0x6D2 CALLDATASIZE PUSH1 0x4 PUSH2 0x5580 JUMP JUMPDEST PUSH2 0x2042 JUMP JUMPDEST PUSH2 0x424 PUSH2 0x6E5 CALLDATASIZE PUSH1 0x4 PUSH2 0x52C3 JUMP JUMPDEST PUSH20 0xFFFFFFFFFFFFFFFFFFFFFFFFFFFFFFFFFFFFFFFF AND PUSH1 0x0 SWAP1 DUP2 MSTORE PUSH1 0x11 PUSH1 0x20 MSTORE PUSH1 0x40 SWAP1 KECCAK256 SLOAD SWAP1 JUMP JUMPDEST PUSH1 0x3 SLOAD PUSH2 0x100 SWAP1 DIV PUSH20 0xFFFFFFFFFFFFFFFFFFFFFFFFFFFFFFFFFFFFFFFF AND PUSH2 0x465 JUMP JUMPDEST PUSH2 0x41E PUSH2 0x73E CALLDATASIZE PUSH1 0x4 PUSH2 0x5605 JUMP JUMPDEST PUSH2 0x21D8 JUMP JUMPDEST PUSH2 0x3D2 PUSH2 0x262D JUMP JUMPDEST PUSH2 0x41E PUSH2 0x759 CALLDATASIZE PUSH1 0x4 PUSH2 0x56EB JUMP JUMPDEST PUSH2 0x263A JUMP JUMPDEST PUSH2 0x41E PUSH2 0x76C CALLDATASIZE PUSH1 0x4 PUSH2 0x52C3 JUMP JUMPDEST PUSH2 0x2803 JUMP JUMPDEST PUSH1 0x4 SLOAD PUSH2 0x465 SWAP1 PUSH20 0xFFFFFFFFFFFFFFFFFFFFFFFFFFFFFFFFFFFFFFFF AND DUP2 JUMP JUMPDEST PUSH2 0x41E PUSH2 0x79F CALLDATASIZE PUSH1 0x4 PUSH2 0x5781 JUMP JUMPDEST PUSH2 0x28F7 JUMP JUMPDEST PUSH2 0x424 PUSH32 0x7C7C6CDB67A18743F49EC6FA9B35F50D52ED05CBED4CC592E13B44501C1A2267 DUP2 JUMP JUMPDEST PUSH2 0x3FB PUSH2 0x7D9 CALLDATASIZE PUSH1 0x4 PUSH2 0x5299 JUMP JUMPDEST PUSH2 0x2A89 JUMP JUMPDEST PUSH2 0x3FB PUSH2 0x7EC CALLDATASIZE PUSH1 0x4 PUSH2 0x5299 JUMP JUMPDEST PUSH2 0x2BFA JUMP JUMPDEST PUSH2 0x41E PUSH2 0x7FF CALLDATASIZE PUSH1 0x4 PUSH2 0x52C3 JUMP JUMPDEST PUSH2 0x2D6B JUMP JUMPDEST PUSH2 0x3FB PUSH2 0x812 CALLDATASIZE PUSH1 0x4 PUSH2 0x52C3 JUMP JUMPDEST PUSH20 0xFFFFFFFFFFFFFFFFFFFFFFFFFFFFFFFFFFFFFFFF AND PUSH1 0x0 SWAP1 DUP2 MSTORE PUSH1 0x10 PUSH1 0x20 MSTORE PUSH1 0x40 SWAP1 KECCAK256 SLOAD PUSH1 0xFF AND SWAP1 JUMP JUMPDEST PUSH2 0x41E PUSH2 0x84B CALLDATASIZE PUSH1 0x4 PUSH2 0x52C3 JUMP JUMPDEST PUSH2 0x2E85 JUMP JUMPDEST PUSH2 0x41E PUSH2 0x85E CALLDATASIZE PUSH1 0x4 PUSH2 0x57F3 JUMP JUMPDEST PUSH2 0x2F9F JUMP JUMPDEST PUSH1 0x5 SLOAD PUSH2 0x465 SWAP1 PUSH20 0xFFFFFFFFFFFFFFFFFFFFFFFFFFFFFFFFFFFFFFFF AND DUP2 JUMP JUMPDEST PUSH2 0x41E PUSH2 0x891 CALLDATASIZE PUSH1 0x4 PUSH2 0x584A JUMP JUMPDEST PUSH2 0x2FB7 JUMP JUMPDEST PUSH2 0x41E PUSH2 0x8A4 CALLDATASIZE PUSH1 0x4 PUSH2 0x586C JUMP JUMPDEST PUSH2 0x3045 JUMP JUMPDEST PUSH2 0x424 PUSH32 0x158B0A9EDF7A828AAD02F63CD515C68EF2F50BA807396F6D12842833A1597429 DUP2 JUMP JUMPDEST PUSH2 0x424 PUSH2 0x8DE CALLDATASIZE PUSH1 0x4 PUSH2 0x58D6 JUMP JUMPDEST PUSH20 0xFFFFFFFFFFFFFFFFFFFFFFFFFFFFFFFFFFFFFFFF SWAP2 DUP3 AND PUSH1 0x0 SWAP1 DUP2 MSTORE PUSH1 0xE PUSH1 0x20 SWAP1 DUP2 MSTORE PUSH1 0x40 DUP1 DUP4 KECCAK256 SWAP4 SWAP1 SWAP5 AND DUP3 MSTORE SWAP2 SWAP1 SWAP2 MSTORE KECCAK256 SLOAD SWAP1 JUMP JUMPDEST PUSH2 0x424 PUSH1 0x13 SLOAD DUP2 JUMP JUMPDEST PUSH2 0x424 PUSH2 0x92D CALLDATASIZE PUSH1 0x4 PUSH2 0x52C3 JUMP JUMPDEST PUSH1 0x15 PUSH1 0x20 MSTORE PUSH1 0x0 SWAP1 DUP2 MSTORE PUSH1 0x40 SWAP1 KECCAK256 SLOAD DUP2 JUMP JUMPDEST PUSH2 0x3D2 PUSH2 0x31D0 JUMP JUMPDEST PUSH2 0x424 PUSH32 0xFFFFFFFFFFFFFFFFFFFFFFFFFFFFFFFFFFFFFFFFFFFFFFFFFFFFFFFFFFFFFFFF DUP2 JUMP JUMPDEST PUSH2 0x3FB PUSH2 0x97C CALLDATASIZE PUSH1 0x4 PUSH2 0x5299 JUMP JUMPDEST PUSH20 0xFFFFFFFFFFFFFFFFFFFFFFFFFFFFFFFFFFFFFFFF SWAP2 SWAP1 SWAP2 AND PUSH1 0x0 SWAP1 DUP2 MSTORE PUSH1 0x1 PUSH1 0x20 SWAP1 DUP2 MSTORE PUSH1 0x40 DUP1 DUP4 KECCAK256 SWAP4 DUP4 MSTORE SWAP3 SWAP1 MSTORE KECCAK256 SLOAD PUSH1 0xFF AND SWAP1 JUMP JUMPDEST PUSH2 0x41E PUSH2 0x9C2 CALLDATASIZE PUSH1 0x4 PUSH2 0x5909 JUMP JUMPDEST PUSH2 0x31DD JUMP JUMPDEST PUSH2 0x41E PUSH2 0x9D5 CALLDATASIZE PUSH1 0x4 PUSH2 0x52C3 JUMP JUMPDEST PUSH2 0x3377 JUMP JUMPDEST PUSH2 0x41E PUSH2 0x9E8 CALLDATASIZE PUSH1 0x4 PUSH2 0x52C3 JUMP JUMPDEST PUSH2 0x346B JUMP JUMPDEST PUSH2 0x41E PUSH2 0x9FB CALLDATASIZE PUSH1 0x4 PUSH2 0x52C3 JUMP JUMPDEST PUSH2 0x34C3 JUMP JUMPDEST PUSH2 0x3FB PUSH2 0xA0E CALLDATASIZE PUSH1 0x4 PUSH2 0x52C3 JUMP JUMPDEST PUSH2 0x35B7 JUMP JUMPDEST PUSH1 0x7 DUP1 SLOAD PUSH2 0xA20 SWAP1 PUSH2 0x5987 JUMP JUMPDEST DUP1 PUSH1 0x1F ADD PUSH1 0x20 DUP1 SWAP2 DIV MUL PUSH1 0x20 ADD PUSH1 0x40 MLOAD SWAP1 DUP2 ADD PUSH1 0x40 MSTORE DUP1 SWAP3 SWAP2 SWAP1 DUP2 DUP2 MSTORE PUSH1 0x20 ADD DUP3 DUP1 SLOAD PUSH2 0xA4C SWAP1 PUSH2 0x5987 JUMP JUMPDEST DUP1 ISZERO PUSH2 0xA99 JUMPI DUP1 PUSH1 0x1F LT PUSH2 0xA6E JUMPI PUSH2 0x100 DUP1 DUP4 SLOAD DIV MUL DUP4 MSTORE SWAP2 PUSH1 0x20 ADD SWAP2 PUSH2 0xA99 JUMP JUMPDEST DUP3 ADD SWAP2 SWAP1 PUSH1 0x0 MSTORE PUSH1 0x20 PUSH1 0x0 KECCAK256 SWAP1 JUMPDEST DUP2 SLOAD DUP2 MSTORE SWAP1 PUSH1 0x1 ADD SWAP1 PUSH1 0x20 ADD DUP1 DUP4 GT PUSH2 0xA7C JUMPI DUP3 SWAP1 SUB PUSH1 0x1F AND DUP3 ADD SWAP2 JUMPDEST POP POP POP POP POP DUP2 JUMP JUMPDEST PUSH1 0x0 PUSH2 0xAAB PUSH2 0x35E8 JUMP JUMPDEST CALLER PUSH1 0x0 DUP2 DUP2 MSTORE PUSH1 0xC PUSH1 0x20 MSTORE PUSH1 0x40 SWAP1 KECCAK256 SLOAD PUSH1 0xFF SHR PUSH1 0x1 SUB PUSH2 0xB52 JUMPI PUSH1 0x40 MLOAD PUSH32 0x8C379A000000000000000000000000000000000000000000000000000000000 DUP2 MSTORE PUSH1 0x20 PUSH1 0x4 DUP3 ADD MSTORE PUSH1 0x25 PUSH1 0x24 DUP3 ADD MSTORE PUSH32 0x426C61636B6C69737461626C653A206163636F756E7420697320626C61636B6C PUSH1 0x44 DUP3 ADD MSTORE PUSH32 0x6973746564000000000000000000000000000000000000000000000000000000 PUSH1 0x64 DUP3 ADD MSTORE PUSH1 0x84 ADD JUMPDEST PUSH1 0x40 MLOAD DUP1 SWAP2 SUB SWAP1 REVERT JUMPDEST PUSH20 0xFFFFFFFFFFFFFFFFFFFFFFFFFFFFFFFFFFFFFFFF DUP5 AND PUSH1 0x0 SWAP1 DUP2 MSTORE PUSH1 0xC PUSH1 0x20 MSTORE PUSH1 0x40 SWAP1 KECCAK256 SLOAD DUP5 SWAP1 PUSH1 0xFF SHR PUSH1 0x1 SUB PUSH2 0xC0C JUMPI PUSH1 0x40 MLOAD PUSH32 0x8C379A000000000000000000000000000000000000000000000000000000000 DUP2 MSTORE PUSH1 0x20 PUSH1 0x4 DUP3 ADD MSTORE PUSH1 0x25 PUSH1 0x24 DUP3 ADD MSTORE PUSH32 0x426C61636B6C69737461626C653A206163636F756E7420697320626C61636B6C PUSH1 0x44 DUP3 ADD MSTORE PUSH32 0x6973746564000000000000000000000000000000000000000000000000000000 PUSH1 0x64 DUP3 ADD MSTORE PUSH1 0x84 ADD PUSH2 0xB49 JUMP JUMPDEST PUSH2 0xC17 CALLER DUP7 DUP7 PUSH2 0x3655 JUMP JUMPDEST POP PUSH1 0x1 SWAP5 SWAP4 POP POP POP POP JUMP JUMPDEST PUSH2 0xC2A PUSH2 0x3800 JUMP JUMPDEST PUSH20 0xFFFFFFFFFFFFFFFFFFFFFFFFFFFFFFFFFFFFFFFF DUP2 AND PUSH2 0xCCD JUMPI PUSH1 0x40 MLOAD PUSH32 0x8C379A000000000000000000000000000000000000000000000000000000000 DUP2 MSTORE PUSH1 0x20 PUSH1 0x4 DUP3 ADD MSTORE PUSH1 0x2A PUSH1 0x24 DUP3 ADD MSTORE PUSH32 0x4A4453434F776E61626C653A206E6577206F776E657220697320746865207A65 PUSH1 0x44 DUP3 ADD MSTORE PUSH32 0x726F206164647265737300000000000000000000000000000000000000000000 PUSH1 0x64 DUP3 ADD MSTORE PUSH1 0x84 ADD PUSH2 0xB49 JUMP JUMPDEST PUSH2 0xCD6 DUP2 PUSH2 0x3859 JUMP JUMPDEST POP JUMP JUMPDEST PUSH1 0x5 SLOAD PUSH20 0xFFFFFFFFFFFFFFFFFFFFFFFFFFFFFFFFFFFFFFFF AND CALLER EQ PUSH2 0xD80 JUMPI PUSH1 0x40 MLOAD PUSH32 0x8C379A000000000000000000000000000000000000000000000000000000000 DUP2 MSTORE PUSH1 0x20 PUSH1 0x4 DUP3 ADD MSTORE PUSH1 0x2C PUSH1 0x24 DUP3 ADD MSTORE PUSH32 0x426C61636B6C69737461626C653A2063616C6C6572206973206E6F7420746865 PUSH1 0x44 DUP3 ADD MSTORE PUSH32 0x20626C61636B6C69737465720000000000000000000000000000000000000000 PUSH1 0x64 DUP3 ADD MSTORE PUSH1 0x84 ADD PUSH2 0xB49 JUMP JUMPDEST PUSH2 0xD89 DUP2 PUSH2 0x38D7 JUMP JUMPDEST PUSH1 0x40 MLOAD PUSH20 0xFFFFFFFFFFFFFFFFFFFFFFFFFFFFFFFFFFFFFFFF DUP3 AND SWAP1 PUSH32 0x117E3210BB9AA7D9BAFF172026820255C6F6C30BA8999D1C2FD88E2848137C4E SWAP1 PUSH1 0x0 SWAP1 LOG2 POP JUMP JUMPDEST PUSH1 0x0 PUSH2 0xDD7 PUSH2 0x35E8 JUMP JUMPDEST CALLER PUSH1 0x0 DUP2 DUP2 MSTORE PUSH1 0xC PUSH1 0x20 MSTORE PUSH1 0x40 SWAP1 KECCAK256 SLOAD PUSH1 0xFF SHR PUSH1 0x1 SUB PUSH2 0xE79 JUMPI PUSH1 0x40 MLOAD PUSH32 0x8C379A000000000000000000000000000000000000000000000000000000000 DUP2 MSTORE PUSH1 0x20 PUSH1 0x4 DUP3 ADD MSTORE PUSH1 0x25 PUSH1 0x24 DUP3 ADD MSTORE PUSH32 0x426C61636B6C69737461626C653A206163636F756E7420697320626C61636B6C PUSH1 0x44 DUP3 ADD MSTORE PUSH32 0x6973746564000000000000000000000000000000000000000000000000000000 PUSH1 0x64 DUP3 ADD MSTORE PUSH1 0x84 ADD PUSH2 0xB49 JUMP JUMPDEST PUSH20 0xFFFFFFFFFFFFFFFFFFFFFFFFFFFFFFFFFFFFFFFF DUP6 AND PUSH1 0x0 SWAP1 DUP2 MSTORE PUSH1 0xC PUSH1 0x20 MSTORE PUSH1 0x40 SWAP1 KECCAK256 SLOAD DUP6 SWAP1 PUSH1 0xFF SHR PUSH1 0x1 SUB PUSH2 0xF33 JUMPI PUSH1 0x40 MLOAD PUSH32 0x8C379A000000000000000000000000000000000000000000000000000000000 DUP2 MSTORE PUSH1 0x20 PUSH1 0x4 DUP3 ADD MSTORE PUSH1 0x25 PUSH1 0x24 DUP3 ADD MSTORE PUSH32 0x426C61636B6C69737461626C653A206163636F756E7420697320626C61636B6C PUSH1 0x44 DUP3 ADD MSTORE PUSH32 0x6973746564000000000000000000000000000000000000000000000000000000 PUSH1 0x64 DUP3 ADD MSTORE PUSH1 0x84 ADD PUSH2 0xB49 JUMP JUMPDEST PUSH20 0xFFFFFFFFFFFFFFFFFFFFFFFFFFFFFFFFFFFFFFFF DUP6 AND PUSH1 0x0 SWAP1 DUP2 MSTORE PUSH1 0xC PUSH1 0x20 MSTORE PUSH1 0x40 SWAP1 KECCAK256 SLOAD DUP6 SWAP1 PUSH1 0xFF SHR PUSH1 0x1 SUB PUSH2 0xFED JUMPI PUSH1 0x40 MLOAD PUSH32 0x8C379A000000000000000000000000000000000000000000000000000000000 DUP2 MSTORE PUSH1 0x20 PUSH1 0x4 DUP3 ADD MSTORE PUSH1 0x25 PUSH1 0x24 DUP3 ADD MSTORE PUSH32 0x426C61636B6C69737461626C653A206163636F756E7420697320626C61636B6C PUSH1 0x44 DUP3 ADD MSTORE PUSH32 0x6973746564000000000000000000000000000000000000000000000000000000 PUSH1 0x64 DUP3 ADD MSTORE PUSH1 0x84 ADD PUSH2 0xB49 JUMP JUMPDEST PUSH20 0xFFFFFFFFFFFFFFFFFFFFFFFFFFFFFFFFFFFFFFFF DUP8 AND PUSH1 0x0 SWAP1 DUP2 MSTORE PUSH1 0xE PUSH1 0x20 SWAP1 DUP2 MSTORE PUSH1 0x40 DUP1 DUP4 KECCAK256 CALLER DUP5 MSTORE SWAP1 SWAP2 MSTORE SWAP1 KECCAK256 SLOAD DUP6 GT ISZERO PUSH2 0x10AD JUMPI PUSH1 0x40 MLOAD PUSH32 0x8C379A000000000000000000000000000000000000000000000000000000000 DUP2 MSTORE PUSH1 0x20 PUSH1 0x4 DUP3 ADD MSTORE PUSH1 0x28 PUSH1 0x24 DUP3 ADD MSTORE PUSH32 0x45524332303A207472616E7366657220616D6F756E7420657863656564732061 PUSH1 0x44 DUP3 ADD MSTORE PUSH32 0x6C6C6F77616E6365000000000000000000000000000000000000000000000000 PUSH1 0x64 DUP3 ADD MSTORE PUSH1 0x84 ADD PUSH2 0xB49 JUMP JUMPDEST PUSH2 0x10B8 DUP8 DUP8 DUP8 PUSH2 0x38E2 JUMP JUMPDEST PUSH20 0xFFFFFFFFFFFFFFFFFFFFFFFFFFFFFFFFFFFFFFFF DUP8 AND PUSH1 0x0 SWAP1 DUP2 MSTORE PUSH1 0xE PUSH1 0x20 SWAP1 DUP2 MSTORE PUSH1 0x40 DUP1 DUP4 KECCAK256 CALLER DUP5 MSTORE SWAP1 SWAP2 MSTORE SWAP1 KECCAK256 SLOAD PUSH2 0x10F3 SWAP1 DUP7 PUSH2 0x3C16 JUMP JUMPDEST PUSH20 0xFFFFFFFFFFFFFFFFFFFFFFFFFFFFFFFFFFFFFFFF DUP9 AND PUSH1 0x0 SWAP1 DUP2 MSTORE PUSH1 0xE PUSH1 0x20 SWAP1 DUP2 MSTORE PUSH1 0x40 DUP1 DUP4 KECCAK256 CALLER DUP5 MSTORE SWAP1 SWAP2 MSTORE SWAP1 KECCAK256 SSTORE PUSH1 0x1 SWAP4 POP POP POP POP SWAP4 SWAP3 POP POP POP JUMP JUMPDEST PUSH1 0xB SLOAD PUSH1 0x0 SWAP1 PUSH20 0xFFFFFFFFFFFFFFFFFFFFFFFFFFFFFFFFFFFFFFFF AND CALLER EQ PUSH2 0x11DC JUMPI PUSH1 0x40 MLOAD PUSH32 0x8C379A000000000000000000000000000000000000000000000000000000000 DUP2 MSTORE PUSH1 0x20 PUSH1 0x4 DUP3 ADD MSTORE PUSH1 0x29 PUSH1 0x24 DUP3 ADD MSTORE PUSH32 0x4A445343546F6B656E3A2063616C6C6572206973206E6F7420746865206D6173 PUSH1 0x44 DUP3 ADD MSTORE PUSH32 0x7465724D696E7465720000000000000000000000000000000000000000000000 PUSH1 0x64 DUP3 ADD MSTORE PUSH1 0x84 ADD PUSH2 0xB49 JUMP JUMPDEST PUSH20 0xFFFFFFFFFFFFFFFFFFFFFFFFFFFFFFFFFFFFFFFF DUP3 AND PUSH1 0x0 DUP2 DUP2 MSTORE PUSH1 0x10 PUSH1 0x20 SWAP1 DUP2 MSTORE PUSH1 0x40 DUP1 DUP4 KECCAK256 DUP1 SLOAD PUSH32 0xFFFFFFFFFFFFFFFFFFFFFFFFFFFFFFFFFFFFFFFFFFFFFFFFFFFFFFFFFFFFFF00 AND SWAP1 SSTORE PUSH1 0x11 SWAP1 SWAP2 MSTORE DUP1 DUP3 KECCAK256 DUP3 SWAP1 SSTORE MLOAD PUSH32 0xE94479A9F7E1952CC78F2D6BAAB678ADC1B772D936C6583DEF489E524CB66692 SWAP2 SWAP1 LOG2 POP PUSH1 0x1 JUMPDEST SWAP2 SWAP1 POP JUMP JUMPDEST PUSH2 0x126B PUSH2 0x35E8 JUMP JUMPDEST PUSH20 0xFFFFFFFFFFFFFFFFFFFFFFFFFFFFFFFFFFFFFFFF DUP11 AND PUSH1 0x0 SWAP1 DUP2 MSTORE PUSH1 0xD PUSH1 0x20 MSTORE PUSH1 0x40 SWAP1 KECCAK256 SLOAD DUP11 SWAP1 PUSH1 0xFF SHR PUSH1 0x1 EQ PUSH2 0x1325 JUMPI PUSH1 0x40 MLOAD PUSH32 0x8C379A000000000000000000000000000000000000000000000000000000000 DUP2 MSTORE PUSH1 0x20 PUSH1 0x4 DUP3 ADD MSTORE PUSH1 0x2D PUSH1 0x24 DUP3 ADD MSTORE PUSH32 0x57686974656C69737461626C653A206163636F756E74206973206E6F74207468 PUSH1 0x44 DUP3 ADD MSTORE PUSH32 0x652077686974656C697374656400000000000000000000000000000000000000 PUSH1 0x64 DUP3 ADD MSTORE PUSH1 0x84 ADD PUSH2 0xB49 JUMP JUMPDEST PUSH20 0xFFFFFFFFFFFFFFFFFFFFFFFFFFFFFFFFFFFFFFFF DUP11 AND PUSH1 0x0 SWAP1 DUP2 MSTORE PUSH1 0xD PUSH1 0x20 MSTORE PUSH1 0x40 SWAP1 KECCAK256 SLOAD DUP11 SWAP1 PUSH1 0xFF SHR PUSH1 0x1 EQ PUSH2 0x13DF JUMPI PUSH1 0x40 MLOAD PUSH32 0x8C379A000000000000000000000000000000000000000000000000000000000 DUP2 MSTORE PUSH1 0x20 PUSH1 0x4 DUP3 ADD MSTORE PUSH1 0x2D PUSH1 0x24 DUP3 ADD MSTORE PUSH32 0x57686974656C69737461626C653A206163636F756E74206973206E6F74207468 PUSH1 0x44 DUP3 ADD MSTORE PUSH32 0x652077686974656C697374656400000000000000000000000000000000000000 PUSH1 0x64 DUP3 ADD MSTORE PUSH1 0x84 ADD PUSH2 0xB49 JUMP JUMPDEST PUSH1 0x0 PUSH2 0x13EA DUP11 PUSH2 0x1E8B JUMP JUMPDEST SWAP1 POP PUSH1 0x0 PUSH2 0x13F8 DUP12 DUP4 PUSH2 0x3C16 JUMP JUMPDEST SWAP1 POP PUSH2 0x140B DUP14 DUP14 DUP4 DUP14 DUP14 DUP14 DUP14 DUP14 DUP14 PUSH2 0x3C29 JUMP JUMPDEST DUP2 ISZERO PUSH2 0x1422 JUMPI PUSH2 0x1422 DUP14 DUP16 DUP5 DUP14 DUP14 DUP14 DUP14 DUP14 DUP14 PUSH2 0x3C29 JUMP JUMPDEST POP POP POP POP POP POP POP POP POP POP POP POP POP POP JUMP JUMPDEST PUSH1 0x0 PUSH2 0x143C PUSH2 0x3C91 JUMP JUMPDEST SWAP1 POP SWAP1 JUMP JUMPDEST PUSH1 0x0 PUSH2 0x144B PUSH2 0x35E8 JUMP JUMPDEST CALLER PUSH1 0x0 DUP2 DUP2 MSTORE PUSH1 0xC PUSH1 0x20 MSTORE PUSH1 0x40 SWAP1 KECCAK256 SLOAD PUSH1 0xFF SHR PUSH1 0x1 SUB PUSH2 0x14ED JUMPI PUSH1 0x40 MLOAD PUSH32 0x8C379A000000000000000000000000000000000000000000000000000000000 DUP2 MSTORE PUSH1 0x20 PUSH1 0x4 DUP3 ADD MSTORE PUSH1 0x25 PUSH1 0x24 DUP3 ADD MSTORE PUSH32 0x426C61636B6C69737461626C653A206163636F756E7420697320626C61636B6C PUSH1 0x44 DUP3 ADD MSTORE PUSH32 0x6973746564000000000000000000000000000000000000000000000000000000 PUSH1 0x64 DUP3 ADD MSTORE PUSH1 0x84 ADD PUSH2 0xB49 JUMP JUMPDEST PUSH20 0xFFFFFFFFFFFFFFFFFFFFFFFFFFFFFFFFFFFFFFFF DUP5 AND PUSH1 0x0 SWAP1 DUP2 MSTORE PUSH1 0xC PUSH1 0x20 MSTORE PUSH1 0x40 SWAP1 KECCAK256 SLOAD DUP5 SWAP1 PUSH1 0xFF SHR PUSH1 0x1 SUB PUSH2 0x15A7 JUMPI PUSH1 0x40 MLOAD PUSH32 0x8C379A000000000000000000000000000000000000000000000000000000000 DUP2 MSTORE PUSH1 0x20 PUSH1 0x4 DUP3 ADD MSTORE PUSH1 0x25 PUSH1 0x24 DUP3 ADD MSTORE PUSH32 0x426C61636B6C69737461626C653A206163636F756E7420697320626C61636B6C PUSH1 0x44 DUP3 ADD MSTORE PUSH32 0x6973746564000000000000000000000000000000000000000000000000000000 PUSH1 0x64 DUP3 ADD MSTORE PUSH1 0x84 ADD PUSH2 0xB49 JUMP JUMPDEST PUSH2 0xC17 CALLER DUP7 DUP7 PUSH2 0x3DD2 JUMP JUMPDEST PUSH20 0xFFFFFFFFFFFFFFFFFFFFFFFFFFFFFFFFFFFFFFFF DUP2 AND PUSH1 0x0 SWAP1 DUP2 MSTORE PUSH1 0xD PUSH1 0x20 MSTORE PUSH1 0x40 DUP2 KECCAK256 SLOAD PUSH1 0xFF SHR PUSH1 0x1 EQ JUMPDEST SWAP3 SWAP2 POP POP JUMP JUMPDEST PUSH1 0x4 SLOAD PUSH20 0xFFFFFFFFFFFFFFFFFFFFFFFFFFFFFFFFFFFFFFFF AND CALLER EQ PUSH2 0x168C JUMPI PUSH1 0x40 MLOAD PUSH32 0x8C379A000000000000000000000000000000000000000000000000000000000 DUP2 MSTORE PUSH1 0x20 PUSH1 0x4 DUP3 ADD MSTORE PUSH1 0x26 PUSH1 0x24 DUP3 ADD MSTORE PUSH32 0x4A4453435061757361626C653A2063616C6C6572206973206E6F742074686520 PUSH1 0x44 DUP3 ADD MSTORE PUSH32 0x7061757365720000000000000000000000000000000000000000000000000000 PUSH1 0x64 DUP3 ADD MSTORE PUSH1 0x84 ADD PUSH2 0xB49 JUMP JUMPDEST PUSH2 0x1694 PUSH2 0x3E1C JUMP JUMPDEST JUMP JUMPDEST PUSH2 0x169E PUSH2 0x35E8 JUMP JUMPDEST CALLER PUSH1 0x0 SWAP1 DUP2 MSTORE PUSH1 0x10 PUSH1 0x20 MSTORE PUSH1 0x40 SWAP1 KECCAK256 SLOAD PUSH1 0xFF AND PUSH2 0x173D JUMPI PUSH1 0x40 MLOAD PUSH32 0x8C379A000000000000000000000000000000000000000000000000000000000 DUP2 MSTORE PUSH1 0x20 PUSH1 0x4 DUP3 ADD MSTORE PUSH1 0x21 PUSH1 0x24 DUP3 ADD MSTORE PUSH32 0x4A445343546F6B656E3A2063616C6C6572206973206E6F742061206D696E7465 PUSH1 0x44 DUP3 ADD MSTORE PUSH32 0x7200000000000000000000000000000000000000000000000000000000000000 PUSH1 0x64 DUP3 ADD MSTORE PUSH1 0x84 ADD PUSH2 0xB49 JUMP JUMPDEST CALLER PUSH1 0x0 DUP2 DUP2 MSTORE PUSH1 0xC PUSH1 0x20 MSTORE PUSH1 0x40 SWAP1 KECCAK256 SLOAD PUSH1 0xFF SHR PUSH1 0x1 SUB PUSH2 0x17DF JUMPI PUSH1 0x40 MLOAD PUSH32 0x8C379A000000000000000000000000000000000000000000000000000000000 DUP2 MSTORE PUSH1 0x20 PUSH1 0x4 DUP3 ADD MSTORE PUSH1 0x25 PUSH1 0x24 DUP3 ADD MSTORE PUSH32 0x426C61636B6C69737461626C653A206163636F756E7420697320626C61636B6C PUSH1 0x44 DUP3 ADD MSTORE PUSH32 0x6973746564000000000000000000000000000000000000000000000000000000 PUSH1 0x64 DUP3 ADD MSTORE PUSH1 0x84 ADD PUSH2 0xB49 JUMP JUMPDEST CALLER PUSH1 0x0 SWAP1 DUP2 MSTORE PUSH1 0xC PUSH1 0x20 MSTORE PUSH1 0x40 SWAP1 KECCAK256 SLOAD PUSH32 0x7FFFFFFFFFFFFFFFFFFFFFFFFFFFFFFFFFFFFFFFFFFFFFFFFFFFFFFFFFFFFFFF AND DUP3 PUSH2 0x189E JUMPI PUSH1 0x40 MLOAD PUSH32 0x8C379A000000000000000000000000000000000000000000000000000000000 DUP2 MSTORE PUSH1 0x20 PUSH1 0x4 DUP3 ADD MSTORE PUSH1 0x29 PUSH1 0x24 DUP3 ADD MSTORE PUSH32 0x4A445343546F6B656E3A206275726E20616D6F756E74206E6F74206772656174 PUSH1 0x44 DUP3 ADD MSTORE PUSH32 0x6572207468616E20300000000000000000000000000000000000000000000000 PUSH1 0x64 DUP3 ADD MSTORE PUSH1 0x84 ADD PUSH2 0xB49 JUMP JUMPDEST DUP3 DUP2 LT ISZERO PUSH2 0x192E JUMPI PUSH1 0x40 MLOAD PUSH32 0x8C379A000000000000000000000000000000000000000000000000000000000 DUP2 MSTORE PUSH1 0x20 PUSH1 0x4 DUP3 ADD MSTORE PUSH1 0x26 PUSH1 0x24 DUP3 ADD MSTORE PUSH32 0x4A445343546F6B656E3A206275726E20616D6F756E7420657863656564732062 PUSH1 0x44 DUP3 ADD MSTORE PUSH32 0x616C616E63650000000000000000000000000000000000000000000000000000 PUSH1 0x64 DUP3 ADD MSTORE PUSH1 0x84 ADD PUSH2 0xB49 JUMP JUMPDEST PUSH1 0xF SLOAD PUSH2 0x193B SWAP1 DUP5 PUSH2 0x3C16 JUMP JUMPDEST PUSH1 0xF SSTORE PUSH2 0x1951 CALLER PUSH2 0x194C DUP4 DUP7 PUSH2 0x3C16 JUMP JUMPDEST PUSH2 0x3E99 JUMP JUMPDEST PUSH1 0x40 MLOAD DUP4 DUP2 MSTORE CALLER SWAP1 PUSH32 0xCC16F5DBB4873280815C1EE09DBD06736CFFCC184412CF7A71A0FDB75D397CA5 SWAP1 PUSH1 0x20 ADD PUSH1 0x40 MLOAD DUP1 SWAP2 SUB SWAP1 LOG2 PUSH1 0x40 MLOAD DUP4 DUP2 MSTORE PUSH1 0x0 SWAP1 CALLER SWAP1 PUSH32 0xDDF252AD1BE2C89B69C2B068FC378DAA952BA7F163C4A11628F55A4DF523B3EF SWAP1 PUSH1 0x20 ADD JUMPDEST PUSH1 0x40 MLOAD DUP1 SWAP2 SUB SWAP1 LOG3 POP POP POP JUMP JUMPDEST PUSH2 0x19CC PUSH2 0x3800 JUMP JUMPDEST PUSH20 0xFFFFFFFFFFFFFFFFFFFFFFFFFFFFFFFFFFFFFFFF DUP2 AND PUSH2 0x1A6F JUMPI PUSH1 0x40 MLOAD PUSH32 0x8C379A000000000000000000000000000000000000000000000000000000000 DUP2 MSTORE PUSH1 0x20 PUSH1 0x4 DUP3 ADD MSTORE PUSH1 0x32 PUSH1 0x24 DUP3 ADD MSTORE PUSH32 0x57686974656C69737461626C653A206E65772077686974656C69737465722069 PUSH1 0x44 DUP3 ADD MSTORE PUSH32 0x7320746865207A65726F20616464726573730000000000000000000000000000 PUSH1 0x64 DUP3 ADD MSTORE PUSH1 0x84 ADD PUSH2 0xB49 JUMP JUMPDEST PUSH1 0x6 DUP1 SLOAD PUSH32 0xFFFFFFFFFFFFFFFFFFFFFFFF0000000000000000000000000000000000000000 AND PUSH20 0xFFFFFFFFFFFFFFFFFFFFFFFFFFFFFFFFFFFFFFFF DUP4 AND SWAP1 DUP2 OR SWAP1 SWAP2 SSTORE PUSH1 0x40 MLOAD PUSH32 0x800D1DE693142E2C37EF233754D1D9E7EDC8AE28D34204DDF3E180C02D0B009E SWAP1 PUSH1 0x0 SWAP1 LOG2 POP JUMP JUMPDEST PUSH1 0x12 SLOAD PUSH1 0xFF AND PUSH1 0x1 EQ PUSH2 0x1AF0 JUMPI PUSH1 0x0 DUP1 REVERT JUMPDEST ADDRESS PUSH1 0x0 SWAP1 DUP2 MSTORE PUSH1 0xC PUSH1 0x20 MSTORE PUSH1 0x40 SWAP1 KECCAK256 SLOAD PUSH32 0x7FFFFFFFFFFFFFFFFFFFFFFFFFFFFFFFFFFFFFFFFFFFFFFFFFFFFFFFFFFFFFFF AND DUP1 ISZERO PUSH2 0x1B33 JUMPI PUSH2 0x1B33 ADDRESS DUP4 DUP4 PUSH2 0x38E2 JUMP JUMPDEST PUSH1 0x0 JUMPDEST DUP4 DUP2 LT ISZERO PUSH2 0x1B75 JUMPI PUSH2 0x1B6D DUP6 DUP6 DUP4 DUP2 DUP2 LT PUSH2 0x1B53 JUMPI PUSH2 0x1B53 PUSH2 0x59DA JUMP JUMPDEST SWAP1 POP PUSH1 0x20 MUL ADD PUSH1 0x20 DUP2 ADD SWAP1 PUSH2 0x1B68 SWAP2 SWAP1 PUSH2 0x52C3 JUMP JUMPDEST PUSH2 0x402A JUMP JUMPDEST PUSH1 0x1 ADD PUSH2 0x1B36 JUMP JUMPDEST POP PUSH2 0x1B7F ADDRESS PUSH2 0x402A JUMP JUMPDEST POP POP PUSH1 0x12 DUP1 SLOAD PUSH32 0xFFFFFFFFFFFFFFFFFFFFFFFFFFFFFFFFFFFFFFFFFFFFFFFFFFFFFFFFFFFFFF00 AND PUSH1 0x2 OR SWAP1 SSTORE POP POP JUMP JUMPDEST PUSH1 0x0 PUSH2 0x1BBA PUSH2 0x35E8 JUMP JUMPDEST PUSH1 0xB SLOAD PUSH20 0xFFFFFFFFFFFFFFFFFFFFFFFFFFFFFFFFFFFFFFFF AND CALLER EQ PUSH2 0x1C61 JUMPI PUSH1 0x40 MLOAD PUSH32 0x8C379A000000000000000000000000000000000000000000000000000000000 DUP2 MSTORE PUSH1 0x20 PUSH1 0x4 DUP3 ADD MSTORE PUSH1 0x29 PUSH1 0x24 DUP3 ADD MSTORE PUSH32 0x4A445343546F6B656E3A2063616C6C6572206973206E6F7420746865206D6173 PUSH1 0x44 DUP3 ADD MSTORE PUSH32 0x7465724D696E7465720000000000000000000000000000000000000000000000 PUSH1 0x64 DUP3 ADD MSTORE PUSH1 0x84 ADD PUSH2 0xB49 JUMP JUMPDEST PUSH20 0xFFFFFFFFFFFFFFFFFFFFFFFFFFFFFFFFFFFFFFFF DUP4 AND PUSH1 0x0 DUP2 DUP2 MSTORE PUSH1 0x10 PUSH1 0x20 SWAP1 DUP2 MSTORE PUSH1 0x40 DUP1 DUP4 KECCAK256 DUP1 SLOAD PUSH32 0xFFFFFFFFFFFFFFFFFFFFFFFFFFFFFFFFFFFFFFFFFFFFFFFFFFFFFFFFFFFFFF00 AND PUSH1 0x1 OR SWAP1 SSTORE PUSH1 0x11 DUP3 MSTORE SWAP2 DUP3 SWAP1 KECCAK256 DUP6 SWAP1 SSTORE SWAP1 MLOAD DUP5 DUP2 MSTORE PUSH32 0x46980FCA912EF9BCDBD36877427B6B90E860769F604E89C0E67720CECE530D20 SWAP2 ADD PUSH1 0x40 MLOAD DUP1 SWAP2 SUB SWAP1 LOG2 POP PUSH1 0x1 SWAP3 SWAP2 POP POP JUMP JUMPDEST PUSH2 0x1CFE PUSH2 0x3800 JUMP JUMPDEST PUSH20 0xFFFFFFFFFFFFFFFFFFFFFFFFFFFFFFFFFFFFFFFF DUP2 AND PUSH2 0x1DA1 JUMPI PUSH1 0x40 MLOAD PUSH32 0x8C379A000000000000000000000000000000000000000000000000000000000 DUP2 MSTORE PUSH1 0x20 PUSH1 0x4 DUP3 ADD MSTORE PUSH1 0x2C PUSH1 0x24 DUP3 ADD MSTORE PUSH32 0x4A4453435061757361626C653A206E6577207061757365722069732074686520 PUSH1 0x44 DUP3 ADD MSTORE PUSH32 0x7A65726F20616464726573730000000000000000000000000000000000000000 PUSH1 0x64 DUP3 ADD MSTORE PUSH1 0x84 ADD PUSH2 0xB49 JUMP JUMPDEST PUSH1 0x4 DUP1 SLOAD PUSH32 0xFFFFFFFFFFFFFFFFFFFFFFFF0000000000000000000000000000000000000000 AND PUSH20 0xFFFFFFFFFFFFFFFFFFFFFFFFFFFFFFFFFFFFFFFF DUP4 AND SWAP1 DUP2 OR SWAP1 SWAP2 SSTORE PUSH1 0x40 MLOAD PUSH32 0xB80482A293CA2E013EDA8683C9BD7FC8347CFDAEEA5EDE58CBA46DF502C2A604 SWAP1 PUSH1 0x0 SWAP1 LOG2 POP JUMP JUMPDEST PUSH2 0x1E18 PUSH2 0x35E8 JUMP JUMPDEST PUSH2 0x1E25 DUP6 DUP6 DUP6 DUP6 DUP6 PUSH2 0x4035 JUMP JUMPDEST POP POP POP POP POP JUMP JUMPDEST PUSH20 0xFFFFFFFFFFFFFFFFFFFFFFFFFFFFFFFFFFFFFFFF DUP2 AND PUSH1 0x0 SWAP1 DUP2 MSTORE PUSH1 0xC PUSH1 0x20 MSTORE PUSH1 0x40 DUP2 KECCAK256 SLOAD PUSH32 0x7FFFFFFFFFFFFFFFFFFFFFFFFFFFFFFFFFFFFFFFFFFFFFFFFFFFFFFFFFFFFFFF AND PUSH2 0x15DF JUMP JUMPDEST PUSH2 0x1E81 PUSH2 0x3800 JUMP JUMPDEST PUSH2 0x1694 PUSH1 0x0 PUSH2 0x3859 JUMP JUMPDEST PUSH1 0x0 DUP1 PUSH2 0x1EAF PUSH2 0x2710 PUSH2 0x1EA9 PUSH1 0x13 SLOAD DUP7 PUSH2 0x4091 SWAP1 SWAP2 SWAP1 PUSH4 0xFFFFFFFF AND JUMP JUMPDEST SWAP1 PUSH2 0x409D JUMP JUMPDEST SWAP1 POP PUSH1 0x14 SLOAD DUP2 GT ISZERO PUSH2 0x15DF JUMPI POP PUSH1 0x14 SLOAD SWAP3 SWAP2 POP POP JUMP JUMPDEST PUSH1 0x0 PUSH20 0xFFFFFFFFFFFFFFFFFFFFFFFFFFFFFFFFFFFFFFFF DUP3 AND PUSH2 0x1F6A JUMPI PUSH1 0x40 MLOAD PUSH32 0x8C379A000000000000000000000000000000000000000000000000000000000 DUP2 MSTORE PUSH1 0x20 PUSH1 0x4 DUP3 ADD MSTORE PUSH1 0x27 PUSH1 0x24 DUP3 ADD MSTORE PUSH32 0x4A445343546F6B656E3A205F6163636F756E7420697320746865207A65726F20 PUSH1 0x44 DUP3 ADD MSTORE PUSH32 0x6164647265737300000000000000000000000000000000000000000000000000 PUSH1 0x64 DUP3 ADD MSTORE PUSH1 0x84 ADD PUSH2 0xB49 JUMP JUMPDEST POP PUSH20 0xFFFFFFFFFFFFFFFFFFFFFFFFFFFFFFFFFFFFFFFF AND PUSH1 0x0 SWAP1 DUP2 MSTORE PUSH1 0x15 PUSH1 0x20 MSTORE PUSH1 0x40 SWAP1 KECCAK256 SLOAD SWAP1 JUMP JUMPDEST PUSH1 0x4 SLOAD PUSH20 0xFFFFFFFFFFFFFFFFFFFFFFFFFFFFFFFFFFFFFFFF AND CALLER EQ PUSH2 0x203A JUMPI PUSH1 0x40 MLOAD PUSH32 0x8C379A000000000000000000000000000000000000000000000000000000000 DUP2 MSTORE PUSH1 0x20 PUSH1 0x4 DUP3 ADD MSTORE PUSH1 0x26 PUSH1 0x24 DUP3 ADD MSTORE PUSH32 0x4A4453435061757361626C653A2063616C6C6572206973206E6F742074686520 PUSH1 0x44 DUP3 ADD MSTORE PUSH32 0x7061757365720000000000000000000000000000000000000000000000000000 PUSH1 0x64 DUP3 ADD MSTORE PUSH1 0x84 ADD PUSH2 0xB49 JUMP JUMPDEST PUSH2 0x1694 PUSH2 0x40A9 JUMP JUMPDEST PUSH2 0x204A PUSH2 0x35E8 JUMP JUMPDEST PUSH20 0xFFFFFFFFFFFFFFFFFFFFFFFFFFFFFFFFFFFFFFFF DUP8 AND PUSH1 0x0 SWAP1 DUP2 MSTORE PUSH1 0xC PUSH1 0x20 MSTORE PUSH1 0x40 SWAP1 KECCAK256 SLOAD DUP8 SWAP1 PUSH1 0xFF SHR PUSH1 0x1 SUB PUSH2 0x2104 JUMPI PUSH1 0x40 MLOAD PUSH32 0x8C379A000000000000000000000000000000000000000000000000000000000 DUP2 MSTORE PUSH1 0x20 PUSH1 0x4 DUP3 ADD MSTORE PUSH1 0x25 PUSH1 0x24 DUP3 ADD MSTORE PUSH32 0x426C61636B6C69737461626C653A206163636F756E7420697320626C61636B6C PUSH1 0x44 DUP3 ADD MSTORE PUSH32 0x6973746564000000000000000000000000000000000000000000000000000000 PUSH1 0x64 DUP3 ADD MSTORE PUSH1 0x84 ADD PUSH2 0xB49 JUMP JUMPDEST PUSH20 0xFFFFFFFFFFFFFFFFFFFFFFFFFFFFFFFFFFFFFFFF DUP8 AND PUSH1 0x0 SWAP1 DUP2 MSTORE PUSH1 0xC PUSH1 0x20 MSTORE PUSH1 0x40 SWAP1 KECCAK256 SLOAD DUP8 SWAP1 PUSH1 0xFF SHR PUSH1 0x1 SUB PUSH2 0x21BE JUMPI PUSH1 0x40 MLOAD PUSH32 0x8C379A000000000000000000000000000000000000000000000000000000000 DUP2 MSTORE PUSH1 0x20 PUSH1 0x4 DUP3 ADD MSTORE PUSH1 0x25 PUSH1 0x24 DUP3 ADD MSTORE PUSH32 0x426C61636B6C69737461626C653A206163636F756E7420697320626C61636B6C PUSH1 0x44 DUP3 ADD MSTORE PUSH32 0x6973746564000000000000000000000000000000000000000000000000000000 PUSH1 0x64 DUP3 ADD MSTORE PUSH1 0x84 ADD PUSH2 0xB49 JUMP JUMPDEST PUSH2 0x21CD DUP10 DUP10 DUP10 DUP10 DUP10 DUP10 DUP10 PUSH2 0x4104 JUMP JUMPDEST POP POP POP POP POP POP POP POP POP JUMP JUMPDEST PUSH1 0xB SLOAD PUSH21 0x10000000000000000000000000000000000000000 SWAP1 DIV PUSH1 0xFF AND ISZERO PUSH2 0x2283 JUMPI PUSH1 0x40 MLOAD PUSH32 0x8C379A000000000000000000000000000000000000000000000000000000000 DUP2 MSTORE PUSH1 0x20 PUSH1 0x4 DUP3 ADD MSTORE PUSH1 0x2A PUSH1 0x24 DUP3 ADD MSTORE PUSH32 0x4A445343546F6B656E3A20636F6E747261637420697320616C72656164792069 PUSH1 0x44 DUP3 ADD MSTORE PUSH32 0x6E697469616C697A656400000000000000000000000000000000000000000000 PUSH1 0x64 DUP3 ADD MSTORE PUSH1 0x84 ADD PUSH2 0xB49 JUMP JUMPDEST PUSH20 0xFFFFFFFFFFFFFFFFFFFFFFFFFFFFFFFFFFFFFFFF DUP5 AND PUSH2 0x2326 JUMPI PUSH1 0x40 MLOAD PUSH32 0x8C379A000000000000000000000000000000000000000000000000000000000 DUP2 MSTORE PUSH1 0x20 PUSH1 0x4 DUP3 ADD MSTORE PUSH1 0x2F PUSH1 0x24 DUP3 ADD MSTORE PUSH32 0x4A445343546F6B656E3A206E6577206D61737465724D696E7465722069732074 PUSH1 0x44 DUP3 ADD MSTORE PUSH32 0x6865207A65726F20616464726573730000000000000000000000000000000000 PUSH1 0x64 DUP3 ADD MSTORE PUSH1 0x84 ADD PUSH2 0xB49 JUMP JUMPDEST PUSH20 0xFFFFFFFFFFFFFFFFFFFFFFFFFFFFFFFFFFFFFFFF DUP4 AND PUSH2 0x23C9 JUMPI PUSH1 0x40 MLOAD PUSH32 0x8C379A000000000000000000000000000000000000000000000000000000000 DUP2 MSTORE PUSH1 0x20 PUSH1 0x4 DUP3 ADD MSTORE PUSH1 0x29 PUSH1 0x24 DUP3 ADD MSTORE PUSH32 0x4A445343546F6B656E3A206E65772070617573657220697320746865207A6572 PUSH1 0x44 DUP3 ADD MSTORE PUSH32 0x6F20616464726573730000000000000000000000000000000000000000000000 PUSH1 0x64 DUP3 ADD MSTORE PUSH1 0x84 ADD PUSH2 0xB49 JUMP JUMPDEST PUSH20 0xFFFFFFFFFFFFFFFFFFFFFFFFFFFFFFFFFFFFFFFF DUP3 AND PUSH2 0x246C JUMPI PUSH1 0x40 MLOAD PUSH32 0x8C379A000000000000000000000000000000000000000000000000000000000 DUP2 MSTORE PUSH1 0x20 PUSH1 0x4 DUP3 ADD MSTORE PUSH1 0x2E PUSH1 0x24 DUP3 ADD MSTORE PUSH32 0x4A445343546F6B656E3A206E657720626C61636B6C6973746572206973207468 PUSH1 0x44 DUP3 ADD MSTORE PUSH32 0x65207A65726F2061646472657373000000000000000000000000000000000000 PUSH1 0x64 DUP3 ADD MSTORE PUSH1 0x84 ADD PUSH2 0xB49 JUMP JUMPDEST PUSH20 0xFFFFFFFFFFFFFFFFFFFFFFFFFFFFFFFFFFFFFFFF DUP2 AND PUSH2 0x250F JUMPI PUSH1 0x40 MLOAD PUSH32 0x8C379A000000000000000000000000000000000000000000000000000000000 DUP2 MSTORE PUSH1 0x20 PUSH1 0x4 DUP3 ADD MSTORE PUSH1 0x28 PUSH1 0x24 DUP3 ADD MSTORE PUSH32 0x4A445343546F6B656E3A206E6577206F776E657220697320746865207A65726F PUSH1 0x44 DUP3 ADD MSTORE PUSH32 0x2061646472657373000000000000000000000000000000000000000000000000 PUSH1 0x64 DUP3 ADD MSTORE PUSH1 0x84 ADD PUSH2 0xB49 JUMP JUMPDEST PUSH1 0x7 PUSH2 0x251B DUP11 DUP3 PUSH2 0x5A51 JUMP JUMPDEST POP PUSH1 0x8 PUSH2 0x2528 DUP10 DUP3 PUSH2 0x5A51 JUMP JUMPDEST POP PUSH1 0xA PUSH2 0x2535 DUP9 DUP3 PUSH2 0x5A51 JUMP JUMPDEST POP PUSH1 0x9 DUP1 SLOAD PUSH32 0xFFFFFFFFFFFFFFFFFFFFFFFFFFFFFFFFFFFFFFFFFFFFFFFFFFFFFFFFFFFFFF00 AND PUSH1 0xFF DUP9 AND OR SWAP1 SSTORE PUSH1 0xB DUP1 SLOAD PUSH32 0xFFFFFFFFFFFFFFFFFFFFFFFF0000000000000000000000000000000000000000 SWAP1 DUP2 AND PUSH20 0xFFFFFFFFFFFFFFFFFFFFFFFFFFFFFFFFFFFFFFFF DUP8 DUP2 AND SWAP2 SWAP1 SWAP2 OR SWAP1 SWAP3 SSTORE PUSH1 0x4 DUP1 SLOAD DUP3 AND DUP7 DUP5 AND OR SWAP1 SSTORE PUSH1 0x5 DUP1 SLOAD SWAP1 SWAP2 AND SWAP2 DUP5 AND SWAP2 SWAP1 SWAP2 OR SWAP1 SSTORE PUSH2 0x25CF DUP2 PUSH2 0xC22 JUMP JUMPDEST PUSH1 0xB DUP1 SLOAD PUSH32 0xFFFFFFFFFFFFFFFFFFFFFF00FFFFFFFFFFFFFFFFFFFFFFFFFFFFFFFFFFFFFFFF AND PUSH21 0x10000000000000000000000000000000000000000 OR SWAP1 SSTORE PUSH2 0x2617 DUP10 PUSH2 0x425E JUMP JUMPDEST PUSH2 0x2621 DUP2 DUP7 PUSH2 0x4304 JUMP JUMPDEST POP POP POP POP POP POP POP POP POP POP JUMP JUMPDEST PUSH1 0x8 DUP1 SLOAD PUSH2 0xA20 SWAP1 PUSH2 0x5987 JUMP JUMPDEST PUSH2 0x2642 PUSH2 0x35E8 JUMP JUMPDEST PUSH20 0xFFFFFFFFFFFFFFFFFFFFFFFFFFFFFFFFFFFFFFFF DUP9 AND PUSH1 0x0 SWAP1 DUP2 MSTORE PUSH1 0xD PUSH1 0x20 MSTORE PUSH1 0x40 SWAP1 KECCAK256 SLOAD DUP9 SWAP1 PUSH1 0xFF SHR PUSH1 0x1 EQ PUSH2 0x26FC JUMPI PUSH1 0x40 MLOAD PUSH32 0x8C379A000000000000000000000000000000000000000000000000000000000 DUP2 MSTORE PUSH1 0x20 PUSH1 0x4 DUP3 ADD MSTORE PUSH1 0x2D PUSH1 0x24 DUP3 ADD MSTORE PUSH32 0x57686974656C69737461626C653A206163636F756E74206973206E6F74207468 PUSH1 0x44 DUP3 ADD MSTORE PUSH32 0x652077686974656C697374656400000000000000000000000000000000000000 PUSH1 0x64 DUP3 ADD MSTORE PUSH1 0x84 ADD PUSH2 0xB49 JUMP JUMPDEST PUSH20 0xFFFFFFFFFFFFFFFFFFFFFFFFFFFFFFFFFFFFFFFF DUP9 AND PUSH1 0x0 SWAP1 DUP2 MSTORE PUSH1 0xD PUSH1 0x20 MSTORE PUSH1 0x40 SWAP1 KECCAK256 SLOAD DUP9 SWAP1 PUSH1 0xFF SHR PUSH1 0x1 EQ PUSH2 0x27B6 JUMPI PUSH1 0x40 MLOAD PUSH32 0x8C379A000000000000000000000000000000000000000000000000000000000 DUP2 MSTORE PUSH1 0x20 PUSH1 0x4 DUP3 ADD MSTORE PUSH1 0x2D PUSH1 0x24 DUP3 ADD MSTORE PUSH32 0x57686974656C69737461626C653A206163636F756E74206973206E6F74207468 PUSH1 0x44 DUP3 ADD MSTORE PUSH32 0x652077686974656C697374656400000000000000000000000000000000000000 PUSH1 0x64 DUP3 ADD MSTORE PUSH1 0x84 ADD PUSH2 0xB49 JUMP JUMPDEST PUSH1 0x0 PUSH2 0x27C1 DUP9 PUSH2 0x1E8B JUMP JUMPDEST SWAP1 POP PUSH1 0x0 PUSH2 0x27CF DUP10 DUP4 PUSH2 0x3C16 JUMP JUMPDEST SWAP1 POP PUSH2 0x27E0 DUP12 DUP12 DUP4 DUP12 DUP12 DUP12 DUP12 PUSH2 0x4411 JUMP JUMPDEST DUP2 ISZERO PUSH2 0x27F5 JUMPI PUSH2 0x27F5 DUP12 DUP14 DUP5 DUP12 DUP12 DUP12 DUP12 PUSH2 0x4411 JUMP JUMPDEST POP POP POP POP POP POP POP POP POP POP POP POP JUMP JUMPDEST PUSH1 0x6 SLOAD PUSH20 0xFFFFFFFFFFFFFFFFFFFFFFFFFFFFFFFFFFFFFFFF AND CALLER EQ PUSH2 0x28AA JUMPI PUSH1 0x40 MLOAD PUSH32 0x8C379A000000000000000000000000000000000000000000000000000000000 DUP2 MSTORE PUSH1 0x20 PUSH1 0x4 DUP3 ADD MSTORE PUSH1 0x2C PUSH1 0x24 DUP3 ADD MSTORE PUSH32 0x57686974656C69737461626C653A2063616C6C6572206973206E6F7420746865 PUSH1 0x44 DUP3 ADD MSTORE PUSH32 0x2077686974656C69737465720000000000000000000000000000000000000000 PUSH1 0x64 DUP3 ADD MSTORE PUSH1 0x84 ADD PUSH2 0xB49 JUMP JUMPDEST PUSH2 0x28B3 DUP2 PUSH2 0x4499 JUMP JUMPDEST PUSH1 0x40 MLOAD PUSH20 0xFFFFFFFFFFFFFFFFFFFFFFFFFFFFFFFFFFFFFFFF DUP3 AND SWAP1 PUSH32 0xAAB7954E9D246B167EF88AEDDAD35209CA2489D95A8AEB59E288D9B19FAE5A54 SWAP1 PUSH1 0x0 SWAP1 LOG2 POP JUMP JUMPDEST PUSH2 0x28FF PUSH2 0x35E8 JUMP JUMPDEST PUSH20 0xFFFFFFFFFFFFFFFFFFFFFFFFFFFFFFFFFFFFFFFF DUP6 AND PUSH1 0x0 SWAP1 DUP2 MSTORE PUSH1 0xC PUSH1 0x20 MSTORE PUSH1 0x40 SWAP1 KECCAK256 SLOAD DUP6 SWAP1 PUSH1 0xFF SHR PUSH1 0x1 SUB PUSH2 0x29B9 JUMPI PUSH1 0x40 MLOAD PUSH32 0x8C379A000000000000000000000000000000000000000000000000000000000 DUP2 MSTORE PUSH1 0x20 PUSH1 0x4 DUP3 ADD MSTORE PUSH1 0x25 PUSH1 0x24 DUP3 ADD MSTORE PUSH32 0x426C61636B6C69737461626C653A206163636F756E7420697320626C61636B6C PUSH1 0x44 DUP3 ADD MSTORE PUSH32 0x6973746564000000000000000000000000000000000000000000000000000000 PUSH1 0x64 DUP3 ADD MSTORE PUSH1 0x84 ADD PUSH2 0xB49 JUMP JUMPDEST PUSH20 0xFFFFFFFFFFFFFFFFFFFFFFFFFFFFFFFFFFFFFFFF DUP6 AND PUSH1 0x0 SWAP1 DUP2 MSTORE PUSH1 0xC PUSH1 0x20 MSTORE PUSH1 0x40 SWAP1 KECCAK256 SLOAD DUP6 SWAP1 PUSH1 0xFF SHR PUSH1 0x1 SUB PUSH2 0x2A73 JUMPI PUSH1 0x40 MLOAD PUSH32 0x8C379A000000000000000000000000000000000000000000000000000000000 DUP2 MSTORE PUSH1 0x20 PUSH1 0x4 DUP3 ADD MSTORE PUSH1 0x25 PUSH1 0x24 DUP3 ADD MSTORE PUSH32 0x426C61636B6C69737461626C653A206163636F756E7420697320626C61636B6C PUSH1 0x44 DUP3 ADD MSTORE PUSH32 0x6973746564000000000000000000000000000000000000000000000000000000 PUSH1 0x64 DUP3 ADD MSTORE PUSH1 0x84 ADD PUSH2 0xB49 JUMP JUMPDEST PUSH2 0x2A80 DUP8 DUP8 DUP8 DUP8 DUP8 PUSH2 0x44A4 JUMP JUMPDEST POP POP POP POP POP POP POP JUMP JUMPDEST PUSH1 0x0 PUSH2 0x2A93 PUSH2 0x35E8 JUMP JUMPDEST CALLER PUSH1 0x0 DUP2 DUP2 MSTORE PUSH1 0xC PUSH1 0x20 MSTORE PUSH1 0x40 SWAP1 KECCAK256 SLOAD PUSH1 0xFF SHR PUSH1 0x1 SUB PUSH2 0x2B35 JUMPI PUSH1 0x40 MLOAD PUSH32 0x8C379A000000000000000000000000000000000000000000000000000000000 DUP2 MSTORE PUSH1 0x20 PUSH1 0x4 DUP3 ADD MSTORE PUSH1 0x25 PUSH1 0x24 DUP3 ADD MSTORE PUSH32 0x426C61636B6C69737461626C653A206163636F756E7420697320626C61636B6C PUSH1 0x44 DUP3 ADD MSTORE PUSH32 0x6973746564000000000000000000000000000000000000000000000000000000 PUSH1 0x64 DUP3 ADD MSTORE PUSH1 0x84 ADD PUSH2 0xB49 JUMP JUMPDEST PUSH20 0xFFFFFFFFFFFFFFFFFFFFFFFFFFFFFFFFFFFFFFFF DUP5 AND PUSH1 0x0 SWAP1 DUP2 MSTORE PUSH1 0xC PUSH1 0x20 MSTORE PUSH1 0x40 SWAP1 KECCAK256 SLOAD DUP5 SWAP1 PUSH1 0xFF SHR PUSH1 0x1 SUB PUSH2 0x2BEF JUMPI PUSH1 0x40 MLOAD PUSH32 0x8C379A000000000000000000000000000000000000000000000000000000000 DUP2 MSTORE PUSH1 0x20 PUSH1 0x4 DUP3 ADD MSTORE PUSH1 0x25 PUSH1 0x24 DUP3 ADD MSTORE PUSH32 0x426C61636B6C69737461626C653A206163636F756E7420697320626C61636B6C PUSH1 0x44 DUP3 ADD MSTORE PUSH32 0x6973746564000000000000000000000000000000000000000000000000000000 PUSH1 0x64 DUP3 ADD MSTORE PUSH1 0x84 ADD PUSH2 0xB49 JUMP JUMPDEST PUSH2 0xC17 CALLER DUP7 DUP7 PUSH2 0x46BF JUMP JUMPDEST PUSH1 0x0 PUSH2 0x2C04 PUSH2 0x35E8 JUMP JUMPDEST CALLER PUSH1 0x0 DUP2 DUP2 MSTORE PUSH1 0xC PUSH1 0x20 MSTORE PUSH1 0x40 SWAP1 KECCAK256 SLOAD PUSH1 0xFF SHR PUSH1 0x1 SUB PUSH2 0x2CA6 JUMPI PUSH1 0x40 MLOAD PUSH32 0x8C379A000000000000000000000000000000000000000000000000000000000 DUP2 MSTORE PUSH1 0x20 PUSH1 0x4 DUP3 ADD MSTORE PUSH1 0x25 PUSH1 0x24 DUP3 ADD MSTORE PUSH32 0x426C61636B6C69737461626C653A206163636F756E7420697320626C61636B6C PUSH1 0x44 DUP3 ADD MSTORE PUSH32 0x6973746564000000000000000000000000000000000000000000000000000000 PUSH1 0x64 DUP3 ADD MSTORE PUSH1 0x84 ADD PUSH2 0xB49 JUMP JUMPDEST PUSH20 0xFFFFFFFFFFFFFFFFFFFFFFFFFFFFFFFFFFFFFFFF DUP5 AND PUSH1 0x0 SWAP1 DUP2 MSTORE PUSH1 0xC PUSH1 0x20 MSTORE PUSH1 0x40 SWAP1 KECCAK256 SLOAD DUP5 SWAP1 PUSH1 0xFF SHR PUSH1 0x1 SUB PUSH2 0x2D60 JUMPI PUSH1 0x40 MLOAD PUSH32 0x8C379A000000000000000000000000000000000000000000000000000000000 DUP2 MSTORE PUSH1 0x20 PUSH1 0x4 DUP3 ADD MSTORE PUSH1 0x25 PUSH1 0x24 DUP3 ADD MSTORE PUSH32 0x426C61636B6C69737461626C653A206163636F756E7420697320626C61636B6C PUSH1 0x44 DUP3 ADD MSTORE PUSH32 0x6973746564000000000000000000000000000000000000000000000000000000 PUSH1 0x64 DUP3 ADD MSTORE PUSH1 0x84 ADD PUSH2 0xB49 JUMP JUMPDEST PUSH2 0xC17 CALLER DUP7 DUP7 PUSH2 0x38E2 JUMP JUMPDEST PUSH2 0x2D73 PUSH2 0x3800 JUMP JUMPDEST PUSH20 0xFFFFFFFFFFFFFFFFFFFFFFFFFFFFFFFFFFFFFFFF DUP2 AND PUSH2 0x2E16 JUMPI PUSH1 0x40 MLOAD PUSH32 0x8C379A000000000000000000000000000000000000000000000000000000000 DUP2 MSTORE PUSH1 0x20 PUSH1 0x4 DUP3 ADD MSTORE PUSH1 0x2F PUSH1 0x24 DUP3 ADD MSTORE PUSH32 0x4A445343546F6B656E3A206E6577206D61737465724D696E7465722069732074 PUSH1 0x44 DUP3 ADD MSTORE PUSH32 0x6865207A65726F20616464726573730000000000000000000000000000000000 PUSH1 0x64 DUP3 ADD MSTORE PUSH1 0x84 ADD PUSH2 0xB49 JUMP JUMPDEST PUSH1 0xB DUP1 SLOAD PUSH32 0xFFFFFFFFFFFFFFFFFFFFFFFF0000000000000000000000000000000000000000 AND PUSH20 0xFFFFFFFFFFFFFFFFFFFFFFFFFFFFFFFFFFFFFFFF DUP4 AND SWAP1 DUP2 OR SWAP1 SWAP2 SSTORE PUSH1 0x40 MLOAD PUSH32 0xDB66DFA9C6B8F5226FE9AAC7E51897AE8EE94AC31DC70BB6C9900B2574B707E6 SWAP1 PUSH1 0x0 SWAP1 LOG2 POP JUMP JUMPDEST PUSH2 0x2E8D PUSH2 0x3800 JUMP JUMPDEST PUSH20 0xFFFFFFFFFFFFFFFFFFFFFFFFFFFFFFFFFFFFFFFF DUP2 AND PUSH2 0x2F30 JUMPI PUSH1 0x40 MLOAD PUSH32 0x8C379A000000000000000000000000000000000000000000000000000000000 DUP2 MSTORE PUSH1 0x20 PUSH1 0x4 DUP3 ADD MSTORE PUSH1 0x32 PUSH1 0x24 DUP3 ADD MSTORE PUSH32 0x426C61636B6C69737461626C653A206E657720626C61636B6C69737465722069 PUSH1 0x44 DUP3 ADD MSTORE PUSH32 0x7320746865207A65726F20616464726573730000000000000000000000000000 PUSH1 0x64 DUP3 ADD MSTORE PUSH1 0x84 ADD PUSH2 0xB49 JUMP JUMPDEST PUSH1 0x5 DUP1 SLOAD PUSH32 0xFFFFFFFFFFFFFFFFFFFFFFFF0000000000000000000000000000000000000000 AND PUSH20 0xFFFFFFFFFFFFFFFFFFFFFFFFFFFFFFFFFFFFFFFF DUP4 AND SWAP1 DUP2 OR SWAP1 SWAP2 SSTORE PUSH1 0x40 MLOAD PUSH32 0xC67398012C111CE95ECB7429B933096C977380EE6C421175A71A4A4C6C88C06E SWAP1 PUSH1 0x0 SWAP1 LOG2 POP JUMP JUMPDEST PUSH2 0x2FA7 PUSH2 0x35E8 JUMP JUMPDEST PUSH2 0x2FB2 DUP4 DUP4 DUP4 PUSH2 0x471B JUMP JUMPDEST POP POP POP JUMP JUMPDEST PUSH2 0x2FBF PUSH2 0x3800 JUMP JUMPDEST PUSH1 0x14 DUP3 LT PUSH2 0x2FCC JUMPI PUSH1 0x0 DUP1 REVERT JUMPDEST PUSH2 0x1388 DUP2 LT PUSH2 0x2FDA JUMPI PUSH1 0x0 DUP1 REVERT JUMPDEST PUSH1 0x13 DUP3 SWAP1 SSTORE PUSH1 0x9 SLOAD PUSH2 0x2FFB SWAP1 PUSH2 0x2FF4 SWAP1 PUSH1 0xFF AND PUSH1 0xA PUSH2 0x5CBA JUMP JUMPDEST DUP3 SWAP1 PUSH2 0x4091 JUMP JUMPDEST PUSH1 0x14 DUP2 SWAP1 SSTORE PUSH1 0x13 SLOAD PUSH1 0x40 MLOAD PUSH32 0xB044A1E409EAC5C48E5AF22D4AF52670DD1A99059537A78B31B48C6500A6354E SWAP3 PUSH2 0x3039 SWAP3 DUP3 MSTORE PUSH1 0x20 DUP3 ADD MSTORE PUSH1 0x40 ADD SWAP1 JUMP JUMPDEST PUSH1 0x40 MLOAD DUP1 SWAP2 SUB SWAP1 LOG1 POP POP JUMP JUMPDEST PUSH2 0x304D PUSH2 0x35E8 JUMP JUMPDEST PUSH20 0xFFFFFFFFFFFFFFFFFFFFFFFFFFFFFFFFFFFFFFFF DUP8 AND PUSH1 0x0 SWAP1 DUP2 MSTORE PUSH1 0xC PUSH1 0x20 MSTORE PUSH1 0x40 SWAP1 KECCAK256 SLOAD DUP8 SWAP1 PUSH1 0xFF SHR PUSH1 0x1 SUB PUSH2 0x3107 JUMPI PUSH1 0x40 MLOAD PUSH32 0x8C379A000000000000000000000000000000000000000000000000000000000 DUP2 MSTORE PUSH1 0x20 PUSH1 0x4 DUP3 ADD MSTORE PUSH1 0x25 PUSH1 0x24 DUP3 ADD MSTORE PUSH32 0x426C61636B6C69737461626C653A206163636F756E7420697320626C61636B6C PUSH1 0x44 DUP3 ADD MSTORE PUSH32 0x6973746564000000000000000000000000000000000000000000000000000000 PUSH1 0x64 DUP3 ADD MSTORE PUSH1 0x84 ADD PUSH2 0xB49 JUMP JUMPDEST PUSH20 0xFFFFFFFFFFFFFFFFFFFFFFFFFFFFFFFFFFFFFFFF DUP8 AND PUSH1 0x0 SWAP1 DUP2 MSTORE PUSH1 0xC PUSH1 0x20 MSTORE PUSH1 0x40 SWAP1 KECCAK256 SLOAD DUP8 SWAP1 PUSH1 0xFF SHR PUSH1 0x1 SUB PUSH2 0x31C1 JUMPI PUSH1 0x40 MLOAD PUSH32 0x8C379A000000000000000000000000000000000000000000000000000000000 DUP2 MSTORE PUSH1 0x20 PUSH1 0x4 DUP3 ADD MSTORE PUSH1 0x25 PUSH1 0x24 DUP3 ADD MSTORE PUSH32 0x426C61636B6C69737461626C653A206163636F756E7420697320626C61636B6C PUSH1 0x44 DUP3 ADD MSTORE PUSH32 0x6973746564000000000000000000000000000000000000000000000000000000 PUSH1 0x64 DUP3 ADD MSTORE PUSH1 0x84 ADD PUSH2 0xB49 JUMP JUMPDEST PUSH2 0x21CD DUP10 DUP10 DUP10 DUP10 DUP10 DUP10 DUP10 PUSH2 0x4809 JUMP JUMPDEST PUSH1 0xA DUP1 SLOAD PUSH2 0xA20 SWAP1 PUSH2 0x5987 JUMP JUMPDEST PUSH2 0x31E5 PUSH2 0x35E8 JUMP JUMPDEST PUSH20 0xFFFFFFFFFFFFFFFFFFFFFFFFFFFFFFFFFFFFFFFF DUP10 AND PUSH1 0x0 SWAP1 DUP2 MSTORE PUSH1 0xC PUSH1 0x20 MSTORE PUSH1 0x40 SWAP1 KECCAK256 SLOAD DUP10 SWAP1 PUSH1 0xFF SHR PUSH1 0x1 SUB PUSH2 0x329F JUMPI PUSH1 0x40 MLOAD PUSH32 0x8C379A000000000000000000000000000000000000000000000000000000000 DUP2 MSTORE PUSH1 0x20 PUSH1 0x4 DUP3 ADD MSTORE PUSH1 0x25 PUSH1 0x24 DUP3 ADD MSTORE PUSH32 0x426C61636B6C69737461626C653A206163636F756E7420697320626C61636B6C PUSH1 0x44 DUP3 ADD MSTORE PUSH32 0x6973746564000000000000000000000000000000000000000000000000000000 PUSH1 0x64 DUP3 ADD MSTORE PUSH1 0x84 ADD PUSH2 0xB49 JUMP JUMPDEST PUSH20 0xFFFFFFFFFFFFFFFFFFFFFFFFFFFFFFFFFFFFFFFF DUP10 AND PUSH1 0x0 SWAP1 DUP2 MSTORE PUSH1 0xC PUSH1 0x20 MSTORE PUSH1 0x40 SWAP1 KECCAK256 SLOAD DUP10 SWAP1 PUSH1 0xFF SHR PUSH1 0x1 SUB PUSH2 0x3359 JUMPI PUSH1 0x40 MLOAD PUSH32 0x8C379A000000000000000000000000000000000000000000000000000000000 DUP2 MSTORE PUSH1 0x20 PUSH1 0x4 DUP3 ADD MSTORE PUSH1 0x25 PUSH1 0x24 DUP3 ADD MSTORE PUSH32 0x426C61636B6C69737461626C653A206163636F756E7420697320626C61636B6C PUSH1 0x44 DUP3 ADD MSTORE PUSH32 0x6973746564000000000000000000000000000000000000000000000000000000 PUSH1 0x64 DUP3 ADD MSTORE PUSH1 0x84 ADD PUSH2 0xB49 JUMP JUMPDEST PUSH2 0x336A DUP12 DUP12 DUP12 DUP12 DUP12 DUP12 DUP12 DUP12 DUP12 PUSH2 0x486F JUMP JUMPDEST POP POP POP POP POP POP POP POP POP POP POP JUMP JUMPDEST PUSH1 0x6 SLOAD PUSH20 0xFFFFFFFFFFFFFFFFFFFFFFFFFFFFFFFFFFFFFFFF AND CALLER EQ PUSH2 0x341E JUMPI PUSH1 0x40 MLOAD PUSH32 0x8C379A000000000000000000000000000000000000000000000000000000000 DUP2 MSTORE PUSH1 0x20 PUSH1 0x4 DUP3 ADD MSTORE PUSH1 0x2C PUSH1 0x24 DUP3 ADD MSTORE PUSH32 0x57686974656C69737461626C653A2063616C6C6572206973206E6F7420746865 PUSH1 0x44 DUP3 ADD MSTORE PUSH32 0x2077686974656C69737465720000000000000000000000000000000000000000 PUSH1 0x64 DUP3 ADD MSTORE PUSH1 0x84 ADD PUSH2 0xB49 JUMP JUMPDEST PUSH2 0x3427 DUP2 PUSH2 0x48D7 JUMP JUMPDEST PUSH1 0x40 MLOAD PUSH20 0xFFFFFFFFFFFFFFFFFFFFFFFFFFFFFFFFFFFFFFFF DUP3 AND SWAP1 PUSH32 0x7CDB51B0CC2E541AD7E9471C358DE415F5DBAFF6CCA78E3393D445346C610C1B SWAP1 PUSH1 0x0 SWAP1 LOG2 POP JUMP JUMPDEST PUSH2 0x3473 PUSH2 0x3800 JUMP JUMPDEST PUSH20 0xFFFFFFFFFFFFFFFFFFFFFFFFFFFFFFFFFFFFFFFF DUP2 AND PUSH2 0xCCD JUMPI PUSH1 0x40 MLOAD PUSH32 0x1E4FBDF700000000000000000000000000000000000000000000000000000000 DUP2 MSTORE PUSH1 0x0 PUSH1 0x4 DUP3 ADD MSTORE PUSH1 0x24 ADD PUSH2 0xB49 JUMP JUMPDEST PUSH1 0x5 SLOAD PUSH20 0xFFFFFFFFFFFFFFFFFFFFFFFFFFFFFFFFFFFFFFFF AND CALLER EQ PUSH2 0x356A JUMPI PUSH1 0x40 MLOAD PUSH32 0x8C379A000000000000000000000000000000000000000000000000000000000 DUP2 MSTORE PUSH1 0x20 PUSH1 0x4 DUP3 ADD MSTORE PUSH1 0x2C PUSH1 0x24 DUP3 ADD MSTORE PUSH32 0x426C61636B6C69737461626C653A2063616C6C6572206973206E6F7420746865 PUSH1 0x44 DUP3 ADD MSTORE PUSH32 0x20626C61636B6C69737465720000000000000000000000000000000000000000 PUSH1 0x64 DUP3 ADD MSTORE PUSH1 0x84 ADD PUSH2 0xB49 JUMP JUMPDEST PUSH2 0x3573 DUP2 PUSH2 0x402A JUMP JUMPDEST PUSH1 0x40 MLOAD PUSH20 0xFFFFFFFFFFFFFFFFFFFFFFFFFFFFFFFFFFFFFFFF DUP3 AND SWAP1 PUSH32 0xFFA4E6181777692565CF28528FC88FD1516EA86B56DA075235FA575AF6A4B855 SWAP1 PUSH1 0x0 SWAP1 LOG2 POP JUMP JUMPDEST PUSH20 0xFFFFFFFFFFFFFFFFFFFFFFFFFFFFFFFFFFFFFFFF DUP2 AND PUSH1 0x0 SWAP1 DUP2 MSTORE PUSH1 0xC PUSH1 0x20 MSTORE PUSH1 0x40 DUP2 KECCAK256 SLOAD PUSH1 0xFF SHR PUSH1 0x1 EQ PUSH2 0x15DF JUMP JUMPDEST PUSH1 0x3 SLOAD PUSH1 0xFF AND ISZERO PUSH2 0x1694 JUMPI PUSH1 0x40 MLOAD PUSH32 0x8C379A000000000000000000000000000000000000000000000000000000000 DUP2 MSTORE PUSH1 0x20 PUSH1 0x4 DUP3 ADD MSTORE PUSH1 0x10 PUSH1 0x24 DUP3 ADD MSTORE PUSH32 0x5061757361626C653A2070617573656400000000000000000000000000000000 PUSH1 0x44 DUP3 ADD MSTORE PUSH1 0x64 ADD PUSH2 0xB49 JUMP JUMPDEST PUSH20 0xFFFFFFFFFFFFFFFFFFFFFFFFFFFFFFFFFFFFFFFF DUP4 AND PUSH2 0x36F7 JUMPI PUSH1 0x40 MLOAD PUSH32 0x8C379A000000000000000000000000000000000000000000000000000000000 DUP2 MSTORE PUSH1 0x20 PUSH1 0x4 DUP3 ADD MSTORE PUSH1 0x24 DUP1 DUP3 ADD MSTORE PUSH32 0x45524332303A20617070726F76652066726F6D20746865207A65726F20616464 PUSH1 0x44 DUP3 ADD MSTORE PUSH32 0x7265737300000000000000000000000000000000000000000000000000000000 PUSH1 0x64 DUP3 ADD MSTORE PUSH1 0x84 ADD PUSH2 0xB49 JUMP JUMPDEST PUSH20 0xFFFFFFFFFFFFFFFFFFFFFFFFFFFFFFFFFFFFFFFF DUP3 AND PUSH2 0x379A JUMPI PUSH1 0x40 MLOAD PUSH32 0x8C379A000000000000000000000000000000000000000000000000000000000 DUP2 MSTORE PUSH1 0x20 PUSH1 0x4 DUP3 ADD MSTORE PUSH1 0x22 PUSH1 0x24 DUP3 ADD MSTORE PUSH32 0x45524332303A20617070726F766520746F20746865207A65726F206164647265 PUSH1 0x44 DUP3 ADD MSTORE PUSH32 0x7373000000000000000000000000000000000000000000000000000000000000 PUSH1 0x64 DUP3 ADD MSTORE PUSH1 0x84 ADD PUSH2 0xB49 JUMP JUMPDEST PUSH20 0xFFFFFFFFFFFFFFFFFFFFFFFFFFFFFFFFFFFFFFFF DUP4 DUP2 AND PUSH1 0x0 DUP2 DUP2 MSTORE PUSH1 0xE PUSH1 0x20 SWAP1 DUP2 MSTORE PUSH1 0x40 DUP1 DUP4 KECCAK256 SWAP5 DUP8 AND DUP1 DUP5 MSTORE SWAP5 DUP3 MSTORE SWAP2 DUP3 SWAP1 KECCAK256 DUP6 SWAP1 SSTORE SWAP1 MLOAD DUP5 DUP2 MSTORE PUSH32 0x8C5BE1E5EBEC7D5BD14F71427D1E84F3DD0314C0F7B2291E5B200AC8C7C3B925 SWAP2 ADD PUSH2 0x19B7 JUMP JUMPDEST PUSH1 0x3 SLOAD PUSH20 0xFFFFFFFFFFFFFFFFFFFFFFFFFFFFFFFFFFFFFFFF PUSH2 0x100 SWAP1 SWAP2 DIV AND CALLER EQ PUSH2 0x1694 JUMPI PUSH1 0x40 MLOAD PUSH32 0x118CDAA700000000000000000000000000000000000000000000000000000000 DUP2 MSTORE CALLER PUSH1 0x4 DUP3 ADD MSTORE PUSH1 0x24 ADD PUSH2 0xB49 JUMP JUMPDEST PUSH1 0x3 DUP1 SLOAD PUSH20 0xFFFFFFFFFFFFFFFFFFFFFFFFFFFFFFFFFFFFFFFF DUP4 DUP2 AND PUSH2 0x100 DUP2 DUP2 MUL PUSH32 0xFFFFFFFFFFFFFFFFFFFFFF0000000000000000000000000000000000000000FF DUP6 AND OR SWAP1 SWAP5 SSTORE PUSH1 0x40 MLOAD SWAP4 SWAP1 SWAP3 DIV AND SWAP2 DUP3 SWAP1 PUSH32 0x8BE0079C531659141344CD1FD0A4F28419497F9722A3DAAFE3B4186F6B6457E0 SWAP1 PUSH1 0x0 SWAP1 LOG3 POP POP JUMP JUMPDEST PUSH2 0xCD6 DUP2 PUSH1 0x0 PUSH2 0x48E2 JUMP JUMPDEST PUSH20 0xFFFFFFFFFFFFFFFFFFFFFFFFFFFFFFFFFFFFFFFF DUP4 AND PUSH2 0x3985 JUMPI PUSH1 0x40 MLOAD PUSH32 0x8C379A000000000000000000000000000000000000000000000000000000000 DUP2 MSTORE PUSH1 0x20 PUSH1 0x4 DUP3 ADD MSTORE PUSH1 0x25 PUSH1 0x24 DUP3 ADD MSTORE PUSH32 0x45524332303A207472616E736665722066726F6D20746865207A65726F206164 PUSH1 0x44 DUP3 ADD MSTORE PUSH32 0x6472657373000000000000000000000000000000000000000000000000000000 PUSH1 0x64 DUP3 ADD MSTORE PUSH1 0x84 ADD PUSH2 0xB49 JUMP JUMPDEST PUSH20 0xFFFFFFFFFFFFFFFFFFFFFFFFFFFFFFFFFFFFFFFF DUP3 AND PUSH2 0x3A28 JUMPI PUSH1 0x40 MLOAD PUSH32 0x8C379A000000000000000000000000000000000000000000000000000000000 DUP2 MSTORE PUSH1 0x20 PUSH1 0x4 DUP3 ADD MSTORE PUSH1 0x23 PUSH1 0x24 DUP3 ADD MSTORE PUSH32 0x45524332303A207472616E7366657220746F20746865207A65726F2061646472 PUSH1 0x44 DUP3 ADD MSTORE PUSH32 0x6573730000000000000000000000000000000000000000000000000000000000 PUSH1 0x64 DUP3 ADD MSTORE PUSH1 0x84 ADD PUSH2 0xB49 JUMP JUMPDEST PUSH20 0xFFFFFFFFFFFFFFFFFFFFFFFFFFFFFFFFFFFFFFFF DUP4 AND PUSH1 0x0 SWAP1 DUP2 MSTORE PUSH1 0xC PUSH1 0x20 MSTORE PUSH1 0x40 SWAP1 KECCAK256 SLOAD PUSH32 0x7FFFFFFFFFFFFFFFFFFFFFFFFFFFFFFFFFFFFFFFFFFFFFFFFFFFFFFFFFFFFFFF AND DUP2 GT ISZERO PUSH2 0x3AFF JUMPI PUSH1 0x40 MLOAD PUSH32 0x8C379A000000000000000000000000000000000000000000000000000000000 DUP2 MSTORE PUSH1 0x20 PUSH1 0x4 DUP3 ADD MSTORE PUSH1 0x26 PUSH1 0x24 DUP3 ADD MSTORE PUSH32 0x45524332303A207472616E7366657220616D6F756E7420657863656564732062 PUSH1 0x44 DUP3 ADD MSTORE PUSH32 0x616C616E63650000000000000000000000000000000000000000000000000000 PUSH1 0x64 DUP3 ADD MSTORE PUSH1 0x84 ADD PUSH2 0xB49 JUMP JUMPDEST PUSH2 0x3B5B DUP4 PUSH2 0x194C DUP4 PUSH2 0x3B55 DUP8 PUSH20 0xFFFFFFFFFFFFFFFFFFFFFFFFFFFFFFFFFFFFFFFF AND PUSH1 0x0 SWAP1 DUP2 MSTORE PUSH1 0xC PUSH1 0x20 MSTORE PUSH1 0x40 SWAP1 KECCAK256 SLOAD PUSH32 0x7FFFFFFFFFFFFFFFFFFFFFFFFFFFFFFFFFFFFFFFFFFFFFFFFFFFFFFFFFFFFFFF AND SWAP1 JUMP JUMPDEST SWAP1 PUSH2 0x3C16 JUMP JUMPDEST PUSH2 0x3BB7 DUP3 PUSH2 0x194C DUP4 PUSH2 0x3BB1 DUP7 PUSH20 0xFFFFFFFFFFFFFFFFFFFFFFFFFFFFFFFFFFFFFFFF AND PUSH1 0x0 SWAP1 DUP2 MSTORE PUSH1 0xC PUSH1 0x20 MSTORE PUSH1 0x40 SWAP1 KECCAK256 SLOAD PUSH32 0x7FFFFFFFFFFFFFFFFFFFFFFFFFFFFFFFFFFFFFFFFFFFFFFFFFFFFFFFFFFFFFFF AND SWAP1 JUMP JUMPDEST SWAP1 PUSH2 0x49AA JUMP JUMPDEST DUP2 PUSH20 0xFFFFFFFFFFFFFFFFFFFFFFFFFFFFFFFFFFFFFFFF AND DUP4 PUSH20 0xFFFFFFFFFFFFFFFFFFFFFFFFFFFFFFFFFFFFFFFF AND PUSH32 0xDDF252AD1BE2C89B69C2B068FC378DAA952BA7F163C4A11628F55A4DF523B3EF DUP4 PUSH1 0x40 MLOAD PUSH2 0x19B7 SWAP2 DUP2 MSTORE PUSH1 0x20 ADD SWAP1 JUMP JUMPDEST PUSH1 0x0 PUSH2 0x3C22 DUP3 DUP5 PUSH2 0x5CC9 JUMP JUMPDEST SWAP4 SWAP3 POP POP POP JUMP JUMPDEST PUSH2 0x21CD DUP10 DUP10 DUP10 DUP10 DUP10 DUP10 DUP9 DUP9 DUP12 PUSH1 0x40 MLOAD PUSH1 0x20 ADD PUSH2 0x3C7D SWAP4 SWAP3 SWAP2 SWAP1 SWAP3 DUP4 MSTORE PUSH1 0x20 DUP4 ADD SWAP2 SWAP1 SWAP2 MSTORE PUSH1 0xF8 SHL PUSH32 0xFF00000000000000000000000000000000000000000000000000000000000000 AND PUSH1 0x40 DUP3 ADD MSTORE PUSH1 0x41 ADD SWAP1 JUMP JUMPDEST PUSH1 0x40 MLOAD PUSH1 0x20 DUP2 DUP4 SUB SUB DUP2 MSTORE SWAP1 PUSH1 0x40 MSTORE PUSH2 0x4411 JUMP JUMPDEST PUSH1 0x0 PUSH2 0x143C PUSH1 0x7 DUP1 SLOAD PUSH2 0x3CA3 SWAP1 PUSH2 0x5987 JUMP JUMPDEST DUP1 PUSH1 0x1F ADD PUSH1 0x20 DUP1 SWAP2 DIV MUL PUSH1 0x20 ADD PUSH1 0x40 MLOAD SWAP1 DUP2 ADD PUSH1 0x40 MSTORE DUP1 SWAP3 SWAP2 SWAP1 DUP2 DUP2 MSTORE PUSH1 0x20 ADD DUP3 DUP1 SLOAD PUSH2 0x3CCF SWAP1 PUSH2 0x5987 JUMP JUMPDEST DUP1 ISZERO PUSH2 0x3D1C JUMPI DUP1 PUSH1 0x1F LT PUSH2 0x3CF1 JUMPI PUSH2 0x100 DUP1 DUP4 SLOAD DIV MUL DUP4 MSTORE SWAP2 PUSH1 0x20 ADD SWAP2 PUSH2 0x3D1C JUMP JUMPDEST DUP3 ADD SWAP2 SWAP1 PUSH1 0x0 MSTORE PUSH1 0x20 PUSH1 0x0 KECCAK256 SWAP1 JUMPDEST DUP2 SLOAD DUP2 MSTORE SWAP1 PUSH1 0x1 ADD SWAP1 PUSH1 0x20 ADD DUP1 DUP4 GT PUSH2 0x3CFF JUMPI DUP3 SWAP1 SUB PUSH1 0x1F AND DUP3 ADD SWAP2 JUMPDEST POP POP POP POP POP PUSH1 0x40 MLOAD DUP1 PUSH1 0x40 ADD PUSH1 0x40 MSTORE DUP1 PUSH1 0x1 DUP2 MSTORE PUSH1 0x20 ADD PUSH32 0x3200000000000000000000000000000000000000000000000000000000000000 DUP2 MSTORE POP PUSH2 0x3D5E CHAINID SWAP1 JUMP JUMPDEST DUP3 MLOAD PUSH1 0x20 SWAP4 DUP5 ADD KECCAK256 DUP3 MLOAD SWAP3 DUP5 ADD SWAP3 SWAP1 SWAP3 KECCAK256 PUSH1 0x40 DUP1 MLOAD PUSH32 0x8B73C3C69BB8FE3D512ECC4CF759CC79239F7B179B0FFACAA9A75D522B39400F DUP2 DUP8 ADD MSTORE DUP1 DUP3 ADD SWAP5 SWAP1 SWAP5 MSTORE PUSH1 0x60 DUP5 ADD SWAP2 SWAP1 SWAP2 MSTORE PUSH1 0x80 DUP4 ADD SWAP2 SWAP1 SWAP2 MSTORE ADDRESS PUSH1 0xA0 DUP1 DUP5 ADD SWAP2 SWAP1 SWAP2 MSTORE DUP2 MLOAD DUP1 DUP5 SUB SWAP1 SWAP2 ADD DUP2 MSTORE PUSH1 0xC0 SWAP1 SWAP3 ADD SWAP1 MSTORE DUP1 MLOAD SWAP2 ADD KECCAK256 SWAP1 JUMP JUMPDEST PUSH20 0xFFFFFFFFFFFFFFFFFFFFFFFFFFFFFFFFFFFFFFFF DUP1 DUP5 AND PUSH1 0x0 SWAP1 DUP2 MSTORE PUSH1 0xE PUSH1 0x20 SWAP1 DUP2 MSTORE PUSH1 0x40 DUP1 DUP4 KECCAK256 SWAP4 DUP7 AND DUP4 MSTORE SWAP3 SWAP1 MSTORE KECCAK256 SLOAD PUSH2 0x2FB2 SWAP1 DUP5 SWAP1 DUP5 SWAP1 PUSH2 0x3E17 SWAP1 DUP6 PUSH2 0x49AA JUMP JUMPDEST PUSH2 0x3655 JUMP JUMPDEST PUSH2 0x3E24 PUSH2 0x49B6 JUMP JUMPDEST PUSH1 0x3 DUP1 SLOAD PUSH32 0xFFFFFFFFFFFFFFFFFFFFFFFFFFFFFFFFFFFFFFFFFFFFFFFFFFFFFFFFFFFFFF00 AND SWAP1 SSTORE PUSH32 0x5DB9EE0A495BF2E6FF9C91A7834C1BA4FDD244A5E8AA4E537BD38AEAE4B073AA CALLER JUMPDEST PUSH1 0x40 MLOAD PUSH20 0xFFFFFFFFFFFFFFFFFFFFFFFFFFFFFFFFFFFFFFFF SWAP1 SWAP2 AND DUP2 MSTORE PUSH1 0x20 ADD PUSH1 0x40 MLOAD DUP1 SWAP2 SUB SWAP1 LOG1 JUMP JUMPDEST PUSH32 0x7FFFFFFFFFFFFFFFFFFFFFFFFFFFFFFFFFFFFFFFFFFFFFFFFFFFFFFFFFFFFFFF DUP2 GT ISZERO PUSH2 0x3F49 JUMPI PUSH1 0x40 MLOAD PUSH32 0x8C379A000000000000000000000000000000000000000000000000000000000 DUP2 MSTORE PUSH1 0x20 PUSH1 0x4 DUP3 ADD MSTORE PUSH1 0x28 PUSH1 0x24 DUP3 ADD MSTORE PUSH32 0x4A445343546F6B656E56313A2042616C616E636520657863656564732028325E PUSH1 0x44 DUP3 ADD MSTORE PUSH32 0x323535202D203129000000000000000000000000000000000000000000000000 PUSH1 0x64 DUP3 ADD MSTORE PUSH1 0x84 ADD PUSH2 0xB49 JUMP JUMPDEST PUSH20 0xFFFFFFFFFFFFFFFFFFFFFFFFFFFFFFFFFFFFFFFF DUP3 AND PUSH1 0x0 SWAP1 DUP2 MSTORE PUSH1 0xC PUSH1 0x20 MSTORE PUSH1 0x40 SWAP1 KECCAK256 SLOAD PUSH1 0xFF SHR PUSH1 0x1 SUB PUSH2 0x4001 JUMPI PUSH1 0x40 MLOAD PUSH32 0x8C379A000000000000000000000000000000000000000000000000000000000 DUP2 MSTORE PUSH1 0x20 PUSH1 0x4 DUP3 ADD MSTORE PUSH1 0x22 PUSH1 0x24 DUP3 ADD MSTORE PUSH32 0x4A445343546F6B656E313A204163636F756E7420697320626C61636B6C697374 PUSH1 0x44 DUP3 ADD MSTORE PUSH32 0x6564000000000000000000000000000000000000000000000000000000000000 PUSH1 0x64 DUP3 ADD MSTORE PUSH1 0x84 ADD PUSH2 0xB49 JUMP JUMPDEST PUSH20 0xFFFFFFFFFFFFFFFFFFFFFFFFFFFFFFFFFFFFFFFF SWAP1 SWAP2 AND PUSH1 0x0 SWAP1 DUP2 MSTORE PUSH1 0xC PUSH1 0x20 MSTORE PUSH1 0x40 SWAP1 KECCAK256 SSTORE JUMP JUMPDEST PUSH2 0xCD6 DUP2 PUSH1 0x1 PUSH2 0x48E2 JUMP JUMPDEST PUSH1 0x40 DUP1 MLOAD PUSH1 0x20 DUP2 ADD DUP5 SWAP1 MSTORE SWAP1 DUP2 ADD DUP3 SWAP1 MSTORE PUSH32 0xFF00000000000000000000000000000000000000000000000000000000000000 PUSH1 0xF8 DUP6 SWAP1 SHL AND PUSH1 0x60 DUP3 ADD MSTORE PUSH2 0x1E25 SWAP1 DUP7 SWAP1 DUP7 SWAP1 PUSH1 0x61 ADD PUSH1 0x40 MLOAD PUSH1 0x20 DUP2 DUP4 SUB SUB DUP2 MSTORE SWAP1 PUSH1 0x40 MSTORE PUSH2 0x471B JUMP JUMPDEST PUSH1 0x0 PUSH2 0x3C22 DUP3 DUP5 PUSH2 0x5CDC JUMP JUMPDEST PUSH1 0x0 PUSH2 0x3C22 DUP3 DUP5 PUSH2 0x5CF3 JUMP JUMPDEST PUSH2 0x40B1 PUSH2 0x35E8 JUMP JUMPDEST PUSH1 0x3 DUP1 SLOAD PUSH32 0xFFFFFFFFFFFFFFFFFFFFFFFFFFFFFFFFFFFFFFFFFFFFFFFFFFFFFFFFFFFFFF00 AND PUSH1 0x1 OR SWAP1 SSTORE PUSH32 0x62E78CEA01BEE320CD4E420270B5EA74000D11B0C9F74754EBDBFC544B05A258 PUSH2 0x3E6F CALLER SWAP1 JUMP JUMPDEST PUSH20 0xFFFFFFFFFFFFFFFFFFFFFFFFFFFFFFFFFFFFFFFF DUP7 AND CALLER EQ PUSH2 0x41A9 JUMPI PUSH1 0x40 MLOAD PUSH32 0x8C379A000000000000000000000000000000000000000000000000000000000 DUP2 MSTORE PUSH1 0x20 PUSH1 0x4 DUP3 ADD MSTORE PUSH1 0x21 PUSH1 0x24 DUP3 ADD MSTORE PUSH32 0x546F6B656E56323A2063616C6C6572206D757374206265207468652070617965 PUSH1 0x44 DUP3 ADD MSTORE PUSH32 0x6500000000000000000000000000000000000000000000000000000000000000 PUSH1 0x64 DUP3 ADD MSTORE PUSH1 0x84 ADD PUSH2 0xB49 JUMP JUMPDEST PUSH2 0x41B5 DUP8 DUP4 DUP7 DUP7 PUSH2 0x4A22 JUMP JUMPDEST PUSH1 0x40 DUP1 MLOAD PUSH32 0xD099CC98EF71107A616C4F0F941F04C322D8E254FE26B3C6668DB87AAE413DE8 PUSH1 0x20 DUP3 ADD MSTORE PUSH20 0xFFFFFFFFFFFFFFFFFFFFFFFFFFFFFFFFFFFFFFFF DUP1 DUP11 AND SWAP3 DUP3 ADD SWAP3 SWAP1 SWAP3 MSTORE SWAP1 DUP8 AND PUSH1 0x60 DUP3 ADD MSTORE PUSH1 0x80 DUP2 ADD DUP7 SWAP1 MSTORE PUSH1 0xA0 DUP2 ADD DUP6 SWAP1 MSTORE PUSH1 0xC0 DUP2 ADD DUP5 SWAP1 MSTORE PUSH1 0xE0 DUP2 ADD DUP4 SWAP1 MSTORE PUSH2 0x4249 SWAP1 DUP9 SWAP1 PUSH2 0x100 ADD JUMPDEST PUSH1 0x40 MLOAD PUSH1 0x20 DUP2 DUP4 SUB SUB DUP2 MSTORE SWAP1 PUSH1 0x40 MSTORE DUP1 MLOAD SWAP1 PUSH1 0x20 ADD KECCAK256 DUP4 PUSH2 0x4B50 JUMP JUMPDEST PUSH2 0x4253 DUP8 DUP4 PUSH2 0x4C06 JUMP JUMPDEST PUSH2 0x2A80 DUP8 DUP8 DUP8 PUSH2 0x38E2 JUMP JUMPDEST PUSH1 0xB SLOAD PUSH21 0x10000000000000000000000000000000000000000 SWAP1 DIV PUSH1 0xFF AND DUP1 ISZERO PUSH2 0x428B JUMPI POP PUSH1 0x12 SLOAD PUSH1 0xFF AND ISZERO JUMPDEST PUSH2 0x4294 JUMPI PUSH1 0x0 DUP1 REVERT JUMPDEST PUSH2 0x42D3 DUP2 PUSH1 0x40 MLOAD DUP1 PUSH1 0x40 ADD PUSH1 0x40 MSTORE DUP1 PUSH1 0x1 DUP2 MSTORE PUSH1 0x20 ADD PUSH32 0x3100000000000000000000000000000000000000000000000000000000000000 DUP2 MSTORE POP PUSH2 0x4C8C JUMP JUMPDEST PUSH1 0x0 SSTORE POP PUSH1 0x12 DUP1 SLOAD PUSH32 0xFFFFFFFFFFFFFFFFFFFFFFFFFFFFFFFFFFFFFFFFFFFFFFFFFFFFFFFFFFFFFF00 AND PUSH1 0x1 OR SWAP1 SSTORE JUMP JUMPDEST PUSH1 0xF SLOAD PUSH1 0x0 SWAP1 PUSH2 0x4314 SWAP1 DUP4 PUSH2 0x49AA JUMP JUMPDEST PUSH1 0xF SSTORE PUSH2 0x436D DUP4 PUSH2 0x194C DUP5 PUSH2 0x3BB1 DUP4 PUSH20 0xFFFFFFFFFFFFFFFFFFFFFFFFFFFFFFFFFFFFFFFF AND PUSH1 0x0 SWAP1 DUP2 MSTORE PUSH1 0xC PUSH1 0x20 MSTORE PUSH1 0x40 SWAP1 KECCAK256 SLOAD PUSH32 0x7FFFFFFFFFFFFFFFFFFFFFFFFFFFFFFFFFFFFFFFFFFFFFFFFFFFFFFFFFFFFFFF AND SWAP1 JUMP JUMPDEST PUSH1 0x40 MLOAD DUP3 DUP2 MSTORE PUSH20 0xFFFFFFFFFFFFFFFFFFFFFFFFFFFFFFFFFFFFFFFF DUP5 AND SWAP1 CALLER SWAP1 PUSH32 0xAB8530F87DC9B59234C4623BF917212BB2536D647574C8E7E5DA92C2EDE0C9F8 SWAP1 PUSH1 0x20 ADD PUSH1 0x40 MLOAD DUP1 SWAP2 SUB SWAP1 LOG3 PUSH1 0x40 MLOAD DUP3 DUP2 MSTORE PUSH20 0xFFFFFFFFFFFFFFFFFFFFFFFFFFFFFFFFFFFFFFFF DUP5 AND SWAP1 PUSH1 0x0 SWAP1 PUSH32 0xDDF252AD1BE2C89B69C2B068FC378DAA952BA7F163C4A11628F55A4DF523B3EF SWAP1 PUSH1 0x20 ADD PUSH1 0x40 MLOAD DUP1 SWAP2 SUB SWAP1 LOG3 POP PUSH1 0x1 SWAP3 SWAP2 POP POP JUMP JUMPDEST PUSH2 0x441D DUP8 DUP4 DUP7 DUP7 PUSH2 0x4A22 JUMP JUMPDEST PUSH1 0x40 DUP1 MLOAD PUSH32 0x7C7C6CDB67A18743F49EC6FA9B35F50D52ED05CBED4CC592E13B44501C1A2267 PUSH1 0x20 DUP3 ADD MSTORE PUSH20 0xFFFFFFFFFFFFFFFFFFFFFFFFFFFFFFFFFFFFFFFF DUP1 DUP11 AND SWAP3 DUP3 ADD SWAP3 SWAP1 SWAP3 MSTORE SWAP1 DUP8 AND PUSH1 0x60 DUP3 ADD MSTORE PUSH1 0x80 DUP2 ADD DUP7 SWAP1 MSTORE PUSH1 0xA0 DUP2 ADD DUP6 SWAP1 MSTORE PUSH1 0xC0 DUP2 ADD DUP5 SWAP1 MSTORE PUSH1 0xE0 DUP2 ADD DUP4 SWAP1 MSTORE PUSH2 0x4249 SWAP1 DUP9 SWAP1 PUSH2 0x100 ADD PUSH2 0x422D JUMP JUMPDEST PUSH2 0xCD6 DUP2 PUSH1 0x1 PUSH2 0x4D11 JUMP JUMPDEST PUSH32 0xFFFFFFFFFFFFFFFFFFFFFFFFFFFFFFFFFFFFFFFFFFFFFFFFFFFFFFFFFFFFFFFF DUP3 EQ DUP1 PUSH2 0x44D2 JUMPI POP TIMESTAMP DUP3 LT ISZERO JUMPDEST PUSH2 0x4538 JUMPI PUSH1 0x40 MLOAD PUSH32 0x8C379A000000000000000000000000000000000000000000000000000000000 DUP2 MSTORE PUSH1 0x20 PUSH1 0x4 DUP3 ADD MSTORE PUSH1 0x1E PUSH1 0x24 DUP3 ADD MSTORE PUSH32 0x4A445343546F6B656E56323A207065726D697420697320657870697265640000 PUSH1 0x44 DUP3 ADD MSTORE PUSH1 0x64 ADD PUSH2 0xB49 JUMP JUMPDEST PUSH1 0x0 PUSH2 0x4639 PUSH2 0x4545 PUSH2 0x3C91 JUMP JUMPDEST PUSH20 0xFFFFFFFFFFFFFFFFFFFFFFFFFFFFFFFFFFFFFFFF DUP9 AND PUSH1 0x0 SWAP1 DUP2 MSTORE PUSH1 0x2 PUSH1 0x20 MSTORE PUSH1 0x40 DUP2 KECCAK256 DUP1 SLOAD PUSH32 0x6E71EDAE12B1B97F4D1F60370FEF10105FA2FAAE0126114A169C64845D6126C9 SWAP3 DUP12 SWAP3 DUP12 SWAP3 DUP12 SWAP3 SWAP1 SWAP2 SWAP1 PUSH2 0x45A0 DUP4 PUSH2 0x5D2E JUMP JUMPDEST SWAP1 SWAP2 SSTORE POP PUSH1 0x40 DUP1 MLOAD PUSH1 0x20 DUP2 ADD SWAP7 SWAP1 SWAP7 MSTORE PUSH20 0xFFFFFFFFFFFFFFFFFFFFFFFFFFFFFFFFFFFFFFFF SWAP5 DUP6 AND SWAP1 DUP7 ADD MSTORE SWAP3 SWAP1 SWAP2 AND PUSH1 0x60 DUP5 ADD MSTORE PUSH1 0x80 DUP4 ADD MSTORE PUSH1 0xA0 DUP3 ADD MSTORE PUSH1 0xC0 DUP2 ADD DUP7 SWAP1 MSTORE PUSH1 0xE0 ADD PUSH1 0x40 MLOAD PUSH1 0x20 DUP2 DUP4 SUB SUB DUP2 MSTORE SWAP1 PUSH1 0x40 MSTORE DUP1 MLOAD SWAP1 PUSH1 0x20 ADD KECCAK256 PUSH1 0x40 MLOAD PUSH32 0x1901000000000000000000000000000000000000000000000000000000000000 DUP2 MSTORE PUSH1 0x2 DUP2 ADD SWAP3 SWAP1 SWAP3 MSTORE PUSH1 0x22 DUP3 ADD MSTORE PUSH1 0x42 SWAP1 KECCAK256 SWAP1 JUMP JUMPDEST SWAP1 POP PUSH2 0x4646 DUP7 DUP3 DUP5 PUSH2 0x4DD9 JUMP JUMPDEST PUSH2 0x46AC JUMPI PUSH1 0x40 MLOAD PUSH32 0x8C379A000000000000000000000000000000000000000000000000000000000 DUP2 MSTORE PUSH1 0x20 PUSH1 0x4 DUP3 ADD MSTORE PUSH1 0x1A PUSH1 0x24 DUP3 ADD MSTORE PUSH32 0x454950323631323A20696E76616C6964207369676E6174757265000000000000 PUSH1 0x44 DUP3 ADD MSTORE PUSH1 0x64 ADD PUSH2 0xB49 JUMP JUMPDEST PUSH2 0x46B7 DUP7 DUP7 DUP7 PUSH2 0x3655 JUMP JUMPDEST POP POP POP POP POP POP JUMP JUMPDEST PUSH2 0x2FB2 DUP4 DUP4 PUSH2 0x3E17 DUP5 PUSH1 0x40 MLOAD DUP1 PUSH1 0x60 ADD PUSH1 0x40 MSTORE DUP1 PUSH1 0x25 DUP2 MSTORE PUSH1 0x20 ADD PUSH2 0x5DF7 PUSH1 0x25 SWAP2 CODECOPY PUSH20 0xFFFFFFFFFFFFFFFFFFFFFFFFFFFFFFFFFFFFFFFF DUP1 DUP11 AND PUSH1 0x0 SWAP1 DUP2 MSTORE PUSH1 0xE PUSH1 0x20 SWAP1 DUP2 MSTORE PUSH1 0x40 DUP1 DUP4 KECCAK256 SWAP4 DUP13 AND DUP4 MSTORE SWAP3 SWAP1 MSTORE KECCAK256 SLOAD SWAP2 SWAP1 PUSH2 0x4E55 JUMP JUMPDEST PUSH2 0x4725 DUP4 DUP4 PUSH2 0x4E9B JUMP JUMPDEST PUSH1 0x40 DUP1 MLOAD PUSH32 0x158B0A9EDF7A828AAD02F63CD515C68EF2F50BA807396F6D12842833A1597429 PUSH1 0x20 DUP3 ADD MSTORE PUSH20 0xFFFFFFFFFFFFFFFFFFFFFFFFFFFFFFFFFFFFFFFF DUP6 AND SWAP2 DUP2 ADD SWAP2 SWAP1 SWAP2 MSTORE PUSH1 0x60 DUP2 ADD DUP4 SWAP1 MSTORE PUSH2 0x4782 SWAP1 DUP5 SWAP1 PUSH1 0x80 ADD PUSH2 0x422D JUMP JUMPDEST PUSH20 0xFFFFFFFFFFFFFFFFFFFFFFFFFFFFFFFFFFFFFFFF DUP4 AND PUSH1 0x0 DUP2 DUP2 MSTORE PUSH1 0x1 PUSH1 0x20 DUP2 DUP2 MSTORE PUSH1 0x40 DUP1 DUP5 KECCAK256 DUP8 DUP6 MSTORE SWAP1 SWAP2 MSTORE DUP1 DUP4 KECCAK256 DUP1 SLOAD PUSH32 0xFFFFFFFFFFFFFFFFFFFFFFFFFFFFFFFFFFFFFFFFFFFFFFFFFFFFFFFFFFFFFF00 AND SWAP1 SWAP3 OR SWAP1 SWAP2 SSTORE MLOAD DUP5 SWAP3 SWAP2 PUSH32 0x1CDD46FF242716CDAA72D159D339A485B3438398348D68F09D7C8C0A59353D81 SWAP2 LOG3 POP POP POP JUMP JUMPDEST PUSH2 0x2A80 DUP8 DUP8 DUP8 DUP8 DUP7 DUP7 DUP10 PUSH1 0x40 MLOAD PUSH1 0x20 ADD PUSH2 0x485B SWAP4 SWAP3 SWAP2 SWAP1 SWAP3 DUP4 MSTORE PUSH1 0x20 DUP4 ADD SWAP2 SWAP1 SWAP2 MSTORE PUSH1 0xF8 SHL PUSH32 0xFF00000000000000000000000000000000000000000000000000000000000000 AND PUSH1 0x40 DUP3 ADD MSTORE PUSH1 0x41 ADD SWAP1 JUMP JUMPDEST PUSH1 0x40 MLOAD PUSH1 0x20 DUP2 DUP4 SUB SUB DUP2 MSTORE SWAP1 PUSH1 0x40 MSTORE PUSH2 0x44A4 JUMP JUMPDEST PUSH2 0x21CD DUP10 DUP10 DUP10 DUP10 DUP10 DUP10 DUP9 DUP9 DUP12 PUSH1 0x40 MLOAD PUSH1 0x20 ADD PUSH2 0x48C3 SWAP4 SWAP3 SWAP2 SWAP1 SWAP3 DUP4 MSTORE PUSH1 0x20 DUP4 ADD SWAP2 SWAP1 SWAP2 MSTORE PUSH1 0xF8 SHL PUSH32 0xFF00000000000000000000000000000000000000000000000000000000000000 AND PUSH1 0x40 DUP3 ADD MSTORE PUSH1 0x41 ADD SWAP1 JUMP JUMPDEST PUSH1 0x40 MLOAD PUSH1 0x20 DUP2 DUP4 SUB SUB DUP2 MSTORE SWAP1 PUSH1 0x40 MSTORE PUSH2 0x4104 JUMP JUMPDEST PUSH2 0xCD6 DUP2 PUSH1 0x0 PUSH2 0x4D11 JUMP JUMPDEST DUP1 PUSH2 0x4934 JUMPI PUSH20 0xFFFFFFFFFFFFFFFFFFFFFFFFFFFFFFFFFFFFFFFF DUP3 AND PUSH1 0x0 SWAP1 DUP2 MSTORE PUSH1 0xC PUSH1 0x20 MSTORE PUSH1 0x40 SWAP1 KECCAK256 SLOAD PUSH32 0x7FFFFFFFFFFFFFFFFFFFFFFFFFFFFFFFFFFFFFFFFFFFFFFFFFFFFFFFFFFFFFFF AND PUSH2 0x497D JUMP JUMPDEST PUSH20 0xFFFFFFFFFFFFFFFFFFFFFFFFFFFFFFFFFFFFFFFF DUP3 AND PUSH1 0x0 SWAP1 DUP2 MSTORE PUSH1 0xC PUSH1 0x20 MSTORE PUSH1 0x40 SWAP1 KECCAK256 SLOAD PUSH32 0x8000000000000000000000000000000000000000000000000000000000000000 OR JUMPDEST PUSH20 0xFFFFFFFFFFFFFFFFFFFFFFFFFFFFFFFFFFFFFFFF SWAP1 SWAP3 AND PUSH1 0x0 SWAP1 DUP2 MSTORE PUSH1 0xC PUSH1 0x20 MSTORE PUSH1 0x40 SWAP1 KECCAK256 SWAP2 SWAP1 SWAP2 SSTORE POP JUMP JUMPDEST PUSH1 0x0 PUSH2 0x3C22 DUP3 DUP5 PUSH2 0x5D66 JUMP JUMPDEST PUSH1 0x3 SLOAD PUSH1 0xFF AND PUSH2 0x1694 JUMPI PUSH1 0x40 MLOAD PUSH32 0x8C379A000000000000000000000000000000000000000000000000000000000 DUP2 MSTORE PUSH1 0x20 PUSH1 0x4 DUP3 ADD MSTORE PUSH1 0x14 PUSH1 0x24 DUP3 ADD MSTORE PUSH32 0x5061757361626C653A206E6F7420706175736564000000000000000000000000 PUSH1 0x44 DUP3 ADD MSTORE PUSH1 0x64 ADD PUSH2 0xB49 JUMP JUMPDEST DUP2 TIMESTAMP GT PUSH2 0x4AB1 JUMPI PUSH1 0x40 MLOAD PUSH32 0x8C379A000000000000000000000000000000000000000000000000000000000 DUP2 MSTORE PUSH1 0x20 PUSH1 0x4 DUP3 ADD MSTORE PUSH1 0x2B PUSH1 0x24 DUP3 ADD MSTORE PUSH32 0x4A445343546F6B656E56323A20617574686F72697A6174696F6E206973206E6F PUSH1 0x44 DUP3 ADD MSTORE PUSH32 0x74207965742076616C6964000000000000000000000000000000000000000000 PUSH1 0x64 DUP3 ADD MSTORE PUSH1 0x84 ADD PUSH2 0xB49 JUMP JUMPDEST DUP1 TIMESTAMP LT PUSH2 0x4B40 JUMPI PUSH1 0x40 MLOAD PUSH32 0x8C379A000000000000000000000000000000000000000000000000000000000 DUP2 MSTORE PUSH1 0x20 PUSH1 0x4 DUP3 ADD MSTORE PUSH1 0x25 PUSH1 0x24 DUP3 ADD MSTORE PUSH32 0x4A445343546F6B656E56323A20617574686F72697A6174696F6E206973206578 PUSH1 0x44 DUP3 ADD MSTORE PUSH32 0x7069726564000000000000000000000000000000000000000000000000000000 PUSH1 0x64 DUP3 ADD MSTORE PUSH1 0x84 ADD PUSH2 0xB49 JUMP JUMPDEST PUSH2 0x4B4A DUP5 DUP5 PUSH2 0x4E9B JUMP JUMPDEST POP POP POP POP JUMP JUMPDEST PUSH2 0x4BA0 DUP4 PUSH2 0x4B9A PUSH2 0x4B5F PUSH2 0x3C91 JUMP JUMPDEST DUP6 PUSH1 0x40 MLOAD PUSH32 0x1901000000000000000000000000000000000000000000000000000000000000 DUP2 MSTORE PUSH1 0x2 DUP2 ADD SWAP3 SWAP1 SWAP3 MSTORE PUSH1 0x22 DUP3 ADD MSTORE PUSH1 0x42 SWAP1 KECCAK256 SWAP1 JUMP JUMPDEST DUP4 PUSH2 0x4DD9 JUMP JUMPDEST PUSH2 0x2FB2 JUMPI PUSH1 0x40 MLOAD PUSH32 0x8C379A000000000000000000000000000000000000000000000000000000000 DUP2 MSTORE PUSH1 0x20 PUSH1 0x4 DUP3 ADD MSTORE PUSH1 0x1E PUSH1 0x24 DUP3 ADD MSTORE PUSH32 0x4A445343546F6B656E56323A20696E76616C6964207369676E61747572650000 PUSH1 0x44 DUP3 ADD MSTORE PUSH1 0x64 ADD PUSH2 0xB49 JUMP JUMPDEST PUSH20 0xFFFFFFFFFFFFFFFFFFFFFFFFFFFFFFFFFFFFFFFF DUP3 AND PUSH1 0x0 DUP2 DUP2 MSTORE PUSH1 0x1 PUSH1 0x20 DUP2 DUP2 MSTORE PUSH1 0x40 DUP1 DUP5 KECCAK256 DUP7 DUP6 MSTORE SWAP1 SWAP2 MSTORE DUP1 DUP4 KECCAK256 DUP1 SLOAD PUSH32 0xFFFFFFFFFFFFFFFFFFFFFFFFFFFFFFFFFFFFFFFFFFFFFFFFFFFFFFFFFFFFFF00 AND SWAP1 SWAP3 OR SWAP1 SWAP2 SSTORE MLOAD DUP4 SWAP3 SWAP2 PUSH32 0x98DE503528EE59B575EF0C0A2576A82497BFC029A5685B209E9EC333479B10A5 SWAP2 LOG3 POP POP JUMP JUMPDEST PUSH1 0x0 CHAINID PUSH2 0x4D09 DUP5 DUP5 DUP4 DUP3 MLOAD PUSH1 0x20 SWAP4 DUP5 ADD KECCAK256 DUP3 MLOAD SWAP3 DUP5 ADD SWAP3 SWAP1 SWAP3 KECCAK256 PUSH1 0x40 DUP1 MLOAD PUSH32 0x8B73C3C69BB8FE3D512ECC4CF759CC79239F7B179B0FFACAA9A75D522B39400F DUP2 DUP8 ADD MSTORE DUP1 DUP3 ADD SWAP5 SWAP1 SWAP5 MSTORE PUSH1 0x60 DUP5 ADD SWAP2 SWAP1 SWAP2 MSTORE PUSH1 0x80 DUP4 ADD SWAP2 SWAP1 SWAP2 MSTORE ADDRESS PUSH1 0xA0 DUP1 DUP5 ADD SWAP2 SWAP1 SWAP2 MSTORE DUP2 MLOAD DUP1 DUP5 SUB SWAP1 SWAP2 ADD DUP2 MSTORE PUSH1 0xC0 SWAP1 SWAP3 ADD SWAP1 MSTORE DUP1 MLOAD SWAP2 ADD KECCAK256 SWAP1 JUMP JUMPDEST SWAP5 SWAP4 POP POP POP POP JUMP JUMPDEST DUP1 PUSH2 0x4D63 JUMPI PUSH20 0xFFFFFFFFFFFFFFFFFFFFFFFFFFFFFFFFFFFFFFFF DUP3 AND PUSH1 0x0 SWAP1 DUP2 MSTORE PUSH1 0xC PUSH1 0x20 MSTORE PUSH1 0x40 SWAP1 KECCAK256 SLOAD PUSH32 0x7FFFFFFFFFFFFFFFFFFFFFFFFFFFFFFFFFFFFFFFFFFFFFFFFFFFFFFFFFFFFFFF AND PUSH2 0x4DAC JUMP JUMPDEST PUSH20 0xFFFFFFFFFFFFFFFFFFFFFFFFFFFFFFFFFFFFFFFF DUP3 AND PUSH1 0x0 SWAP1 DUP2 MSTORE PUSH1 0xD PUSH1 0x20 MSTORE PUSH1 0x40 SWAP1 KECCAK256 SLOAD PUSH32 0x8000000000000000000000000000000000000000000000000000000000000000 OR JUMPDEST PUSH20 0xFFFFFFFFFFFFFFFFFFFFFFFFFFFFFFFFFFFFFFFF SWAP1 SWAP3 AND PUSH1 0x0 SWAP1 DUP2 MSTORE PUSH1 0xD PUSH1 0x20 MSTORE PUSH1 0x40 SWAP1 KECCAK256 SWAP2 SWAP1 SWAP2 SSTORE POP JUMP JUMPDEST PUSH1 0x0 DUP1 PUSH1 0x0 PUSH2 0x4DE8 DUP6 DUP6 PUSH2 0x4F60 JUMP JUMPDEST POP SWAP1 SWAP3 POP SWAP1 POP PUSH1 0x0 DUP2 PUSH1 0x3 DUP2 GT ISZERO PUSH2 0x4E02 JUMPI PUSH2 0x4E02 PUSH2 0x5D79 JUMP JUMPDEST EQ DUP1 ISZERO PUSH2 0x4E3A JUMPI POP DUP6 PUSH20 0xFFFFFFFFFFFFFFFFFFFFFFFFFFFFFFFFFFFFFFFF AND DUP3 PUSH20 0xFFFFFFFFFFFFFFFFFFFFFFFFFFFFFFFFFFFFFFFF AND EQ JUMPDEST DUP1 PUSH2 0x4E4B JUMPI POP PUSH2 0x4E4B DUP7 DUP7 DUP7 PUSH2 0x4FAD JUMP JUMPDEST SWAP7 SWAP6 POP POP POP POP POP POP JUMP JUMPDEST PUSH1 0x0 DUP2 DUP5 DUP5 GT ISZERO PUSH2 0x4E93 JUMPI PUSH1 0x40 MLOAD PUSH32 0x8C379A000000000000000000000000000000000000000000000000000000000 DUP2 MSTORE PUSH1 0x4 ADD PUSH2 0xB49 SWAP2 SWAP1 PUSH2 0x5262 JUMP JUMPDEST POP POP POP SWAP1 SUB SWAP1 JUMP JUMPDEST PUSH20 0xFFFFFFFFFFFFFFFFFFFFFFFFFFFFFFFFFFFFFFFF DUP3 AND PUSH1 0x0 SWAP1 DUP2 MSTORE PUSH1 0x1 PUSH1 0x20 SWAP1 DUP2 MSTORE PUSH1 0x40 DUP1 DUP4 KECCAK256 DUP5 DUP5 MSTORE SWAP1 SWAP2 MSTORE SWAP1 KECCAK256 SLOAD PUSH1 0xFF AND ISZERO PUSH2 0x4F5C JUMPI PUSH1 0x40 MLOAD PUSH32 0x8C379A000000000000000000000000000000000000000000000000000000000 DUP2 MSTORE PUSH1 0x20 PUSH1 0x4 DUP3 ADD MSTORE PUSH1 0x2E PUSH1 0x24 DUP3 ADD MSTORE PUSH32 0x4A445343546F6B656E56323A20617574686F72697A6174696F6E206973207573 PUSH1 0x44 DUP3 ADD MSTORE PUSH32 0x6564206F722063616E63656C6564000000000000000000000000000000000000 PUSH1 0x64 DUP3 ADD MSTORE PUSH1 0x84 ADD PUSH2 0xB49 JUMP JUMPDEST POP POP JUMP JUMPDEST PUSH1 0x0 DUP1 PUSH1 0x0 DUP4 MLOAD PUSH1 0x41 SUB PUSH2 0x4F9A JUMPI PUSH1 0x20 DUP5 ADD MLOAD PUSH1 0x40 DUP6 ADD MLOAD PUSH1 0x60 DUP7 ADD MLOAD PUSH1 0x0 BYTE PUSH2 0x4F8C DUP9 DUP3 DUP6 DUP6 PUSH2 0x50FA JUMP JUMPDEST SWAP6 POP SWAP6 POP SWAP6 POP POP POP POP PUSH2 0x4FA6 JUMP JUMPDEST POP POP DUP2 MLOAD PUSH1 0x0 SWAP2 POP PUSH1 0x2 SWAP1 JUMPDEST SWAP3 POP SWAP3 POP SWAP3 JUMP JUMPDEST PUSH1 0x0 DUP1 PUSH1 0x0 DUP6 PUSH20 0xFFFFFFFFFFFFFFFFFFFFFFFFFFFFFFFFFFFFFFFF AND DUP6 DUP6 PUSH1 0x40 MLOAD PUSH1 0x24 ADD PUSH2 0x4FDC SWAP3 SWAP2 SWAP1 PUSH2 0x5DA8 JUMP JUMPDEST PUSH1 0x40 DUP1 MLOAD PUSH32 0xFFFFFFFFFFFFFFFFFFFFFFFFFFFFFFFFFFFFFFFFFFFFFFFFFFFFFFFFFFFFFFE0 DUP2 DUP5 SUB ADD DUP2 MSTORE SWAP2 DUP2 MSTORE PUSH1 0x20 DUP3 ADD DUP1 MLOAD PUSH28 0xFFFFFFFFFFFFFFFFFFFFFFFFFFFFFFFFFFFFFFFFFFFFFFFFFFFFFFFF AND PUSH32 0x1626BA7E00000000000000000000000000000000000000000000000000000000 OR SWAP1 MSTORE MLOAD PUSH2 0x505D SWAP2 SWAP1 PUSH2 0x5DC1 JUMP JUMPDEST PUSH1 0x0 PUSH1 0x40 MLOAD DUP1 DUP4 SUB DUP2 DUP6 GAS STATICCALL SWAP2 POP POP RETURNDATASIZE DUP1 PUSH1 0x0 DUP2 EQ PUSH2 0x5098 JUMPI PUSH1 0x40 MLOAD SWAP2 POP PUSH1 0x1F NOT PUSH1 0x3F RETURNDATASIZE ADD AND DUP3 ADD PUSH1 0x40 MSTORE RETURNDATASIZE DUP3 MSTORE RETURNDATASIZE PUSH1 0x0 PUSH1 0x20 DUP5 ADD RETURNDATACOPY PUSH2 0x509D JUMP JUMPDEST PUSH1 0x60 SWAP2 POP JUMPDEST POP SWAP2 POP SWAP2 POP DUP2 DUP1 ISZERO PUSH2 0x50B1 JUMPI POP PUSH1 0x20 DUP2 MLOAD LT ISZERO JUMPDEST DUP1 ISZERO PUSH2 0x4E4B JUMPI POP DUP1 MLOAD PUSH32 0x1626BA7E00000000000000000000000000000000000000000000000000000000 SWAP1 PUSH2 0x50EF SWAP1 DUP4 ADD PUSH1 0x20 SWAP1 DUP2 ADD SWAP1 DUP5 ADD PUSH2 0x5DDD JUMP JUMPDEST EQ SWAP7 SWAP6 POP POP POP POP POP POP JUMP JUMPDEST PUSH1 0x0 DUP1 DUP1 PUSH32 0x7FFFFFFFFFFFFFFFFFFFFFFFFFFFFFFF5D576E7357A4501DDFE92F46681B20A0 DUP5 GT ISZERO PUSH2 0x5135 JUMPI POP PUSH1 0x0 SWAP2 POP PUSH1 0x3 SWAP1 POP DUP3 PUSH2 0x51EA JUMP JUMPDEST PUSH1 0x40 DUP1 MLOAD PUSH1 0x0 DUP1 DUP3 MSTORE PUSH1 0x20 DUP3 ADD DUP1 DUP5 MSTORE DUP11 SWAP1 MSTORE PUSH1 0xFF DUP10 AND SWAP3 DUP3 ADD SWAP3 SWAP1 SWAP3 MSTORE PUSH1 0x60 DUP2 ADD DUP8 SWAP1 MSTORE PUSH1 0x80 DUP2 ADD DUP7 SWAP1 MSTORE PUSH1 0x1 SWAP1 PUSH1 0xA0 ADD PUSH1 0x20 PUSH1 0x40 MLOAD PUSH1 0x20 DUP2 SUB SWAP1 DUP1 DUP5 SUB SWAP1 DUP6 GAS STATICCALL ISZERO DUP1 ISZERO PUSH2 0x5189 JUMPI RETURNDATASIZE PUSH1 0x0 DUP1 RETURNDATACOPY RETURNDATASIZE PUSH1 0x0 REVERT JUMPDEST POP POP PUSH1 0x40 MLOAD PUSH32 0xFFFFFFFFFFFFFFFFFFFFFFFFFFFFFFFFFFFFFFFFFFFFFFFFFFFFFFFFFFFFFFE0 ADD MLOAD SWAP2 POP POP PUSH20 0xFFFFFFFFFFFFFFFFFFFFFFFFFFFFFFFFFFFFFFFF DUP2 AND PUSH2 0x51E0 JUMPI POP PUSH1 0x0 SWAP3 POP PUSH1 0x1 SWAP2 POP DUP3 SWAP1 POP PUSH2 0x51EA JUMP JUMPDEST SWAP3 POP PUSH1 0x0 SWAP2 POP DUP2 SWAP1 POP JUMPDEST SWAP5 POP SWAP5 POP SWAP5 SWAP2 POP POP JUMP JUMPDEST PUSH1 0x0 JUMPDEST DUP4 DUP2 LT ISZERO PUSH2 0x520F JUMPI DUP2 DUP2 ADD MLOAD DUP4 DUP3 ADD MSTORE PUSH1 0x20 ADD PUSH2 0x51F7 JUMP JUMPDEST POP POP PUSH1 0x0 SWAP2 ADD MSTORE JUMP JUMPDEST PUSH1 0x0 DUP2 MLOAD DUP1 DUP5 MSTORE PUSH2 0x5230 DUP2 PUSH1 0x20 DUP7 ADD PUSH1 0x20 DUP7 ADD PUSH2 0x51F4 JUMP JUMPDEST PUSH1 0x1F ADD PUSH32 0xFFFFFFFFFFFFFFFFFFFFFFFFFFFFFFFFFFFFFFFFFFFFFFFFFFFFFFFFFFFFFFE0 AND SWAP3 SWAP1 SWAP3 ADD PUSH1 0x20 ADD SWAP3 SWAP2 POP POP JUMP JUMPDEST PUSH1 0x20 DUP2 MSTORE PUSH1 0x0 PUSH2 0x3C22 PUSH1 0x20 DUP4 ADD DUP5 PUSH2 0x5218 JUMP JUMPDEST DUP1 CALLDATALOAD PUSH20 0xFFFFFFFFFFFFFFFFFFFFFFFFFFFFFFFFFFFFFFFF DUP2 AND DUP2 EQ PUSH2 0x125E JUMPI PUSH1 0x0 DUP1 REVERT JUMPDEST PUSH1 0x0 DUP1 PUSH1 0x40 DUP4 DUP6 SUB SLT ISZERO PUSH2 0x52AC JUMPI PUSH1 0x0 DUP1 REVERT JUMPDEST PUSH2 0x52B5 DUP4 PUSH2 0x5275 JUMP JUMPDEST SWAP5 PUSH1 0x20 SWAP4 SWAP1 SWAP4 ADD CALLDATALOAD SWAP4 POP POP POP JUMP JUMPDEST PUSH1 0x0 PUSH1 0x20 DUP3 DUP5 SUB SLT ISZERO PUSH2 0x52D5 JUMPI PUSH1 0x0 DUP1 REVERT JUMPDEST PUSH2 0x3C22 DUP3 PUSH2 0x5275 JUMP JUMPDEST PUSH1 0x0 DUP1 PUSH1 0x0 PUSH1 0x60 DUP5 DUP7 SUB SLT ISZERO PUSH2 0x52F3 JUMPI PUSH1 0x0 DUP1 REVERT JUMPDEST PUSH2 0x52FC DUP5 PUSH2 0x5275 JUMP JUMPDEST SWAP3 POP PUSH2 0x530A PUSH1 0x20 DUP6 ADD PUSH2 0x5275 JUMP JUMPDEST SWAP2 POP PUSH1 0x40 DUP5 ADD CALLDATALOAD SWAP1 POP SWAP3 POP SWAP3 POP SWAP3 JUMP JUMPDEST DUP1 CALLDATALOAD PUSH1 0xFF DUP2 AND DUP2 EQ PUSH2 0x125E JUMPI PUSH1 0x0 DUP1 REVERT JUMPDEST PUSH1 0x0 DUP1 PUSH1 0x0 DUP1 PUSH1 0x0 DUP1 PUSH1 0x0 DUP1 PUSH1 0x0 DUP1 PUSH2 0x140 DUP12 DUP14 SUB SLT ISZERO PUSH2 0x534B JUMPI PUSH1 0x0 DUP1 REVERT JUMPDEST PUSH2 0x5354 DUP12 PUSH2 0x5275 JUMP JUMPDEST SWAP10 POP PUSH2 0x5362 PUSH1 0x20 DUP13 ADD PUSH2 0x5275 JUMP JUMPDEST SWAP9 POP PUSH2 0x5370 PUSH1 0x40 DUP13 ADD PUSH2 0x5275 JUMP JUMPDEST SWAP8 POP PUSH1 0x60 DUP12 ADD CALLDATALOAD SWAP7 POP PUSH1 0x80 DUP12 ADD CALLDATALOAD SWAP6 POP PUSH1 0xA0 DUP12 ADD CALLDATALOAD SWAP5 POP PUSH1 0xC0 DUP12 ADD CALLDATALOAD SWAP4 POP PUSH2 0x539A PUSH1 0xE0 DUP13 ADD PUSH2 0x531A JUMP JUMPDEST SWAP3 POP PUSH2 0x100 DUP12 ADD CALLDATALOAD SWAP2 POP PUSH2 0x120 DUP12 ADD CALLDATALOAD SWAP1 POP SWAP3 SWAP6 SWAP9 SWAP12 SWAP2 SWAP5 SWAP8 SWAP11 POP SWAP3 SWAP6 SWAP9 POP JUMP JUMPDEST PUSH1 0x0 PUSH1 0x20 DUP3 DUP5 SUB SLT ISZERO PUSH2 0x53CD JUMPI PUSH1 0x0 DUP1 REVERT JUMPDEST POP CALLDATALOAD SWAP2 SWAP1 POP JUMP JUMPDEST PUSH1 0x0 DUP1 PUSH1 0x0 PUSH1 0x40 DUP5 DUP7 SUB SLT ISZERO PUSH2 0x53E9 JUMPI PUSH1 0x0 DUP1 REVERT JUMPDEST DUP4 CALLDATALOAD PUSH8 0xFFFFFFFFFFFFFFFF DUP1 DUP3 GT ISZERO PUSH2 0x5401 JUMPI PUSH1 0x0 DUP1 REVERT JUMPDEST DUP2 DUP7 ADD SWAP2 POP DUP7 PUSH1 0x1F DUP4 ADD SLT PUSH2 0x5415 JUMPI PUSH1 0x0 DUP1 REVERT JUMPDEST DUP2 CALLDATALOAD DUP2 DUP2 GT ISZERO PUSH2 0x5424 JUMPI PUSH1 0x0 DUP1 REVERT JUMPDEST DUP8 PUSH1 0x20 DUP3 PUSH1 0x5 SHL DUP6 ADD ADD GT ISZERO PUSH2 0x5439 JUMPI PUSH1 0x0 DUP1 REVERT JUMPDEST PUSH1 0x20 SWAP3 DUP4 ADD SWAP6 POP SWAP4 POP PUSH2 0x544F SWAP2 DUP7 ADD SWAP1 POP PUSH2 0x5275 JUMP JUMPDEST SWAP1 POP SWAP3 POP SWAP3 POP SWAP3 JUMP JUMPDEST PUSH1 0x0 DUP1 PUSH1 0x0 DUP1 PUSH1 0x0 PUSH1 0xA0 DUP7 DUP9 SUB SLT ISZERO PUSH2 0x5470 JUMPI PUSH1 0x0 DUP1 REVERT JUMPDEST PUSH2 0x5479 DUP7 PUSH2 0x5275 JUMP JUMPDEST SWAP5 POP PUSH1 0x20 DUP7 ADD CALLDATALOAD SWAP4 POP PUSH2 0x548E PUSH1 0x40 DUP8 ADD PUSH2 0x531A JUMP JUMPDEST SWAP5 SWAP8 SWAP4 SWAP7 POP SWAP4 SWAP5 PUSH1 0x60 DUP2 ADD CALLDATALOAD SWAP5 POP PUSH1 0x80 ADD CALLDATALOAD SWAP3 SWAP2 POP POP JUMP JUMPDEST PUSH32 0x4E487B7100000000000000000000000000000000000000000000000000000000 PUSH1 0x0 MSTORE PUSH1 0x41 PUSH1 0x4 MSTORE PUSH1 0x24 PUSH1 0x0 REVERT JUMPDEST PUSH1 0x0 DUP3 PUSH1 0x1F DUP4 ADD SLT PUSH2 0x54E6 JUMPI PUSH1 0x0 DUP1 REVERT JUMPDEST DUP2 CALLDATALOAD PUSH8 0xFFFFFFFFFFFFFFFF DUP1 DUP3 GT ISZERO PUSH2 0x5501 JUMPI PUSH2 0x5501 PUSH2 0x54A6 JUMP JUMPDEST PUSH1 0x40 MLOAD PUSH1 0x1F DUP4 ADD PUSH32 0xFFFFFFFFFFFFFFFFFFFFFFFFFFFFFFFFFFFFFFFFFFFFFFFFFFFFFFFFFFFFFFE0 SWAP1 DUP2 AND PUSH1 0x3F ADD AND DUP2 ADD SWAP1 DUP3 DUP3 GT DUP2 DUP4 LT OR ISZERO PUSH2 0x5547 JUMPI PUSH2 0x5547 PUSH2 0x54A6 JUMP JUMPDEST DUP2 PUSH1 0x40 MSTORE DUP4 DUP2 MSTORE DUP7 PUSH1 0x20 DUP6 DUP9 ADD ADD GT ISZERO PUSH2 0x5560 JUMPI PUSH1 0x0 DUP1 REVERT JUMPDEST DUP4 PUSH1 0x20 DUP8 ADD PUSH1 0x20 DUP4 ADD CALLDATACOPY PUSH1 0x0 PUSH1 0x20 DUP6 DUP4 ADD ADD MSTORE DUP1 SWAP5 POP POP POP POP POP SWAP3 SWAP2 POP POP JUMP JUMPDEST PUSH1 0x0 DUP1 PUSH1 0x0 DUP1 PUSH1 0x0 DUP1 PUSH1 0x0 PUSH1 0xE0 DUP9 DUP11 SUB SLT ISZERO PUSH2 0x559B JUMPI PUSH1 0x0 DUP1 REVERT JUMPDEST PUSH2 0x55A4 DUP9 PUSH2 0x5275 JUMP JUMPDEST SWAP7 POP PUSH2 0x55B2 PUSH1 0x20 DUP10 ADD PUSH2 0x5275 JUMP JUMPDEST SWAP6 POP PUSH1 0x40 DUP9 ADD CALLDATALOAD SWAP5 POP PUSH1 0x60 DUP9 ADD CALLDATALOAD SWAP4 POP PUSH1 0x80 DUP9 ADD CALLDATALOAD SWAP3 POP PUSH1 0xA0 DUP9 ADD CALLDATALOAD SWAP2 POP PUSH1 0xC0 DUP9 ADD CALLDATALOAD PUSH8 0xFFFFFFFFFFFFFFFF DUP2 GT ISZERO PUSH2 0x55EA JUMPI PUSH1 0x0 DUP1 REVERT JUMPDEST PUSH2 0x55F6 DUP11 DUP3 DUP12 ADD PUSH2 0x54D5 JUMP JUMPDEST SWAP2 POP POP SWAP3 SWAP6 SWAP9 SWAP2 SWAP5 SWAP8 POP SWAP3 SWAP6 POP JUMP JUMPDEST PUSH1 0x0 DUP1 PUSH1 0x0 DUP1 PUSH1 0x0 DUP1 PUSH1 0x0 DUP1 PUSH1 0x0 PUSH2 0x120 DUP11 DUP13 SUB SLT ISZERO PUSH2 0x5624 JUMPI PUSH1 0x0 DUP1 REVERT JUMPDEST DUP10 CALLDATALOAD PUSH8 0xFFFFFFFFFFFFFFFF DUP1 DUP3 GT ISZERO PUSH2 0x563C JUMPI PUSH1 0x0 DUP1 REVERT JUMPDEST PUSH2 0x5648 DUP14 DUP4 DUP15 ADD PUSH2 0x54D5 JUMP JUMPDEST SWAP11 POP PUSH1 0x20 DUP13 ADD CALLDATALOAD SWAP2 POP DUP1 DUP3 GT ISZERO PUSH2 0x565E JUMPI PUSH1 0x0 DUP1 REVERT JUMPDEST PUSH2 0x566A DUP14 DUP4 DUP15 ADD PUSH2 0x54D5 JUMP JUMPDEST SWAP10 POP PUSH1 0x40 DUP13 ADD CALLDATALOAD SWAP2 POP DUP1 DUP3 GT ISZERO PUSH2 0x5680 JUMPI PUSH1 0x0 DUP1 REVERT JUMPDEST POP PUSH2 0x568D DUP13 DUP3 DUP14 ADD PUSH2 0x54D5 JUMP JUMPDEST SWAP8 POP POP PUSH2 0x569C PUSH1 0x60 DUP12 ADD PUSH2 0x531A JUMP JUMPDEST SWAP6 POP PUSH1 0x80 DUP11 ADD CALLDATALOAD SWAP5 POP PUSH2 0x56B1 PUSH1 0xA0 DUP12 ADD PUSH2 0x5275 JUMP JUMPDEST SWAP4 POP PUSH2 0x56BF PUSH1 0xC0 DUP12 ADD PUSH2 0x5275 JUMP JUMPDEST SWAP3 POP PUSH2 0x56CD PUSH1 0xE0 DUP12 ADD PUSH2 0x5275 JUMP JUMPDEST SWAP2 POP PUSH2 0x56DC PUSH2 0x100 DUP12 ADD PUSH2 0x5275 JUMP JUMPDEST SWAP1 POP SWAP3 SWAP6 SWAP9 POP SWAP3 SWAP6 SWAP9 POP SWAP3 SWAP6 SWAP9 JUMP JUMPDEST PUSH1 0x0 DUP1 PUSH1 0x0 DUP1 PUSH1 0x0 DUP1 PUSH1 0x0 DUP1 PUSH2 0x100 DUP10 DUP12 SUB SLT ISZERO PUSH2 0x5708 JUMPI PUSH1 0x0 DUP1 REVERT JUMPDEST PUSH2 0x5711 DUP10 PUSH2 0x5275 JUMP JUMPDEST SWAP8 POP PUSH2 0x571F PUSH1 0x20 DUP11 ADD PUSH2 0x5275 JUMP JUMPDEST SWAP7 POP PUSH2 0x572D PUSH1 0x40 DUP11 ADD PUSH2 0x5275 JUMP JUMPDEST SWAP6 POP PUSH1 0x60 DUP10 ADD CALLDATALOAD SWAP5 POP PUSH1 0x80 DUP10 ADD CALLDATALOAD SWAP4 POP PUSH1 0xA0 DUP10 ADD CALLDATALOAD SWAP3 POP PUSH1 0xC0 DUP10 ADD CALLDATALOAD SWAP2 POP PUSH1 0xE0 DUP10 ADD CALLDATALOAD PUSH8 0xFFFFFFFFFFFFFFFF DUP2 GT ISZERO PUSH2 0x5765 JUMPI PUSH1 0x0 DUP1 REVERT JUMPDEST PUSH2 0x5771 DUP12 DUP3 DUP13 ADD PUSH2 0x54D5 JUMP JUMPDEST SWAP2 POP POP SWAP3 SWAP6 SWAP9 POP SWAP3 SWAP6 SWAP9 SWAP1 SWAP4 SWAP7 POP JUMP JUMPDEST PUSH1 0x0 DUP1 PUSH1 0x0 DUP1 PUSH1 0x0 PUSH1 0xA0 DUP7 DUP9 SUB SLT ISZERO PUSH2 0x5799 JUMPI PUSH1 0x0 DUP1 REVERT JUMPDEST PUSH2 0x57A2 DUP7 PUSH2 0x5275 JUMP JUMPDEST SWAP5 POP PUSH2 0x57B0 PUSH1 0x20 DUP8 ADD PUSH2 0x5275 JUMP JUMPDEST SWAP4 POP PUSH1 0x40 DUP7 ADD CALLDATALOAD SWAP3 POP PUSH1 0x60 DUP7 ADD CALLDATALOAD SWAP2 POP PUSH1 0x80 DUP7 ADD CALLDATALOAD PUSH8 0xFFFFFFFFFFFFFFFF DUP2 GT ISZERO PUSH2 0x57DA JUMPI PUSH1 0x0 DUP1 REVERT JUMPDEST PUSH2 0x57E6 DUP9 DUP3 DUP10 ADD PUSH2 0x54D5 JUMP JUMPDEST SWAP2 POP POP SWAP3 SWAP6 POP SWAP3 SWAP6 SWAP1 SWAP4 POP JUMP JUMPDEST PUSH1 0x0 DUP1 PUSH1 0x0 PUSH1 0x60 DUP5 DUP7 SUB SLT ISZERO PUSH2 0x5808 JUMPI PUSH1 0x0 DUP1 REVERT JUMPDEST PUSH2 0x5811 DUP5 PUSH2 0x5275 JUMP JUMPDEST SWAP3 POP PUSH1 0x20 DUP5 ADD CALLDATALOAD SWAP2 POP PUSH1 0x40 DUP5 ADD CALLDATALOAD PUSH8 0xFFFFFFFFFFFFFFFF DUP2 GT ISZERO PUSH2 0x5834 JUMPI PUSH1 0x0 DUP1 REVERT JUMPDEST PUSH2 0x5840 DUP7 DUP3 DUP8 ADD PUSH2 0x54D5 JUMP JUMPDEST SWAP2 POP POP SWAP3 POP SWAP3 POP SWAP3 JUMP JUMPDEST PUSH1 0x0 DUP1 PUSH1 0x40 DUP4 DUP6 SUB SLT ISZERO PUSH2 0x585D JUMPI PUSH1 0x0 DUP1 REVERT JUMPDEST POP POP DUP1 CALLDATALOAD SWAP3 PUSH1 0x20 SWAP1 SWAP2 ADD CALLDATALOAD SWAP2 POP JUMP JUMPDEST PUSH1 0x0 DUP1 PUSH1 0x0 DUP1 PUSH1 0x0 DUP1 PUSH1 0x0 PUSH1 0xE0 DUP9 DUP11 SUB SLT ISZERO PUSH2 0x5887 JUMPI PUSH1 0x0 DUP1 REVERT JUMPDEST PUSH2 0x5890 DUP9 PUSH2 0x5275 JUMP JUMPDEST SWAP7 POP PUSH2 0x589E PUSH1 0x20 DUP10 ADD PUSH2 0x5275 JUMP JUMPDEST SWAP6 POP PUSH1 0x40 DUP9 ADD CALLDATALOAD SWAP5 POP PUSH1 0x60 DUP9 ADD CALLDATALOAD SWAP4 POP PUSH2 0x58BA PUSH1 0x80 DUP10 ADD PUSH2 0x531A JUMP JUMPDEST SWAP3 POP PUSH1 0xA0 DUP9 ADD CALLDATALOAD SWAP2 POP PUSH1 0xC0 DUP9 ADD CALLDATALOAD SWAP1 POP SWAP3 SWAP6 SWAP9 SWAP2 SWAP5 SWAP8 POP SWAP3 SWAP6 POP JUMP JUMPDEST PUSH1 0x0 DUP1 PUSH1 0x40 DUP4 DUP6 SUB SLT ISZERO PUSH2 0x58E9 JUMPI PUSH1 0x0 DUP1 REVERT JUMPDEST PUSH2 0x58F2 DUP4 PUSH2 0x5275 JUMP JUMPDEST SWAP2 POP PUSH2 0x5900 PUSH1 0x20 DUP5 ADD PUSH2 0x5275 JUMP JUMPDEST SWAP1 POP SWAP3 POP SWAP3 SWAP1 POP JUMP JUMPDEST PUSH1 0x0 DUP1 PUSH1 0x0 DUP1 PUSH1 0x0 DUP1 PUSH1 0x0 DUP1 PUSH1 0x0 PUSH2 0x120 DUP11 DUP13 SUB SLT ISZERO PUSH2 0x5928 JUMPI PUSH1 0x0 DUP1 REVERT JUMPDEST PUSH2 0x5931 DUP11 PUSH2 0x5275 JUMP JUMPDEST SWAP9 POP PUSH2 0x593F PUSH1 0x20 DUP12 ADD PUSH2 0x5275 JUMP JUMPDEST SWAP8 POP PUSH1 0x40 DUP11 ADD CALLDATALOAD SWAP7 POP PUSH1 0x60 DUP11 ADD CALLDATALOAD SWAP6 POP PUSH1 0x80 DUP11 ADD CALLDATALOAD SWAP5 POP PUSH1 0xA0 DUP11 ADD CALLDATALOAD SWAP4 POP PUSH2 0x5969 PUSH1 0xC0 DUP12 ADD PUSH2 0x531A JUMP JUMPDEST SWAP3 POP PUSH1 0xE0 DUP11 ADD CALLDATALOAD SWAP2 POP PUSH2 0x100 DUP11 ADD CALLDATALOAD SWAP1 POP SWAP3 SWAP6 SWAP9 POP SWAP3 SWAP6 SWAP9 POP SWAP3 SWAP6 SWAP9 JUMP JUMPDEST PUSH1 0x1 DUP2 DUP2 SHR SWAP1 DUP3 AND DUP1 PUSH2 0x599B JUMPI PUSH1 0x7F DUP3 AND SWAP2 POP JUMPDEST PUSH1 0x20 DUP3 LT DUP2 SUB PUSH2 0x59D4 JUMPI PUSH32 0x4E487B7100000000000000000000000000000000000000000000000000000000 PUSH1 0x0 MSTORE PUSH1 0x22 PUSH1 0x4 MSTORE PUSH1 0x24 PUSH1 0x0 REVERT JUMPDEST POP SWAP2 SWAP1 POP JUMP JUMPDEST PUSH32 0x4E487B7100000000000000000000000000000000000000000000000000000000 PUSH1 0x0 MSTORE PUSH1 0x32 PUSH1 0x4 MSTORE PUSH1 0x24 PUSH1 0x0 REVERT JUMPDEST PUSH1 0x1F DUP3 GT ISZERO PUSH2 0x2FB2 JUMPI PUSH1 0x0 DUP2 PUSH1 0x0 MSTORE PUSH1 0x20 PUSH1 0x0 KECCAK256 PUSH1 0x1F DUP6 ADD PUSH1 0x5 SHR DUP2 ADD PUSH1 0x20 DUP7 LT ISZERO PUSH2 0x5A32 JUMPI POP DUP1 JUMPDEST PUSH1 0x1F DUP6 ADD PUSH1 0x5 SHR DUP3 ADD SWAP2 POP JUMPDEST DUP2 DUP2 LT ISZERO PUSH2 0x46B7 JUMPI DUP3 DUP2 SSTORE PUSH1 0x1 ADD PUSH2 0x5A3E JUMP JUMPDEST DUP2 MLOAD PUSH8 0xFFFFFFFFFFFFFFFF DUP2 GT ISZERO PUSH2 0x5A6B JUMPI PUSH2 0x5A6B PUSH2 0x54A6 JUMP JUMPDEST PUSH2 0x5A7F DUP2 PUSH2 0x5A79 DUP5 SLOAD PUSH2 0x5987 JUMP JUMPDEST DUP5 PUSH2 0x5A09 JUMP JUMPDEST PUSH1 0x20 DUP1 PUSH1 0x1F DUP4 GT PUSH1 0x1 DUP2 EQ PUSH2 0x5AD2 JUMPI PUSH1 0x0 DUP5 ISZERO PUSH2 0x5A9C JUMPI POP DUP6 DUP4 ADD MLOAD JUMPDEST PUSH32 0xFFFFFFFFFFFFFFFFFFFFFFFFFFFFFFFFFFFFFFFFFFFFFFFFFFFFFFFFFFFFFFFF PUSH1 0x3 DUP7 SWAP1 SHL SHR NOT AND PUSH1 0x1 DUP6 SWAP1 SHL OR DUP6 SSTORE PUSH2 0x46B7 JUMP JUMPDEST PUSH1 0x0 DUP6 DUP2 MSTORE PUSH1 0x20 DUP2 KECCAK256 PUSH32 0xFFFFFFFFFFFFFFFFFFFFFFFFFFFFFFFFFFFFFFFFFFFFFFFFFFFFFFFFFFFFFFE0 DUP7 AND SWAP2 JUMPDEST DUP3 DUP2 LT ISZERO PUSH2 0x5B1F JUMPI DUP9 DUP7 ADD MLOAD DUP3 SSTORE SWAP5 DUP5 ADD SWAP5 PUSH1 0x1 SWAP1 SWAP2 ADD SWAP1 DUP5 ADD PUSH2 0x5B00 JUMP JUMPDEST POP DUP6 DUP3 LT ISZERO PUSH2 0x5B5B JUMPI DUP8 DUP6 ADD MLOAD PUSH32 0xFFFFFFFFFFFFFFFFFFFFFFFFFFFFFFFFFFFFFFFFFFFFFFFFFFFFFFFFFFFFFFFF PUSH1 0x3 DUP9 SWAP1 SHL PUSH1 0xF8 AND SHR NOT AND DUP2 SSTORE JUMPDEST POP POP POP POP POP PUSH1 0x1 SWAP1 DUP2 SHL ADD SWAP1 SSTORE POP JUMP JUMPDEST PUSH32 0x4E487B7100000000000000000000000000000000000000000000000000000000 PUSH1 0x0 MSTORE PUSH1 0x11 PUSH1 0x4 MSTORE PUSH1 0x24 PUSH1 0x0 REVERT JUMPDEST PUSH1 0x1 DUP2 DUP2 JUMPDEST DUP1 DUP6 GT ISZERO PUSH2 0x5BF3 JUMPI DUP2 PUSH32 0xFFFFFFFFFFFFFFFFFFFFFFFFFFFFFFFFFFFFFFFFFFFFFFFFFFFFFFFFFFFFFFFF DIV DUP3 GT ISZERO PUSH2 0x5BD9 JUMPI PUSH2 0x5BD9 PUSH2 0x5B6B JUMP JUMPDEST DUP1 DUP6 AND ISZERO PUSH2 0x5BE6 JUMPI SWAP2 DUP2 MUL SWAP2 JUMPDEST SWAP4 DUP5 SHR SWAP4 SWAP1 DUP1 MUL SWAP1 PUSH2 0x5B9F JUMP JUMPDEST POP SWAP3 POP SWAP3 SWAP1 POP JUMP JUMPDEST PUSH1 0x0 DUP3 PUSH2 0x5C0A JUMPI POP PUSH1 0x1 PUSH2 0x15DF JUMP JUMPDEST DUP2 PUSH2 0x5C17 JUMPI POP PUSH1 0x0 PUSH2 0x15DF JUMP JUMPDEST DUP2 PUSH1 0x1 DUP2 EQ PUSH2 0x5C2D JUMPI PUSH1 0x2 DUP2 EQ PUSH2 0x5C37 JUMPI PUSH2 0x5C53 JUMP JUMPDEST PUSH1 0x1 SWAP2 POP POP PUSH2 0x15DF JUMP JUMPDEST PUSH1 0xFF DUP5 GT ISZERO PUSH2 0x5C48 JUMPI PUSH2 0x5C48 PUSH2 0x5B6B JUMP JUMPDEST POP POP PUSH1 0x1 DUP3 SHL PUSH2 0x15DF JUMP JUMPDEST POP PUSH1 0x20 DUP4 LT PUSH2 0x133 DUP4 LT AND PUSH1 0x4E DUP5 LT PUSH1 0xB DUP5 LT AND OR ISZERO PUSH2 0x5C76 JUMPI POP DUP2 DUP2 EXP PUSH2 0x15DF JUMP JUMPDEST PUSH2 0x5C80 DUP4 DUP4 PUSH2 0x5B9A JUMP JUMPDEST DUP1 PUSH32 0xFFFFFFFFFFFFFFFFFFFFFFFFFFFFFFFFFFFFFFFFFFFFFFFFFFFFFFFFFFFFFFFF DIV DUP3 GT ISZERO PUSH2 0x5CB2 JUMPI PUSH2 0x5CB2 PUSH2 0x5B6B JUMP JUMPDEST MUL SWAP4 SWAP3 POP POP POP JUMP JUMPDEST PUSH1 0x0 PUSH2 0x3C22 PUSH1 0xFF DUP5 AND DUP4 PUSH2 0x5BFB JUMP JUMPDEST DUP2 DUP2 SUB DUP2 DUP2 GT ISZERO PUSH2 0x15DF JUMPI PUSH2 0x15DF PUSH2 0x5B6B JUMP JUMPDEST DUP1 DUP3 MUL DUP2 ISZERO DUP3 DUP3 DIV DUP5 EQ OR PUSH2 0x15DF JUMPI PUSH2 0x15DF PUSH2 0x5B6B JUMP JUMPDEST PUSH1 0x0 DUP3 PUSH2 0x5D29 JUMPI PUSH32 0x4E487B7100000000000000000000000000000000000000000000000000000000 PUSH1 0x0 MSTORE PUSH1 0x12 PUSH1 0x4 MSTORE PUSH1 0x24 PUSH1 0x0 REVERT JUMPDEST POP DIV SWAP1 JUMP JUMPDEST PUSH1 0x0 PUSH32 0xFFFFFFFFFFFFFFFFFFFFFFFFFFFFFFFFFFFFFFFFFFFFFFFFFFFFFFFFFFFFFFFF DUP3 SUB PUSH2 0x5D5F JUMPI PUSH2 0x5D5F PUSH2 0x5B6B JUMP JUMPDEST POP PUSH1 0x1 ADD SWAP1 JUMP JUMPDEST DUP1 DUP3 ADD DUP1 DUP3 GT ISZERO PUSH2 0x15DF JUMPI PUSH2 0x15DF PUSH2 0x5B6B JUMP JUMPDEST PUSH32 0x4E487B7100000000000000000000000000000000000000000000000000000000 PUSH1 0x0 MSTORE PUSH1 0x21 PUSH1 0x4 MSTORE PUSH1 0x24 PUSH1 0x0 REVERT JUMPDEST DUP3 DUP2 MSTORE PUSH1 0x40 PUSH1 0x20 DUP3 ADD MSTORE PUSH1 0x0 PUSH2 0x4D09 PUSH1 0x40 DUP4 ADD DUP5 PUSH2 0x5218 JUMP JUMPDEST PUSH1 0x0 DUP3 MLOAD PUSH2 0x5DD3 DUP2 DUP5 PUSH1 0x20 DUP8 ADD PUSH2 0x51F4 JUMP JUMPDEST SWAP2 SWAP1 SWAP2 ADD SWAP3 SWAP2 POP POP JUMP JUMPDEST PUSH1 0x0 PUSH1 0x20 DUP3 DUP5 SUB SLT ISZERO PUSH2 0x5DEF JUMPI PUSH1 0x0 DUP1 REVERT JUMPDEST POP MLOAD SWAP2 SWAP1 POP JUMP INVALID GASLIMIT MSTORE NUMBER ORIGIN ADDRESS GASPRICE KECCAK256 PUSH5 0x6563726561 PUSH20 0x656420616C6C6F77616E63652062656C6F77207A PUSH6 0x726FA2646970 PUSH7 0x7358221220FE57 0xDE SWAP7 0xB4 0x2E 0x2B 0xB2 PUSH2 0xC96A TLOAD RETURNDATACOPY BLOCKHASH SLOAD 0xA5 SLT 0xF6 PUSH21 0x1451E880E5EF9FD13E8F84CC7464736F6C63430008 NOT STOP CALLER "
		},
		"gasEstimates": {
			"creation": {
				"codeDepositCost": "4829000",
				"executionCost": "64015",
				"totalCost": "4893015"
			},
			"external": {
				"CANCEL_AUTHORIZATION_TYPEHASH()": "262",
				"DOMAIN_SEPARATOR()": "infinite",
				"MAX_UINT()": "284",
				"PERMIT_TYPEHASH()": "286",
				"RECEIVE_WITH_AUTHORIZATION_TYPEHASH()": "328",
				"TRANSFER_WITH_AUTHORIZATION_TYPEHASH()": "307",
				"allowance(address,address)": "infinite",
				"approve(address,uint256)": "25213",
				"authorizationState(address,bytes32)": "1435",
				"balanceOf(address)": "1365",
				"basisPointsRate()": "1106",
				"blacklist(address)": "23438",
				"blacklister()": "1103",
				"burn(uint256)": "infinite",
				"calcFee(uint256)": "infinite",
				"cancelAuthorization(address,bytes32,bytes)": "infinite",
				"cancelAuthorization(address,bytes32,uint8,bytes32,bytes32)": "infinite",
				"configureMinter(address,uint256)": "44554",
				"currency()": "infinite",
				"decimals()": "1126",
				"decreaseAllowance(address,uint256)": "infinite",
				"feeAccounts(address)": "1340",
				"increaseAllowance(address,uint256)": "26376",
				"initialize(string,string,string,uint8,uint256,address,address,address,address)": "infinite",
				"initializeV1WithFee(address[],address)": "infinite",
				"isBlacklisted(address)": "1397",
				"isMinter(address)": "1336",
				"isWhitelisted(address)": "1323",
				"masterMinter()": "1103",
				"maximumFee()": "1063",
				"minterAllowance(address)": "1326",
				"name()": "infinite",
				"nonces(address)": "1324",
				"owner()": "1153",
				"pause()": "infinite",
				"paused()": "1094",
				"pauser()": "1081",
				"permit(address,address,uint256,uint256,bytes)": "infinite",
				"permit(address,address,uint256,uint256,uint8,bytes32,bytes32)": "infinite",
				"receiveWithAuthorization(address,address,uint256,uint256,uint256,bytes32,bytes)": "infinite",
				"receiveWithAuthorization(address,address,uint256,uint256,uint256,bytes32,uint8,bytes32,bytes32)": "infinite",
				"removeMinter(address)": "infinite",
				"renounceOwnership()": "infinite",
				"setOwner(address)": "23720",
				"setParams(uint256,uint256)": "infinite",
				"symbol()": "infinite",
				"totalFee(address)": "1342",
				"totalSupply()": "1050",
				"transfer(address,uint256)": "infinite",
				"transferFrom(address,address,uint256)": "infinite",
				"transferOwnership(address)": "23694",
				"transferWithAuthorizationFee(address,address,address,uint256,uint256,uint256,bytes32,bytes)": "infinite",
				"transferWithAuthorizationFee(address,address,address,uint256,uint256,uint256,bytes32,uint8,bytes32,bytes32)": "infinite",
				"unBlacklist(address)": "23429",
				"unWhitelist(address)": "23404",
				"unpause()": "infinite",
				"updateBlacklister(address)": "23293",
				"updateMasterMinter(address)": "23249",
				"updatePauser(address)": "23294",
				"updateWhitelister(address)": "23295",
				"version()": "infinite",
				"whitelist(address)": "23462",
				"whitelister()": "1126"
			}
		},
		"methodIdentifiers": {
			"CANCEL_AUTHORIZATION_TYPEHASH()": "d9169487",
			"DOMAIN_SEPARATOR()": "3644e515",
			"MAX_UINT()": "e5b5019a",
			"PERMIT_TYPEHASH()": "30adf81f",
			"RECEIVE_WITH_AUTHORIZATION_TYPEHASH()": "7f2eecc3",
			"TRANSFER_WITH_AUTHORIZATION_TYPEHASH()": "a0cc6a68",
			"allowance(address,address)": "dd62ed3e",
			"approve(address,uint256)": "095ea7b3",
			"authorizationState(address,bytes32)": "e94a0102",
			"balanceOf(address)": "70a08231",
			"basisPointsRate()": "dd644f72",
			"blacklist(address)": "f9f92be4",
			"blacklister()": "bd102430",
			"burn(uint256)": "42966c68",
			"calcFee(uint256)": "75dc7d8c",
			"cancelAuthorization(address,bytes32,bytes)": "b7b72899",
			"cancelAuthorization(address,bytes32,uint8,bytes32,bytes32)": "5a049a70",
			"configureMinter(address,uint256)": "4e44d956",
			"currency()": "e5a6b10f",
			"decimals()": "313ce567",
			"decreaseAllowance(address,uint256)": "a457c2d7",
			"feeAccounts(address)": "e2e71f93",
			"increaseAllowance(address,uint256)": "39509351",
			"initialize(string,string,string,uint8,uint256,address,address,address,address)": "94d81d8d",
			"initializeV1WithFee(address[],address)": "4a6cc18f",
			"isBlacklisted(address)": "fe575a87",
			"isMinter(address)": "aa271e1a",
			"isWhitelisted(address)": "3af32abf",
			"masterMinter()": "35d99f35",
			"maximumFee()": "35390714",
			"minterAllowance(address)": "8a6db9c3",
			"name()": "06fdde03",
			"nonces(address)": "7ecebe00",
			"owner()": "8da5cb5b",
			"pause()": "8456cb59",
			"paused()": "5c975abb",
			"pauser()": "9fd0506d",
			"permit(address,address,uint256,uint256,bytes)": "9fd5a6cf",
			"permit(address,address,uint256,uint256,uint8,bytes32,bytes32)": "d505accf",
			"receiveWithAuthorization(address,address,uint256,uint256,uint256,bytes32,bytes)": "88b7ab63",
			"receiveWithAuthorization(address,address,uint256,uint256,uint256,bytes32,uint8,bytes32,bytes32)": "ef55bec6",
			"removeMinter(address)": "3092afd5",
			"renounceOwnership()": "715018a6",
			"setOwner(address)": "13af4035",
			"setParams(uint256,uint256)": "c0324c77",
			"symbol()": "95d89b41",
			"totalFee(address)": "7a4fda3d",
			"totalSupply()": "18160ddd",
			"transfer(address,uint256)": "a9059cbb",
			"transferFrom(address,address,uint256)": "23b872dd",
			"transferOwnership(address)": "f2fde38b",
			"transferWithAuthorizationFee(address,address,address,uint256,uint256,uint256,bytes32,bytes)": "9801ac50",
			"transferWithAuthorizationFee(address,address,address,uint256,uint256,uint256,bytes32,uint8,bytes32,bytes32)": "315f2746",
			"unBlacklist(address)": "1a895266",
			"unWhitelist(address)": "f21af007",
			"unpause()": "3f4ba83a",
			"updateBlacklister(address)": "ad38bf22",
			"updateMasterMinter(address)": "aa20e1e4",
			"updatePauser(address)": "554bab3c",
			"updateWhitelister(address)": "458b35ee",
			"version()": "54fd4d50",
			"whitelist(address)": "9b19251a",
			"whitelister()": "22758a4a"
		}
	},
	"abi": [
		{
			"inputs": [
				{
					"internalType": "address",
					"name": "owner",
					"type": "address"
				}
			],
			"name": "OwnableInvalidOwner",
			"type": "error"
		},
		{
			"inputs": [
				{
					"internalType": "address",
					"name": "account",
					"type": "address"
				}
			],
			"name": "OwnableUnauthorizedAccount",
			"type": "error"
		},
		{
			"anonymous": false,
			"inputs": [
				{
					"indexed": true,
					"internalType": "address",
					"name": "owner",
					"type": "address"
				},
				{
					"indexed": true,
					"internalType": "address",
					"name": "spender",
					"type": "address"
				},
				{
					"indexed": false,
					"internalType": "uint256",
					"name": "value",
					"type": "uint256"
				}
			],
			"name": "Approval",
			"type": "event"
		},
		{
			"anonymous": false,
			"inputs": [
				{
					"indexed": true,
					"internalType": "address",
					"name": "authorizer",
					"type": "address"
				},
				{
					"indexed": true,
					"internalType": "bytes32",
					"name": "nonce",
					"type": "bytes32"
				}
			],
			"name": "AuthorizationCanceled",
			"type": "event"
		},
		{
			"anonymous": false,
			"inputs": [
				{
					"indexed": true,
					"internalType": "address",
					"name": "authorizer",
					"type": "address"
				},
				{
					"indexed": true,
					"internalType": "bytes32",
					"name": "nonce",
					"type": "bytes32"
				}
			],
			"name": "AuthorizationUsed",
			"type": "event"
		},
		{
			"anonymous": false,
			"inputs": [
				{
					"indexed": true,
					"internalType": "address",
					"name": "_account",
					"type": "address"
				}
			],
			"name": "Blacklisted",
			"type": "event"
		},
		{
			"anonymous": false,
			"inputs": [
				{
					"indexed": true,
					"internalType": "address",
					"name": "newBlacklister",
					"type": "address"
				}
			],
			"name": "BlacklisterChanged",
			"type": "event"
		},
		{
			"anonymous": false,
			"inputs": [
				{
					"indexed": true,
					"internalType": "address",
					"name": "burner",
					"type": "address"
				},
				{
					"indexed": false,
					"internalType": "uint256",
					"name": "amount",
					"type": "uint256"
				}
			],
			"name": "Burn",
			"type": "event"
		},
		{
			"anonymous": false,
			"inputs": [
				{
					"indexed": true,
					"internalType": "address",
					"name": "newMasterMinter",
					"type": "address"
				}
			],
			"name": "MasterMinterChanged",
			"type": "event"
		},
		{
			"anonymous": false,
			"inputs": [
				{
					"indexed": true,
					"internalType": "address",
					"name": "minter",
					"type": "address"
				},
				{
					"indexed": true,
					"internalType": "address",
					"name": "to",
					"type": "address"
				},
				{
					"indexed": false,
					"internalType": "uint256",
					"name": "amount",
					"type": "uint256"
				}
			],
			"name": "Mint",
			"type": "event"
		},
		{
			"anonymous": false,
			"inputs": [
				{
					"indexed": true,
					"internalType": "address",
					"name": "minter",
					"type": "address"
				},
				{
					"indexed": false,
					"internalType": "uint256",
					"name": "minterAllowedAmount",
					"type": "uint256"
				}
			],
			"name": "MinterConfigured",
			"type": "event"
		},
		{
			"anonymous": false,
			"inputs": [
				{
					"indexed": true,
					"internalType": "address",
					"name": "oldMinter",
					"type": "address"
				}
			],
			"name": "MinterRemoved",
			"type": "event"
		},
		{
			"anonymous": false,
			"inputs": [
				{
					"indexed": true,
					"internalType": "address",
					"name": "previousOwner",
					"type": "address"
				},
				{
					"indexed": true,
					"internalType": "address",
					"name": "newOwner",
					"type": "address"
				}
			],
			"name": "OwnershipTransferred",
			"type": "event"
		},
		{
			"anonymous": false,
			"inputs": [
				{
					"indexed": false,
					"internalType": "uint256",
					"name": "feeBasisPoints",
					"type": "uint256"
				},
				{
					"indexed": false,
					"internalType": "uint256",
					"name": "maxFee",
					"type": "uint256"
				}
			],
			"name": "Params",
			"type": "event"
		},
		{
			"anonymous": false,
			"inputs": [],
			"name": "Pause",
			"type": "event"
		},
		{
			"anonymous": false,
			"inputs": [
				{
					"indexed": false,
					"internalType": "address",
					"name": "account",
					"type": "address"
				}
			],
			"name": "Paused",
			"type": "event"
		},
		{
			"anonymous": false,
			"inputs": [
				{
					"indexed": true,
					"internalType": "address",
					"name": "newAddress",
					"type": "address"
				}
			],
			"name": "PauserChanged",
			"type": "event"
		},
		{
			"anonymous": false,
			"inputs": [
				{
					"indexed": true,
					"internalType": "address",
					"name": "from",
					"type": "address"
				},
				{
					"indexed": true,
					"internalType": "address",
					"name": "to",
					"type": "address"
				},
				{
					"indexed": false,
					"internalType": "uint256",
					"name": "value",
					"type": "uint256"
				}
			],
			"name": "Transfer",
			"type": "event"
		},
		{
			"anonymous": false,
			"inputs": [
				{
					"indexed": true,
					"internalType": "address",
					"name": "_account",
					"type": "address"
				}
			],
			"name": "UnBlacklisted",
			"type": "event"
		},
		{
			"anonymous": false,
			"inputs": [
				{
					"indexed": true,
					"internalType": "address",
					"name": "_account",
					"type": "address"
				}
			],
			"name": "UnWhitelisted",
			"type": "event"
		},
		{
			"anonymous": false,
			"inputs": [],
			"name": "Unpause",
			"type": "event"
		},
		{
			"anonymous": false,
			"inputs": [
				{
					"indexed": false,
					"internalType": "address",
					"name": "account",
					"type": "address"
				}
			],
			"name": "Unpaused",
			"type": "event"
		},
		{
			"anonymous": false,
			"inputs": [
				{
					"indexed": true,
					"internalType": "address",
					"name": "_account",
					"type": "address"
				}
			],
			"name": "Whitelisted",
			"type": "event"
		},
		{
			"anonymous": false,
			"inputs": [
				{
					"indexed": true,
					"internalType": "address",
					"name": "newWhitelister",
					"type": "address"
				}
			],
			"name": "WhitelisterChanged",
			"type": "event"
		},
		{
			"inputs": [],
			"name": "CANCEL_AUTHORIZATION_TYPEHASH",
			"outputs": [
				{
					"internalType": "bytes32",
					"name": "",
					"type": "bytes32"
				}
			],
			"stateMutability": "view",
			"type": "function"
		},
		{
			"inputs": [],
			"name": "DOMAIN_SEPARATOR",
			"outputs": [
				{
					"internalType": "bytes32",
					"name": "",
					"type": "bytes32"
				}
			],
			"stateMutability": "view",
			"type": "function"
		},
		{
			"inputs": [],
			"name": "MAX_UINT",
			"outputs": [
				{
					"internalType": "uint256",
					"name": "",
					"type": "uint256"
				}
			],
			"stateMutability": "view",
			"type": "function"
		},
		{
			"inputs": [],
			"name": "PERMIT_TYPEHASH",
			"outputs": [
				{
					"internalType": "bytes32",
					"name": "",
					"type": "bytes32"
				}
			],
			"stateMutability": "view",
			"type": "function"
		},
		{
			"inputs": [],
			"name": "RECEIVE_WITH_AUTHORIZATION_TYPEHASH",
			"outputs": [
				{
					"internalType": "bytes32",
					"name": "",
					"type": "bytes32"
				}
			],
			"stateMutability": "view",
			"type": "function"
		},
		{
			"inputs": [],
			"name": "TRANSFER_WITH_AUTHORIZATION_TYPEHASH",
			"outputs": [
				{
					"internalType": "bytes32",
					"name": "",
					"type": "bytes32"
				}
			],
			"stateMutability": "view",
			"type": "function"
		},
		{
			"inputs": [
				{
					"internalType": "address",
					"name": "owner",
					"type": "address"
				},
				{
					"internalType": "address",
					"name": "spender",
					"type": "address"
				}
			],
			"name": "allowance",
			"outputs": [
				{
					"internalType": "uint256",
					"name": "",
					"type": "uint256"
				}
			],
			"stateMutability": "view",
			"type": "function"
		},
		{
			"inputs": [
				{
					"internalType": "address",
					"name": "spender",
					"type": "address"
				},
				{
					"internalType": "uint256",
					"name": "value",
					"type": "uint256"
				}
			],
			"name": "approve",
			"outputs": [
				{
					"internalType": "bool",
					"name": "",
					"type": "bool"
				}
			],
			"stateMutability": "nonpayable",
			"type": "function"
		},
		{
			"inputs": [
				{
					"internalType": "address",
					"name": "authorizer",
					"type": "address"
				},
				{
					"internalType": "bytes32",
					"name": "nonce",
					"type": "bytes32"
				}
			],
			"name": "authorizationState",
			"outputs": [
				{
					"internalType": "bool",
					"name": "",
					"type": "bool"
				}
			],
			"stateMutability": "view",
			"type": "function"
		},
		{
			"inputs": [
				{
					"internalType": "address",
					"name": "account",
					"type": "address"
				}
			],
			"name": "balanceOf",
			"outputs": [
				{
					"internalType": "uint256",
					"name": "",
					"type": "uint256"
				}
			],
			"stateMutability": "view",
			"type": "function"
		},
		{
			"inputs": [],
			"name": "basisPointsRate",
			"outputs": [
				{
					"internalType": "uint256",
					"name": "",
					"type": "uint256"
				}
			],
			"stateMutability": "view",
			"type": "function"
		},
		{
			"inputs": [
				{
					"internalType": "address",
					"name": "_account",
					"type": "address"
				}
			],
			"name": "blacklist",
			"outputs": [],
			"stateMutability": "nonpayable",
			"type": "function"
		},
		{
			"inputs": [],
			"name": "blacklister",
			"outputs": [
				{
					"internalType": "address",
					"name": "",
					"type": "address"
				}
			],
			"stateMutability": "view",
			"type": "function"
		},
		{
			"inputs": [
				{
					"internalType": "uint256",
					"name": "_amount",
					"type": "uint256"
				}
			],
			"name": "burn",
			"outputs": [],
			"stateMutability": "nonpayable",
			"type": "function"
		},
		{
			"inputs": [
				{
					"internalType": "uint256",
					"name": "_value",
					"type": "uint256"
				}
			],
			"name": "calcFee",
			"outputs": [
				{
					"internalType": "uint256",
					"name": "",
					"type": "uint256"
				}
			],
			"stateMutability": "view",
			"type": "function"
		},
		{
			"inputs": [
				{
					"internalType": "address",
					"name": "authorizer",
					"type": "address"
				},
				{
					"internalType": "bytes32",
					"name": "nonce",
					"type": "bytes32"
				},
				{
					"internalType": "uint8",
					"name": "v",
					"type": "uint8"
				},
				{
					"internalType": "bytes32",
					"name": "r",
					"type": "bytes32"
				},
				{
					"internalType": "bytes32",
					"name": "s",
					"type": "bytes32"
				}
			],
			"name": "cancelAuthorization",
			"outputs": [],
			"stateMutability": "nonpayable",
			"type": "function"
		},
		{
			"inputs": [
				{
					"internalType": "address",
					"name": "authorizer",
					"type": "address"
				},
				{
					"internalType": "bytes32",
					"name": "nonce",
					"type": "bytes32"
				},
				{
					"internalType": "bytes",
					"name": "signature",
					"type": "bytes"
				}
			],
			"name": "cancelAuthorization",
			"outputs": [],
			"stateMutability": "nonpayable",
			"type": "function"
		},
		{
			"inputs": [
				{
					"internalType": "address",
					"name": "minter",
					"type": "address"
				},
				{
					"internalType": "uint256",
					"name": "minterAllowedAmount",
					"type": "uint256"
				}
			],
			"name": "configureMinter",
			"outputs": [
				{
					"internalType": "bool",
					"name": "",
					"type": "bool"
				}
			],
			"stateMutability": "nonpayable",
			"type": "function"
		},
		{
			"inputs": [],
			"name": "currency",
			"outputs": [
				{
					"internalType": "string",
					"name": "",
					"type": "string"
				}
			],
			"stateMutability": "view",
			"type": "function"
		},
		{
			"inputs": [],
			"name": "decimals",
			"outputs": [
				{
					"internalType": "uint8",
					"name": "",
					"type": "uint8"
				}
			],
			"stateMutability": "view",
			"type": "function"
		},
		{
			"inputs": [
				{
					"internalType": "address",
					"name": "spender",
					"type": "address"
				},
				{
					"internalType": "uint256",
					"name": "decrement",
					"type": "uint256"
				}
			],
			"name": "decreaseAllowance",
			"outputs": [
				{
					"internalType": "bool",
					"name": "",
					"type": "bool"
				}
			],
			"stateMutability": "nonpayable",
			"type": "function"
		},
		{
			"inputs": [
				{
					"internalType": "address",
					"name": "",
					"type": "address"
				}
			],
			"name": "feeAccounts",
			"outputs": [
				{
					"internalType": "uint256",
					"name": "",
					"type": "uint256"
				}
			],
			"stateMutability": "view",
			"type": "function"
		},
		{
			"inputs": [
				{
					"internalType": "address",
					"name": "spender",
					"type": "address"
				},
				{
					"internalType": "uint256",
					"name": "increment",
					"type": "uint256"
				}
			],
			"name": "increaseAllowance",
			"outputs": [
				{
					"internalType": "bool",
					"name": "",
					"type": "bool"
				}
			],
			"stateMutability": "nonpayable",
			"type": "function"
		},
		{
			"inputs": [
				{
					"internalType": "string",
					"name": "tokenName",
					"type": "string"
				},
				{
					"internalType": "string",
					"name": "tokenSymbol",
					"type": "string"
				},
				{
					"internalType": "string",
					"name": "tokenCurrency",
					"type": "string"
				},
				{
					"internalType": "uint8",
					"name": "tokenDecimals",
					"type": "uint8"
				},
				{
					"internalType": "uint256",
					"name": "tokenSupply",
					"type": "uint256"
				},
				{
					"internalType": "address",
					"name": "newMasterMinter",
					"type": "address"
				},
				{
					"internalType": "address",
					"name": "newPauser",
					"type": "address"
				},
				{
					"internalType": "address",
					"name": "newBlacklister",
					"type": "address"
				},
				{
					"internalType": "address",
					"name": "newOwner",
					"type": "address"
				}
			],
			"name": "initialize",
			"outputs": [],
			"stateMutability": "nonpayable",
			"type": "function"
		},
		{
			"inputs": [
				{
					"internalType": "address[]",
					"name": "accountsToBlacklist",
					"type": "address[]"
				},
				{
					"internalType": "address",
					"name": "lostAndFound",
					"type": "address"
				}
			],
			"name": "initializeV1WithFee",
			"outputs": [],
			"stateMutability": "nonpayable",
			"type": "function"
		},
		{
			"inputs": [
				{
					"internalType": "address",
					"name": "_account",
					"type": "address"
				}
			],
			"name": "isBlacklisted",
			"outputs": [
				{
					"internalType": "bool",
					"name": "",
					"type": "bool"
				}
			],
			"stateMutability": "view",
			"type": "function"
		},
		{
			"inputs": [
				{
					"internalType": "address",
					"name": "account",
					"type": "address"
				}
			],
			"name": "isMinter",
			"outputs": [
				{
					"internalType": "bool",
					"name": "",
					"type": "bool"
				}
			],
			"stateMutability": "view",
			"type": "function"
		},
		{
			"inputs": [
				{
					"internalType": "address",
					"name": "_account",
					"type": "address"
				}
			],
			"name": "isWhitelisted",
			"outputs": [
				{
					"internalType": "bool",
					"name": "",
					"type": "bool"
				}
			],
			"stateMutability": "view",
			"type": "function"
		},
		{
			"inputs": [],
			"name": "masterMinter",
			"outputs": [
				{
					"internalType": "address",
					"name": "",
					"type": "address"
				}
			],
			"stateMutability": "view",
			"type": "function"
		},
		{
			"inputs": [],
			"name": "maximumFee",
			"outputs": [
				{
					"internalType": "uint256",
					"name": "",
					"type": "uint256"
				}
			],
			"stateMutability": "view",
			"type": "function"
		},
		{
			"inputs": [
				{
					"internalType": "address",
					"name": "minter",
					"type": "address"
				}
			],
			"name": "minterAllowance",
			"outputs": [
				{
					"internalType": "uint256",
					"name": "",
					"type": "uint256"
				}
			],
			"stateMutability": "view",
			"type": "function"
		},
		{
			"inputs": [],
			"name": "name",
			"outputs": [
				{
					"internalType": "string",
					"name": "",
					"type": "string"
				}
			],
			"stateMutability": "view",
			"type": "function"
		},
		{
			"inputs": [
				{
					"internalType": "address",
					"name": "owner",
					"type": "address"
				}
			],
			"name": "nonces",
			"outputs": [
				{
					"internalType": "uint256",
					"name": "",
					"type": "uint256"
				}
			],
			"stateMutability": "view",
			"type": "function"
		},
		{
			"inputs": [],
			"name": "owner",
			"outputs": [
				{
					"internalType": "address",
					"name": "",
					"type": "address"
				}
			],
			"stateMutability": "view",
			"type": "function"
		},
		{
			"inputs": [],
			"name": "pause",
			"outputs": [],
			"stateMutability": "nonpayable",
			"type": "function"
		},
		{
			"inputs": [],
			"name": "paused",
			"outputs": [
				{
					"internalType": "bool",
					"name": "",
					"type": "bool"
				}
			],
			"stateMutability": "view",
			"type": "function"
		},
		{
			"inputs": [],
			"name": "pauser",
			"outputs": [
				{
					"internalType": "address",
					"name": "",
					"type": "address"
				}
			],
			"stateMutability": "view",
			"type": "function"
		},
		{
			"inputs": [
				{
					"internalType": "address",
					"name": "owner",
					"type": "address"
				},
				{
					"internalType": "address",
					"name": "spender",
					"type": "address"
				},
				{
					"internalType": "uint256",
					"name": "value",
					"type": "uint256"
				},
				{
					"internalType": "uint256",
					"name": "deadline",
					"type": "uint256"
				},
				{
					"internalType": "bytes",
					"name": "signature",
					"type": "bytes"
				}
			],
			"name": "permit",
			"outputs": [],
			"stateMutability": "nonpayable",
			"type": "function"
		},
		{
			"inputs": [
				{
					"internalType": "address",
					"name": "owner",
					"type": "address"
				},
				{
					"internalType": "address",
					"name": "spender",
					"type": "address"
				},
				{
					"internalType": "uint256",
					"name": "value",
					"type": "uint256"
				},
				{
					"internalType": "uint256",
					"name": "deadline",
					"type": "uint256"
				},
				{
					"internalType": "uint8",
					"name": "v",
					"type": "uint8"
				},
				{
					"internalType": "bytes32",
					"name": "r",
					"type": "bytes32"
				},
				{
					"internalType": "bytes32",
					"name": "s",
					"type": "bytes32"
				}
			],
			"name": "permit",
			"outputs": [],
			"stateMutability": "nonpayable",
			"type": "function"
		},
		{
			"inputs": [
				{
					"internalType": "address",
					"name": "from",
					"type": "address"
				},
				{
					"internalType": "address",
					"name": "to",
					"type": "address"
				},
				{
					"internalType": "uint256",
					"name": "value",
					"type": "uint256"
				},
				{
					"internalType": "uint256",
					"name": "validAfter",
					"type": "uint256"
				},
				{
					"internalType": "uint256",
					"name": "validBefore",
					"type": "uint256"
				},
				{
					"internalType": "bytes32",
					"name": "nonce",
					"type": "bytes32"
				},
				{
					"internalType": "bytes",
					"name": "signature",
					"type": "bytes"
				}
			],
			"name": "receiveWithAuthorization",
			"outputs": [],
			"stateMutability": "nonpayable",
			"type": "function"
		},
		{
			"inputs": [
				{
					"internalType": "address",
					"name": "from",
					"type": "address"
				},
				{
					"internalType": "address",
					"name": "to",
					"type": "address"
				},
				{
					"internalType": "uint256",
					"name": "value",
					"type": "uint256"
				},
				{
					"internalType": "uint256",
					"name": "validAfter",
					"type": "uint256"
				},
				{
					"internalType": "uint256",
					"name": "validBefore",
					"type": "uint256"
				},
				{
					"internalType": "bytes32",
					"name": "nonce",
					"type": "bytes32"
				},
				{
					"internalType": "uint8",
					"name": "v",
					"type": "uint8"
				},
				{
					"internalType": "bytes32",
					"name": "r",
					"type": "bytes32"
				},
				{
					"internalType": "bytes32",
					"name": "s",
					"type": "bytes32"
				}
			],
			"name": "receiveWithAuthorization",
			"outputs": [],
			"stateMutability": "nonpayable",
			"type": "function"
		},
		{
			"inputs": [
				{
					"internalType": "address",
					"name": "minter",
					"type": "address"
				}
			],
			"name": "removeMinter",
			"outputs": [
				{
					"internalType": "bool",
					"name": "",
					"type": "bool"
				}
			],
			"stateMutability": "nonpayable",
			"type": "function"
		},
		{
			"inputs": [],
			"name": "renounceOwnership",
			"outputs": [],
			"stateMutability": "nonpayable",
			"type": "function"
		},
		{
			"inputs": [
				{
					"internalType": "address",
					"name": "newOwner",
					"type": "address"
				}
			],
			"name": "setOwner",
			"outputs": [],
			"stateMutability": "nonpayable",
			"type": "function"
		},
		{
			"inputs": [
				{
					"internalType": "uint256",
					"name": "newBasisPoints",
					"type": "uint256"
				},
				{
					"internalType": "uint256",
					"name": "newMaxFee",
					"type": "uint256"
				}
			],
			"name": "setParams",
			"outputs": [],
			"stateMutability": "nonpayable",
			"type": "function"
		},
		{
			"inputs": [],
			"name": "symbol",
			"outputs": [
				{
					"internalType": "string",
					"name": "",
					"type": "string"
				}
			],
			"stateMutability": "view",
			"type": "function"
		},
		{
			"inputs": [
				{
					"internalType": "address",
					"name": "_account",
					"type": "address"
				}
			],
			"name": "totalFee",
			"outputs": [
				{
					"internalType": "uint256",
					"name": "",
					"type": "uint256"
				}
			],
			"stateMutability": "view",
			"type": "function"
		},
		{
			"inputs": [],
			"name": "totalSupply",
			"outputs": [
				{
					"internalType": "uint256",
					"name": "",
					"type": "uint256"
				}
			],
			"stateMutability": "view",
			"type": "function"
		},
		{
			"inputs": [
				{
					"internalType": "address",
					"name": "to",
					"type": "address"
				},
				{
					"internalType": "uint256",
					"name": "value",
					"type": "uint256"
				}
			],
			"name": "transfer",
			"outputs": [
				{
					"internalType": "bool",
					"name": "",
					"type": "bool"
				}
			],
			"stateMutability": "nonpayable",
			"type": "function"
		},
		{
			"inputs": [
				{
					"internalType": "address",
					"name": "from",
					"type": "address"
				},
				{
					"internalType": "address",
					"name": "to",
					"type": "address"
				},
				{
					"internalType": "uint256",
					"name": "value",
					"type": "uint256"
				}
			],
			"name": "transferFrom",
			"outputs": [
				{
					"internalType": "bool",
					"name": "",
					"type": "bool"
				}
			],
			"stateMutability": "nonpayable",
			"type": "function"
		},
		{
			"inputs": [
				{
					"internalType": "address",
					"name": "newOwner",
					"type": "address"
				}
			],
			"name": "transferOwnership",
			"outputs": [],
			"stateMutability": "nonpayable",
			"type": "function"
		},
		{
			"inputs": [
				{
					"internalType": "address",
					"name": "feeAccount",
					"type": "address"
				},
				{
					"internalType": "address",
					"name": "from",
					"type": "address"
				},
				{
					"internalType": "address",
					"name": "to",
					"type": "address"
				},
				{
					"internalType": "uint256",
					"name": "value",
					"type": "uint256"
				},
				{
					"internalType": "uint256",
					"name": "validAfter",
					"type": "uint256"
				},
				{
					"internalType": "uint256",
					"name": "validBefore",
					"type": "uint256"
				},
				{
					"internalType": "bytes32",
					"name": "nonce",
					"type": "bytes32"
				},
				{
					"internalType": "uint8",
					"name": "v",
					"type": "uint8"
				},
				{
					"internalType": "bytes32",
					"name": "r",
					"type": "bytes32"
				},
				{
					"internalType": "bytes32",
					"name": "s",
					"type": "bytes32"
				}
			],
			"name": "transferWithAuthorizationFee",
			"outputs": [],
			"stateMutability": "nonpayable",
			"type": "function"
		},
		{
			"inputs": [
				{
					"internalType": "address",
					"name": "feeAccount",
					"type": "address"
				},
				{
					"internalType": "address",
					"name": "from",
					"type": "address"
				},
				{
					"internalType": "address",
					"name": "to",
					"type": "address"
				},
				{
					"internalType": "uint256",
					"name": "value",
					"type": "uint256"
				},
				{
					"internalType": "uint256",
					"name": "validAfter",
					"type": "uint256"
				},
				{
					"internalType": "uint256",
					"name": "validBefore",
					"type": "uint256"
				},
				{
					"internalType": "bytes32",
					"name": "nonce",
					"type": "bytes32"
				},
				{
					"internalType": "bytes",
					"name": "signature",
					"type": "bytes"
				}
			],
			"name": "transferWithAuthorizationFee",
			"outputs": [],
			"stateMutability": "nonpayable",
			"type": "function"
		},
		{
			"inputs": [
				{
					"internalType": "address",
					"name": "_account",
					"type": "address"
				}
			],
			"name": "unBlacklist",
			"outputs": [],
			"stateMutability": "nonpayable",
			"type": "function"
		},
		{
			"inputs": [
				{
					"internalType": "address",
					"name": "_account",
					"type": "address"
				}
			],
			"name": "unWhitelist",
			"outputs": [],
			"stateMutability": "nonpayable",
			"type": "function"
		},
		{
			"inputs": [],
			"name": "unpause",
			"outputs": [],
			"stateMutability": "nonpayable",
			"type": "function"
		},
		{
			"inputs": [
				{
					"internalType": "address",
					"name": "_newBlacklister",
					"type": "address"
				}
			],
			"name": "updateBlacklister",
			"outputs": [],
			"stateMutability": "nonpayable",
			"type": "function"
		},
		{
			"inputs": [
				{
					"internalType": "address",
					"name": "_newMasterMinter",
					"type": "address"
				}
			],
			"name": "updateMasterMinter",
			"outputs": [],
			"stateMutability": "nonpayable",
			"type": "function"
		},
		{
			"inputs": [
				{
					"internalType": "address",
					"name": "_newPauser",
					"type": "address"
				}
			],
			"name": "updatePauser",
			"outputs": [],
			"stateMutability": "nonpayable",
			"type": "function"
		},
		{
			"inputs": [
				{
					"internalType": "address",
					"name": "_newWhitelister",
					"type": "address"
				}
			],
			"name": "updateWhitelister",
			"outputs": [],
			"stateMutability": "nonpayable",
			"type": "function"
		},
		{
			"inputs": [],
			"name": "version",
			"outputs": [
				{
					"internalType": "string",
					"name": "",
					"type": "string"
				}
			],
			"stateMutability": "pure",
			"type": "function"
		},
		{
			"inputs": [
				{
					"internalType": "address",
					"name": "_account",
					"type": "address"
				}
			],
			"name": "whitelist",
			"outputs": [],
			"stateMutability": "nonpayable",
			"type": "function"
		},
		{
			"inputs": [],
			"name": "whitelister",
			"outputs": [
				{
					"internalType": "address",
					"name": "",
					"type": "address"
				}
			],
			"stateMutability": "view",
			"type": "function"
		}
	]
}