{"abi":[{"type":"function","name":"DOMAIN_SEPARATOR","inputs":[],"outputs":[{"name":"","type":"bytes32","internalType":"bytes32"}],"stateMutability":"view"},{"type":"function","name":"allowance","inputs":[{"name":"owner","type":"address","internalType":"address"},{"name":"spender","type":"address","internalType":"address"}],"outputs":[{"name":"","type":"uint256","internalType":"uint256"}],"stateMutability":"view"},{"type":"function","name":"approve","inputs":[{"name":"spender","type":"address","internalType":"address"},{"name":"amount","type":"uint256","internalType":"uint256"}],"outputs":[{"name":"","type":"bool","internalType":"bool"}],"stateMutability":"nonpayable"},{"type":"function","name":"approveAndCall","inputs":[{"name":"spender","type":"address","internalType":"address"},{"name":"amount","type":"uint256","internalType":"uint256"},{"name":"data","type":"bytes","internalType":"bytes"}],"outputs":[{"name":"","type":"bool","internalType":"bool"}],"stateMutability":"nonpayable"},{"type":"function","name":"balanceOf","inputs":[{"name":"account","type":"address","internalType":"address"}],"outputs":[{"name":"","type":"uint256","internalType":"uint256"}],"stateMutability":"view"},{"type":"function","name":"batchTransfer","inputs":[{"name":"recipients","type":"address[]","internalType":"address[]"},{"name":"amounts","type":"uint256[]","internalType":"uint256[]"}],"outputs":[],"stateMutability":"nonpayable"},{"type":"function","name":"currency","inputs":[],"outputs":[{"name":"","type":"string","internalType":"string"}],"stateMutability":"view"},{"type":"function","name":"decimals","inputs":[],"outputs":[{"name":"","type":"uint8","internalType":"uint8"}],"stateMutability":"view"},{"type":"function","name":"decreaseAllowance","inputs":[{"name":"spender","type":"address","internalType":"address"},{"name":"subtractedValue","type":"uint256","internalType":"uint256"}],"outputs":[{"name":"","type":"bool","internalType":"bool"}],"stateMutability":"nonpayable"},{"type":"function","name":"eip712Domain","inputs":[],"outputs":[{"name":"fields","type":"bytes1","internalType":"bytes1"},{"name":"name","type":"string","internalType":"string"},{"name":"version","type":"string","internalType":"string"},{"name":"chainId","type":"uint256","internalType":"uint256"},{"name":"verifyingContract","type":"address","internalType":"address"},{"name":"salt","type":"bytes32","internalType":"bytes32"},{"name":"extensions","type":"uint256[]","internalType":"uint256[]"}],"stateMutability":"view"},{"type":"function","name":"increaseAllowance","inputs":[{"name":"spender","type":"address","internalType":"address"},{"name":"addedValue","type":"uint256","internalType":"uint256"}],"outputs":[{"name":"","type":"bool","internalType":"bool"}],"stateMutability":"nonpayable"},{"type":"function","name":"initialize","inputs":[{"name":"name_","type":"string","internalType":"string"},{"name":"symbol_","type":"string","internalType":"string"}],"outputs":[],"stateMutability":"nonpayable"},{"type":"function","name":"mint","inputs":[{"name":"to","type":"address","internalType":"address"},{"name":"amount","type":"uint256","internalType":"uint256"}],"outputs":[],"stateMutability":"nonpayable"},{"type":"function","name":"name","inputs":[],"outputs":[{"name":"","type":"string","internalType":"string"}],"stateMutability":"view"},{"type":"function","name":"nonces","inputs":[{"name":"owner","type":"address","internalType":"address"}],"outputs":[{"name":"","type":"uint256","internalType":"uint256"}],"stateMutability":"view"},{"type":"function","name":"owner","inputs":[],"outputs":[{"name":"","type":"address","internalType":"address"}],"stateMutability":"view"},{"type":"function","name":"paused","inputs":[],"outputs":[{"name":"","type":"bool","internalType":"bool"}],"stateMutability":"view"},{"type":"function","name":"permit","inputs":[{"name":"owner","type":"address","internalType":"address"},{"name":"spender","type":"address","internalType":"address"},{"name":"value","type":"uint256","internalType":"uint256"},{"name":"deadline","type":"uint256","internalType":"uint256"},{"name":"v","type":"uint8","internalType":"uint8"},{"name":"r","type":"bytes32","internalType":"bytes32"},{"name":"s","type":"bytes32","internalType":"bytes32"}],"outputs":[],"stateMutability":"nonpayable"},{"type":"function","name":"renounceOwnership","inputs":[],"outputs":[],"stateMutability":"nonpayable"},{"type":"function","name":"symbol","inputs":[],"outputs":[{"name":"","type":"string","internalType":"string"}],"stateMutability":"view"},{"type":"function","name":"totalSupply","inputs":[],"outputs":[{"name":"","type":"uint256","internalType":"uint256"}],"stateMutability":"view"},{"type":"function","name":"transfer","inputs":[{"name":"to","type":"address","internalType":"address"},{"name":"amount","type":"uint256","internalType":"uint256"}],"outputs":[{"name":"","type":"bool","internalType":"bool"}],"stateMutability":"nonpayable"},{"type":"function","name":"transferFrom","inputs":[{"name":"from","type":"address","internalType":"address"},{"name":"to","type":"address","internalType":"address"},{"name":"amount","type":"uint256","internalType":"uint256"}],"outputs":[{"name":"","type":"bool","internalType":"bool"}],"stateMutability":"nonpayable"},{"type":"function","name":"transferOwnership","inputs":[{"name":"newOwner","type":"address","internalType":"address"}],"outputs":[],"stateMutability":"nonpayable"},{"type":"function","name":"updateCurrency","inputs":[{"name":"_currency","type":"string","internalType":"string"}],"outputs":[],"stateMutability":"nonpayable"},{"type":"function","name":"updateDecimals","inputs":[{"name":"upDecimals","type":"uint8","internalType":"uint8"}],"outputs":[{"name":"","type":"bool","internalType":"bool"}],"stateMutability":"nonpayable"},{"type":"event","name":"Approval","inputs":[{"name":"owner","type":"address","indexed":true,"internalType":"address"},{"name":"spender","type":"address","indexed":true,"internalType":"address"},{"name":"value","type":"uint256","indexed":false,"internalType":"uint256"}],"anonymous":false},{"type":"event","name":"EIP712DomainChanged","inputs":[],"anonymous":false},{"type":"event","name":"Initialized","inputs":[{"name":"version","type":"uint8","indexed":false,"internalType":"uint8"}],"anonymous":false},{"type":"event","name":"OwnershipTransferred","inputs":[{"name":"previousOwner","type":"address","indexed":true,"internalType":"address"},{"name":"newOwner","type":"address","indexed":true,"internalType":"address"}],"anonymous":false},{"type":"event","name":"Paused","inputs":[{"name":"account","type":"address","indexed":false,"internalType":"address"}],"anonymous":false},{"type":"event","name":"Transfer","inputs":[{"name":"from","type":"address","indexed":true,"internalType":"address"},{"name":"to","type":"address","indexed":true,"internalType":"address"},{"name":"value","type":"uint256","indexed":false,"internalType":"uint256"}],"anonymous":false},{"type":"event","name":"Unpaused","inputs":[{"name":"account","type":"address","indexed":false,"internalType":"address"}],"anonymous":false}],"bytecode":{"object":"0x6080604052348015600f57600080fd5b506128678061001f6000396000f3fe608060405234801561001057600080fd5b50600436106101ae5760003560e01c80637ecebe00116100ee578063a9059cbb11610097578063d6a7e16911610071578063d6a7e169146103bf578063dd62ed3e146103d2578063e5a6b10f14610418578063f2fde38b1461042057600080fd5b8063a9059cbb14610386578063cae9ca5114610399578063d505accf146103ac57600080fd5b80638da5cb5b116100c85780638da5cb5b1461034257806395d89b411461036b578063a457c2d71461037357600080fd5b80637ecebe001461030157806384b0196e1461031457806388d695b21461032f57600080fd5b80633644e5151161015b5780634cd88b76116101355780634cd88b76146102a55780635c975abb146102b857806370a08231146102c3578063715018a6146102f957600080fd5b80633644e51514610275578063395093511461027d57806340c10f191461029057600080fd5b806318160ddd1161018c57806318160ddd1461023a57806323b872dd1461024c578063313ce5671461025f57600080fd5b806306fdde03146101b3578063095ea7b3146101d15780630ce83a61146101f4575b600080fd5b6101bb610433565b6040516101c8919061200a565b60405180910390f35b6101e46101df36600461204d565b6104c5565b60405190151581526020016101c8565b6101e4610202366004612088565b61016280547fffffffffffffffffffffffffffffffffffffffffffffffffffffffffffffff001660ff92909216919091179055600190565b6035545b6040519081526020016101c8565b6101e461025a3660046120a3565b6104df565b6101625460405160ff90911681526020016101c8565b61023e610503565b6101e461028b36600461204d565b610512565b6102a361029e36600461204d565b61055e565b005b6102a36102b33660046121f8565b610574565b60cc5460ff166101e4565b61023e6102d1366004612261565b73ffffffffffffffffffffffffffffffffffffffff1660009081526033602052604090205490565b6102a3610728565b61023e61030f366004612261565b61073c565b61031c610767565b6040516101c8979695949392919061227c565b6102a361033d3660046123c4565b610843565b6101305460405173ffffffffffffffffffffffffffffffffffffffff90911681526020016101c8565b6101bb610925565b6101e461038136600461204d565b610934565b6101e461039436600461204d565b610a05565b6101e46103a7366004612483565b610a13565b6102a36103ba3660046124ee565b610af4565b6102a36103cd366004612559565b610cb3565b61023e6103e0366004612596565b73ffffffffffffffffffffffffffffffffffffffff918216600090815260346020908152604080832093909416825291909152205490565b6101bb610cc0565b6102a361042e366004612261565b610d4f565b606060368054610442906125c9565b80601f016020809104026020016040519081016040528092919081815260200182805461046e906125c9565b80156104bb5780601f10610490576101008083540402835291602001916104bb565b820191906000526020600020905b81548152906001019060200180831161049e57829003601f168201915b5050505050905090565b6000336104d3818585610e06565b60019150505b92915050565b6000336104ed858285610fb9565b6104f8858585611090565b506001949350505050565b600061050d611311565b905090565b33600081815260346020908152604080832073ffffffffffffffffffffffffffffffffffffffff871684529091528120549091906104d39082908690610559908790612616565b610e06565b61056661131b565b610570828261139d565b5050565b600054610100900460ff16158080156105945750600054600160ff909116105b806105ae5750303b1580156105ae575060005460ff166001145b61063f576040517f08c379a000000000000000000000000000000000000000000000000000000000815260206004820152602e60248201527f496e697469616c697a61626c653a20636f6e747261637420697320616c72656160448201527f647920696e697469616c697a656400000000000000000000000000000000000060648201526084015b60405180910390fd5b600080547fffffffffffffffffffffffffffffffffffffffffffffffffffffffffffffff00166001179055801561069d57600080547fffffffffffffffffffffffffffffffffffffffffffffffffffffffffffff00ff166101001790555b6106a7838361149e565b6106b08361153f565b6106b8611615565b6106c06116b4565b801561072357600080547fffffffffffffffffffffffffffffffffffffffffffffffffffffffffffff00ff169055604051600181527f7f26b83ff96e1f2b6a682f133852f6798a09c465da95921460cefb38474024989060200160405180910390a15b505050565b61073061131b565b61073a6000611753565b565b73ffffffffffffffffffffffffffffffffffffffff81166000908152609960205260408120546104d9565b6000606080600080600060606065546000801b1480156107875750606654155b6107ed576040517f08c379a000000000000000000000000000000000000000000000000000000000815260206004820152601560248201527f4549503731323a20556e696e697469616c697a656400000000000000000000006044820152606401610636565b6107f56117cb565b6107fd6117da565b604080516000808252602082019092527f0f000000000000000000000000000000000000000000000000000000000000009b939a50919850469750309650945092509050565b80518251146108d4576040517f08c379a000000000000000000000000000000000000000000000000000000000815260206004820152602660248201527f526563697069656e747320616e6420616d6f756e7473206c656e677468206d6960448201527f736d6174636800000000000000000000000000000000000000000000000000006064820152608401610636565b60005b82518110156107235761091c8382815181106108f5576108f5612650565b602002602001015183838151811061090f5761090f612650565b6020026020010151610a05565b506001016108d7565b606060378054610442906125c9565b33600081815260346020908152604080832073ffffffffffffffffffffffffffffffffffffffff87168452909152812054909190838110156109f8576040517f08c379a000000000000000000000000000000000000000000000000000000000815260206004820152602560248201527f45524332303a2064656372656173656420616c6c6f77616e63652062656c6f7760448201527f207a65726f0000000000000000000000000000000000000000000000000000006064820152608401610636565b6104f88286868403610e06565b6000336104d3818585611090565b6000610a20338585610e06565b60008473ffffffffffffffffffffffffffffffffffffffff1683604051610a47919061267f565b6000604051808303816000865af19150503d8060008114610a84576040519150601f19603f3d011682016040523d82523d6000602084013e610a89565b606091505b50509050806104f8576040517f08c379a000000000000000000000000000000000000000000000000000000000815260206004820152601660248201527f43616c6c20746f207370656e646572206661696c6564000000000000000000006044820152606401610636565b83421115610b5e576040517f08c379a000000000000000000000000000000000000000000000000000000000815260206004820152601d60248201527f45524332305065726d69743a206578706972656420646561646c696e650000006044820152606401610636565b60007f6e71edae12b1b97f4d1f60370fef10105fa2faae0126114a169c64845d6126c9888888610b8d8c6117e9565b60408051602081019690965273ffffffffffffffffffffffffffffffffffffffff94851690860152929091166060840152608083015260a082015260c0810186905260e0016040516020818303038152906040528051906020012090506000610bf58261181e565b90506000610c0582878787611866565b90508973ffffffffffffffffffffffffffffffffffffffff168173ffffffffffffffffffffffffffffffffffffffff1614610c9c576040517f08c379a000000000000000000000000000000000000000000000000000000000815260206004820152601e60248201527f45524332305065726d69743a20696e76616c6964207369676e617475726500006044820152606401610636565b610ca78a8a8a610e06565b50505050505050505050565b61016361057082826126e9565b6101638054610cce906125c9565b80601f0160208091040260200160405190810160405280929190818152602001828054610cfa906125c9565b8015610d475780601f10610d1c57610100808354040283529160200191610d47565b820191906000526020600020905b815481529060010190602001808311610d2a57829003601f168201915b505050505081565b610d5761131b565b73ffffffffffffffffffffffffffffffffffffffff8116610dfa576040517f08c379a000000000000000000000000000000000000000000000000000000000815260206004820152602660248201527f4f776e61626c653a206e6577206f776e657220697320746865207a65726f206160448201527f64647265737300000000000000000000000000000000000000000000000000006064820152608401610636565b610e0381611753565b50565b73ffffffffffffffffffffffffffffffffffffffff8316610ea8576040517f08c379a0000000000000000000000000000000000000000000000000000000008152602060048201526024808201527f45524332303a20617070726f76652066726f6d20746865207a65726f2061646460448201527f72657373000000000000000000000000000000000000000000000000000000006064820152608401610636565b73ffffffffffffffffffffffffffffffffffffffff8216610f4b576040517f08c379a000000000000000000000000000000000000000000000000000000000815260206004820152602260248201527f45524332303a20617070726f766520746f20746865207a65726f20616464726560448201527f73730000000000000000000000000000000000000000000000000000000000006064820152608401610636565b73ffffffffffffffffffffffffffffffffffffffff83811660008181526034602090815260408083209487168084529482529182902085905590518481527f8c5be1e5ebec7d5bd14f71427d1e84f3dd0314c0f7b2291e5b200ac8c7c3b925910160405180910390a3505050565b73ffffffffffffffffffffffffffffffffffffffff8381166000908152603460209081526040808320938616835292905220547fffffffffffffffffffffffffffffffffffffffffffffffffffffffffffffffff811461108a578181101561107d576040517f08c379a000000000000000000000000000000000000000000000000000000000815260206004820152601d60248201527f45524332303a20696e73756666696369656e7420616c6c6f77616e63650000006044820152606401610636565b61108a8484848403610e06565b50505050565b73ffffffffffffffffffffffffffffffffffffffff8316611133576040517f08c379a000000000000000000000000000000000000000000000000000000000815260206004820152602560248201527f45524332303a207472616e736665722066726f6d20746865207a65726f20616460448201527f64726573730000000000000000000000000000000000000000000000000000006064820152608401610636565b73ffffffffffffffffffffffffffffffffffffffff82166111d6576040517f08c379a000000000000000000000000000000000000000000000000000000000815260206004820152602360248201527f45524332303a207472616e7366657220746f20746865207a65726f206164647260448201527f65737300000000000000000000000000000000000000000000000000000000006064820152608401610636565b6111e183838361188e565b73ffffffffffffffffffffffffffffffffffffffff831660009081526033602052604090205481811015611297576040517f08c379a000000000000000000000000000000000000000000000000000000000815260206004820152602660248201527f45524332303a207472616e7366657220616d6f756e742065786365656473206260448201527f616c616e636500000000000000000000000000000000000000000000000000006064820152608401610636565b73ffffffffffffffffffffffffffffffffffffffff80851660008181526033602052604080822086860390559286168082529083902080548601905591517fddf252ad1be2c89b69c2b068fc378daa952ba7f163c4a11628f55a4df523b3ef906113049086815260200190565b60405180910390a361108a565b600061050d611899565b6101305473ffffffffffffffffffffffffffffffffffffffff16331461073a576040517f08c379a000000000000000000000000000000000000000000000000000000000815260206004820181905260248201527f4f776e61626c653a2063616c6c6572206973206e6f7420746865206f776e65726044820152606401610636565b73ffffffffffffffffffffffffffffffffffffffff821661141a576040517f08c379a000000000000000000000000000000000000000000000000000000000815260206004820152601f60248201527f45524332303a206d696e7420746f20746865207a65726f2061646472657373006044820152606401610636565b6114266000838361188e565b80603560008282546114389190612616565b909155505073ffffffffffffffffffffffffffffffffffffffff82166000818152603360209081526040808320805486019055518481527fddf252ad1be2c89b69c2b068fc378daa952ba7f163c4a11628f55a4df523b3ef910160405180910390a35050565b600054610100900460ff16611535576040517f08c379a000000000000000000000000000000000000000000000000000000000815260206004820152602b60248201527f496e697469616c697a61626c653a20636f6e7472616374206973206e6f74206960448201527f6e697469616c697a696e670000000000000000000000000000000000000000006064820152608401610636565b610570828261190d565b600054610100900460ff166115d6576040517f08c379a000000000000000000000000000000000000000000000000000000000815260206004820152602b60248201527f496e697469616c697a61626c653a20636f6e7472616374206973206e6f74206960448201527f6e697469616c697a696e670000000000000000000000000000000000000000006064820152608401610636565b610e03816040518060400160405280600181526020017f31000000000000000000000000000000000000000000000000000000000000008152506119bd565b600054610100900460ff166116ac576040517f08c379a000000000000000000000000000000000000000000000000000000000815260206004820152602b60248201527f496e697469616c697a61626c653a20636f6e7472616374206973206e6f74206960448201527f6e697469616c697a696e670000000000000000000000000000000000000000006064820152608401610636565b61073a611a7c565b600054610100900460ff1661174b576040517f08c379a000000000000000000000000000000000000000000000000000000000815260206004820152602b60248201527f496e697469616c697a61626c653a20636f6e7472616374206973206e6f74206960448201527f6e697469616c697a696e670000000000000000000000000000000000000000006064820152608401610636565b61073a611b3d565b610130805473ffffffffffffffffffffffffffffffffffffffff8381167fffffffffffffffffffffffff0000000000000000000000000000000000000000831681179093556040519116919082907f8be0079c531659141344cd1fd0a4f28419497f9722a3daafe3b4186f6b6457e090600090a35050565b606060678054610442906125c9565b606060688054610442906125c9565b73ffffffffffffffffffffffffffffffffffffffff811660009081526099602052604090208054600181018255905b50919050565b60006104d961182b611311565b836040517f19010000000000000000000000000000000000000000000000000000000000008152600281019290925260228201526042902090565b600080600061187787878787611bdd565b9150915061188481611ccc565b5095945050505050565b610723838383611e7f565b60007f8b73c3c69bb8fe3d512ecc4cf759cc79239f7b179b0ffacaa9a75d522b39400f6118c4611f12565b6118cc611f6b565b60408051602081019490945283019190915260608201524660808201523060a082015260c00160405160208183030381529060405280519060200120905090565b600054610100900460ff166119a4576040517f08c379a000000000000000000000000000000000000000000000000000000000815260206004820152602b60248201527f496e697469616c697a61626c653a20636f6e7472616374206973206e6f74206960448201527f6e697469616c697a696e670000000000000000000000000000000000000000006064820152608401610636565b60366119b083826126e9565b50603761072382826126e9565b600054610100900460ff16611a54576040517f08c379a000000000000000000000000000000000000000000000000000000000815260206004820152602b60248201527f496e697469616c697a61626c653a20636f6e7472616374206973206e6f74206960448201527f6e697469616c697a696e670000000000000000000000000000000000000000006064820152608401610636565b6067611a6083826126e9565b506068611a6d82826126e9565b50506000606581905560665550565b600054610100900460ff16611b13576040517f08c379a000000000000000000000000000000000000000000000000000000000815260206004820152602b60248201527f496e697469616c697a61626c653a20636f6e7472616374206973206e6f74206960448201527f6e697469616c697a696e670000000000000000000000000000000000000000006064820152608401610636565b60cc80547fffffffffffffffffffffffffffffffffffffffffffffffffffffffffffffff00169055565b600054610100900460ff16611bd4576040517f08c379a000000000000000000000000000000000000000000000000000000000815260206004820152602b60248201527f496e697469616c697a61626c653a20636f6e7472616374206973206e6f74206960448201527f6e697469616c697a696e670000000000000000000000000000000000000000006064820152608401610636565b61073a33611753565b6000807f7fffffffffffffffffffffffffffffff5d576e7357a4501ddfe92f46681b20a0831115611c145750600090506003611cc3565b6040805160008082526020820180845289905260ff881692820192909252606081018690526080810185905260019060a0016020604051602081039080840390855afa158015611c68573d6000803e3d6000fd5b50506040517fffffffffffffffffffffffffffffffffffffffffffffffffffffffffffffffe0015191505073ffffffffffffffffffffffffffffffffffffffff8116611cbc57600060019250925050611cc3565b9150600090505b94509492505050565b6000816004811115611ce057611ce0612802565b03611ce85750565b6001816004811115611cfc57611cfc612802565b03611d63576040517f08c379a000000000000000000000000000000000000000000000000000000000815260206004820152601860248201527f45434453413a20696e76616c6964207369676e617475726500000000000000006044820152606401610636565b6002816004811115611d7757611d77612802565b03611dde576040517f08c379a000000000000000000000000000000000000000000000000000000000815260206004820152601f60248201527f45434453413a20696e76616c6964207369676e6174757265206c656e677468006044820152606401610636565b6003816004811115611df257611df2612802565b03610e03576040517f08c379a000000000000000000000000000000000000000000000000000000000815260206004820152602260248201527f45434453413a20696e76616c6964207369676e6174757265202773272076616c60448201527f75650000000000000000000000000000000000000000000000000000000000006064820152608401610636565b60cc5460ff1615610723576040517f08c379a000000000000000000000000000000000000000000000000000000000815260206004820152602a60248201527f45524332305061757361626c653a20746f6b656e207472616e7366657220776860448201527f696c6520706175736564000000000000000000000000000000000000000000006064820152608401610636565b600080611f1d6117cb565b805190915015611f34578051602090910120919050565b6065548015611f435792915050565b7fc5d2460186f7233c927e7db2dcc703c0e500b653ca82273b7bfad8045d85a4709250505090565b600080611f766117da565b805190915015611f8d578051602090910120919050565b6066548015611f435792915050565b60005b83811015611fb7578181015183820152602001611f9f565b50506000910152565b60008151808452611fd8816020860160208601611f9c565b601f017fffffffffffffffffffffffffffffffffffffffffffffffffffffffffffffffe0169290920160200192915050565b60208152600061201d6020830184611fc0565b9392505050565b803573ffffffffffffffffffffffffffffffffffffffff8116811461204857600080fd5b919050565b6000806040838503121561206057600080fd5b61206983612024565b946020939093013593505050565b803560ff8116811461204857600080fd5b60006020828403121561209a57600080fd5b61201d82612077565b6000806000606084860312156120b857600080fd5b6120c184612024565b92506120cf60208501612024565b929592945050506040919091013590565b7f4e487b7100000000000000000000000000000000000000000000000000000000600052604160045260246000fd5b604051601f82017fffffffffffffffffffffffffffffffffffffffffffffffffffffffffffffffe016810167ffffffffffffffff81118282101715612156576121566120e0565b604052919050565b60008067ffffffffffffffff841115612179576121796120e0565b50601f83017fffffffffffffffffffffffffffffffffffffffffffffffffffffffffffffffe0166020016121ac8161210f565b9150508281528383830111156121c157600080fd5b828260208301376000602084830101529392505050565b600082601f8301126121e957600080fd5b61201d8383356020850161215e565b6000806040838503121561220b57600080fd5b823567ffffffffffffffff81111561222257600080fd5b61222e858286016121d8565b925050602083013567ffffffffffffffff81111561224b57600080fd5b612257858286016121d8565b9150509250929050565b60006020828403121561227357600080fd5b61201d82612024565b7fff000000000000000000000000000000000000000000000000000000000000008816815260e0602082015260006122b760e0830189611fc0565b82810360408401526122c98189611fc0565b6060840188905273ffffffffffffffffffffffffffffffffffffffff8716608085015260a0840186905283810360c08501528451808252602080870193509091019060005b8181101561232c57835183526020938401939092019160010161230e565b50909b9a5050505050505050505050565b600067ffffffffffffffff821115612357576123576120e0565b5060051b60200190565b600082601f83011261237257600080fd5b81356123856123808261233d565b61210f565b8082825260208201915060208360051b8601019250858311156123a757600080fd5b602085015b838110156118845780358352602092830192016123ac565b600080604083850312156123d757600080fd5b823567ffffffffffffffff8111156123ee57600080fd5b8301601f810185136123ff57600080fd5b803561240d6123808261233d565b8082825260208201915060208360051b85010192508783111561242f57600080fd5b6020840193505b828410156124585761244784612024565b825260209384019390910190612436565b9450505050602083013567ffffffffffffffff81111561247757600080fd5b61225785828601612361565b60008060006060848603121561249857600080fd5b6124a184612024565b925060208401359150604084013567ffffffffffffffff8111156124c457600080fd5b8401601f810186136124d557600080fd5b6124e48682356020840161215e565b9150509250925092565b600080600080600080600060e0888a03121561250957600080fd5b61251288612024565b965061252060208901612024565b9550604088013594506060880135935061253c60808901612077565b9699959850939692959460a0840135945060c09093013592915050565b60006020828403121561256b57600080fd5b813567ffffffffffffffff81111561258257600080fd5b61258e848285016121d8565b949350505050565b600080604083850312156125a957600080fd5b6125b283612024565b91506125c060208401612024565b90509250929050565b600181811c908216806125dd57607f821691505b602082108103611818577f4e487b7100000000000000000000000000000000000000000000000000000000600052602260045260246000fd5b808201808211156104d9577f4e487b7100000000000000000000000000000000000000000000000000000000600052601160045260246000fd5b7f4e487b7100000000000000000000000000000000000000000000000000000000600052603260045260246000fd5b60008251612691818460208701611f9c565b9190910192915050565b601f82111561072357806000526020600020601f840160051c810160208510156126c25750805b601f840160051c820191505b818110156126e257600081556001016126ce565b5050505050565b815167ffffffffffffffff811115612703576127036120e0565b6127178161271184546125c9565b8461269b565b6020601f82116001811461276957600083156127335750848201515b7fffffffffffffffffffffffffffffffffffffffffffffffffffffffffffffffff600385901b1c1916600184901b1784556126e2565b6000848152602081207fffffffffffffffffffffffffffffffffffffffffffffffffffffffffffffffe08516915b828110156127b75787850151825560209485019460019092019101612797565b50848210156127f357868401517fffffffffffffffffffffffffffffffffffffffffffffffffffffffffffffffff600387901b60f8161c191681555b50505050600190811b01905550565b7f4e487b7100000000000000000000000000000000000000000000000000000000600052602160045260246000fdfea26469706673582212205a46c9a1680d3f8a5506accd903f9aeeb32c8f07362ce78e4cba5473d2bcc25064736f6c634300081a0033","linkReferences":{}},"methodIdentifiers":{"DOMAIN_SEPARATOR()":"3644e515","allowance(address,address)":"dd62ed3e","approve(address,uint256)":"095ea7b3","approveAndCall(address,uint256,bytes)":"cae9ca51","balanceOf(address)":"70a08231","batchTransfer(address[],uint256[])":"88d695b2","currency()":"e5a6b10f","decimals()":"313ce567","decreaseAllowance(address,uint256)":"a457c2d7","eip712Domain()":"84b0196e","increaseAllowance(address,uint256)":"39509351","initialize(string,string)":"4cd88b76","mint(address,uint256)":"40c10f19","name()":"06fdde03","nonces(address)":"7ecebe00","owner()":"8da5cb5b","paused()":"5c975abb","permit(address,address,uint256,uint256,uint8,bytes32,bytes32)":"d505accf","renounceOwnership()":"715018a6","symbol()":"95d89b41","totalSupply()":"18160ddd","transfer(address,uint256)":"a9059cbb","transferFrom(address,address,uint256)":"23b872dd","transferOwnership(address)":"f2fde38b","updateCurrency(string)":"d6a7e169","updateDecimals(uint8)":"0ce83a61"},"id":3}