{"abi":[{"type":"function","name":"changeProxyAdmin","inputs":[{"name":"proxy","type":"address","internalType":"contract ITransparentUpgradeableProxy"},{"name":"newAdmin","type":"address","internalType":"address"}],"outputs":[],"stateMutability":"nonpayable"},{"type":"function","name":"getProxyAdmin","inputs":[{"name":"proxy","type":"address","internalType":"contract ITransparentUpgradeableProxy"}],"outputs":[{"name":"","type":"address","internalType":"address"}],"stateMutability":"view"},{"type":"function","name":"getProxyImplementation","inputs":[{"name":"proxy","type":"address","internalType":"contract ITransparentUpgradeableProxy"}],"outputs":[{"name":"","type":"address","internalType":"address"}],"stateMutability":"view"},{"type":"function","name":"owner","inputs":[],"outputs":[{"name":"","type":"address","internalType":"address"}],"stateMutability":"view"},{"type":"function","name":"renounceOwnership","inputs":[],"outputs":[],"stateMutability":"nonpayable"},{"type":"function","name":"transferOwnership","inputs":[{"name":"newOwner","type":"address","internalType":"address"}],"outputs":[],"stateMutability":"nonpayable"},{"type":"function","name":"upgrade","inputs":[{"name":"proxy","type":"address","internalType":"contract ITransparentUpgradeableProxy"},{"name":"implementation","type":"address","internalType":"address"}],"outputs":[],"stateMutability":"nonpayable"},{"type":"function","name":"upgradeAndCall","inputs":[{"name":"proxy","type":"address","internalType":"contract ITransparentUpgradeableProxy"},{"name":"implementation","type":"address","internalType":"address"},{"name":"data","type":"bytes","internalType":"bytes"}],"outputs":[],"stateMutability":"payable"},{"type":"event","name":"OwnershipTransferred","inputs":[{"name":"previousOwner","type":"address","indexed":true,"internalType":"address"},{"name":"newOwner","type":"address","indexed":true,"internalType":"address"}],"anonymous":false}],"bytecode":{"object":"0x6080604052348015600f57600080fd5b50601733601b565b606b565b600080546001600160a01b038381166001600160a01b0319831681178455604051919092169283917f8be0079c531659141344cd1fd0a4f28419497f9722a3daafe3b4186f6b6457e09190a35050565b61088b8061007a6000396000f3fe60806040526004361061007b5760003560e01c80639623609d1161004e5780639623609d1461012b57806399a88ec41461013e578063f2fde38b1461015e578063f3b7dead1461017e57600080fd5b8063204e1c7a14610080578063715018a6146100c95780637eff275e146100e05780638da5cb5b14610100575b600080fd5b34801561008c57600080fd5b506100a061009b366004610608565b61019e565b60405173ffffffffffffffffffffffffffffffffffffffff909116815260200160405180910390f35b3480156100d557600080fd5b506100de610255565b005b3480156100ec57600080fd5b506100de6100fb36600461062c565b610269565b34801561010c57600080fd5b5060005473ffffffffffffffffffffffffffffffffffffffff166100a0565b6100de610139366004610694565b6102f7565b34801561014a57600080fd5b506100de61015936600461062c565b61038c565b34801561016a57600080fd5b506100de610179366004610608565b6103e8565b34801561018a57600080fd5b506100a0610199366004610608565b6104a4565b60008060008373ffffffffffffffffffffffffffffffffffffffff166040516101ea907f5c60da1b00000000000000000000000000000000000000000000000000000000815260040190565b600060405180830381855afa9150503d8060008114610225576040519150601f19603f3d011682016040523d82523d6000602084013e61022a565b606091505b50915091508161023957600080fd5b8080602001905181019061024d91906107af565b949350505050565b61025d6104f0565b6102676000610571565b565b6102716104f0565b6040517f8f28397000000000000000000000000000000000000000000000000000000000815273ffffffffffffffffffffffffffffffffffffffff8281166004830152831690638f283970906024015b600060405180830381600087803b1580156102db57600080fd5b505af11580156102ef573d6000803e3d6000fd5b505050505050565b6102ff6104f0565b6040517f4f1ef28600000000000000000000000000000000000000000000000000000000815273ffffffffffffffffffffffffffffffffffffffff841690634f1ef28690349061035590869086906004016107cc565b6000604051808303818588803b15801561036e57600080fd5b505af1158015610382573d6000803e3d6000fd5b5050505050505050565b6103946104f0565b6040517f3659cfe600000000000000000000000000000000000000000000000000000000815273ffffffffffffffffffffffffffffffffffffffff8281166004830152831690633659cfe6906024016102c1565b6103f06104f0565b73ffffffffffffffffffffffffffffffffffffffff8116610498576040517f08c379a000000000000000000000000000000000000000000000000000000000815260206004820152602660248201527f4f776e61626c653a206e6577206f776e657220697320746865207a65726f206160448201527f646472657373000000000000000000000000000000000000000000000000000060648201526084015b60405180910390fd5b6104a181610571565b50565b60008060008373ffffffffffffffffffffffffffffffffffffffff166040516101ea907ff851a44000000000000000000000000000000000000000000000000000000000815260040190565b60005473ffffffffffffffffffffffffffffffffffffffff163314610267576040517f08c379a000000000000000000000000000000000000000000000000000000000815260206004820181905260248201527f4f776e61626c653a2063616c6c6572206973206e6f7420746865206f776e6572604482015260640161048f565b6000805473ffffffffffffffffffffffffffffffffffffffff8381167fffffffffffffffffffffffff0000000000000000000000000000000000000000831681178455604051919092169283917f8be0079c531659141344cd1fd0a4f28419497f9722a3daafe3b4186f6b6457e09190a35050565b73ffffffffffffffffffffffffffffffffffffffff811681146104a157600080fd5b60006020828403121561061a57600080fd5b8135610625816105e6565b9392505050565b6000806040838503121561063f57600080fd5b823561064a816105e6565b9150602083013561065a816105e6565b809150509250929050565b7f4e487b7100000000000000000000000000000000000000000000000000000000600052604160045260246000fd5b6000806000606084860312156106a957600080fd5b83356106b4816105e6565b925060208401356106c4816105e6565b9150604084013567ffffffffffffffff8111156106e057600080fd5b8401601f810186136106f157600080fd5b803567ffffffffffffffff81111561070b5761070b610665565b6040517fffffffffffffffffffffffffffffffffffffffffffffffffffffffffffffffe0603f7fffffffffffffffffffffffffffffffffffffffffffffffffffffffffffffffe0601f8501160116810181811067ffffffffffffffff8211171561077757610777610665565b60405281815282820160200188101561078f57600080fd5b816020840160208301376000602083830101528093505050509250925092565b6000602082840312156107c157600080fd5b8151610625816105e6565b73ffffffffffffffffffffffffffffffffffffffff83168152604060208201526000825180604084015260005b8181101561081657602081860181015160608684010152016107f9565b5060006060828501015260607fffffffffffffffffffffffffffffffffffffffffffffffffffffffffffffffe0601f830116840101915050939250505056fea264697066735822122049c44f164a3ea26adffcb52dea37a2da06998af04dad0af03eec0236cd8ccd2464736f6c634300081a0033","linkReferences":{}},"methodIdentifiers":{"changeProxyAdmin(address,address)":"7eff275e","getProxyAdmin(address)":"f3b7dead","getProxyImplementation(address)":"204e1c7a","owner()":"8da5cb5b","renounceOwnership()":"715018a6","transferOwnership(address)":"f2fde38b","upgrade(address,address)":"99a88ec4","upgradeAndCall(address,address,bytes)":"9623609d"},"id":68}