{"abi":[{"type":"function","name":"configureMinter","inputs":[{"name":"minter","type":"address","internalType":"address"},{"name":"minterAllowedAmount","type":"uint256","internalType":"uint256"}],"outputs":[{"name":"","type":"bool","internalType":"bool"}],"stateMutability":"nonpayable"},{"type":"function","name":"isMinter","inputs":[{"name":"account","type":"address","internalType":"address"}],"outputs":[{"name":"","type":"bool","internalType":"bool"}],"stateMutability":"view"},{"type":"function","name":"masterMinter","inputs":[],"outputs":[{"name":"","type":"address","internalType":"address"}],"stateMutability":"view"},{"type":"function","name":"minterAllowance","inputs":[{"name":"minter","type":"address","internalType":"address"}],"outputs":[{"name":"","type":"uint256","internalType":"uint256"}],"stateMutability":"view"},{"type":"function","name":"removeMinter","inputs":[{"name":"minter","type":"address","internalType":"address"}],"outputs":[{"name":"","type":"bool","internalType":"bool"}],"stateMutability":"nonpayable"},{"type":"function","name":"updateMasterMinter","inputs":[{"name":"_newMasterMinter","type":"address","internalType":"address"}],"outputs":[],"stateMutability":"nonpayable"},{"type":"event","name":"MasterMinterChanged","inputs":[{"name":"newMasterMinter","type":"address","indexed":true,"internalType":"address"}],"anonymous":false},{"type":"event","name":"MinterConfigured","inputs":[{"name":"minter","type":"address","indexed":true,"internalType":"address"},{"name":"minterAllowedAmount","type":"uint256","indexed":false,"internalType":"uint256"}],"anonymous":false},{"type":"event","name":"MinterRemoved","inputs":[{"name":"oldMinter","type":"address","indexed":true,"internalType":"address"}],"anonymous":false}],"bytecode":{"object":"0x6080604052348015600f57600080fd5b506105b28061001f6000396000f3fe608060405234801561001057600080fd5b50600436106100725760003560e01c80638a6db9c3116100505780638a6db9c3146100f7578063aa20e1e41461013b578063aa271e1a1461015057600080fd5b80633092afd51461007757806335d99f351461009f5780634e44d956146100e4575b600080fd5b61008a610085366004610530565b610189565b60405190151581526020015b60405180910390f35b6001546100bf9073ffffffffffffffffffffffffffffffffffffffff1681565b60405173ffffffffffffffffffffffffffffffffffffffff9091168152602001610096565b61008a6100f2366004610552565b6102bd565b61012d610105366004610530565b73ffffffffffffffffffffffffffffffffffffffff1660009081526002602052604090205490565b604051908152602001610096565b61014e610149366004610530565b6103fa565b005b61008a61015e366004610530565b73ffffffffffffffffffffffffffffffffffffffff1660009081526020819052604090205460ff1690565b60015460009073ffffffffffffffffffffffffffffffffffffffff163314610238576040517f08c379a000000000000000000000000000000000000000000000000000000000815260206004820152602a60248201527f4d696e74657261626c653a2063616c6c6572206973206e6f7420746865206d6160448201527f737465724d696e7465720000000000000000000000000000000000000000000060648201526084015b60405180910390fd5b73ffffffffffffffffffffffffffffffffffffffff821660008181526020818152604080832080547fffffffffffffffffffffffffffffffffffffffffffffffffffffffffffffff001690556002909152808220829055517fe94479a9f7e1952cc78f2d6baab678adc1b772d936c6583def489e524cb666929190a25060015b919050565b60015460009073ffffffffffffffffffffffffffffffffffffffff163314610367576040517f08c379a000000000000000000000000000000000000000000000000000000000815260206004820152602a60248201527f4d696e74657261626c653a2063616c6c6572206973206e6f7420746865206d6160448201527f737465724d696e74657200000000000000000000000000000000000000000000606482015260840161022f565b73ffffffffffffffffffffffffffffffffffffffff831660008181526020818152604080832080547fffffffffffffffffffffffffffffffffffffffffffffffffffffffffffffff00166001179055600282529182902085905590518481527f46980fca912ef9bcdbd36877427b6b90e860769f604e89c0e67720cece530d20910160405180910390a250600192915050565b73ffffffffffffffffffffffffffffffffffffffff811661049d576040517f08c379a000000000000000000000000000000000000000000000000000000000815260206004820152603060248201527f4d696e74657261626c653a206e6577206d61737465724d696e7465722069732060448201527f746865207a65726f206164647265737300000000000000000000000000000000606482015260840161022f565b600180547fffffffffffffffffffffffff00000000000000000000000000000000000000001673ffffffffffffffffffffffffffffffffffffffff83169081179091556040517fdb66dfa9c6b8f5226fe9aac7e51897ae8ee94ac31dc70bb6c9900b2574b707e690600090a250565b803573ffffffffffffffffffffffffffffffffffffffff811681146102b857600080fd5b60006020828403121561054257600080fd5b61054b8261050c565b9392505050565b6000806040838503121561056557600080fd5b61056e8361050c565b94602093909301359350505056fea26469706673582212205b6fd9e26274ce8ea84f558dbd17ecebf05824d228c09ecc107dd0e48d6f851064736f6c634300081a0033","linkReferences":{}},"methodIdentifiers":{"configureMinter(address,uint256)":"4e44d956","isMinter(address)":"aa271e1a","masterMinter()":"35d99f35","minterAllowance(address)":"8a6db9c3","removeMinter(address)":"3092afd5","updateMasterMinter(address)":"aa20e1e4"},"id":1}