{
	"eip/EIP712Domain.sol": {
		"EIP712Domain": {
			"abi": [
				{
					"inputs": [],
					"name": "DOMAIN_SEPARATOR",
					"outputs": [
						{
							"internalType": "bytes32",
							"name": "",
							"type": "bytes32"
						}
					],
					"stateMutability": "view",
					"type": "function"
				}
			],
			"devdoc": {
				"kind": "dev",
				"methods": {
					"DOMAIN_SEPARATOR()": {
						"returns": {
							"_0": "The bytes32 EIP712 domain separator."
						}
					}
				},
				"title": "EIP712 Domain",
				"version": 1
			},
			"evm": {
				"assembly": "    /* \"eip/EIP712Domain.sol\":757:1442  contract EIP712Domain {... */\n  mstore(0x40, 0x80)\n  callvalue\n  dup1\n  iszero\n  tag_1\n  jumpi\n  0x00\n  dup1\n  revert\ntag_1:\n  pop\n  dataSize(sub_0)\n  dup1\n  dataOffset(sub_0)\n  0x00\n  codecopy\n  0x00\n  return\nstop\n\nsub_0: assembly {\n        /* \"eip/EIP712Domain.sol\":757:1442  contract EIP712Domain {... */\n      mstore(0x40, 0x80)\n      callvalue\n      dup1\n      iszero\n      tag_1\n      jumpi\n      0x00\n      dup1\n      revert\n    tag_1:\n      pop\n      jumpi(tag_2, lt(calldatasize, 0x04))\n      shr(0xe0, calldataload(0x00))\n      dup1\n      0x3644e515\n      eq\n      tag_3\n      jumpi\n    tag_2:\n      0x00\n      dup1\n      revert\n        /* \"eip/EIP712Domain.sol\":1073:1175  function DOMAIN_SEPARATOR() external view returns (bytes32) {... */\n    tag_3:\n        /* \"eip/EIP712Domain.sol\":1124:1131  bytes32 */\n      0x00\n        /* \"eip/EIP712Domain.sol\":1398:1433  _DEPRECATED_CACHED_DOMAIN_SEPARATOR */\n      sload\n        /* \"eip/EIP712Domain.sol\":1073:1175  function DOMAIN_SEPARATOR() external view returns (bytes32) {... */\n      mload(0x40)\n        /* \"#utility.yul\":160:185   */\n      swap1\n      dup2\n      mstore\n        /* \"#utility.yul\":148:150   */\n      0x20\n        /* \"#utility.yul\":133:151   */\n      add\n        /* \"eip/EIP712Domain.sol\":1073:1175  function DOMAIN_SEPARATOR() external view returns (bytes32) {... */\n      mload(0x40)\n      dup1\n      swap2\n      sub\n      swap1\n      return\n\n    auxdata: 0xa2646970667358221220d6365c3db4052567ac19caa5686c1fec81f3d7e76f6943284cfe88b71024eb7864736f6c63430008190033\n}\n",
				"bytecode": {
					"linkReferences": {},
					"object": "6080604052348015600e575f80fd5b50607480601a5f395ff3fe6080604052348015600e575f80fd5b50600436106026575f3560e01c80633644e51514602a575b5f80fd5b5f5460405190815260200160405180910390f3fea2646970667358221220d6365c3db4052567ac19caa5686c1fec81f3d7e76f6943284cfe88b71024eb7864736f6c63430008190033",
					"opcodes": "PUSH1 0x80 PUSH1 0x40 MSTORE CALLVALUE DUP1 ISZERO PUSH1 0xE JUMPI PUSH0 DUP1 REVERT JUMPDEST POP PUSH1 0x74 DUP1 PUSH1 0x1A PUSH0 CODECOPY PUSH0 RETURN INVALID PUSH1 0x80 PUSH1 0x40 MSTORE CALLVALUE DUP1 ISZERO PUSH1 0xE JUMPI PUSH0 DUP1 REVERT JUMPDEST POP PUSH1 0x4 CALLDATASIZE LT PUSH1 0x26 JUMPI PUSH0 CALLDATALOAD PUSH1 0xE0 SHR DUP1 PUSH4 0x3644E515 EQ PUSH1 0x2A JUMPI JUMPDEST PUSH0 DUP1 REVERT JUMPDEST PUSH0 SLOAD PUSH1 0x40 MLOAD SWAP1 DUP2 MSTORE PUSH1 0x20 ADD PUSH1 0x40 MLOAD DUP1 SWAP2 SUB SWAP1 RETURN INVALID LOG2 PUSH5 0x6970667358 0x22 SLT KECCAK256 0xD6 CALLDATASIZE TLOAD RETURNDATASIZE 0xB4 SDIV 0x25 PUSH8 0xAC19CAA5686C1FEC DUP2 RETURN 0xD7 0xE7 PUSH16 0x6943284CFE88B71024EB7864736F6C63 NUMBER STOP ADDMOD NOT STOP CALLER "
				},
				"gasEstimates": {
					"creation": {
						"codeDepositCost": "23200",
						"executionCost": "73",
						"totalCost": "23273"
					},
					"external": {
						"DOMAIN_SEPARATOR()": "2244"
					},
					"internal": {
						"_domainSeparator()": "infinite"
					}
				},
				"methodIdentifiers": {
					"DOMAIN_SEPARATOR()": "3644e515"
				}
			},
			"storageLayout": {
				"storage": [
					{
						"astId": 682,
						"contract": "eip/EIP712Domain.sol:EIP712Domain",
						"label": "_DEPRECATED_CACHED_DOMAIN_SEPARATOR",
						"offset": 0,
						"slot": "0",
						"type": "t_bytes32"
					}
				],
				"types": {
					"t_bytes32": {
						"encoding": "inplace",
						"label": "bytes32",
						"numberOfBytes": "32"
					}
				}
			},
			"userdoc": {
				"kind": "user",
				"methods": {
					"DOMAIN_SEPARATOR()": {
						"notice": "Get the EIP712 Domain Separator."
					}
				},
				"version": 1
			}
		}
	}
}